{
	"contracts/YulERC20.sol": {
		"YulERC20": {
			"abi": [
				{
					"inputs": [],
					"stateMutability": "nonpayable",
					"type": "constructor"
				},
				{
					"anonymous": false,
					"inputs": [
						{
							"indexed": true,
							"internalType": "address",
							"name": "owner",
							"type": "address"
						},
						{
							"indexed": true,
							"internalType": "address",
							"name": "spender",
							"type": "address"
						},
						{
							"indexed": false,
							"internalType": "uint256",
							"name": "amount",
							"type": "uint256"
						}
					],
					"name": "Approval",
					"type": "event"
				},
				{
					"anonymous": false,
					"inputs": [
						{
							"indexed": true,
							"internalType": "address",
							"name": "sender",
							"type": "address"
						},
						{
							"indexed": true,
							"internalType": "address",
							"name": "receiver",
							"type": "address"
						},
						{
							"indexed": false,
							"internalType": "uint256",
							"name": "amount",
							"type": "uint256"
						}
					],
					"name": "Transfer",
					"type": "event"
				},
				{
					"inputs": [
						{
							"internalType": "address",
							"name": "owner",
							"type": "address"
						},
						{
							"internalType": "address",
							"name": "spender",
							"type": "address"
						}
					],
					"name": "allowance",
					"outputs": [
						{
							"internalType": "uint256",
							"name": "",
							"type": "uint256"
						}
					],
					"stateMutability": "view",
					"type": "function"
				},
				{
					"inputs": [
						{
							"internalType": "address",
							"name": "spender",
							"type": "address"
						},
						{
							"internalType": "uint256",
							"name": "amount",
							"type": "uint256"
						}
					],
					"name": "approve",
					"outputs": [
						{
							"internalType": "bool",
							"name": "",
							"type": "bool"
						}
					],
					"stateMutability": "nonpayable",
					"type": "function"
				},
				{
					"inputs": [],
					"name": "balanceOf",
					"outputs": [
						{
							"internalType": "uint256",
							"name": "",
							"type": "uint256"
						}
					],
					"stateMutability": "view",
					"type": "function"
				},
				{
					"inputs": [],
					"name": "decimals",
					"outputs": [
						{
							"internalType": "uint8",
							"name": "",
							"type": "uint8"
						}
					],
					"stateMutability": "pure",
					"type": "function"
				},
				{
					"inputs": [],
					"name": "name",
					"outputs": [
						{
							"internalType": "string",
							"name": "",
							"type": "string"
						}
					],
					"stateMutability": "pure",
					"type": "function"
				},
				{
					"inputs": [],
					"name": "symbol",
					"outputs": [
						{
							"internalType": "string",
							"name": "",
							"type": "string"
						}
					],
					"stateMutability": "pure",
					"type": "function"
				},
				{
					"inputs": [],
					"name": "totalSupply",
					"outputs": [
						{
							"internalType": "uint256",
							"name": "",
							"type": "uint256"
						}
					],
					"stateMutability": "view",
					"type": "function"
				},
				{
					"inputs": [
						{
							"internalType": "address",
							"name": "receiver",
							"type": "address"
						},
						{
							"internalType": "uint256",
							"name": "value",
							"type": "uint256"
						}
					],
					"name": "transfer",
					"outputs": [
						{
							"internalType": "bool",
							"name": "",
							"type": "bool"
						}
					],
					"stateMutability": "nonpayable",
					"type": "function"
				},
				{
					"inputs": [
						{
							"internalType": "address",
							"name": "sender",
							"type": "address"
						},
						{
							"internalType": "address",
							"name": "receiver",
							"type": "address"
						},
						{
							"internalType": "uint256",
							"name": "amount",
							"type": "uint256"
						}
					],
					"name": "transferFrom",
					"outputs": [
						{
							"internalType": "bool",
							"name": "",
							"type": "bool"
						}
					],
					"stateMutability": "nonpayable",
					"type": "function"
				}
			],
			"devdoc": {
				"author": "<your name here>",
				"kind": "dev",
				"methods": {},
				"title": "Yul ERC20",
				"version": 1
			},
			"evm": {
				"assembly": "    /* \"contracts/YulERC20.sol\":1390:7679  contract YulERC20 {... */\n  mstore(0x40, 0x80)\n    /* \"contracts/YulERC20.sol\":1812:2146  constructor() {... */\n  callvalue\n  dup1\n  iszero\n  tag_1\n  jumpi\n  0x00\n  dup1\n  revert\ntag_1:\n  pop\n    /* \"contracts/YulERC20.sol\":1872:1880  caller() */\n  caller\n    /* \"contracts/YulERC20.sol\":1866:1870  0x00 */\n  0x00\n    /* \"contracts/YulERC20.sol\":1859:1881  mstore(0x00, caller()) */\n  mstore\n    /* \"contracts/YulERC20.sol\":1907:1911  0x00 */\n  0x00\n    /* \"contracts/YulERC20.sol\":1901:1905  0x20 */\n  0x20\n    /* \"contracts/YulERC20.sol\":1894:1912  mstore(0x20, 0x00) */\n  mstore\n    /* \"contracts/YulERC20.sol\":1953:1957  0x40 */\n  0x40\n    /* \"contracts/YulERC20.sol\":1947:1951  0x00 */\n  0x00\n    /* \"contracts/YulERC20.sol\":1937:1958  keccak256(0x00, 0x40) */\n  keccak256\n    /* \"contracts/YulERC20.sol\":1984:1994  maxUint256 */\n  0xffffffffffffffffffffffffffffffffffffffffffffffffffffffffffffffff\n    /* \"contracts/YulERC20.sol\":1978:1982  slot */\n  dup2\n    /* \"contracts/YulERC20.sol\":1971:1995  sstore(slot, maxUint256) */\n  sstore\n    /* \"contracts/YulERC20.sol\":2022:2032  maxUint256 */\n  0xffffffffffffffffffffffffffffffffffffffffffffffffffffffffffffffff\n    /* \"contracts/YulERC20.sol\":2016:2020  0x02 */\n  0x02\n    /* \"contracts/YulERC20.sol\":2009:2033  sstore(0x02, maxUint256) */\n  sstore\n    /* \"contracts/YulERC20.sol\":2060:2070  maxUint256 */\n  0xffffffffffffffffffffffffffffffffffffffffffffffffffffffffffffffff\n    /* \"contracts/YulERC20.sol\":2054:2058  0x00 */\n  0x00\n    /* \"contracts/YulERC20.sol\":2047:2071  mstore(0x00, maxUint256) */\n  mstore\n    /* \"contracts/YulERC20.sol\":2121:2129  caller() */\n  caller\n    /* \"contracts/YulERC20.sol\":2115:2119  0x00 */\n  0x00\n    /* \"contracts/YulERC20.sol\":2101:2113  transferHash */\n  0xddf252ad1be2c89b69c2b068fc378daa952ba7f163c4a11628f55a4df523b3ef\n    /* \"contracts/YulERC20.sol\":2095:2099  0x20 */\n  0x20\n    /* \"contracts/YulERC20.sol\":2089:2093  0x00 */\n  0x00\n    /* \"contracts/YulERC20.sol\":2084:2130  log3(0x00, 0x20, transferHash, 0x00, caller()) */\n  log3\n    /* \"contracts/YulERC20.sol\":1845:2140  {... */\n  pop\n    /* \"contracts/YulERC20.sol\":1390:7679  contract YulERC20 {... */\n  dataSize(sub_0)\n  dup1\n  dataOffset(sub_0)\n  0x00\n  codecopy\n  0x00\n  return\nstop\n\nsub_0: assembly {\n        /* \"contracts/YulERC20.sol\":1390:7679  contract YulERC20 {... */\n      mstore(0x40, 0x80)\n      callvalue\n      dup1\n      iszero\n      tag_1\n      jumpi\n      0x00\n      dup1\n      revert\n    tag_1:\n      pop\n      jumpi(tag_2, lt(calldatasize, 0x04))\n      shr(0xe0, calldataload(0x00))\n      dup1\n      0x313ce567\n      gt\n      tag_12\n      jumpi\n      dup1\n      0x313ce567\n      eq\n      tag_7\n      jumpi\n      dup1\n      0x722713f7\n      eq\n      tag_8\n      jumpi\n      dup1\n      0x95d89b41\n      eq\n      tag_9\n      jumpi\n      dup1\n      0xa9059cbb\n      eq\n      tag_10\n      jumpi\n      dup1\n      0xdd62ed3e\n      eq\n      tag_11\n      jumpi\n      jump(tag_2)\n    tag_12:\n      dup1\n      0x06fdde03\n      eq\n      tag_3\n      jumpi\n      dup1\n      0x095ea7b3\n      eq\n      tag_4\n      jumpi\n      dup1\n      0x18160ddd\n      eq\n      tag_5\n      jumpi\n      dup1\n      0x23b872dd\n      eq\n      tag_6\n      jumpi\n    tag_2:\n      0x00\n      dup1\n      revert\n        /* \"contracts/YulERC20.sol\":2152:2442  function name() public pure returns (string memory) {... */\n    tag_3:\n      tag_13\n      tag_14\n      jump\t// in\n    tag_13:\n      mload(0x40)\n      tag_15\n      swap2\n      swap1\n      tag_16\n      jump\t// in\n    tag_15:\n      mload(0x40)\n      dup1\n      swap2\n      sub\n      swap1\n      return\n        /* \"contracts/YulERC20.sol\":5308:5861  function approve(address spender, uint256 amount) public returns(bool) {... */\n    tag_4:\n      tag_17\n      0x04\n      dup1\n      calldatasize\n      sub\n      dup2\n      add\n      swap1\n      tag_18\n      swap2\n      swap1\n      tag_19\n      jump\t// in\n    tag_18:\n      tag_20\n      jump\t// in\n    tag_17:\n      mload(0x40)\n      tag_21\n      swap2\n      swap1\n      tag_22\n      jump\t// in\n    tag_21:\n      mload(0x40)\n      dup1\n      swap2\n      sub\n      swap1\n      return\n        /* \"contracts/YulERC20.sol\":2897:3055  function totalSupply() public view returns (uint256) {... */\n    tag_5:\n      tag_23\n      tag_24\n      jump\t// in\n    tag_23:\n      mload(0x40)\n      tag_25\n      swap2\n      swap1\n      tag_26\n      jump\t// in\n    tag_25:\n      mload(0x40)\n      dup1\n      swap2\n      sub\n      swap1\n      return\n        /* \"contracts/YulERC20.sol\":5867:7671  function transferFrom(address sender, address receiver, uint256 amount) public returns (bool) {... */\n    tag_6:\n      tag_27\n      0x04\n      dup1\n      calldatasize\n      sub\n      dup2\n      add\n      swap1\n      tag_28\n      swap2\n      swap1\n      tag_29\n      jump\t// in\n    tag_28:\n      tag_30\n      jump\t// in\n    tag_27:\n      mload(0x40)\n      tag_31\n      swap2\n      swap1\n      tag_22\n      jump\t// in\n    tag_31:\n      mload(0x40)\n      dup1\n      swap2\n      sub\n      swap1\n      return\n        /* \"contracts/YulERC20.sol\":2750:2891  function decimals() public pure returns (uint8) {... */\n    tag_7:\n      tag_32\n      tag_33\n      jump\t// in\n    tag_32:\n      mload(0x40)\n      tag_34\n      swap2\n      swap1\n      tag_35\n      jump\t// in\n    tag_34:\n      mload(0x40)\n      dup1\n      swap2\n      sub\n      swap1\n      return\n        /* \"contracts/YulERC20.sol\":3061:3307  function balanceOf() public view returns (uint256) {... */\n    tag_8:\n      tag_36\n      tag_37\n      jump\t// in\n    tag_36:\n      mload(0x40)\n      tag_38\n      swap2\n      swap1\n      tag_26\n      jump\t// in\n    tag_38:\n      mload(0x40)\n      dup1\n      swap2\n      sub\n      swap1\n      return\n        /* \"contracts/YulERC20.sol\":2448:2744  function symbol() public pure returns (string memory) {... */\n    tag_9:\n      tag_39\n      tag_40\n      jump\t// in\n    tag_39:\n      mload(0x40)\n      tag_41\n      swap2\n      swap1\n      tag_16\n      jump\t// in\n    tag_41:\n      mload(0x40)\n      dup1\n      swap2\n      sub\n      swap1\n      return\n        /* \"contracts/YulERC20.sol\":3313:4758  function transfer(address receiver, uint256 value) public returns (bool) {... */\n    tag_10:\n      tag_42\n      0x04\n      dup1\n      calldatasize\n      sub\n      dup2\n      add\n      swap1\n      tag_43\n      swap2\n      swap1\n      tag_19\n      jump\t// in\n    tag_43:\n      tag_44\n      jump\t// in\n    tag_42:\n      mload(0x40)\n      tag_45\n      swap2\n      swap1\n      tag_22\n      jump\t// in\n    tag_45:\n      mload(0x40)\n      dup1\n      swap2\n      sub\n      swap1\n      return\n        /* \"contracts/YulERC20.sol\":4764:5302  function allowance(address owner, address spender) public view returns (uint256) {... */\n    tag_11:\n      tag_46\n      0x04\n      dup1\n      calldatasize\n      sub\n      dup2\n      add\n      swap1\n      tag_47\n      swap2\n      swap1\n      tag_48\n      jump\t// in\n    tag_47:\n      tag_49\n      jump\t// in\n    tag_46:\n      mload(0x40)\n      tag_50\n      swap2\n      swap1\n      tag_26\n      jump\t// in\n    tag_50:\n      mload(0x40)\n      dup1\n      swap2\n      sub\n      swap1\n      return\n        /* \"contracts/YulERC20.sol\":2152:2442  function name() public pure returns (string memory) {... */\n    tag_14:\n        /* \"contracts/YulERC20.sol\":2189:2202  string memory */\n      0x60\n        /* \"contracts/YulERC20.sol\":2257:2261  0x40 */\n      0x40\n        /* \"contracts/YulERC20.sol\":2251:2262  mload(0x40) */\n      mload\n        /* \"contracts/YulERC20.sol\":2290:2294  0x20 */\n      0x20\n        /* \"contracts/YulERC20.sol\":2282:2288  memptr */\n      dup2\n        /* \"contracts/YulERC20.sol\":2275:2295  mstore(memptr, 0x20) */\n      mstore\n        /* \"contracts/YulERC20.sol\":2334:2344  nameLength */\n      0x09\n        /* \"contracts/YulERC20.sol\":2327:2331  0x20 */\n      0x20\n        /* \"contracts/YulERC20.sol\":2319:2325  memptr */\n      dup3\n        /* \"contracts/YulERC20.sol\":2315:2332  add(memptr, 0x20) */\n      add\n        /* \"contracts/YulERC20.sol\":2308:2345  mstore(add(memptr, 0x20), nameLength) */\n      mstore\n        /* \"contracts/YulERC20.sol\":2384:2392  nameData */\n      0x59756c20546f6b656e0000000000000000000000000000000000000000000000\n        /* \"contracts/YulERC20.sol\":2377:2381  0x40 */\n      0x40\n        /* \"contracts/YulERC20.sol\":2369:2375  memptr */\n      dup3\n        /* \"contracts/YulERC20.sol\":2365:2382  add(memptr, 0x40) */\n      add\n        /* \"contracts/YulERC20.sol\":2358:2393  mstore(add(memptr, 0x40), nameData) */\n      mstore\n        /* \"contracts/YulERC20.sol\":2421:2425  0x60 */\n      0x60\n        /* \"contracts/YulERC20.sol\":2413:2419  memptr */\n      dup2\n        /* \"contracts/YulERC20.sol\":2406:2426  return(memptr, 0x60) */\n      return\n        /* \"contracts/YulERC20.sol\":5308:5861  function approve(address spender, uint256 amount) public returns(bool) {... */\n    tag_20:\n        /* \"contracts/YulERC20.sol\":5373:5377  bool */\n      0x00\n        /* \"contracts/YulERC20.sol\":5425:5433  caller() */\n      caller\n        /* \"contracts/YulERC20.sol\":5419:5423  0x00 */\n      0x00\n        /* \"contracts/YulERC20.sol\":5412:5434  mstore(0x00, caller()) */\n      mstore\n        /* \"contracts/YulERC20.sol\":5460:5464  0x01 */\n      0x01\n        /* \"contracts/YulERC20.sol\":5454:5458  0x20 */\n      0x20\n        /* \"contracts/YulERC20.sol\":5447:5465  mstore(0x20, 0x01) */\n      mstore\n        /* \"contracts/YulERC20.sol\":5511:5515  0x40 */\n      0x40\n        /* \"contracts/YulERC20.sol\":5505:5509  0x00 */\n      0x00\n        /* \"contracts/YulERC20.sol\":5495:5516  keccak256(0x00, 0x40) */\n      keccak256\n        /* \"contracts/YulERC20.sol\":5543:5550  spender */\n      dup4\n        /* \"contracts/YulERC20.sol\":5537:5541  0x00 */\n      0x00\n        /* \"contracts/YulERC20.sol\":5530:5551  mstore(0x00, spender) */\n      mstore\n        /* \"contracts/YulERC20.sol\":5577:5586  innerHash */\n      dup1\n        /* \"contracts/YulERC20.sol\":5571:5575  0x20 */\n      0x20\n        /* \"contracts/YulERC20.sol\":5564:5587  mstore(0x20, innerHash) */\n      mstore\n        /* \"contracts/YulERC20.sol\":5637:5641  0x40 */\n      0x40\n        /* \"contracts/YulERC20.sol\":5631:5635  0x00 */\n      0x00\n        /* \"contracts/YulERC20.sol\":5621:5642  keccak256(0x00, 0x40) */\n      keccak256\n        /* \"contracts/YulERC20.sol\":5678:5684  amount */\n      dup4\n        /* \"contracts/YulERC20.sol\":5663:5676  allowanceSlot */\n      dup2\n        /* \"contracts/YulERC20.sol\":5656:5685  sstore(allowanceSlot, amount) */\n      sstore\n        /* \"contracts/YulERC20.sol\":5712:5718  amount */\n      dup4\n        /* \"contracts/YulERC20.sol\":5706:5710  0x00 */\n      0x00\n        /* \"contracts/YulERC20.sol\":5699:5719  mstore(0x00, amount) */\n      mstore\n        /* \"contracts/YulERC20.sol\":5773:5780  spender */\n      dup5\n        /* \"contracts/YulERC20.sol\":5763:5771  caller() */\n      caller\n        /* \"contracts/YulERC20.sol\":5749:5761  approvalHash */\n      0x8c5be1e5ebec7d5bd14f71427d1e84f3dd0314c0f7b2291e5b200ac8c7c3b925\n        /* \"contracts/YulERC20.sol\":5743:5747  0x20 */\n      0x20\n        /* \"contracts/YulERC20.sol\":5737:5741  0x00 */\n      0x00\n        /* \"contracts/YulERC20.sol\":5732:5781  log3(0x00, 0x20, approvalHash, caller(), spender) */\n      log3\n        /* \"contracts/YulERC20.sol\":5808:5812  0x01 */\n      0x01\n        /* \"contracts/YulERC20.sol\":5802:5806  0x00 */\n      0x00\n        /* \"contracts/YulERC20.sol\":5795:5813  mstore(0x00, 0x01) */\n      mstore\n        /* \"contracts/YulERC20.sol\":5839:5843  0x20 */\n      0x20\n        /* \"contracts/YulERC20.sol\":5833:5837  0x00 */\n      0x00\n        /* \"contracts/YulERC20.sol\":5826:5844  return(0x00, 0x20) */\n      return\n        /* \"contracts/YulERC20.sol\":2897:3055  function totalSupply() public view returns (uint256) {... */\n    tag_24:\n        /* \"contracts/YulERC20.sol\":2941:2948  uint256 */\n      0x00\n        /* \"contracts/YulERC20.sol\":3002:3006  0x02 */\n      0x02\n        /* \"contracts/YulERC20.sol\":2996:3007  sload(0x02) */\n      sload\n        /* \"contracts/YulERC20.sol\":2990:2994  0x00 */\n      0x00\n        /* \"contracts/YulERC20.sol\":2983:3008  mstore(0x00, sload(0x02)) */\n      mstore\n        /* \"contracts/YulERC20.sol\":3034:3038  0x20 */\n      0x20\n        /* \"contracts/YulERC20.sol\":3028:3032  0x00 */\n      0x00\n        /* \"contracts/YulERC20.sol\":3021:3039  return(0x00, 0x20) */\n      return\n        /* \"contracts/YulERC20.sol\":5867:7671  function transferFrom(address sender, address receiver, uint256 amount) public returns (bool) {... */\n    tag_30:\n        /* \"contracts/YulERC20.sol\":5955:5959  bool */\n      0x00\n        /* \"contracts/YulERC20.sol\":6014:6018  0x40 */\n      0x40\n        /* \"contracts/YulERC20.sol\":6008:6019  mload(0x40) */\n      mload\n        /* \"contracts/YulERC20.sol\":6046:6052  sender */\n      dup5\n        /* \"contracts/YulERC20.sol\":6040:6044  0x00 */\n      0x00\n        /* \"contracts/YulERC20.sol\":6033:6053  mstore(0x00, sender) */\n      mstore\n        /* \"contracts/YulERC20.sol\":6079:6083  0x01 */\n      0x01\n        /* \"contracts/YulERC20.sol\":6073:6077  0x20 */\n      0x20\n        /* \"contracts/YulERC20.sol\":6066:6084  mstore(0x20, 0x01) */\n      mstore\n        /* \"contracts/YulERC20.sol\":6130:6134  0x40 */\n      0x40\n        /* \"contracts/YulERC20.sol\":6124:6128  0x00 */\n      0x00\n        /* \"contracts/YulERC20.sol\":6114:6135  keccak256(0x00, 0x40) */\n      keccak256\n        /* \"contracts/YulERC20.sol\":6162:6170  caller() */\n      caller\n        /* \"contracts/YulERC20.sol\":6156:6160  0x00 */\n      0x00\n        /* \"contracts/YulERC20.sol\":6149:6171  mstore(0x00, caller()) */\n      mstore\n        /* \"contracts/YulERC20.sol\":6197:6206  innerHash */\n      dup1\n        /* \"contracts/YulERC20.sol\":6191:6195  0x20 */\n      0x20\n        /* \"contracts/YulERC20.sol\":6184:6207  mstore(0x20, innerHash) */\n      mstore\n        /* \"contracts/YulERC20.sol\":6257:6261  0x40 */\n      0x40\n        /* \"contracts/YulERC20.sol\":6251:6255  0x00 */\n      0x00\n        /* \"contracts/YulERC20.sol\":6241:6262  keccak256(0x00, 0x40) */\n      keccak256\n        /* \"contracts/YulERC20.sol\":6305:6318  allowanceSlot */\n      dup1\n        /* \"contracts/YulERC20.sol\":6299:6319  sload(allowanceSlot) */\n      sload\n        /* \"contracts/YulERC20.sol\":6356:6362  amount */\n      dup6\n        /* \"contracts/YulERC20.sol\":6339:6354  callerAllowance */\n      dup2\n        /* \"contracts/YulERC20.sol\":6336:6363  lt(callerAllowance, amount) */\n      lt\n        /* \"contracts/YulERC20.sol\":6333:6580  if lt(callerAllowance, amount) {... */\n      iszero\n      tag_55\n      jumpi\n        /* \"contracts/YulERC20.sol\":6397:6426  insufficientAllowanceSelector */\n      0xf180d8f900000000000000000000000000000000000000000000000000000000\n        /* \"contracts/YulERC20.sol\":6389:6395  memptr */\n      dup5\n        /* \"contracts/YulERC20.sol\":6382:6427  mstore(memptr, insufficientAllowanceSelector) */\n      mstore\n        /* \"contracts/YulERC20.sol\":6470:6476  sender */\n      dup8\n        /* \"contracts/YulERC20.sol\":6463:6467  0x04 */\n      0x04\n        /* \"contracts/YulERC20.sol\":6455:6461  memptr */\n      dup6\n        /* \"contracts/YulERC20.sol\":6451:6468  add(memptr, 0x04) */\n      add\n        /* \"contracts/YulERC20.sol\":6444:6477  mstore(add(memptr, 0x04), sender) */\n      mstore\n        /* \"contracts/YulERC20.sol\":6520:6528  caller() */\n      caller\n        /* \"contracts/YulERC20.sol\":6513:6517  0x24 */\n      0x24\n        /* \"contracts/YulERC20.sol\":6505:6511  memptr */\n      dup6\n        /* \"contracts/YulERC20.sol\":6501:6518  add(memptr, 0x24) */\n      add\n        /* \"contracts/YulERC20.sol\":6494:6529  mstore(add(memptr, 0x24), caller()) */\n      mstore\n        /* \"contracts/YulERC20.sol\":6561:6565  0x44 */\n      0x44\n        /* \"contracts/YulERC20.sol\":6553:6559  memptr */\n      dup5\n        /* \"contracts/YulERC20.sol\":6546:6566  revert(memptr, 0x44) */\n      revert\n        /* \"contracts/YulERC20.sol\":6333:6580  if lt(callerAllowance, amount) {... */\n    tag_55:\n        /* \"contracts/YulERC20.sol\":6617:6627  maxUint256 */\n      0xffffffffffffffffffffffffffffffffffffffffffffffffffffffffffffffff\n        /* \"contracts/YulERC20.sol\":6600:6615  callerAllowance */\n      dup2\n        /* \"contracts/YulERC20.sol\":6597:6628  lt(callerAllowance, maxUint256) */\n      lt\n        /* \"contracts/YulERC20.sol\":6594:6712  if lt(callerAllowance, maxUint256) {... */\n      iszero\n      tag_56\n      jumpi\n        /* \"contracts/YulERC20.sol\":6690:6696  amount */\n      dup6\n        /* \"contracts/YulERC20.sol\":6673:6688  callerAllowance */\n      dup2\n        /* \"contracts/YulERC20.sol\":6669:6697  sub(callerAllowance, amount) */\n      sub\n        /* \"contracts/YulERC20.sol\":6654:6667  allowanceSlot */\n      dup3\n        /* \"contracts/YulERC20.sol\":6647:6698  sstore(allowanceSlot, sub(callerAllowance, amount)) */\n      sstore\n        /* \"contracts/YulERC20.sol\":6594:6712  if lt(callerAllowance, maxUint256) {... */\n    tag_56:\n        /* \"contracts/YulERC20.sol\":6799:6805  sender */\n      dup8\n        /* \"contracts/YulERC20.sol\":6791:6797  memptr */\n      dup5\n        /* \"contracts/YulERC20.sol\":6784:6806  mstore(memptr, sender) */\n      mstore\n        /* \"contracts/YulERC20.sol\":6845:6849  0x00 */\n      0x00\n        /* \"contracts/YulERC20.sol\":6838:6842  0x20 */\n      0x20\n        /* \"contracts/YulERC20.sol\":6830:6836  memptr */\n      dup6\n        /* \"contracts/YulERC20.sol\":6826:6843  add(memptr, 0x20) */\n      add\n        /* \"contracts/YulERC20.sol\":6819:6850  mstore(add(memptr, 0x20), 0x00) */\n      mstore\n        /* \"contracts/YulERC20.sol\":6906:6910  0x40 */\n      0x40\n        /* \"contracts/YulERC20.sol\":6898:6904  memptr */\n      dup5\n        /* \"contracts/YulERC20.sol\":6888:6911  keccak256(memptr, 0x40) */\n      keccak256\n        /* \"contracts/YulERC20.sol\":6951:6968  senderBalanceSlot */\n      dup1\n        /* \"contracts/YulERC20.sol\":6945:6969  sload(senderBalanceSlot) */\n      sload\n        /* \"contracts/YulERC20.sol\":7004:7010  amount */\n      dup8\n        /* \"contracts/YulERC20.sol\":6989:7002  senderBalance */\n      dup2\n        /* \"contracts/YulERC20.sol\":6986:7011  lt(senderBalance, amount) */\n      lt\n        /* \"contracts/YulERC20.sol\":6983:7120  if lt(senderBalance, amount) {... */\n      iszero\n      tag_57\n      jumpi\n        /* \"contracts/YulERC20.sol\":7043:7070  insufficientBalanceSelector */\n      0xf4d678b800000000000000000000000000000000000000000000000000000000\n        /* \"contracts/YulERC20.sol\":7037:7041  0x00 */\n      0x00\n        /* \"contracts/YulERC20.sol\":7030:7071  mstore(0x00, insufficientBalanceSelector) */\n      mstore\n        /* \"contracts/YulERC20.sol\":7101:7105  0x04 */\n      0x04\n        /* \"contracts/YulERC20.sol\":7095:7099  0x00 */\n      0x00\n        /* \"contracts/YulERC20.sol\":7088:7106  revert(0x00, 0x04) */\n      revert\n        /* \"contracts/YulERC20.sol\":6983:7120  if lt(senderBalance, amount) {... */\n    tag_57:\n        /* \"contracts/YulERC20.sol\":7179:7185  amount */\n      dup8\n        /* \"contracts/YulERC20.sol\":7164:7177  senderBalance */\n      dup2\n        /* \"contracts/YulERC20.sol\":7160:7186  sub(senderBalance, amount) */\n      sub\n        /* \"contracts/YulERC20.sol\":7141:7158  senderBalanceSlot */\n      dup3\n        /* \"contracts/YulERC20.sol\":7134:7187  sstore(senderBalanceSlot, sub(senderBalance, amount)) */\n      sstore\n        /* \"contracts/YulERC20.sol\":7247:7253  sender */\n      dup10\n        /* \"contracts/YulERC20.sol\":7239:7245  memptr */\n      dup7\n        /* \"contracts/YulERC20.sol\":7232:7254  mstore(memptr, sender) */\n      mstore\n        /* \"contracts/YulERC20.sol\":7293:7297  0x00 */\n      0x00\n        /* \"contracts/YulERC20.sol\":7286:7290  0x20 */\n      0x20\n        /* \"contracts/YulERC20.sol\":7278:7284  memptr */\n      dup8\n        /* \"contracts/YulERC20.sol\":7274:7291  add(memptr, 0x20) */\n      add\n        /* \"contracts/YulERC20.sol\":7267:7298  mstore(add(memptr, 0x20), 0x00) */\n      mstore\n        /* \"contracts/YulERC20.sol\":7356:7360  0x40 */\n      0x40\n        /* \"contracts/YulERC20.sol\":7348:7354  memptr */\n      dup7\n        /* \"contracts/YulERC20.sol\":7338:7361  keccak256(memptr, 0x40) */\n      keccak256\n        /* \"contracts/YulERC20.sol\":7403:7422  receiverBalanceSlot */\n      dup1\n        /* \"contracts/YulERC20.sol\":7397:7423  sload(receiverBalanceSlot) */\n      sload\n        /* \"contracts/YulERC20.sol\":7486:7492  amount */\n      dup10\n        /* \"contracts/YulERC20.sol\":7469:7484  receiverBalance */\n      dup2\n        /* \"contracts/YulERC20.sol\":7465:7493  add(receiverBalance, amount) */\n      add\n        /* \"contracts/YulERC20.sol\":7444:7463  receiverBalanceSlot */\n      dup3\n        /* \"contracts/YulERC20.sol\":7437:7494  sstore(receiverBalanceSlot, add(receiverBalance, amount)) */\n      sstore\n        /* \"contracts/YulERC20.sol\":7521:7527  amount */\n      dup10\n        /* \"contracts/YulERC20.sol\":7515:7519  0x00 */\n      0x00\n        /* \"contracts/YulERC20.sol\":7508:7528  mstore(0x00, amount) */\n      mstore\n        /* \"contracts/YulERC20.sol\":7580:7588  receiver */\n      dup11\n        /* \"contracts/YulERC20.sol\":7572:7578  sender */\n      dup13\n        /* \"contracts/YulERC20.sol\":7558:7570  transferHash */\n      0xddf252ad1be2c89b69c2b068fc378daa952ba7f163c4a11628f55a4df523b3ef\n        /* \"contracts/YulERC20.sol\":7552:7556  0x20 */\n      0x20\n        /* \"contracts/YulERC20.sol\":7546:7550  0x00 */\n      0x00\n        /* \"contracts/YulERC20.sol\":7541:7589  log3(0x00, 0x20, transferHash, sender, receiver) */\n      log3\n        /* \"contracts/YulERC20.sol\":7616:7620  0x01 */\n      0x01\n        /* \"contracts/YulERC20.sol\":7610:7614  0x00 */\n      0x00\n        /* \"contracts/YulERC20.sol\":7603:7621  mstore(0x00, 0x01) */\n      mstore\n        /* \"contracts/YulERC20.sol\":7647:7651  0x20 */\n      0x20\n        /* \"contracts/YulERC20.sol\":7641:7645  0x00 */\n      0x00\n        /* \"contracts/YulERC20.sol\":7634:7652  return(0x00, 0x20) */\n      return\n        /* \"contracts/YulERC20.sol\":2750:2891  function decimals() public pure returns (uint8) {... */\n    tag_33:\n        /* \"contracts/YulERC20.sol\":2791:2796  uint8 */\n      0x00\n        /* \"contracts/YulERC20.sol\":2841:2843  18 */\n      0x12\n        /* \"contracts/YulERC20.sol\":2838:2839  0 */\n      0x00\n        /* \"contracts/YulERC20.sol\":2831:2844  mstore(0, 18) */\n      mstore\n        /* \"contracts/YulERC20.sol\":2870:2874  0x20 */\n      0x20\n        /* \"contracts/YulERC20.sol\":2864:2868  0x00 */\n      0x00\n        /* \"contracts/YulERC20.sol\":2857:2875  return(0x00, 0x20) */\n      return\n        /* \"contracts/YulERC20.sol\":3061:3307  function balanceOf() public view returns (uint256) {... */\n    tag_37:\n        /* \"contracts/YulERC20.sol\":3103:3110  uint256 */\n      0x00\n        /* \"contracts/YulERC20.sol\":3171:3172  4 */\n      0x04\n        /* \"contracts/YulERC20.sol\":3158:3173  calldataload(4) */\n      calldataload\n        /* \"contracts/YulERC20.sol\":3152:3156  0x00 */\n      0x00\n        /* \"contracts/YulERC20.sol\":3145:3174  mstore(0x00, calldataload(4)) */\n      mstore\n        /* \"contracts/YulERC20.sol\":3200:3204  0x00 */\n      0x00\n        /* \"contracts/YulERC20.sol\":3194:3198  0x20 */\n      0x20\n        /* \"contracts/YulERC20.sol\":3187:3205  mstore(0x20, 0x00) */\n      mstore\n        /* \"contracts/YulERC20.sol\":3253:3257  0x40 */\n      0x40\n        /* \"contracts/YulERC20.sol\":3247:3251  0x00 */\n      0x00\n        /* \"contracts/YulERC20.sol\":3237:3258  keccak256(0x00, 0x40) */\n      keccak256\n        /* \"contracts/YulERC20.sol\":3231:3259  sload(keccak256(0x00, 0x40)) */\n      sload\n        /* \"contracts/YulERC20.sol\":3225:3229  0x00 */\n      0x00\n        /* \"contracts/YulERC20.sol\":3218:3260  mstore(0x00, sload(keccak256(0x00, 0x40))) */\n      mstore\n        /* \"contracts/YulERC20.sol\":3286:3290  0x20 */\n      0x20\n        /* \"contracts/YulERC20.sol\":3280:3284  0x00 */\n      0x00\n        /* \"contracts/YulERC20.sol\":3273:3291  return(0x00, 0x20) */\n      return\n        /* \"contracts/YulERC20.sol\":2448:2744  function symbol() public pure returns (string memory) {... */\n    tag_40:\n        /* \"contracts/YulERC20.sol\":2487:2500  string memory */\n      0x60\n        /* \"contracts/YulERC20.sol\":2555:2559  0x40 */\n      0x40\n        /* \"contracts/YulERC20.sol\":2549:2560  mload(0x40) */\n      mload\n        /* \"contracts/YulERC20.sol\":2588:2592  0x20 */\n      0x20\n        /* \"contracts/YulERC20.sol\":2580:2586  memptr */\n      dup2\n        /* \"contracts/YulERC20.sol\":2573:2593  mstore(memptr, 0x20) */\n      mstore\n        /* \"contracts/YulERC20.sol\":2632:2644  symbolLength */\n      0x03\n        /* \"contracts/YulERC20.sol\":2625:2629  0x20 */\n      0x20\n        /* \"contracts/YulERC20.sol\":2617:2623  memptr */\n      dup3\n        /* \"contracts/YulERC20.sol\":2613:2630  add(memptr, 0x20) */\n      add\n        /* \"contracts/YulERC20.sol\":2606:2645  mstore(add(memptr, 0x20), symbolLength) */\n      mstore\n        /* \"contracts/YulERC20.sol\":2684:2694  symbolData */\n      0x59554c0000000000000000000000000000000000000000000000000000000000\n        /* \"contracts/YulERC20.sol\":2677:2681  0x40 */\n      0x40\n        /* \"contracts/YulERC20.sol\":2669:2675  memptr */\n      dup3\n        /* \"contracts/YulERC20.sol\":2665:2682  add(memptr, 0x40) */\n      add\n        /* \"contracts/YulERC20.sol\":2658:2695  mstore(add(memptr, 0x40), symbolData) */\n      mstore\n        /* \"contracts/YulERC20.sol\":2723:2727  0x60 */\n      0x60\n        /* \"contracts/YulERC20.sol\":2715:2721  memptr */\n      dup2\n        /* \"contracts/YulERC20.sol\":2708:2728  return(memptr, 0x60) */\n      return\n        /* \"contracts/YulERC20.sol\":3313:4758  function transfer(address receiver, uint256 value) public returns (bool) {... */\n    tag_44:\n        /* \"contracts/YulERC20.sol\":3380:3384  bool */\n      0x00\n        /* \"contracts/YulERC20.sol\":3457:3461  0x40 */\n      0x40\n        /* \"contracts/YulERC20.sol\":3451:3462  mload(0x40) */\n      mload\n        /* \"contracts/YulERC20.sol\":3571:3579  caller() */\n      caller\n        /* \"contracts/YulERC20.sol\":3563:3569  memptr */\n      dup2\n        /* \"contracts/YulERC20.sol\":3556:3580  mstore(memptr, caller()) */\n      mstore\n        /* \"contracts/YulERC20.sol\":3619:3623  0x00 */\n      0x00\n        /* \"contracts/YulERC20.sol\":3612:3616  0x20 */\n      0x20\n        /* \"contracts/YulERC20.sol\":3604:3610  memptr */\n      dup3\n        /* \"contracts/YulERC20.sol\":3600:3617  add(memptr, 0x20) */\n      add\n        /* \"contracts/YulERC20.sol\":3593:3624  mstore(add(memptr, 0x20), 0x00) */\n      mstore\n        /* \"contracts/YulERC20.sol\":3680:3684  0x40 */\n      0x40\n        /* \"contracts/YulERC20.sol\":3672:3678  memptr */\n      dup2\n        /* \"contracts/YulERC20.sol\":3662:3685  keccak256(memptr, 0x40) */\n      keccak256\n        /* \"contracts/YulERC20.sol\":3725:3742  callerBalanceSlot */\n      dup1\n        /* \"contracts/YulERC20.sol\":3719:3743  sload(callerBalanceSlot) */\n      sload\n        /* \"contracts/YulERC20.sol\":3778:3783  value */\n      dup5\n        /* \"contracts/YulERC20.sol\":3763:3776  callerBalance */\n      dup2\n        /* \"contracts/YulERC20.sol\":3760:3784  lt(callerBalance, value) */\n      lt\n        /* \"contracts/YulERC20.sol\":3757:3893  if lt(callerBalance, value) {... */\n      iszero\n      tag_62\n      jumpi\n        /* \"contracts/YulERC20.sol\":3816:3843  insufficientBalanceSelector */\n      0xf4d678b800000000000000000000000000000000000000000000000000000000\n        /* \"contracts/YulERC20.sol\":3810:3814  0x00 */\n      0x00\n        /* \"contracts/YulERC20.sol\":3803:3844  mstore(0x00, insufficientBalanceSelector) */\n      mstore\n        /* \"contracts/YulERC20.sol\":3874:3878  0x04 */\n      0x04\n        /* \"contracts/YulERC20.sol\":3868:3872  0x00 */\n      0x00\n        /* \"contracts/YulERC20.sol\":3861:3879  revert(0x00, 0x04) */\n      revert\n        /* \"contracts/YulERC20.sol\":3757:3893  if lt(callerBalance, value) {... */\n    tag_62:\n        /* \"contracts/YulERC20.sol\":3987:3992  value */\n      dup5\n        /* \"contracts/YulERC20.sol\":3972:3985  callerBalance */\n      dup2\n        /* \"contracts/YulERC20.sol\":3968:3993  sub(callerBalance, value) */\n      sub\n        /* \"contracts/YulERC20.sol\":4032:4048  newCallerBalance */\n      dup1\n        /* \"contracts/YulERC20.sol\":4013:4030  callerBalanceSlot */\n      dup4\n        /* \"contracts/YulERC20.sol\":4006:4049  sstore(callerBalanceSlot, newCallerBalance) */\n      sstore\n        /* \"contracts/YulERC20.sol\":4128:4136  receiver */\n      dup7\n        /* \"contracts/YulERC20.sol\":4120:4126  memptr */\n      dup5\n        /* \"contracts/YulERC20.sol\":4113:4137  mstore(memptr, receiver) */\n      mstore\n        /* \"contracts/YulERC20.sol\":4176:4180  0x00 */\n      0x00\n        /* \"contracts/YulERC20.sol\":4169:4173  0x20 */\n      0x20\n        /* \"contracts/YulERC20.sol\":4161:4167  memptr */\n      dup6\n        /* \"contracts/YulERC20.sol\":4157:4174  add(memptr, 0x20) */\n      add\n        /* \"contracts/YulERC20.sol\":4150:4181  mstore(add(memptr, 0x20), 0x00) */\n      mstore\n        /* \"contracts/YulERC20.sol\":4240:4244  0x40 */\n      0x40\n        /* \"contracts/YulERC20.sol\":4232:4238  memptr */\n      dup5\n        /* \"contracts/YulERC20.sol\":4222:4245  keccak256(memptr, 0x40) */\n      keccak256\n        /* \"contracts/YulERC20.sol\":4287:4306  receiverBalanceSlot */\n      dup1\n        /* \"contracts/YulERC20.sol\":4281:4307  sload(receiverBalanceSlot) */\n      sload\n        /* \"contracts/YulERC20.sol\":4420:4425  value */\n      dup8\n        /* \"contracts/YulERC20.sol\":4403:4418  receiverBalance */\n      dup2\n        /* \"contracts/YulERC20.sol\":4399:4426  add(receiverBalance, value) */\n      add\n        /* \"contracts/YulERC20.sol\":4513:4531  newReceiverBalance */\n      dup1\n        /* \"contracts/YulERC20.sol\":4492:4511  receiverBalanceSlot */\n      dup4\n        /* \"contracts/YulERC20.sol\":4485:4532  sstore(receiverBalanceSlot, newReceiverBalance) */\n      sstore\n        /* \"contracts/YulERC20.sol\":4577:4582  value */\n      dup9\n        /* \"contracts/YulERC20.sol\":4571:4575  0x00 */\n      0x00\n        /* \"contracts/YulERC20.sol\":4564:4583  mstore(0x00, value) */\n      mstore\n        /* \"contracts/YulERC20.sol\":4637:4645  receiver */\n      dup10\n        /* \"contracts/YulERC20.sol\":4627:4635  caller() */\n      caller\n        /* \"contracts/YulERC20.sol\":4613:4625  transferHash */\n      0xddf252ad1be2c89b69c2b068fc378daa952ba7f163c4a11628f55a4df523b3ef\n        /* \"contracts/YulERC20.sol\":4607:4611  0x20 */\n      0x20\n        /* \"contracts/YulERC20.sol\":4601:4605  0x00 */\n      0x00\n        /* \"contracts/YulERC20.sol\":4596:4646  log3(0x00, 0x20, transferHash, caller(), receiver) */\n      log3\n        /* \"contracts/YulERC20.sol\":4706:4710  0x01 */\n      0x01\n        /* \"contracts/YulERC20.sol\":4700:4704  0x00 */\n      0x00\n        /* \"contracts/YulERC20.sol\":4693:4711  mstore(0x00, 0x01) */\n      mstore\n        /* \"contracts/YulERC20.sol\":4737:4741  0x20 */\n      0x20\n        /* \"contracts/YulERC20.sol\":4731:4735  0x00 */\n      0x00\n        /* \"contracts/YulERC20.sol\":4724:4742  return(0x00, 0x20) */\n      return\n        /* \"contracts/YulERC20.sol\":4764:5302  function allowance(address owner, address spender) public view returns (uint256) {... */\n    tag_49:\n        /* \"contracts/YulERC20.sol\":4836:4843  uint256 */\n      0x00\n        /* \"contracts/YulERC20.sol\":4943:4948  owner */\n      dup3\n        /* \"contracts/YulERC20.sol\":4937:4941  0x00 */\n      0x00\n        /* \"contracts/YulERC20.sol\":4930:4949  mstore(0x00, owner) */\n      mstore\n        /* \"contracts/YulERC20.sol\":4975:4979  0x01 */\n      0x01\n        /* \"contracts/YulERC20.sol\":4969:4973  0x20 */\n      0x20\n        /* \"contracts/YulERC20.sol\":4962:4980  mstore(0x20, 0x01) */\n      mstore\n        /* \"contracts/YulERC20.sol\":5026:5030  0x40 */\n      0x40\n        /* \"contracts/YulERC20.sol\":5020:5024  0x00 */\n      0x00\n        /* \"contracts/YulERC20.sol\":5010:5031  keccak256(0x00, 0x40) */\n      keccak256\n        /* \"contracts/YulERC20.sol\":5058:5065  spender */\n      dup3\n        /* \"contracts/YulERC20.sol\":5052:5056  0x00 */\n      0x00\n        /* \"contracts/YulERC20.sol\":5045:5066  mstore(0x00, spender) */\n      mstore\n        /* \"contracts/YulERC20.sol\":5092:5101  innerHash */\n      dup1\n        /* \"contracts/YulERC20.sol\":5086:5090  0x20 */\n      0x20\n        /* \"contracts/YulERC20.sol\":5079:5102  mstore(0x20, innerHash) */\n      mstore\n        /* \"contracts/YulERC20.sol\":5152:5156  0x40 */\n      0x40\n        /* \"contracts/YulERC20.sol\":5146:5150  0x00 */\n      0x00\n        /* \"contracts/YulERC20.sol\":5136:5157  keccak256(0x00, 0x40) */\n      keccak256\n        /* \"contracts/YulERC20.sol\":5199:5212  allowanceSlot */\n      dup1\n        /* \"contracts/YulERC20.sol\":5193:5213  sload(allowanceSlot) */\n      sload\n        /* \"contracts/YulERC20.sol\":5239:5253  allowanceValue */\n      dup1\n        /* \"contracts/YulERC20.sol\":5233:5237  0x00 */\n      0x00\n        /* \"contracts/YulERC20.sol\":5226:5254  mstore(0x00, allowanceValue) */\n      mstore\n        /* \"contracts/YulERC20.sol\":5280:5284  0x20 */\n      0x20\n        /* \"contracts/YulERC20.sol\":5274:5278  0x00 */\n      0x00\n        /* \"contracts/YulERC20.sol\":5267:5285  return(0x00, 0x20) */\n      return\n        /* \"#utility.yul\":7:106   */\n    tag_64:\n        /* \"#utility.yul\":59:65   */\n      0x00\n        /* \"#utility.yul\":93:98   */\n      dup2\n        /* \"#utility.yul\":87:99   */\n      mload\n        /* \"#utility.yul\":77:99   */\n      swap1\n      pop\n        /* \"#utility.yul\":7:106   */\n      swap2\n      swap1\n      pop\n      jump\t// out\n        /* \"#utility.yul\":112:281   */\n    tag_65:\n        /* \"#utility.yul\":196:207   */\n      0x00\n        /* \"#utility.yul\":230:236   */\n      dup3\n        /* \"#utility.yul\":225:228   */\n      dup3\n        /* \"#utility.yul\":218:237   */\n      mstore\n        /* \"#utility.yul\":270:274   */\n      0x20\n        /* \"#utility.yul\":265:268   */\n      dup3\n        /* \"#utility.yul\":261:275   */\n      add\n        /* \"#utility.yul\":246:275   */\n      swap1\n      pop\n        /* \"#utility.yul\":112:281   */\n      swap3\n      swap2\n      pop\n      pop\n      jump\t// out\n        /* \"#utility.yul\":287:533   */\n    tag_66:\n        /* \"#utility.yul\":368:369   */\n      0x00\n        /* \"#utility.yul\":378:491   */\n    tag_88:\n        /* \"#utility.yul\":392:398   */\n      dup4\n        /* \"#utility.yul\":389:390   */\n      dup2\n        /* \"#utility.yul\":386:399   */\n      lt\n        /* \"#utility.yul\":378:491   */\n      iszero\n      tag_90\n      jumpi\n        /* \"#utility.yul\":477:478   */\n      dup1\n        /* \"#utility.yul\":472:475   */\n      dup3\n        /* \"#utility.yul\":468:479   */\n      add\n        /* \"#utility.yul\":462:480   */\n      mload\n        /* \"#utility.yul\":458:459   */\n      dup2\n        /* \"#utility.yul\":453:456   */\n      dup5\n        /* \"#utility.yul\":449:460   */\n      add\n        /* \"#utility.yul\":442:481   */\n      mstore\n        /* \"#utility.yul\":414:416   */\n      0x20\n        /* \"#utility.yul\":411:412   */\n      dup2\n        /* \"#utility.yul\":407:417   */\n      add\n        /* \"#utility.yul\":402:417   */\n      swap1\n      pop\n        /* \"#utility.yul\":378:491   */\n      jump(tag_88)\n    tag_90:\n        /* \"#utility.yul\":525:526   */\n      0x00\n        /* \"#utility.yul\":516:522   */\n      dup5\n        /* \"#utility.yul\":511:514   */\n      dup5\n        /* \"#utility.yul\":507:523   */\n      add\n        /* \"#utility.yul\":500:527   */\n      mstore\n        /* \"#utility.yul\":349:533   */\n      pop\n        /* \"#utility.yul\":287:533   */\n      pop\n      pop\n      pop\n      jump\t// out\n        /* \"#utility.yul\":539:641   */\n    tag_67:\n        /* \"#utility.yul\":580:586   */\n      0x00\n        /* \"#utility.yul\":631:633   */\n      0x1f\n        /* \"#utility.yul\":627:634   */\n      not\n        /* \"#utility.yul\":622:624   */\n      0x1f\n        /* \"#utility.yul\":615:620   */\n      dup4\n        /* \"#utility.yul\":611:625   */\n      add\n        /* \"#utility.yul\":607:635   */\n      and\n        /* \"#utility.yul\":597:635   */\n      swap1\n      pop\n        /* \"#utility.yul\":539:641   */\n      swap2\n      swap1\n      pop\n      jump\t// out\n        /* \"#utility.yul\":647:1024   */\n    tag_68:\n        /* \"#utility.yul\":735:738   */\n      0x00\n        /* \"#utility.yul\":763:802   */\n      tag_93\n        /* \"#utility.yul\":796:801   */\n      dup3\n        /* \"#utility.yul\":763:802   */\n      tag_64\n      jump\t// in\n    tag_93:\n        /* \"#utility.yul\":818:889   */\n      tag_94\n        /* \"#utility.yul\":882:888   */\n      dup2\n        /* \"#utility.yul\":877:880   */\n      dup6\n        /* \"#utility.yul\":818:889   */\n      tag_65\n      jump\t// in\n    tag_94:\n        /* \"#utility.yul\":811:889   */\n      swap4\n      pop\n        /* \"#utility.yul\":898:963   */\n      tag_95\n        /* \"#utility.yul\":956:962   */\n      dup2\n        /* \"#utility.yul\":951:954   */\n      dup6\n        /* \"#utility.yul\":944:948   */\n      0x20\n        /* \"#utility.yul\":937:942   */\n      dup7\n        /* \"#utility.yul\":933:949   */\n      add\n        /* \"#utility.yul\":898:963   */\n      tag_66\n      jump\t// in\n    tag_95:\n        /* \"#utility.yul\":988:1017   */\n      tag_96\n        /* \"#utility.yul\":1010:1016   */\n      dup2\n        /* \"#utility.yul\":988:1017   */\n      tag_67\n      jump\t// in\n    tag_96:\n        /* \"#utility.yul\":983:986   */\n      dup5\n        /* \"#utility.yul\":979:1018   */\n      add\n        /* \"#utility.yul\":972:1018   */\n      swap2\n      pop\n        /* \"#utility.yul\":739:1024   */\n      pop\n        /* \"#utility.yul\":647:1024   */\n      swap3\n      swap2\n      pop\n      pop\n      jump\t// out\n        /* \"#utility.yul\":1030:1343   */\n    tag_16:\n        /* \"#utility.yul\":1143:1147   */\n      0x00\n        /* \"#utility.yul\":1181:1183   */\n      0x20\n        /* \"#utility.yul\":1170:1179   */\n      dup3\n        /* \"#utility.yul\":1166:1184   */\n      add\n        /* \"#utility.yul\":1158:1184   */\n      swap1\n      pop\n        /* \"#utility.yul\":1230:1239   */\n      dup2\n        /* \"#utility.yul\":1224:1228   */\n      dup2\n        /* \"#utility.yul\":1220:1240   */\n      sub\n        /* \"#utility.yul\":1216:1217   */\n      0x00\n        /* \"#utility.yul\":1205:1214   */\n      dup4\n        /* \"#utility.yul\":1201:1218   */\n      add\n        /* \"#utility.yul\":1194:1241   */\n      mstore\n        /* \"#utility.yul\":1258:1336   */\n      tag_98\n        /* \"#utility.yul\":1331:1335   */\n      dup2\n        /* \"#utility.yul\":1322:1328   */\n      dup5\n        /* \"#utility.yul\":1258:1336   */\n      tag_68\n      jump\t// in\n    tag_98:\n        /* \"#utility.yul\":1250:1336   */\n      swap1\n      pop\n        /* \"#utility.yul\":1030:1343   */\n      swap3\n      swap2\n      pop\n      pop\n      jump\t// out\n        /* \"#utility.yul\":1430:1547   */\n    tag_70:\n        /* \"#utility.yul\":1539:1540   */\n      0x00\n        /* \"#utility.yul\":1536:1537   */\n      dup1\n        /* \"#utility.yul\":1529:1541   */\n      revert\n        /* \"#utility.yul\":1676:1802   */\n    tag_72:\n        /* \"#utility.yul\":1713:1720   */\n      0x00\n        /* \"#utility.yul\":1753:1795   */\n      0xffffffffffffffffffffffffffffffffffffffff\n        /* \"#utility.yul\":1746:1751   */\n      dup3\n        /* \"#utility.yul\":1742:1796   */\n      and\n        /* \"#utility.yul\":1731:1796   */\n      swap1\n      pop\n        /* \"#utility.yul\":1676:1802   */\n      swap2\n      swap1\n      pop\n      jump\t// out\n        /* \"#utility.yul\":1808:1904   */\n    tag_73:\n        /* \"#utility.yul\":1845:1852   */\n      0x00\n        /* \"#utility.yul\":1874:1898   */\n      tag_104\n        /* \"#utility.yul\":1892:1897   */\n      dup3\n        /* \"#utility.yul\":1874:1898   */\n      tag_72\n      jump\t// in\n    tag_104:\n        /* \"#utility.yul\":1863:1898   */\n      swap1\n      pop\n        /* \"#utility.yul\":1808:1904   */\n      swap2\n      swap1\n      pop\n      jump\t// out\n        /* \"#utility.yul\":1910:2032   */\n    tag_74:\n        /* \"#utility.yul\":1983:2007   */\n      tag_106\n        /* \"#utility.yul\":2001:2006   */\n      dup2\n        /* \"#utility.yul\":1983:2007   */\n      tag_73\n      jump\t// in\n    tag_106:\n        /* \"#utility.yul\":1976:1981   */\n      dup2\n        /* \"#utility.yul\":1973:2008   */\n      eq\n        /* \"#utility.yul\":1963:2026   */\n      tag_107\n      jumpi\n        /* \"#utility.yul\":2022:2023   */\n      0x00\n        /* \"#utility.yul\":2019:2020   */\n      dup1\n        /* \"#utility.yul\":2012:2024   */\n      revert\n        /* \"#utility.yul\":1963:2026   */\n    tag_107:\n        /* \"#utility.yul\":1910:2032   */\n      pop\n      jump\t// out\n        /* \"#utility.yul\":2038:2177   */\n    tag_75:\n        /* \"#utility.yul\":2084:2089   */\n      0x00\n        /* \"#utility.yul\":2122:2128   */\n      dup2\n        /* \"#utility.yul\":2109:2129   */\n      calldataload\n        /* \"#utility.yul\":2100:2129   */\n      swap1\n      pop\n        /* \"#utility.yul\":2138:2171   */\n      tag_109\n        /* \"#utility.yul\":2165:2170   */\n      dup2\n        /* \"#utility.yul\":2138:2171   */\n      tag_74\n      jump\t// in\n    tag_109:\n        /* \"#utility.yul\":2038:2177   */\n      swap3\n      swap2\n      pop\n      pop\n      jump\t// out\n        /* \"#utility.yul\":2183:2260   */\n    tag_76:\n        /* \"#utility.yul\":2220:2227   */\n      0x00\n        /* \"#utility.yul\":2249:2254   */\n      dup2\n        /* \"#utility.yul\":2238:2254   */\n      swap1\n      pop\n        /* \"#utility.yul\":2183:2260   */\n      swap2\n      swap1\n      pop\n      jump\t// out\n        /* \"#utility.yul\":2266:2388   */\n    tag_77:\n        /* \"#utility.yul\":2339:2363   */\n      tag_112\n        /* \"#utility.yul\":2357:2362   */\n      dup2\n        /* \"#utility.yul\":2339:2363   */\n      tag_76\n      jump\t// in\n    tag_112:\n        /* \"#utility.yul\":2332:2337   */\n      dup2\n        /* \"#utility.yul\":2329:2364   */\n      eq\n        /* \"#utility.yul\":2319:2382   */\n      tag_113\n      jumpi\n        /* \"#utility.yul\":2378:2379   */\n      0x00\n        /* \"#utility.yul\":2375:2376   */\n      dup1\n        /* \"#utility.yul\":2368:2380   */\n      revert\n        /* \"#utility.yul\":2319:2382   */\n    tag_113:\n        /* \"#utility.yul\":2266:2388   */\n      pop\n      jump\t// out\n        /* \"#utility.yul\":2394:2533   */\n    tag_78:\n        /* \"#utility.yul\":2440:2445   */\n      0x00\n        /* \"#utility.yul\":2478:2484   */\n      dup2\n        /* \"#utility.yul\":2465:2485   */\n      calldataload\n        /* \"#utility.yul\":2456:2485   */\n      swap1\n      pop\n        /* \"#utility.yul\":2494:2527   */\n      tag_115\n        /* \"#utility.yul\":2521:2526   */\n      dup2\n        /* \"#utility.yul\":2494:2527   */\n      tag_77\n      jump\t// in\n    tag_115:\n        /* \"#utility.yul\":2394:2533   */\n      swap3\n      swap2\n      pop\n      pop\n      jump\t// out\n        /* \"#utility.yul\":2539:3013   */\n    tag_19:\n        /* \"#utility.yul\":2607:2613   */\n      0x00\n        /* \"#utility.yul\":2615:2621   */\n      dup1\n        /* \"#utility.yul\":2664:2666   */\n      0x40\n        /* \"#utility.yul\":2652:2661   */\n      dup4\n        /* \"#utility.yul\":2643:2650   */\n      dup6\n        /* \"#utility.yul\":2639:2662   */\n      sub\n        /* \"#utility.yul\":2635:2667   */\n      slt\n        /* \"#utility.yul\":2632:2751   */\n      iszero\n      tag_117\n      jumpi\n        /* \"#utility.yul\":2670:2749   */\n      tag_118\n      tag_70\n      jump\t// in\n    tag_118:\n        /* \"#utility.yul\":2632:2751   */\n    tag_117:\n        /* \"#utility.yul\":2790:2791   */\n      0x00\n        /* \"#utility.yul\":2815:2868   */\n      tag_119\n        /* \"#utility.yul\":2860:2867   */\n      dup6\n        /* \"#utility.yul\":2851:2857   */\n      dup3\n        /* \"#utility.yul\":2840:2849   */\n      dup7\n        /* \"#utility.yul\":2836:2858   */\n      add\n        /* \"#utility.yul\":2815:2868   */\n      tag_75\n      jump\t// in\n    tag_119:\n        /* \"#utility.yul\":2805:2868   */\n      swap3\n      pop\n        /* \"#utility.yul\":2761:2878   */\n      pop\n        /* \"#utility.yul\":2917:2919   */\n      0x20\n        /* \"#utility.yul\":2943:2996   */\n      tag_120\n        /* \"#utility.yul\":2988:2995   */\n      dup6\n        /* \"#utility.yul\":2979:2985   */\n      dup3\n        /* \"#utility.yul\":2968:2977   */\n      dup7\n        /* \"#utility.yul\":2964:2986   */\n      add\n        /* \"#utility.yul\":2943:2996   */\n      tag_78\n      jump\t// in\n    tag_120:\n        /* \"#utility.yul\":2933:2996   */\n      swap2\n      pop\n        /* \"#utility.yul\":2888:3006   */\n      pop\n        /* \"#utility.yul\":2539:3013   */\n      swap3\n      pop\n      swap3\n      swap1\n      pop\n      jump\t// out\n        /* \"#utility.yul\":3019:3109   */\n    tag_79:\n        /* \"#utility.yul\":3053:3060   */\n      0x00\n        /* \"#utility.yul\":3096:3101   */\n      dup2\n        /* \"#utility.yul\":3089:3102   */\n      iszero\n        /* \"#utility.yul\":3082:3103   */\n      iszero\n        /* \"#utility.yul\":3071:3103   */\n      swap1\n      pop\n        /* \"#utility.yul\":3019:3109   */\n      swap2\n      swap1\n      pop\n      jump\t// out\n        /* \"#utility.yul\":3115:3224   */\n    tag_80:\n        /* \"#utility.yul\":3196:3217   */\n      tag_123\n        /* \"#utility.yul\":3211:3216   */\n      dup2\n        /* \"#utility.yul\":3196:3217   */\n      tag_79\n      jump\t// in\n    tag_123:\n        /* \"#utility.yul\":3191:3194   */\n      dup3\n        /* \"#utility.yul\":3184:3218   */\n      mstore\n        /* \"#utility.yul\":3115:3224   */\n      pop\n      pop\n      jump\t// out\n        /* \"#utility.yul\":3230:3440   */\n    tag_22:\n        /* \"#utility.yul\":3317:3321   */\n      0x00\n        /* \"#utility.yul\":3355:3357   */\n      0x20\n        /* \"#utility.yul\":3344:3353   */\n      dup3\n        /* \"#utility.yul\":3340:3358   */\n      add\n        /* \"#utility.yul\":3332:3358   */\n      swap1\n      pop\n        /* \"#utility.yul\":3368:3433   */\n      tag_125\n        /* \"#utility.yul\":3430:3431   */\n      0x00\n        /* \"#utility.yul\":3419:3428   */\n      dup4\n        /* \"#utility.yul\":3415:3432   */\n      add\n        /* \"#utility.yul\":3406:3412   */\n      dup5\n        /* \"#utility.yul\":3368:3433   */\n      tag_80\n      jump\t// in\n    tag_125:\n        /* \"#utility.yul\":3230:3440   */\n      swap3\n      swap2\n      pop\n      pop\n      jump\t// out\n        /* \"#utility.yul\":3446:3564   */\n    tag_81:\n        /* \"#utility.yul\":3533:3557   */\n      tag_127\n        /* \"#utility.yul\":3551:3556   */\n      dup2\n        /* \"#utility.yul\":3533:3557   */\n      tag_76\n      jump\t// in\n    tag_127:\n        /* \"#utility.yul\":3528:3531   */\n      dup3\n        /* \"#utility.yul\":3521:3558   */\n      mstore\n        /* \"#utility.yul\":3446:3564   */\n      pop\n      pop\n      jump\t// out\n        /* \"#utility.yul\":3570:3792   */\n    tag_26:\n        /* \"#utility.yul\":3663:3667   */\n      0x00\n        /* \"#utility.yul\":3701:3703   */\n      0x20\n        /* \"#utility.yul\":3690:3699   */\n      dup3\n        /* \"#utility.yul\":3686:3704   */\n      add\n        /* \"#utility.yul\":3678:3704   */\n      swap1\n      pop\n        /* \"#utility.yul\":3714:3785   */\n      tag_129\n        /* \"#utility.yul\":3782:3783   */\n      0x00\n        /* \"#utility.yul\":3771:3780   */\n      dup4\n        /* \"#utility.yul\":3767:3784   */\n      add\n        /* \"#utility.yul\":3758:3764   */\n      dup5\n        /* \"#utility.yul\":3714:3785   */\n      tag_81\n      jump\t// in\n    tag_129:\n        /* \"#utility.yul\":3570:3792   */\n      swap3\n      swap2\n      pop\n      pop\n      jump\t// out\n        /* \"#utility.yul\":3798:4417   */\n    tag_29:\n        /* \"#utility.yul\":3875:3881   */\n      0x00\n        /* \"#utility.yul\":3883:3889   */\n      dup1\n        /* \"#utility.yul\":3891:3897   */\n      0x00\n        /* \"#utility.yul\":3940:3942   */\n      0x60\n        /* \"#utility.yul\":3928:3937   */\n      dup5\n        /* \"#utility.yul\":3919:3926   */\n      dup7\n        /* \"#utility.yul\":3915:3938   */\n      sub\n        /* \"#utility.yul\":3911:3943   */\n      slt\n        /* \"#utility.yul\":3908:4027   */\n      iszero\n      tag_131\n      jumpi\n        /* \"#utility.yul\":3946:4025   */\n      tag_132\n      tag_70\n      jump\t// in\n    tag_132:\n        /* \"#utility.yul\":3908:4027   */\n    tag_131:\n        /* \"#utility.yul\":4066:4067   */\n      0x00\n        /* \"#utility.yul\":4091:4144   */\n      tag_133\n        /* \"#utility.yul\":4136:4143   */\n      dup7\n        /* \"#utility.yul\":4127:4133   */\n      dup3\n        /* \"#utility.yul\":4116:4125   */\n      dup8\n        /* \"#utility.yul\":4112:4134   */\n      add\n        /* \"#utility.yul\":4091:4144   */\n      tag_75\n      jump\t// in\n    tag_133:\n        /* \"#utility.yul\":4081:4144   */\n      swap4\n      pop\n        /* \"#utility.yul\":4037:4154   */\n      pop\n        /* \"#utility.yul\":4193:4195   */\n      0x20\n        /* \"#utility.yul\":4219:4272   */\n      tag_134\n        /* \"#utility.yul\":4264:4271   */\n      dup7\n        /* \"#utility.yul\":4255:4261   */\n      dup3\n        /* \"#utility.yul\":4244:4253   */\n      dup8\n        /* \"#utility.yul\":4240:4262   */\n      add\n        /* \"#utility.yul\":4219:4272   */\n      tag_75\n      jump\t// in\n    tag_134:\n        /* \"#utility.yul\":4209:4272   */\n      swap3\n      pop\n        /* \"#utility.yul\":4164:4282   */\n      pop\n        /* \"#utility.yul\":4321:4323   */\n      0x40\n        /* \"#utility.yul\":4347:4400   */\n      tag_135\n        /* \"#utility.yul\":4392:4399   */\n      dup7\n        /* \"#utility.yul\":4383:4389   */\n      dup3\n        /* \"#utility.yul\":4372:4381   */\n      dup8\n        /* \"#utility.yul\":4368:4390   */\n      add\n        /* \"#utility.yul\":4347:4400   */\n      tag_78\n      jump\t// in\n    tag_135:\n        /* \"#utility.yul\":4337:4400   */\n      swap2\n      pop\n        /* \"#utility.yul\":4292:4410   */\n      pop\n        /* \"#utility.yul\":3798:4417   */\n      swap3\n      pop\n      swap3\n      pop\n      swap3\n      jump\t// out\n        /* \"#utility.yul\":4423:4509   */\n    tag_82:\n        /* \"#utility.yul\":4458:4465   */\n      0x00\n        /* \"#utility.yul\":4498:4502   */\n      0xff\n        /* \"#utility.yul\":4491:4496   */\n      dup3\n        /* \"#utility.yul\":4487:4503   */\n      and\n        /* \"#utility.yul\":4476:4503   */\n      swap1\n      pop\n        /* \"#utility.yul\":4423:4509   */\n      swap2\n      swap1\n      pop\n      jump\t// out\n        /* \"#utility.yul\":4515:4627   */\n    tag_83:\n        /* \"#utility.yul\":4598:4620   */\n      tag_138\n        /* \"#utility.yul\":4614:4619   */\n      dup2\n        /* \"#utility.yul\":4598:4620   */\n      tag_82\n      jump\t// in\n    tag_138:\n        /* \"#utility.yul\":4593:4596   */\n      dup3\n        /* \"#utility.yul\":4586:4621   */\n      mstore\n        /* \"#utility.yul\":4515:4627   */\n      pop\n      pop\n      jump\t// out\n        /* \"#utility.yul\":4633:4847   */\n    tag_35:\n        /* \"#utility.yul\":4722:4726   */\n      0x00\n        /* \"#utility.yul\":4760:4762   */\n      0x20\n        /* \"#utility.yul\":4749:4758   */\n      dup3\n        /* \"#utility.yul\":4745:4763   */\n      add\n        /* \"#utility.yul\":4737:4763   */\n      swap1\n      pop\n        /* \"#utility.yul\":4773:4840   */\n      tag_140\n        /* \"#utility.yul\":4837:4838   */\n      0x00\n        /* \"#utility.yul\":4826:4835   */\n      dup4\n        /* \"#utility.yul\":4822:4839   */\n      add\n        /* \"#utility.yul\":4813:4819   */\n      dup5\n        /* \"#utility.yul\":4773:4840   */\n      tag_83\n      jump\t// in\n    tag_140:\n        /* \"#utility.yul\":4633:4847   */\n      swap3\n      swap2\n      pop\n      pop\n      jump\t// out\n        /* \"#utility.yul\":4853:5327   */\n    tag_48:\n        /* \"#utility.yul\":4921:4927   */\n      0x00\n        /* \"#utility.yul\":4929:4935   */\n      dup1\n        /* \"#utility.yul\":4978:4980   */\n      0x40\n        /* \"#utility.yul\":4966:4975   */\n      dup4\n        /* \"#utility.yul\":4957:4964   */\n      dup6\n        /* \"#utility.yul\":4953:4976   */\n      sub\n        /* \"#utility.yul\":4949:4981   */\n      slt\n        /* \"#utility.yul\":4946:5065   */\n      iszero\n      tag_142\n      jumpi\n        /* \"#utility.yul\":4984:5063   */\n      tag_143\n      tag_70\n      jump\t// in\n    tag_143:\n        /* \"#utility.yul\":4946:5065   */\n    tag_142:\n        /* \"#utility.yul\":5104:5105   */\n      0x00\n        /* \"#utility.yul\":5129:5182   */\n      tag_144\n        /* \"#utility.yul\":5174:5181   */\n      dup6\n        /* \"#utility.yul\":5165:5171   */\n      dup3\n        /* \"#utility.yul\":5154:5163   */\n      dup7\n        /* \"#utility.yul\":5150:5172   */\n      add\n        /* \"#utility.yul\":5129:5182   */\n      tag_75\n      jump\t// in\n    tag_144:\n        /* \"#utility.yul\":5119:5182   */\n      swap3\n      pop\n        /* \"#utility.yul\":5075:5192   */\n      pop\n        /* \"#utility.yul\":5231:5233   */\n      0x20\n        /* \"#utility.yul\":5257:5310   */\n      tag_145\n        /* \"#utility.yul\":5302:5309   */\n      dup6\n        /* \"#utility.yul\":5293:5299   */\n      dup3\n        /* \"#utility.yul\":5282:5291   */\n      dup7\n        /* \"#utility.yul\":5278:5300   */\n      add\n        /* \"#utility.yul\":5257:5310   */\n      tag_75\n      jump\t// in\n    tag_145:\n        /* \"#utility.yul\":5247:5310   */\n      swap2\n      pop\n        /* \"#utility.yul\":5202:5320   */\n      pop\n        /* \"#utility.yul\":4853:5327   */\n      swap3\n      pop\n      swap3\n      swap1\n      pop\n      jump\t// out\n\n    auxdata: 0xa26469706673582212208c4185adaa15963dcc5d58f4ef6aa99da5cc45c73c101c9e025c3fdeb12c3aaa64736f6c63430008110033\n}\n",
				"bytecode": {
					"linkReferences": {},
					"object": "608060405234801561001057600080fd5b5033600052600060205260406000207fffffffffffffffffffffffffffffffffffffffffffffffffffffffffffffffff81557fffffffffffffffffffffffffffffffffffffffffffffffffffffffffffffffff6002557fffffffffffffffffffffffffffffffffffffffffffffffffffffffffffffffff6000523360007fddf252ad1be2c89b69c2b068fc378daa952ba7f163c4a11628f55a4df523b3ef60206000a3506107bf806100c36000396000f3fe608060405234801561001057600080fd5b50600436106100935760003560e01c8063313ce56711610066578063313ce56714610134578063722713f71461015257806395d89b4114610170578063a9059cbb1461018e578063dd62ed3e146101be57610093565b806306fdde0314610098578063095ea7b3146100b657806318160ddd146100e657806323b872dd14610104575b600080fd5b6100a06101ee565b6040516100ad9190610564565b60405180910390f35b6100d060048036038101906100cb919061061f565b610229565b6040516100dd919061067a565b60405180910390f35b6100ee610280565b6040516100fb91906106a4565b60405180910390f35b61011e600480360381019061011991906106bf565b61028e565b60405161012b919061067a565b60405180910390f35b61013c6103ad565b604051610149919061072e565b60405180910390f35b61015a6103ba565b60405161016791906106a4565b60405180910390f35b6101786103d6565b6040516101859190610564565b60405180910390f35b6101a860048036038101906101a3919061061f565b610411565b6040516101b5919061067a565b60405180910390f35b6101d860048036038101906101d39190610749565b6104ab565b6040516101e591906106a4565b60405180910390f35b606060405160208152600960208201527f59756c20546f6b656e00000000000000000000000000000000000000000000006040820152606081f35b60003360005260016020526040600020836000528060205260406000208381558360005284337f8c5be1e5ebec7d5bd14f71427d1e84f3dd0314c0f7b2291e5b200ac8c7c3b92560206000a3600160005260206000f35b600060025460005260206000f35b60006040518460005260016020526040600020336000528060205260406000208054858110156102ec577ff180d8f9000000000000000000000000000000000000000000000000000000008452876004850152336024850152604484fd5b7fffffffffffffffffffffffffffffffffffffffffffffffffffffffffffffffff81101561031a5785810382555b878452600060208501526040842080548781101561035c577ff4d678b80000000000000000000000000000000000000000000000000000000060005260046000fd5b8781038255898652600060208701526040862080548981018255896000528a8c7fddf252ad1be2c89b69c2b068fc378daa952ba7f163c4a11628f55a4df523b3ef60206000a3600160005260206000f35b6000601260005260206000f35b6000600435600052600060205260406000205460005260206000f35b606060405160208152600360208201527f59554c00000000000000000000000000000000000000000000000000000000006040820152606081f35b60006040513381526000602082015260408120805484811015610458577ff4d678b80000000000000000000000000000000000000000000000000000000060005260046000fd5b848103808355868452600060208501526040842080548781018083558860005289337fddf252ad1be2c89b69c2b068fc378daa952ba7f163c4a11628f55a4df523b3ef60206000a3600160005260206000f35b600082600052600160205260406000208260005280602052604060002080548060005260206000f35b600081519050919050565b600082825260208201905092915050565b60005b8381101561050e5780820151818401526020810190506104f3565b60008484015250505050565b6000601f19601f8301169050919050565b6000610536826104d4565b61054081856104df565b93506105508185602086016104f0565b6105598161051a565b840191505092915050565b6000602082019050818103600083015261057e818461052b565b905092915050565b600080fd5b600073ffffffffffffffffffffffffffffffffffffffff82169050919050565b60006105b68261058b565b9050919050565b6105c6816105ab565b81146105d157600080fd5b50565b6000813590506105e3816105bd565b92915050565b6000819050919050565b6105fc816105e9565b811461060757600080fd5b50565b600081359050610619816105f3565b92915050565b6000806040838503121561063657610635610586565b5b6000610644858286016105d4565b92505060206106558582860161060a565b9150509250929050565b60008115159050919050565b6106748161065f565b82525050565b600060208201905061068f600083018461066b565b92915050565b61069e816105e9565b82525050565b60006020820190506106b96000830184610695565b92915050565b6000806000606084860312156106d8576106d7610586565b5b60006106e6868287016105d4565b93505060206106f7868287016105d4565b92505060406107088682870161060a565b9150509250925092565b600060ff82169050919050565b61072881610712565b82525050565b6000602082019050610743600083018461071f565b92915050565b600080604083850312156107605761075f610586565b5b600061076e858286016105d4565b925050602061077f858286016105d4565b915050925092905056fea26469706673582212208c4185adaa15963dcc5d58f4ef6aa99da5cc45c73c101c9e025c3fdeb12c3aaa64736f6c63430008110033",
					"opcodes": "PUSH1 0x80 PUSH1 0x40 MSTORE CALLVALUE DUP1 ISZERO PUSH2 0x10 JUMPI PUSH1 0x0 DUP1 REVERT JUMPDEST POP CALLER PUSH1 0x0 MSTORE PUSH1 0x0 PUSH1 0x20 MSTORE PUSH1 0x40 PUSH1 0x0 KECCAK256 PUSH32 0xFFFFFFFFFFFFFFFFFFFFFFFFFFFFFFFFFFFFFFFFFFFFFFFFFFFFFFFFFFFFFFFF DUP2 SSTORE PUSH32 0xFFFFFFFFFFFFFFFFFFFFFFFFFFFFFFFFFFFFFFFFFFFFFFFFFFFFFFFFFFFFFFFF PUSH1 0x2 SSTORE PUSH32 0xFFFFFFFFFFFFFFFFFFFFFFFFFFFFFFFFFFFFFFFFFFFFFFFFFFFFFFFFFFFFFFFF PUSH1 0x0 MSTORE CALLER PUSH1 0x0 PUSH32 0xDDF252AD1BE2C89B69C2B068FC378DAA952BA7F163C4A11628F55A4DF523B3EF PUSH1 0x20 PUSH1 0x0 LOG3 POP PUSH2 0x7BF DUP1 PUSH2 0xC3 PUSH1 0x0 CODECOPY PUSH1 0x0 RETURN INVALID PUSH1 0x80 PUSH1 0x40 MSTORE CALLVALUE DUP1 ISZERO PUSH2 0x10 JUMPI PUSH1 0x0 DUP1 REVERT JUMPDEST POP PUSH1 0x4 CALLDATASIZE LT PUSH2 0x93 JUMPI PUSH1 0x0 CALLDATALOAD PUSH1 0xE0 SHR DUP1 PUSH4 0x313CE567 GT PUSH2 0x66 JUMPI DUP1 PUSH4 0x313CE567 EQ PUSH2 0x134 JUMPI DUP1 PUSH4 0x722713F7 EQ PUSH2 0x152 JUMPI DUP1 PUSH4 0x95D89B41 EQ PUSH2 0x170 JUMPI DUP1 PUSH4 0xA9059CBB EQ PUSH2 0x18E JUMPI DUP1 PUSH4 0xDD62ED3E EQ PUSH2 0x1BE JUMPI PUSH2 0x93 JUMP JUMPDEST DUP1 PUSH4 0x6FDDE03 EQ PUSH2 0x98 JUMPI DUP1 PUSH4 0x95EA7B3 EQ PUSH2 0xB6 JUMPI DUP1 PUSH4 0x18160DDD EQ PUSH2 0xE6 JUMPI DUP1 PUSH4 0x23B872DD EQ PUSH2 0x104 JUMPI JUMPDEST PUSH1 0x0 DUP1 REVERT JUMPDEST PUSH2 0xA0 PUSH2 0x1EE JUMP JUMPDEST PUSH1 0x40 MLOAD PUSH2 0xAD SWAP2 SWAP1 PUSH2 0x564 JUMP JUMPDEST PUSH1 0x40 MLOAD DUP1 SWAP2 SUB SWAP1 RETURN JUMPDEST PUSH2 0xD0 PUSH1 0x4 DUP1 CALLDATASIZE SUB DUP2 ADD SWAP1 PUSH2 0xCB SWAP2 SWAP1 PUSH2 0x61F JUMP JUMPDEST PUSH2 0x229 JUMP JUMPDEST PUSH1 0x40 MLOAD PUSH2 0xDD SWAP2 SWAP1 PUSH2 0x67A JUMP JUMPDEST PUSH1 0x40 MLOAD DUP1 SWAP2 SUB SWAP1 RETURN JUMPDEST PUSH2 0xEE PUSH2 0x280 JUMP JUMPDEST PUSH1 0x40 MLOAD PUSH2 0xFB SWAP2 SWAP1 PUSH2 0x6A4 JUMP JUMPDEST PUSH1 0x40 MLOAD DUP1 SWAP2 SUB SWAP1 RETURN JUMPDEST PUSH2 0x11E PUSH1 0x4 DUP1 CALLDATASIZE SUB DUP2 ADD SWAP1 PUSH2 0x119 SWAP2 SWAP1 PUSH2 0x6BF JUMP JUMPDEST PUSH2 0x28E JUMP JUMPDEST PUSH1 0x40 MLOAD PUSH2 0x12B SWAP2 SWAP1 PUSH2 0x67A JUMP JUMPDEST PUSH1 0x40 MLOAD DUP1 SWAP2 SUB SWAP1 RETURN JUMPDEST PUSH2 0x13C PUSH2 0x3AD JUMP JUMPDEST PUSH1 0x40 MLOAD PUSH2 0x149 SWAP2 SWAP1 PUSH2 0x72E JUMP JUMPDEST PUSH1 0x40 MLOAD DUP1 SWAP2 SUB SWAP1 RETURN JUMPDEST PUSH2 0x15A PUSH2 0x3BA JUMP JUMPDEST PUSH1 0x40 MLOAD PUSH2 0x167 SWAP2 SWAP1 PUSH2 0x6A4 JUMP JUMPDEST PUSH1 0x40 MLOAD DUP1 SWAP2 SUB SWAP1 RETURN JUMPDEST PUSH2 0x178 PUSH2 0x3D6 JUMP JUMPDEST PUSH1 0x40 MLOAD PUSH2 0x185 SWAP2 SWAP1 PUSH2 0x564 JUMP JUMPDEST PUSH1 0x40 MLOAD DUP1 SWAP2 SUB SWAP1 RETURN JUMPDEST PUSH2 0x1A8 PUSH1 0x4 DUP1 CALLDATASIZE SUB DUP2 ADD SWAP1 PUSH2 0x1A3 SWAP2 SWAP1 PUSH2 0x61F JUMP JUMPDEST PUSH2 0x411 JUMP JUMPDEST PUSH1 0x40 MLOAD PUSH2 0x1B5 SWAP2 SWAP1 PUSH2 0x67A JUMP JUMPDEST PUSH1 0x40 MLOAD DUP1 SWAP2 SUB SWAP1 RETURN JUMPDEST PUSH2 0x1D8 PUSH1 0x4 DUP1 CALLDATASIZE SUB DUP2 ADD SWAP1 PUSH2 0x1D3 SWAP2 SWAP1 PUSH2 0x749 JUMP JUMPDEST PUSH2 0x4AB JUMP JUMPDEST PUSH1 0x40 MLOAD PUSH2 0x1E5 SWAP2 SWAP1 PUSH2 0x6A4 JUMP JUMPDEST PUSH1 0x40 MLOAD DUP1 SWAP2 SUB SWAP1 RETURN JUMPDEST PUSH1 0x60 PUSH1 0x40 MLOAD PUSH1 0x20 DUP2 MSTORE PUSH1 0x9 PUSH1 0x20 DUP3 ADD MSTORE PUSH32 0x59756C20546F6B656E0000000000000000000000000000000000000000000000 PUSH1 0x40 DUP3 ADD MSTORE PUSH1 0x60 DUP2 RETURN JUMPDEST PUSH1 0x0 CALLER PUSH1 0x0 MSTORE PUSH1 0x1 PUSH1 0x20 MSTORE PUSH1 0x40 PUSH1 0x0 KECCAK256 DUP4 PUSH1 0x0 MSTORE DUP1 PUSH1 0x20 MSTORE PUSH1 0x40 PUSH1 0x0 KECCAK256 DUP4 DUP2 SSTORE DUP4 PUSH1 0x0 MSTORE DUP5 CALLER PUSH32 0x8C5BE1E5EBEC7D5BD14F71427D1E84F3DD0314C0F7B2291E5B200AC8C7C3B925 PUSH1 0x20 PUSH1 0x0 LOG3 PUSH1 0x1 PUSH1 0x0 MSTORE PUSH1 0x20 PUSH1 0x0 RETURN JUMPDEST PUSH1 0x0 PUSH1 0x2 SLOAD PUSH1 0x0 MSTORE PUSH1 0x20 PUSH1 0x0 RETURN JUMPDEST PUSH1 0x0 PUSH1 0x40 MLOAD DUP5 PUSH1 0x0 MSTORE PUSH1 0x1 PUSH1 0x20 MSTORE PUSH1 0x40 PUSH1 0x0 KECCAK256 CALLER PUSH1 0x0 MSTORE DUP1 PUSH1 0x20 MSTORE PUSH1 0x40 PUSH1 0x0 KECCAK256 DUP1 SLOAD DUP6 DUP2 LT ISZERO PUSH2 0x2EC JUMPI PUSH32 0xF180D8F900000000000000000000000000000000000000000000000000000000 DUP5 MSTORE DUP8 PUSH1 0x4 DUP6 ADD MSTORE CALLER PUSH1 0x24 DUP6 ADD MSTORE PUSH1 0x44 DUP5 REVERT JUMPDEST PUSH32 0xFFFFFFFFFFFFFFFFFFFFFFFFFFFFFFFFFFFFFFFFFFFFFFFFFFFFFFFFFFFFFFFF DUP2 LT ISZERO PUSH2 0x31A JUMPI DUP6 DUP2 SUB DUP3 SSTORE JUMPDEST DUP8 DUP5 MSTORE PUSH1 0x0 PUSH1 0x20 DUP6 ADD MSTORE PUSH1 0x40 DUP5 KECCAK256 DUP1 SLOAD DUP8 DUP2 LT ISZERO PUSH2 0x35C JUMPI PUSH32 0xF4D678B800000000000000000000000000000000000000000000000000000000 PUSH1 0x0 MSTORE PUSH1 0x4 PUSH1 0x0 REVERT JUMPDEST DUP8 DUP2 SUB DUP3 SSTORE DUP10 DUP7 MSTORE PUSH1 0x0 PUSH1 0x20 DUP8 ADD MSTORE PUSH1 0x40 DUP7 KECCAK256 DUP1 SLOAD DUP10 DUP2 ADD DUP3 SSTORE DUP10 PUSH1 0x0 MSTORE DUP11 DUP13 PUSH32 0xDDF252AD1BE2C89B69C2B068FC378DAA952BA7F163C4A11628F55A4DF523B3EF PUSH1 0x20 PUSH1 0x0 LOG3 PUSH1 0x1 PUSH1 0x0 MSTORE PUSH1 0x20 PUSH1 0x0 RETURN JUMPDEST PUSH1 0x0 PUSH1 0x12 PUSH1 0x0 MSTORE PUSH1 0x20 PUSH1 0x0 RETURN JUMPDEST PUSH1 0x0 PUSH1 0x4 CALLDATALOAD PUSH1 0x0 MSTORE PUSH1 0x0 PUSH1 0x20 MSTORE PUSH1 0x40 PUSH1 0x0 KECCAK256 SLOAD PUSH1 0x0 MSTORE PUSH1 0x20 PUSH1 0x0 RETURN JUMPDEST PUSH1 0x60 PUSH1 0x40 MLOAD PUSH1 0x20 DUP2 MSTORE PUSH1 0x3 PUSH1 0x20 DUP3 ADD MSTORE PUSH32 0x59554C0000000000000000000000000000000000000000000000000000000000 PUSH1 0x40 DUP3 ADD MSTORE PUSH1 0x60 DUP2 RETURN JUMPDEST PUSH1 0x0 PUSH1 0x40 MLOAD CALLER DUP2 MSTORE PUSH1 0x0 PUSH1 0x20 DUP3 ADD MSTORE PUSH1 0x40 DUP2 KECCAK256 DUP1 SLOAD DUP5 DUP2 LT ISZERO PUSH2 0x458 JUMPI PUSH32 0xF4D678B800000000000000000000000000000000000000000000000000000000 PUSH1 0x0 MSTORE PUSH1 0x4 PUSH1 0x0 REVERT JUMPDEST DUP5 DUP2 SUB DUP1 DUP4 SSTORE DUP7 DUP5 MSTORE PUSH1 0x0 PUSH1 0x20 DUP6 ADD MSTORE PUSH1 0x40 DUP5 KECCAK256 DUP1 SLOAD DUP8 DUP2 ADD DUP1 DUP4 SSTORE DUP9 PUSH1 0x0 MSTORE DUP10 CALLER PUSH32 0xDDF252AD1BE2C89B69C2B068FC378DAA952BA7F163C4A11628F55A4DF523B3EF PUSH1 0x20 PUSH1 0x0 LOG3 PUSH1 0x1 PUSH1 0x0 MSTORE PUSH1 0x20 PUSH1 0x0 RETURN JUMPDEST PUSH1 0x0 DUP3 PUSH1 0x0 MSTORE PUSH1 0x1 PUSH1 0x20 MSTORE PUSH1 0x40 PUSH1 0x0 KECCAK256 DUP3 PUSH1 0x0 MSTORE DUP1 PUSH1 0x20 MSTORE PUSH1 0x40 PUSH1 0x0 KECCAK256 DUP1 SLOAD DUP1 PUSH1 0x0 MSTORE PUSH1 0x20 PUSH1 0x0 RETURN JUMPDEST PUSH1 0x0 DUP2 MLOAD SWAP1 POP SWAP2 SWAP1 POP JUMP JUMPDEST PUSH1 0x0 DUP3 DUP3 MSTORE PUSH1 0x20 DUP3 ADD SWAP1 POP SWAP3 SWAP2 POP POP JUMP JUMPDEST PUSH1 0x0 JUMPDEST DUP4 DUP2 LT ISZERO PUSH2 0x50E JUMPI DUP1 DUP3 ADD MLOAD DUP2 DUP5 ADD MSTORE PUSH1 0x20 DUP2 ADD SWAP1 POP PUSH2 0x4F3 JUMP JUMPDEST PUSH1 0x0 DUP5 DUP5 ADD MSTORE POP POP POP POP JUMP JUMPDEST PUSH1 0x0 PUSH1 0x1F NOT PUSH1 0x1F DUP4 ADD AND SWAP1 POP SWAP2 SWAP1 POP JUMP JUMPDEST PUSH1 0x0 PUSH2 0x536 DUP3 PUSH2 0x4D4 JUMP JUMPDEST PUSH2 0x540 DUP2 DUP6 PUSH2 0x4DF JUMP JUMPDEST SWAP4 POP PUSH2 0x550 DUP2 DUP6 PUSH1 0x20 DUP7 ADD PUSH2 0x4F0 JUMP JUMPDEST PUSH2 0x559 DUP2 PUSH2 0x51A JUMP JUMPDEST DUP5 ADD SWAP2 POP POP SWAP3 SWAP2 POP POP JUMP JUMPDEST PUSH1 0x0 PUSH1 0x20 DUP3 ADD SWAP1 POP DUP2 DUP2 SUB PUSH1 0x0 DUP4 ADD MSTORE PUSH2 0x57E DUP2 DUP5 PUSH2 0x52B JUMP JUMPDEST SWAP1 POP SWAP3 SWAP2 POP POP JUMP JUMPDEST PUSH1 0x0 DUP1 REVERT JUMPDEST PUSH1 0x0 PUSH20 0xFFFFFFFFFFFFFFFFFFFFFFFFFFFFFFFFFFFFFFFF DUP3 AND SWAP1 POP SWAP2 SWAP1 POP JUMP JUMPDEST PUSH1 0x0 PUSH2 0x5B6 DUP3 PUSH2 0x58B JUMP JUMPDEST SWAP1 POP SWAP2 SWAP1 POP JUMP JUMPDEST PUSH2 0x5C6 DUP2 PUSH2 0x5AB JUMP JUMPDEST DUP2 EQ PUSH2 0x5D1 JUMPI PUSH1 0x0 DUP1 REVERT JUMPDEST POP JUMP JUMPDEST PUSH1 0x0 DUP2 CALLDATALOAD SWAP1 POP PUSH2 0x5E3 DUP2 PUSH2 0x5BD JUMP JUMPDEST SWAP3 SWAP2 POP POP JUMP JUMPDEST PUSH1 0x0 DUP2 SWAP1 POP SWAP2 SWAP1 POP JUMP JUMPDEST PUSH2 0x5FC DUP2 PUSH2 0x5E9 JUMP JUMPDEST DUP2 EQ PUSH2 0x607 JUMPI PUSH1 0x0 DUP1 REVERT JUMPDEST POP JUMP JUMPDEST PUSH1 0x0 DUP2 CALLDATALOAD SWAP1 POP PUSH2 0x619 DUP2 PUSH2 0x5F3 JUMP JUMPDEST SWAP3 SWAP2 POP POP JUMP JUMPDEST PUSH1 0x0 DUP1 PUSH1 0x40 DUP4 DUP6 SUB SLT ISZERO PUSH2 0x636 JUMPI PUSH2 0x635 PUSH2 0x586 JUMP JUMPDEST JUMPDEST PUSH1 0x0 PUSH2 0x644 DUP6 DUP3 DUP7 ADD PUSH2 0x5D4 JUMP JUMPDEST SWAP3 POP POP PUSH1 0x20 PUSH2 0x655 DUP6 DUP3 DUP7 ADD PUSH2 0x60A JUMP JUMPDEST SWAP2 POP POP SWAP3 POP SWAP3 SWAP1 POP JUMP JUMPDEST PUSH1 0x0 DUP2 ISZERO ISZERO SWAP1 POP SWAP2 SWAP1 POP JUMP JUMPDEST PUSH2 0x674 DUP2 PUSH2 0x65F JUMP JUMPDEST DUP3 MSTORE POP POP JUMP JUMPDEST PUSH1 0x0 PUSH1 0x20 DUP3 ADD SWAP1 POP PUSH2 0x68F PUSH1 0x0 DUP4 ADD DUP5 PUSH2 0x66B JUMP JUMPDEST SWAP3 SWAP2 POP POP JUMP JUMPDEST PUSH2 0x69E DUP2 PUSH2 0x5E9 JUMP JUMPDEST DUP3 MSTORE POP POP JUMP JUMPDEST PUSH1 0x0 PUSH1 0x20 DUP3 ADD SWAP1 POP PUSH2 0x6B9 PUSH1 0x0 DUP4 ADD DUP5 PUSH2 0x695 JUMP JUMPDEST SWAP3 SWAP2 POP POP JUMP JUMPDEST PUSH1 0x0 DUP1 PUSH1 0x0 PUSH1 0x60 DUP5 DUP7 SUB SLT ISZERO PUSH2 0x6D8 JUMPI PUSH2 0x6D7 PUSH2 0x586 JUMP JUMPDEST JUMPDEST PUSH1 0x0 PUSH2 0x6E6 DUP7 DUP3 DUP8 ADD PUSH2 0x5D4 JUMP JUMPDEST SWAP4 POP POP PUSH1 0x20 PUSH2 0x6F7 DUP7 DUP3 DUP8 ADD PUSH2 0x5D4 JUMP JUMPDEST SWAP3 POP POP PUSH1 0x40 PUSH2 0x708 DUP7 DUP3 DUP8 ADD PUSH2 0x60A JUMP JUMPDEST SWAP2 POP POP SWAP3 POP SWAP3 POP SWAP3 JUMP JUMPDEST PUSH1 0x0 PUSH1 0xFF DUP3 AND SWAP1 POP SWAP2 SWAP1 POP JUMP JUMPDEST PUSH2 0x728 DUP2 PUSH2 0x712 JUMP JUMPDEST DUP3 MSTORE POP POP JUMP JUMPDEST PUSH1 0x0 PUSH1 0x20 DUP3 ADD SWAP1 POP PUSH2 0x743 PUSH1 0x0 DUP4 ADD DUP5 PUSH2 0x71F JUMP JUMPDEST SWAP3 SWAP2 POP POP JUMP JUMPDEST PUSH1 0x0 DUP1 PUSH1 0x40 DUP4 DUP6 SUB SLT ISZERO PUSH2 0x760 JUMPI PUSH2 0x75F PUSH2 0x586 JUMP JUMPDEST JUMPDEST PUSH1 0x0 PUSH2 0x76E DUP6 DUP3 DUP7 ADD PUSH2 0x5D4 JUMP JUMPDEST SWAP3 POP POP PUSH1 0x20 PUSH2 0x77F DUP6 DUP3 DUP7 ADD PUSH2 0x5D4 JUMP JUMPDEST SWAP2 POP POP SWAP3 POP SWAP3 SWAP1 POP JUMP INVALID LOG2 PUSH5 0x6970667358 0x22 SLT KECCAK256 DUP13 COINBASE DUP6 0xAD 0xAA ISZERO SWAP7 RETURNDATASIZE 0xCC 0x5D PC DELEGATECALL 0xEF PUSH11 0xA99DA5CC45C73C101C9E02 0x5C EXTCODEHASH 0xDE 0xB1 0x2C GASPRICE 0xAA PUSH5 0x736F6C6343 STOP ADDMOD GT STOP CALLER "
				},
				"gasEstimates": {
					"creation": {
						"codeDepositCost": "396600",
						"executionCost": "46488",
						"totalCost": "443088"
					},
					"external": {
						"allowance(address,address)": "infinite",
						"approve(address,uint256)": "24672",
						"balanceOf()": "2341",
						"decimals()": "153",
						"name()": "202",
						"symbol()": "245",
						"totalSupply()": "2298",
						"transfer(address,uint256)": "51098",
						"transferFrom(address,address,uint256)": "infinite"
					}
				},
				"methodIdentifiers": {
					"allowance(address,address)": "dd62ed3e",
					"approve(address,uint256)": "095ea7b3",
					"balanceOf()": "722713f7",
					"decimals()": "313ce567",
					"name()": "06fdde03",
					"symbol()": "95d89b41",
					"totalSupply()": "18160ddd",
					"transfer(address,uint256)": "a9059cbb",
					"transferFrom(address,address,uint256)": "23b872dd"
				}
			},
			"storageLayout": {
				"storage": [
					{
						"astId": 57,
						"contract": "contracts/YulERC20.sol:YulERC20",
						"label": "_balances",
						"offset": 0,
						"slot": "0",
						"type": "t_mapping(t_address,t_uint256)"
					},
					{
						"astId": 63,
						"contract": "contracts/YulERC20.sol:YulERC20",
						"label": "_allowances",
						"offset": 0,
						"slot": "1",
						"type": "t_mapping(t_address,t_mapping(t_address,t_uint256))"
					},
					{
						"astId": 65,
						"contract": "contracts/YulERC20.sol:YulERC20",
						"label": "_totalSupply",
						"offset": 0,
						"slot": "2",
						"type": "t_uint256"
					}
				],
				"types": {
					"t_address": {
						"encoding": "inplace",
						"label": "address",
						"numberOfBytes": "20"
					},
					"t_mapping(t_address,t_mapping(t_address,t_uint256))": {
						"encoding": "mapping",
						"key": "t_address",
						"label": "mapping(address => mapping(address => uint256))",
						"numberOfBytes": "32",
						"value": "t_mapping(t_address,t_uint256)"
					},
					"t_mapping(t_address,t_uint256)": {
						"encoding": "mapping",
						"key": "t_address",
						"label": "mapping(address => uint256)",
						"numberOfBytes": "32",
						"value": "t_uint256"
					},
					"t_uint256": {
						"encoding": "inplace",
						"label": "uint256",
						"numberOfBytes": "32"
					}
				}
			},
			"userdoc": {
				"kind": "user",
				"methods": {},
				"notice": "For demo purposes ONLY.",
				"version": 1
			}
		}
	}
}