{
	"SCP/GasGolf.sol": {
		"TimeLock": {
			"abi": [
				{
					"inputs": [],
					"stateMutability": "nonpayable",
					"type": "constructor"
				},
				{
					"inputs": [
						{
							"internalType": "bytes32",
							"name": "txId",
							"type": "bytes32"
						}
					],
					"name": "AlreadyQueuedError",
					"type": "error"
				},
				{
					"inputs": [],
					"name": "NotOwnerError",
					"type": "error"
				},
				{
					"inputs": [
						{
							"internalType": "bytes32",
							"name": "txId",
							"type": "bytes32"
						}
					],
					"name": "NotQueuedError",
					"type": "error"
				},
				{
					"inputs": [
						{
							"internalType": "uint256",
							"name": "blockTimestamp",
							"type": "uint256"
						},
						{
							"internalType": "uint256",
							"name": "expiresAt",
							"type": "uint256"
						}
					],
					"name": "TimestampExpiredError",
					"type": "error"
				},
				{
					"inputs": [
						{
							"internalType": "uint256",
							"name": "blockTimestamp",
							"type": "uint256"
						},
						{
							"internalType": "uint256",
							"name": "timestamp",
							"type": "uint256"
						}
					],
					"name": "TimestampNotInRangeError",
					"type": "error"
				},
				{
					"inputs": [
						{
							"internalType": "uint256",
							"name": "blockTimestmap",
							"type": "uint256"
						},
						{
							"internalType": "uint256",
							"name": "timestamp",
							"type": "uint256"
						}
					],
					"name": "TimestampNotPassedError",
					"type": "error"
				},
				{
					"inputs": [],
					"name": "TxFailedError",
					"type": "error"
				},
				{
					"anonymous": false,
					"inputs": [
						{
							"indexed": true,
							"internalType": "bytes32",
							"name": "txId",
							"type": "bytes32"
						}
					],
					"name": "Cancel",
					"type": "event"
				},
				{
					"anonymous": false,
					"inputs": [
						{
							"indexed": true,
							"internalType": "bytes32",
							"name": "txId",
							"type": "bytes32"
						},
						{
							"indexed": true,
							"internalType": "address",
							"name": "target",
							"type": "address"
						},
						{
							"indexed": false,
							"internalType": "uint256",
							"name": "value",
							"type": "uint256"
						},
						{
							"indexed": false,
							"internalType": "string",
							"name": "func",
							"type": "string"
						},
						{
							"indexed": false,
							"internalType": "bytes",
							"name": "data",
							"type": "bytes"
						},
						{
							"indexed": false,
							"internalType": "uint256",
							"name": "timestamp",
							"type": "uint256"
						}
					],
					"name": "Execute",
					"type": "event"
				},
				{
					"anonymous": false,
					"inputs": [
						{
							"indexed": true,
							"internalType": "bytes32",
							"name": "txId",
							"type": "bytes32"
						},
						{
							"indexed": true,
							"internalType": "address",
							"name": "target",
							"type": "address"
						},
						{
							"indexed": false,
							"internalType": "uint256",
							"name": "value",
							"type": "uint256"
						},
						{
							"indexed": false,
							"internalType": "string",
							"name": "func",
							"type": "string"
						},
						{
							"indexed": false,
							"internalType": "bytes",
							"name": "data",
							"type": "bytes"
						},
						{
							"indexed": false,
							"internalType": "uint256",
							"name": "timestamp",
							"type": "uint256"
						}
					],
					"name": "Queue",
					"type": "event"
				},
				{
					"inputs": [],
					"name": "GRACE_PERIOD",
					"outputs": [
						{
							"internalType": "uint256",
							"name": "",
							"type": "uint256"
						}
					],
					"stateMutability": "view",
					"type": "function"
				},
				{
					"inputs": [],
					"name": "MAX_DELAY",
					"outputs": [
						{
							"internalType": "uint256",
							"name": "",
							"type": "uint256"
						}
					],
					"stateMutability": "view",
					"type": "function"
				},
				{
					"inputs": [],
					"name": "MIN_DELAY",
					"outputs": [
						{
							"internalType": "uint256",
							"name": "",
							"type": "uint256"
						}
					],
					"stateMutability": "view",
					"type": "function"
				},
				{
					"inputs": [
						{
							"internalType": "bytes32",
							"name": "_txId",
							"type": "bytes32"
						}
					],
					"name": "cancel",
					"outputs": [],
					"stateMutability": "nonpayable",
					"type": "function"
				},
				{
					"inputs": [
						{
							"internalType": "address",
							"name": "_target",
							"type": "address"
						},
						{
							"internalType": "uint256",
							"name": "_value",
							"type": "uint256"
						},
						{
							"internalType": "string",
							"name": "_func",
							"type": "string"
						},
						{
							"internalType": "bytes",
							"name": "_data",
							"type": "bytes"
						},
						{
							"internalType": "uint256",
							"name": "_timestamp",
							"type": "uint256"
						}
					],
					"name": "execute",
					"outputs": [
						{
							"internalType": "bytes",
							"name": "",
							"type": "bytes"
						}
					],
					"stateMutability": "payable",
					"type": "function"
				},
				{
					"inputs": [
						{
							"internalType": "address",
							"name": "_target",
							"type": "address"
						},
						{
							"internalType": "uint256",
							"name": "_value",
							"type": "uint256"
						},
						{
							"internalType": "string",
							"name": "_func",
							"type": "string"
						},
						{
							"internalType": "bytes",
							"name": "_data",
							"type": "bytes"
						},
						{
							"internalType": "uint256",
							"name": "_timestamp",
							"type": "uint256"
						}
					],
					"name": "getTxId",
					"outputs": [
						{
							"internalType": "bytes32",
							"name": "",
							"type": "bytes32"
						}
					],
					"stateMutability": "pure",
					"type": "function"
				},
				{
					"inputs": [],
					"name": "owner",
					"outputs": [
						{
							"internalType": "address",
							"name": "",
							"type": "address"
						}
					],
					"stateMutability": "view",
					"type": "function"
				},
				{
					"inputs": [
						{
							"internalType": "address",
							"name": "_target",
							"type": "address"
						},
						{
							"internalType": "uint256",
							"name": "_value",
							"type": "uint256"
						},
						{
							"internalType": "string",
							"name": "_func",
							"type": "string"
						},
						{
							"internalType": "bytes",
							"name": "_data",
							"type": "bytes"
						},
						{
							"internalType": "uint256",
							"name": "_timestamp",
							"type": "uint256"
						}
					],
					"name": "queue",
					"outputs": [
						{
							"internalType": "bytes32",
							"name": "txId",
							"type": "bytes32"
						}
					],
					"stateMutability": "nonpayable",
					"type": "function"
				},
				{
					"inputs": [
						{
							"internalType": "bytes32",
							"name": "",
							"type": "bytes32"
						}
					],
					"name": "queued",
					"outputs": [
						{
							"internalType": "bool",
							"name": "",
							"type": "bool"
						}
					],
					"stateMutability": "view",
					"type": "function"
				},
				{
					"stateMutability": "payable",
					"type": "receive"
				}
			],
			"devdoc": {
				"kind": "dev",
				"methods": {
					"queue(address,uint256,string,bytes,uint256)": {
						"params": {
							"_data": "ABI encoded data send.",
							"_func": "Function signature, for example \"foo(address,uint256)\"",
							"_target": "Address of contract or account to call",
							"_timestamp": "Timestamp after which the transaction can be executed.",
							"_value": "Amount of ETH to send"
						}
					}
				},
				"version": 1
			},
			"evm": {
				"assembly": "    /* \"SCP/GasGolf.sol\":57:4207  contract TimeLock {... */\n  mstore(0x40, 0x80)\n    /* \"SCP/GasGolf.sol\":1076:1125  constructor() {... */\n  callvalue\n  dup1\n  iszero\n  tag_1\n  jumpi\n  0x00\n  dup1\n  revert\ntag_1:\n  pop\n    /* \"SCP/GasGolf.sol\":1108:1118  msg.sender */\n  caller\n    /* \"SCP/GasGolf.sol\":1100:1105  owner */\n  0x00\n  dup1\n    /* \"SCP/GasGolf.sol\":1100:1118  owner = msg.sender */\n  0x0100\n  exp\n  dup2\n  sload\n  dup2\n  0xffffffffffffffffffffffffffffffffffffffff\n  mul\n  not\n  and\n  swap1\n  dup4\n  0xffffffffffffffffffffffffffffffffffffffff\n  and\n  mul\n  or\n  swap1\n  sstore\n  pop\n    /* \"SCP/GasGolf.sol\":57:4207  contract TimeLock {... */\n  dataSize(sub_0)\n  dup1\n  dataOffset(sub_0)\n  0x00\n  codecopy\n  0x00\n  return\nstop\n\nsub_0: assembly {\n        /* \"SCP/GasGolf.sol\":57:4207  contract TimeLock {... */\n      mstore(0x40, 0x80)\n      jumpi(tag_1, lt(calldatasize, 0x04))\n      shr(0xe0, calldataload(0x00))\n      dup1\n      0x8da5cb5b\n      gt\n      tag_12\n      jumpi\n      dup1\n      0x8da5cb5b\n      eq\n      tag_7\n      jumpi\n      dup1\n      0x9f81aed7\n      eq\n      tag_8\n      jumpi\n      dup1\n      0xb0f8b142\n      eq\n      tag_9\n      jumpi\n      dup1\n      0xc1a287e2\n      eq\n      tag_10\n      jumpi\n      dup1\n      0xc4d252f5\n      eq\n      tag_11\n      jumpi\n      jump(tag_2)\n    tag_12:\n      dup1\n      0x228250c9\n      eq\n      tag_3\n      jumpi\n      dup1\n      0x4125ff90\n      eq\n      tag_4\n      jumpi\n      dup1\n      0x4b9915a5\n      eq\n      tag_5\n      jumpi\n      dup1\n      0x8a1ce0b6\n      eq\n      tag_6\n      jumpi\n      jump(tag_2)\n    tag_1:\n      jumpi(tag_2, calldatasize)\n      stop\n    tag_2:\n      0x00\n      dup1\n      revert\n        /* \"SCP/GasGolf.sol\":1031:1069  mapping(bytes32 => bool) public queued */\n    tag_3:\n      callvalue\n      dup1\n      iszero\n      tag_15\n      jumpi\n      0x00\n      dup1\n      revert\n    tag_15:\n      pop\n      tag_16\n      0x04\n      dup1\n      calldatasize\n      sub\n      dup2\n      add\n      swap1\n      tag_17\n      swap2\n      swap1\n      tag_18\n      jump\t// in\n    tag_17:\n      tag_19\n      jump\t// in\n    tag_16:\n      mload(0x40)\n      tag_20\n      swap2\n      swap1\n      tag_21\n      jump\t// in\n    tag_20:\n      mload(0x40)\n      dup1\n      swap2\n      sub\n      swap1\n      return\n        /* \"SCP/GasGolf.sol\":870:907  uint public constant MAX_DELAY = 1000 */\n    tag_4:\n      callvalue\n      dup1\n      iszero\n      tag_22\n      jumpi\n      0x00\n      dup1\n      revert\n    tag_22:\n      pop\n      tag_23\n      tag_24\n      jump\t// in\n    tag_23:\n      mload(0x40)\n      tag_25\n      swap2\n      swap1\n      tag_26\n      jump\t// in\n    tag_25:\n      mload(0x40)\n      dup1\n      swap2\n      sub\n      swap1\n      return\n        /* \"SCP/GasGolf.sol\":1889:2660  function queue(... */\n    tag_5:\n      callvalue\n      dup1\n      iszero\n      tag_27\n      jumpi\n      0x00\n      dup1\n      revert\n    tag_27:\n      pop\n      tag_28\n      0x04\n      dup1\n      calldatasize\n      sub\n      dup2\n      add\n      swap1\n      tag_29\n      swap2\n      swap1\n      tag_30\n      jump\t// in\n    tag_29:\n      tag_31\n      jump\t// in\n    tag_28:\n      mload(0x40)\n      tag_32\n      swap2\n      swap1\n      tag_33\n      jump\t// in\n    tag_32:\n      mload(0x40)\n      dup1\n      swap2\n      sub\n      swap1\n      return\n        /* \"SCP/GasGolf.sol\":1292:1565  function getTxId(... */\n    tag_6:\n      callvalue\n      dup1\n      iszero\n      tag_34\n      jumpi\n      0x00\n      dup1\n      revert\n    tag_34:\n      pop\n      tag_35\n      0x04\n      dup1\n      calldatasize\n      sub\n      dup2\n      add\n      swap1\n      tag_36\n      swap2\n      swap1\n      tag_30\n      jump\t// in\n    tag_36:\n      tag_37\n      jump\t// in\n    tag_35:\n      mload(0x40)\n      tag_38\n      swap2\n      swap1\n      tag_33\n      jump\t// in\n    tag_38:\n      mload(0x40)\n      dup1\n      swap2\n      sub\n      swap1\n      return\n        /* \"SCP/GasGolf.sol\":982:1002  address public owner */\n    tag_7:\n      callvalue\n      dup1\n      iszero\n      tag_39\n      jumpi\n      0x00\n      dup1\n      revert\n    tag_39:\n      pop\n      tag_40\n      tag_41\n      jump\t// in\n    tag_40:\n      mload(0x40)\n      tag_42\n      swap2\n      swap1\n      tag_43\n      jump\t// in\n    tag_42:\n      mload(0x40)\n      dup1\n      swap2\n      sub\n      swap1\n      return\n        /* \"SCP/GasGolf.sol\":818:853  uint public constant MIN_DELAY = 10 */\n    tag_8:\n      callvalue\n      dup1\n      iszero\n      tag_44\n      jumpi\n      0x00\n      dup1\n      revert\n    tag_44:\n      pop\n      tag_45\n      tag_46\n      jump\t// in\n    tag_45:\n      mload(0x40)\n      tag_47\n      swap2\n      swap1\n      tag_26\n      jump\t// in\n    tag_47:\n      mload(0x40)\n      dup1\n      swap2\n      sub\n      swap1\n      return\n        /* \"SCP/GasGolf.sol\":2666:3999  function execute(... */\n    tag_9:\n      tag_48\n      0x04\n      dup1\n      calldatasize\n      sub\n      dup2\n      add\n      swap1\n      tag_49\n      swap2\n      swap1\n      tag_30\n      jump\t// in\n    tag_49:\n      tag_50\n      jump\t// in\n    tag_48:\n      mload(0x40)\n      tag_51\n      swap2\n      swap1\n      tag_52\n      jump\t// in\n    tag_51:\n      mload(0x40)\n      dup1\n      swap2\n      sub\n      swap1\n      return\n        /* \"SCP/GasGolf.sol\":924:964  uint public constant GRACE_PERIOD = 1000 */\n    tag_10:\n      callvalue\n      dup1\n      iszero\n      tag_53\n      jumpi\n      0x00\n      dup1\n      revert\n    tag_53:\n      pop\n      tag_54\n      tag_55\n      jump\t// in\n    tag_54:\n      mload(0x40)\n      tag_56\n      swap2\n      swap1\n      tag_26\n      jump\t// in\n    tag_56:\n      mload(0x40)\n      dup1\n      swap2\n      sub\n      swap1\n      return\n        /* \"SCP/GasGolf.sol\":4005:4205  function cancel(bytes32 _txId) external onlyOwner {... */\n    tag_11:\n      callvalue\n      dup1\n      iszero\n      tag_57\n      jumpi\n      0x00\n      dup1\n      revert\n    tag_57:\n      pop\n      tag_58\n      0x04\n      dup1\n      calldatasize\n      sub\n      dup2\n      add\n      swap1\n      tag_59\n      swap2\n      swap1\n      tag_18\n      jump\t// in\n    tag_59:\n      tag_60\n      jump\t// in\n    tag_58:\n      stop\n        /* \"SCP/GasGolf.sol\":1031:1069  mapping(bytes32 => bool) public queued */\n    tag_19:\n      mstore(0x20, 0x01)\n      dup1\n      0x00\n      mstore\n      keccak256(0x00, 0x40)\n      0x00\n      swap2\n      pop\n      sload\n      swap1\n      0x0100\n      exp\n      swap1\n      div\n      0xff\n      and\n      dup2\n      jump\t// out\n        /* \"SCP/GasGolf.sol\":870:907  uint public constant MAX_DELAY = 1000 */\n    tag_24:\n        /* \"SCP/GasGolf.sol\":903:907  1000 */\n      0x03e8\n        /* \"SCP/GasGolf.sol\":870:907  uint public constant MAX_DELAY = 1000 */\n      dup2\n      jump\t// out\n        /* \"SCP/GasGolf.sol\":1889:2660  function queue(... */\n    tag_31:\n        /* \"SCP/GasGolf.sol\":2070:2082  bytes32 txId */\n      0x00\n        /* \"SCP/GasGolf.sol\":1180:1185  owner */\n      dup1\n      0x00\n      swap1\n      sload\n      swap1\n      0x0100\n      exp\n      swap1\n      div\n      0xffffffffffffffffffffffffffffffffffffffff\n      and\n        /* \"SCP/GasGolf.sol\":1166:1185  msg.sender != owner */\n      0xffffffffffffffffffffffffffffffffffffffff\n      and\n        /* \"SCP/GasGolf.sol\":1166:1176  msg.sender */\n      caller\n        /* \"SCP/GasGolf.sol\":1166:1185  msg.sender != owner */\n      0xffffffffffffffffffffffffffffffffffffffff\n      and\n      eq\n        /* \"SCP/GasGolf.sol\":1162:1234  if (msg.sender != owner) {... */\n      tag_62\n      jumpi\n        /* \"SCP/GasGolf.sol\":1208:1223  NotOwnerError() */\n      mload(0x40)\n      0x74a2152700000000000000000000000000000000000000000000000000000000\n      dup2\n      mstore\n      0x04\n      add\n      mload(0x40)\n      dup1\n      swap2\n      sub\n      swap1\n      revert\n        /* \"SCP/GasGolf.sol\":1162:1234  if (msg.sender != owner) {... */\n    tag_62:\n        /* \"SCP/GasGolf.sol\":2101:2151  getTxId(_target, _value, _func, _data, _timestamp) */\n      tag_64\n        /* \"SCP/GasGolf.sol\":2109:2116  _target */\n      dup9\n        /* \"SCP/GasGolf.sol\":2118:2124  _value */\n      dup9\n        /* \"SCP/GasGolf.sol\":2126:2131  _func */\n      dup9\n      dup9\n        /* \"SCP/GasGolf.sol\":2133:2138  _data */\n      dup9\n      dup9\n        /* \"SCP/GasGolf.sol\":2140:2150  _timestamp */\n      dup9\n        /* \"SCP/GasGolf.sol\":2101:2108  getTxId */\n      tag_37\n        /* \"SCP/GasGolf.sol\":2101:2151  getTxId(_target, _value, _func, _data, _timestamp) */\n      jump\t// in\n    tag_64:\n        /* \"SCP/GasGolf.sol\":2094:2151  txId = getTxId(_target, _value, _func, _data, _timestamp) */\n      swap1\n      pop\n        /* \"SCP/GasGolf.sol\":2165:2171  queued */\n      0x01\n        /* \"SCP/GasGolf.sol\":2165:2177  queued[txId] */\n      0x00\n        /* \"SCP/GasGolf.sol\":2172:2176  txId */\n      dup3\n        /* \"SCP/GasGolf.sol\":2165:2177  queued[txId] */\n      dup2\n      mstore\n      0x20\n      add\n      swap1\n      dup2\n      mstore\n      0x20\n      add\n      0x00\n      keccak256\n      0x00\n      swap1\n      sload\n      swap1\n      0x0100\n      exp\n      swap1\n      div\n      0xff\n      and\n        /* \"SCP/GasGolf.sol\":2161:2235  if (queued[txId]) {... */\n      iszero\n      tag_65\n      jumpi\n        /* \"SCP/GasGolf.sol\":2219:2223  txId */\n      dup1\n        /* \"SCP/GasGolf.sol\":2200:2224  AlreadyQueuedError(txId) */\n      mload(0x40)\n      0x995042be00000000000000000000000000000000000000000000000000000000\n      dup2\n      mstore\n      0x04\n      add\n      tag_66\n      swap2\n      swap1\n      tag_33\n      jump\t// in\n    tag_66:\n      mload(0x40)\n      dup1\n      swap2\n      sub\n      swap1\n      revert\n        /* \"SCP/GasGolf.sol\":2161:2235  if (queued[txId]) {... */\n    tag_65:\n        /* \"SCP/GasGolf.sol\":851:853  10 */\n      0x0a\n        /* \"SCP/GasGolf.sol\":2375:2390  block.timestamp */\n      timestamp\n        /* \"SCP/GasGolf.sol\":2375:2402  block.timestamp + MIN_DELAY */\n      tag_67\n      swap2\n      swap1\n      tag_68\n      jump\t// in\n    tag_67:\n        /* \"SCP/GasGolf.sol\":2362:2372  _timestamp */\n      dup3\n        /* \"SCP/GasGolf.sol\":2362:2402  _timestamp < block.timestamp + MIN_DELAY */\n      lt\n        /* \"SCP/GasGolf.sol\":2362:2458  _timestamp < block.timestamp + MIN_DELAY ||... */\n      dup1\n      tag_69\n      jumpi\n      pop\n        /* \"SCP/GasGolf.sol\":903:907  1000 */\n      0x03e8\n        /* \"SCP/GasGolf.sol\":2431:2446  block.timestamp */\n      timestamp\n        /* \"SCP/GasGolf.sol\":2431:2458  block.timestamp + MAX_DELAY */\n      tag_70\n      swap2\n      swap1\n      tag_68\n      jump\t// in\n    tag_70:\n        /* \"SCP/GasGolf.sol\":2418:2428  _timestamp */\n      dup3\n        /* \"SCP/GasGolf.sol\":2418:2458  _timestamp > block.timestamp + MAX_DELAY */\n      gt\n        /* \"SCP/GasGolf.sol\":2362:2458  _timestamp < block.timestamp + MIN_DELAY ||... */\n    tag_69:\n        /* \"SCP/GasGolf.sol\":2345:2554  if (... */\n      iszero\n      tag_71\n      jumpi\n        /* \"SCP/GasGolf.sol\":2515:2530  block.timestamp */\n      timestamp\n        /* \"SCP/GasGolf.sol\":2532:2542  _timestamp */\n      dup3\n        /* \"SCP/GasGolf.sol\":2490:2543  TimestampNotInRangeError(block.timestamp, _timestamp) */\n      mload(0x40)\n      0x1a9616c200000000000000000000000000000000000000000000000000000000\n      dup2\n      mstore\n      0x04\n      add\n      tag_72\n      swap3\n      swap2\n      swap1\n      tag_73\n      jump\t// in\n    tag_72:\n      mload(0x40)\n      dup1\n      swap2\n      sub\n      swap1\n      revert\n        /* \"SCP/GasGolf.sol\":2345:2554  if (... */\n    tag_71:\n        /* \"SCP/GasGolf.sol\":2579:2583  true */\n      0x01\n        /* \"SCP/GasGolf.sol\":2564:2570  queued */\n      dup1\n        /* \"SCP/GasGolf.sol\":2564:2576  queued[txId] */\n      0x00\n        /* \"SCP/GasGolf.sol\":2571:2575  txId */\n      dup4\n        /* \"SCP/GasGolf.sol\":2564:2576  queued[txId] */\n      dup2\n      mstore\n      0x20\n      add\n      swap1\n      dup2\n      mstore\n      0x20\n      add\n      0x00\n      keccak256\n      0x00\n        /* \"SCP/GasGolf.sol\":2564:2583  queued[txId] = true */\n      0x0100\n      exp\n      dup2\n      sload\n      dup2\n      0xff\n      mul\n      not\n      and\n      swap1\n      dup4\n      iszero\n      iszero\n      mul\n      or\n      swap1\n      sstore\n      pop\n        /* \"SCP/GasGolf.sol\":2611:2618  _target */\n      dup8\n        /* \"SCP/GasGolf.sol\":2599:2653  Queue(txId, _target, _value, _func, _data, _timestamp) */\n      0xffffffffffffffffffffffffffffffffffffffff\n      and\n        /* \"SCP/GasGolf.sol\":2605:2609  txId */\n      dup2\n        /* \"SCP/GasGolf.sol\":2599:2653  Queue(txId, _target, _value, _func, _data, _timestamp) */\n      0x3c22f47140594040d205a5533cfedd86c9ab8622c39ead03affb2d97052c794c\n        /* \"SCP/GasGolf.sol\":2620:2626  _value */\n      dup10\n        /* \"SCP/GasGolf.sol\":2628:2633  _func */\n      dup10\n      dup10\n        /* \"SCP/GasGolf.sol\":2635:2640  _data */\n      dup10\n      dup10\n        /* \"SCP/GasGolf.sol\":2642:2652  _timestamp */\n      dup10\n        /* \"SCP/GasGolf.sol\":2599:2653  Queue(txId, _target, _value, _func, _data, _timestamp) */\n      mload(0x40)\n      tag_74\n      swap7\n      swap6\n      swap5\n      swap4\n      swap3\n      swap2\n      swap1\n      tag_75\n      jump\t// in\n    tag_74:\n      mload(0x40)\n      dup1\n      swap2\n      sub\n      swap1\n      log3\n        /* \"SCP/GasGolf.sol\":1889:2660  function queue(... */\n      swap8\n      swap7\n      pop\n      pop\n      pop\n      pop\n      pop\n      pop\n      pop\n      jump\t// out\n        /* \"SCP/GasGolf.sol\":1292:1565  function getTxId(... */\n    tag_37:\n        /* \"SCP/GasGolf.sol\":1468:1475  bytes32 */\n      0x00\n        /* \"SCP/GasGolf.sol\":1515:1522  _target */\n      dup8\n        /* \"SCP/GasGolf.sol\":1524:1530  _value */\n      dup8\n        /* \"SCP/GasGolf.sol\":1532:1537  _func */\n      dup8\n      dup8\n        /* \"SCP/GasGolf.sol\":1539:1544  _data */\n      dup8\n      dup8\n        /* \"SCP/GasGolf.sol\":1546:1556  _timestamp */\n      dup8\n        /* \"SCP/GasGolf.sol\":1504:1557  abi.encode(_target, _value, _func, _data, _timestamp) */\n      add(0x20, mload(0x40))\n      tag_77\n      swap8\n      swap7\n      swap6\n      swap5\n      swap4\n      swap3\n      swap2\n      swap1\n      tag_78\n      jump\t// in\n    tag_77:\n      mload(0x40)\n      0x20\n      dup2\n      dup4\n      sub\n      sub\n      dup2\n      mstore\n      swap1\n      0x40\n      mstore\n        /* \"SCP/GasGolf.sol\":1494:1558  keccak256(abi.encode(_target, _value, _func, _data, _timestamp)) */\n      dup1\n      mload\n      swap1\n      0x20\n      add\n      keccak256\n        /* \"SCP/GasGolf.sol\":1487:1558  return keccak256(abi.encode(_target, _value, _func, _data, _timestamp)) */\n      swap1\n      pop\n        /* \"SCP/GasGolf.sol\":1292:1565  function getTxId(... */\n      swap8\n      swap7\n      pop\n      pop\n      pop\n      pop\n      pop\n      pop\n      pop\n      jump\t// out\n        /* \"SCP/GasGolf.sol\":982:1002  address public owner */\n    tag_41:\n      0x00\n      dup1\n      sload\n      swap1\n      0x0100\n      exp\n      swap1\n      div\n      0xffffffffffffffffffffffffffffffffffffffff\n      and\n      dup2\n      jump\t// out\n        /* \"SCP/GasGolf.sol\":818:853  uint public constant MIN_DELAY = 10 */\n    tag_46:\n        /* \"SCP/GasGolf.sol\":851:853  10 */\n      0x0a\n        /* \"SCP/GasGolf.sol\":818:853  uint public constant MIN_DELAY = 10 */\n      dup2\n      jump\t// out\n        /* \"SCP/GasGolf.sol\":2666:3999  function execute(... */\n    tag_50:\n        /* \"SCP/GasGolf.sol\":2857:2869  bytes memory */\n      0x60\n        /* \"SCP/GasGolf.sol\":1180:1185  owner */\n      0x00\n      dup1\n      sload\n      swap1\n      0x0100\n      exp\n      swap1\n      div\n      0xffffffffffffffffffffffffffffffffffffffff\n      and\n        /* \"SCP/GasGolf.sol\":1166:1185  msg.sender != owner */\n      0xffffffffffffffffffffffffffffffffffffffff\n      and\n        /* \"SCP/GasGolf.sol\":1166:1176  msg.sender */\n      caller\n        /* \"SCP/GasGolf.sol\":1166:1185  msg.sender != owner */\n      0xffffffffffffffffffffffffffffffffffffffff\n      and\n      eq\n        /* \"SCP/GasGolf.sol\":1162:1234  if (msg.sender != owner) {... */\n      tag_80\n      jumpi\n        /* \"SCP/GasGolf.sol\":1208:1223  NotOwnerError() */\n      mload(0x40)\n      0x74a2152700000000000000000000000000000000000000000000000000000000\n      dup2\n      mstore\n      0x04\n      add\n      mload(0x40)\n      dup1\n      swap2\n      sub\n      swap1\n      revert\n        /* \"SCP/GasGolf.sol\":1162:1234  if (msg.sender != owner) {... */\n    tag_80:\n        /* \"SCP/GasGolf.sol\":2881:2893  bytes32 txId */\n      0x00\n        /* \"SCP/GasGolf.sol\":2896:2946  getTxId(_target, _value, _func, _data, _timestamp) */\n      tag_82\n        /* \"SCP/GasGolf.sol\":2904:2911  _target */\n      dup10\n        /* \"SCP/GasGolf.sol\":2913:2919  _value */\n      dup10\n        /* \"SCP/GasGolf.sol\":2921:2926  _func */\n      dup10\n      dup10\n        /* \"SCP/GasGolf.sol\":2928:2933  _data */\n      dup10\n      dup10\n        /* \"SCP/GasGolf.sol\":2935:2945  _timestamp */\n      dup10\n        /* \"SCP/GasGolf.sol\":2896:2903  getTxId */\n      tag_37\n        /* \"SCP/GasGolf.sol\":2896:2946  getTxId(_target, _value, _func, _data, _timestamp) */\n      jump\t// in\n    tag_82:\n        /* \"SCP/GasGolf.sol\":2881:2946  bytes32 txId = getTxId(_target, _value, _func, _data, _timestamp) */\n      swap1\n      pop\n        /* \"SCP/GasGolf.sol\":2961:2967  queued */\n      0x01\n        /* \"SCP/GasGolf.sol\":2961:2973  queued[txId] */\n      0x00\n        /* \"SCP/GasGolf.sol\":2968:2972  txId */\n      dup3\n        /* \"SCP/GasGolf.sol\":2961:2973  queued[txId] */\n      dup2\n      mstore\n      0x20\n      add\n      swap1\n      dup2\n      mstore\n      0x20\n      add\n      0x00\n      keccak256\n      0x00\n      swap1\n      sload\n      swap1\n      0x0100\n      exp\n      swap1\n      div\n      0xff\n      and\n        /* \"SCP/GasGolf.sol\":2956:3027  if (!queued[txId]) {... */\n      tag_83\n      jumpi\n        /* \"SCP/GasGolf.sol\":3011:3015  txId */\n      dup1\n        /* \"SCP/GasGolf.sol\":2996:3016  NotQueuedError(txId) */\n      mload(0x40)\n      0x0995c9d500000000000000000000000000000000000000000000000000000000\n      dup2\n      mstore\n      0x04\n      add\n      tag_84\n      swap2\n      swap1\n      tag_33\n      jump\t// in\n    tag_84:\n      mload(0x40)\n      dup1\n      swap2\n      sub\n      swap1\n      revert\n        /* \"SCP/GasGolf.sol\":2956:3027  if (!queued[txId]) {... */\n    tag_83:\n        /* \"SCP/GasGolf.sol\":3152:3162  _timestamp */\n      dup3\n        /* \"SCP/GasGolf.sol\":3134:3149  block.timestamp */\n      timestamp\n        /* \"SCP/GasGolf.sol\":3134:3162  block.timestamp < _timestamp */\n      lt\n        /* \"SCP/GasGolf.sol\":3130:3248  if (block.timestamp < _timestamp) {... */\n      iszero\n      tag_85\n      jumpi\n        /* \"SCP/GasGolf.sol\":3209:3224  block.timestamp */\n      timestamp\n        /* \"SCP/GasGolf.sol\":3226:3236  _timestamp */\n      dup4\n        /* \"SCP/GasGolf.sol\":3185:3237  TimestampNotPassedError(block.timestamp, _timestamp) */\n      mload(0x40)\n      0x035fce5b00000000000000000000000000000000000000000000000000000000\n      dup2\n      mstore\n      0x04\n      add\n      tag_86\n      swap3\n      swap2\n      swap1\n      tag_73\n      jump\t// in\n    tag_86:\n      mload(0x40)\n      dup1\n      swap2\n      sub\n      swap1\n      revert\n        /* \"SCP/GasGolf.sol\":3130:3248  if (block.timestamp < _timestamp) {... */\n    tag_85:\n        /* \"SCP/GasGolf.sol\":960:964  1000 */\n      0x03e8\n        /* \"SCP/GasGolf.sol\":3279:3289  _timestamp */\n      dup4\n        /* \"SCP/GasGolf.sol\":3279:3304  _timestamp + GRACE_PERIOD */\n      tag_87\n      swap2\n      swap1\n      tag_68\n      jump\t// in\n    tag_87:\n        /* \"SCP/GasGolf.sol\":3261:3276  block.timestamp */\n      timestamp\n        /* \"SCP/GasGolf.sol\":3261:3304  block.timestamp > _timestamp + GRACE_PERIOD */\n      gt\n        /* \"SCP/GasGolf.sol\":3257:3403  if (block.timestamp > _timestamp + GRACE_PERIOD) {... */\n      iszero\n      tag_88\n      jumpi\n        /* \"SCP/GasGolf.sol\":3349:3364  block.timestamp */\n      timestamp\n        /* \"SCP/GasGolf.sol\":960:964  1000 */\n      0x03e8\n        /* \"SCP/GasGolf.sol\":3366:3376  _timestamp */\n      dup5\n        /* \"SCP/GasGolf.sol\":3366:3391  _timestamp + GRACE_PERIOD */\n      tag_89\n      swap2\n      swap1\n      tag_68\n      jump\t// in\n    tag_89:\n        /* \"SCP/GasGolf.sol\":3327:3392  TimestampExpiredError(block.timestamp, _timestamp + GRACE_PERIOD) */\n      mload(0x40)\n      0x92ae26d100000000000000000000000000000000000000000000000000000000\n      dup2\n      mstore\n      0x04\n      add\n      tag_90\n      swap3\n      swap2\n      swap1\n      tag_73\n      jump\t// in\n    tag_90:\n      mload(0x40)\n      dup1\n      swap2\n      sub\n      swap1\n      revert\n        /* \"SCP/GasGolf.sol\":3257:3403  if (block.timestamp > _timestamp + GRACE_PERIOD) {... */\n    tag_88:\n        /* \"SCP/GasGolf.sol\":3428:3433  false */\n      0x00\n        /* \"SCP/GasGolf.sol\":3413:3419  queued */\n      0x01\n        /* \"SCP/GasGolf.sol\":3413:3425  queued[txId] */\n      0x00\n        /* \"SCP/GasGolf.sol\":3420:3424  txId */\n      dup4\n        /* \"SCP/GasGolf.sol\":3413:3425  queued[txId] */\n      dup2\n      mstore\n      0x20\n      add\n      swap1\n      dup2\n      mstore\n      0x20\n      add\n      0x00\n      keccak256\n      0x00\n        /* \"SCP/GasGolf.sol\":3413:3433  queued[txId] = false */\n      0x0100\n      exp\n      dup2\n      sload\n      dup2\n      0xff\n      mul\n      not\n      and\n      swap1\n      dup4\n      iszero\n      iszero\n      mul\n      or\n      swap1\n      sstore\n      pop\n        /* \"SCP/GasGolf.sol\":3468:3485  bytes memory data */\n      0x60\n        /* \"SCP/GasGolf.sol\":3521:3522  0 */\n      0x00\n        /* \"SCP/GasGolf.sol\":3505:3510  _func */\n      dup9\n      dup9\n        /* \"SCP/GasGolf.sol\":3499:3518  bytes(_func).length */\n      swap1\n      pop\n        /* \"SCP/GasGolf.sol\":3499:3522  bytes(_func).length > 0 */\n      gt\n        /* \"SCP/GasGolf.sol\":3495:3738  if (bytes(_func).length > 0) {... */\n      iszero\n      tag_91\n      jumpi\n        /* \"SCP/GasGolf.sol\":3629:3634  _func */\n      dup8\n      dup8\n        /* \"SCP/GasGolf.sol\":3613:3636  keccak256(bytes(_func)) */\n      mload(0x40)\n      tag_92\n      swap3\n      swap2\n      swap1\n      tag_93\n      jump\t// in\n    tag_92:\n      mload(0x40)\n      dup1\n      swap2\n      sub\n      swap1\n      keccak256\n        /* \"SCP/GasGolf.sol\":3639:3644  _data */\n      dup7\n      dup7\n        /* \"SCP/GasGolf.sol\":3589:3645  abi.encodePacked(bytes4(keccak256(bytes(_func))), _data) */\n      add(0x20, mload(0x40))\n      tag_94\n      swap4\n      swap3\n      swap2\n      swap1\n      tag_95\n      jump\t// in\n    tag_94:\n      mload(0x40)\n      0x20\n      dup2\n      dup4\n      sub\n      sub\n      dup2\n      mstore\n      swap1\n      0x40\n      mstore\n        /* \"SCP/GasGolf.sol\":3582:3645  data = abi.encodePacked(bytes4(keccak256(bytes(_func))), _data) */\n      swap1\n      pop\n        /* \"SCP/GasGolf.sol\":3495:3738  if (bytes(_func).length > 0) {... */\n      jump(tag_96)\n    tag_91:\n        /* \"SCP/GasGolf.sol\":3722:3727  _data */\n      dup6\n      dup6\n        /* \"SCP/GasGolf.sol\":3715:3727  data = _data */\n      dup1\n      dup1\n      0x1f\n      add\n      0x20\n      dup1\n      swap2\n      div\n      mul\n      0x20\n      add\n      mload(0x40)\n      swap1\n      dup2\n      add\n      0x40\n      mstore\n      dup1\n      swap4\n      swap3\n      swap2\n      swap1\n      dup2\n      dup2\n      mstore\n      0x20\n      add\n      dup4\n      dup4\n      dup1\n      dup3\n      dup5\n      calldatacopy\n      0x00\n      dup2\n      dup5\n      add\n      mstore\n      not(0x1f)\n      0x1f\n      dup3\n      add\n      and\n      swap1\n      pop\n      dup1\n      dup4\n      add\n      swap3\n      pop\n      pop\n      pop\n      pop\n      pop\n      pop\n      pop\n      swap1\n      pop\n        /* \"SCP/GasGolf.sol\":3495:3738  if (bytes(_func).length > 0) {... */\n    tag_96:\n        /* \"SCP/GasGolf.sol\":3772:3779  bool ok */\n      0x00\n        /* \"SCP/GasGolf.sol\":3781:3797  bytes memory res */\n      dup1\n        /* \"SCP/GasGolf.sol\":3801:3808  _target */\n      dup12\n        /* \"SCP/GasGolf.sol\":3801:3813  _target.call */\n      0xffffffffffffffffffffffffffffffffffffffff\n      and\n        /* \"SCP/GasGolf.sol\":3821:3827  _value */\n      dup12\n        /* \"SCP/GasGolf.sol\":3829:3833  data */\n      dup5\n        /* \"SCP/GasGolf.sol\":3801:3834  _target.call{value: _value}(data) */\n      mload(0x40)\n      tag_97\n      swap2\n      swap1\n      tag_98\n      jump\t// in\n    tag_97:\n      0x00\n      mload(0x40)\n      dup1\n      dup4\n      sub\n      dup2\n      dup6\n      dup8\n      gas\n      call\n      swap3\n      pop\n      pop\n      pop\n      returndatasize\n      dup1\n      0x00\n      dup2\n      eq\n      tag_101\n      jumpi\n      mload(0x40)\n      swap2\n      pop\n      and(add(returndatasize, 0x3f), not(0x1f))\n      dup3\n      add\n      0x40\n      mstore\n      returndatasize\n      dup3\n      mstore\n      returndatasize\n      0x00\n      0x20\n      dup5\n      add\n      returndatacopy\n      jump(tag_100)\n    tag_101:\n      0x60\n      swap2\n      pop\n    tag_100:\n      pop\n        /* \"SCP/GasGolf.sol\":3771:3834  (bool ok, bytes memory res) = _target.call{value: _value}(data) */\n      swap2\n      pop\n      swap2\n      pop\n        /* \"SCP/GasGolf.sol\":3849:3851  ok */\n      dup2\n        /* \"SCP/GasGolf.sol\":3844:3900  if (!ok) {... */\n      tag_102\n      jumpi\n        /* \"SCP/GasGolf.sol\":3874:3889  TxFailedError() */\n      mload(0x40)\n      0xd9b4f81e00000000000000000000000000000000000000000000000000000000\n      dup2\n      mstore\n      0x04\n      add\n      mload(0x40)\n      dup1\n      swap2\n      sub\n      swap1\n      revert\n        /* \"SCP/GasGolf.sol\":3844:3900  if (!ok) {... */\n    tag_102:\n        /* \"SCP/GasGolf.sol\":3929:3936  _target */\n      dup12\n        /* \"SCP/GasGolf.sol\":3915:3971  Execute(txId, _target, _value, _func, _data, _timestamp) */\n      0xffffffffffffffffffffffffffffffffffffffff\n      and\n        /* \"SCP/GasGolf.sol\":3923:3927  txId */\n      dup5\n        /* \"SCP/GasGolf.sol\":3915:3971  Execute(txId, _target, _value, _func, _data, _timestamp) */\n      0xd1d5c3c892c18716bd88852091d1b63dc6849e9d7c37f69d566884bf954d4bd9\n        /* \"SCP/GasGolf.sol\":3938:3944  _value */\n      dup14\n        /* \"SCP/GasGolf.sol\":3946:3951  _func */\n      dup14\n      dup14\n        /* \"SCP/GasGolf.sol\":3953:3958  _data */\n      dup14\n      dup14\n        /* \"SCP/GasGolf.sol\":3960:3970  _timestamp */\n      dup14\n        /* \"SCP/GasGolf.sol\":3915:3971  Execute(txId, _target, _value, _func, _data, _timestamp) */\n      mload(0x40)\n      tag_103\n      swap7\n      swap6\n      swap5\n      swap4\n      swap3\n      swap2\n      swap1\n      tag_75\n      jump\t// in\n    tag_103:\n      mload(0x40)\n      dup1\n      swap2\n      sub\n      swap1\n      log3\n        /* \"SCP/GasGolf.sol\":3989:3992  res */\n      dup1\n        /* \"SCP/GasGolf.sol\":3982:3992  return res */\n      swap5\n      pop\n      pop\n      pop\n      pop\n      pop\n        /* \"SCP/GasGolf.sol\":2666:3999  function execute(... */\n      swap8\n      swap7\n      pop\n      pop\n      pop\n      pop\n      pop\n      pop\n      pop\n      jump\t// out\n        /* \"SCP/GasGolf.sol\":924:964  uint public constant GRACE_PERIOD = 1000 */\n    tag_55:\n        /* \"SCP/GasGolf.sol\":960:964  1000 */\n      0x03e8\n        /* \"SCP/GasGolf.sol\":924:964  uint public constant GRACE_PERIOD = 1000 */\n      dup2\n      jump\t// out\n        /* \"SCP/GasGolf.sol\":4005:4205  function cancel(bytes32 _txId) external onlyOwner {... */\n    tag_60:\n        /* \"SCP/GasGolf.sol\":1180:1185  owner */\n      0x00\n      dup1\n      sload\n      swap1\n      0x0100\n      exp\n      swap1\n      div\n      0xffffffffffffffffffffffffffffffffffffffff\n      and\n        /* \"SCP/GasGolf.sol\":1166:1185  msg.sender != owner */\n      0xffffffffffffffffffffffffffffffffffffffff\n      and\n        /* \"SCP/GasGolf.sol\":1166:1176  msg.sender */\n      caller\n        /* \"SCP/GasGolf.sol\":1166:1185  msg.sender != owner */\n      0xffffffffffffffffffffffffffffffffffffffff\n      and\n      eq\n        /* \"SCP/GasGolf.sol\":1162:1234  if (msg.sender != owner) {... */\n      tag_105\n      jumpi\n        /* \"SCP/GasGolf.sol\":1208:1223  NotOwnerError() */\n      mload(0x40)\n      0x74a2152700000000000000000000000000000000000000000000000000000000\n      dup2\n      mstore\n      0x04\n      add\n      mload(0x40)\n      dup1\n      swap2\n      sub\n      swap1\n      revert\n        /* \"SCP/GasGolf.sol\":1162:1234  if (msg.sender != owner) {... */\n    tag_105:\n        /* \"SCP/GasGolf.sol\":4070:4076  queued */\n      0x01\n        /* \"SCP/GasGolf.sol\":4070:4083  queued[_txId] */\n      0x00\n        /* \"SCP/GasGolf.sol\":4077:4082  _txId */\n      dup3\n        /* \"SCP/GasGolf.sol\":4070:4083  queued[_txId] */\n      dup2\n      mstore\n      0x20\n      add\n      swap1\n      dup2\n      mstore\n      0x20\n      add\n      0x00\n      keccak256\n      0x00\n      swap1\n      sload\n      swap1\n      0x0100\n      exp\n      swap1\n      div\n      0xff\n      and\n        /* \"SCP/GasGolf.sol\":4065:4138  if (!queued[_txId]) {... */\n      tag_107\n      jumpi\n        /* \"SCP/GasGolf.sol\":4121:4126  _txId */\n      dup1\n        /* \"SCP/GasGolf.sol\":4106:4127  NotQueuedError(_txId) */\n      mload(0x40)\n      0x0995c9d500000000000000000000000000000000000000000000000000000000\n      dup2\n      mstore\n      0x04\n      add\n      tag_108\n      swap2\n      swap1\n      tag_33\n      jump\t// in\n    tag_108:\n      mload(0x40)\n      dup1\n      swap2\n      sub\n      swap1\n      revert\n        /* \"SCP/GasGolf.sol\":4065:4138  if (!queued[_txId]) {... */\n    tag_107:\n        /* \"SCP/GasGolf.sol\":4164:4169  false */\n      0x00\n        /* \"SCP/GasGolf.sol\":4148:4154  queued */\n      0x01\n        /* \"SCP/GasGolf.sol\":4148:4161  queued[_txId] */\n      0x00\n        /* \"SCP/GasGolf.sol\":4155:4160  _txId */\n      dup4\n        /* \"SCP/GasGolf.sol\":4148:4161  queued[_txId] */\n      dup2\n      mstore\n      0x20\n      add\n      swap1\n      dup2\n      mstore\n      0x20\n      add\n      0x00\n      keccak256\n      0x00\n        /* \"SCP/GasGolf.sol\":4148:4169  queued[_txId] = false */\n      0x0100\n      exp\n      dup2\n      sload\n      dup2\n      0xff\n      mul\n      not\n      and\n      swap1\n      dup4\n      iszero\n      iszero\n      mul\n      or\n      swap1\n      sstore\n      pop\n        /* \"SCP/GasGolf.sol\":4192:4197  _txId */\n      dup1\n        /* \"SCP/GasGolf.sol\":4185:4198  Cancel(_txId) */\n      0xe8d9861dbc9c663ed3accd261bbe2fe01e0d3d9e5f51fa38523b265c7757a93a\n      mload(0x40)\n      mload(0x40)\n      dup1\n      swap2\n      sub\n      swap1\n      log2\n        /* \"SCP/GasGolf.sol\":4005:4205  function cancel(bytes32 _txId) external onlyOwner {... */\n      pop\n      jump\t// out\n        /* \"#utility.yul\":7:146   */\n    tag_110:\n        /* \"#utility.yul\":53:58   */\n      0x00\n        /* \"#utility.yul\":91:97   */\n      dup2\n        /* \"#utility.yul\":78:98   */\n      calldataload\n        /* \"#utility.yul\":69:98   */\n      swap1\n      pop\n        /* \"#utility.yul\":107:140   */\n      tag_112\n        /* \"#utility.yul\":134:139   */\n      dup2\n        /* \"#utility.yul\":107:140   */\n      tag_113\n      jump\t// in\n    tag_112:\n        /* \"#utility.yul\":7:146   */\n      swap3\n      swap2\n      pop\n      pop\n      jump\t// out\n        /* \"#utility.yul\":152:291   */\n    tag_114:\n        /* \"#utility.yul\":198:203   */\n      0x00\n        /* \"#utility.yul\":236:242   */\n      dup2\n        /* \"#utility.yul\":223:243   */\n      calldataload\n        /* \"#utility.yul\":214:243   */\n      swap1\n      pop\n        /* \"#utility.yul\":252:285   */\n      tag_116\n        /* \"#utility.yul\":279:284   */\n      dup2\n        /* \"#utility.yul\":252:285   */\n      tag_117\n      jump\t// in\n    tag_116:\n        /* \"#utility.yul\":152:291   */\n      swap3\n      swap2\n      pop\n      pop\n      jump\t// out\n        /* \"#utility.yul\":310:862   */\n    tag_118:\n        /* \"#utility.yul\":367:375   */\n      0x00\n        /* \"#utility.yul\":377:383   */\n      dup1\n        /* \"#utility.yul\":427:430   */\n      dup4\n        /* \"#utility.yul\":420:424   */\n      0x1f\n        /* \"#utility.yul\":412:418   */\n      dup5\n        /* \"#utility.yul\":408:425   */\n      add\n        /* \"#utility.yul\":404:431   */\n      slt\n        /* \"#utility.yul\":394:516   */\n      tag_120\n      jumpi\n        /* \"#utility.yul\":435:514   */\n      tag_121\n      tag_122\n      jump\t// in\n    tag_121:\n        /* \"#utility.yul\":394:516   */\n    tag_120:\n        /* \"#utility.yul\":548:554   */\n      dup3\n        /* \"#utility.yul\":535:555   */\n      calldataload\n        /* \"#utility.yul\":525:555   */\n      swap1\n      pop\n        /* \"#utility.yul\":578:596   */\n      0xffffffffffffffff\n        /* \"#utility.yul\":570:576   */\n      dup2\n        /* \"#utility.yul\":567:597   */\n      gt\n        /* \"#utility.yul\":564:681   */\n      iszero\n      tag_123\n      jumpi\n        /* \"#utility.yul\":600:679   */\n      tag_124\n      tag_125\n      jump\t// in\n    tag_124:\n        /* \"#utility.yul\":564:681   */\n    tag_123:\n        /* \"#utility.yul\":714:718   */\n      0x20\n        /* \"#utility.yul\":706:712   */\n      dup4\n        /* \"#utility.yul\":702:719   */\n      add\n        /* \"#utility.yul\":690:719   */\n      swap2\n      pop\n        /* \"#utility.yul\":768:771   */\n      dup4\n        /* \"#utility.yul\":760:764   */\n      0x01\n        /* \"#utility.yul\":752:758   */\n      dup3\n        /* \"#utility.yul\":748:765   */\n      mul\n        /* \"#utility.yul\":738:746   */\n      dup4\n        /* \"#utility.yul\":734:766   */\n      add\n        /* \"#utility.yul\":731:772   */\n      gt\n        /* \"#utility.yul\":728:856   */\n      iszero\n      tag_126\n      jumpi\n        /* \"#utility.yul\":775:854   */\n      tag_127\n      tag_128\n      jump\t// in\n    tag_127:\n        /* \"#utility.yul\":728:856   */\n    tag_126:\n        /* \"#utility.yul\":310:862   */\n      swap3\n      pop\n      swap3\n      swap1\n      pop\n      jump\t// out\n        /* \"#utility.yul\":882:1435   */\n    tag_129:\n        /* \"#utility.yul\":940:948   */\n      0x00\n        /* \"#utility.yul\":950:956   */\n      dup1\n        /* \"#utility.yul\":1000:1003   */\n      dup4\n        /* \"#utility.yul\":993:997   */\n      0x1f\n        /* \"#utility.yul\":985:991   */\n      dup5\n        /* \"#utility.yul\":981:998   */\n      add\n        /* \"#utility.yul\":977:1004   */\n      slt\n        /* \"#utility.yul\":967:1089   */\n      tag_131\n      jumpi\n        /* \"#utility.yul\":1008:1087   */\n      tag_132\n      tag_122\n      jump\t// in\n    tag_132:\n        /* \"#utility.yul\":967:1089   */\n    tag_131:\n        /* \"#utility.yul\":1121:1127   */\n      dup3\n        /* \"#utility.yul\":1108:1128   */\n      calldataload\n        /* \"#utility.yul\":1098:1128   */\n      swap1\n      pop\n        /* \"#utility.yul\":1151:1169   */\n      0xffffffffffffffff\n        /* \"#utility.yul\":1143:1149   */\n      dup2\n        /* \"#utility.yul\":1140:1170   */\n      gt\n        /* \"#utility.yul\":1137:1254   */\n      iszero\n      tag_133\n      jumpi\n        /* \"#utility.yul\":1173:1252   */\n      tag_134\n      tag_125\n      jump\t// in\n    tag_134:\n        /* \"#utility.yul\":1137:1254   */\n    tag_133:\n        /* \"#utility.yul\":1287:1291   */\n      0x20\n        /* \"#utility.yul\":1279:1285   */\n      dup4\n        /* \"#utility.yul\":1275:1292   */\n      add\n        /* \"#utility.yul\":1263:1292   */\n      swap2\n      pop\n        /* \"#utility.yul\":1341:1344   */\n      dup4\n        /* \"#utility.yul\":1333:1337   */\n      0x01\n        /* \"#utility.yul\":1325:1331   */\n      dup3\n        /* \"#utility.yul\":1321:1338   */\n      mul\n        /* \"#utility.yul\":1311:1319   */\n      dup4\n        /* \"#utility.yul\":1307:1339   */\n      add\n        /* \"#utility.yul\":1304:1345   */\n      gt\n        /* \"#utility.yul\":1301:1429   */\n      iszero\n      tag_135\n      jumpi\n        /* \"#utility.yul\":1348:1427   */\n      tag_136\n      tag_128\n      jump\t// in\n    tag_136:\n        /* \"#utility.yul\":1301:1429   */\n    tag_135:\n        /* \"#utility.yul\":882:1435   */\n      swap3\n      pop\n      swap3\n      swap1\n      pop\n      jump\t// out\n        /* \"#utility.yul\":1441:1580   */\n    tag_137:\n        /* \"#utility.yul\":1487:1492   */\n      0x00\n        /* \"#utility.yul\":1525:1531   */\n      dup2\n        /* \"#utility.yul\":1512:1532   */\n      calldataload\n        /* \"#utility.yul\":1503:1532   */\n      swap1\n      pop\n        /* \"#utility.yul\":1541:1574   */\n      tag_139\n        /* \"#utility.yul\":1568:1573   */\n      dup2\n        /* \"#utility.yul\":1541:1574   */\n      tag_140\n      jump\t// in\n    tag_139:\n        /* \"#utility.yul\":1441:1580   */\n      swap3\n      swap2\n      pop\n      pop\n      jump\t// out\n        /* \"#utility.yul\":1586:2895   */\n    tag_30:\n        /* \"#utility.yul\":1704:1710   */\n      0x00\n        /* \"#utility.yul\":1712:1718   */\n      dup1\n        /* \"#utility.yul\":1720:1726   */\n      0x00\n        /* \"#utility.yul\":1728:1734   */\n      dup1\n        /* \"#utility.yul\":1736:1742   */\n      0x00\n        /* \"#utility.yul\":1744:1750   */\n      dup1\n        /* \"#utility.yul\":1752:1758   */\n      0x00\n        /* \"#utility.yul\":1801:1804   */\n      0xa0\n        /* \"#utility.yul\":1789:1798   */\n      dup9\n        /* \"#utility.yul\":1780:1787   */\n      dup11\n        /* \"#utility.yul\":1776:1799   */\n      sub\n        /* \"#utility.yul\":1772:1805   */\n      slt\n        /* \"#utility.yul\":1769:1889   */\n      iszero\n      tag_142\n      jumpi\n        /* \"#utility.yul\":1808:1887   */\n      tag_143\n      tag_144\n      jump\t// in\n    tag_143:\n        /* \"#utility.yul\":1769:1889   */\n    tag_142:\n        /* \"#utility.yul\":1928:1929   */\n      0x00\n        /* \"#utility.yul\":1953:2006   */\n      tag_145\n        /* \"#utility.yul\":1998:2005   */\n      dup11\n        /* \"#utility.yul\":1989:1995   */\n      dup3\n        /* \"#utility.yul\":1978:1987   */\n      dup12\n        /* \"#utility.yul\":1974:1996   */\n      add\n        /* \"#utility.yul\":1953:2006   */\n      tag_110\n      jump\t// in\n    tag_145:\n        /* \"#utility.yul\":1943:2006   */\n      swap8\n      pop\n        /* \"#utility.yul\":1899:2016   */\n      pop\n        /* \"#utility.yul\":2055:2057   */\n      0x20\n        /* \"#utility.yul\":2081:2134   */\n      tag_146\n        /* \"#utility.yul\":2126:2133   */\n      dup11\n        /* \"#utility.yul\":2117:2123   */\n      dup3\n        /* \"#utility.yul\":2106:2115   */\n      dup12\n        /* \"#utility.yul\":2102:2124   */\n      add\n        /* \"#utility.yul\":2081:2134   */\n      tag_137\n      jump\t// in\n    tag_146:\n        /* \"#utility.yul\":2071:2134   */\n      swap7\n      pop\n        /* \"#utility.yul\":2026:2144   */\n      pop\n        /* \"#utility.yul\":2211:2213   */\n      0x40\n        /* \"#utility.yul\":2200:2209   */\n      dup9\n        /* \"#utility.yul\":2196:2214   */\n      add\n        /* \"#utility.yul\":2183:2215   */\n      calldataload\n        /* \"#utility.yul\":2242:2260   */\n      0xffffffffffffffff\n        /* \"#utility.yul\":2234:2240   */\n      dup2\n        /* \"#utility.yul\":2231:2261   */\n      gt\n        /* \"#utility.yul\":2228:2345   */\n      iszero\n      tag_147\n      jumpi\n        /* \"#utility.yul\":2264:2343   */\n      tag_148\n      tag_149\n      jump\t// in\n    tag_148:\n        /* \"#utility.yul\":2228:2345   */\n    tag_147:\n        /* \"#utility.yul\":2377:2442   */\n      tag_150\n        /* \"#utility.yul\":2434:2441   */\n      dup11\n        /* \"#utility.yul\":2425:2431   */\n      dup3\n        /* \"#utility.yul\":2414:2423   */\n      dup12\n        /* \"#utility.yul\":2410:2432   */\n      add\n        /* \"#utility.yul\":2377:2442   */\n      tag_129\n      jump\t// in\n    tag_150:\n        /* \"#utility.yul\":2359:2442   */\n      swap6\n      pop\n      swap6\n      pop\n        /* \"#utility.yul\":2154:2452   */\n      pop\n        /* \"#utility.yul\":2519:2521   */\n      0x60\n        /* \"#utility.yul\":2508:2517   */\n      dup9\n        /* \"#utility.yul\":2504:2522   */\n      add\n        /* \"#utility.yul\":2491:2523   */\n      calldataload\n        /* \"#utility.yul\":2550:2568   */\n      0xffffffffffffffff\n        /* \"#utility.yul\":2542:2548   */\n      dup2\n        /* \"#utility.yul\":2539:2569   */\n      gt\n        /* \"#utility.yul\":2536:2653   */\n      iszero\n      tag_151\n      jumpi\n        /* \"#utility.yul\":2572:2651   */\n      tag_152\n      tag_149\n      jump\t// in\n    tag_152:\n        /* \"#utility.yul\":2536:2653   */\n    tag_151:\n        /* \"#utility.yul\":2685:2749   */\n      tag_153\n        /* \"#utility.yul\":2741:2748   */\n      dup11\n        /* \"#utility.yul\":2732:2738   */\n      dup3\n        /* \"#utility.yul\":2721:2730   */\n      dup12\n        /* \"#utility.yul\":2717:2739   */\n      add\n        /* \"#utility.yul\":2685:2749   */\n      tag_118\n      jump\t// in\n    tag_153:\n        /* \"#utility.yul\":2667:2749   */\n      swap4\n      pop\n      swap4\n      pop\n        /* \"#utility.yul\":2462:2759   */\n      pop\n        /* \"#utility.yul\":2798:2801   */\n      0x80\n        /* \"#utility.yul\":2825:2878   */\n      tag_154\n        /* \"#utility.yul\":2870:2877   */\n      dup11\n        /* \"#utility.yul\":2861:2867   */\n      dup3\n        /* \"#utility.yul\":2850:2859   */\n      dup12\n        /* \"#utility.yul\":2846:2868   */\n      add\n        /* \"#utility.yul\":2825:2878   */\n      tag_137\n      jump\t// in\n    tag_154:\n        /* \"#utility.yul\":2815:2878   */\n      swap2\n      pop\n        /* \"#utility.yul\":2769:2888   */\n      pop\n        /* \"#utility.yul\":1586:2895   */\n      swap3\n      swap6\n      swap9\n      swap2\n      swap5\n      swap8\n      pop\n      swap3\n      swap6\n      pop\n      jump\t// out\n        /* \"#utility.yul\":2901:3230   */\n    tag_18:\n        /* \"#utility.yul\":2960:2966   */\n      0x00\n        /* \"#utility.yul\":3009:3011   */\n      0x20\n        /* \"#utility.yul\":2997:3006   */\n      dup3\n        /* \"#utility.yul\":2988:2995   */\n      dup5\n        /* \"#utility.yul\":2984:3007   */\n      sub\n        /* \"#utility.yul\":2980:3012   */\n      slt\n        /* \"#utility.yul\":2977:3096   */\n      iszero\n      tag_156\n      jumpi\n        /* \"#utility.yul\":3015:3094   */\n      tag_157\n      tag_144\n      jump\t// in\n    tag_157:\n        /* \"#utility.yul\":2977:3096   */\n    tag_156:\n        /* \"#utility.yul\":3135:3136   */\n      0x00\n        /* \"#utility.yul\":3160:3213   */\n      tag_158\n        /* \"#utility.yul\":3205:3212   */\n      dup5\n        /* \"#utility.yul\":3196:3202   */\n      dup3\n        /* \"#utility.yul\":3185:3194   */\n      dup6\n        /* \"#utility.yul\":3181:3203   */\n      add\n        /* \"#utility.yul\":3160:3213   */\n      tag_114\n      jump\t// in\n    tag_158:\n        /* \"#utility.yul\":3150:3213   */\n      swap2\n      pop\n        /* \"#utility.yul\":3106:3223   */\n      pop\n        /* \"#utility.yul\":2901:3230   */\n      swap3\n      swap2\n      pop\n      pop\n      jump\t// out\n        /* \"#utility.yul\":3236:3354   */\n    tag_159:\n        /* \"#utility.yul\":3323:3347   */\n      tag_161\n        /* \"#utility.yul\":3341:3346   */\n      dup2\n        /* \"#utility.yul\":3323:3347   */\n      tag_162\n      jump\t// in\n    tag_161:\n        /* \"#utility.yul\":3318:3321   */\n      dup3\n        /* \"#utility.yul\":3311:3348   */\n      mstore\n        /* \"#utility.yul\":3236:3354   */\n      pop\n      pop\n      jump\t// out\n        /* \"#utility.yul\":3360:3469   */\n    tag_163:\n        /* \"#utility.yul\":3441:3462   */\n      tag_165\n        /* \"#utility.yul\":3456:3461   */\n      dup2\n        /* \"#utility.yul\":3441:3462   */\n      tag_166\n      jump\t// in\n    tag_165:\n        /* \"#utility.yul\":3436:3439   */\n      dup3\n        /* \"#utility.yul\":3429:3463   */\n      mstore\n        /* \"#utility.yul\":3360:3469   */\n      pop\n      pop\n      jump\t// out\n        /* \"#utility.yul\":3475:3593   */\n    tag_167:\n        /* \"#utility.yul\":3562:3586   */\n      tag_169\n        /* \"#utility.yul\":3580:3585   */\n      dup2\n        /* \"#utility.yul\":3562:3586   */\n      tag_170\n      jump\t// in\n    tag_169:\n        /* \"#utility.yul\":3557:3560   */\n      dup3\n        /* \"#utility.yul\":3550:3587   */\n      mstore\n        /* \"#utility.yul\":3475:3593   */\n      pop\n      pop\n      jump\t// out\n        /* \"#utility.yul\":3599:3752   */\n    tag_171:\n        /* \"#utility.yul\":3702:3745   */\n      tag_173\n        /* \"#utility.yul\":3721:3744   */\n      tag_174\n        /* \"#utility.yul\":3738:3743   */\n      dup3\n        /* \"#utility.yul\":3721:3744   */\n      tag_175\n      jump\t// in\n    tag_174:\n        /* \"#utility.yul\":3702:3745   */\n      tag_176\n      jump\t// in\n    tag_173:\n        /* \"#utility.yul\":3697:3700   */\n      dup3\n        /* \"#utility.yul\":3690:3746   */\n      mstore\n        /* \"#utility.yul\":3599:3752   */\n      pop\n      pop\n      jump\t// out\n        /* \"#utility.yul\":3780:4081   */\n    tag_177:\n        /* \"#utility.yul\":3876:3879   */\n      0x00\n        /* \"#utility.yul\":3897:3967   */\n      tag_179\n        /* \"#utility.yul\":3960:3966   */\n      dup4\n        /* \"#utility.yul\":3955:3958   */\n      dup6\n        /* \"#utility.yul\":3897:3967   */\n      tag_180\n      jump\t// in\n    tag_179:\n        /* \"#utility.yul\":3890:3967   */\n      swap4\n      pop\n        /* \"#utility.yul\":3977:4020   */\n      tag_181\n        /* \"#utility.yul\":4013:4019   */\n      dup4\n        /* \"#utility.yul\":4008:4011   */\n      dup6\n        /* \"#utility.yul\":4001:4006   */\n      dup5\n        /* \"#utility.yul\":3977:4020   */\n      tag_182\n      jump\t// in\n    tag_181:\n        /* \"#utility.yul\":4045:4074   */\n      tag_183\n        /* \"#utility.yul\":4067:4073   */\n      dup4\n        /* \"#utility.yul\":4045:4074   */\n      tag_184\n      jump\t// in\n    tag_183:\n        /* \"#utility.yul\":4040:4043   */\n      dup5\n        /* \"#utility.yul\":4036:4075   */\n      add\n        /* \"#utility.yul\":4029:4075   */\n      swap1\n      pop\n        /* \"#utility.yul\":3780:4081   */\n      swap4\n      swap3\n      pop\n      pop\n      pop\n      jump\t// out\n        /* \"#utility.yul\":4109:4423   */\n    tag_185:\n        /* \"#utility.yul\":4223:4226   */\n      0x00\n        /* \"#utility.yul\":4244:4332   */\n      tag_187\n        /* \"#utility.yul\":4325:4331   */\n      dup4\n        /* \"#utility.yul\":4320:4323   */\n      dup6\n        /* \"#utility.yul\":4244:4332   */\n      tag_188\n      jump\t// in\n    tag_187:\n        /* \"#utility.yul\":4237:4332   */\n      swap4\n      pop\n        /* \"#utility.yul\":4342:4385   */\n      tag_189\n        /* \"#utility.yul\":4378:4384   */\n      dup4\n        /* \"#utility.yul\":4373:4376   */\n      dup6\n        /* \"#utility.yul\":4366:4371   */\n      dup5\n        /* \"#utility.yul\":4342:4385   */\n      tag_182\n      jump\t// in\n    tag_189:\n        /* \"#utility.yul\":4410:4416   */\n      dup3\n        /* \"#utility.yul\":4405:4408   */\n      dup5\n        /* \"#utility.yul\":4401:4417   */\n      add\n        /* \"#utility.yul\":4394:4417   */\n      swap1\n      pop\n        /* \"#utility.yul\":4109:4423   */\n      swap4\n      swap3\n      pop\n      pop\n      pop\n      jump\t// out\n        /* \"#utility.yul\":4429:4789   */\n    tag_190:\n        /* \"#utility.yul\":4515:4518   */\n      0x00\n        /* \"#utility.yul\":4543:4581   */\n      tag_192\n        /* \"#utility.yul\":4575:4580   */\n      dup3\n        /* \"#utility.yul\":4543:4581   */\n      tag_193\n      jump\t// in\n    tag_192:\n        /* \"#utility.yul\":4597:4667   */\n      tag_194\n        /* \"#utility.yul\":4660:4666   */\n      dup2\n        /* \"#utility.yul\":4655:4658   */\n      dup6\n        /* \"#utility.yul\":4597:4667   */\n      tag_180\n      jump\t// in\n    tag_194:\n        /* \"#utility.yul\":4590:4667   */\n      swap4\n      pop\n        /* \"#utility.yul\":4676:4728   */\n      tag_195\n        /* \"#utility.yul\":4721:4727   */\n      dup2\n        /* \"#utility.yul\":4716:4719   */\n      dup6\n        /* \"#utility.yul\":4709:4713   */\n      0x20\n        /* \"#utility.yul\":4702:4707   */\n      dup7\n        /* \"#utility.yul\":4698:4714   */\n      add\n        /* \"#utility.yul\":4676:4728   */\n      tag_196\n      jump\t// in\n    tag_195:\n        /* \"#utility.yul\":4753:4782   */\n      tag_197\n        /* \"#utility.yul\":4775:4781   */\n      dup2\n        /* \"#utility.yul\":4753:4782   */\n      tag_184\n      jump\t// in\n    tag_197:\n        /* \"#utility.yul\":4748:4751   */\n      dup5\n        /* \"#utility.yul\":4744:4783   */\n      add\n        /* \"#utility.yul\":4737:4783   */\n      swap2\n      pop\n        /* \"#utility.yul\":4519:4789   */\n      pop\n        /* \"#utility.yul\":4429:4789   */\n      swap3\n      swap2\n      pop\n      pop\n      jump\t// out\n        /* \"#utility.yul\":4795:5168   */\n    tag_198:\n        /* \"#utility.yul\":4899:4902   */\n      0x00\n        /* \"#utility.yul\":4927:4965   */\n      tag_200\n        /* \"#utility.yul\":4959:4964   */\n      dup3\n        /* \"#utility.yul\":4927:4965   */\n      tag_193\n      jump\t// in\n    tag_200:\n        /* \"#utility.yul\":4981:5069   */\n      tag_201\n        /* \"#utility.yul\":5062:5068   */\n      dup2\n        /* \"#utility.yul\":5057:5060   */\n      dup6\n        /* \"#utility.yul\":4981:5069   */\n      tag_188\n      jump\t// in\n    tag_201:\n        /* \"#utility.yul\":4974:5069   */\n      swap4\n      pop\n        /* \"#utility.yul\":5078:5130   */\n      tag_202\n        /* \"#utility.yul\":5123:5129   */\n      dup2\n        /* \"#utility.yul\":5118:5121   */\n      dup6\n        /* \"#utility.yul\":5111:5115   */\n      0x20\n        /* \"#utility.yul\":5104:5109   */\n      dup7\n        /* \"#utility.yul\":5100:5116   */\n      add\n        /* \"#utility.yul\":5078:5130   */\n      tag_196\n      jump\t// in\n    tag_202:\n        /* \"#utility.yul\":5155:5161   */\n      dup1\n        /* \"#utility.yul\":5150:5153   */\n      dup5\n        /* \"#utility.yul\":5146:5162   */\n      add\n        /* \"#utility.yul\":5139:5162   */\n      swap2\n      pop\n        /* \"#utility.yul\":4903:5168   */\n      pop\n        /* \"#utility.yul\":4795:5168   */\n      swap3\n      swap2\n      pop\n      pop\n      jump\t// out\n        /* \"#utility.yul\":5198:5502   */\n    tag_203:\n        /* \"#utility.yul\":5296:5299   */\n      0x00\n        /* \"#utility.yul\":5317:5388   */\n      tag_205\n        /* \"#utility.yul\":5381:5387   */\n      dup4\n        /* \"#utility.yul\":5376:5379   */\n      dup6\n        /* \"#utility.yul\":5317:5388   */\n      tag_206\n      jump\t// in\n    tag_205:\n        /* \"#utility.yul\":5310:5388   */\n      swap4\n      pop\n        /* \"#utility.yul\":5398:5441   */\n      tag_207\n        /* \"#utility.yul\":5434:5440   */\n      dup4\n        /* \"#utility.yul\":5429:5432   */\n      dup6\n        /* \"#utility.yul\":5422:5427   */\n      dup5\n        /* \"#utility.yul\":5398:5441   */\n      tag_182\n      jump\t// in\n    tag_207:\n        /* \"#utility.yul\":5466:5495   */\n      tag_208\n        /* \"#utility.yul\":5488:5494   */\n      dup4\n        /* \"#utility.yul\":5466:5495   */\n      tag_184\n      jump\t// in\n    tag_208:\n        /* \"#utility.yul\":5461:5464   */\n      dup5\n        /* \"#utility.yul\":5457:5496   */\n      add\n        /* \"#utility.yul\":5450:5496   */\n      swap1\n      pop\n        /* \"#utility.yul\":5198:5502   */\n      swap4\n      swap3\n      pop\n      pop\n      pop\n      jump\t// out\n        /* \"#utility.yul\":5508:5626   */\n    tag_209:\n        /* \"#utility.yul\":5595:5619   */\n      tag_211\n        /* \"#utility.yul\":5613:5618   */\n      dup2\n        /* \"#utility.yul\":5595:5619   */\n      tag_212\n      jump\t// in\n    tag_211:\n        /* \"#utility.yul\":5590:5593   */\n      dup3\n        /* \"#utility.yul\":5583:5620   */\n      mstore\n        /* \"#utility.yul\":5508:5626   */\n      pop\n      pop\n      jump\t// out\n        /* \"#utility.yul\":5632:6059   */\n    tag_95:\n        /* \"#utility.yul\":5798:5801   */\n      0x00\n        /* \"#utility.yul\":5813:5886   */\n      tag_214\n        /* \"#utility.yul\":5882:5885   */\n      dup3\n        /* \"#utility.yul\":5873:5879   */\n      dup7\n        /* \"#utility.yul\":5813:5886   */\n      tag_171\n      jump\t// in\n    tag_214:\n        /* \"#utility.yul\":5911:5912   */\n      0x04\n        /* \"#utility.yul\":5906:5909   */\n      dup3\n        /* \"#utility.yul\":5902:5913   */\n      add\n        /* \"#utility.yul\":5895:5913   */\n      swap2\n      pop\n        /* \"#utility.yul\":5930:6033   */\n      tag_215\n        /* \"#utility.yul\":6029:6032   */\n      dup3\n        /* \"#utility.yul\":6020:6026   */\n      dup5\n        /* \"#utility.yul\":6012:6018   */\n      dup7\n        /* \"#utility.yul\":5930:6033   */\n      tag_185\n      jump\t// in\n    tag_215:\n        /* \"#utility.yul\":5923:6033   */\n      swap2\n      pop\n        /* \"#utility.yul\":6050:6053   */\n      dup2\n        /* \"#utility.yul\":6043:6053   */\n      swap1\n      pop\n        /* \"#utility.yul\":5632:6059   */\n      swap5\n      swap4\n      pop\n      pop\n      pop\n      pop\n      jump\t// out\n        /* \"#utility.yul\":6065:6356   */\n    tag_93:\n        /* \"#utility.yul\":6205:6208   */\n      0x00\n        /* \"#utility.yul\":6227:6330   */\n      tag_217\n        /* \"#utility.yul\":6326:6329   */\n      dup3\n        /* \"#utility.yul\":6317:6323   */\n      dup5\n        /* \"#utility.yul\":6309:6315   */\n      dup7\n        /* \"#utility.yul\":6227:6330   */\n      tag_185\n      jump\t// in\n    tag_217:\n        /* \"#utility.yul\":6220:6330   */\n      swap2\n      pop\n        /* \"#utility.yul\":6347:6350   */\n      dup2\n        /* \"#utility.yul\":6340:6350   */\n      swap1\n      pop\n        /* \"#utility.yul\":6065:6356   */\n      swap4\n      swap3\n      pop\n      pop\n      pop\n      jump\t// out\n        /* \"#utility.yul\":6362:6633   */\n    tag_98:\n        /* \"#utility.yul\":6492:6495   */\n      0x00\n        /* \"#utility.yul\":6514:6607   */\n      tag_219\n        /* \"#utility.yul\":6603:6606   */\n      dup3\n        /* \"#utility.yul\":6594:6600   */\n      dup5\n        /* \"#utility.yul\":6514:6607   */\n      tag_198\n      jump\t// in\n    tag_219:\n        /* \"#utility.yul\":6507:6607   */\n      swap2\n      pop\n        /* \"#utility.yul\":6624:6627   */\n      dup2\n        /* \"#utility.yul\":6617:6627   */\n      swap1\n      pop\n        /* \"#utility.yul\":6362:6633   */\n      swap3\n      swap2\n      pop\n      pop\n      jump\t// out\n        /* \"#utility.yul\":6639:6861   */\n    tag_43:\n        /* \"#utility.yul\":6732:6736   */\n      0x00\n        /* \"#utility.yul\":6770:6772   */\n      0x20\n        /* \"#utility.yul\":6759:6768   */\n      dup3\n        /* \"#utility.yul\":6755:6773   */\n      add\n        /* \"#utility.yul\":6747:6773   */\n      swap1\n      pop\n        /* \"#utility.yul\":6783:6854   */\n      tag_221\n        /* \"#utility.yul\":6851:6852   */\n      0x00\n        /* \"#utility.yul\":6840:6849   */\n      dup4\n        /* \"#utility.yul\":6836:6853   */\n      add\n        /* \"#utility.yul\":6827:6833   */\n      dup5\n        /* \"#utility.yul\":6783:6854   */\n      tag_159\n      jump\t// in\n    tag_221:\n        /* \"#utility.yul\":6639:6861   */\n      swap3\n      swap2\n      pop\n      pop\n      jump\t// out\n        /* \"#utility.yul\":6867:7749   */\n    tag_78:\n        /* \"#utility.yul\":7130:7134   */\n      0x00\n        /* \"#utility.yul\":7168:7171   */\n      0xa0\n        /* \"#utility.yul\":7157:7166   */\n      dup3\n        /* \"#utility.yul\":7153:7172   */\n      add\n        /* \"#utility.yul\":7145:7172   */\n      swap1\n      pop\n        /* \"#utility.yul\":7182:7253   */\n      tag_223\n        /* \"#utility.yul\":7250:7251   */\n      0x00\n        /* \"#utility.yul\":7239:7248   */\n      dup4\n        /* \"#utility.yul\":7235:7252   */\n      add\n        /* \"#utility.yul\":7226:7232   */\n      dup11\n        /* \"#utility.yul\":7182:7253   */\n      tag_159\n      jump\t// in\n    tag_223:\n        /* \"#utility.yul\":7263:7335   */\n      tag_224\n        /* \"#utility.yul\":7331:7333   */\n      0x20\n        /* \"#utility.yul\":7320:7329   */\n      dup4\n        /* \"#utility.yul\":7316:7334   */\n      add\n        /* \"#utility.yul\":7307:7313   */\n      dup10\n        /* \"#utility.yul\":7263:7335   */\n      tag_209\n      jump\t// in\n    tag_224:\n        /* \"#utility.yul\":7382:7391   */\n      dup2\n        /* \"#utility.yul\":7376:7380   */\n      dup2\n        /* \"#utility.yul\":7372:7392   */\n      sub\n        /* \"#utility.yul\":7367:7369   */\n      0x40\n        /* \"#utility.yul\":7356:7365   */\n      dup4\n        /* \"#utility.yul\":7352:7370   */\n      add\n        /* \"#utility.yul\":7345:7393   */\n      mstore\n        /* \"#utility.yul\":7410:7498   */\n      tag_225\n        /* \"#utility.yul\":7493:7497   */\n      dup2\n        /* \"#utility.yul\":7484:7490   */\n      dup8\n        /* \"#utility.yul\":7476:7482   */\n      dup10\n        /* \"#utility.yul\":7410:7498   */\n      tag_203\n      jump\t// in\n    tag_225:\n        /* \"#utility.yul\":7402:7498   */\n      swap1\n      pop\n        /* \"#utility.yul\":7545:7554   */\n      dup2\n        /* \"#utility.yul\":7539:7543   */\n      dup2\n        /* \"#utility.yul\":7535:7555   */\n      sub\n        /* \"#utility.yul\":7530:7532   */\n      0x60\n        /* \"#utility.yul\":7519:7528   */\n      dup4\n        /* \"#utility.yul\":7515:7533   */\n      add\n        /* \"#utility.yul\":7508:7556   */\n      mstore\n        /* \"#utility.yul\":7573:7659   */\n      tag_226\n        /* \"#utility.yul\":7654:7658   */\n      dup2\n        /* \"#utility.yul\":7645:7651   */\n      dup6\n        /* \"#utility.yul\":7637:7643   */\n      dup8\n        /* \"#utility.yul\":7573:7659   */\n      tag_177\n      jump\t// in\n    tag_226:\n        /* \"#utility.yul\":7565:7659   */\n      swap1\n      pop\n        /* \"#utility.yul\":7669:7742   */\n      tag_227\n        /* \"#utility.yul\":7737:7740   */\n      0x80\n        /* \"#utility.yul\":7726:7735   */\n      dup4\n        /* \"#utility.yul\":7722:7741   */\n      add\n        /* \"#utility.yul\":7713:7719   */\n      dup5\n        /* \"#utility.yul\":7669:7742   */\n      tag_209\n      jump\t// in\n    tag_227:\n        /* \"#utility.yul\":6867:7749   */\n      swap9\n      swap8\n      pop\n      pop\n      pop\n      pop\n      pop\n      pop\n      pop\n      pop\n      jump\t// out\n        /* \"#utility.yul\":7755:7965   */\n    tag_21:\n        /* \"#utility.yul\":7842:7846   */\n      0x00\n        /* \"#utility.yul\":7880:7882   */\n      0x20\n        /* \"#utility.yul\":7869:7878   */\n      dup3\n        /* \"#utility.yul\":7865:7883   */\n      add\n        /* \"#utility.yul\":7857:7883   */\n      swap1\n      pop\n        /* \"#utility.yul\":7893:7958   */\n      tag_229\n        /* \"#utility.yul\":7955:7956   */\n      0x00\n        /* \"#utility.yul\":7944:7953   */\n      dup4\n        /* \"#utility.yul\":7940:7957   */\n      add\n        /* \"#utility.yul\":7931:7937   */\n      dup5\n        /* \"#utility.yul\":7893:7958   */\n      tag_163\n      jump\t// in\n    tag_229:\n        /* \"#utility.yul\":7755:7965   */\n      swap3\n      swap2\n      pop\n      pop\n      jump\t// out\n        /* \"#utility.yul\":7971:8193   */\n    tag_33:\n        /* \"#utility.yul\":8064:8068   */\n      0x00\n        /* \"#utility.yul\":8102:8104   */\n      0x20\n        /* \"#utility.yul\":8091:8100   */\n      dup3\n        /* \"#utility.yul\":8087:8105   */\n      add\n        /* \"#utility.yul\":8079:8105   */\n      swap1\n      pop\n        /* \"#utility.yul\":8115:8186   */\n      tag_231\n        /* \"#utility.yul\":8183:8184   */\n      0x00\n        /* \"#utility.yul\":8172:8181   */\n      dup4\n        /* \"#utility.yul\":8168:8185   */\n      add\n        /* \"#utility.yul\":8159:8165   */\n      dup5\n        /* \"#utility.yul\":8115:8186   */\n      tag_167\n      jump\t// in\n    tag_231:\n        /* \"#utility.yul\":7971:8193   */\n      swap3\n      swap2\n      pop\n      pop\n      jump\t// out\n        /* \"#utility.yul\":8199:8508   */\n    tag_52:\n        /* \"#utility.yul\":8310:8314   */\n      0x00\n        /* \"#utility.yul\":8348:8350   */\n      0x20\n        /* \"#utility.yul\":8337:8346   */\n      dup3\n        /* \"#utility.yul\":8333:8351   */\n      add\n        /* \"#utility.yul\":8325:8351   */\n      swap1\n      pop\n        /* \"#utility.yul\":8397:8406   */\n      dup2\n        /* \"#utility.yul\":8391:8395   */\n      dup2\n        /* \"#utility.yul\":8387:8407   */\n      sub\n        /* \"#utility.yul\":8383:8384   */\n      0x00\n        /* \"#utility.yul\":8372:8381   */\n      dup4\n        /* \"#utility.yul\":8368:8385   */\n      add\n        /* \"#utility.yul\":8361:8408   */\n      mstore\n        /* \"#utility.yul\":8425:8501   */\n      tag_233\n        /* \"#utility.yul\":8496:8500   */\n      dup2\n        /* \"#utility.yul\":8487:8493   */\n      dup5\n        /* \"#utility.yul\":8425:8501   */\n      tag_190\n      jump\t// in\n    tag_233:\n        /* \"#utility.yul\":8417:8501   */\n      swap1\n      pop\n        /* \"#utility.yul\":8199:8508   */\n      swap3\n      swap2\n      pop\n      pop\n      jump\t// out\n        /* \"#utility.yul\":8514:8736   */\n    tag_26:\n        /* \"#utility.yul\":8607:8611   */\n      0x00\n        /* \"#utility.yul\":8645:8647   */\n      0x20\n        /* \"#utility.yul\":8634:8643   */\n      dup3\n        /* \"#utility.yul\":8630:8648   */\n      add\n        /* \"#utility.yul\":8622:8648   */\n      swap1\n      pop\n        /* \"#utility.yul\":8658:8729   */\n      tag_235\n        /* \"#utility.yul\":8726:8727   */\n      0x00\n        /* \"#utility.yul\":8715:8724   */\n      dup4\n        /* \"#utility.yul\":8711:8728   */\n      add\n        /* \"#utility.yul\":8702:8708   */\n      dup5\n        /* \"#utility.yul\":8658:8729   */\n      tag_209\n      jump\t// in\n    tag_235:\n        /* \"#utility.yul\":8514:8736   */\n      swap3\n      swap2\n      pop\n      pop\n      jump\t// out\n        /* \"#utility.yul\":8742:9513   */\n    tag_75:\n        /* \"#utility.yul\":8977:8981   */\n      0x00\n        /* \"#utility.yul\":9015:9018   */\n      0x80\n        /* \"#utility.yul\":9004:9013   */\n      dup3\n        /* \"#utility.yul\":9000:9019   */\n      add\n        /* \"#utility.yul\":8992:9019   */\n      swap1\n      pop\n        /* \"#utility.yul\":9029:9100   */\n      tag_237\n        /* \"#utility.yul\":9097:9098   */\n      0x00\n        /* \"#utility.yul\":9086:9095   */\n      dup4\n        /* \"#utility.yul\":9082:9099   */\n      add\n        /* \"#utility.yul\":9073:9079   */\n      dup10\n        /* \"#utility.yul\":9029:9100   */\n      tag_209\n      jump\t// in\n    tag_237:\n        /* \"#utility.yul\":9147:9156   */\n      dup2\n        /* \"#utility.yul\":9141:9145   */\n      dup2\n        /* \"#utility.yul\":9137:9157   */\n      sub\n        /* \"#utility.yul\":9132:9134   */\n      0x20\n        /* \"#utility.yul\":9121:9130   */\n      dup4\n        /* \"#utility.yul\":9117:9135   */\n      add\n        /* \"#utility.yul\":9110:9158   */\n      mstore\n        /* \"#utility.yul\":9175:9263   */\n      tag_238\n        /* \"#utility.yul\":9258:9262   */\n      dup2\n        /* \"#utility.yul\":9249:9255   */\n      dup8\n        /* \"#utility.yul\":9241:9247   */\n      dup10\n        /* \"#utility.yul\":9175:9263   */\n      tag_203\n      jump\t// in\n    tag_238:\n        /* \"#utility.yul\":9167:9263   */\n      swap1\n      pop\n        /* \"#utility.yul\":9310:9319   */\n      dup2\n        /* \"#utility.yul\":9304:9308   */\n      dup2\n        /* \"#utility.yul\":9300:9320   */\n      sub\n        /* \"#utility.yul\":9295:9297   */\n      0x40\n        /* \"#utility.yul\":9284:9293   */\n      dup4\n        /* \"#utility.yul\":9280:9298   */\n      add\n        /* \"#utility.yul\":9273:9321   */\n      mstore\n        /* \"#utility.yul\":9338:9424   */\n      tag_239\n        /* \"#utility.yul\":9419:9423   */\n      dup2\n        /* \"#utility.yul\":9410:9416   */\n      dup6\n        /* \"#utility.yul\":9402:9408   */\n      dup8\n        /* \"#utility.yul\":9338:9424   */\n      tag_177\n      jump\t// in\n    tag_239:\n        /* \"#utility.yul\":9330:9424   */\n      swap1\n      pop\n        /* \"#utility.yul\":9434:9506   */\n      tag_240\n        /* \"#utility.yul\":9502:9504   */\n      0x60\n        /* \"#utility.yul\":9491:9500   */\n      dup4\n        /* \"#utility.yul\":9487:9505   */\n      add\n        /* \"#utility.yul\":9478:9484   */\n      dup5\n        /* \"#utility.yul\":9434:9506   */\n      tag_209\n      jump\t// in\n    tag_240:\n        /* \"#utility.yul\":8742:9513   */\n      swap8\n      swap7\n      pop\n      pop\n      pop\n      pop\n      pop\n      pop\n      pop\n      jump\t// out\n        /* \"#utility.yul\":9519:9851   */\n    tag_73:\n        /* \"#utility.yul\":9640:9644   */\n      0x00\n        /* \"#utility.yul\":9678:9680   */\n      0x40\n        /* \"#utility.yul\":9667:9676   */\n      dup3\n        /* \"#utility.yul\":9663:9681   */\n      add\n        /* \"#utility.yul\":9655:9681   */\n      swap1\n      pop\n        /* \"#utility.yul\":9691:9762   */\n      tag_242\n        /* \"#utility.yul\":9759:9760   */\n      0x00\n        /* \"#utility.yul\":9748:9757   */\n      dup4\n        /* \"#utility.yul\":9744:9761   */\n      add\n        /* \"#utility.yul\":9735:9741   */\n      dup6\n        /* \"#utility.yul\":9691:9762   */\n      tag_209\n      jump\t// in\n    tag_242:\n        /* \"#utility.yul\":9772:9844   */\n      tag_243\n        /* \"#utility.yul\":9840:9842   */\n      0x20\n        /* \"#utility.yul\":9829:9838   */\n      dup4\n        /* \"#utility.yul\":9825:9843   */\n      add\n        /* \"#utility.yul\":9816:9822   */\n      dup5\n        /* \"#utility.yul\":9772:9844   */\n      tag_209\n      jump\t// in\n    tag_243:\n        /* \"#utility.yul\":9519:9851   */\n      swap4\n      swap3\n      pop\n      pop\n      pop\n      jump\t// out\n        /* \"#utility.yul\":9938:10036   */\n    tag_193:\n        /* \"#utility.yul\":9989:9995   */\n      0x00\n        /* \"#utility.yul\":10023:10028   */\n      dup2\n        /* \"#utility.yul\":10017:10029   */\n      mload\n        /* \"#utility.yul\":10007:10029   */\n      swap1\n      pop\n        /* \"#utility.yul\":9938:10036   */\n      swap2\n      swap1\n      pop\n      jump\t// out\n        /* \"#utility.yul\":10042:10210   */\n    tag_180:\n        /* \"#utility.yul\":10125:10136   */\n      0x00\n        /* \"#utility.yul\":10159:10165   */\n      dup3\n        /* \"#utility.yul\":10154:10157   */\n      dup3\n        /* \"#utility.yul\":10147:10166   */\n      mstore\n        /* \"#utility.yul\":10199:10203   */\n      0x20\n        /* \"#utility.yul\":10194:10197   */\n      dup3\n        /* \"#utility.yul\":10190:10204   */\n      add\n        /* \"#utility.yul\":10175:10204   */\n      swap1\n      pop\n        /* \"#utility.yul\":10042:10210   */\n      swap3\n      swap2\n      pop\n      pop\n      jump\t// out\n        /* \"#utility.yul\":10216:10363   */\n    tag_188:\n        /* \"#utility.yul\":10317:10328   */\n      0x00\n        /* \"#utility.yul\":10354:10357   */\n      dup2\n        /* \"#utility.yul\":10339:10357   */\n      swap1\n      pop\n        /* \"#utility.yul\":10216:10363   */\n      swap3\n      swap2\n      pop\n      pop\n      jump\t// out\n        /* \"#utility.yul\":10369:10538   */\n    tag_206:\n        /* \"#utility.yul\":10453:10464   */\n      0x00\n        /* \"#utility.yul\":10487:10493   */\n      dup3\n        /* \"#utility.yul\":10482:10485   */\n      dup3\n        /* \"#utility.yul\":10475:10494   */\n      mstore\n        /* \"#utility.yul\":10527:10531   */\n      0x20\n        /* \"#utility.yul\":10522:10525   */\n      dup3\n        /* \"#utility.yul\":10518:10532   */\n      add\n        /* \"#utility.yul\":10503:10532   */\n      swap1\n      pop\n        /* \"#utility.yul\":10369:10538   */\n      swap3\n      swap2\n      pop\n      pop\n      jump\t// out\n        /* \"#utility.yul\":10544:10849   */\n    tag_68:\n        /* \"#utility.yul\":10584:10587   */\n      0x00\n        /* \"#utility.yul\":10603:10623   */\n      tag_251\n        /* \"#utility.yul\":10621:10622   */\n      dup3\n        /* \"#utility.yul\":10603:10623   */\n      tag_212\n      jump\t// in\n    tag_251:\n        /* \"#utility.yul\":10598:10623   */\n      swap2\n      pop\n        /* \"#utility.yul\":10637:10657   */\n      tag_252\n        /* \"#utility.yul\":10655:10656   */\n      dup4\n        /* \"#utility.yul\":10637:10657   */\n      tag_212\n      jump\t// in\n    tag_252:\n        /* \"#utility.yul\":10632:10657   */\n      swap3\n      pop\n        /* \"#utility.yul\":10791:10792   */\n      dup3\n        /* \"#utility.yul\":10723:10789   */\n      0xffffffffffffffffffffffffffffffffffffffffffffffffffffffffffffffff\n        /* \"#utility.yul\":10719:10793   */\n      sub\n        /* \"#utility.yul\":10716:10717   */\n      dup3\n        /* \"#utility.yul\":10713:10794   */\n      gt\n        /* \"#utility.yul\":10710:10817   */\n      iszero\n      tag_253\n      jumpi\n        /* \"#utility.yul\":10797:10815   */\n      tag_254\n      tag_255\n      jump\t// in\n    tag_254:\n        /* \"#utility.yul\":10710:10817   */\n    tag_253:\n        /* \"#utility.yul\":10841:10842   */\n      dup3\n        /* \"#utility.yul\":10838:10839   */\n      dup3\n        /* \"#utility.yul\":10834:10843   */\n      add\n        /* \"#utility.yul\":10827:10843   */\n      swap1\n      pop\n        /* \"#utility.yul\":10544:10849   */\n      swap3\n      swap2\n      pop\n      pop\n      jump\t// out\n        /* \"#utility.yul\":10855:10951   */\n    tag_162:\n        /* \"#utility.yul\":10892:10899   */\n      0x00\n        /* \"#utility.yul\":10921:10945   */\n      tag_257\n        /* \"#utility.yul\":10939:10944   */\n      dup3\n        /* \"#utility.yul\":10921:10945   */\n      tag_258\n      jump\t// in\n    tag_257:\n        /* \"#utility.yul\":10910:10945   */\n      swap1\n      pop\n        /* \"#utility.yul\":10855:10951   */\n      swap2\n      swap1\n      pop\n      jump\t// out\n        /* \"#utility.yul\":10957:11047   */\n    tag_166:\n        /* \"#utility.yul\":10991:10998   */\n      0x00\n        /* \"#utility.yul\":11034:11039   */\n      dup2\n        /* \"#utility.yul\":11027:11040   */\n      iszero\n        /* \"#utility.yul\":11020:11041   */\n      iszero\n        /* \"#utility.yul\":11009:11041   */\n      swap1\n      pop\n        /* \"#utility.yul\":10957:11047   */\n      swap2\n      swap1\n      pop\n      jump\t// out\n        /* \"#utility.yul\":11053:11130   */\n    tag_170:\n        /* \"#utility.yul\":11090:11097   */\n      0x00\n        /* \"#utility.yul\":11119:11124   */\n      dup2\n        /* \"#utility.yul\":11108:11124   */\n      swap1\n      pop\n        /* \"#utility.yul\":11053:11130   */\n      swap2\n      swap1\n      pop\n      jump\t// out\n        /* \"#utility.yul\":11136:11285   */\n    tag_175:\n        /* \"#utility.yul\":11172:11179   */\n      0x00\n        /* \"#utility.yul\":11212:11278   */\n      0xffffffff00000000000000000000000000000000000000000000000000000000\n        /* \"#utility.yul\":11205:11210   */\n      dup3\n        /* \"#utility.yul\":11201:11279   */\n      and\n        /* \"#utility.yul\":11190:11279   */\n      swap1\n      pop\n        /* \"#utility.yul\":11136:11285   */\n      swap2\n      swap1\n      pop\n      jump\t// out\n        /* \"#utility.yul\":11291:11417   */\n    tag_258:\n        /* \"#utility.yul\":11328:11335   */\n      0x00\n        /* \"#utility.yul\":11368:11410   */\n      0xffffffffffffffffffffffffffffffffffffffff\n        /* \"#utility.yul\":11361:11366   */\n      dup3\n        /* \"#utility.yul\":11357:11411   */\n      and\n        /* \"#utility.yul\":11346:11411   */\n      swap1\n      pop\n        /* \"#utility.yul\":11291:11417   */\n      swap2\n      swap1\n      pop\n      jump\t// out\n        /* \"#utility.yul\":11423:11500   */\n    tag_212:\n        /* \"#utility.yul\":11460:11467   */\n      0x00\n        /* \"#utility.yul\":11489:11494   */\n      dup2\n        /* \"#utility.yul\":11478:11494   */\n      swap1\n      pop\n        /* \"#utility.yul\":11423:11500   */\n      swap2\n      swap1\n      pop\n      jump\t// out\n        /* \"#utility.yul\":11506:11660   */\n    tag_182:\n        /* \"#utility.yul\":11590:11596   */\n      dup3\n        /* \"#utility.yul\":11585:11588   */\n      dup2\n        /* \"#utility.yul\":11580:11583   */\n      dup4\n        /* \"#utility.yul\":11567:11597   */\n      calldatacopy\n        /* \"#utility.yul\":11652:11653   */\n      0x00\n        /* \"#utility.yul\":11643:11649   */\n      dup4\n        /* \"#utility.yul\":11638:11641   */\n      dup4\n        /* \"#utility.yul\":11634:11650   */\n      add\n        /* \"#utility.yul\":11627:11654   */\n      mstore\n        /* \"#utility.yul\":11506:11660   */\n      pop\n      pop\n      pop\n      jump\t// out\n        /* \"#utility.yul\":11666:11973   */\n    tag_196:\n        /* \"#utility.yul\":11734:11735   */\n      0x00\n        /* \"#utility.yul\":11744:11857   */\n    tag_266:\n        /* \"#utility.yul\":11758:11764   */\n      dup4\n        /* \"#utility.yul\":11755:11756   */\n      dup2\n        /* \"#utility.yul\":11752:11765   */\n      lt\n        /* \"#utility.yul\":11744:11857   */\n      iszero\n      tag_268\n      jumpi\n        /* \"#utility.yul\":11843:11844   */\n      dup1\n        /* \"#utility.yul\":11838:11841   */\n      dup3\n        /* \"#utility.yul\":11834:11845   */\n      add\n        /* \"#utility.yul\":11828:11846   */\n      mload\n        /* \"#utility.yul\":11824:11825   */\n      dup2\n        /* \"#utility.yul\":11819:11822   */\n      dup5\n        /* \"#utility.yul\":11815:11826   */\n      add\n        /* \"#utility.yul\":11808:11847   */\n      mstore\n        /* \"#utility.yul\":11780:11782   */\n      0x20\n        /* \"#utility.yul\":11777:11778   */\n      dup2\n        /* \"#utility.yul\":11773:11783   */\n      add\n        /* \"#utility.yul\":11768:11783   */\n      swap1\n      pop\n        /* \"#utility.yul\":11744:11857   */\n      jump(tag_266)\n    tag_268:\n        /* \"#utility.yul\":11875:11881   */\n      dup4\n        /* \"#utility.yul\":11872:11873   */\n      dup2\n        /* \"#utility.yul\":11869:11882   */\n      gt\n        /* \"#utility.yul\":11866:11967   */\n      iszero\n      tag_269\n      jumpi\n        /* \"#utility.yul\":11955:11956   */\n      0x00\n        /* \"#utility.yul\":11946:11952   */\n      dup5\n        /* \"#utility.yul\":11941:11944   */\n      dup5\n        /* \"#utility.yul\":11937:11953   */\n      add\n        /* \"#utility.yul\":11930:11957   */\n      mstore\n        /* \"#utility.yul\":11866:11967   */\n    tag_269:\n        /* \"#utility.yul\":11715:11973   */\n      pop\n        /* \"#utility.yul\":11666:11973   */\n      pop\n      pop\n      pop\n      jump\t// out\n        /* \"#utility.yul\":11979:12057   */\n    tag_176:\n        /* \"#utility.yul\":12017:12024   */\n      0x00\n        /* \"#utility.yul\":12046:12051   */\n      dup2\n        /* \"#utility.yul\":12035:12051   */\n      swap1\n      pop\n        /* \"#utility.yul\":11979:12057   */\n      swap2\n      swap1\n      pop\n      jump\t// out\n        /* \"#utility.yul\":12063:12243   */\n    tag_255:\n        /* \"#utility.yul\":12111:12188   */\n      0x4e487b7100000000000000000000000000000000000000000000000000000000\n        /* \"#utility.yul\":12108:12109   */\n      0x00\n        /* \"#utility.yul\":12101:12189   */\n      mstore\n        /* \"#utility.yul\":12208:12212   */\n      0x11\n        /* \"#utility.yul\":12205:12206   */\n      0x04\n        /* \"#utility.yul\":12198:12213   */\n      mstore\n        /* \"#utility.yul\":12232:12236   */\n      0x24\n        /* \"#utility.yul\":12229:12230   */\n      0x00\n        /* \"#utility.yul\":12222:12237   */\n      revert\n        /* \"#utility.yul\":12249:12366   */\n    tag_125:\n        /* \"#utility.yul\":12358:12359   */\n      0x00\n        /* \"#utility.yul\":12355:12356   */\n      dup1\n        /* \"#utility.yul\":12348:12360   */\n      revert\n        /* \"#utility.yul\":12372:12489   */\n    tag_122:\n        /* \"#utility.yul\":12481:12482   */\n      0x00\n        /* \"#utility.yul\":12478:12479   */\n      dup1\n        /* \"#utility.yul\":12471:12483   */\n      revert\n        /* \"#utility.yul\":12495:12612   */\n    tag_128:\n        /* \"#utility.yul\":12604:12605   */\n      0x00\n        /* \"#utility.yul\":12601:12602   */\n      dup1\n        /* \"#utility.yul\":12594:12606   */\n      revert\n        /* \"#utility.yul\":12618:12735   */\n    tag_149:\n        /* \"#utility.yul\":12727:12728   */\n      0x00\n        /* \"#utility.yul\":12724:12725   */\n      dup1\n        /* \"#utility.yul\":12717:12729   */\n      revert\n        /* \"#utility.yul\":12741:12858   */\n    tag_144:\n        /* \"#utility.yul\":12850:12851   */\n      0x00\n        /* \"#utility.yul\":12847:12848   */\n      dup1\n        /* \"#utility.yul\":12840:12852   */\n      revert\n        /* \"#utility.yul\":12864:12966   */\n    tag_184:\n        /* \"#utility.yul\":12905:12911   */\n      0x00\n        /* \"#utility.yul\":12956:12958   */\n      0x1f\n        /* \"#utility.yul\":12952:12959   */\n      not\n        /* \"#utility.yul\":12947:12949   */\n      0x1f\n        /* \"#utility.yul\":12940:12945   */\n      dup4\n        /* \"#utility.yul\":12936:12950   */\n      add\n        /* \"#utility.yul\":12932:12960   */\n      and\n        /* \"#utility.yul\":12922:12960   */\n      swap1\n      pop\n        /* \"#utility.yul\":12864:12966   */\n      swap2\n      swap1\n      pop\n      jump\t// out\n        /* \"#utility.yul\":12972:13094   */\n    tag_113:\n        /* \"#utility.yul\":13045:13069   */\n      tag_279\n        /* \"#utility.yul\":13063:13068   */\n      dup2\n        /* \"#utility.yul\":13045:13069   */\n      tag_162\n      jump\t// in\n    tag_279:\n        /* \"#utility.yul\":13038:13043   */\n      dup2\n        /* \"#utility.yul\":13035:13070   */\n      eq\n        /* \"#utility.yul\":13025:13088   */\n      tag_280\n      jumpi\n        /* \"#utility.yul\":13084:13085   */\n      0x00\n        /* \"#utility.yul\":13081:13082   */\n      dup1\n        /* \"#utility.yul\":13074:13086   */\n      revert\n        /* \"#utility.yul\":13025:13088   */\n    tag_280:\n        /* \"#utility.yul\":12972:13094   */\n      pop\n      jump\t// out\n        /* \"#utility.yul\":13100:13222   */\n    tag_117:\n        /* \"#utility.yul\":13173:13197   */\n      tag_282\n        /* \"#utility.yul\":13191:13196   */\n      dup2\n        /* \"#utility.yul\":13173:13197   */\n      tag_170\n      jump\t// in\n    tag_282:\n        /* \"#utility.yul\":13166:13171   */\n      dup2\n        /* \"#utility.yul\":13163:13198   */\n      eq\n        /* \"#utility.yul\":13153:13216   */\n      tag_283\n      jumpi\n        /* \"#utility.yul\":13212:13213   */\n      0x00\n        /* \"#utility.yul\":13209:13210   */\n      dup1\n        /* \"#utility.yul\":13202:13214   */\n      revert\n        /* \"#utility.yul\":13153:13216   */\n    tag_283:\n        /* \"#utility.yul\":13100:13222   */\n      pop\n      jump\t// out\n        /* \"#utility.yul\":13228:13350   */\n    tag_140:\n        /* \"#utility.yul\":13301:13325   */\n      tag_285\n        /* \"#utility.yul\":13319:13324   */\n      dup2\n        /* \"#utility.yul\":13301:13325   */\n      tag_212\n      jump\t// in\n    tag_285:\n        /* \"#utility.yul\":13294:13299   */\n      dup2\n        /* \"#utility.yul\":13291:13326   */\n      eq\n        /* \"#utility.yul\":13281:13344   */\n      tag_286\n      jumpi\n        /* \"#utility.yul\":13340:13341   */\n      0x00\n        /* \"#utility.yul\":13337:13338   */\n      dup1\n        /* \"#utility.yul\":13330:13342   */\n      revert\n        /* \"#utility.yul\":13281:13344   */\n    tag_286:\n        /* \"#utility.yul\":13228:13350   */\n      pop\n      jump\t// out\n\n    auxdata: 0xa2646970667358221220001a27ee0b08520df8c5be5ff47b2f61f21f5c4a256139eab8762ce3a7f6bd9b64736f6c63430008070033\n}\n",
				"bytecode": {
					"linkReferences": {},
					"object": "608060405234801561001057600080fd5b50336000806101000a81548173ffffffffffffffffffffffffffffffffffffffff021916908373ffffffffffffffffffffffffffffffffffffffff1602179055506110a4806100606000396000f3fe60806040526004361061008a5760003560e01c80638da5cb5b116100595780638da5cb5b146101785780639f81aed7146101a3578063b0f8b142146101ce578063c1a287e2146101fe578063c4d252f51461022957610091565b8063228250c9146100965780634125ff90146100d35780634b9915a5146100fe5780638a1ce0b61461013b57610091565b3661009157005b600080fd5b3480156100a257600080fd5b506100bd60048036038101906100b89190610b42565b610252565b6040516100ca9190610d85565b60405180910390f35b3480156100df57600080fd5b506100e8610272565b6040516100f59190610ddd565b60405180910390f35b34801561010a57600080fd5b5061012560048036038101906101209190610a86565b610278565b6040516101329190610da0565b60405180910390f35b34801561014757600080fd5b50610162600480360381019061015d9190610a86565b61046d565b60405161016f9190610da0565b60405180910390f35b34801561018457600080fd5b5061018d6104af565b60405161019a9190610d05565b60405180910390f35b3480156101af57600080fd5b506101b86104d3565b6040516101c59190610ddd565b60405180910390f35b6101e860048036038101906101e39190610a86565b6104d8565b6040516101f59190610dbb565b60405180910390f35b34801561020a57600080fd5b50610213610852565b6040516102209190610ddd565b60405180910390f35b34801561023557600080fd5b50610250600480360381019061024b9190610b42565b610858565b005b60016020528060005260406000206000915054906101000a900460ff1681565b6103e881565b60008060009054906101000a900473ffffffffffffffffffffffffffffffffffffffff1673ffffffffffffffffffffffffffffffffffffffff163373ffffffffffffffffffffffffffffffffffffffff1614610300576040517f74a2152700000000000000000000000000000000000000000000000000000000815260040160405180910390fd5b61030f8888888888888861046d565b90506001600082815260200190815260200160002060009054906101000a900460ff161561037457806040517f995042be00000000000000000000000000000000000000000000000000000000815260040161036b9190610da0565b60405180910390fd5b600a426103819190610eb0565b82108061039a57506103e8426103979190610eb0565b82115b156103de5742826040517f1a9616c20000000000000000000000000000000000000000000000000000000081526004016103d5929190610e4f565b60405180910390fd5b600180600083815260200190815260200160002060006101000a81548160ff0219169083151502179055508773ffffffffffffffffffffffffffffffffffffffff16817f3c22f47140594040d205a5533cfedd86c9ab8622c39ead03affb2d97052c794c89898989898960405161045a96959493929190610df8565b60405180910390a3979650505050505050565b60008787878787878760405160200161048c9796959493929190610d20565b604051602081830303815290604052805190602001209050979650505050505050565b60008054906101000a900473ffffffffffffffffffffffffffffffffffffffff1681565b600a81565b606060008054906101000a900473ffffffffffffffffffffffffffffffffffffffff1673ffffffffffffffffffffffffffffffffffffffff163373ffffffffffffffffffffffffffffffffffffffff161461055f576040517f74a2152700000000000000000000000000000000000000000000000000000000815260040160405180910390fd5b60006105708989898989898961046d565b90506001600082815260200190815260200160002060009054906101000a900460ff166105d457806040517f0995c9d50000000000000000000000000000000000000000000000000000000081526004016105cb9190610da0565b60405180910390fd5b8242101561061b5742836040517f035fce5b000000000000000000000000000000000000000000000000000000008152600401610612929190610e4f565b60405180910390fd5b6103e8836106299190610eb0565b42111561067c57426103e88461063f9190610eb0565b6040517f92ae26d1000000000000000000000000000000000000000000000000000000008152600401610673929190610e4f565b60405180910390fd5b60006001600083815260200190815260200160002060006101000a81548160ff021916908315150217905550606060008888905011156106f85787876040516106c6929190610cd5565b604051809103902086866040516020016106e293929190610cab565b6040516020818303038152906040529050610740565b85858080601f016020809104026020016040519081016040528093929190818152602001838380828437600081840152601f19601f8201169050808301925050505050505090505b6000808b73ffffffffffffffffffffffffffffffffffffffff168b846040516107699190610cee565b60006040518083038185875af1925050503d80600081146107a6576040519150601f19603f3d011682016040523d82523d6000602084013e6107ab565b606091505b5091509150816107e7576040517fd9b4f81e00000000000000000000000000000000000000000000000000000000815260040160405180910390fd5b8b73ffffffffffffffffffffffffffffffffffffffff16847fd1d5c3c892c18716bd88852091d1b63dc6849e9d7c37f69d566884bf954d4bd98d8d8d8d8d8d60405161083896959493929190610df8565b60405180910390a380945050505050979650505050505050565b6103e881565b60008054906101000a900473ffffffffffffffffffffffffffffffffffffffff1673ffffffffffffffffffffffffffffffffffffffff163373ffffffffffffffffffffffffffffffffffffffff16146108dd576040517f74a2152700000000000000000000000000000000000000000000000000000000815260040160405180910390fd5b6001600082815260200190815260200160002060009054906101000a900460ff1661093f57806040517f0995c9d50000000000000000000000000000000000000000000000000000000081526004016109369190610da0565b60405180910390fd5b60006001600083815260200190815260200160002060006101000a81548160ff021916908315150217905550807fe8d9861dbc9c663ed3accd261bbe2fe01e0d3d9e5f51fa38523b265c7757a93a60405160405180910390a250565b6000813590506109aa81611029565b92915050565b6000813590506109bf81611040565b92915050565b60008083601f8401126109db576109da611004565b5b8235905067ffffffffffffffff8111156109f8576109f7610fff565b5b602083019150836001820283011115610a1457610a13611009565b5b9250929050565b60008083601f840112610a3157610a30611004565b5b8235905067ffffffffffffffff811115610a4e57610a4d610fff565b5b602083019150836001820283011115610a6a57610a69611009565b5b9250929050565b600081359050610a8081611057565b92915050565b600080600080600080600060a0888a031215610aa557610aa4611013565b5b6000610ab38a828b0161099b565b9750506020610ac48a828b01610a71565b965050604088013567ffffffffffffffff811115610ae557610ae461100e565b5b610af18a828b01610a1b565b9550955050606088013567ffffffffffffffff811115610b1457610b1361100e565b5b610b208a828b016109c5565b93509350506080610b338a828b01610a71565b91505092959891949750929550565b600060208284031215610b5857610b57611013565b5b6000610b66848285016109b0565b91505092915050565b610b7881610f06565b82525050565b610b8781610f18565b82525050565b610b9681610f24565b82525050565b610bad610ba882610f2e565b610fc6565b82525050565b6000610bbf8385610e83565b9350610bcc838584610f84565b610bd583611018565b840190509392505050565b6000610bec8385610e94565b9350610bf9838584610f84565b82840190509392505050565b6000610c1082610e78565b610c1a8185610e83565b9350610c2a818560208601610f93565b610c3381611018565b840191505092915050565b6000610c4982610e78565b610c538185610e94565b9350610c63818560208601610f93565b80840191505092915050565b6000610c7b8385610e9f565b9350610c88838584610f84565b610c9183611018565b840190509392505050565b610ca581610f7a565b82525050565b6000610cb78286610b9c565b600482019150610cc8828486610be0565b9150819050949350505050565b6000610ce2828486610be0565b91508190509392505050565b6000610cfa8284610c3e565b915081905092915050565b6000602082019050610d1a6000830184610b6f565b92915050565b600060a082019050610d35600083018a610b6f565b610d426020830189610c9c565b8181036040830152610d55818789610c6f565b90508181036060830152610d6a818587610bb3565b9050610d796080830184610c9c565b98975050505050505050565b6000602082019050610d9a6000830184610b7e565b92915050565b6000602082019050610db56000830184610b8d565b92915050565b60006020820190508181036000830152610dd58184610c05565b905092915050565b6000602082019050610df26000830184610c9c565b92915050565b6000608082019050610e0d6000830189610c9c565b8181036020830152610e20818789610c6f565b90508181036040830152610e35818587610bb3565b9050610e446060830184610c9c565b979650505050505050565b6000604082019050610e646000830185610c9c565b610e716020830184610c9c565b9392505050565b600081519050919050565b600082825260208201905092915050565b600081905092915050565b600082825260208201905092915050565b6000610ebb82610f7a565b9150610ec683610f7a565b9250827fffffffffffffffffffffffffffffffffffffffffffffffffffffffffffffffff03821115610efb57610efa610fd0565b5b828201905092915050565b6000610f1182610f5a565b9050919050565b60008115159050919050565b6000819050919050565b60007fffffffff0000000000000000000000000000000000000000000000000000000082169050919050565b600073ffffffffffffffffffffffffffffffffffffffff82169050919050565b6000819050919050565b82818337600083830152505050565b60005b83811015610fb1578082015181840152602081019050610f96565b83811115610fc0576000848401525b50505050565b6000819050919050565b7f4e487b7100000000000000000000000000000000000000000000000000000000600052601160045260246000fd5b600080fd5b600080fd5b600080fd5b600080fd5b600080fd5b6000601f19601f8301169050919050565b61103281610f06565b811461103d57600080fd5b50565b61104981610f24565b811461105457600080fd5b50565b61106081610f7a565b811461106b57600080fd5b5056fea2646970667358221220001a27ee0b08520df8c5be5ff47b2f61f21f5c4a256139eab8762ce3a7f6bd9b64736f6c63430008070033",
					"opcodes": "PUSH1 0x80 PUSH1 0x40 MSTORE CALLVALUE DUP1 ISZERO PUSH2 0x10 JUMPI PUSH1 0x0 DUP1 REVERT JUMPDEST POP CALLER PUSH1 0x0 DUP1 PUSH2 0x100 EXP DUP2 SLOAD DUP2 PUSH20 0xFFFFFFFFFFFFFFFFFFFFFFFFFFFFFFFFFFFFFFFF MUL NOT AND SWAP1 DUP4 PUSH20 0xFFFFFFFFFFFFFFFFFFFFFFFFFFFFFFFFFFFFFFFF AND MUL OR SWAP1 SSTORE POP PUSH2 0x10A4 DUP1 PUSH2 0x60 PUSH1 0x0 CODECOPY PUSH1 0x0 RETURN INVALID PUSH1 0x80 PUSH1 0x40 MSTORE PUSH1 0x4 CALLDATASIZE LT PUSH2 0x8A JUMPI PUSH1 0x0 CALLDATALOAD PUSH1 0xE0 SHR DUP1 PUSH4 0x8DA5CB5B GT PUSH2 0x59 JUMPI DUP1 PUSH4 0x8DA5CB5B EQ PUSH2 0x178 JUMPI DUP1 PUSH4 0x9F81AED7 EQ PUSH2 0x1A3 JUMPI DUP1 PUSH4 0xB0F8B142 EQ PUSH2 0x1CE JUMPI DUP1 PUSH4 0xC1A287E2 EQ PUSH2 0x1FE JUMPI DUP1 PUSH4 0xC4D252F5 EQ PUSH2 0x229 JUMPI PUSH2 0x91 JUMP JUMPDEST DUP1 PUSH4 0x228250C9 EQ PUSH2 0x96 JUMPI DUP1 PUSH4 0x4125FF90 EQ PUSH2 0xD3 JUMPI DUP1 PUSH4 0x4B9915A5 EQ PUSH2 0xFE JUMPI DUP1 PUSH4 0x8A1CE0B6 EQ PUSH2 0x13B JUMPI PUSH2 0x91 JUMP JUMPDEST CALLDATASIZE PUSH2 0x91 JUMPI STOP JUMPDEST PUSH1 0x0 DUP1 REVERT JUMPDEST CALLVALUE DUP1 ISZERO PUSH2 0xA2 JUMPI PUSH1 0x0 DUP1 REVERT JUMPDEST POP PUSH2 0xBD PUSH1 0x4 DUP1 CALLDATASIZE SUB DUP2 ADD SWAP1 PUSH2 0xB8 SWAP2 SWAP1 PUSH2 0xB42 JUMP JUMPDEST PUSH2 0x252 JUMP JUMPDEST PUSH1 0x40 MLOAD PUSH2 0xCA SWAP2 SWAP1 PUSH2 0xD85 JUMP JUMPDEST PUSH1 0x40 MLOAD DUP1 SWAP2 SUB SWAP1 RETURN JUMPDEST CALLVALUE DUP1 ISZERO PUSH2 0xDF JUMPI PUSH1 0x0 DUP1 REVERT JUMPDEST POP PUSH2 0xE8 PUSH2 0x272 JUMP JUMPDEST PUSH1 0x40 MLOAD PUSH2 0xF5 SWAP2 SWAP1 PUSH2 0xDDD JUMP JUMPDEST PUSH1 0x40 MLOAD DUP1 SWAP2 SUB SWAP1 RETURN JUMPDEST CALLVALUE DUP1 ISZERO PUSH2 0x10A JUMPI PUSH1 0x0 DUP1 REVERT JUMPDEST POP PUSH2 0x125 PUSH1 0x4 DUP1 CALLDATASIZE SUB DUP2 ADD SWAP1 PUSH2 0x120 SWAP2 SWAP1 PUSH2 0xA86 JUMP JUMPDEST PUSH2 0x278 JUMP JUMPDEST PUSH1 0x40 MLOAD PUSH2 0x132 SWAP2 SWAP1 PUSH2 0xDA0 JUMP JUMPDEST PUSH1 0x40 MLOAD DUP1 SWAP2 SUB SWAP1 RETURN JUMPDEST CALLVALUE DUP1 ISZERO PUSH2 0x147 JUMPI PUSH1 0x0 DUP1 REVERT JUMPDEST POP PUSH2 0x162 PUSH1 0x4 DUP1 CALLDATASIZE SUB DUP2 ADD SWAP1 PUSH2 0x15D SWAP2 SWAP1 PUSH2 0xA86 JUMP JUMPDEST PUSH2 0x46D JUMP JUMPDEST PUSH1 0x40 MLOAD PUSH2 0x16F SWAP2 SWAP1 PUSH2 0xDA0 JUMP JUMPDEST PUSH1 0x40 MLOAD DUP1 SWAP2 SUB SWAP1 RETURN JUMPDEST CALLVALUE DUP1 ISZERO PUSH2 0x184 JUMPI PUSH1 0x0 DUP1 REVERT JUMPDEST POP PUSH2 0x18D PUSH2 0x4AF JUMP JUMPDEST PUSH1 0x40 MLOAD PUSH2 0x19A SWAP2 SWAP1 PUSH2 0xD05 JUMP JUMPDEST PUSH1 0x40 MLOAD DUP1 SWAP2 SUB SWAP1 RETURN JUMPDEST CALLVALUE DUP1 ISZERO PUSH2 0x1AF JUMPI PUSH1 0x0 DUP1 REVERT JUMPDEST POP PUSH2 0x1B8 PUSH2 0x4D3 JUMP JUMPDEST PUSH1 0x40 MLOAD PUSH2 0x1C5 SWAP2 SWAP1 PUSH2 0xDDD JUMP JUMPDEST PUSH1 0x40 MLOAD DUP1 SWAP2 SUB SWAP1 RETURN JUMPDEST PUSH2 0x1E8 PUSH1 0x4 DUP1 CALLDATASIZE SUB DUP2 ADD SWAP1 PUSH2 0x1E3 SWAP2 SWAP1 PUSH2 0xA86 JUMP JUMPDEST PUSH2 0x4D8 JUMP JUMPDEST PUSH1 0x40 MLOAD PUSH2 0x1F5 SWAP2 SWAP1 PUSH2 0xDBB JUMP JUMPDEST PUSH1 0x40 MLOAD DUP1 SWAP2 SUB SWAP1 RETURN JUMPDEST CALLVALUE DUP1 ISZERO PUSH2 0x20A JUMPI PUSH1 0x0 DUP1 REVERT JUMPDEST POP PUSH2 0x213 PUSH2 0x852 JUMP JUMPDEST PUSH1 0x40 MLOAD PUSH2 0x220 SWAP2 SWAP1 PUSH2 0xDDD JUMP JUMPDEST PUSH1 0x40 MLOAD DUP1 SWAP2 SUB SWAP1 RETURN JUMPDEST CALLVALUE DUP1 ISZERO PUSH2 0x235 JUMPI PUSH1 0x0 DUP1 REVERT JUMPDEST POP PUSH2 0x250 PUSH1 0x4 DUP1 CALLDATASIZE SUB DUP2 ADD SWAP1 PUSH2 0x24B SWAP2 SWAP1 PUSH2 0xB42 JUMP JUMPDEST PUSH2 0x858 JUMP JUMPDEST STOP JUMPDEST PUSH1 0x1 PUSH1 0x20 MSTORE DUP1 PUSH1 0x0 MSTORE PUSH1 0x40 PUSH1 0x0 KECCAK256 PUSH1 0x0 SWAP2 POP SLOAD SWAP1 PUSH2 0x100 EXP SWAP1 DIV PUSH1 0xFF AND DUP2 JUMP JUMPDEST PUSH2 0x3E8 DUP2 JUMP JUMPDEST PUSH1 0x0 DUP1 PUSH1 0x0 SWAP1 SLOAD SWAP1 PUSH2 0x100 EXP SWAP1 DIV PUSH20 0xFFFFFFFFFFFFFFFFFFFFFFFFFFFFFFFFFFFFFFFF AND PUSH20 0xFFFFFFFFFFFFFFFFFFFFFFFFFFFFFFFFFFFFFFFF AND CALLER PUSH20 0xFFFFFFFFFFFFFFFFFFFFFFFFFFFFFFFFFFFFFFFF AND EQ PUSH2 0x300 JUMPI PUSH1 0x40 MLOAD PUSH32 0x74A2152700000000000000000000000000000000000000000000000000000000 DUP2 MSTORE PUSH1 0x4 ADD PUSH1 0x40 MLOAD DUP1 SWAP2 SUB SWAP1 REVERT JUMPDEST PUSH2 0x30F DUP9 DUP9 DUP9 DUP9 DUP9 DUP9 DUP9 PUSH2 0x46D JUMP JUMPDEST SWAP1 POP PUSH1 0x1 PUSH1 0x0 DUP3 DUP2 MSTORE PUSH1 0x20 ADD SWAP1 DUP2 MSTORE PUSH1 0x20 ADD PUSH1 0x0 KECCAK256 PUSH1 0x0 SWAP1 SLOAD SWAP1 PUSH2 0x100 EXP SWAP1 DIV PUSH1 0xFF AND ISZERO PUSH2 0x374 JUMPI DUP1 PUSH1 0x40 MLOAD PUSH32 0x995042BE00000000000000000000000000000000000000000000000000000000 DUP2 MSTORE PUSH1 0x4 ADD PUSH2 0x36B SWAP2 SWAP1 PUSH2 0xDA0 JUMP JUMPDEST PUSH1 0x40 MLOAD DUP1 SWAP2 SUB SWAP1 REVERT JUMPDEST PUSH1 0xA TIMESTAMP PUSH2 0x381 SWAP2 SWAP1 PUSH2 0xEB0 JUMP JUMPDEST DUP3 LT DUP1 PUSH2 0x39A JUMPI POP PUSH2 0x3E8 TIMESTAMP PUSH2 0x397 SWAP2 SWAP1 PUSH2 0xEB0 JUMP JUMPDEST DUP3 GT JUMPDEST ISZERO PUSH2 0x3DE JUMPI TIMESTAMP DUP3 PUSH1 0x40 MLOAD PUSH32 0x1A9616C200000000000000000000000000000000000000000000000000000000 DUP2 MSTORE PUSH1 0x4 ADD PUSH2 0x3D5 SWAP3 SWAP2 SWAP1 PUSH2 0xE4F JUMP JUMPDEST PUSH1 0x40 MLOAD DUP1 SWAP2 SUB SWAP1 REVERT JUMPDEST PUSH1 0x1 DUP1 PUSH1 0x0 DUP4 DUP2 MSTORE PUSH1 0x20 ADD SWAP1 DUP2 MSTORE PUSH1 0x20 ADD PUSH1 0x0 KECCAK256 PUSH1 0x0 PUSH2 0x100 EXP DUP2 SLOAD DUP2 PUSH1 0xFF MUL NOT AND SWAP1 DUP4 ISZERO ISZERO MUL OR SWAP1 SSTORE POP DUP8 PUSH20 0xFFFFFFFFFFFFFFFFFFFFFFFFFFFFFFFFFFFFFFFF AND DUP2 PUSH32 0x3C22F47140594040D205A5533CFEDD86C9AB8622C39EAD03AFFB2D97052C794C DUP10 DUP10 DUP10 DUP10 DUP10 DUP10 PUSH1 0x40 MLOAD PUSH2 0x45A SWAP7 SWAP6 SWAP5 SWAP4 SWAP3 SWAP2 SWAP1 PUSH2 0xDF8 JUMP JUMPDEST PUSH1 0x40 MLOAD DUP1 SWAP2 SUB SWAP1 LOG3 SWAP8 SWAP7 POP POP POP POP POP POP POP JUMP JUMPDEST PUSH1 0x0 DUP8 DUP8 DUP8 DUP8 DUP8 DUP8 DUP8 PUSH1 0x40 MLOAD PUSH1 0x20 ADD PUSH2 0x48C SWAP8 SWAP7 SWAP6 SWAP5 SWAP4 SWAP3 SWAP2 SWAP1 PUSH2 0xD20 JUMP JUMPDEST PUSH1 0x40 MLOAD PUSH1 0x20 DUP2 DUP4 SUB SUB DUP2 MSTORE SWAP1 PUSH1 0x40 MSTORE DUP1 MLOAD SWAP1 PUSH1 0x20 ADD KECCAK256 SWAP1 POP SWAP8 SWAP7 POP POP POP POP POP POP POP JUMP JUMPDEST PUSH1 0x0 DUP1 SLOAD SWAP1 PUSH2 0x100 EXP SWAP1 DIV PUSH20 0xFFFFFFFFFFFFFFFFFFFFFFFFFFFFFFFFFFFFFFFF AND DUP2 JUMP JUMPDEST PUSH1 0xA DUP2 JUMP JUMPDEST PUSH1 0x60 PUSH1 0x0 DUP1 SLOAD SWAP1 PUSH2 0x100 EXP SWAP1 DIV PUSH20 0xFFFFFFFFFFFFFFFFFFFFFFFFFFFFFFFFFFFFFFFF AND PUSH20 0xFFFFFFFFFFFFFFFFFFFFFFFFFFFFFFFFFFFFFFFF AND CALLER PUSH20 0xFFFFFFFFFFFFFFFFFFFFFFFFFFFFFFFFFFFFFFFF AND EQ PUSH2 0x55F JUMPI PUSH1 0x40 MLOAD PUSH32 0x74A2152700000000000000000000000000000000000000000000000000000000 DUP2 MSTORE PUSH1 0x4 ADD PUSH1 0x40 MLOAD DUP1 SWAP2 SUB SWAP1 REVERT JUMPDEST PUSH1 0x0 PUSH2 0x570 DUP10 DUP10 DUP10 DUP10 DUP10 DUP10 DUP10 PUSH2 0x46D JUMP JUMPDEST SWAP1 POP PUSH1 0x1 PUSH1 0x0 DUP3 DUP2 MSTORE PUSH1 0x20 ADD SWAP1 DUP2 MSTORE PUSH1 0x20 ADD PUSH1 0x0 KECCAK256 PUSH1 0x0 SWAP1 SLOAD SWAP1 PUSH2 0x100 EXP SWAP1 DIV PUSH1 0xFF AND PUSH2 0x5D4 JUMPI DUP1 PUSH1 0x40 MLOAD PUSH32 0x995C9D500000000000000000000000000000000000000000000000000000000 DUP2 MSTORE PUSH1 0x4 ADD PUSH2 0x5CB SWAP2 SWAP1 PUSH2 0xDA0 JUMP JUMPDEST PUSH1 0x40 MLOAD DUP1 SWAP2 SUB SWAP1 REVERT JUMPDEST DUP3 TIMESTAMP LT ISZERO PUSH2 0x61B JUMPI TIMESTAMP DUP4 PUSH1 0x40 MLOAD PUSH32 0x35FCE5B00000000000000000000000000000000000000000000000000000000 DUP2 MSTORE PUSH1 0x4 ADD PUSH2 0x612 SWAP3 SWAP2 SWAP1 PUSH2 0xE4F JUMP JUMPDEST PUSH1 0x40 MLOAD DUP1 SWAP2 SUB SWAP1 REVERT JUMPDEST PUSH2 0x3E8 DUP4 PUSH2 0x629 SWAP2 SWAP1 PUSH2 0xEB0 JUMP JUMPDEST TIMESTAMP GT ISZERO PUSH2 0x67C JUMPI TIMESTAMP PUSH2 0x3E8 DUP5 PUSH2 0x63F SWAP2 SWAP1 PUSH2 0xEB0 JUMP JUMPDEST PUSH1 0x40 MLOAD PUSH32 0x92AE26D100000000000000000000000000000000000000000000000000000000 DUP2 MSTORE PUSH1 0x4 ADD PUSH2 0x673 SWAP3 SWAP2 SWAP1 PUSH2 0xE4F JUMP JUMPDEST PUSH1 0x40 MLOAD DUP1 SWAP2 SUB SWAP1 REVERT JUMPDEST PUSH1 0x0 PUSH1 0x1 PUSH1 0x0 DUP4 DUP2 MSTORE PUSH1 0x20 ADD SWAP1 DUP2 MSTORE PUSH1 0x20 ADD PUSH1 0x0 KECCAK256 PUSH1 0x0 PUSH2 0x100 EXP DUP2 SLOAD DUP2 PUSH1 0xFF MUL NOT AND SWAP1 DUP4 ISZERO ISZERO MUL OR SWAP1 SSTORE POP PUSH1 0x60 PUSH1 0x0 DUP9 DUP9 SWAP1 POP GT ISZERO PUSH2 0x6F8 JUMPI DUP8 DUP8 PUSH1 0x40 MLOAD PUSH2 0x6C6 SWAP3 SWAP2 SWAP1 PUSH2 0xCD5 JUMP JUMPDEST PUSH1 0x40 MLOAD DUP1 SWAP2 SUB SWAP1 KECCAK256 DUP7 DUP7 PUSH1 0x40 MLOAD PUSH1 0x20 ADD PUSH2 0x6E2 SWAP4 SWAP3 SWAP2 SWAP1 PUSH2 0xCAB JUMP JUMPDEST PUSH1 0x40 MLOAD PUSH1 0x20 DUP2 DUP4 SUB SUB DUP2 MSTORE SWAP1 PUSH1 0x40 MSTORE SWAP1 POP PUSH2 0x740 JUMP JUMPDEST DUP6 DUP6 DUP1 DUP1 PUSH1 0x1F ADD PUSH1 0x20 DUP1 SWAP2 DIV MUL PUSH1 0x20 ADD PUSH1 0x40 MLOAD SWAP1 DUP2 ADD PUSH1 0x40 MSTORE DUP1 SWAP4 SWAP3 SWAP2 SWAP1 DUP2 DUP2 MSTORE PUSH1 0x20 ADD DUP4 DUP4 DUP1 DUP3 DUP5 CALLDATACOPY PUSH1 0x0 DUP2 DUP5 ADD MSTORE PUSH1 0x1F NOT PUSH1 0x1F DUP3 ADD AND SWAP1 POP DUP1 DUP4 ADD SWAP3 POP POP POP POP POP POP POP SWAP1 POP JUMPDEST PUSH1 0x0 DUP1 DUP12 PUSH20 0xFFFFFFFFFFFFFFFFFFFFFFFFFFFFFFFFFFFFFFFF AND DUP12 DUP5 PUSH1 0x40 MLOAD PUSH2 0x769 SWAP2 SWAP1 PUSH2 0xCEE JUMP JUMPDEST PUSH1 0x0 PUSH1 0x40 MLOAD DUP1 DUP4 SUB DUP2 DUP6 DUP8 GAS CALL SWAP3 POP POP POP RETURNDATASIZE DUP1 PUSH1 0x0 DUP2 EQ PUSH2 0x7A6 JUMPI PUSH1 0x40 MLOAD SWAP2 POP PUSH1 0x1F NOT PUSH1 0x3F RETURNDATASIZE ADD AND DUP3 ADD PUSH1 0x40 MSTORE RETURNDATASIZE DUP3 MSTORE RETURNDATASIZE PUSH1 0x0 PUSH1 0x20 DUP5 ADD RETURNDATACOPY PUSH2 0x7AB JUMP JUMPDEST PUSH1 0x60 SWAP2 POP JUMPDEST POP SWAP2 POP SWAP2 POP DUP2 PUSH2 0x7E7 JUMPI PUSH1 0x40 MLOAD PUSH32 0xD9B4F81E00000000000000000000000000000000000000000000000000000000 DUP2 MSTORE PUSH1 0x4 ADD PUSH1 0x40 MLOAD DUP1 SWAP2 SUB SWAP1 REVERT JUMPDEST DUP12 PUSH20 0xFFFFFFFFFFFFFFFFFFFFFFFFFFFFFFFFFFFFFFFF AND DUP5 PUSH32 0xD1D5C3C892C18716BD88852091D1B63DC6849E9D7C37F69D566884BF954D4BD9 DUP14 DUP14 DUP14 DUP14 DUP14 DUP14 PUSH1 0x40 MLOAD PUSH2 0x838 SWAP7 SWAP6 SWAP5 SWAP4 SWAP3 SWAP2 SWAP1 PUSH2 0xDF8 JUMP JUMPDEST PUSH1 0x40 MLOAD DUP1 SWAP2 SUB SWAP1 LOG3 DUP1 SWAP5 POP POP POP POP POP SWAP8 SWAP7 POP POP POP POP POP POP POP JUMP JUMPDEST PUSH2 0x3E8 DUP2 JUMP JUMPDEST PUSH1 0x0 DUP1 SLOAD SWAP1 PUSH2 0x100 EXP SWAP1 DIV PUSH20 0xFFFFFFFFFFFFFFFFFFFFFFFFFFFFFFFFFFFFFFFF AND PUSH20 0xFFFFFFFFFFFFFFFFFFFFFFFFFFFFFFFFFFFFFFFF AND CALLER PUSH20 0xFFFFFFFFFFFFFFFFFFFFFFFFFFFFFFFFFFFFFFFF AND EQ PUSH2 0x8DD JUMPI PUSH1 0x40 MLOAD PUSH32 0x74A2152700000000000000000000000000000000000000000000000000000000 DUP2 MSTORE PUSH1 0x4 ADD PUSH1 0x40 MLOAD DUP1 SWAP2 SUB SWAP1 REVERT JUMPDEST PUSH1 0x1 PUSH1 0x0 DUP3 DUP2 MSTORE PUSH1 0x20 ADD SWAP1 DUP2 MSTORE PUSH1 0x20 ADD PUSH1 0x0 KECCAK256 PUSH1 0x0 SWAP1 SLOAD SWAP1 PUSH2 0x100 EXP SWAP1 DIV PUSH1 0xFF AND PUSH2 0x93F JUMPI DUP1 PUSH1 0x40 MLOAD PUSH32 0x995C9D500000000000000000000000000000000000000000000000000000000 DUP2 MSTORE PUSH1 0x4 ADD PUSH2 0x936 SWAP2 SWAP1 PUSH2 0xDA0 JUMP JUMPDEST PUSH1 0x40 MLOAD DUP1 SWAP2 SUB SWAP1 REVERT JUMPDEST PUSH1 0x0 PUSH1 0x1 PUSH1 0x0 DUP4 DUP2 MSTORE PUSH1 0x20 ADD SWAP1 DUP2 MSTORE PUSH1 0x20 ADD PUSH1 0x0 KECCAK256 PUSH1 0x0 PUSH2 0x100 EXP DUP2 SLOAD DUP2 PUSH1 0xFF MUL NOT AND SWAP1 DUP4 ISZERO ISZERO MUL OR SWAP1 SSTORE POP DUP1 PUSH32 0xE8D9861DBC9C663ED3ACCD261BBE2FE01E0D3D9E5F51FA38523B265C7757A93A PUSH1 0x40 MLOAD PUSH1 0x40 MLOAD DUP1 SWAP2 SUB SWAP1 LOG2 POP JUMP JUMPDEST PUSH1 0x0 DUP2 CALLDATALOAD SWAP1 POP PUSH2 0x9AA DUP2 PUSH2 0x1029 JUMP JUMPDEST SWAP3 SWAP2 POP POP JUMP JUMPDEST PUSH1 0x0 DUP2 CALLDATALOAD SWAP1 POP PUSH2 0x9BF DUP2 PUSH2 0x1040 JUMP JUMPDEST SWAP3 SWAP2 POP POP JUMP JUMPDEST PUSH1 0x0 DUP1 DUP4 PUSH1 0x1F DUP5 ADD SLT PUSH2 0x9DB JUMPI PUSH2 0x9DA PUSH2 0x1004 JUMP JUMPDEST JUMPDEST DUP3 CALLDATALOAD SWAP1 POP PUSH8 0xFFFFFFFFFFFFFFFF DUP2 GT ISZERO PUSH2 0x9F8 JUMPI PUSH2 0x9F7 PUSH2 0xFFF JUMP JUMPDEST JUMPDEST PUSH1 0x20 DUP4 ADD SWAP2 POP DUP4 PUSH1 0x1 DUP3 MUL DUP4 ADD GT ISZERO PUSH2 0xA14 JUMPI PUSH2 0xA13 PUSH2 0x1009 JUMP JUMPDEST JUMPDEST SWAP3 POP SWAP3 SWAP1 POP JUMP JUMPDEST PUSH1 0x0 DUP1 DUP4 PUSH1 0x1F DUP5 ADD SLT PUSH2 0xA31 JUMPI PUSH2 0xA30 PUSH2 0x1004 JUMP JUMPDEST JUMPDEST DUP3 CALLDATALOAD SWAP1 POP PUSH8 0xFFFFFFFFFFFFFFFF DUP2 GT ISZERO PUSH2 0xA4E JUMPI PUSH2 0xA4D PUSH2 0xFFF JUMP JUMPDEST JUMPDEST PUSH1 0x20 DUP4 ADD SWAP2 POP DUP4 PUSH1 0x1 DUP3 MUL DUP4 ADD GT ISZERO PUSH2 0xA6A JUMPI PUSH2 0xA69 PUSH2 0x1009 JUMP JUMPDEST JUMPDEST SWAP3 POP SWAP3 SWAP1 POP JUMP JUMPDEST PUSH1 0x0 DUP2 CALLDATALOAD SWAP1 POP PUSH2 0xA80 DUP2 PUSH2 0x1057 JUMP JUMPDEST SWAP3 SWAP2 POP POP JUMP JUMPDEST PUSH1 0x0 DUP1 PUSH1 0x0 DUP1 PUSH1 0x0 DUP1 PUSH1 0x0 PUSH1 0xA0 DUP9 DUP11 SUB SLT ISZERO PUSH2 0xAA5 JUMPI PUSH2 0xAA4 PUSH2 0x1013 JUMP JUMPDEST JUMPDEST PUSH1 0x0 PUSH2 0xAB3 DUP11 DUP3 DUP12 ADD PUSH2 0x99B JUMP JUMPDEST SWAP8 POP POP PUSH1 0x20 PUSH2 0xAC4 DUP11 DUP3 DUP12 ADD PUSH2 0xA71 JUMP JUMPDEST SWAP7 POP POP PUSH1 0x40 DUP9 ADD CALLDATALOAD PUSH8 0xFFFFFFFFFFFFFFFF DUP2 GT ISZERO PUSH2 0xAE5 JUMPI PUSH2 0xAE4 PUSH2 0x100E JUMP JUMPDEST JUMPDEST PUSH2 0xAF1 DUP11 DUP3 DUP12 ADD PUSH2 0xA1B JUMP JUMPDEST SWAP6 POP SWAP6 POP POP PUSH1 0x60 DUP9 ADD CALLDATALOAD PUSH8 0xFFFFFFFFFFFFFFFF DUP2 GT ISZERO PUSH2 0xB14 JUMPI PUSH2 0xB13 PUSH2 0x100E JUMP JUMPDEST JUMPDEST PUSH2 0xB20 DUP11 DUP3 DUP12 ADD PUSH2 0x9C5 JUMP JUMPDEST SWAP4 POP SWAP4 POP POP PUSH1 0x80 PUSH2 0xB33 DUP11 DUP3 DUP12 ADD PUSH2 0xA71 JUMP JUMPDEST SWAP2 POP POP SWAP3 SWAP6 SWAP9 SWAP2 SWAP5 SWAP8 POP SWAP3 SWAP6 POP JUMP JUMPDEST PUSH1 0x0 PUSH1 0x20 DUP3 DUP5 SUB SLT ISZERO PUSH2 0xB58 JUMPI PUSH2 0xB57 PUSH2 0x1013 JUMP JUMPDEST JUMPDEST PUSH1 0x0 PUSH2 0xB66 DUP5 DUP3 DUP6 ADD PUSH2 0x9B0 JUMP JUMPDEST SWAP2 POP POP SWAP3 SWAP2 POP POP JUMP JUMPDEST PUSH2 0xB78 DUP2 PUSH2 0xF06 JUMP JUMPDEST DUP3 MSTORE POP POP JUMP JUMPDEST PUSH2 0xB87 DUP2 PUSH2 0xF18 JUMP JUMPDEST DUP3 MSTORE POP POP JUMP JUMPDEST PUSH2 0xB96 DUP2 PUSH2 0xF24 JUMP JUMPDEST DUP3 MSTORE POP POP JUMP JUMPDEST PUSH2 0xBAD PUSH2 0xBA8 DUP3 PUSH2 0xF2E JUMP JUMPDEST PUSH2 0xFC6 JUMP JUMPDEST DUP3 MSTORE POP POP JUMP JUMPDEST PUSH1 0x0 PUSH2 0xBBF DUP4 DUP6 PUSH2 0xE83 JUMP JUMPDEST SWAP4 POP PUSH2 0xBCC DUP4 DUP6 DUP5 PUSH2 0xF84 JUMP JUMPDEST PUSH2 0xBD5 DUP4 PUSH2 0x1018 JUMP JUMPDEST DUP5 ADD SWAP1 POP SWAP4 SWAP3 POP POP POP JUMP JUMPDEST PUSH1 0x0 PUSH2 0xBEC DUP4 DUP6 PUSH2 0xE94 JUMP JUMPDEST SWAP4 POP PUSH2 0xBF9 DUP4 DUP6 DUP5 PUSH2 0xF84 JUMP JUMPDEST DUP3 DUP5 ADD SWAP1 POP SWAP4 SWAP3 POP POP POP JUMP JUMPDEST PUSH1 0x0 PUSH2 0xC10 DUP3 PUSH2 0xE78 JUMP JUMPDEST PUSH2 0xC1A DUP2 DUP6 PUSH2 0xE83 JUMP JUMPDEST SWAP4 POP PUSH2 0xC2A DUP2 DUP6 PUSH1 0x20 DUP7 ADD PUSH2 0xF93 JUMP JUMPDEST PUSH2 0xC33 DUP2 PUSH2 0x1018 JUMP JUMPDEST DUP5 ADD SWAP2 POP POP SWAP3 SWAP2 POP POP JUMP JUMPDEST PUSH1 0x0 PUSH2 0xC49 DUP3 PUSH2 0xE78 JUMP JUMPDEST PUSH2 0xC53 DUP2 DUP6 PUSH2 0xE94 JUMP JUMPDEST SWAP4 POP PUSH2 0xC63 DUP2 DUP6 PUSH1 0x20 DUP7 ADD PUSH2 0xF93 JUMP JUMPDEST DUP1 DUP5 ADD SWAP2 POP POP SWAP3 SWAP2 POP POP JUMP JUMPDEST PUSH1 0x0 PUSH2 0xC7B DUP4 DUP6 PUSH2 0xE9F JUMP JUMPDEST SWAP4 POP PUSH2 0xC88 DUP4 DUP6 DUP5 PUSH2 0xF84 JUMP JUMPDEST PUSH2 0xC91 DUP4 PUSH2 0x1018 JUMP JUMPDEST DUP5 ADD SWAP1 POP SWAP4 SWAP3 POP POP POP JUMP JUMPDEST PUSH2 0xCA5 DUP2 PUSH2 0xF7A JUMP JUMPDEST DUP3 MSTORE POP POP JUMP JUMPDEST PUSH1 0x0 PUSH2 0xCB7 DUP3 DUP7 PUSH2 0xB9C JUMP JUMPDEST PUSH1 0x4 DUP3 ADD SWAP2 POP PUSH2 0xCC8 DUP3 DUP5 DUP7 PUSH2 0xBE0 JUMP JUMPDEST SWAP2 POP DUP2 SWAP1 POP SWAP5 SWAP4 POP POP POP POP JUMP JUMPDEST PUSH1 0x0 PUSH2 0xCE2 DUP3 DUP5 DUP7 PUSH2 0xBE0 JUMP JUMPDEST SWAP2 POP DUP2 SWAP1 POP SWAP4 SWAP3 POP POP POP JUMP JUMPDEST PUSH1 0x0 PUSH2 0xCFA DUP3 DUP5 PUSH2 0xC3E JUMP JUMPDEST SWAP2 POP DUP2 SWAP1 POP SWAP3 SWAP2 POP POP JUMP JUMPDEST PUSH1 0x0 PUSH1 0x20 DUP3 ADD SWAP1 POP PUSH2 0xD1A PUSH1 0x0 DUP4 ADD DUP5 PUSH2 0xB6F JUMP JUMPDEST SWAP3 SWAP2 POP POP JUMP JUMPDEST PUSH1 0x0 PUSH1 0xA0 DUP3 ADD SWAP1 POP PUSH2 0xD35 PUSH1 0x0 DUP4 ADD DUP11 PUSH2 0xB6F JUMP JUMPDEST PUSH2 0xD42 PUSH1 0x20 DUP4 ADD DUP10 PUSH2 0xC9C JUMP JUMPDEST DUP2 DUP2 SUB PUSH1 0x40 DUP4 ADD MSTORE PUSH2 0xD55 DUP2 DUP8 DUP10 PUSH2 0xC6F JUMP JUMPDEST SWAP1 POP DUP2 DUP2 SUB PUSH1 0x60 DUP4 ADD MSTORE PUSH2 0xD6A DUP2 DUP6 DUP8 PUSH2 0xBB3 JUMP JUMPDEST SWAP1 POP PUSH2 0xD79 PUSH1 0x80 DUP4 ADD DUP5 PUSH2 0xC9C JUMP JUMPDEST SWAP9 SWAP8 POP POP POP POP POP POP POP POP JUMP JUMPDEST PUSH1 0x0 PUSH1 0x20 DUP3 ADD SWAP1 POP PUSH2 0xD9A PUSH1 0x0 DUP4 ADD DUP5 PUSH2 0xB7E JUMP JUMPDEST SWAP3 SWAP2 POP POP JUMP JUMPDEST PUSH1 0x0 PUSH1 0x20 DUP3 ADD SWAP1 POP PUSH2 0xDB5 PUSH1 0x0 DUP4 ADD DUP5 PUSH2 0xB8D JUMP JUMPDEST SWAP3 SWAP2 POP POP JUMP JUMPDEST PUSH1 0x0 PUSH1 0x20 DUP3 ADD SWAP1 POP DUP2 DUP2 SUB PUSH1 0x0 DUP4 ADD MSTORE PUSH2 0xDD5 DUP2 DUP5 PUSH2 0xC05 JUMP JUMPDEST SWAP1 POP SWAP3 SWAP2 POP POP JUMP JUMPDEST PUSH1 0x0 PUSH1 0x20 DUP3 ADD SWAP1 POP PUSH2 0xDF2 PUSH1 0x0 DUP4 ADD DUP5 PUSH2 0xC9C JUMP JUMPDEST SWAP3 SWAP2 POP POP JUMP JUMPDEST PUSH1 0x0 PUSH1 0x80 DUP3 ADD SWAP1 POP PUSH2 0xE0D PUSH1 0x0 DUP4 ADD DUP10 PUSH2 0xC9C JUMP JUMPDEST DUP2 DUP2 SUB PUSH1 0x20 DUP4 ADD MSTORE PUSH2 0xE20 DUP2 DUP8 DUP10 PUSH2 0xC6F JUMP JUMPDEST SWAP1 POP DUP2 DUP2 SUB PUSH1 0x40 DUP4 ADD MSTORE PUSH2 0xE35 DUP2 DUP6 DUP8 PUSH2 0xBB3 JUMP JUMPDEST SWAP1 POP PUSH2 0xE44 PUSH1 0x60 DUP4 ADD DUP5 PUSH2 0xC9C JUMP JUMPDEST SWAP8 SWAP7 POP POP POP POP POP POP POP JUMP JUMPDEST PUSH1 0x0 PUSH1 0x40 DUP3 ADD SWAP1 POP PUSH2 0xE64 PUSH1 0x0 DUP4 ADD DUP6 PUSH2 0xC9C JUMP JUMPDEST PUSH2 0xE71 PUSH1 0x20 DUP4 ADD DUP5 PUSH2 0xC9C JUMP JUMPDEST SWAP4 SWAP3 POP POP POP JUMP JUMPDEST PUSH1 0x0 DUP2 MLOAD SWAP1 POP SWAP2 SWAP1 POP JUMP JUMPDEST PUSH1 0x0 DUP3 DUP3 MSTORE PUSH1 0x20 DUP3 ADD SWAP1 POP SWAP3 SWAP2 POP POP JUMP JUMPDEST PUSH1 0x0 DUP2 SWAP1 POP SWAP3 SWAP2 POP POP JUMP JUMPDEST PUSH1 0x0 DUP3 DUP3 MSTORE PUSH1 0x20 DUP3 ADD SWAP1 POP SWAP3 SWAP2 POP POP JUMP JUMPDEST PUSH1 0x0 PUSH2 0xEBB DUP3 PUSH2 0xF7A JUMP JUMPDEST SWAP2 POP PUSH2 0xEC6 DUP4 PUSH2 0xF7A JUMP JUMPDEST SWAP3 POP DUP3 PUSH32 0xFFFFFFFFFFFFFFFFFFFFFFFFFFFFFFFFFFFFFFFFFFFFFFFFFFFFFFFFFFFFFFFF SUB DUP3 GT ISZERO PUSH2 0xEFB JUMPI PUSH2 0xEFA PUSH2 0xFD0 JUMP JUMPDEST JUMPDEST DUP3 DUP3 ADD SWAP1 POP SWAP3 SWAP2 POP POP JUMP JUMPDEST PUSH1 0x0 PUSH2 0xF11 DUP3 PUSH2 0xF5A JUMP JUMPDEST SWAP1 POP SWAP2 SWAP1 POP JUMP JUMPDEST PUSH1 0x0 DUP2 ISZERO ISZERO SWAP1 POP SWAP2 SWAP1 POP JUMP JUMPDEST PUSH1 0x0 DUP2 SWAP1 POP SWAP2 SWAP1 POP JUMP JUMPDEST PUSH1 0x0 PUSH32 0xFFFFFFFF00000000000000000000000000000000000000000000000000000000 DUP3 AND SWAP1 POP SWAP2 SWAP1 POP JUMP JUMPDEST PUSH1 0x0 PUSH20 0xFFFFFFFFFFFFFFFFFFFFFFFFFFFFFFFFFFFFFFFF DUP3 AND SWAP1 POP SWAP2 SWAP1 POP JUMP JUMPDEST PUSH1 0x0 DUP2 SWAP1 POP SWAP2 SWAP1 POP JUMP JUMPDEST DUP3 DUP2 DUP4 CALLDATACOPY PUSH1 0x0 DUP4 DUP4 ADD MSTORE POP POP POP JUMP JUMPDEST PUSH1 0x0 JUMPDEST DUP4 DUP2 LT ISZERO PUSH2 0xFB1 JUMPI DUP1 DUP3 ADD MLOAD DUP2 DUP5 ADD MSTORE PUSH1 0x20 DUP2 ADD SWAP1 POP PUSH2 0xF96 JUMP JUMPDEST DUP4 DUP2 GT ISZERO PUSH2 0xFC0 JUMPI PUSH1 0x0 DUP5 DUP5 ADD MSTORE JUMPDEST POP POP POP POP JUMP JUMPDEST PUSH1 0x0 DUP2 SWAP1 POP SWAP2 SWAP1 POP JUMP JUMPDEST PUSH32 0x4E487B7100000000000000000000000000000000000000000000000000000000 PUSH1 0x0 MSTORE PUSH1 0x11 PUSH1 0x4 MSTORE PUSH1 0x24 PUSH1 0x0 REVERT JUMPDEST PUSH1 0x0 DUP1 REVERT JUMPDEST PUSH1 0x0 DUP1 REVERT JUMPDEST PUSH1 0x0 DUP1 REVERT JUMPDEST PUSH1 0x0 DUP1 REVERT JUMPDEST PUSH1 0x0 DUP1 REVERT JUMPDEST PUSH1 0x0 PUSH1 0x1F NOT PUSH1 0x1F DUP4 ADD AND SWAP1 POP SWAP2 SWAP1 POP JUMP JUMPDEST PUSH2 0x1032 DUP2 PUSH2 0xF06 JUMP JUMPDEST DUP2 EQ PUSH2 0x103D JUMPI PUSH1 0x0 DUP1 REVERT JUMPDEST POP JUMP JUMPDEST PUSH2 0x1049 DUP2 PUSH2 0xF24 JUMP JUMPDEST DUP2 EQ PUSH2 0x1054 JUMPI PUSH1 0x0 DUP1 REVERT JUMPDEST POP JUMP JUMPDEST PUSH2 0x1060 DUP2 PUSH2 0xF7A JUMP JUMPDEST DUP2 EQ PUSH2 0x106B JUMPI PUSH1 0x0 DUP1 REVERT JUMPDEST POP JUMP INVALID LOG2 PUSH5 0x6970667358 0x22 SLT KECCAK256 STOP BYTE 0x27 0xEE SIGNEXTEND ADDMOD MSTORE 0xD 0xF8 0xC5 0xBE 0x5F DELEGATECALL PUSH28 0x2F61F21F5C4A256139EAB8762CE3A7F6BD9B64736F6C634300080700 CALLER "
				},
				"gasEstimates": {
					"creation": {
						"codeDepositCost": "852000",
						"executionCost": "25156",
						"totalCost": "877156"
					},
					"external": {
						"GRACE_PERIOD()": "395",
						"MAX_DELAY()": "352",
						"MIN_DELAY()": "351",
						"cancel(bytes32)": "infinite",
						"execute(address,uint256,string,bytes,uint256)": "infinite",
						"getTxId(address,uint256,string,bytes,uint256)": "infinite",
						"owner()": "2511",
						"queue(address,uint256,string,bytes,uint256)": "infinite",
						"queued(bytes32)": "2797"
					}
				},
				"methodIdentifiers": {
					"GRACE_PERIOD()": "c1a287e2",
					"MAX_DELAY()": "4125ff90",
					"MIN_DELAY()": "9f81aed7",
					"cancel(bytes32)": "c4d252f5",
					"execute(address,uint256,string,bytes,uint256)": "b0f8b142",
					"getTxId(address,uint256,string,bytes,uint256)": "8a1ce0b6",
					"owner()": "8da5cb5b",
					"queue(address,uint256,string,bytes,uint256)": "4b9915a5",
					"queued(bytes32)": "228250c9"
				}
			},
			"storageLayout": {
				"storage": [
					{
						"astId": 74,
						"contract": "SCP/GasGolf.sol:TimeLock",
						"label": "owner",
						"offset": 0,
						"slot": "0",
						"type": "t_address"
					},
					{
						"astId": 78,
						"contract": "SCP/GasGolf.sol:TimeLock",
						"label": "queued",
						"offset": 0,
						"slot": "1",
						"type": "t_mapping(t_bytes32,t_bool)"
					}
				],
				"types": {
					"t_address": {
						"encoding": "inplace",
						"label": "address",
						"numberOfBytes": "20"
					},
					"t_bool": {
						"encoding": "inplace",
						"label": "bool",
						"numberOfBytes": "1"
					},
					"t_bytes32": {
						"encoding": "inplace",
						"label": "bytes32",
						"numberOfBytes": "32"
					},
					"t_mapping(t_bytes32,t_bool)": {
						"encoding": "mapping",
						"key": "t_bytes32",
						"label": "mapping(bytes32 => bool)",
						"numberOfBytes": "32",
						"value": "t_bool"
					}
				}
			},
			"userdoc": {
				"kind": "user",
				"methods": {},
				"version": 1
			}
		}
	}
}