{
	"SCP/MultiCall.sol": {
		"MultiCall": {
			"abi": [
				{
					"inputs": [
						{
							"internalType": "address[]",
							"name": "targets",
							"type": "address[]"
						},
						{
							"internalType": "bytes[]",
							"name": "data",
							"type": "bytes[]"
						}
					],
					"name": "multiCall",
					"outputs": [
						{
							"internalType": "bytes[]",
							"name": "",
							"type": "bytes[]"
						}
					],
					"stateMutability": "view",
					"type": "function"
				}
			],
			"devdoc": {
				"kind": "dev",
				"methods": {},
				"version": 1
			},
			"evm": {
				"assembly": "    /* \"SCP/MultiCall.sol\":550:1093  contract MultiCall {... */\n  mstore(0x40, 0x80)\n  callvalue\n  dup1\n  iszero\n  tag_1\n  jumpi\n  0x00\n  dup1\n  revert\ntag_1:\n  pop\n  dataSize(sub_0)\n  dup1\n  dataOffset(sub_0)\n  0x00\n  codecopy\n  0x00\n  return\nstop\n\nsub_0: assembly {\n        /* \"SCP/MultiCall.sol\":550:1093  contract MultiCall {... */\n      mstore(0x40, 0x80)\n      callvalue\n      dup1\n      iszero\n      tag_1\n      jumpi\n      0x00\n      dup1\n      revert\n    tag_1:\n      pop\n      jumpi(tag_2, lt(calldatasize, 0x04))\n      shr(0xe0, calldataload(0x00))\n      dup1\n      0xda5b4ffd\n      eq\n      tag_3\n      jumpi\n    tag_2:\n      0x00\n      dup1\n      revert\n        /* \"SCP/MultiCall.sol\":575:1091  function multiCall(address[] calldata targets, bytes[] calldata data) ... */\n    tag_3:\n      tag_4\n      0x04\n      dup1\n      calldatasize\n      sub\n      dup2\n      add\n      swap1\n      tag_5\n      swap2\n      swap1\n      tag_6\n      jump\t// in\n    tag_5:\n      tag_7\n      jump\t// in\n    tag_4:\n      mload(0x40)\n      tag_8\n      swap2\n      swap1\n      tag_9\n      jump\t// in\n    tag_8:\n      mload(0x40)\n      dup1\n      swap2\n      sub\n      swap1\n      return\n    tag_7:\n        /* \"SCP/MultiCall.sol\":681:695  bytes[] memory */\n      0x60\n        /* \"SCP/MultiCall.sol\":738:742  data */\n      dup3\n      dup3\n        /* \"SCP/MultiCall.sol\":738:749  data.length */\n      swap1\n      pop\n        /* \"SCP/MultiCall.sol\":720:727  targets */\n      dup6\n      dup6\n        /* \"SCP/MultiCall.sol\":720:734  targets.length */\n      swap1\n      pop\n        /* \"SCP/MultiCall.sol\":720:749  targets.length == data.length */\n      eq\n        /* \"SCP/MultiCall.sol\":712:782  require(targets.length == data.length, \"target length != data length\") */\n      tag_11\n      jumpi\n      mload(0x40)\n      0x08c379a000000000000000000000000000000000000000000000000000000000\n      dup2\n      mstore\n      0x04\n      add\n      tag_12\n      swap1\n      tag_13\n      jump\t// in\n    tag_12:\n      mload(0x40)\n      dup1\n      swap2\n      sub\n      swap1\n      revert\n    tag_11:\n        /* \"SCP/MultiCall.sol\":792:814  bytes[] memory results */\n      0x00\n        /* \"SCP/MultiCall.sol\":829:833  data */\n      dup4\n      dup4\n        /* \"SCP/MultiCall.sol\":829:840  data.length */\n      swap1\n      pop\n        /* \"SCP/MultiCall.sol\":817:841  new bytes[](data.length) */\n      0xffffffffffffffff\n      dup2\n      gt\n      iszero\n      tag_14\n      jumpi\n      tag_15\n      tag_16\n      jump\t// in\n    tag_15:\n    tag_14:\n      mload(0x40)\n      swap1\n      dup1\n      dup3\n      mstore\n      dup1\n      0x20\n      mul\n      0x20\n      add\n      dup3\n      add\n      0x40\n      mstore\n      dup1\n      iszero\n      tag_17\n      jumpi\n      dup2\n      0x20\n      add\n    tag_18:\n      0x60\n      dup2\n      mstore\n      0x20\n      add\n      swap1\n      0x01\n      swap1\n      sub\n      swap1\n      dup2\n      tag_18\n      jumpi\n      swap1\n      pop\n    tag_17:\n      pop\n        /* \"SCP/MultiCall.sol\":792:841  bytes[] memory results = new bytes[](data.length) */\n      swap1\n      pop\n        /* \"SCP/MultiCall.sol\":857:863  uint i */\n      0x00\n        /* \"SCP/MultiCall.sol\":852:1061  for (uint i; i < targets.length; i++ ) {... */\n    tag_19:\n        /* \"SCP/MultiCall.sol\":869:876  targets */\n      dup7\n      dup7\n        /* \"SCP/MultiCall.sol\":869:883  targets.length */\n      swap1\n      pop\n        /* \"SCP/MultiCall.sol\":865:866  i */\n      dup2\n        /* \"SCP/MultiCall.sol\":865:883  i < targets.length */\n      lt\n        /* \"SCP/MultiCall.sol\":852:1061  for (uint i; i < targets.length; i++ ) {... */\n      iszero\n      tag_20\n      jumpi\n        /* \"SCP/MultiCall.sol\":906:918  bool success */\n      0x00\n        /* \"SCP/MultiCall.sol\":920:939  bytes memory result */\n      dup1\n        /* \"SCP/MultiCall.sol\":943:950  targets */\n      dup9\n      dup9\n        /* \"SCP/MultiCall.sol\":951:952  i */\n      dup5\n        /* \"SCP/MultiCall.sol\":943:953  targets[i] */\n      dup2\n      dup2\n      lt\n      tag_22\n      jumpi\n      tag_23\n      tag_24\n      jump\t// in\n    tag_23:\n    tag_22:\n      swap1\n      pop\n      0x20\n      mul\n      add\n      0x20\n      dup2\n      add\n      swap1\n      tag_25\n      swap2\n      swap1\n      tag_26\n      jump\t// in\n    tag_25:\n        /* \"SCP/MultiCall.sol\":943:964  targets[i].staticcall */\n      0xffffffffffffffffffffffffffffffffffffffff\n      and\n        /* \"SCP/MultiCall.sol\":965:969  data */\n      dup8\n      dup8\n        /* \"SCP/MultiCall.sol\":970:971  i */\n      dup6\n        /* \"SCP/MultiCall.sol\":965:972  data[i] */\n      dup2\n      dup2\n      lt\n      tag_27\n      jumpi\n      tag_28\n      tag_24\n      jump\t// in\n    tag_28:\n    tag_27:\n      swap1\n      pop\n      0x20\n      mul\n      dup2\n      add\n      swap1\n      tag_29\n      swap2\n      swap1\n      tag_30\n      jump\t// in\n    tag_29:\n        /* \"SCP/MultiCall.sol\":943:973  targets[i].staticcall(data[i]) */\n      mload(0x40)\n      tag_31\n      swap3\n      swap2\n      swap1\n      tag_32\n      jump\t// in\n    tag_31:\n      0x00\n      mload(0x40)\n      dup1\n      dup4\n      sub\n      dup2\n      dup6\n      gas\n      staticcall\n      swap2\n      pop\n      pop\n      returndatasize\n      dup1\n      0x00\n      dup2\n      eq\n      tag_35\n      jumpi\n      mload(0x40)\n      swap2\n      pop\n      and(add(returndatasize, 0x3f), not(0x1f))\n      dup3\n      add\n      0x40\n      mstore\n      returndatasize\n      dup3\n      mstore\n      returndatasize\n      0x00\n      0x20\n      dup5\n      add\n      returndatacopy\n      jump(tag_34)\n    tag_35:\n      0x60\n      swap2\n      pop\n    tag_34:\n      pop\n        /* \"SCP/MultiCall.sol\":905:973  (bool success, bytes memory result) = targets[i].staticcall(data[i]) */\n      swap2\n      pop\n      swap2\n      pop\n        /* \"SCP/MultiCall.sol\":995:1002  success */\n      dup2\n        /* \"SCP/MultiCall.sol\":987:1017  require(success,\"call failed\") */\n      tag_36\n      jumpi\n      mload(0x40)\n      0x08c379a000000000000000000000000000000000000000000000000000000000\n      dup2\n      mstore\n      0x04\n      add\n      tag_37\n      swap1\n      tag_38\n      jump\t// in\n    tag_37:\n      mload(0x40)\n      dup1\n      swap2\n      sub\n      swap1\n      revert\n    tag_36:\n        /* \"SCP/MultiCall.sol\":1044:1050  result */\n      dup1\n        /* \"SCP/MultiCall.sol\":1031:1038  results */\n      dup5\n        /* \"SCP/MultiCall.sol\":1039:1040  i */\n      dup5\n        /* \"SCP/MultiCall.sol\":1031:1041  results[i] */\n      dup2\n      mload\n      dup2\n      lt\n      tag_39\n      jumpi\n      tag_40\n      tag_24\n      jump\t// in\n    tag_40:\n    tag_39:\n      0x20\n      mul\n      0x20\n      add\n      add\n        /* \"SCP/MultiCall.sol\":1031:1050  results[i] = result */\n      dup2\n      swap1\n      mstore\n      pop\n        /* \"SCP/MultiCall.sol\":891:1061  {... */\n      pop\n      pop\n        /* \"SCP/MultiCall.sol\":885:888  i++ */\n      dup1\n      dup1\n      tag_41\n      swap1\n      tag_42\n      jump\t// in\n    tag_41:\n      swap2\n      pop\n      pop\n        /* \"SCP/MultiCall.sol\":852:1061  for (uint i; i < targets.length; i++ ) {... */\n      jump(tag_19)\n    tag_20:\n      pop\n        /* \"SCP/MultiCall.sol\":1077:1084  results */\n      dup1\n        /* \"SCP/MultiCall.sol\":1070:1084  return results */\n      swap2\n      pop\n      pop\n        /* \"SCP/MultiCall.sol\":575:1091  function multiCall(address[] calldata targets, bytes[] calldata data) ... */\n      swap5\n      swap4\n      pop\n      pop\n      pop\n      pop\n      jump\t// out\n        /* \"#utility.yul\":7:146   */\n    tag_44:\n        /* \"#utility.yul\":53:58   */\n      0x00\n        /* \"#utility.yul\":91:97   */\n      dup2\n        /* \"#utility.yul\":78:98   */\n      calldataload\n        /* \"#utility.yul\":69:98   */\n      swap1\n      pop\n        /* \"#utility.yul\":107:140   */\n      tag_46\n        /* \"#utility.yul\":134:139   */\n      dup2\n        /* \"#utility.yul\":107:140   */\n      tag_47\n      jump\t// in\n    tag_46:\n        /* \"#utility.yul\":7:146   */\n      swap3\n      swap2\n      pop\n      pop\n      jump\t// out\n        /* \"#utility.yul\":169:737   */\n    tag_48:\n        /* \"#utility.yul\":242:250   */\n      0x00\n        /* \"#utility.yul\":252:258   */\n      dup1\n        /* \"#utility.yul\":302:305   */\n      dup4\n        /* \"#utility.yul\":295:299   */\n      0x1f\n        /* \"#utility.yul\":287:293   */\n      dup5\n        /* \"#utility.yul\":283:300   */\n      add\n        /* \"#utility.yul\":279:306   */\n      slt\n        /* \"#utility.yul\":269:391   */\n      tag_50\n      jumpi\n        /* \"#utility.yul\":310:389   */\n      tag_51\n      tag_52\n      jump\t// in\n    tag_51:\n        /* \"#utility.yul\":269:391   */\n    tag_50:\n        /* \"#utility.yul\":423:429   */\n      dup3\n        /* \"#utility.yul\":410:430   */\n      calldataload\n        /* \"#utility.yul\":400:430   */\n      swap1\n      pop\n        /* \"#utility.yul\":453:471   */\n      0xffffffffffffffff\n        /* \"#utility.yul\":445:451   */\n      dup2\n        /* \"#utility.yul\":442:472   */\n      gt\n        /* \"#utility.yul\":439:556   */\n      iszero\n      tag_53\n      jumpi\n        /* \"#utility.yul\":475:554   */\n      tag_54\n      tag_55\n      jump\t// in\n    tag_54:\n        /* \"#utility.yul\":439:556   */\n    tag_53:\n        /* \"#utility.yul\":589:593   */\n      0x20\n        /* \"#utility.yul\":581:587   */\n      dup4\n        /* \"#utility.yul\":577:594   */\n      add\n        /* \"#utility.yul\":565:594   */\n      swap2\n      pop\n        /* \"#utility.yul\":643:646   */\n      dup4\n        /* \"#utility.yul\":635:639   */\n      0x20\n        /* \"#utility.yul\":627:633   */\n      dup3\n        /* \"#utility.yul\":623:640   */\n      mul\n        /* \"#utility.yul\":613:621   */\n      dup4\n        /* \"#utility.yul\":609:641   */\n      add\n        /* \"#utility.yul\":606:647   */\n      gt\n        /* \"#utility.yul\":603:731   */\n      iszero\n      tag_56\n      jumpi\n        /* \"#utility.yul\":650:729   */\n      tag_57\n      tag_58\n      jump\t// in\n    tag_57:\n        /* \"#utility.yul\":603:731   */\n    tag_56:\n        /* \"#utility.yul\":169:737   */\n      swap3\n      pop\n      swap3\n      swap1\n      pop\n      jump\t// out\n        /* \"#utility.yul\":758:1337   */\n    tag_59:\n        /* \"#utility.yul\":842:850   */\n      0x00\n        /* \"#utility.yul\":852:858   */\n      dup1\n        /* \"#utility.yul\":902:905   */\n      dup4\n        /* \"#utility.yul\":895:899   */\n      0x1f\n        /* \"#utility.yul\":887:893   */\n      dup5\n        /* \"#utility.yul\":883:900   */\n      add\n        /* \"#utility.yul\":879:906   */\n      slt\n        /* \"#utility.yul\":869:991   */\n      tag_61\n      jumpi\n        /* \"#utility.yul\":910:989   */\n      tag_62\n      tag_52\n      jump\t// in\n    tag_62:\n        /* \"#utility.yul\":869:991   */\n    tag_61:\n        /* \"#utility.yul\":1023:1029   */\n      dup3\n        /* \"#utility.yul\":1010:1030   */\n      calldataload\n        /* \"#utility.yul\":1000:1030   */\n      swap1\n      pop\n        /* \"#utility.yul\":1053:1071   */\n      0xffffffffffffffff\n        /* \"#utility.yul\":1045:1051   */\n      dup2\n        /* \"#utility.yul\":1042:1072   */\n      gt\n        /* \"#utility.yul\":1039:1156   */\n      iszero\n      tag_63\n      jumpi\n        /* \"#utility.yul\":1075:1154   */\n      tag_64\n      tag_55\n      jump\t// in\n    tag_64:\n        /* \"#utility.yul\":1039:1156   */\n    tag_63:\n        /* \"#utility.yul\":1189:1193   */\n      0x20\n        /* \"#utility.yul\":1181:1187   */\n      dup4\n        /* \"#utility.yul\":1177:1194   */\n      add\n        /* \"#utility.yul\":1165:1194   */\n      swap2\n      pop\n        /* \"#utility.yul\":1243:1246   */\n      dup4\n        /* \"#utility.yul\":1235:1239   */\n      0x20\n        /* \"#utility.yul\":1227:1233   */\n      dup3\n        /* \"#utility.yul\":1223:1240   */\n      mul\n        /* \"#utility.yul\":1213:1221   */\n      dup4\n        /* \"#utility.yul\":1209:1241   */\n      add\n        /* \"#utility.yul\":1206:1247   */\n      gt\n        /* \"#utility.yul\":1203:1331   */\n      iszero\n      tag_65\n      jumpi\n        /* \"#utility.yul\":1250:1329   */\n      tag_66\n      tag_58\n      jump\t// in\n    tag_66:\n        /* \"#utility.yul\":1203:1331   */\n    tag_65:\n        /* \"#utility.yul\":758:1337   */\n      swap3\n      pop\n      swap3\n      swap1\n      pop\n      jump\t// out\n        /* \"#utility.yul\":1343:1672   */\n    tag_26:\n        /* \"#utility.yul\":1402:1408   */\n      0x00\n        /* \"#utility.yul\":1451:1453   */\n      0x20\n        /* \"#utility.yul\":1439:1448   */\n      dup3\n        /* \"#utility.yul\":1430:1437   */\n      dup5\n        /* \"#utility.yul\":1426:1449   */\n      sub\n        /* \"#utility.yul\":1422:1454   */\n      slt\n        /* \"#utility.yul\":1419:1538   */\n      iszero\n      tag_68\n      jumpi\n        /* \"#utility.yul\":1457:1536   */\n      tag_69\n      tag_70\n      jump\t// in\n    tag_69:\n        /* \"#utility.yul\":1419:1538   */\n    tag_68:\n        /* \"#utility.yul\":1577:1578   */\n      0x00\n        /* \"#utility.yul\":1602:1655   */\n      tag_71\n        /* \"#utility.yul\":1647:1654   */\n      dup5\n        /* \"#utility.yul\":1638:1644   */\n      dup3\n        /* \"#utility.yul\":1627:1636   */\n      dup6\n        /* \"#utility.yul\":1623:1645   */\n      add\n        /* \"#utility.yul\":1602:1655   */\n      tag_44\n      jump\t// in\n    tag_71:\n        /* \"#utility.yul\":1592:1655   */\n      swap2\n      pop\n        /* \"#utility.yul\":1548:1665   */\n      pop\n        /* \"#utility.yul\":1343:1672   */\n      swap3\n      swap2\n      pop\n      pop\n      jump\t// out\n        /* \"#utility.yul\":1678:2634   */\n    tag_6:\n        /* \"#utility.yul\":1811:1817   */\n      0x00\n        /* \"#utility.yul\":1819:1825   */\n      dup1\n        /* \"#utility.yul\":1827:1833   */\n      0x00\n        /* \"#utility.yul\":1835:1841   */\n      dup1\n        /* \"#utility.yul\":1884:1886   */\n      0x40\n        /* \"#utility.yul\":1872:1881   */\n      dup6\n        /* \"#utility.yul\":1863:1870   */\n      dup8\n        /* \"#utility.yul\":1859:1882   */\n      sub\n        /* \"#utility.yul\":1855:1887   */\n      slt\n        /* \"#utility.yul\":1852:1971   */\n      iszero\n      tag_73\n      jumpi\n        /* \"#utility.yul\":1890:1969   */\n      tag_74\n      tag_70\n      jump\t// in\n    tag_74:\n        /* \"#utility.yul\":1852:1971   */\n    tag_73:\n        /* \"#utility.yul\":2038:2039   */\n      0x00\n        /* \"#utility.yul\":2027:2036   */\n      dup6\n        /* \"#utility.yul\":2023:2040   */\n      add\n        /* \"#utility.yul\":2010:2041   */\n      calldataload\n        /* \"#utility.yul\":2068:2086   */\n      0xffffffffffffffff\n        /* \"#utility.yul\":2060:2066   */\n      dup2\n        /* \"#utility.yul\":2057:2087   */\n      gt\n        /* \"#utility.yul\":2054:2171   */\n      iszero\n      tag_75\n      jumpi\n        /* \"#utility.yul\":2090:2169   */\n      tag_76\n      tag_77\n      jump\t// in\n    tag_76:\n        /* \"#utility.yul\":2054:2171   */\n    tag_75:\n        /* \"#utility.yul\":2203:2283   */\n      tag_78\n        /* \"#utility.yul\":2275:2282   */\n      dup8\n        /* \"#utility.yul\":2266:2272   */\n      dup3\n        /* \"#utility.yul\":2255:2264   */\n      dup9\n        /* \"#utility.yul\":2251:2273   */\n      add\n        /* \"#utility.yul\":2203:2283   */\n      tag_48\n      jump\t// in\n    tag_78:\n        /* \"#utility.yul\":2185:2283   */\n      swap5\n      pop\n      swap5\n      pop\n        /* \"#utility.yul\":1981:2293   */\n      pop\n        /* \"#utility.yul\":2360:2362   */\n      0x20\n        /* \"#utility.yul\":2349:2358   */\n      dup6\n        /* \"#utility.yul\":2345:2363   */\n      add\n        /* \"#utility.yul\":2332:2364   */\n      calldataload\n        /* \"#utility.yul\":2391:2409   */\n      0xffffffffffffffff\n        /* \"#utility.yul\":2383:2389   */\n      dup2\n        /* \"#utility.yul\":2380:2410   */\n      gt\n        /* \"#utility.yul\":2377:2494   */\n      iszero\n      tag_79\n      jumpi\n        /* \"#utility.yul\":2413:2492   */\n      tag_80\n      tag_77\n      jump\t// in\n    tag_80:\n        /* \"#utility.yul\":2377:2494   */\n    tag_79:\n        /* \"#utility.yul\":2526:2617   */\n      tag_81\n        /* \"#utility.yul\":2609:2616   */\n      dup8\n        /* \"#utility.yul\":2600:2606   */\n      dup3\n        /* \"#utility.yul\":2589:2598   */\n      dup9\n        /* \"#utility.yul\":2585:2607   */\n      add\n        /* \"#utility.yul\":2526:2617   */\n      tag_59\n      jump\t// in\n    tag_81:\n        /* \"#utility.yul\":2508:2617   */\n      swap3\n      pop\n      swap3\n      pop\n        /* \"#utility.yul\":2303:2627   */\n      pop\n        /* \"#utility.yul\":1678:2634   */\n      swap3\n      swap6\n      swap2\n      swap5\n      pop\n      swap3\n      pop\n      jump\t// out\n        /* \"#utility.yul\":2640:2832   */\n    tag_82:\n        /* \"#utility.yul\":2727:2737   */\n      0x00\n        /* \"#utility.yul\":2762:2826   */\n      tag_84\n        /* \"#utility.yul\":2822:2825   */\n      dup4\n        /* \"#utility.yul\":2814:2820   */\n      dup4\n        /* \"#utility.yul\":2762:2826   */\n      tag_85\n      jump\t// in\n    tag_84:\n        /* \"#utility.yul\":2748:2826   */\n      swap1\n      pop\n        /* \"#utility.yul\":2640:2832   */\n      swap3\n      swap2\n      pop\n      pop\n      jump\t// out\n        /* \"#utility.yul\":2864:3847   */\n    tag_86:\n        /* \"#utility.yul\":3001:3004   */\n      0x00\n        /* \"#utility.yul\":3030:3093   */\n      tag_88\n        /* \"#utility.yul\":3087:3092   */\n      dup3\n        /* \"#utility.yul\":3030:3093   */\n      tag_89\n      jump\t// in\n    tag_88:\n        /* \"#utility.yul\":3109:3204   */\n      tag_90\n        /* \"#utility.yul\":3197:3203   */\n      dup2\n        /* \"#utility.yul\":3192:3195   */\n      dup6\n        /* \"#utility.yul\":3109:3204   */\n      tag_91\n      jump\t// in\n    tag_90:\n        /* \"#utility.yul\":3102:3204   */\n      swap4\n      pop\n        /* \"#utility.yul\":3230:3233   */\n      dup4\n        /* \"#utility.yul\":3275:3279   */\n      0x20\n        /* \"#utility.yul\":3267:3273   */\n      dup3\n        /* \"#utility.yul\":3263:3280   */\n      mul\n        /* \"#utility.yul\":3258:3261   */\n      dup6\n        /* \"#utility.yul\":3254:3281   */\n      add\n        /* \"#utility.yul\":3305:3370   */\n      tag_92\n        /* \"#utility.yul\":3364:3369   */\n      dup6\n        /* \"#utility.yul\":3305:3370   */\n      tag_93\n      jump\t// in\n    tag_92:\n        /* \"#utility.yul\":3393:3400   */\n      dup1\n        /* \"#utility.yul\":3424:3425   */\n      0x00\n        /* \"#utility.yul\":3409:3802   */\n    tag_94:\n        /* \"#utility.yul\":3434:3440   */\n      dup6\n        /* \"#utility.yul\":3431:3432   */\n      dup2\n        /* \"#utility.yul\":3428:3441   */\n      lt\n        /* \"#utility.yul\":3409:3802   */\n      iszero\n      tag_96\n      jumpi\n        /* \"#utility.yul\":3505:3514   */\n      dup5\n        /* \"#utility.yul\":3499:3503   */\n      dup5\n        /* \"#utility.yul\":3495:3515   */\n      sub\n        /* \"#utility.yul\":3490:3493   */\n      dup10\n        /* \"#utility.yul\":3483:3516   */\n      mstore\n        /* \"#utility.yul\":3556:3562   */\n      dup2\n        /* \"#utility.yul\":3550:3563   */\n      mload\n        /* \"#utility.yul\":3584:3666   */\n      tag_97\n        /* \"#utility.yul\":3661:3665   */\n      dup6\n        /* \"#utility.yul\":3646:3659   */\n      dup3\n        /* \"#utility.yul\":3584:3666   */\n      tag_82\n      jump\t// in\n    tag_97:\n        /* \"#utility.yul\":3576:3666   */\n      swap5\n      pop\n        /* \"#utility.yul\":3689:3758   */\n      tag_98\n        /* \"#utility.yul\":3751:3757   */\n      dup4\n        /* \"#utility.yul\":3689:3758   */\n      tag_99\n      jump\t// in\n    tag_98:\n        /* \"#utility.yul\":3679:3758   */\n      swap3\n      pop\n        /* \"#utility.yul\":3787:3791   */\n      0x20\n        /* \"#utility.yul\":3782:3785   */\n      dup11\n        /* \"#utility.yul\":3778:3792   */\n      add\n        /* \"#utility.yul\":3771:3792   */\n      swap10\n      pop\n        /* \"#utility.yul\":3469:3802   */\n      pop\n        /* \"#utility.yul\":3456:3457   */\n      0x01\n        /* \"#utility.yul\":3453:3454   */\n      dup2\n        /* \"#utility.yul\":3449:3458   */\n      add\n        /* \"#utility.yul\":3444:3458   */\n      swap1\n      pop\n        /* \"#utility.yul\":3409:3802   */\n      jump(tag_94)\n    tag_96:\n        /* \"#utility.yul\":3413:3427   */\n      pop\n        /* \"#utility.yul\":3818:3822   */\n      dup3\n        /* \"#utility.yul\":3811:3822   */\n      swap8\n      pop\n        /* \"#utility.yul\":3838:3841   */\n      dup8\n        /* \"#utility.yul\":3831:3841   */\n      swap6\n      pop\n        /* \"#utility.yul\":3006:3847   */\n      pop\n      pop\n      pop\n      pop\n      pop\n        /* \"#utility.yul\":2864:3847   */\n      swap3\n      swap2\n      pop\n      pop\n      jump\t// out\n        /* \"#utility.yul\":3875:4189   */\n    tag_100:\n        /* \"#utility.yul\":3989:3992   */\n      0x00\n        /* \"#utility.yul\":4010:4098   */\n      tag_102\n        /* \"#utility.yul\":4091:4097   */\n      dup4\n        /* \"#utility.yul\":4086:4089   */\n      dup6\n        /* \"#utility.yul\":4010:4098   */\n      tag_103\n      jump\t// in\n    tag_102:\n        /* \"#utility.yul\":4003:4098   */\n      swap4\n      pop\n        /* \"#utility.yul\":4108:4151   */\n      tag_104\n        /* \"#utility.yul\":4144:4150   */\n      dup4\n        /* \"#utility.yul\":4139:4142   */\n      dup6\n        /* \"#utility.yul\":4132:4137   */\n      dup5\n        /* \"#utility.yul\":4108:4151   */\n      tag_105\n      jump\t// in\n    tag_104:\n        /* \"#utility.yul\":4176:4182   */\n      dup3\n        /* \"#utility.yul\":4171:4174   */\n      dup5\n        /* \"#utility.yul\":4167:4183   */\n      add\n        /* \"#utility.yul\":4160:4183   */\n      swap1\n      pop\n        /* \"#utility.yul\":3875:4189   */\n      swap4\n      swap3\n      pop\n      pop\n      pop\n      jump\t// out\n        /* \"#utility.yul\":4195:4535   */\n    tag_85:\n        /* \"#utility.yul\":4271:4274   */\n      0x00\n        /* \"#utility.yul\":4299:4337   */\n      tag_107\n        /* \"#utility.yul\":4331:4336   */\n      dup3\n        /* \"#utility.yul\":4299:4337   */\n      tag_108\n      jump\t// in\n    tag_107:\n        /* \"#utility.yul\":4353:4413   */\n      tag_109\n        /* \"#utility.yul\":4406:4412   */\n      dup2\n        /* \"#utility.yul\":4401:4404   */\n      dup6\n        /* \"#utility.yul\":4353:4413   */\n      tag_110\n      jump\t// in\n    tag_109:\n        /* \"#utility.yul\":4346:4413   */\n      swap4\n      pop\n        /* \"#utility.yul\":4422:4474   */\n      tag_111\n        /* \"#utility.yul\":4467:4473   */\n      dup2\n        /* \"#utility.yul\":4462:4465   */\n      dup6\n        /* \"#utility.yul\":4455:4459   */\n      0x20\n        /* \"#utility.yul\":4448:4453   */\n      dup7\n        /* \"#utility.yul\":4444:4460   */\n      add\n        /* \"#utility.yul\":4422:4474   */\n      tag_112\n      jump\t// in\n    tag_111:\n        /* \"#utility.yul\":4499:4528   */\n      tag_113\n        /* \"#utility.yul\":4521:4527   */\n      dup2\n        /* \"#utility.yul\":4499:4528   */\n      tag_114\n      jump\t// in\n    tag_113:\n        /* \"#utility.yul\":4494:4497   */\n      dup5\n        /* \"#utility.yul\":4490:4529   */\n      add\n        /* \"#utility.yul\":4483:4529   */\n      swap2\n      pop\n        /* \"#utility.yul\":4275:4535   */\n      pop\n        /* \"#utility.yul\":4195:4535   */\n      swap3\n      swap2\n      pop\n      pop\n      jump\t// out\n        /* \"#utility.yul\":4541:4907   */\n    tag_115:\n        /* \"#utility.yul\":4683:4686   */\n      0x00\n        /* \"#utility.yul\":4704:4771   */\n      tag_117\n        /* \"#utility.yul\":4768:4770   */\n      0x0b\n        /* \"#utility.yul\":4763:4766   */\n      dup4\n        /* \"#utility.yul\":4704:4771   */\n      tag_118\n      jump\t// in\n    tag_117:\n        /* \"#utility.yul\":4697:4771   */\n      swap2\n      pop\n        /* \"#utility.yul\":4780:4873   */\n      tag_119\n        /* \"#utility.yul\":4869:4872   */\n      dup3\n        /* \"#utility.yul\":4780:4873   */\n      tag_120\n      jump\t// in\n    tag_119:\n        /* \"#utility.yul\":4898:4900   */\n      0x20\n        /* \"#utility.yul\":4893:4896   */\n      dup3\n        /* \"#utility.yul\":4889:4901   */\n      add\n        /* \"#utility.yul\":4882:4901   */\n      swap1\n      pop\n        /* \"#utility.yul\":4541:4907   */\n      swap2\n      swap1\n      pop\n      jump\t// out\n        /* \"#utility.yul\":4913:5279   */\n    tag_121:\n        /* \"#utility.yul\":5055:5058   */\n      0x00\n        /* \"#utility.yul\":5076:5143   */\n      tag_123\n        /* \"#utility.yul\":5140:5142   */\n      0x1c\n        /* \"#utility.yul\":5135:5138   */\n      dup4\n        /* \"#utility.yul\":5076:5143   */\n      tag_118\n      jump\t// in\n    tag_123:\n        /* \"#utility.yul\":5069:5143   */\n      swap2\n      pop\n        /* \"#utility.yul\":5152:5245   */\n      tag_124\n        /* \"#utility.yul\":5241:5244   */\n      dup3\n        /* \"#utility.yul\":5152:5245   */\n      tag_125\n      jump\t// in\n    tag_124:\n        /* \"#utility.yul\":5270:5272   */\n      0x20\n        /* \"#utility.yul\":5265:5268   */\n      dup3\n        /* \"#utility.yul\":5261:5273   */\n      add\n        /* \"#utility.yul\":5254:5273   */\n      swap1\n      pop\n        /* \"#utility.yul\":4913:5279   */\n      swap2\n      swap1\n      pop\n      jump\t// out\n        /* \"#utility.yul\":5285:5576   */\n    tag_32:\n        /* \"#utility.yul\":5425:5428   */\n      0x00\n        /* \"#utility.yul\":5447:5550   */\n      tag_127\n        /* \"#utility.yul\":5546:5549   */\n      dup3\n        /* \"#utility.yul\":5537:5543   */\n      dup5\n        /* \"#utility.yul\":5529:5535   */\n      dup7\n        /* \"#utility.yul\":5447:5550   */\n      tag_100\n      jump\t// in\n    tag_127:\n        /* \"#utility.yul\":5440:5550   */\n      swap2\n      pop\n        /* \"#utility.yul\":5567:5570   */\n      dup2\n        /* \"#utility.yul\":5560:5570   */\n      swap1\n      pop\n        /* \"#utility.yul\":5285:5576   */\n      swap4\n      swap3\n      pop\n      pop\n      pop\n      jump\t// out\n        /* \"#utility.yul\":5582:5991   */\n    tag_9:\n        /* \"#utility.yul\":5743:5747   */\n      0x00\n        /* \"#utility.yul\":5781:5783   */\n      0x20\n        /* \"#utility.yul\":5770:5779   */\n      dup3\n        /* \"#utility.yul\":5766:5784   */\n      add\n        /* \"#utility.yul\":5758:5784   */\n      swap1\n      pop\n        /* \"#utility.yul\":5830:5839   */\n      dup2\n        /* \"#utility.yul\":5824:5828   */\n      dup2\n        /* \"#utility.yul\":5820:5840   */\n      sub\n        /* \"#utility.yul\":5816:5817   */\n      0x00\n        /* \"#utility.yul\":5805:5814   */\n      dup4\n        /* \"#utility.yul\":5801:5818   */\n      add\n        /* \"#utility.yul\":5794:5841   */\n      mstore\n        /* \"#utility.yul\":5858:5984   */\n      tag_129\n        /* \"#utility.yul\":5979:5983   */\n      dup2\n        /* \"#utility.yul\":5970:5976   */\n      dup5\n        /* \"#utility.yul\":5858:5984   */\n      tag_86\n      jump\t// in\n    tag_129:\n        /* \"#utility.yul\":5850:5984   */\n      swap1\n      pop\n        /* \"#utility.yul\":5582:5991   */\n      swap3\n      swap2\n      pop\n      pop\n      jump\t// out\n        /* \"#utility.yul\":5997:6416   */\n    tag_38:\n        /* \"#utility.yul\":6163:6167   */\n      0x00\n        /* \"#utility.yul\":6201:6203   */\n      0x20\n        /* \"#utility.yul\":6190:6199   */\n      dup3\n        /* \"#utility.yul\":6186:6204   */\n      add\n        /* \"#utility.yul\":6178:6204   */\n      swap1\n      pop\n        /* \"#utility.yul\":6250:6259   */\n      dup2\n        /* \"#utility.yul\":6244:6248   */\n      dup2\n        /* \"#utility.yul\":6240:6260   */\n      sub\n        /* \"#utility.yul\":6236:6237   */\n      0x00\n        /* \"#utility.yul\":6225:6234   */\n      dup4\n        /* \"#utility.yul\":6221:6238   */\n      add\n        /* \"#utility.yul\":6214:6261   */\n      mstore\n        /* \"#utility.yul\":6278:6409   */\n      tag_131\n        /* \"#utility.yul\":6404:6408   */\n      dup2\n        /* \"#utility.yul\":6278:6409   */\n      tag_115\n      jump\t// in\n    tag_131:\n        /* \"#utility.yul\":6270:6409   */\n      swap1\n      pop\n        /* \"#utility.yul\":5997:6416   */\n      swap2\n      swap1\n      pop\n      jump\t// out\n        /* \"#utility.yul\":6422:6841   */\n    tag_13:\n        /* \"#utility.yul\":6588:6592   */\n      0x00\n        /* \"#utility.yul\":6626:6628   */\n      0x20\n        /* \"#utility.yul\":6615:6624   */\n      dup3\n        /* \"#utility.yul\":6611:6629   */\n      add\n        /* \"#utility.yul\":6603:6629   */\n      swap1\n      pop\n        /* \"#utility.yul\":6675:6684   */\n      dup2\n        /* \"#utility.yul\":6669:6673   */\n      dup2\n        /* \"#utility.yul\":6665:6685   */\n      sub\n        /* \"#utility.yul\":6661:6662   */\n      0x00\n        /* \"#utility.yul\":6650:6659   */\n      dup4\n        /* \"#utility.yul\":6646:6663   */\n      add\n        /* \"#utility.yul\":6639:6686   */\n      mstore\n        /* \"#utility.yul\":6703:6834   */\n      tag_133\n        /* \"#utility.yul\":6829:6833   */\n      dup2\n        /* \"#utility.yul\":6703:6834   */\n      tag_121\n      jump\t// in\n    tag_133:\n        /* \"#utility.yul\":6695:6834   */\n      swap1\n      pop\n        /* \"#utility.yul\":6422:6841   */\n      swap2\n      swap1\n      pop\n      jump\t// out\n        /* \"#utility.yul\":6847:7571   */\n    tag_30:\n        /* \"#utility.yul\":6924:6928   */\n      0x00\n        /* \"#utility.yul\":6930:6936   */\n      dup1\n        /* \"#utility.yul\":6986:6997   */\n      dup4\n        /* \"#utility.yul\":6973:6998   */\n      calldataload\n        /* \"#utility.yul\":7086:7087   */\n      0x01\n        /* \"#utility.yul\":7080:7084   */\n      0x20\n        /* \"#utility.yul\":7076:7088   */\n      sub\n        /* \"#utility.yul\":7065:7073   */\n      dup5\n        /* \"#utility.yul\":7049:7063   */\n      calldatasize\n        /* \"#utility.yul\":7045:7074   */\n      sub\n        /* \"#utility.yul\":7041:7089   */\n      sub\n        /* \"#utility.yul\":7021:7039   */\n      dup2\n        /* \"#utility.yul\":7017:7090   */\n      slt\n        /* \"#utility.yul\":7007:7175   */\n      tag_135\n      jumpi\n        /* \"#utility.yul\":7094:7173   */\n      tag_136\n      tag_137\n      jump\t// in\n    tag_136:\n        /* \"#utility.yul\":7007:7175   */\n    tag_135:\n        /* \"#utility.yul\":7206:7224   */\n      dup1\n        /* \"#utility.yul\":7196:7204   */\n      dup5\n        /* \"#utility.yul\":7192:7225   */\n      add\n        /* \"#utility.yul\":7184:7225   */\n      swap3\n      pop\n        /* \"#utility.yul\":7258:7262   */\n      dup3\n        /* \"#utility.yul\":7245:7263   */\n      calldataload\n        /* \"#utility.yul\":7235:7263   */\n      swap2\n      pop\n        /* \"#utility.yul\":7286:7304   */\n      0xffffffffffffffff\n        /* \"#utility.yul\":7278:7284   */\n      dup3\n        /* \"#utility.yul\":7275:7305   */\n      gt\n        /* \"#utility.yul\":7272:7389   */\n      iszero\n      tag_138\n      jumpi\n        /* \"#utility.yul\":7308:7387   */\n      tag_139\n      tag_140\n      jump\t// in\n    tag_139:\n        /* \"#utility.yul\":7272:7389   */\n    tag_138:\n        /* \"#utility.yul\":7416:7418   */\n      0x20\n        /* \"#utility.yul\":7410:7414   */\n      dup4\n        /* \"#utility.yul\":7406:7419   */\n      add\n        /* \"#utility.yul\":7398:7419   */\n      swap3\n      pop\n        /* \"#utility.yul\":7473:7477   */\n      0x01\n        /* \"#utility.yul\":7465:7471   */\n      dup3\n        /* \"#utility.yul\":7461:7478   */\n      mul\n        /* \"#utility.yul\":7445:7459   */\n      calldatasize\n        /* \"#utility.yul\":7441:7479   */\n      sub\n        /* \"#utility.yul\":7435:7439   */\n      dup4\n        /* \"#utility.yul\":7431:7480   */\n      sgt\n        /* \"#utility.yul\":7428:7564   */\n      iszero\n      tag_141\n      jumpi\n        /* \"#utility.yul\":7483:7562   */\n      tag_142\n      tag_143\n      jump\t// in\n    tag_142:\n        /* \"#utility.yul\":7428:7564   */\n    tag_141:\n        /* \"#utility.yul\":6937:7571   */\n      pop\n        /* \"#utility.yul\":6847:7571   */\n      swap3\n      pop\n      swap3\n      swap1\n      pop\n      jump\t// out\n        /* \"#utility.yul\":7658:7799   */\n    tag_93:\n        /* \"#utility.yul\":7734:7738   */\n      0x00\n        /* \"#utility.yul\":7757:7760   */\n      dup2\n        /* \"#utility.yul\":7749:7760   */\n      swap1\n      pop\n        /* \"#utility.yul\":7787:7791   */\n      0x20\n        /* \"#utility.yul\":7782:7785   */\n      dup3\n        /* \"#utility.yul\":7778:7792   */\n      add\n        /* \"#utility.yul\":7770:7792   */\n      swap1\n      pop\n        /* \"#utility.yul\":7658:7799   */\n      swap2\n      swap1\n      pop\n      jump\t// out\n        /* \"#utility.yul\":7805:7928   */\n    tag_89:\n        /* \"#utility.yul\":7881:7887   */\n      0x00\n        /* \"#utility.yul\":7915:7920   */\n      dup2\n        /* \"#utility.yul\":7909:7921   */\n      mload\n        /* \"#utility.yul\":7899:7921   */\n      swap1\n      pop\n        /* \"#utility.yul\":7805:7928   */\n      swap2\n      swap1\n      pop\n      jump\t// out\n        /* \"#utility.yul\":7934:8032   */\n    tag_108:\n        /* \"#utility.yul\":7985:7991   */\n      0x00\n        /* \"#utility.yul\":8019:8024   */\n      dup2\n        /* \"#utility.yul\":8013:8025   */\n      mload\n        /* \"#utility.yul\":8003:8025   */\n      swap1\n      pop\n        /* \"#utility.yul\":7934:8032   */\n      swap2\n      swap1\n      pop\n      jump\t// out\n        /* \"#utility.yul\":8038:8160   */\n    tag_99:\n        /* \"#utility.yul\":8117:8121   */\n      0x00\n        /* \"#utility.yul\":8149:8153   */\n      0x20\n        /* \"#utility.yul\":8144:8147   */\n      dup3\n        /* \"#utility.yul\":8140:8154   */\n      add\n        /* \"#utility.yul\":8132:8154   */\n      swap1\n      pop\n        /* \"#utility.yul\":8038:8160   */\n      swap2\n      swap1\n      pop\n      jump\t// out\n        /* \"#utility.yul\":8166:8359   */\n    tag_91:\n        /* \"#utility.yul\":8274:8285   */\n      0x00\n        /* \"#utility.yul\":8308:8314   */\n      dup3\n        /* \"#utility.yul\":8303:8306   */\n      dup3\n        /* \"#utility.yul\":8296:8315   */\n      mstore\n        /* \"#utility.yul\":8348:8352   */\n      0x20\n        /* \"#utility.yul\":8343:8346   */\n      dup3\n        /* \"#utility.yul\":8339:8353   */\n      add\n        /* \"#utility.yul\":8324:8353   */\n      swap1\n      pop\n        /* \"#utility.yul\":8166:8359   */\n      swap3\n      swap2\n      pop\n      pop\n      jump\t// out\n        /* \"#utility.yul\":8365:8523   */\n    tag_110:\n        /* \"#utility.yul\":8438:8449   */\n      0x00\n        /* \"#utility.yul\":8472:8478   */\n      dup3\n        /* \"#utility.yul\":8467:8470   */\n      dup3\n        /* \"#utility.yul\":8460:8479   */\n      mstore\n        /* \"#utility.yul\":8512:8516   */\n      0x20\n        /* \"#utility.yul\":8507:8510   */\n      dup3\n        /* \"#utility.yul\":8503:8517   */\n      add\n        /* \"#utility.yul\":8488:8517   */\n      swap1\n      pop\n        /* \"#utility.yul\":8365:8523   */\n      swap3\n      swap2\n      pop\n      pop\n      jump\t// out\n        /* \"#utility.yul\":8529:8676   */\n    tag_103:\n        /* \"#utility.yul\":8630:8641   */\n      0x00\n        /* \"#utility.yul\":8667:8670   */\n      dup2\n        /* \"#utility.yul\":8652:8670   */\n      swap1\n      pop\n        /* \"#utility.yul\":8529:8676   */\n      swap3\n      swap2\n      pop\n      pop\n      jump\t// out\n        /* \"#utility.yul\":8682:8851   */\n    tag_118:\n        /* \"#utility.yul\":8766:8777   */\n      0x00\n        /* \"#utility.yul\":8800:8806   */\n      dup3\n        /* \"#utility.yul\":8795:8798   */\n      dup3\n        /* \"#utility.yul\":8788:8807   */\n      mstore\n        /* \"#utility.yul\":8840:8844   */\n      0x20\n        /* \"#utility.yul\":8835:8838   */\n      dup3\n        /* \"#utility.yul\":8831:8845   */\n      add\n        /* \"#utility.yul\":8816:8845   */\n      swap1\n      pop\n        /* \"#utility.yul\":8682:8851   */\n      swap3\n      swap2\n      pop\n      pop\n      jump\t// out\n        /* \"#utility.yul\":8857:8953   */\n    tag_154:\n        /* \"#utility.yul\":8894:8901   */\n      0x00\n        /* \"#utility.yul\":8923:8947   */\n      tag_156\n        /* \"#utility.yul\":8941:8946   */\n      dup3\n        /* \"#utility.yul\":8923:8947   */\n      tag_157\n      jump\t// in\n    tag_156:\n        /* \"#utility.yul\":8912:8947   */\n      swap1\n      pop\n        /* \"#utility.yul\":8857:8953   */\n      swap2\n      swap1\n      pop\n      jump\t// out\n        /* \"#utility.yul\":8959:9085   */\n    tag_157:\n        /* \"#utility.yul\":8996:9003   */\n      0x00\n        /* \"#utility.yul\":9036:9078   */\n      0xffffffffffffffffffffffffffffffffffffffff\n        /* \"#utility.yul\":9029:9034   */\n      dup3\n        /* \"#utility.yul\":9025:9079   */\n      and\n        /* \"#utility.yul\":9014:9079   */\n      swap1\n      pop\n        /* \"#utility.yul\":8959:9085   */\n      swap2\n      swap1\n      pop\n      jump\t// out\n        /* \"#utility.yul\":9091:9168   */\n    tag_159:\n        /* \"#utility.yul\":9128:9135   */\n      0x00\n        /* \"#utility.yul\":9157:9162   */\n      dup2\n        /* \"#utility.yul\":9146:9162   */\n      swap1\n      pop\n        /* \"#utility.yul\":9091:9168   */\n      swap2\n      swap1\n      pop\n      jump\t// out\n        /* \"#utility.yul\":9174:9328   */\n    tag_105:\n        /* \"#utility.yul\":9258:9264   */\n      dup3\n        /* \"#utility.yul\":9253:9256   */\n      dup2\n        /* \"#utility.yul\":9248:9251   */\n      dup4\n        /* \"#utility.yul\":9235:9265   */\n      calldatacopy\n        /* \"#utility.yul\":9320:9321   */\n      0x00\n        /* \"#utility.yul\":9311:9317   */\n      dup4\n        /* \"#utility.yul\":9306:9309   */\n      dup4\n        /* \"#utility.yul\":9302:9318   */\n      add\n        /* \"#utility.yul\":9295:9322   */\n      mstore\n        /* \"#utility.yul\":9174:9328   */\n      pop\n      pop\n      pop\n      jump\t// out\n        /* \"#utility.yul\":9334:9641   */\n    tag_112:\n        /* \"#utility.yul\":9402:9403   */\n      0x00\n        /* \"#utility.yul\":9412:9525   */\n    tag_163:\n        /* \"#utility.yul\":9426:9432   */\n      dup4\n        /* \"#utility.yul\":9423:9424   */\n      dup2\n        /* \"#utility.yul\":9420:9433   */\n      lt\n        /* \"#utility.yul\":9412:9525   */\n      iszero\n      tag_165\n      jumpi\n        /* \"#utility.yul\":9511:9512   */\n      dup1\n        /* \"#utility.yul\":9506:9509   */\n      dup3\n        /* \"#utility.yul\":9502:9513   */\n      add\n        /* \"#utility.yul\":9496:9514   */\n      mload\n        /* \"#utility.yul\":9492:9493   */\n      dup2\n        /* \"#utility.yul\":9487:9490   */\n      dup5\n        /* \"#utility.yul\":9483:9494   */\n      add\n        /* \"#utility.yul\":9476:9515   */\n      mstore\n        /* \"#utility.yul\":9448:9450   */\n      0x20\n        /* \"#utility.yul\":9445:9446   */\n      dup2\n        /* \"#utility.yul\":9441:9451   */\n      add\n        /* \"#utility.yul\":9436:9451   */\n      swap1\n      pop\n        /* \"#utility.yul\":9412:9525   */\n      jump(tag_163)\n    tag_165:\n        /* \"#utility.yul\":9543:9549   */\n      dup4\n        /* \"#utility.yul\":9540:9541   */\n      dup2\n        /* \"#utility.yul\":9537:9550   */\n      gt\n        /* \"#utility.yul\":9534:9635   */\n      iszero\n      tag_166\n      jumpi\n        /* \"#utility.yul\":9623:9624   */\n      0x00\n        /* \"#utility.yul\":9614:9620   */\n      dup5\n        /* \"#utility.yul\":9609:9612   */\n      dup5\n        /* \"#utility.yul\":9605:9621   */\n      add\n        /* \"#utility.yul\":9598:9625   */\n      mstore\n        /* \"#utility.yul\":9534:9635   */\n    tag_166:\n        /* \"#utility.yul\":9383:9641   */\n      pop\n        /* \"#utility.yul\":9334:9641   */\n      pop\n      pop\n      pop\n      jump\t// out\n        /* \"#utility.yul\":9647:9880   */\n    tag_42:\n        /* \"#utility.yul\":9686:9689   */\n      0x00\n        /* \"#utility.yul\":9709:9733   */\n      tag_168\n        /* \"#utility.yul\":9727:9732   */\n      dup3\n        /* \"#utility.yul\":9709:9733   */\n      tag_159\n      jump\t// in\n    tag_168:\n        /* \"#utility.yul\":9700:9733   */\n      swap2\n      pop\n        /* \"#utility.yul\":9755:9821   */\n      0xffffffffffffffffffffffffffffffffffffffffffffffffffffffffffffffff\n        /* \"#utility.yul\":9748:9753   */\n      dup3\n        /* \"#utility.yul\":9745:9822   */\n      eq\n        /* \"#utility.yul\":9742:9845   */\n      iszero\n      tag_169\n      jumpi\n        /* \"#utility.yul\":9825:9843   */\n      tag_170\n      tag_171\n      jump\t// in\n    tag_170:\n        /* \"#utility.yul\":9742:9845   */\n    tag_169:\n        /* \"#utility.yul\":9872:9873   */\n      0x01\n        /* \"#utility.yul\":9865:9870   */\n      dup3\n        /* \"#utility.yul\":9861:9874   */\n      add\n        /* \"#utility.yul\":9854:9874   */\n      swap1\n      pop\n        /* \"#utility.yul\":9647:9880   */\n      swap2\n      swap1\n      pop\n      jump\t// out\n        /* \"#utility.yul\":9886:10066   */\n    tag_171:\n        /* \"#utility.yul\":9934:10011   */\n      0x4e487b7100000000000000000000000000000000000000000000000000000000\n        /* \"#utility.yul\":9931:9932   */\n      0x00\n        /* \"#utility.yul\":9924:10012   */\n      mstore\n        /* \"#utility.yul\":10031:10035   */\n      0x11\n        /* \"#utility.yul\":10028:10029   */\n      0x04\n        /* \"#utility.yul\":10021:10036   */\n      mstore\n        /* \"#utility.yul\":10055:10059   */\n      0x24\n        /* \"#utility.yul\":10052:10053   */\n      0x00\n        /* \"#utility.yul\":10045:10060   */\n      revert\n        /* \"#utility.yul\":10072:10252   */\n    tag_24:\n        /* \"#utility.yul\":10120:10197   */\n      0x4e487b7100000000000000000000000000000000000000000000000000000000\n        /* \"#utility.yul\":10117:10118   */\n      0x00\n        /* \"#utility.yul\":10110:10198   */\n      mstore\n        /* \"#utility.yul\":10217:10221   */\n      0x32\n        /* \"#utility.yul\":10214:10215   */\n      0x04\n        /* \"#utility.yul\":10207:10222   */\n      mstore\n        /* \"#utility.yul\":10241:10245   */\n      0x24\n        /* \"#utility.yul\":10238:10239   */\n      0x00\n        /* \"#utility.yul\":10231:10246   */\n      revert\n        /* \"#utility.yul\":10258:10438   */\n    tag_16:\n        /* \"#utility.yul\":10306:10383   */\n      0x4e487b7100000000000000000000000000000000000000000000000000000000\n        /* \"#utility.yul\":10303:10304   */\n      0x00\n        /* \"#utility.yul\":10296:10384   */\n      mstore\n        /* \"#utility.yul\":10403:10407   */\n      0x41\n        /* \"#utility.yul\":10400:10401   */\n      0x04\n        /* \"#utility.yul\":10393:10408   */\n      mstore\n        /* \"#utility.yul\":10427:10431   */\n      0x24\n        /* \"#utility.yul\":10424:10425   */\n      0x00\n        /* \"#utility.yul\":10417:10432   */\n      revert\n        /* \"#utility.yul\":10444:10561   */\n    tag_55:\n        /* \"#utility.yul\":10553:10554   */\n      0x00\n        /* \"#utility.yul\":10550:10551   */\n      dup1\n        /* \"#utility.yul\":10543:10555   */\n      revert\n        /* \"#utility.yul\":10567:10684   */\n    tag_52:\n        /* \"#utility.yul\":10676:10677   */\n      0x00\n        /* \"#utility.yul\":10673:10674   */\n      dup1\n        /* \"#utility.yul\":10666:10678   */\n      revert\n        /* \"#utility.yul\":10690:10807   */\n    tag_140:\n        /* \"#utility.yul\":10799:10800   */\n      0x00\n        /* \"#utility.yul\":10796:10797   */\n      dup1\n        /* \"#utility.yul\":10789:10801   */\n      revert\n        /* \"#utility.yul\":10813:10930   */\n    tag_137:\n        /* \"#utility.yul\":10922:10923   */\n      0x00\n        /* \"#utility.yul\":10919:10920   */\n      dup1\n        /* \"#utility.yul\":10912:10924   */\n      revert\n        /* \"#utility.yul\":10936:11053   */\n    tag_58:\n        /* \"#utility.yul\":11045:11046   */\n      0x00\n        /* \"#utility.yul\":11042:11043   */\n      dup1\n        /* \"#utility.yul\":11035:11047   */\n      revert\n        /* \"#utility.yul\":11059:11176   */\n    tag_143:\n        /* \"#utility.yul\":11168:11169   */\n      0x00\n        /* \"#utility.yul\":11165:11166   */\n      dup1\n        /* \"#utility.yul\":11158:11170   */\n      revert\n        /* \"#utility.yul\":11182:11299   */\n    tag_77:\n        /* \"#utility.yul\":11291:11292   */\n      0x00\n        /* \"#utility.yul\":11288:11289   */\n      dup1\n        /* \"#utility.yul\":11281:11293   */\n      revert\n        /* \"#utility.yul\":11305:11422   */\n    tag_70:\n        /* \"#utility.yul\":11414:11415   */\n      0x00\n        /* \"#utility.yul\":11411:11412   */\n      dup1\n        /* \"#utility.yul\":11404:11416   */\n      revert\n        /* \"#utility.yul\":11428:11530   */\n    tag_114:\n        /* \"#utility.yul\":11469:11475   */\n      0x00\n        /* \"#utility.yul\":11520:11522   */\n      0x1f\n        /* \"#utility.yul\":11516:11523   */\n      not\n        /* \"#utility.yul\":11511:11513   */\n      0x1f\n        /* \"#utility.yul\":11504:11509   */\n      dup4\n        /* \"#utility.yul\":11500:11514   */\n      add\n        /* \"#utility.yul\":11496:11524   */\n      and\n        /* \"#utility.yul\":11486:11524   */\n      swap1\n      pop\n        /* \"#utility.yul\":11428:11530   */\n      swap2\n      swap1\n      pop\n      jump\t// out\n        /* \"#utility.yul\":11536:11697   */\n    tag_120:\n        /* \"#utility.yul\":11676:11689   */\n      0x63616c6c206661696c6564000000000000000000000000000000000000000000\n        /* \"#utility.yul\":11672:11673   */\n      0x00\n        /* \"#utility.yul\":11664:11670   */\n      dup3\n        /* \"#utility.yul\":11660:11674   */\n      add\n        /* \"#utility.yul\":11653:11690   */\n      mstore\n        /* \"#utility.yul\":11536:11697   */\n      pop\n      jump\t// out\n        /* \"#utility.yul\":11703:11881   */\n    tag_125:\n        /* \"#utility.yul\":11843:11873   */\n      0x746172676574206c656e67746820213d2064617461206c656e67746800000000\n        /* \"#utility.yul\":11839:11840   */\n      0x00\n        /* \"#utility.yul\":11831:11837   */\n      dup3\n        /* \"#utility.yul\":11827:11841   */\n      add\n        /* \"#utility.yul\":11820:11874   */\n      mstore\n        /* \"#utility.yul\":11703:11881   */\n      pop\n      jump\t// out\n        /* \"#utility.yul\":11887:12009   */\n    tag_47:\n        /* \"#utility.yul\":11960:11984   */\n      tag_187\n        /* \"#utility.yul\":11978:11983   */\n      dup2\n        /* \"#utility.yul\":11960:11984   */\n      tag_154\n      jump\t// in\n    tag_187:\n        /* \"#utility.yul\":11953:11958   */\n      dup2\n        /* \"#utility.yul\":11950:11985   */\n      eq\n        /* \"#utility.yul\":11940:12003   */\n      tag_188\n      jumpi\n        /* \"#utility.yul\":11999:12000   */\n      0x00\n        /* \"#utility.yul\":11996:11997   */\n      dup1\n        /* \"#utility.yul\":11989:12001   */\n      revert\n        /* \"#utility.yul\":11940:12003   */\n    tag_188:\n        /* \"#utility.yul\":11887:12009   */\n      pop\n      jump\t// out\n\n    auxdata: 0xa2646970667358221220516efa417c68403327aa09b09d109e30bd2cedfa4fb44dd69cc3f4bb75a1848864736f6c63430008070033\n}\n",
				"bytecode": {
					"linkReferences": {},
					"object": "608060405234801561001057600080fd5b5061085e806100206000396000f3fe608060405234801561001057600080fd5b506004361061002b5760003560e01c8063da5b4ffd14610030575b600080fd5b61004a60048036038101906100459190610335565b610060565b60405161005791906104fc565b60405180910390f35b60608282905085859050146100aa576040517f08c379a00000000000000000000000000000000000000000000000000000000081526004016100a19061053e565b60405180910390fd5b60008383905067ffffffffffffffff8111156100c9576100c8610757565b5b6040519080825280602002602001820160405280156100fc57816020015b60608152602001906001900390816100e75790505b50905060005b8686905081101561023a5760008088888481811061012357610122610728565b5b90506020020160208101906101389190610308565b73ffffffffffffffffffffffffffffffffffffffff1687878581811061016157610160610728565b5b9050602002810190610173919061055e565b6040516101819291906104e3565b600060405180830381855afa9150503d80600081146101bc576040519150601f19603f3d011682016040523d82523d6000602084013e6101c1565b606091505b509150915081610206576040517f08c379a00000000000000000000000000000000000000000000000000000000081526004016101fd9061051e565b60405180910390fd5b8084848151811061021a57610219610728565b5b602002602001018190525050508080610232906106b0565b915050610102565b5080915050949350505050565b60008135905061025681610811565b92915050565b60008083601f8401126102725761027161078b565b5b8235905067ffffffffffffffff81111561028f5761028e610786565b5b6020830191508360208202830111156102ab576102aa61079a565b5b9250929050565b60008083601f8401126102c8576102c761078b565b5b8235905067ffffffffffffffff8111156102e5576102e4610786565b5b6020830191508360208202830111156103015761030061079a565b5b9250929050565b60006020828403121561031e5761031d6107a9565b5b600061032c84828501610247565b91505092915050565b6000806000806040858703121561034f5761034e6107a9565b5b600085013567ffffffffffffffff81111561036d5761036c6107a4565b5b6103798782880161025c565b9450945050602085013567ffffffffffffffff81111561039c5761039b6107a4565b5b6103a8878288016102b2565b925092505092959194509250565b60006103c28383610464565b905092915050565b60006103d5826105d1565b6103df81856105f4565b9350836020820285016103f1856105c1565b8060005b8581101561042d578484038952815161040e85826103b6565b9450610419836105e7565b925060208a019950506001810190506103f5565b50829750879550505050505092915050565b600061044b8385610616565b935061045883858461066e565b82840190509392505050565b600061046f826105dc565b6104798185610605565b935061048981856020860161067d565b610492816107ae565b840191505092915050565b60006104aa600b83610621565b91506104b5826107bf565b602082019050919050565b60006104cd601c83610621565b91506104d8826107e8565b602082019050919050565b60006104f082848661043f565b91508190509392505050565b6000602082019050818103600083015261051681846103ca565b905092915050565b600060208201905081810360008301526105378161049d565b9050919050565b60006020820190508181036000830152610557816104c0565b9050919050565b6000808335600160200384360303811261057b5761057a610795565b5b80840192508235915067ffffffffffffffff82111561059d5761059c610790565b5b6020830192506001820236038313156105b9576105b861079f565b5b509250929050565b6000819050602082019050919050565b600081519050919050565b600081519050919050565b6000602082019050919050565b600082825260208201905092915050565b600082825260208201905092915050565b600081905092915050565b600082825260208201905092915050565b600061063d82610644565b9050919050565b600073ffffffffffffffffffffffffffffffffffffffff82169050919050565b6000819050919050565b82818337600083830152505050565b60005b8381101561069b578082015181840152602081019050610680565b838111156106aa576000848401525b50505050565b60006106bb82610664565b91507fffffffffffffffffffffffffffffffffffffffffffffffffffffffffffffffff8214156106ee576106ed6106f9565b5b600182019050919050565b7f4e487b7100000000000000000000000000000000000000000000000000000000600052601160045260246000fd5b7f4e487b7100000000000000000000000000000000000000000000000000000000600052603260045260246000fd5b7f4e487b7100000000000000000000000000000000000000000000000000000000600052604160045260246000fd5b600080fd5b600080fd5b600080fd5b600080fd5b600080fd5b600080fd5b600080fd5b600080fd5b6000601f19601f8301169050919050565b7f63616c6c206661696c6564000000000000000000000000000000000000000000600082015250565b7f746172676574206c656e67746820213d2064617461206c656e67746800000000600082015250565b61081a81610632565b811461082557600080fd5b5056fea2646970667358221220516efa417c68403327aa09b09d109e30bd2cedfa4fb44dd69cc3f4bb75a1848864736f6c63430008070033",
					"opcodes": "PUSH1 0x80 PUSH1 0x40 MSTORE CALLVALUE DUP1 ISZERO PUSH2 0x10 JUMPI PUSH1 0x0 DUP1 REVERT JUMPDEST POP PUSH2 0x85E DUP1 PUSH2 0x20 PUSH1 0x0 CODECOPY PUSH1 0x0 RETURN INVALID PUSH1 0x80 PUSH1 0x40 MSTORE CALLVALUE DUP1 ISZERO PUSH2 0x10 JUMPI PUSH1 0x0 DUP1 REVERT JUMPDEST POP PUSH1 0x4 CALLDATASIZE LT PUSH2 0x2B JUMPI PUSH1 0x0 CALLDATALOAD PUSH1 0xE0 SHR DUP1 PUSH4 0xDA5B4FFD EQ PUSH2 0x30 JUMPI JUMPDEST PUSH1 0x0 DUP1 REVERT JUMPDEST PUSH2 0x4A PUSH1 0x4 DUP1 CALLDATASIZE SUB DUP2 ADD SWAP1 PUSH2 0x45 SWAP2 SWAP1 PUSH2 0x335 JUMP JUMPDEST PUSH2 0x60 JUMP JUMPDEST PUSH1 0x40 MLOAD PUSH2 0x57 SWAP2 SWAP1 PUSH2 0x4FC JUMP JUMPDEST PUSH1 0x40 MLOAD DUP1 SWAP2 SUB SWAP1 RETURN JUMPDEST PUSH1 0x60 DUP3 DUP3 SWAP1 POP DUP6 DUP6 SWAP1 POP EQ PUSH2 0xAA JUMPI PUSH1 0x40 MLOAD PUSH32 0x8C379A000000000000000000000000000000000000000000000000000000000 DUP2 MSTORE PUSH1 0x4 ADD PUSH2 0xA1 SWAP1 PUSH2 0x53E JUMP JUMPDEST PUSH1 0x40 MLOAD DUP1 SWAP2 SUB SWAP1 REVERT JUMPDEST PUSH1 0x0 DUP4 DUP4 SWAP1 POP PUSH8 0xFFFFFFFFFFFFFFFF DUP2 GT ISZERO PUSH2 0xC9 JUMPI PUSH2 0xC8 PUSH2 0x757 JUMP JUMPDEST JUMPDEST PUSH1 0x40 MLOAD SWAP1 DUP1 DUP3 MSTORE DUP1 PUSH1 0x20 MUL PUSH1 0x20 ADD DUP3 ADD PUSH1 0x40 MSTORE DUP1 ISZERO PUSH2 0xFC JUMPI DUP2 PUSH1 0x20 ADD JUMPDEST PUSH1 0x60 DUP2 MSTORE PUSH1 0x20 ADD SWAP1 PUSH1 0x1 SWAP1 SUB SWAP1 DUP2 PUSH2 0xE7 JUMPI SWAP1 POP JUMPDEST POP SWAP1 POP PUSH1 0x0 JUMPDEST DUP7 DUP7 SWAP1 POP DUP2 LT ISZERO PUSH2 0x23A JUMPI PUSH1 0x0 DUP1 DUP9 DUP9 DUP5 DUP2 DUP2 LT PUSH2 0x123 JUMPI PUSH2 0x122 PUSH2 0x728 JUMP JUMPDEST JUMPDEST SWAP1 POP PUSH1 0x20 MUL ADD PUSH1 0x20 DUP2 ADD SWAP1 PUSH2 0x138 SWAP2 SWAP1 PUSH2 0x308 JUMP JUMPDEST PUSH20 0xFFFFFFFFFFFFFFFFFFFFFFFFFFFFFFFFFFFFFFFF AND DUP8 DUP8 DUP6 DUP2 DUP2 LT PUSH2 0x161 JUMPI PUSH2 0x160 PUSH2 0x728 JUMP JUMPDEST JUMPDEST SWAP1 POP PUSH1 0x20 MUL DUP2 ADD SWAP1 PUSH2 0x173 SWAP2 SWAP1 PUSH2 0x55E JUMP JUMPDEST PUSH1 0x40 MLOAD PUSH2 0x181 SWAP3 SWAP2 SWAP1 PUSH2 0x4E3 JUMP JUMPDEST PUSH1 0x0 PUSH1 0x40 MLOAD DUP1 DUP4 SUB DUP2 DUP6 GAS STATICCALL SWAP2 POP POP RETURNDATASIZE DUP1 PUSH1 0x0 DUP2 EQ PUSH2 0x1BC JUMPI PUSH1 0x40 MLOAD SWAP2 POP PUSH1 0x1F NOT PUSH1 0x3F RETURNDATASIZE ADD AND DUP3 ADD PUSH1 0x40 MSTORE RETURNDATASIZE DUP3 MSTORE RETURNDATASIZE PUSH1 0x0 PUSH1 0x20 DUP5 ADD RETURNDATACOPY PUSH2 0x1C1 JUMP JUMPDEST PUSH1 0x60 SWAP2 POP JUMPDEST POP SWAP2 POP SWAP2 POP DUP2 PUSH2 0x206 JUMPI PUSH1 0x40 MLOAD PUSH32 0x8C379A000000000000000000000000000000000000000000000000000000000 DUP2 MSTORE PUSH1 0x4 ADD PUSH2 0x1FD SWAP1 PUSH2 0x51E JUMP JUMPDEST PUSH1 0x40 MLOAD DUP1 SWAP2 SUB SWAP1 REVERT JUMPDEST DUP1 DUP5 DUP5 DUP2 MLOAD DUP2 LT PUSH2 0x21A JUMPI PUSH2 0x219 PUSH2 0x728 JUMP JUMPDEST JUMPDEST PUSH1 0x20 MUL PUSH1 0x20 ADD ADD DUP2 SWAP1 MSTORE POP POP POP DUP1 DUP1 PUSH2 0x232 SWAP1 PUSH2 0x6B0 JUMP JUMPDEST SWAP2 POP POP PUSH2 0x102 JUMP JUMPDEST POP DUP1 SWAP2 POP POP SWAP5 SWAP4 POP POP POP POP JUMP JUMPDEST PUSH1 0x0 DUP2 CALLDATALOAD SWAP1 POP PUSH2 0x256 DUP2 PUSH2 0x811 JUMP JUMPDEST SWAP3 SWAP2 POP POP JUMP JUMPDEST PUSH1 0x0 DUP1 DUP4 PUSH1 0x1F DUP5 ADD SLT PUSH2 0x272 JUMPI PUSH2 0x271 PUSH2 0x78B JUMP JUMPDEST JUMPDEST DUP3 CALLDATALOAD SWAP1 POP PUSH8 0xFFFFFFFFFFFFFFFF DUP2 GT ISZERO PUSH2 0x28F JUMPI PUSH2 0x28E PUSH2 0x786 JUMP JUMPDEST JUMPDEST PUSH1 0x20 DUP4 ADD SWAP2 POP DUP4 PUSH1 0x20 DUP3 MUL DUP4 ADD GT ISZERO PUSH2 0x2AB JUMPI PUSH2 0x2AA PUSH2 0x79A JUMP JUMPDEST JUMPDEST SWAP3 POP SWAP3 SWAP1 POP JUMP JUMPDEST PUSH1 0x0 DUP1 DUP4 PUSH1 0x1F DUP5 ADD SLT PUSH2 0x2C8 JUMPI PUSH2 0x2C7 PUSH2 0x78B JUMP JUMPDEST JUMPDEST DUP3 CALLDATALOAD SWAP1 POP PUSH8 0xFFFFFFFFFFFFFFFF DUP2 GT ISZERO PUSH2 0x2E5 JUMPI PUSH2 0x2E4 PUSH2 0x786 JUMP JUMPDEST JUMPDEST PUSH1 0x20 DUP4 ADD SWAP2 POP DUP4 PUSH1 0x20 DUP3 MUL DUP4 ADD GT ISZERO PUSH2 0x301 JUMPI PUSH2 0x300 PUSH2 0x79A JUMP JUMPDEST JUMPDEST SWAP3 POP SWAP3 SWAP1 POP JUMP JUMPDEST PUSH1 0x0 PUSH1 0x20 DUP3 DUP5 SUB SLT ISZERO PUSH2 0x31E JUMPI PUSH2 0x31D PUSH2 0x7A9 JUMP JUMPDEST JUMPDEST PUSH1 0x0 PUSH2 0x32C DUP5 DUP3 DUP6 ADD PUSH2 0x247 JUMP JUMPDEST SWAP2 POP POP SWAP3 SWAP2 POP POP JUMP JUMPDEST PUSH1 0x0 DUP1 PUSH1 0x0 DUP1 PUSH1 0x40 DUP6 DUP8 SUB SLT ISZERO PUSH2 0x34F JUMPI PUSH2 0x34E PUSH2 0x7A9 JUMP JUMPDEST JUMPDEST PUSH1 0x0 DUP6 ADD CALLDATALOAD PUSH8 0xFFFFFFFFFFFFFFFF DUP2 GT ISZERO PUSH2 0x36D JUMPI PUSH2 0x36C PUSH2 0x7A4 JUMP JUMPDEST JUMPDEST PUSH2 0x379 DUP8 DUP3 DUP9 ADD PUSH2 0x25C JUMP JUMPDEST SWAP5 POP SWAP5 POP POP PUSH1 0x20 DUP6 ADD CALLDATALOAD PUSH8 0xFFFFFFFFFFFFFFFF DUP2 GT ISZERO PUSH2 0x39C JUMPI PUSH2 0x39B PUSH2 0x7A4 JUMP JUMPDEST JUMPDEST PUSH2 0x3A8 DUP8 DUP3 DUP9 ADD PUSH2 0x2B2 JUMP JUMPDEST SWAP3 POP SWAP3 POP POP SWAP3 SWAP6 SWAP2 SWAP5 POP SWAP3 POP JUMP JUMPDEST PUSH1 0x0 PUSH2 0x3C2 DUP4 DUP4 PUSH2 0x464 JUMP JUMPDEST SWAP1 POP SWAP3 SWAP2 POP POP JUMP JUMPDEST PUSH1 0x0 PUSH2 0x3D5 DUP3 PUSH2 0x5D1 JUMP JUMPDEST PUSH2 0x3DF DUP2 DUP6 PUSH2 0x5F4 JUMP JUMPDEST SWAP4 POP DUP4 PUSH1 0x20 DUP3 MUL DUP6 ADD PUSH2 0x3F1 DUP6 PUSH2 0x5C1 JUMP JUMPDEST DUP1 PUSH1 0x0 JUMPDEST DUP6 DUP2 LT ISZERO PUSH2 0x42D JUMPI DUP5 DUP5 SUB DUP10 MSTORE DUP2 MLOAD PUSH2 0x40E DUP6 DUP3 PUSH2 0x3B6 JUMP JUMPDEST SWAP5 POP PUSH2 0x419 DUP4 PUSH2 0x5E7 JUMP JUMPDEST SWAP3 POP PUSH1 0x20 DUP11 ADD SWAP10 POP POP PUSH1 0x1 DUP2 ADD SWAP1 POP PUSH2 0x3F5 JUMP JUMPDEST POP DUP3 SWAP8 POP DUP8 SWAP6 POP POP POP POP POP POP SWAP3 SWAP2 POP POP JUMP JUMPDEST PUSH1 0x0 PUSH2 0x44B DUP4 DUP6 PUSH2 0x616 JUMP JUMPDEST SWAP4 POP PUSH2 0x458 DUP4 DUP6 DUP5 PUSH2 0x66E JUMP JUMPDEST DUP3 DUP5 ADD SWAP1 POP SWAP4 SWAP3 POP POP POP JUMP JUMPDEST PUSH1 0x0 PUSH2 0x46F DUP3 PUSH2 0x5DC JUMP JUMPDEST PUSH2 0x479 DUP2 DUP6 PUSH2 0x605 JUMP JUMPDEST SWAP4 POP PUSH2 0x489 DUP2 DUP6 PUSH1 0x20 DUP7 ADD PUSH2 0x67D JUMP JUMPDEST PUSH2 0x492 DUP2 PUSH2 0x7AE JUMP JUMPDEST DUP5 ADD SWAP2 POP POP SWAP3 SWAP2 POP POP JUMP JUMPDEST PUSH1 0x0 PUSH2 0x4AA PUSH1 0xB DUP4 PUSH2 0x621 JUMP JUMPDEST SWAP2 POP PUSH2 0x4B5 DUP3 PUSH2 0x7BF JUMP JUMPDEST PUSH1 0x20 DUP3 ADD SWAP1 POP SWAP2 SWAP1 POP JUMP JUMPDEST PUSH1 0x0 PUSH2 0x4CD PUSH1 0x1C DUP4 PUSH2 0x621 JUMP JUMPDEST SWAP2 POP PUSH2 0x4D8 DUP3 PUSH2 0x7E8 JUMP JUMPDEST PUSH1 0x20 DUP3 ADD SWAP1 POP SWAP2 SWAP1 POP JUMP JUMPDEST PUSH1 0x0 PUSH2 0x4F0 DUP3 DUP5 DUP7 PUSH2 0x43F JUMP JUMPDEST SWAP2 POP DUP2 SWAP1 POP SWAP4 SWAP3 POP POP POP JUMP JUMPDEST PUSH1 0x0 PUSH1 0x20 DUP3 ADD SWAP1 POP DUP2 DUP2 SUB PUSH1 0x0 DUP4 ADD MSTORE PUSH2 0x516 DUP2 DUP5 PUSH2 0x3CA JUMP JUMPDEST SWAP1 POP SWAP3 SWAP2 POP POP JUMP JUMPDEST PUSH1 0x0 PUSH1 0x20 DUP3 ADD SWAP1 POP DUP2 DUP2 SUB PUSH1 0x0 DUP4 ADD MSTORE PUSH2 0x537 DUP2 PUSH2 0x49D JUMP JUMPDEST SWAP1 POP SWAP2 SWAP1 POP JUMP JUMPDEST PUSH1 0x0 PUSH1 0x20 DUP3 ADD SWAP1 POP DUP2 DUP2 SUB PUSH1 0x0 DUP4 ADD MSTORE PUSH2 0x557 DUP2 PUSH2 0x4C0 JUMP JUMPDEST SWAP1 POP SWAP2 SWAP1 POP JUMP JUMPDEST PUSH1 0x0 DUP1 DUP4 CALLDATALOAD PUSH1 0x1 PUSH1 0x20 SUB DUP5 CALLDATASIZE SUB SUB DUP2 SLT PUSH2 0x57B JUMPI PUSH2 0x57A PUSH2 0x795 JUMP JUMPDEST JUMPDEST DUP1 DUP5 ADD SWAP3 POP DUP3 CALLDATALOAD SWAP2 POP PUSH8 0xFFFFFFFFFFFFFFFF DUP3 GT ISZERO PUSH2 0x59D JUMPI PUSH2 0x59C PUSH2 0x790 JUMP JUMPDEST JUMPDEST PUSH1 0x20 DUP4 ADD SWAP3 POP PUSH1 0x1 DUP3 MUL CALLDATASIZE SUB DUP4 SGT ISZERO PUSH2 0x5B9 JUMPI PUSH2 0x5B8 PUSH2 0x79F JUMP JUMPDEST JUMPDEST POP SWAP3 POP SWAP3 SWAP1 POP JUMP JUMPDEST PUSH1 0x0 DUP2 SWAP1 POP PUSH1 0x20 DUP3 ADD SWAP1 POP SWAP2 SWAP1 POP JUMP JUMPDEST PUSH1 0x0 DUP2 MLOAD SWAP1 POP SWAP2 SWAP1 POP JUMP JUMPDEST PUSH1 0x0 DUP2 MLOAD SWAP1 POP SWAP2 SWAP1 POP JUMP JUMPDEST PUSH1 0x0 PUSH1 0x20 DUP3 ADD SWAP1 POP SWAP2 SWAP1 POP JUMP JUMPDEST PUSH1 0x0 DUP3 DUP3 MSTORE PUSH1 0x20 DUP3 ADD SWAP1 POP SWAP3 SWAP2 POP POP JUMP JUMPDEST PUSH1 0x0 DUP3 DUP3 MSTORE PUSH1 0x20 DUP3 ADD SWAP1 POP SWAP3 SWAP2 POP POP JUMP JUMPDEST PUSH1 0x0 DUP2 SWAP1 POP SWAP3 SWAP2 POP POP JUMP JUMPDEST PUSH1 0x0 DUP3 DUP3 MSTORE PUSH1 0x20 DUP3 ADD SWAP1 POP SWAP3 SWAP2 POP POP JUMP JUMPDEST PUSH1 0x0 PUSH2 0x63D DUP3 PUSH2 0x644 JUMP JUMPDEST SWAP1 POP SWAP2 SWAP1 POP JUMP JUMPDEST PUSH1 0x0 PUSH20 0xFFFFFFFFFFFFFFFFFFFFFFFFFFFFFFFFFFFFFFFF DUP3 AND SWAP1 POP SWAP2 SWAP1 POP JUMP JUMPDEST PUSH1 0x0 DUP2 SWAP1 POP SWAP2 SWAP1 POP JUMP JUMPDEST DUP3 DUP2 DUP4 CALLDATACOPY PUSH1 0x0 DUP4 DUP4 ADD MSTORE POP POP POP JUMP JUMPDEST PUSH1 0x0 JUMPDEST DUP4 DUP2 LT ISZERO PUSH2 0x69B JUMPI DUP1 DUP3 ADD MLOAD DUP2 DUP5 ADD MSTORE PUSH1 0x20 DUP2 ADD SWAP1 POP PUSH2 0x680 JUMP JUMPDEST DUP4 DUP2 GT ISZERO PUSH2 0x6AA JUMPI PUSH1 0x0 DUP5 DUP5 ADD MSTORE JUMPDEST POP POP POP POP JUMP JUMPDEST PUSH1 0x0 PUSH2 0x6BB DUP3 PUSH2 0x664 JUMP JUMPDEST SWAP2 POP PUSH32 0xFFFFFFFFFFFFFFFFFFFFFFFFFFFFFFFFFFFFFFFFFFFFFFFFFFFFFFFFFFFFFFFF DUP3 EQ ISZERO PUSH2 0x6EE JUMPI PUSH2 0x6ED PUSH2 0x6F9 JUMP JUMPDEST JUMPDEST PUSH1 0x1 DUP3 ADD SWAP1 POP SWAP2 SWAP1 POP JUMP JUMPDEST PUSH32 0x4E487B7100000000000000000000000000000000000000000000000000000000 PUSH1 0x0 MSTORE PUSH1 0x11 PUSH1 0x4 MSTORE PUSH1 0x24 PUSH1 0x0 REVERT JUMPDEST PUSH32 0x4E487B7100000000000000000000000000000000000000000000000000000000 PUSH1 0x0 MSTORE PUSH1 0x32 PUSH1 0x4 MSTORE PUSH1 0x24 PUSH1 0x0 REVERT JUMPDEST PUSH32 0x4E487B7100000000000000000000000000000000000000000000000000000000 PUSH1 0x0 MSTORE PUSH1 0x41 PUSH1 0x4 MSTORE PUSH1 0x24 PUSH1 0x0 REVERT JUMPDEST PUSH1 0x0 DUP1 REVERT JUMPDEST PUSH1 0x0 DUP1 REVERT JUMPDEST PUSH1 0x0 DUP1 REVERT JUMPDEST PUSH1 0x0 DUP1 REVERT JUMPDEST PUSH1 0x0 DUP1 REVERT JUMPDEST PUSH1 0x0 DUP1 REVERT JUMPDEST PUSH1 0x0 DUP1 REVERT JUMPDEST PUSH1 0x0 DUP1 REVERT JUMPDEST PUSH1 0x0 PUSH1 0x1F NOT PUSH1 0x1F DUP4 ADD AND SWAP1 POP SWAP2 SWAP1 POP JUMP JUMPDEST PUSH32 0x63616C6C206661696C6564000000000000000000000000000000000000000000 PUSH1 0x0 DUP3 ADD MSTORE POP JUMP JUMPDEST PUSH32 0x746172676574206C656E67746820213D2064617461206C656E67746800000000 PUSH1 0x0 DUP3 ADD MSTORE POP JUMP JUMPDEST PUSH2 0x81A DUP2 PUSH2 0x632 JUMP JUMPDEST DUP2 EQ PUSH2 0x825 JUMPI PUSH1 0x0 DUP1 REVERT JUMPDEST POP JUMP INVALID LOG2 PUSH5 0x6970667358 0x22 SLT KECCAK256 MLOAD PUSH15 0xFA417C68403327AA09B09D109E30BD 0x2C 0xED STATICCALL 0x4F 0xB4 0x4D 0xD6 SWAP13 0xC3 DELEGATECALL 0xBB PUSH22 0xA1848864736F6C634300080700330000000000000000 "
				},
				"gasEstimates": {
					"creation": {
						"codeDepositCost": "428400",
						"executionCost": "461",
						"totalCost": "428861"
					},
					"external": {
						"multiCall(address[],bytes[])": "infinite"
					}
				},
				"methodIdentifiers": {
					"multiCall(address[],bytes[])": "da5b4ffd"
				}
			},
			"storageLayout": {
				"storage": [],
				"types": null
			},
			"userdoc": {
				"kind": "user",
				"methods": {},
				"version": 1
			}
		}
	}
}