{
	"SCP/MultiCall.sol": {
		"TestMultiCall": {
			"abi": [
				{
					"inputs": [],
					"name": "func1",
					"outputs": [
						{
							"internalType": "uint256",
							"name": "",
							"type": "uint256"
						},
						{
							"internalType": "uint256",
							"name": "",
							"type": "uint256"
						}
					],
					"stateMutability": "view",
					"type": "function"
				},
				{
					"inputs": [],
					"name": "func2",
					"outputs": [
						{
							"internalType": "uint256",
							"name": "",
							"type": "uint256"
						},
						{
							"internalType": "uint256",
							"name": "",
							"type": "uint256"
						}
					],
					"stateMutability": "view",
					"type": "function"
				},
				{
					"inputs": [],
					"name": "getData1",
					"outputs": [
						{
							"internalType": "bytes",
							"name": "",
							"type": "bytes"
						}
					],
					"stateMutability": "pure",
					"type": "function"
				},
				{
					"inputs": [],
					"name": "getData2",
					"outputs": [
						{
							"internalType": "bytes",
							"name": "",
							"type": "bytes"
						}
					],
					"stateMutability": "pure",
					"type": "function"
				}
			],
			"devdoc": {
				"kind": "dev",
				"methods": {},
				"version": 1
			},
			"evm": {
				"assembly": "    /* \"SCP/MultiCall.sol\":58:548  contract TestMultiCall {... */\n  mstore(0x40, 0x80)\n  callvalue\n  dup1\n  iszero\n  tag_1\n  jumpi\n  0x00\n  dup1\n  revert\ntag_1:\n  pop\n  dataSize(sub_0)\n  dup1\n  dataOffset(sub_0)\n  0x00\n  codecopy\n  0x00\n  return\nstop\n\nsub_0: assembly {\n        /* \"SCP/MultiCall.sol\":58:548  contract TestMultiCall {... */\n      mstore(0x40, 0x80)\n      callvalue\n      dup1\n      iszero\n      tag_1\n      jumpi\n      0x00\n      dup1\n      revert\n    tag_1:\n      pop\n      jumpi(tag_2, lt(calldatasize, 0x04))\n      shr(0xe0, calldataload(0x00))\n      dup1\n      0x74135154\n      eq\n      tag_3\n      jumpi\n      dup1\n      0x9944cc71\n      eq\n      tag_4\n      jumpi\n      dup1\n      0xa898fd70\n      eq\n      tag_5\n      jumpi\n      dup1\n      0xb1ade4db\n      eq\n      tag_6\n      jumpi\n    tag_2:\n      0x00\n      dup1\n      revert\n        /* \"SCP/MultiCall.sol\":87:183  function func1() external view returns (uint, uint) {... */\n    tag_3:\n      tag_7\n      tag_8\n      jump\t// in\n    tag_7:\n      mload(0x40)\n      tag_9\n      swap3\n      swap2\n      swap1\n      tag_10\n      jump\t// in\n    tag_9:\n      mload(0x40)\n      dup1\n      swap2\n      sub\n      swap1\n      return\n        /* \"SCP/MultiCall.sol\":292:416  function getData1() external pure returns (bytes memory) {... */\n    tag_4:\n      tag_11\n      tag_12\n      jump\t// in\n    tag_11:\n      mload(0x40)\n      tag_13\n      swap2\n      swap1\n      tag_14\n      jump\t// in\n    tag_13:\n      mload(0x40)\n      dup1\n      swap2\n      sub\n      swap1\n      return\n        /* \"SCP/MultiCall.sol\":422:546  function getData2() external pure returns (bytes memory) {... */\n    tag_5:\n      tag_15\n      tag_16\n      jump\t// in\n    tag_15:\n      mload(0x40)\n      tag_17\n      swap2\n      swap1\n      tag_14\n      jump\t// in\n    tag_17:\n      mload(0x40)\n      dup1\n      swap2\n      sub\n      swap1\n      return\n        /* \"SCP/MultiCall.sol\":189:286  function func2() external view returns (uint , uint) {... */\n    tag_6:\n      tag_18\n      tag_19\n      jump\t// in\n    tag_18:\n      mload(0x40)\n      tag_20\n      swap3\n      swap2\n      swap1\n      tag_10\n      jump\t// in\n    tag_20:\n      mload(0x40)\n      dup1\n      swap2\n      sub\n      swap1\n      return\n        /* \"SCP/MultiCall.sol\":87:183  function func1() external view returns (uint, uint) {... */\n    tag_8:\n        /* \"SCP/MultiCall.sol\":127:131  uint */\n      0x00\n        /* \"SCP/MultiCall.sol\":133:137  uint */\n      dup1\n        /* \"SCP/MultiCall.sol\":157:158  1 */\n      0x01\n        /* \"SCP/MultiCall.sol\":160:175  block.timestamp */\n      timestamp\n        /* \"SCP/MultiCall.sol\":149:176  return (1, block.timestamp) */\n      swap2\n      pop\n      swap2\n      pop\n        /* \"SCP/MultiCall.sol\":87:183  function func1() external view returns (uint, uint) {... */\n      swap1\n      swap2\n      jump\t// out\n        /* \"SCP/MultiCall.sol\":292:416  function getData1() external pure returns (bytes memory) {... */\n    tag_12:\n        /* \"SCP/MultiCall.sol\":335:347  bytes memory */\n      0x60\n        /* \"SCP/MultiCall.sol\":389:408  this.func1.selector */\n      shl(0xe0, 0x74135154)\n        /* \"SCP/MultiCall.sol\":366:409  abi.encodeWithSelector(this.func1.selector) */\n      add(0x24, mload(0x40))\n      mload(0x40)\n      0x20\n      dup2\n      dup4\n      sub\n      sub\n      dup2\n      mstore\n      swap1\n      0x40\n      mstore\n      swap1\n      not(0xffffffffffffffffffffffffffffffffffffffffffffffffffffffff)\n      and\n      0x20\n      dup3\n      add\n      dup1\n      mload\n      0xffffffffffffffffffffffffffffffffffffffffffffffffffffffff\n      dup4\n      dup2\n      dup4\n      and\n      or\n      dup4\n      mstore\n      pop\n      pop\n      pop\n      pop\n        /* \"SCP/MultiCall.sol\":359:409  return abi.encodeWithSelector(this.func1.selector) */\n      swap1\n      pop\n        /* \"SCP/MultiCall.sol\":292:416  function getData1() external pure returns (bytes memory) {... */\n      swap1\n      jump\t// out\n        /* \"SCP/MultiCall.sol\":422:546  function getData2() external pure returns (bytes memory) {... */\n    tag_16:\n        /* \"SCP/MultiCall.sol\":465:477  bytes memory */\n      0x60\n        /* \"SCP/MultiCall.sol\":519:538  this.func2.selector */\n      shl(0xe0, 0xb1ade4db)\n        /* \"SCP/MultiCall.sol\":496:539  abi.encodeWithSelector(this.func2.selector) */\n      add(0x24, mload(0x40))\n      mload(0x40)\n      0x20\n      dup2\n      dup4\n      sub\n      sub\n      dup2\n      mstore\n      swap1\n      0x40\n      mstore\n      swap1\n      not(0xffffffffffffffffffffffffffffffffffffffffffffffffffffffff)\n      and\n      0x20\n      dup3\n      add\n      dup1\n      mload\n      0xffffffffffffffffffffffffffffffffffffffffffffffffffffffff\n      dup4\n      dup2\n      dup4\n      and\n      or\n      dup4\n      mstore\n      pop\n      pop\n      pop\n      pop\n        /* \"SCP/MultiCall.sol\":489:539  return abi.encodeWithSelector(this.func2.selector) */\n      swap1\n      pop\n        /* \"SCP/MultiCall.sol\":422:546  function getData2() external pure returns (bytes memory) {... */\n      swap1\n      jump\t// out\n        /* \"SCP/MultiCall.sol\":189:286  function func2() external view returns (uint , uint) {... */\n    tag_19:\n        /* \"SCP/MultiCall.sol\":229:233  uint */\n      0x00\n        /* \"SCP/MultiCall.sol\":236:240  uint */\n      dup1\n        /* \"SCP/MultiCall.sol\":260:261  2 */\n      0x02\n        /* \"SCP/MultiCall.sol\":263:278  block.timestamp */\n      timestamp\n        /* \"SCP/MultiCall.sol\":252:279  return (2, block.timestamp) */\n      swap2\n      pop\n      swap2\n      pop\n        /* \"SCP/MultiCall.sol\":189:286  function func2() external view returns (uint , uint) {... */\n      swap1\n      swap2\n      jump\t// out\n        /* \"#utility.yul\":7:367   */\n    tag_26:\n        /* \"#utility.yul\":93:96   */\n      0x00\n        /* \"#utility.yul\":121:159   */\n      tag_28\n        /* \"#utility.yul\":153:158   */\n      dup3\n        /* \"#utility.yul\":121:159   */\n      tag_29\n      jump\t// in\n    tag_28:\n        /* \"#utility.yul\":175:245   */\n      tag_30\n        /* \"#utility.yul\":238:244   */\n      dup2\n        /* \"#utility.yul\":233:236   */\n      dup6\n        /* \"#utility.yul\":175:245   */\n      tag_31\n      jump\t// in\n    tag_30:\n        /* \"#utility.yul\":168:245   */\n      swap4\n      pop\n        /* \"#utility.yul\":254:306   */\n      tag_32\n        /* \"#utility.yul\":299:305   */\n      dup2\n        /* \"#utility.yul\":294:297   */\n      dup6\n        /* \"#utility.yul\":287:291   */\n      0x20\n        /* \"#utility.yul\":280:285   */\n      dup7\n        /* \"#utility.yul\":276:292   */\n      add\n        /* \"#utility.yul\":254:306   */\n      tag_33\n      jump\t// in\n    tag_32:\n        /* \"#utility.yul\":331:360   */\n      tag_34\n        /* \"#utility.yul\":353:359   */\n      dup2\n        /* \"#utility.yul\":331:360   */\n      tag_35\n      jump\t// in\n    tag_34:\n        /* \"#utility.yul\":326:329   */\n      dup5\n        /* \"#utility.yul\":322:361   */\n      add\n        /* \"#utility.yul\":315:361   */\n      swap2\n      pop\n        /* \"#utility.yul\":97:367   */\n      pop\n        /* \"#utility.yul\":7:367   */\n      swap3\n      swap2\n      pop\n      pop\n      jump\t// out\n        /* \"#utility.yul\":373:491   */\n    tag_36:\n        /* \"#utility.yul\":460:484   */\n      tag_38\n        /* \"#utility.yul\":478:483   */\n      dup2\n        /* \"#utility.yul\":460:484   */\n      tag_39\n      jump\t// in\n    tag_38:\n        /* \"#utility.yul\":455:458   */\n      dup3\n        /* \"#utility.yul\":448:485   */\n      mstore\n        /* \"#utility.yul\":373:491   */\n      pop\n      pop\n      jump\t// out\n        /* \"#utility.yul\":497:806   */\n    tag_14:\n        /* \"#utility.yul\":608:612   */\n      0x00\n        /* \"#utility.yul\":646:648   */\n      0x20\n        /* \"#utility.yul\":635:644   */\n      dup3\n        /* \"#utility.yul\":631:649   */\n      add\n        /* \"#utility.yul\":623:649   */\n      swap1\n      pop\n        /* \"#utility.yul\":695:704   */\n      dup2\n        /* \"#utility.yul\":689:693   */\n      dup2\n        /* \"#utility.yul\":685:705   */\n      sub\n        /* \"#utility.yul\":681:682   */\n      0x00\n        /* \"#utility.yul\":670:679   */\n      dup4\n        /* \"#utility.yul\":666:683   */\n      add\n        /* \"#utility.yul\":659:706   */\n      mstore\n        /* \"#utility.yul\":723:799   */\n      tag_41\n        /* \"#utility.yul\":794:798   */\n      dup2\n        /* \"#utility.yul\":785:791   */\n      dup5\n        /* \"#utility.yul\":723:799   */\n      tag_26\n      jump\t// in\n    tag_41:\n        /* \"#utility.yul\":715:799   */\n      swap1\n      pop\n        /* \"#utility.yul\":497:806   */\n      swap3\n      swap2\n      pop\n      pop\n      jump\t// out\n        /* \"#utility.yul\":812:1144   */\n    tag_10:\n        /* \"#utility.yul\":933:937   */\n      0x00\n        /* \"#utility.yul\":971:973   */\n      0x40\n        /* \"#utility.yul\":960:969   */\n      dup3\n        /* \"#utility.yul\":956:974   */\n      add\n        /* \"#utility.yul\":948:974   */\n      swap1\n      pop\n        /* \"#utility.yul\":984:1055   */\n      tag_43\n        /* \"#utility.yul\":1052:1053   */\n      0x00\n        /* \"#utility.yul\":1041:1050   */\n      dup4\n        /* \"#utility.yul\":1037:1054   */\n      add\n        /* \"#utility.yul\":1028:1034   */\n      dup6\n        /* \"#utility.yul\":984:1055   */\n      tag_36\n      jump\t// in\n    tag_43:\n        /* \"#utility.yul\":1065:1137   */\n      tag_44\n        /* \"#utility.yul\":1133:1135   */\n      0x20\n        /* \"#utility.yul\":1122:1131   */\n      dup4\n        /* \"#utility.yul\":1118:1136   */\n      add\n        /* \"#utility.yul\":1109:1115   */\n      dup5\n        /* \"#utility.yul\":1065:1137   */\n      tag_36\n      jump\t// in\n    tag_44:\n        /* \"#utility.yul\":812:1144   */\n      swap4\n      swap3\n      pop\n      pop\n      pop\n      jump\t// out\n        /* \"#utility.yul\":1150:1248   */\n    tag_29:\n        /* \"#utility.yul\":1201:1207   */\n      0x00\n        /* \"#utility.yul\":1235:1240   */\n      dup2\n        /* \"#utility.yul\":1229:1241   */\n      mload\n        /* \"#utility.yul\":1219:1241   */\n      swap1\n      pop\n        /* \"#utility.yul\":1150:1248   */\n      swap2\n      swap1\n      pop\n      jump\t// out\n        /* \"#utility.yul\":1254:1422   */\n    tag_31:\n        /* \"#utility.yul\":1337:1348   */\n      0x00\n        /* \"#utility.yul\":1371:1377   */\n      dup3\n        /* \"#utility.yul\":1366:1369   */\n      dup3\n        /* \"#utility.yul\":1359:1378   */\n      mstore\n        /* \"#utility.yul\":1411:1415   */\n      0x20\n        /* \"#utility.yul\":1406:1409   */\n      dup3\n        /* \"#utility.yul\":1402:1416   */\n      add\n        /* \"#utility.yul\":1387:1416   */\n      swap1\n      pop\n        /* \"#utility.yul\":1254:1422   */\n      swap3\n      swap2\n      pop\n      pop\n      jump\t// out\n        /* \"#utility.yul\":1428:1505   */\n    tag_39:\n        /* \"#utility.yul\":1465:1472   */\n      0x00\n        /* \"#utility.yul\":1494:1499   */\n      dup2\n        /* \"#utility.yul\":1483:1499   */\n      swap1\n      pop\n        /* \"#utility.yul\":1428:1505   */\n      swap2\n      swap1\n      pop\n      jump\t// out\n        /* \"#utility.yul\":1511:1818   */\n    tag_33:\n        /* \"#utility.yul\":1579:1580   */\n      0x00\n        /* \"#utility.yul\":1589:1702   */\n    tag_49:\n        /* \"#utility.yul\":1603:1609   */\n      dup4\n        /* \"#utility.yul\":1600:1601   */\n      dup2\n        /* \"#utility.yul\":1597:1610   */\n      lt\n        /* \"#utility.yul\":1589:1702   */\n      iszero\n      tag_51\n      jumpi\n        /* \"#utility.yul\":1688:1689   */\n      dup1\n        /* \"#utility.yul\":1683:1686   */\n      dup3\n        /* \"#utility.yul\":1679:1690   */\n      add\n        /* \"#utility.yul\":1673:1691   */\n      mload\n        /* \"#utility.yul\":1669:1670   */\n      dup2\n        /* \"#utility.yul\":1664:1667   */\n      dup5\n        /* \"#utility.yul\":1660:1671   */\n      add\n        /* \"#utility.yul\":1653:1692   */\n      mstore\n        /* \"#utility.yul\":1625:1627   */\n      0x20\n        /* \"#utility.yul\":1622:1623   */\n      dup2\n        /* \"#utility.yul\":1618:1628   */\n      add\n        /* \"#utility.yul\":1613:1628   */\n      swap1\n      pop\n        /* \"#utility.yul\":1589:1702   */\n      jump(tag_49)\n    tag_51:\n        /* \"#utility.yul\":1720:1726   */\n      dup4\n        /* \"#utility.yul\":1717:1718   */\n      dup2\n        /* \"#utility.yul\":1714:1727   */\n      gt\n        /* \"#utility.yul\":1711:1812   */\n      iszero\n      tag_52\n      jumpi\n        /* \"#utility.yul\":1800:1801   */\n      0x00\n        /* \"#utility.yul\":1791:1797   */\n      dup5\n        /* \"#utility.yul\":1786:1789   */\n      dup5\n        /* \"#utility.yul\":1782:1798   */\n      add\n        /* \"#utility.yul\":1775:1802   */\n      mstore\n        /* \"#utility.yul\":1711:1812   */\n    tag_52:\n        /* \"#utility.yul\":1560:1818   */\n      pop\n        /* \"#utility.yul\":1511:1818   */\n      pop\n      pop\n      pop\n      jump\t// out\n        /* \"#utility.yul\":1824:1926   */\n    tag_35:\n        /* \"#utility.yul\":1865:1871   */\n      0x00\n        /* \"#utility.yul\":1916:1918   */\n      0x1f\n        /* \"#utility.yul\":1912:1919   */\n      not\n        /* \"#utility.yul\":1907:1909   */\n      0x1f\n        /* \"#utility.yul\":1900:1905   */\n      dup4\n        /* \"#utility.yul\":1896:1910   */\n      add\n        /* \"#utility.yul\":1892:1920   */\n      and\n        /* \"#utility.yul\":1882:1920   */\n      swap1\n      pop\n        /* \"#utility.yul\":1824:1926   */\n      swap2\n      swap1\n      pop\n      jump\t// out\n\n    auxdata: 0xa26469706673582212209c542aefcf71dac79fcca7eb8be1e9aa98330741bfcf4890c69970f7aec10bbe64736f6c63430008070033\n}\n",
				"bytecode": {
					"linkReferences": {},
					"object": "608060405234801561001057600080fd5b506102fe806100206000396000f3fe608060405234801561001057600080fd5b506004361061004c5760003560e01c806374135154146100515780639944cc7114610070578063a898fd701461008e578063b1ade4db146100ac575b600080fd5b6100596100cb565b604051610067929190610235565b60405180910390f35b6100786100d9565b6040516100859190610213565b60405180910390f35b61009661014b565b6040516100a39190610213565b60405180910390f35b6100b46101bd565b6040516100c2929190610235565b60405180910390f35b600080600142915091509091565b6060637413515460e01b604051602401604051602081830303815290604052907bffffffffffffffffffffffffffffffffffffffffffffffffffffffff19166020820180517bffffffffffffffffffffffffffffffffffffffffffffffffffffffff8381831617835250505050905090565b606063b1ade4db60e01b604051602401604051602081830303815290604052907bffffffffffffffffffffffffffffffffffffffffffffffffffffffff19166020820180517bffffffffffffffffffffffffffffffffffffffffffffffffffffffff8381831617835250505050905090565b600080600242915091509091565b60006101d68261025e565b6101e08185610269565b93506101f0818560208601610284565b6101f9816102b7565b840191505092915050565b61020d8161027a565b82525050565b6000602082019050818103600083015261022d81846101cb565b905092915050565b600060408201905061024a6000830185610204565b6102576020830184610204565b9392505050565b600081519050919050565b600082825260208201905092915050565b6000819050919050565b60005b838110156102a2578082015181840152602081019050610287565b838111156102b1576000848401525b50505050565b6000601f19601f830116905091905056fea26469706673582212209c542aefcf71dac79fcca7eb8be1e9aa98330741bfcf4890c69970f7aec10bbe64736f6c63430008070033",
					"opcodes": "PUSH1 0x80 PUSH1 0x40 MSTORE CALLVALUE DUP1 ISZERO PUSH2 0x10 JUMPI PUSH1 0x0 DUP1 REVERT JUMPDEST POP PUSH2 0x2FE DUP1 PUSH2 0x20 PUSH1 0x0 CODECOPY PUSH1 0x0 RETURN INVALID PUSH1 0x80 PUSH1 0x40 MSTORE CALLVALUE DUP1 ISZERO PUSH2 0x10 JUMPI PUSH1 0x0 DUP1 REVERT JUMPDEST POP PUSH1 0x4 CALLDATASIZE LT PUSH2 0x4C JUMPI PUSH1 0x0 CALLDATALOAD PUSH1 0xE0 SHR DUP1 PUSH4 0x74135154 EQ PUSH2 0x51 JUMPI DUP1 PUSH4 0x9944CC71 EQ PUSH2 0x70 JUMPI DUP1 PUSH4 0xA898FD70 EQ PUSH2 0x8E JUMPI DUP1 PUSH4 0xB1ADE4DB EQ PUSH2 0xAC JUMPI JUMPDEST PUSH1 0x0 DUP1 REVERT JUMPDEST PUSH2 0x59 PUSH2 0xCB JUMP JUMPDEST PUSH1 0x40 MLOAD PUSH2 0x67 SWAP3 SWAP2 SWAP1 PUSH2 0x235 JUMP JUMPDEST PUSH1 0x40 MLOAD DUP1 SWAP2 SUB SWAP1 RETURN JUMPDEST PUSH2 0x78 PUSH2 0xD9 JUMP JUMPDEST PUSH1 0x40 MLOAD PUSH2 0x85 SWAP2 SWAP1 PUSH2 0x213 JUMP JUMPDEST PUSH1 0x40 MLOAD DUP1 SWAP2 SUB SWAP1 RETURN JUMPDEST PUSH2 0x96 PUSH2 0x14B JUMP JUMPDEST PUSH1 0x40 MLOAD PUSH2 0xA3 SWAP2 SWAP1 PUSH2 0x213 JUMP JUMPDEST PUSH1 0x40 MLOAD DUP1 SWAP2 SUB SWAP1 RETURN JUMPDEST PUSH2 0xB4 PUSH2 0x1BD JUMP JUMPDEST PUSH1 0x40 MLOAD PUSH2 0xC2 SWAP3 SWAP2 SWAP1 PUSH2 0x235 JUMP JUMPDEST PUSH1 0x40 MLOAD DUP1 SWAP2 SUB SWAP1 RETURN JUMPDEST PUSH1 0x0 DUP1 PUSH1 0x1 TIMESTAMP SWAP2 POP SWAP2 POP SWAP1 SWAP2 JUMP JUMPDEST PUSH1 0x60 PUSH4 0x74135154 PUSH1 0xE0 SHL PUSH1 0x40 MLOAD PUSH1 0x24 ADD PUSH1 0x40 MLOAD PUSH1 0x20 DUP2 DUP4 SUB SUB DUP2 MSTORE SWAP1 PUSH1 0x40 MSTORE SWAP1 PUSH28 0xFFFFFFFFFFFFFFFFFFFFFFFFFFFFFFFFFFFFFFFFFFFFFFFFFFFFFFFF NOT AND PUSH1 0x20 DUP3 ADD DUP1 MLOAD PUSH28 0xFFFFFFFFFFFFFFFFFFFFFFFFFFFFFFFFFFFFFFFFFFFFFFFFFFFFFFFF DUP4 DUP2 DUP4 AND OR DUP4 MSTORE POP POP POP POP SWAP1 POP SWAP1 JUMP JUMPDEST PUSH1 0x60 PUSH4 0xB1ADE4DB PUSH1 0xE0 SHL PUSH1 0x40 MLOAD PUSH1 0x24 ADD PUSH1 0x40 MLOAD PUSH1 0x20 DUP2 DUP4 SUB SUB DUP2 MSTORE SWAP1 PUSH1 0x40 MSTORE SWAP1 PUSH28 0xFFFFFFFFFFFFFFFFFFFFFFFFFFFFFFFFFFFFFFFFFFFFFFFFFFFFFFFF NOT AND PUSH1 0x20 DUP3 ADD DUP1 MLOAD PUSH28 0xFFFFFFFFFFFFFFFFFFFFFFFFFFFFFFFFFFFFFFFFFFFFFFFFFFFFFFFF DUP4 DUP2 DUP4 AND OR DUP4 MSTORE POP POP POP POP SWAP1 POP SWAP1 JUMP JUMPDEST PUSH1 0x0 DUP1 PUSH1 0x2 TIMESTAMP SWAP2 POP SWAP2 POP SWAP1 SWAP2 JUMP JUMPDEST PUSH1 0x0 PUSH2 0x1D6 DUP3 PUSH2 0x25E JUMP JUMPDEST PUSH2 0x1E0 DUP2 DUP6 PUSH2 0x269 JUMP JUMPDEST SWAP4 POP PUSH2 0x1F0 DUP2 DUP6 PUSH1 0x20 DUP7 ADD PUSH2 0x284 JUMP JUMPDEST PUSH2 0x1F9 DUP2 PUSH2 0x2B7 JUMP JUMPDEST DUP5 ADD SWAP2 POP POP SWAP3 SWAP2 POP POP JUMP JUMPDEST PUSH2 0x20D DUP2 PUSH2 0x27A JUMP JUMPDEST DUP3 MSTORE POP POP JUMP JUMPDEST PUSH1 0x0 PUSH1 0x20 DUP3 ADD SWAP1 POP DUP2 DUP2 SUB PUSH1 0x0 DUP4 ADD MSTORE PUSH2 0x22D DUP2 DUP5 PUSH2 0x1CB JUMP JUMPDEST SWAP1 POP SWAP3 SWAP2 POP POP JUMP JUMPDEST PUSH1 0x0 PUSH1 0x40 DUP3 ADD SWAP1 POP PUSH2 0x24A PUSH1 0x0 DUP4 ADD DUP6 PUSH2 0x204 JUMP JUMPDEST PUSH2 0x257 PUSH1 0x20 DUP4 ADD DUP5 PUSH2 0x204 JUMP JUMPDEST SWAP4 SWAP3 POP POP POP JUMP JUMPDEST PUSH1 0x0 DUP2 MLOAD SWAP1 POP SWAP2 SWAP1 POP JUMP JUMPDEST PUSH1 0x0 DUP3 DUP3 MSTORE PUSH1 0x20 DUP3 ADD SWAP1 POP SWAP3 SWAP2 POP POP JUMP JUMPDEST PUSH1 0x0 DUP2 SWAP1 POP SWAP2 SWAP1 POP JUMP JUMPDEST PUSH1 0x0 JUMPDEST DUP4 DUP2 LT ISZERO PUSH2 0x2A2 JUMPI DUP1 DUP3 ADD MLOAD DUP2 DUP5 ADD MSTORE PUSH1 0x20 DUP2 ADD SWAP1 POP PUSH2 0x287 JUMP JUMPDEST DUP4 DUP2 GT ISZERO PUSH2 0x2B1 JUMPI PUSH1 0x0 DUP5 DUP5 ADD MSTORE JUMPDEST POP POP POP POP JUMP JUMPDEST PUSH1 0x0 PUSH1 0x1F NOT PUSH1 0x1F DUP4 ADD AND SWAP1 POP SWAP2 SWAP1 POP JUMP INVALID LOG2 PUSH5 0x6970667358 0x22 SLT KECCAK256 SWAP13 SLOAD 0x2A 0xEF 0xCF PUSH18 0xDAC79FCCA7EB8BE1E9AA98330741BFCF4890 0xC6 SWAP10 PUSH17 0xF7AEC10BBE64736F6C6343000807003300 "
				},
				"gasEstimates": {
					"creation": {
						"codeDepositCost": "153200",
						"executionCost": "196",
						"totalCost": "153396"
					},
					"external": {
						"func1()": "infinite",
						"func2()": "infinite",
						"getData1()": "infinite",
						"getData2()": "infinite"
					}
				},
				"methodIdentifiers": {
					"func1()": "74135154",
					"func2()": "b1ade4db",
					"getData1()": "9944cc71",
					"getData2()": "a898fd70"
				}
			},
			"storageLayout": {
				"storage": [],
				"types": null
			},
			"userdoc": {
				"kind": "user",
				"methods": {},
				"version": 1
			}
		}
	}
}