{
	"SCP/ABIDecode.sol": {
		"AbiDecode": {
			"abi": [
				{
					"inputs": [
						{
							"internalType": "bytes",
							"name": "data",
							"type": "bytes"
						}
					],
					"name": "decode",
					"outputs": [
						{
							"internalType": "uint256",
							"name": "x",
							"type": "uint256"
						},
						{
							"internalType": "address",
							"name": "addr",
							"type": "address"
						},
						{
							"internalType": "uint256[]",
							"name": "arr",
							"type": "uint256[]"
						},
						{
							"components": [
								{
									"internalType": "string",
									"name": "name",
									"type": "string"
								},
								{
									"internalType": "uint256[2]",
									"name": "nums",
									"type": "uint256[2]"
								}
							],
							"internalType": "struct AbiDecode.MyStruct",
							"name": "myStruct",
							"type": "tuple"
						}
					],
					"stateMutability": "pure",
					"type": "function"
				},
				{
					"inputs": [
						{
							"internalType": "uint256",
							"name": "x",
							"type": "uint256"
						},
						{
							"internalType": "address",
							"name": "addr",
							"type": "address"
						},
						{
							"internalType": "uint256[]",
							"name": "arr",
							"type": "uint256[]"
						},
						{
							"components": [
								{
									"internalType": "string",
									"name": "name",
									"type": "string"
								},
								{
									"internalType": "uint256[2]",
									"name": "nums",
									"type": "uint256[2]"
								}
							],
							"internalType": "struct AbiDecode.MyStruct",
							"name": "myStruct",
							"type": "tuple"
						}
					],
					"name": "encode",
					"outputs": [
						{
							"internalType": "bytes",
							"name": "",
							"type": "bytes"
						}
					],
					"stateMutability": "pure",
					"type": "function"
				}
			],
			"devdoc": {
				"kind": "dev",
				"methods": {},
				"version": 1
			},
			"evm": {
				"assembly": "    /* \"SCP/ABIDecode.sol\":57:724  contract AbiDecode {... */\n  mstore(0x40, 0x80)\n  callvalue\n  dup1\n  iszero\n  tag_1\n  jumpi\n  0x00\n  dup1\n  revert\ntag_1:\n  pop\n  dataSize(sub_0)\n  dup1\n  dataOffset(sub_0)\n  0x00\n  codecopy\n  0x00\n  return\nstop\n\nsub_0: assembly {\n        /* \"SCP/ABIDecode.sol\":57:724  contract AbiDecode {... */\n      mstore(0x40, 0x80)\n      callvalue\n      dup1\n      iszero\n      tag_1\n      jumpi\n      0x00\n      dup1\n      revert\n    tag_1:\n      pop\n      jumpi(tag_2, lt(calldatasize, 0x04))\n      shr(0xe0, calldataload(0x00))\n      dup1\n      0x7049e087\n      eq\n      tag_3\n      jumpi\n      dup1\n      0xe5c5e9a3\n      eq\n      tag_4\n      jumpi\n    tag_2:\n      0x00\n      dup1\n      revert\n        /* \"SCP/ABIDecode.sol\":154:374  function encode(... */\n    tag_3:\n      tag_5\n      0x04\n      dup1\n      calldatasize\n      sub\n      dup2\n      add\n      swap1\n      tag_6\n      swap2\n      swap1\n      tag_7\n      jump\t// in\n    tag_6:\n      tag_8\n      jump\t// in\n    tag_5:\n      mload(0x40)\n      tag_9\n      swap2\n      swap1\n      tag_10\n      jump\t// in\n    tag_9:\n      mload(0x40)\n      dup1\n      swap2\n      sub\n      swap1\n      return\n        /* \"SCP/ABIDecode.sol\":380:722  function decode(... */\n    tag_4:\n      tag_11\n      0x04\n      dup1\n      calldatasize\n      sub\n      dup2\n      add\n      swap1\n      tag_12\n      swap2\n      swap1\n      tag_13\n      jump\t// in\n    tag_12:\n      tag_14\n      jump\t// in\n    tag_11:\n      mload(0x40)\n      tag_15\n      swap5\n      swap4\n      swap3\n      swap2\n      swap1\n      tag_16\n      jump\t// in\n    tag_15:\n      mload(0x40)\n      dup1\n      swap2\n      sub\n      swap1\n      return\n        /* \"SCP/ABIDecode.sol\":154:374  function encode(... */\n    tag_8:\n        /* \"SCP/ABIDecode.sol\":302:314  bytes memory */\n      0x60\n        /* \"SCP/ABIDecode.sol\":344:345  x */\n      dup6\n        /* \"SCP/ABIDecode.sol\":347:351  addr */\n      dup6\n        /* \"SCP/ABIDecode.sol\":353:356  arr */\n      dup6\n      dup6\n        /* \"SCP/ABIDecode.sol\":358:366  myStruct */\n      dup6\n        /* \"SCP/ABIDecode.sol\":333:367  abi.encode(x, addr, arr, myStruct) */\n      add(0x20, mload(0x40))\n      tag_18\n      swap6\n      swap5\n      swap4\n      swap3\n      swap2\n      swap1\n      tag_19\n      jump\t// in\n    tag_18:\n      mload(0x40)\n      0x20\n      dup2\n      dup4\n      sub\n      sub\n      dup2\n      mstore\n      swap1\n      0x40\n      mstore\n        /* \"SCP/ABIDecode.sol\":326:367  return abi.encode(x, addr, arr, myStruct) */\n      swap1\n      pop\n        /* \"SCP/ABIDecode.sol\":154:374  function encode(... */\n      swap6\n      swap5\n      pop\n      pop\n      pop\n      pop\n      pop\n      jump\t// out\n        /* \"SCP/ABIDecode.sol\":380:722  function decode(... */\n    tag_14:\n        /* \"SCP/ABIDecode.sol\":478:484  uint x */\n      0x00\n        /* \"SCP/ABIDecode.sol\":486:498  address addr */\n      dup1\n        /* \"SCP/ABIDecode.sol\":500:517  uint[] memory arr */\n      0x60\n        /* \"SCP/ABIDecode.sol\":519:543  MyStruct memory myStruct */\n      tag_20\n      tag_21\n      jump\t// in\n    tag_20:\n        /* \"SCP/ABIDecode.sol\":675:679  data */\n      dup6\n      dup6\n        /* \"SCP/ABIDecode.sol\":664:715  abi.decode(data, (uint, address, uint[], MyStruct)) */\n      dup2\n      add\n      swap1\n      tag_23\n      swap2\n      swap1\n      tag_24\n      jump\t// in\n    tag_23:\n        /* \"SCP/ABIDecode.sol\":637:715  (x, addr, arr, myStruct) = abi.decode(data, (uint, address, uint[], MyStruct)) */\n      dup1\n      swap5\n      pop\n      dup2\n      swap6\n      pop\n      dup3\n      swap7\n      pop\n      dup4\n      swap8\n      pop\n      pop\n      pop\n      pop\n      pop\n        /* \"SCP/ABIDecode.sol\":380:722  function decode(... */\n      swap3\n      swap6\n      swap2\n      swap5\n      pop\n      swap3\n      pop\n      jump\t// out\n    tag_21:\n      mload(0x40)\n      dup1\n      0x40\n      add\n      0x40\n      mstore\n      dup1\n      0x60\n      dup2\n      mstore\n      0x20\n      add\n      tag_25\n      tag_26\n      jump\t// in\n    tag_25:\n      dup2\n      mstore\n      pop\n      swap1\n      jump\t// out\n    tag_26:\n      mload(0x40)\n      dup1\n      0x40\n      add\n      0x40\n      mstore\n      dup1\n      0x02\n      swap1\n      0x20\n      dup3\n      mul\n      dup1\n      calldatasize\n      dup4\n      calldatacopy\n      dup1\n      dup3\n      add\n      swap2\n      pop\n      pop\n      swap1\n      pop\n      pop\n      swap1\n      jump\t// out\n        /* \"#utility.yul\":25:680   */\n    tag_28:\n        /* \"#utility.yul\":119:124   */\n      0x00\n        /* \"#utility.yul\":144:223   */\n      tag_30\n        /* \"#utility.yul\":160:222   */\n      tag_31\n        /* \"#utility.yul\":215:221   */\n      dup5\n        /* \"#utility.yul\":160:222   */\n      tag_32\n      jump\t// in\n    tag_31:\n        /* \"#utility.yul\":144:223   */\n      tag_33\n      jump\t// in\n    tag_30:\n        /* \"#utility.yul\":135:223   */\n      swap1\n      pop\n        /* \"#utility.yul\":243:248   */\n      dup1\n        /* \"#utility.yul\":269:275   */\n      dup3\n        /* \"#utility.yul\":319:322   */\n      dup6\n        /* \"#utility.yul\":311:315   */\n      0x20\n        /* \"#utility.yul\":303:309   */\n      dup7\n        /* \"#utility.yul\":299:316   */\n      mul\n        /* \"#utility.yul\":294:297   */\n      dup3\n        /* \"#utility.yul\":290:317   */\n      add\n        /* \"#utility.yul\":287:323   */\n      gt\n        /* \"#utility.yul\":284:427   */\n      iszero\n      tag_34\n      jumpi\n        /* \"#utility.yul\":338:417   */\n      tag_35\n      tag_36\n      jump\t// in\n    tag_35:\n        /* \"#utility.yul\":284:427   */\n    tag_34:\n        /* \"#utility.yul\":451:452   */\n      0x00\n        /* \"#utility.yul\":436:674   */\n    tag_37:\n        /* \"#utility.yul\":461:467   */\n      dup6\n        /* \"#utility.yul\":458:459   */\n      dup2\n        /* \"#utility.yul\":455:468   */\n      lt\n        /* \"#utility.yul\":436:674   */\n      iszero\n      tag_39\n      jumpi\n        /* \"#utility.yul\":529:532   */\n      dup2\n        /* \"#utility.yul\":558:595   */\n      tag_40\n        /* \"#utility.yul\":591:594   */\n      dup9\n        /* \"#utility.yul\":579:589   */\n      dup3\n        /* \"#utility.yul\":558:595   */\n      tag_41\n      jump\t// in\n    tag_40:\n        /* \"#utility.yul\":553:556   */\n      dup5\n        /* \"#utility.yul\":546:596   */\n      mstore\n        /* \"#utility.yul\":625:629   */\n      0x20\n        /* \"#utility.yul\":620:623   */\n      dup5\n        /* \"#utility.yul\":616:630   */\n      add\n        /* \"#utility.yul\":609:630   */\n      swap4\n      pop\n        /* \"#utility.yul\":659:663   */\n      0x20\n        /* \"#utility.yul\":654:657   */\n      dup4\n        /* \"#utility.yul\":650:664   */\n      add\n        /* \"#utility.yul\":643:664   */\n      swap3\n      pop\n        /* \"#utility.yul\":496:674   */\n      pop\n        /* \"#utility.yul\":483:484   */\n      0x01\n        /* \"#utility.yul\":480:481   */\n      dup2\n        /* \"#utility.yul\":476:485   */\n      add\n        /* \"#utility.yul\":471:485   */\n      swap1\n      pop\n        /* \"#utility.yul\":436:674   */\n      jump(tag_37)\n    tag_39:\n        /* \"#utility.yul\":440:454   */\n      pop\n        /* \"#utility.yul\":125:680   */\n      pop\n      pop\n        /* \"#utility.yul\":25:680   */\n      swap4\n      swap3\n      pop\n      pop\n      pop\n      jump\t// out\n        /* \"#utility.yul\":703:1425   */\n    tag_42:\n        /* \"#utility.yul\":799:804   */\n      0x00\n        /* \"#utility.yul\":824:905   */\n      tag_44\n        /* \"#utility.yul\":840:904   */\n      tag_45\n        /* \"#utility.yul\":897:903   */\n      dup5\n        /* \"#utility.yul\":840:904   */\n      tag_46\n      jump\t// in\n    tag_45:\n        /* \"#utility.yul\":824:905   */\n      tag_33\n      jump\t// in\n    tag_44:\n        /* \"#utility.yul\":815:905   */\n      swap1\n      pop\n        /* \"#utility.yul\":925:930   */\n      dup1\n        /* \"#utility.yul\":954:960   */\n      dup4\n        /* \"#utility.yul\":947:952   */\n      dup3\n        /* \"#utility.yul\":940:961   */\n      mstore\n        /* \"#utility.yul\":988:992   */\n      0x20\n        /* \"#utility.yul\":981:986   */\n      dup3\n        /* \"#utility.yul\":977:993   */\n      add\n        /* \"#utility.yul\":970:993   */\n      swap1\n      pop\n        /* \"#utility.yul\":1014:1020   */\n      dup3\n        /* \"#utility.yul\":1064:1067   */\n      dup6\n        /* \"#utility.yul\":1056:1060   */\n      0x20\n        /* \"#utility.yul\":1048:1054   */\n      dup7\n        /* \"#utility.yul\":1044:1061   */\n      mul\n        /* \"#utility.yul\":1039:1042   */\n      dup3\n        /* \"#utility.yul\":1035:1062   */\n      add\n        /* \"#utility.yul\":1032:1068   */\n      gt\n        /* \"#utility.yul\":1029:1172   */\n      iszero\n      tag_47\n      jumpi\n        /* \"#utility.yul\":1083:1162   */\n      tag_48\n      tag_36\n      jump\t// in\n    tag_48:\n        /* \"#utility.yul\":1029:1172   */\n    tag_47:\n        /* \"#utility.yul\":1196:1197   */\n      0x00\n        /* \"#utility.yul\":1181:1419   */\n    tag_49:\n        /* \"#utility.yul\":1206:1212   */\n      dup6\n        /* \"#utility.yul\":1203:1204   */\n      dup2\n        /* \"#utility.yul\":1200:1213   */\n      lt\n        /* \"#utility.yul\":1181:1419   */\n      iszero\n      tag_51\n      jumpi\n        /* \"#utility.yul\":1274:1277   */\n      dup2\n        /* \"#utility.yul\":1303:1340   */\n      tag_52\n        /* \"#utility.yul\":1336:1339   */\n      dup9\n        /* \"#utility.yul\":1324:1334   */\n      dup3\n        /* \"#utility.yul\":1303:1340   */\n      tag_41\n      jump\t// in\n    tag_52:\n        /* \"#utility.yul\":1298:1301   */\n      dup5\n        /* \"#utility.yul\":1291:1341   */\n      mstore\n        /* \"#utility.yul\":1370:1374   */\n      0x20\n        /* \"#utility.yul\":1365:1368   */\n      dup5\n        /* \"#utility.yul\":1361:1375   */\n      add\n        /* \"#utility.yul\":1354:1375   */\n      swap4\n      pop\n        /* \"#utility.yul\":1404:1408   */\n      0x20\n        /* \"#utility.yul\":1399:1402   */\n      dup4\n        /* \"#utility.yul\":1395:1409   */\n      add\n        /* \"#utility.yul\":1388:1409   */\n      swap3\n      pop\n        /* \"#utility.yul\":1241:1419   */\n      pop\n        /* \"#utility.yul\":1228:1229   */\n      0x01\n        /* \"#utility.yul\":1225:1226   */\n      dup2\n        /* \"#utility.yul\":1221:1230   */\n      add\n        /* \"#utility.yul\":1216:1230   */\n      swap1\n      pop\n        /* \"#utility.yul\":1181:1419   */\n      jump(tag_49)\n    tag_51:\n        /* \"#utility.yul\":1185:1199   */\n      pop\n        /* \"#utility.yul\":805:1425   */\n      pop\n      pop\n        /* \"#utility.yul\":703:1425   */\n      swap4\n      swap3\n      pop\n      pop\n      pop\n      jump\t// out\n        /* \"#utility.yul\":1431:1843   */\n    tag_53:\n        /* \"#utility.yul\":1509:1514   */\n      0x00\n        /* \"#utility.yul\":1534:1600   */\n      tag_55\n        /* \"#utility.yul\":1550:1599   */\n      tag_56\n        /* \"#utility.yul\":1592:1598   */\n      dup5\n        /* \"#utility.yul\":1550:1599   */\n      tag_57\n      jump\t// in\n    tag_56:\n        /* \"#utility.yul\":1534:1600   */\n      tag_33\n      jump\t// in\n    tag_55:\n        /* \"#utility.yul\":1525:1600   */\n      swap1\n      pop\n        /* \"#utility.yul\":1623:1629   */\n      dup3\n        /* \"#utility.yul\":1616:1621   */\n      dup2\n        /* \"#utility.yul\":1609:1630   */\n      mstore\n        /* \"#utility.yul\":1661:1665   */\n      0x20\n        /* \"#utility.yul\":1654:1659   */\n      dup2\n        /* \"#utility.yul\":1650:1666   */\n      add\n        /* \"#utility.yul\":1699:1702   */\n      dup5\n        /* \"#utility.yul\":1690:1696   */\n      dup5\n        /* \"#utility.yul\":1685:1688   */\n      dup5\n        /* \"#utility.yul\":1681:1697   */\n      add\n        /* \"#utility.yul\":1678:1703   */\n      gt\n        /* \"#utility.yul\":1675:1787   */\n      iszero\n      tag_58\n      jumpi\n        /* \"#utility.yul\":1706:1785   */\n      tag_59\n      tag_60\n      jump\t// in\n    tag_59:\n        /* \"#utility.yul\":1675:1787   */\n    tag_58:\n        /* \"#utility.yul\":1796:1837   */\n      tag_61\n        /* \"#utility.yul\":1830:1836   */\n      dup5\n        /* \"#utility.yul\":1825:1828   */\n      dup3\n        /* \"#utility.yul\":1820:1823   */\n      dup6\n        /* \"#utility.yul\":1796:1837   */\n      tag_62\n      jump\t// in\n    tag_61:\n        /* \"#utility.yul\":1515:1843   */\n      pop\n        /* \"#utility.yul\":1431:1843   */\n      swap4\n      swap3\n      pop\n      pop\n      pop\n      jump\t// out\n        /* \"#utility.yul\":1849:1988   */\n    tag_63:\n        /* \"#utility.yul\":1895:1900   */\n      0x00\n        /* \"#utility.yul\":1933:1939   */\n      dup2\n        /* \"#utility.yul\":1920:1940   */\n      calldataload\n        /* \"#utility.yul\":1911:1940   */\n      swap1\n      pop\n        /* \"#utility.yul\":1949:1982   */\n      tag_65\n        /* \"#utility.yul\":1976:1981   */\n      dup2\n        /* \"#utility.yul\":1949:1982   */\n      tag_66\n      jump\t// in\n    tag_65:\n        /* \"#utility.yul\":1849:1988   */\n      swap3\n      swap2\n      pop\n      pop\n      jump\t// out\n        /* \"#utility.yul\":1994:2149   */\n    tag_67:\n        /* \"#utility.yul\":2048:2053   */\n      0x00\n        /* \"#utility.yul\":2086:2092   */\n      dup2\n        /* \"#utility.yul\":2073:2093   */\n      calldataload\n        /* \"#utility.yul\":2064:2093   */\n      swap1\n      pop\n        /* \"#utility.yul\":2102:2143   */\n      tag_69\n        /* \"#utility.yul\":2137:2142   */\n      dup2\n        /* \"#utility.yul\":2102:2143   */\n      tag_70\n      jump\t// in\n    tag_69:\n        /* \"#utility.yul\":1994:2149   */\n      swap3\n      swap2\n      pop\n      pop\n      jump\t// out\n        /* \"#utility.yul\":2173:2512   */\n    tag_71:\n        /* \"#utility.yul\":2242:2247   */\n      0x00\n        /* \"#utility.yul\":2291:2294   */\n      dup3\n        /* \"#utility.yul\":2284:2288   */\n      0x1f\n        /* \"#utility.yul\":2276:2282   */\n      dup4\n        /* \"#utility.yul\":2272:2289   */\n      add\n        /* \"#utility.yul\":2268:2295   */\n      slt\n        /* \"#utility.yul\":2258:2380   */\n      tag_73\n      jumpi\n        /* \"#utility.yul\":2299:2378   */\n      tag_74\n      tag_75\n      jump\t// in\n    tag_74:\n        /* \"#utility.yul\":2258:2380   */\n    tag_73:\n        /* \"#utility.yul\":2403:2407   */\n      0x02\n        /* \"#utility.yul\":2425:2506   */\n      tag_76\n        /* \"#utility.yul\":2502:2505   */\n      dup5\n        /* \"#utility.yul\":2494:2500   */\n      dup3\n        /* \"#utility.yul\":2486:2492   */\n      dup6\n        /* \"#utility.yul\":2425:2506   */\n      tag_28\n      jump\t// in\n    tag_76:\n        /* \"#utility.yul\":2416:2506   */\n      swap2\n      pop\n        /* \"#utility.yul\":2248:2512   */\n      pop\n        /* \"#utility.yul\":2173:2512   */\n      swap3\n      swap2\n      pop\n      pop\n      jump\t// out\n        /* \"#utility.yul\":2535:3103   */\n    tag_77:\n        /* \"#utility.yul\":2608:2616   */\n      0x00\n        /* \"#utility.yul\":2618:2624   */\n      dup1\n        /* \"#utility.yul\":2668:2671   */\n      dup4\n        /* \"#utility.yul\":2661:2665   */\n      0x1f\n        /* \"#utility.yul\":2653:2659   */\n      dup5\n        /* \"#utility.yul\":2649:2666   */\n      add\n        /* \"#utility.yul\":2645:2672   */\n      slt\n        /* \"#utility.yul\":2635:2757   */\n      tag_79\n      jumpi\n        /* \"#utility.yul\":2676:2755   */\n      tag_80\n      tag_75\n      jump\t// in\n    tag_80:\n        /* \"#utility.yul\":2635:2757   */\n    tag_79:\n        /* \"#utility.yul\":2789:2795   */\n      dup3\n        /* \"#utility.yul\":2776:2796   */\n      calldataload\n        /* \"#utility.yul\":2766:2796   */\n      swap1\n      pop\n        /* \"#utility.yul\":2819:2837   */\n      0xffffffffffffffff\n        /* \"#utility.yul\":2811:2817   */\n      dup2\n        /* \"#utility.yul\":2808:2838   */\n      gt\n        /* \"#utility.yul\":2805:2922   */\n      iszero\n      tag_81\n      jumpi\n        /* \"#utility.yul\":2841:2920   */\n      tag_82\n      tag_83\n      jump\t// in\n    tag_82:\n        /* \"#utility.yul\":2805:2922   */\n    tag_81:\n        /* \"#utility.yul\":2955:2959   */\n      0x20\n        /* \"#utility.yul\":2947:2953   */\n      dup4\n        /* \"#utility.yul\":2943:2960   */\n      add\n        /* \"#utility.yul\":2931:2960   */\n      swap2\n      pop\n        /* \"#utility.yul\":3009:3012   */\n      dup4\n        /* \"#utility.yul\":3001:3005   */\n      0x20\n        /* \"#utility.yul\":2993:2999   */\n      dup3\n        /* \"#utility.yul\":2989:3006   */\n      mul\n        /* \"#utility.yul\":2979:2987   */\n      dup4\n        /* \"#utility.yul\":2975:3007   */\n      add\n        /* \"#utility.yul\":2972:3013   */\n      gt\n        /* \"#utility.yul\":2969:3097   */\n      iszero\n      tag_84\n      jumpi\n        /* \"#utility.yul\":3016:3095   */\n      tag_85\n      tag_36\n      jump\t// in\n    tag_85:\n        /* \"#utility.yul\":2969:3097   */\n    tag_84:\n        /* \"#utility.yul\":2535:3103   */\n      swap3\n      pop\n      swap3\n      swap1\n      pop\n      jump\t// out\n        /* \"#utility.yul\":3126:3496   */\n    tag_86:\n        /* \"#utility.yul\":3197:3202   */\n      0x00\n        /* \"#utility.yul\":3246:3249   */\n      dup3\n        /* \"#utility.yul\":3239:3243   */\n      0x1f\n        /* \"#utility.yul\":3231:3237   */\n      dup4\n        /* \"#utility.yul\":3227:3244   */\n      add\n        /* \"#utility.yul\":3223:3250   */\n      slt\n        /* \"#utility.yul\":3213:3335   */\n      tag_88\n      jumpi\n        /* \"#utility.yul\":3254:3333   */\n      tag_89\n      tag_75\n      jump\t// in\n    tag_89:\n        /* \"#utility.yul\":3213:3335   */\n    tag_88:\n        /* \"#utility.yul\":3371:3377   */\n      dup2\n        /* \"#utility.yul\":3358:3378   */\n      calldataload\n        /* \"#utility.yul\":3396:3490   */\n      tag_90\n        /* \"#utility.yul\":3486:3489   */\n      dup5\n        /* \"#utility.yul\":3478:3484   */\n      dup3\n        /* \"#utility.yul\":3471:3475   */\n      0x20\n        /* \"#utility.yul\":3463:3469   */\n      dup7\n        /* \"#utility.yul\":3459:3476   */\n      add\n        /* \"#utility.yul\":3396:3490   */\n      tag_42\n      jump\t// in\n    tag_90:\n        /* \"#utility.yul\":3387:3490   */\n      swap2\n      pop\n        /* \"#utility.yul\":3203:3496   */\n      pop\n        /* \"#utility.yul\":3126:3496   */\n      swap3\n      swap2\n      pop\n      pop\n      jump\t// out\n        /* \"#utility.yul\":3515:4067   */\n    tag_91:\n        /* \"#utility.yul\":3572:3580   */\n      0x00\n        /* \"#utility.yul\":3582:3588   */\n      dup1\n        /* \"#utility.yul\":3632:3635   */\n      dup4\n        /* \"#utility.yul\":3625:3629   */\n      0x1f\n        /* \"#utility.yul\":3617:3623   */\n      dup5\n        /* \"#utility.yul\":3613:3630   */\n      add\n        /* \"#utility.yul\":3609:3636   */\n      slt\n        /* \"#utility.yul\":3599:3721   */\n      tag_93\n      jumpi\n        /* \"#utility.yul\":3640:3719   */\n      tag_94\n      tag_75\n      jump\t// in\n    tag_94:\n        /* \"#utility.yul\":3599:3721   */\n    tag_93:\n        /* \"#utility.yul\":3753:3759   */\n      dup3\n        /* \"#utility.yul\":3740:3760   */\n      calldataload\n        /* \"#utility.yul\":3730:3760   */\n      swap1\n      pop\n        /* \"#utility.yul\":3783:3801   */\n      0xffffffffffffffff\n        /* \"#utility.yul\":3775:3781   */\n      dup2\n        /* \"#utility.yul\":3772:3802   */\n      gt\n        /* \"#utility.yul\":3769:3886   */\n      iszero\n      tag_95\n      jumpi\n        /* \"#utility.yul\":3805:3884   */\n      tag_96\n      tag_83\n      jump\t// in\n    tag_96:\n        /* \"#utility.yul\":3769:3886   */\n    tag_95:\n        /* \"#utility.yul\":3919:3923   */\n      0x20\n        /* \"#utility.yul\":3911:3917   */\n      dup4\n        /* \"#utility.yul\":3907:3924   */\n      add\n        /* \"#utility.yul\":3895:3924   */\n      swap2\n      pop\n        /* \"#utility.yul\":3973:3976   */\n      dup4\n        /* \"#utility.yul\":3965:3969   */\n      0x01\n        /* \"#utility.yul\":3957:3963   */\n      dup3\n        /* \"#utility.yul\":3953:3970   */\n      mul\n        /* \"#utility.yul\":3943:3951   */\n      dup4\n        /* \"#utility.yul\":3939:3971   */\n      add\n        /* \"#utility.yul\":3936:3977   */\n      gt\n        /* \"#utility.yul\":3933:4061   */\n      iszero\n      tag_97\n      jumpi\n        /* \"#utility.yul\":3980:4059   */\n      tag_98\n      tag_36\n      jump\t// in\n    tag_98:\n        /* \"#utility.yul\":3933:4061   */\n    tag_97:\n        /* \"#utility.yul\":3515:4067   */\n      swap3\n      pop\n      swap3\n      swap1\n      pop\n      jump\t// out\n        /* \"#utility.yul\":4087:4427   */\n    tag_99:\n        /* \"#utility.yul\":4143:4148   */\n      0x00\n        /* \"#utility.yul\":4192:4195   */\n      dup3\n        /* \"#utility.yul\":4185:4189   */\n      0x1f\n        /* \"#utility.yul\":4177:4183   */\n      dup4\n        /* \"#utility.yul\":4173:4190   */\n      add\n        /* \"#utility.yul\":4169:4196   */\n      slt\n        /* \"#utility.yul\":4159:4281   */\n      tag_101\n      jumpi\n        /* \"#utility.yul\":4200:4279   */\n      tag_102\n      tag_75\n      jump\t// in\n    tag_102:\n        /* \"#utility.yul\":4159:4281   */\n    tag_101:\n        /* \"#utility.yul\":4317:4323   */\n      dup2\n        /* \"#utility.yul\":4304:4324   */\n      calldataload\n        /* \"#utility.yul\":4342:4421   */\n      tag_103\n        /* \"#utility.yul\":4417:4420   */\n      dup5\n        /* \"#utility.yul\":4409:4415   */\n      dup3\n        /* \"#utility.yul\":4402:4406   */\n      0x20\n        /* \"#utility.yul\":4394:4400   */\n      dup7\n        /* \"#utility.yul\":4390:4407   */\n      add\n        /* \"#utility.yul\":4342:4421   */\n      tag_53\n      jump\t// in\n    tag_103:\n        /* \"#utility.yul\":4333:4421   */\n      swap2\n      pop\n        /* \"#utility.yul\":4149:4427   */\n      pop\n        /* \"#utility.yul\":4087:4427   */\n      swap3\n      swap2\n      pop\n      pop\n      jump\t// out\n        /* \"#utility.yul\":4466:4695   */\n    tag_104:\n        /* \"#utility.yul\":4537:4542   */\n      0x00\n        /* \"#utility.yul\":4578:4580   */\n      0x60\n        /* \"#utility.yul\":4569:4575   */\n      dup3\n        /* \"#utility.yul\":4564:4567   */\n      dup5\n        /* \"#utility.yul\":4560:4576   */\n      sub\n        /* \"#utility.yul\":4556:4581   */\n      slt\n        /* \"#utility.yul\":4553:4665   */\n      iszero\n      tag_106\n      jumpi\n        /* \"#utility.yul\":4584:4663   */\n      tag_107\n      tag_108\n      jump\t// in\n    tag_107:\n        /* \"#utility.yul\":4553:4665   */\n    tag_106:\n        /* \"#utility.yul\":4683:4689   */\n      dup2\n        /* \"#utility.yul\":4674:4689   */\n      swap1\n      pop\n        /* \"#utility.yul\":4466:4695   */\n      swap3\n      swap2\n      pop\n      pop\n      jump\t// out\n        /* \"#utility.yul\":4734:5499   */\n    tag_109:\n        /* \"#utility.yul\":4806:4811   */\n      0x00\n        /* \"#utility.yul\":4850:4854   */\n      0x60\n        /* \"#utility.yul\":4838:4847   */\n      dup3\n        /* \"#utility.yul\":4833:4836   */\n      dup5\n        /* \"#utility.yul\":4829:4848   */\n      sub\n        /* \"#utility.yul\":4825:4855   */\n      slt\n        /* \"#utility.yul\":4822:4939   */\n      iszero\n      tag_111\n      jumpi\n        /* \"#utility.yul\":4858:4937   */\n      tag_112\n      tag_113\n      jump\t// in\n    tag_112:\n        /* \"#utility.yul\":4822:4939   */\n    tag_111:\n        /* \"#utility.yul\":4957:4978   */\n      tag_114\n        /* \"#utility.yul\":4973:4977   */\n      0x40\n        /* \"#utility.yul\":4957:4978   */\n      tag_33\n      jump\t// in\n    tag_114:\n        /* \"#utility.yul\":4948:4978   */\n      swap1\n      pop\n        /* \"#utility.yul\":5065:5066   */\n      0x00\n        /* \"#utility.yul\":5054:5063   */\n      dup3\n        /* \"#utility.yul\":5050:5067   */\n      add\n        /* \"#utility.yul\":5037:5068   */\n      calldataload\n        /* \"#utility.yul\":5095:5113   */\n      0xffffffffffffffff\n        /* \"#utility.yul\":5087:5093   */\n      dup2\n        /* \"#utility.yul\":5084:5114   */\n      gt\n        /* \"#utility.yul\":5081:5198   */\n      iszero\n      tag_115\n      jumpi\n        /* \"#utility.yul\":5117:5196   */\n      tag_116\n      tag_117\n      jump\t// in\n    tag_116:\n        /* \"#utility.yul\":5081:5198   */\n    tag_115:\n        /* \"#utility.yul\":5237:5296   */\n      tag_118\n        /* \"#utility.yul\":5292:5295   */\n      dup5\n        /* \"#utility.yul\":5283:5289   */\n      dup3\n        /* \"#utility.yul\":5272:5281   */\n      dup6\n        /* \"#utility.yul\":5268:5290   */\n      add\n        /* \"#utility.yul\":5237:5296   */\n      tag_99\n      jump\t// in\n    tag_118:\n        /* \"#utility.yul\":5230:5234   */\n      0x00\n        /* \"#utility.yul\":5223:5228   */\n      dup4\n        /* \"#utility.yul\":5219:5235   */\n      add\n        /* \"#utility.yul\":5212:5297   */\n      mstore\n        /* \"#utility.yul\":4988:5308   */\n      pop\n        /* \"#utility.yul\":5367:5369   */\n      0x20\n        /* \"#utility.yul\":5408:5480   */\n      tag_119\n        /* \"#utility.yul\":5476:5479   */\n      dup5\n        /* \"#utility.yul\":5467:5473   */\n      dup3\n        /* \"#utility.yul\":5456:5465   */\n      dup6\n        /* \"#utility.yul\":5452:5474   */\n      add\n        /* \"#utility.yul\":5408:5480   */\n      tag_71\n      jump\t// in\n    tag_119:\n        /* \"#utility.yul\":5401:5405   */\n      0x20\n        /* \"#utility.yul\":5394:5399   */\n      dup4\n        /* \"#utility.yul\":5390:5406   */\n      add\n        /* \"#utility.yul\":5383:5481   */\n      mstore\n        /* \"#utility.yul\":5318:5492   */\n      pop\n        /* \"#utility.yul\":4734:5499   */\n      swap3\n      swap2\n      pop\n      pop\n      jump\t// out\n        /* \"#utility.yul\":5505:5644   */\n    tag_41:\n        /* \"#utility.yul\":5551:5556   */\n      0x00\n        /* \"#utility.yul\":5589:5595   */\n      dup2\n        /* \"#utility.yul\":5576:5596   */\n      calldataload\n        /* \"#utility.yul\":5567:5596   */\n      swap1\n      pop\n        /* \"#utility.yul\":5605:5638   */\n      tag_121\n        /* \"#utility.yul\":5632:5637   */\n      dup2\n        /* \"#utility.yul\":5605:5638   */\n      tag_122\n      jump\t// in\n    tag_121:\n        /* \"#utility.yul\":5505:5644   */\n      swap3\n      swap2\n      pop\n      pop\n      jump\t// out\n        /* \"#utility.yul\":5650:6177   */\n    tag_13:\n        /* \"#utility.yul\":5720:5726   */\n      0x00\n        /* \"#utility.yul\":5728:5734   */\n      dup1\n        /* \"#utility.yul\":5777:5779   */\n      0x20\n        /* \"#utility.yul\":5765:5774   */\n      dup4\n        /* \"#utility.yul\":5756:5763   */\n      dup6\n        /* \"#utility.yul\":5752:5775   */\n      sub\n        /* \"#utility.yul\":5748:5780   */\n      slt\n        /* \"#utility.yul\":5745:5864   */\n      iszero\n      tag_124\n      jumpi\n        /* \"#utility.yul\":5783:5862   */\n      tag_125\n      tag_126\n      jump\t// in\n    tag_125:\n        /* \"#utility.yul\":5745:5864   */\n    tag_124:\n        /* \"#utility.yul\":5931:5932   */\n      0x00\n        /* \"#utility.yul\":5920:5929   */\n      dup4\n        /* \"#utility.yul\":5916:5933   */\n      add\n        /* \"#utility.yul\":5903:5934   */\n      calldataload\n        /* \"#utility.yul\":5961:5979   */\n      0xffffffffffffffff\n        /* \"#utility.yul\":5953:5959   */\n      dup2\n        /* \"#utility.yul\":5950:5980   */\n      gt\n        /* \"#utility.yul\":5947:6064   */\n      iszero\n      tag_127\n      jumpi\n        /* \"#utility.yul\":5983:6062   */\n      tag_128\n      tag_129\n      jump\t// in\n    tag_128:\n        /* \"#utility.yul\":5947:6064   */\n    tag_127:\n        /* \"#utility.yul\":6096:6160   */\n      tag_130\n        /* \"#utility.yul\":6152:6159   */\n      dup6\n        /* \"#utility.yul\":6143:6149   */\n      dup3\n        /* \"#utility.yul\":6132:6141   */\n      dup7\n        /* \"#utility.yul\":6128:6150   */\n      add\n        /* \"#utility.yul\":6096:6160   */\n      tag_91\n      jump\t// in\n    tag_130:\n        /* \"#utility.yul\":6078:6160   */\n      swap3\n      pop\n      swap3\n      pop\n        /* \"#utility.yul\":5874:6170   */\n      pop\n        /* \"#utility.yul\":5650:6177   */\n      swap3\n      pop\n      swap3\n      swap1\n      pop\n      jump\t// out\n        /* \"#utility.yul\":6183:7380   */\n    tag_24:\n        /* \"#utility.yul\":6325:6331   */\n      0x00\n        /* \"#utility.yul\":6333:6339   */\n      dup1\n        /* \"#utility.yul\":6341:6347   */\n      0x00\n        /* \"#utility.yul\":6349:6355   */\n      dup1\n        /* \"#utility.yul\":6398:6401   */\n      0x80\n        /* \"#utility.yul\":6386:6395   */\n      dup6\n        /* \"#utility.yul\":6377:6384   */\n      dup8\n        /* \"#utility.yul\":6373:6396   */\n      sub\n        /* \"#utility.yul\":6369:6402   */\n      slt\n        /* \"#utility.yul\":6366:6486   */\n      iszero\n      tag_132\n      jumpi\n        /* \"#utility.yul\":6405:6484   */\n      tag_133\n      tag_126\n      jump\t// in\n    tag_133:\n        /* \"#utility.yul\":6366:6486   */\n    tag_132:\n        /* \"#utility.yul\":6525:6526   */\n      0x00\n        /* \"#utility.yul\":6550:6603   */\n      tag_134\n        /* \"#utility.yul\":6595:6602   */\n      dup8\n        /* \"#utility.yul\":6586:6592   */\n      dup3\n        /* \"#utility.yul\":6575:6584   */\n      dup9\n        /* \"#utility.yul\":6571:6593   */\n      add\n        /* \"#utility.yul\":6550:6603   */\n      tag_41\n      jump\t// in\n    tag_134:\n        /* \"#utility.yul\":6540:6603   */\n      swap5\n      pop\n        /* \"#utility.yul\":6496:6613   */\n      pop\n        /* \"#utility.yul\":6652:6654   */\n      0x20\n        /* \"#utility.yul\":6678:6739   */\n      tag_135\n        /* \"#utility.yul\":6731:6738   */\n      dup8\n        /* \"#utility.yul\":6722:6728   */\n      dup3\n        /* \"#utility.yul\":6711:6720   */\n      dup9\n        /* \"#utility.yul\":6707:6729   */\n      add\n        /* \"#utility.yul\":6678:6739   */\n      tag_67\n      jump\t// in\n    tag_135:\n        /* \"#utility.yul\":6668:6739   */\n      swap4\n      pop\n        /* \"#utility.yul\":6623:6749   */\n      pop\n        /* \"#utility.yul\":6816:6818   */\n      0x40\n        /* \"#utility.yul\":6805:6814   */\n      dup6\n        /* \"#utility.yul\":6801:6819   */\n      add\n        /* \"#utility.yul\":6788:6820   */\n      calldataload\n        /* \"#utility.yul\":6847:6865   */\n      0xffffffffffffffff\n        /* \"#utility.yul\":6839:6845   */\n      dup2\n        /* \"#utility.yul\":6836:6866   */\n      gt\n        /* \"#utility.yul\":6833:6950   */\n      iszero\n      tag_136\n      jumpi\n        /* \"#utility.yul\":6869:6948   */\n      tag_137\n      tag_129\n      jump\t// in\n    tag_137:\n        /* \"#utility.yul\":6833:6950   */\n    tag_136:\n        /* \"#utility.yul\":6974:7052   */\n      tag_138\n        /* \"#utility.yul\":7044:7051   */\n      dup8\n        /* \"#utility.yul\":7035:7041   */\n      dup3\n        /* \"#utility.yul\":7024:7033   */\n      dup9\n        /* \"#utility.yul\":7020:7042   */\n      add\n        /* \"#utility.yul\":6974:7052   */\n      tag_86\n      jump\t// in\n    tag_138:\n        /* \"#utility.yul\":6964:7052   */\n      swap3\n      pop\n        /* \"#utility.yul\":6759:7062   */\n      pop\n        /* \"#utility.yul\":7129:7131   */\n      0x60\n        /* \"#utility.yul\":7118:7127   */\n      dup6\n        /* \"#utility.yul\":7114:7132   */\n      add\n        /* \"#utility.yul\":7101:7133   */\n      calldataload\n        /* \"#utility.yul\":7160:7178   */\n      0xffffffffffffffff\n        /* \"#utility.yul\":7152:7158   */\n      dup2\n        /* \"#utility.yul\":7149:7179   */\n      gt\n        /* \"#utility.yul\":7146:7263   */\n      iszero\n      tag_139\n      jumpi\n        /* \"#utility.yul\":7182:7261   */\n      tag_140\n      tag_129\n      jump\t// in\n    tag_140:\n        /* \"#utility.yul\":7146:7263   */\n    tag_139:\n        /* \"#utility.yul\":7287:7363   */\n      tag_141\n        /* \"#utility.yul\":7355:7362   */\n      dup8\n        /* \"#utility.yul\":7346:7352   */\n      dup3\n        /* \"#utility.yul\":7335:7344   */\n      dup9\n        /* \"#utility.yul\":7331:7353   */\n      add\n        /* \"#utility.yul\":7287:7363   */\n      tag_109\n      jump\t// in\n    tag_141:\n        /* \"#utility.yul\":7277:7363   */\n      swap2\n      pop\n        /* \"#utility.yul\":7072:7373   */\n      pop\n        /* \"#utility.yul\":6183:7380   */\n      swap3\n      swap6\n      swap2\n      swap5\n      pop\n      swap3\n      pop\n      jump\t// out\n        /* \"#utility.yul\":7386:8591   */\n    tag_7:\n        /* \"#utility.yul\":7524:7530   */\n      0x00\n        /* \"#utility.yul\":7532:7538   */\n      dup1\n        /* \"#utility.yul\":7540:7546   */\n      0x00\n        /* \"#utility.yul\":7548:7554   */\n      dup1\n        /* \"#utility.yul\":7556:7562   */\n      0x00\n        /* \"#utility.yul\":7605:7608   */\n      0x80\n        /* \"#utility.yul\":7593:7602   */\n      dup7\n        /* \"#utility.yul\":7584:7591   */\n      dup9\n        /* \"#utility.yul\":7580:7603   */\n      sub\n        /* \"#utility.yul\":7576:7609   */\n      slt\n        /* \"#utility.yul\":7573:7693   */\n      iszero\n      tag_143\n      jumpi\n        /* \"#utility.yul\":7612:7691   */\n      tag_144\n      tag_126\n      jump\t// in\n    tag_144:\n        /* \"#utility.yul\":7573:7693   */\n    tag_143:\n        /* \"#utility.yul\":7732:7733   */\n      0x00\n        /* \"#utility.yul\":7757:7810   */\n      tag_145\n        /* \"#utility.yul\":7802:7809   */\n      dup9\n        /* \"#utility.yul\":7793:7799   */\n      dup3\n        /* \"#utility.yul\":7782:7791   */\n      dup10\n        /* \"#utility.yul\":7778:7800   */\n      add\n        /* \"#utility.yul\":7757:7810   */\n      tag_41\n      jump\t// in\n    tag_145:\n        /* \"#utility.yul\":7747:7810   */\n      swap6\n      pop\n        /* \"#utility.yul\":7703:7820   */\n      pop\n        /* \"#utility.yul\":7859:7861   */\n      0x20\n        /* \"#utility.yul\":7885:7938   */\n      tag_146\n        /* \"#utility.yul\":7930:7937   */\n      dup9\n        /* \"#utility.yul\":7921:7927   */\n      dup3\n        /* \"#utility.yul\":7910:7919   */\n      dup10\n        /* \"#utility.yul\":7906:7928   */\n      add\n        /* \"#utility.yul\":7885:7938   */\n      tag_63\n      jump\t// in\n    tag_146:\n        /* \"#utility.yul\":7875:7938   */\n      swap5\n      pop\n        /* \"#utility.yul\":7830:7948   */\n      pop\n        /* \"#utility.yul\":8015:8017   */\n      0x40\n        /* \"#utility.yul\":8004:8013   */\n      dup7\n        /* \"#utility.yul\":8000:8018   */\n      add\n        /* \"#utility.yul\":7987:8019   */\n      calldataload\n        /* \"#utility.yul\":8046:8064   */\n      0xffffffffffffffff\n        /* \"#utility.yul\":8038:8044   */\n      dup2\n        /* \"#utility.yul\":8035:8065   */\n      gt\n        /* \"#utility.yul\":8032:8149   */\n      iszero\n      tag_147\n      jumpi\n        /* \"#utility.yul\":8068:8147   */\n      tag_148\n      tag_129\n      jump\t// in\n    tag_148:\n        /* \"#utility.yul\":8032:8149   */\n    tag_147:\n        /* \"#utility.yul\":8181:8261   */\n      tag_149\n        /* \"#utility.yul\":8253:8260   */\n      dup9\n        /* \"#utility.yul\":8244:8250   */\n      dup3\n        /* \"#utility.yul\":8233:8242   */\n      dup10\n        /* \"#utility.yul\":8229:8251   */\n      add\n        /* \"#utility.yul\":8181:8261   */\n      tag_77\n      jump\t// in\n    tag_149:\n        /* \"#utility.yul\":8163:8261   */\n      swap4\n      pop\n      swap4\n      pop\n        /* \"#utility.yul\":7958:8271   */\n      pop\n        /* \"#utility.yul\":8338:8340   */\n      0x60\n        /* \"#utility.yul\":8327:8336   */\n      dup7\n        /* \"#utility.yul\":8323:8341   */\n      add\n        /* \"#utility.yul\":8310:8342   */\n      calldataload\n        /* \"#utility.yul\":8369:8387   */\n      0xffffffffffffffff\n        /* \"#utility.yul\":8361:8367   */\n      dup2\n        /* \"#utility.yul\":8358:8388   */\n      gt\n        /* \"#utility.yul\":8355:8472   */\n      iszero\n      tag_150\n      jumpi\n        /* \"#utility.yul\":8391:8470   */\n      tag_151\n      tag_129\n      jump\t// in\n    tag_151:\n        /* \"#utility.yul\":8355:8472   */\n    tag_150:\n        /* \"#utility.yul\":8496:8574   */\n      tag_152\n        /* \"#utility.yul\":8566:8573   */\n      dup9\n        /* \"#utility.yul\":8557:8563   */\n      dup3\n        /* \"#utility.yul\":8546:8555   */\n      dup10\n        /* \"#utility.yul\":8542:8564   */\n      add\n        /* \"#utility.yul\":8496:8574   */\n      tag_104\n      jump\t// in\n    tag_152:\n        /* \"#utility.yul\":8486:8574   */\n      swap2\n      pop\n        /* \"#utility.yul\":8281:8584   */\n      pop\n        /* \"#utility.yul\":7386:8591   */\n      swap3\n      swap6\n      pop\n      swap3\n      swap6\n      swap1\n      swap4\n      pop\n      jump\t// out\n        /* \"#utility.yul\":8597:8776   */\n    tag_153:\n        /* \"#utility.yul\":8666:8676   */\n      0x00\n        /* \"#utility.yul\":8687:8733   */\n      tag_155\n        /* \"#utility.yul\":8729:8732   */\n      dup4\n        /* \"#utility.yul\":8721:8727   */\n      dup4\n        /* \"#utility.yul\":8687:8733   */\n      tag_156\n      jump\t// in\n    tag_155:\n        /* \"#utility.yul\":8765:8769   */\n      0x20\n        /* \"#utility.yul\":8760:8763   */\n      dup4\n        /* \"#utility.yul\":8756:8770   */\n      add\n        /* \"#utility.yul\":8742:8770   */\n      swap1\n      pop\n        /* \"#utility.yul\":8597:8776   */\n      swap3\n      swap2\n      pop\n      pop\n      jump\t// out\n        /* \"#utility.yul\":8782:8900   */\n    tag_157:\n        /* \"#utility.yul\":8869:8893   */\n      tag_159\n        /* \"#utility.yul\":8887:8892   */\n      dup2\n        /* \"#utility.yul\":8869:8893   */\n      tag_160\n      jump\t// in\n    tag_159:\n        /* \"#utility.yul\":8864:8867   */\n      dup3\n        /* \"#utility.yul\":8857:8894   */\n      mstore\n        /* \"#utility.yul\":8782:8900   */\n      pop\n      pop\n      jump\t// out\n        /* \"#utility.yul\":8938:9098   */\n    tag_161:\n        /* \"#utility.yul\":9051:9092   */\n      tag_163\n        /* \"#utility.yul\":9087:9091   */\n      0x40\n        /* \"#utility.yul\":9082:9085   */\n      dup4\n        /* \"#utility.yul\":9075:9080   */\n      dup4\n        /* \"#utility.yul\":9051:9092   */\n      tag_62\n      jump\t// in\n    tag_163:\n        /* \"#utility.yul\":8938:9098   */\n      pop\n      pop\n      jump\t// out\n        /* \"#utility.yul\":9136:9810   */\n    tag_164:\n        /* \"#utility.yul\":9262:9314   */\n      tag_166\n        /* \"#utility.yul\":9308:9313   */\n      dup2\n        /* \"#utility.yul\":9262:9314   */\n      tag_167\n      jump\t// in\n    tag_166:\n        /* \"#utility.yul\":9330:9404   */\n      tag_168\n        /* \"#utility.yul\":9397:9403   */\n      dup2\n        /* \"#utility.yul\":9392:9395   */\n      dup5\n        /* \"#utility.yul\":9330:9404   */\n      tag_169\n      jump\t// in\n    tag_168:\n        /* \"#utility.yul\":9323:9404   */\n      swap3\n      pop\n        /* \"#utility.yul\":9428:9482   */\n      tag_170\n        /* \"#utility.yul\":9476:9481   */\n      dup3\n        /* \"#utility.yul\":9428:9482   */\n      tag_171\n      jump\t// in\n    tag_170:\n        /* \"#utility.yul\":9505:9512   */\n      dup1\n        /* \"#utility.yul\":9536:9537   */\n      0x00\n        /* \"#utility.yul\":9521:9803   */\n    tag_172:\n        /* \"#utility.yul\":9546:9552   */\n      dup4\n        /* \"#utility.yul\":9543:9544   */\n      dup2\n        /* \"#utility.yul\":9540:9553   */\n      lt\n        /* \"#utility.yul\":9521:9803   */\n      iszero\n      tag_174\n      jumpi\n        /* \"#utility.yul\":9622:9628   */\n      dup2\n        /* \"#utility.yul\":9616:9629   */\n      mload\n        /* \"#utility.yul\":9649:9712   */\n      tag_175\n        /* \"#utility.yul\":9708:9711   */\n      dup8\n        /* \"#utility.yul\":9693:9706   */\n      dup3\n        /* \"#utility.yul\":9649:9712   */\n      tag_153\n      jump\t// in\n    tag_175:\n        /* \"#utility.yul\":9642:9712   */\n      swap7\n      pop\n        /* \"#utility.yul\":9735:9793   */\n      tag_176\n        /* \"#utility.yul\":9786:9792   */\n      dup4\n        /* \"#utility.yul\":9735:9793   */\n      tag_177\n      jump\t// in\n    tag_176:\n        /* \"#utility.yul\":9725:9793   */\n      swap3\n      pop\n        /* \"#utility.yul\":9581:9803   */\n      pop\n        /* \"#utility.yul\":9568:9569   */\n      0x01\n        /* \"#utility.yul\":9565:9566   */\n      dup2\n        /* \"#utility.yul\":9561:9570   */\n      add\n        /* \"#utility.yul\":9556:9570   */\n      swap1\n      pop\n        /* \"#utility.yul\":9521:9803   */\n      jump(tag_172)\n    tag_174:\n        /* \"#utility.yul\":9525:9539   */\n      pop\n        /* \"#utility.yul\":9238:9810   */\n      pop\n      pop\n      pop\n        /* \"#utility.yul\":9136:9810   */\n      pop\n      pop\n      jump\t// out\n        /* \"#utility.yul\":9846:10383   */\n    tag_178:\n        /* \"#utility.yul\":9974:9977   */\n      0x00\n        /* \"#utility.yul\":9995:10081   */\n      tag_180\n        /* \"#utility.yul\":10074:10080   */\n      dup4\n        /* \"#utility.yul\":10069:10072   */\n      dup6\n        /* \"#utility.yul\":9995:10081   */\n      tag_181\n      jump\t// in\n    tag_180:\n        /* \"#utility.yul\":9988:10081   */\n      swap4\n      pop\n        /* \"#utility.yul\":10105:10171   */\n      0x07ffffffffffffffffffffffffffffffffffffffffffffffffffffffffffffff\n        /* \"#utility.yul\":10097:10103   */\n      dup4\n        /* \"#utility.yul\":10094:10172   */\n      gt\n        /* \"#utility.yul\":10091:10256   */\n      iszero\n      tag_182\n      jumpi\n        /* \"#utility.yul\":10175:10254   */\n      tag_183\n      tag_184\n      jump\t// in\n    tag_183:\n        /* \"#utility.yul\":10091:10256   */\n    tag_182:\n        /* \"#utility.yul\":10287:10291   */\n      0x20\n        /* \"#utility.yul\":10279:10285   */\n      dup4\n        /* \"#utility.yul\":10275:10292   */\n      mul\n        /* \"#utility.yul\":10265:10292   */\n      swap3\n      pop\n        /* \"#utility.yul\":10302:10345   */\n      tag_185\n        /* \"#utility.yul\":10338:10344   */\n      dup4\n        /* \"#utility.yul\":10333:10336   */\n      dup6\n        /* \"#utility.yul\":10326:10331   */\n      dup5\n        /* \"#utility.yul\":10302:10345   */\n      tag_62\n      jump\t// in\n    tag_185:\n        /* \"#utility.yul\":10370:10376   */\n      dup3\n        /* \"#utility.yul\":10365:10368   */\n      dup5\n        /* \"#utility.yul\":10361:10377   */\n      add\n        /* \"#utility.yul\":10354:10377   */\n      swap1\n      pop\n        /* \"#utility.yul\":9846:10383   */\n      swap4\n      swap3\n      pop\n      pop\n      pop\n      jump\t// out\n        /* \"#utility.yul\":10419:11151   */\n    tag_186:\n        /* \"#utility.yul\":10538:10541   */\n      0x00\n        /* \"#utility.yul\":10567:10621   */\n      tag_188\n        /* \"#utility.yul\":10615:10620   */\n      dup3\n        /* \"#utility.yul\":10567:10621   */\n      tag_189\n      jump\t// in\n    tag_188:\n        /* \"#utility.yul\":10637:10723   */\n      tag_190\n        /* \"#utility.yul\":10716:10722   */\n      dup2\n        /* \"#utility.yul\":10711:10714   */\n      dup6\n        /* \"#utility.yul\":10637:10723   */\n      tag_181\n      jump\t// in\n    tag_190:\n        /* \"#utility.yul\":10630:10723   */\n      swap4\n      pop\n        /* \"#utility.yul\":10747:10803   */\n      tag_191\n        /* \"#utility.yul\":10797:10802   */\n      dup4\n        /* \"#utility.yul\":10747:10803   */\n      tag_192\n      jump\t// in\n    tag_191:\n        /* \"#utility.yul\":10826:10833   */\n      dup1\n        /* \"#utility.yul\":10857:10858   */\n      0x00\n        /* \"#utility.yul\":10842:11126   */\n    tag_193:\n        /* \"#utility.yul\":10867:10873   */\n      dup4\n        /* \"#utility.yul\":10864:10865   */\n      dup2\n        /* \"#utility.yul\":10861:10874   */\n      lt\n        /* \"#utility.yul\":10842:11126   */\n      iszero\n      tag_195\n      jumpi\n        /* \"#utility.yul\":10943:10949   */\n      dup2\n        /* \"#utility.yul\":10937:10950   */\n      mload\n        /* \"#utility.yul\":10970:11033   */\n      tag_196\n        /* \"#utility.yul\":11029:11032   */\n      dup9\n        /* \"#utility.yul\":11014:11027   */\n      dup3\n        /* \"#utility.yul\":10970:11033   */\n      tag_153\n      jump\t// in\n    tag_196:\n        /* \"#utility.yul\":10963:11033   */\n      swap8\n      pop\n        /* \"#utility.yul\":11056:11116   */\n      tag_197\n        /* \"#utility.yul\":11109:11115   */\n      dup4\n        /* \"#utility.yul\":11056:11116   */\n      tag_198\n      jump\t// in\n    tag_197:\n        /* \"#utility.yul\":11046:11116   */\n      swap3\n      pop\n        /* \"#utility.yul\":10902:11126   */\n      pop\n        /* \"#utility.yul\":10889:10890   */\n      0x01\n        /* \"#utility.yul\":10886:10887   */\n      dup2\n        /* \"#utility.yul\":10882:10891   */\n      add\n        /* \"#utility.yul\":10877:10891   */\n      swap1\n      pop\n        /* \"#utility.yul\":10842:11126   */\n      jump(tag_193)\n    tag_195:\n        /* \"#utility.yul\":10846:10860   */\n      pop\n        /* \"#utility.yul\":11142:11145   */\n      dup6\n        /* \"#utility.yul\":11135:11145   */\n      swap4\n      pop\n        /* \"#utility.yul\":10543:11151   */\n      pop\n      pop\n      pop\n        /* \"#utility.yul\":10419:11151   */\n      swap3\n      swap2\n      pop\n      pop\n      jump\t// out\n        /* \"#utility.yul\":11157:11517   */\n    tag_199:\n        /* \"#utility.yul\":11243:11246   */\n      0x00\n        /* \"#utility.yul\":11271:11309   */\n      tag_201\n        /* \"#utility.yul\":11303:11308   */\n      dup3\n        /* \"#utility.yul\":11271:11309   */\n      tag_202\n      jump\t// in\n    tag_201:\n        /* \"#utility.yul\":11325:11395   */\n      tag_203\n        /* \"#utility.yul\":11388:11394   */\n      dup2\n        /* \"#utility.yul\":11383:11386   */\n      dup6\n        /* \"#utility.yul\":11325:11395   */\n      tag_204\n      jump\t// in\n    tag_203:\n        /* \"#utility.yul\":11318:11395   */\n      swap4\n      pop\n        /* \"#utility.yul\":11404:11456   */\n      tag_205\n        /* \"#utility.yul\":11449:11455   */\n      dup2\n        /* \"#utility.yul\":11444:11447   */\n      dup6\n        /* \"#utility.yul\":11437:11441   */\n      0x20\n        /* \"#utility.yul\":11430:11435   */\n      dup7\n        /* \"#utility.yul\":11426:11442   */\n      add\n        /* \"#utility.yul\":11404:11456   */\n      tag_206\n      jump\t// in\n    tag_205:\n        /* \"#utility.yul\":11481:11510   */\n      tag_207\n        /* \"#utility.yul\":11503:11509   */\n      dup2\n        /* \"#utility.yul\":11481:11510   */\n      tag_208\n      jump\t// in\n    tag_207:\n        /* \"#utility.yul\":11476:11479   */\n      dup5\n        /* \"#utility.yul\":11472:11511   */\n      add\n        /* \"#utility.yul\":11465:11511   */\n      swap2\n      pop\n        /* \"#utility.yul\":11247:11517   */\n      pop\n        /* \"#utility.yul\":11157:11517   */\n      swap3\n      swap2\n      pop\n      pop\n      jump\t// out\n        /* \"#utility.yul\":11547:11831   */\n    tag_209:\n        /* \"#utility.yul\":11635:11638   */\n      0x00\n        /* \"#utility.yul\":11656:11717   */\n      tag_211\n        /* \"#utility.yul\":11710:11716   */\n      dup4\n        /* \"#utility.yul\":11705:11708   */\n      dup6\n        /* \"#utility.yul\":11656:11717   */\n      tag_212\n      jump\t// in\n    tag_211:\n        /* \"#utility.yul\":11649:11717   */\n      swap4\n      pop\n        /* \"#utility.yul\":11727:11770   */\n      tag_213\n        /* \"#utility.yul\":11763:11769   */\n      dup4\n        /* \"#utility.yul\":11758:11761   */\n      dup6\n        /* \"#utility.yul\":11751:11756   */\n      dup5\n        /* \"#utility.yul\":11727:11770   */\n      tag_62\n      jump\t// in\n    tag_213:\n        /* \"#utility.yul\":11795:11824   */\n      tag_214\n        /* \"#utility.yul\":11817:11823   */\n      dup4\n        /* \"#utility.yul\":11795:11824   */\n      tag_208\n      jump\t// in\n    tag_214:\n        /* \"#utility.yul\":11790:11793   */\n      dup5\n        /* \"#utility.yul\":11786:11825   */\n      add\n        /* \"#utility.yul\":11779:11825   */\n      swap1\n      pop\n        /* \"#utility.yul\":11547:11831   */\n      swap4\n      swap3\n      pop\n      pop\n      pop\n      jump\t// out\n        /* \"#utility.yul\":11837:12181   */\n    tag_215:\n        /* \"#utility.yul\":11915:11918   */\n      0x00\n        /* \"#utility.yul\":11943:11982   */\n      tag_217\n        /* \"#utility.yul\":11976:11981   */\n      dup3\n        /* \"#utility.yul\":11943:11982   */\n      tag_218\n      jump\t// in\n    tag_217:\n        /* \"#utility.yul\":11998:12059   */\n      tag_219\n        /* \"#utility.yul\":12052:12058   */\n      dup2\n        /* \"#utility.yul\":12047:12050   */\n      dup6\n        /* \"#utility.yul\":11998:12059   */\n      tag_212\n      jump\t// in\n    tag_219:\n        /* \"#utility.yul\":11991:12059   */\n      swap4\n      pop\n        /* \"#utility.yul\":12068:12120   */\n      tag_220\n        /* \"#utility.yul\":12113:12119   */\n      dup2\n        /* \"#utility.yul\":12108:12111   */\n      dup6\n        /* \"#utility.yul\":12101:12105   */\n      0x20\n        /* \"#utility.yul\":12094:12099   */\n      dup7\n        /* \"#utility.yul\":12090:12106   */\n      add\n        /* \"#utility.yul\":12068:12120   */\n      tag_206\n      jump\t// in\n    tag_220:\n        /* \"#utility.yul\":12145:12174   */\n      tag_221\n        /* \"#utility.yul\":12167:12173   */\n      dup2\n        /* \"#utility.yul\":12145:12174   */\n      tag_208\n      jump\t// in\n    tag_221:\n        /* \"#utility.yul\":12140:12143   */\n      dup5\n        /* \"#utility.yul\":12136:12175   */\n      add\n        /* \"#utility.yul\":12129:12175   */\n      swap2\n      pop\n        /* \"#utility.yul\":11919:12181   */\n      pop\n        /* \"#utility.yul\":11837:12181   */\n      swap3\n      swap2\n      pop\n      pop\n      jump\t// out\n        /* \"#utility.yul\":12249:13022   */\n    tag_222:\n        /* \"#utility.yul\":12366:12369   */\n      0x00\n        /* \"#utility.yul\":12402:12406   */\n      0x60\n        /* \"#utility.yul\":12397:12400   */\n      dup4\n        /* \"#utility.yul\":12393:12407   */\n      add\n        /* \"#utility.yul\":12486:12548   */\n      tag_224\n        /* \"#utility.yul\":12542:12546   */\n      0x00\n        /* \"#utility.yul\":12535:12540   */\n      dup5\n        /* \"#utility.yul\":12531:12547   */\n      add\n        /* \"#utility.yul\":12524:12529   */\n      dup5\n        /* \"#utility.yul\":12486:12548   */\n      tag_225\n      jump\t// in\n    tag_224:\n        /* \"#utility.yul\":12595:12598   */\n      dup6\n        /* \"#utility.yul\":12589:12593   */\n      dup4\n        /* \"#utility.yul\":12585:12599   */\n      sub\n        /* \"#utility.yul\":12578:12582   */\n      0x00\n        /* \"#utility.yul\":12573:12576   */\n      dup8\n        /* \"#utility.yul\":12569:12583   */\n      add\n        /* \"#utility.yul\":12562:12600   */\n      mstore\n        /* \"#utility.yul\":12621:12710   */\n      tag_226\n        /* \"#utility.yul\":12705:12709   */\n      dup4\n        /* \"#utility.yul\":12691:12703   */\n      dup3\n        /* \"#utility.yul\":12677:12689   */\n      dup5\n        /* \"#utility.yul\":12621:12710   */\n      tag_209\n      jump\t// in\n    tag_226:\n        /* \"#utility.yul\":12613:12710   */\n      swap3\n      pop\n        /* \"#utility.yul\":12417:12721   */\n      pop\n      pop\n        /* \"#utility.yul\":12786:12861   */\n      tag_227\n        /* \"#utility.yul\":12855:12859   */\n      0x20\n        /* \"#utility.yul\":12848:12853   */\n      dup5\n        /* \"#utility.yul\":12844:12860   */\n      add\n        /* \"#utility.yul\":12837:12842   */\n      dup5\n        /* \"#utility.yul\":12786:12861   */\n      tag_228\n      jump\t// in\n    tag_227:\n        /* \"#utility.yul\":12874:12985   */\n      tag_229\n        /* \"#utility.yul\":12979:12983   */\n      0x20\n        /* \"#utility.yul\":12974:12977   */\n      dup7\n        /* \"#utility.yul\":12970:12984   */\n      add\n        /* \"#utility.yul\":12956:12968   */\n      dup3\n        /* \"#utility.yul\":12874:12985   */\n      tag_161\n      jump\t// in\n    tag_229:\n        /* \"#utility.yul\":12731:12995   */\n      pop\n        /* \"#utility.yul\":13012:13016   */\n      dup1\n        /* \"#utility.yul\":13005:13016   */\n      swap2\n      pop\n        /* \"#utility.yul\":12371:13022   */\n      pop\n        /* \"#utility.yul\":12249:13022   */\n      swap3\n      swap2\n      pop\n      pop\n      jump\t// out\n        /* \"#utility.yul\":13090:13738   */\n    tag_230:\n        /* \"#utility.yul\":13205:13208   */\n      0x00\n        /* \"#utility.yul\":13241:13245   */\n      0x60\n        /* \"#utility.yul\":13236:13239   */\n      dup4\n        /* \"#utility.yul\":13232:13246   */\n      add\n        /* \"#utility.yul\":13328:13332   */\n      0x00\n        /* \"#utility.yul\":13321:13326   */\n      dup4\n        /* \"#utility.yul\":13317:13333   */\n      add\n        /* \"#utility.yul\":13311:13334   */\n      mload\n        /* \"#utility.yul\":13381:13384   */\n      dup5\n        /* \"#utility.yul\":13375:13379   */\n      dup3\n        /* \"#utility.yul\":13371:13385   */\n      sub\n        /* \"#utility.yul\":13364:13368   */\n      0x00\n        /* \"#utility.yul\":13359:13362   */\n      dup7\n        /* \"#utility.yul\":13355:13369   */\n      add\n        /* \"#utility.yul\":13348:13386   */\n      mstore\n        /* \"#utility.yul\":13407:13480   */\n      tag_232\n        /* \"#utility.yul\":13475:13479   */\n      dup3\n        /* \"#utility.yul\":13461:13473   */\n      dup3\n        /* \"#utility.yul\":13407:13480   */\n      tag_215\n      jump\t// in\n    tag_232:\n        /* \"#utility.yul\":13399:13480   */\n      swap2\n      pop\n        /* \"#utility.yul\":13256:13491   */\n      pop\n        /* \"#utility.yul\":13573:13577   */\n      0x20\n        /* \"#utility.yul\":13566:13571   */\n      dup4\n        /* \"#utility.yul\":13562:13578   */\n      add\n        /* \"#utility.yul\":13556:13579   */\n      mload\n        /* \"#utility.yul\":13592:13701   */\n      tag_233\n        /* \"#utility.yul\":13695:13699   */\n      0x20\n        /* \"#utility.yul\":13690:13693   */\n      dup7\n        /* \"#utility.yul\":13686:13700   */\n      add\n        /* \"#utility.yul\":13672:13684   */\n      dup3\n        /* \"#utility.yul\":13592:13701   */\n      tag_164\n      jump\t// in\n    tag_233:\n        /* \"#utility.yul\":13501:13711   */\n      pop\n        /* \"#utility.yul\":13728:13732   */\n      dup1\n        /* \"#utility.yul\":13721:13732   */\n      swap2\n      pop\n        /* \"#utility.yul\":13210:13738   */\n      pop\n        /* \"#utility.yul\":13090:13738   */\n      swap3\n      swap2\n      pop\n      pop\n      jump\t// out\n        /* \"#utility.yul\":13744:13852   */\n    tag_156:\n        /* \"#utility.yul\":13821:13845   */\n      tag_235\n        /* \"#utility.yul\":13839:13844   */\n      dup2\n        /* \"#utility.yul\":13821:13845   */\n      tag_236\n      jump\t// in\n    tag_235:\n        /* \"#utility.yul\":13816:13819   */\n      dup3\n        /* \"#utility.yul\":13809:13846   */\n      mstore\n        /* \"#utility.yul\":13744:13852   */\n      pop\n      pop\n      jump\t// out\n        /* \"#utility.yul\":13858:13976   */\n    tag_237:\n        /* \"#utility.yul\":13945:13969   */\n      tag_239\n        /* \"#utility.yul\":13963:13968   */\n      dup2\n        /* \"#utility.yul\":13945:13969   */\n      tag_236\n      jump\t// in\n    tag_239:\n        /* \"#utility.yul\":13940:13943   */\n      dup3\n        /* \"#utility.yul\":13933:13970   */\n      mstore\n        /* \"#utility.yul\":13858:13976   */\n      pop\n      pop\n      jump\t// out\n        /* \"#utility.yul\":13982:14291   */\n    tag_10:\n        /* \"#utility.yul\":14093:14097   */\n      0x00\n        /* \"#utility.yul\":14131:14133   */\n      0x20\n        /* \"#utility.yul\":14120:14129   */\n      dup3\n        /* \"#utility.yul\":14116:14134   */\n      add\n        /* \"#utility.yul\":14108:14134   */\n      swap1\n      pop\n        /* \"#utility.yul\":14180:14189   */\n      dup2\n        /* \"#utility.yul\":14174:14178   */\n      dup2\n        /* \"#utility.yul\":14170:14190   */\n      sub\n        /* \"#utility.yul\":14166:14167   */\n      0x00\n        /* \"#utility.yul\":14155:14164   */\n      dup4\n        /* \"#utility.yul\":14151:14168   */\n      add\n        /* \"#utility.yul\":14144:14191   */\n      mstore\n        /* \"#utility.yul\":14208:14284   */\n      tag_241\n        /* \"#utility.yul\":14279:14283   */\n      dup2\n        /* \"#utility.yul\":14270:14276   */\n      dup5\n        /* \"#utility.yul\":14208:14284   */\n      tag_199\n      jump\t// in\n    tag_241:\n        /* \"#utility.yul\":14200:14284   */\n      swap1\n      pop\n        /* \"#utility.yul\":13982:14291   */\n      swap3\n      swap2\n      pop\n      pop\n      jump\t// out\n        /* \"#utility.yul\":14297:15168   */\n    tag_19:\n        /* \"#utility.yul\":14582:14586   */\n      0x00\n        /* \"#utility.yul\":14620:14623   */\n      0x80\n        /* \"#utility.yul\":14609:14618   */\n      dup3\n        /* \"#utility.yul\":14605:14624   */\n      add\n        /* \"#utility.yul\":14597:14624   */\n      swap1\n      pop\n        /* \"#utility.yul\":14634:14705   */\n      tag_243\n        /* \"#utility.yul\":14702:14703   */\n      0x00\n        /* \"#utility.yul\":14691:14700   */\n      dup4\n        /* \"#utility.yul\":14687:14704   */\n      add\n        /* \"#utility.yul\":14678:14684   */\n      dup9\n        /* \"#utility.yul\":14634:14705   */\n      tag_237\n      jump\t// in\n    tag_243:\n        /* \"#utility.yul\":14715:14787   */\n      tag_244\n        /* \"#utility.yul\":14783:14785   */\n      0x20\n        /* \"#utility.yul\":14772:14781   */\n      dup4\n        /* \"#utility.yul\":14768:14786   */\n      add\n        /* \"#utility.yul\":14759:14765   */\n      dup8\n        /* \"#utility.yul\":14715:14787   */\n      tag_157\n      jump\t// in\n    tag_244:\n        /* \"#utility.yul\":14834:14843   */\n      dup2\n        /* \"#utility.yul\":14828:14832   */\n      dup2\n        /* \"#utility.yul\":14824:14844   */\n      sub\n        /* \"#utility.yul\":14819:14821   */\n      0x40\n        /* \"#utility.yul\":14808:14817   */\n      dup4\n        /* \"#utility.yul\":14804:14822   */\n      add\n        /* \"#utility.yul\":14797:14845   */\n      mstore\n        /* \"#utility.yul\":14862:14980   */\n      tag_245\n        /* \"#utility.yul\":14975:14979   */\n      dup2\n        /* \"#utility.yul\":14966:14972   */\n      dup6\n        /* \"#utility.yul\":14958:14964   */\n      dup8\n        /* \"#utility.yul\":14862:14980   */\n      tag_178\n      jump\t// in\n    tag_245:\n        /* \"#utility.yul\":14854:14980   */\n      swap1\n      pop\n        /* \"#utility.yul\":15027:15036   */\n      dup2\n        /* \"#utility.yul\":15021:15025   */\n      dup2\n        /* \"#utility.yul\":15017:15037   */\n      sub\n        /* \"#utility.yul\":15012:15014   */\n      0x60\n        /* \"#utility.yul\":15001:15010   */\n      dup4\n        /* \"#utility.yul\":14997:15015   */\n      add\n        /* \"#utility.yul\":14990:15038   */\n      mstore\n        /* \"#utility.yul\":15055:15161   */\n      tag_246\n        /* \"#utility.yul\":15156:15160   */\n      dup2\n        /* \"#utility.yul\":15147:15153   */\n      dup5\n        /* \"#utility.yul\":15055:15161   */\n      tag_222\n      jump\t// in\n    tag_246:\n        /* \"#utility.yul\":15047:15161   */\n      swap1\n      pop\n        /* \"#utility.yul\":14297:15168   */\n      swap7\n      swap6\n      pop\n      pop\n      pop\n      pop\n      pop\n      pop\n      jump\t// out\n        /* \"#utility.yul\":15174:16021   */\n    tag_16:\n        /* \"#utility.yul\":15447:15451   */\n      0x00\n        /* \"#utility.yul\":15485:15488   */\n      0x80\n        /* \"#utility.yul\":15474:15483   */\n      dup3\n        /* \"#utility.yul\":15470:15489   */\n      add\n        /* \"#utility.yul\":15462:15489   */\n      swap1\n      pop\n        /* \"#utility.yul\":15499:15570   */\n      tag_248\n        /* \"#utility.yul\":15567:15568   */\n      0x00\n        /* \"#utility.yul\":15556:15565   */\n      dup4\n        /* \"#utility.yul\":15552:15569   */\n      add\n        /* \"#utility.yul\":15543:15549   */\n      dup8\n        /* \"#utility.yul\":15499:15570   */\n      tag_237\n      jump\t// in\n    tag_248:\n        /* \"#utility.yul\":15580:15652   */\n      tag_249\n        /* \"#utility.yul\":15648:15650   */\n      0x20\n        /* \"#utility.yul\":15637:15646   */\n      dup4\n        /* \"#utility.yul\":15633:15651   */\n      add\n        /* \"#utility.yul\":15624:15630   */\n      dup7\n        /* \"#utility.yul\":15580:15652   */\n      tag_157\n      jump\t// in\n    tag_249:\n        /* \"#utility.yul\":15699:15708   */\n      dup2\n        /* \"#utility.yul\":15693:15697   */\n      dup2\n        /* \"#utility.yul\":15689:15709   */\n      sub\n        /* \"#utility.yul\":15684:15686   */\n      0x40\n        /* \"#utility.yul\":15673:15682   */\n      dup4\n        /* \"#utility.yul\":15669:15687   */\n      add\n        /* \"#utility.yul\":15662:15710   */\n      mstore\n        /* \"#utility.yul\":15727:15835   */\n      tag_250\n        /* \"#utility.yul\":15830:15834   */\n      dup2\n        /* \"#utility.yul\":15821:15827   */\n      dup6\n        /* \"#utility.yul\":15727:15835   */\n      tag_186\n      jump\t// in\n    tag_250:\n        /* \"#utility.yul\":15719:15835   */\n      swap1\n      pop\n        /* \"#utility.yul\":15882:15891   */\n      dup2\n        /* \"#utility.yul\":15876:15880   */\n      dup2\n        /* \"#utility.yul\":15872:15892   */\n      sub\n        /* \"#utility.yul\":15867:15869   */\n      0x60\n        /* \"#utility.yul\":15856:15865   */\n      dup4\n        /* \"#utility.yul\":15852:15870   */\n      add\n        /* \"#utility.yul\":15845:15893   */\n      mstore\n        /* \"#utility.yul\":15910:16014   */\n      tag_251\n        /* \"#utility.yul\":16009:16013   */\n      dup2\n        /* \"#utility.yul\":16000:16006   */\n      dup5\n        /* \"#utility.yul\":15910:16014   */\n      tag_230\n      jump\t// in\n    tag_251:\n        /* \"#utility.yul\":15902:16014   */\n      swap1\n      pop\n        /* \"#utility.yul\":15174:16021   */\n      swap6\n      swap5\n      pop\n      pop\n      pop\n      pop\n      pop\n      jump\t// out\n        /* \"#utility.yul\":16027:16156   */\n    tag_33:\n        /* \"#utility.yul\":16061:16067   */\n      0x00\n        /* \"#utility.yul\":16088:16108   */\n      tag_253\n      tag_254\n      jump\t// in\n    tag_253:\n        /* \"#utility.yul\":16078:16108   */\n      swap1\n      pop\n        /* \"#utility.yul\":16117:16150   */\n      tag_255\n        /* \"#utility.yul\":16145:16149   */\n      dup3\n        /* \"#utility.yul\":16137:16143   */\n      dup3\n        /* \"#utility.yul\":16117:16150   */\n      tag_256\n      jump\t// in\n    tag_255:\n        /* \"#utility.yul\":16027:16156   */\n      swap2\n      swap1\n      pop\n      jump\t// out\n        /* \"#utility.yul\":16162:16237   */\n    tag_254:\n        /* \"#utility.yul\":16195:16201   */\n      0x00\n        /* \"#utility.yul\":16228:16230   */\n      0x40\n        /* \"#utility.yul\":16222:16231   */\n      mload\n        /* \"#utility.yul\":16212:16231   */\n      swap1\n      pop\n        /* \"#utility.yul\":16162:16237   */\n      swap1\n      jump\t// out\n        /* \"#utility.yul\":16243:16492   */\n    tag_32:\n        /* \"#utility.yul\":16318:16322   */\n      0x00\n        /* \"#utility.yul\":16408:16426   */\n      0xffffffffffffffff\n        /* \"#utility.yul\":16400:16406   */\n      dup3\n        /* \"#utility.yul\":16397:16427   */\n      gt\n        /* \"#utility.yul\":16394:16450   */\n      iszero\n      tag_259\n      jumpi\n        /* \"#utility.yul\":16430:16448   */\n      tag_260\n      tag_261\n      jump\t// in\n    tag_260:\n        /* \"#utility.yul\":16394:16450   */\n    tag_259:\n        /* \"#utility.yul\":16480:16484   */\n      0x20\n        /* \"#utility.yul\":16472:16478   */\n      dup3\n        /* \"#utility.yul\":16468:16485   */\n      mul\n        /* \"#utility.yul\":16460:16485   */\n      swap1\n      pop\n        /* \"#utility.yul\":16243:16492   */\n      swap2\n      swap1\n      pop\n      jump\t// out\n        /* \"#utility.yul\":16498:16809   */\n    tag_46:\n        /* \"#utility.yul\":16575:16579   */\n      0x00\n        /* \"#utility.yul\":16665:16683   */\n      0xffffffffffffffff\n        /* \"#utility.yul\":16657:16663   */\n      dup3\n        /* \"#utility.yul\":16654:16684   */\n      gt\n        /* \"#utility.yul\":16651:16707   */\n      iszero\n      tag_263\n      jumpi\n        /* \"#utility.yul\":16687:16705   */\n      tag_264\n      tag_261\n      jump\t// in\n    tag_264:\n        /* \"#utility.yul\":16651:16707   */\n    tag_263:\n        /* \"#utility.yul\":16737:16741   */\n      0x20\n        /* \"#utility.yul\":16729:16735   */\n      dup3\n        /* \"#utility.yul\":16725:16742   */\n      mul\n        /* \"#utility.yul\":16717:16742   */\n      swap1\n      pop\n        /* \"#utility.yul\":16797:16801   */\n      0x20\n        /* \"#utility.yul\":16791:16795   */\n      dup2\n        /* \"#utility.yul\":16787:16802   */\n      add\n        /* \"#utility.yul\":16779:16802   */\n      swap1\n      pop\n        /* \"#utility.yul\":16498:16809   */\n      swap2\n      swap1\n      pop\n      jump\t// out\n        /* \"#utility.yul\":16815:17123   */\n    tag_57:\n        /* \"#utility.yul\":16877:16881   */\n      0x00\n        /* \"#utility.yul\":16967:16985   */\n      0xffffffffffffffff\n        /* \"#utility.yul\":16959:16965   */\n      dup3\n        /* \"#utility.yul\":16956:16986   */\n      gt\n        /* \"#utility.yul\":16953:17009   */\n      iszero\n      tag_266\n      jumpi\n        /* \"#utility.yul\":16989:17007   */\n      tag_267\n      tag_261\n      jump\t// in\n    tag_267:\n        /* \"#utility.yul\":16953:17009   */\n    tag_266:\n        /* \"#utility.yul\":17027:17056   */\n      tag_268\n        /* \"#utility.yul\":17049:17055   */\n      dup3\n        /* \"#utility.yul\":17027:17056   */\n      tag_208\n      jump\t// in\n    tag_268:\n        /* \"#utility.yul\":17019:17056   */\n      swap1\n      pop\n        /* \"#utility.yul\":17111:17115   */\n      0x20\n        /* \"#utility.yul\":17105:17109   */\n      dup2\n        /* \"#utility.yul\":17101:17116   */\n      add\n        /* \"#utility.yul\":17093:17116   */\n      swap1\n      pop\n        /* \"#utility.yul\":16815:17123   */\n      swap2\n      swap1\n      pop\n      jump\t// out\n        /* \"#utility.yul\":17129:17227   */\n    tag_171:\n        /* \"#utility.yul\":17194:17198   */\n      0x00\n        /* \"#utility.yul\":17217:17220   */\n      dup2\n        /* \"#utility.yul\":17209:17220   */\n      swap1\n      pop\n        /* \"#utility.yul\":17129:17227   */\n      swap2\n      swap1\n      pop\n      jump\t// out\n        /* \"#utility.yul\":17233:17365   */\n    tag_192:\n        /* \"#utility.yul\":17300:17304   */\n      0x00\n        /* \"#utility.yul\":17323:17326   */\n      dup2\n        /* \"#utility.yul\":17315:17326   */\n      swap1\n      pop\n        /* \"#utility.yul\":17353:17357   */\n      0x20\n        /* \"#utility.yul\":17348:17351   */\n      dup3\n        /* \"#utility.yul\":17344:17358   */\n      add\n        /* \"#utility.yul\":17336:17358   */\n      swap1\n      pop\n        /* \"#utility.yul\":17233:17365   */\n      swap2\n      swap1\n      pop\n      jump\t// out\n        /* \"#utility.yul\":17371:17475   */\n    tag_167:\n        /* \"#utility.yul\":17436:17442   */\n      0x00\n        /* \"#utility.yul\":17464:17468   */\n      0x02\n        /* \"#utility.yul\":17454:17468   */\n      swap1\n      pop\n        /* \"#utility.yul\":17371:17475   */\n      swap2\n      swap1\n      pop\n      jump\t// out\n        /* \"#utility.yul\":17481:17595   */\n    tag_189:\n        /* \"#utility.yul\":17548:17554   */\n      0x00\n        /* \"#utility.yul\":17582:17587   */\n      dup2\n        /* \"#utility.yul\":17576:17588   */\n      mload\n        /* \"#utility.yul\":17566:17588   */\n      swap1\n      pop\n        /* \"#utility.yul\":17481:17595   */\n      swap2\n      swap1\n      pop\n      jump\t// out\n        /* \"#utility.yul\":17601:17699   */\n    tag_202:\n        /* \"#utility.yul\":17652:17658   */\n      0x00\n        /* \"#utility.yul\":17686:17691   */\n      dup2\n        /* \"#utility.yul\":17680:17692   */\n      mload\n        /* \"#utility.yul\":17670:17692   */\n      swap1\n      pop\n        /* \"#utility.yul\":17601:17699   */\n      swap2\n      swap1\n      pop\n      jump\t// out\n        /* \"#utility.yul\":17705:17804   */\n    tag_218:\n        /* \"#utility.yul\":17757:17763   */\n      0x00\n        /* \"#utility.yul\":17791:17796   */\n      dup2\n        /* \"#utility.yul\":17785:17797   */\n      mload\n        /* \"#utility.yul\":17775:17797   */\n      swap1\n      pop\n        /* \"#utility.yul\":17705:17804   */\n      swap2\n      swap1\n      pop\n      jump\t// out\n        /* \"#utility.yul\":17810:17921   */\n    tag_177:\n        /* \"#utility.yul\":17878:17882   */\n      0x00\n        /* \"#utility.yul\":17910:17914   */\n      0x20\n        /* \"#utility.yul\":17905:17908   */\n      dup3\n        /* \"#utility.yul\":17901:17915   */\n      add\n        /* \"#utility.yul\":17893:17915   */\n      swap1\n      pop\n        /* \"#utility.yul\":17810:17921   */\n      swap2\n      swap1\n      pop\n      jump\t// out\n        /* \"#utility.yul\":17927:18040   */\n    tag_198:\n        /* \"#utility.yul\":17997:18001   */\n      0x00\n        /* \"#utility.yul\":18029:18033   */\n      0x20\n        /* \"#utility.yul\":18024:18027   */\n      dup3\n        /* \"#utility.yul\":18020:18034   */\n      add\n        /* \"#utility.yul\":18012:18034   */\n      swap1\n      pop\n        /* \"#utility.yul\":17927:18040   */\n      swap2\n      swap1\n      pop\n      jump\t// out\n        /* \"#utility.yul\":18046:18179   */\n    tag_169:\n        /* \"#utility.yul\":18133:18144   */\n      0x00\n        /* \"#utility.yul\":18170:18173   */\n      dup2\n        /* \"#utility.yul\":18155:18173   */\n      swap1\n      pop\n        /* \"#utility.yul\":18046:18179   */\n      swap3\n      swap2\n      pop\n      pop\n      jump\t// out\n        /* \"#utility.yul\":18185:18369   */\n    tag_181:\n        /* \"#utility.yul\":18284:18295   */\n      0x00\n        /* \"#utility.yul\":18318:18324   */\n      dup3\n        /* \"#utility.yul\":18313:18316   */\n      dup3\n        /* \"#utility.yul\":18306:18325   */\n      mstore\n        /* \"#utility.yul\":18358:18362   */\n      0x20\n        /* \"#utility.yul\":18353:18356   */\n      dup3\n        /* \"#utility.yul\":18349:18363   */\n      add\n        /* \"#utility.yul\":18334:18363   */\n      swap1\n      pop\n        /* \"#utility.yul\":18185:18369   */\n      swap3\n      swap2\n      pop\n      pop\n      jump\t// out\n        /* \"#utility.yul\":18375:18543   */\n    tag_204:\n        /* \"#utility.yul\":18458:18469   */\n      0x00\n        /* \"#utility.yul\":18492:18498   */\n      dup3\n        /* \"#utility.yul\":18487:18490   */\n      dup3\n        /* \"#utility.yul\":18480:18499   */\n      mstore\n        /* \"#utility.yul\":18532:18536   */\n      0x20\n        /* \"#utility.yul\":18527:18530   */\n      dup3\n        /* \"#utility.yul\":18523:18537   */\n      add\n        /* \"#utility.yul\":18508:18537   */\n      swap1\n      pop\n        /* \"#utility.yul\":18375:18543   */\n      swap3\n      swap2\n      pop\n      pop\n      jump\t// out\n        /* \"#utility.yul\":18549:18708   */\n    tag_212:\n        /* \"#utility.yul\":18623:18634   */\n      0x00\n        /* \"#utility.yul\":18657:18663   */\n      dup3\n        /* \"#utility.yul\":18652:18655   */\n      dup3\n        /* \"#utility.yul\":18645:18664   */\n      mstore\n        /* \"#utility.yul\":18697:18701   */\n      0x20\n        /* \"#utility.yul\":18692:18695   */\n      dup3\n        /* \"#utility.yul\":18688:18702   */\n      add\n        /* \"#utility.yul\":18673:18702   */\n      swap1\n      pop\n        /* \"#utility.yul\":18549:18708   */\n      swap3\n      swap2\n      pop\n      pop\n      jump\t// out\n        /* \"#utility.yul\":18714:18825   */\n    tag_228:\n        /* \"#utility.yul\":18791:18796   */\n      0x00\n        /* \"#utility.yul\":18816:18819   */\n      dup3\n        /* \"#utility.yul\":18807:18819   */\n      swap1\n      pop\n        /* \"#utility.yul\":18714:18825   */\n      swap3\n      swap2\n      pop\n      pop\n      jump\t// out\n        /* \"#utility.yul\":18831:19546   */\n    tag_225:\n        /* \"#utility.yul\":18896:18901   */\n      0x00\n        /* \"#utility.yul\":18903:18909   */\n      dup1\n        /* \"#utility.yul\":18959:18962   */\n      dup4\n        /* \"#utility.yul\":18946:18963   */\n      calldataload\n        /* \"#utility.yul\":19051:19052   */\n      0x01\n        /* \"#utility.yul\":19045:19049   */\n      0x20\n        /* \"#utility.yul\":19041:19053   */\n      sub\n        /* \"#utility.yul\":19030:19038   */\n      dup5\n        /* \"#utility.yul\":19014:19028   */\n      calldatasize\n        /* \"#utility.yul\":19010:19039   */\n      sub\n        /* \"#utility.yul\":19006:19054   */\n      sub\n        /* \"#utility.yul\":18986:19004   */\n      dup2\n        /* \"#utility.yul\":18982:19055   */\n      slt\n        /* \"#utility.yul\":18972:19140   */\n      tag_283\n      jumpi\n        /* \"#utility.yul\":19059:19138   */\n      tag_284\n      tag_285\n      jump\t// in\n    tag_284:\n        /* \"#utility.yul\":18972:19140   */\n    tag_283:\n        /* \"#utility.yul\":19182:19190   */\n      dup4\n        /* \"#utility.yul\":19162:19180   */\n      dup2\n        /* \"#utility.yul\":19158:19191   */\n      add\n        /* \"#utility.yul\":19149:19191   */\n      swap3\n      pop\n        /* \"#utility.yul\":19224:19229   */\n      dup3\n        /* \"#utility.yul\":19211:19230   */\n      calldataload\n        /* \"#utility.yul\":19201:19230   */\n      swap2\n      pop\n        /* \"#utility.yul\":19259:19263   */\n      0x20\n        /* \"#utility.yul\":19252:19257   */\n      dup4\n        /* \"#utility.yul\":19248:19264   */\n      add\n        /* \"#utility.yul\":19239:19264   */\n      swap3\n      pop\n        /* \"#utility.yul\":19287:19305   */\n      0xffffffffffffffff\n        /* \"#utility.yul\":19279:19285   */\n      dup3\n        /* \"#utility.yul\":19276:19306   */\n      gt\n        /* \"#utility.yul\":19273:19390   */\n      iszero\n      tag_286\n      jumpi\n        /* \"#utility.yul\":19309:19388   */\n      tag_287\n      tag_288\n      jump\t// in\n    tag_287:\n        /* \"#utility.yul\":19273:19390   */\n    tag_286:\n        /* \"#utility.yul\":19448:19452   */\n      0x01\n        /* \"#utility.yul\":19440:19446   */\n      dup3\n        /* \"#utility.yul\":19436:19453   */\n      mul\n        /* \"#utility.yul\":19420:19434   */\n      calldatasize\n        /* \"#utility.yul\":19416:19454   */\n      sub\n        /* \"#utility.yul\":19406:19414   */\n      dup5\n        /* \"#utility.yul\":19402:19455   */\n      sgt\n        /* \"#utility.yul\":19399:19539   */\n      iszero\n      tag_289\n      jumpi\n        /* \"#utility.yul\":19458:19537   */\n      tag_290\n      tag_291\n      jump\t// in\n    tag_290:\n        /* \"#utility.yul\":19399:19539   */\n    tag_289:\n        /* \"#utility.yul\":18910:19546   */\n      pop\n        /* \"#utility.yul\":18831:19546   */\n      swap3\n      pop\n      swap3\n      swap1\n      pop\n      jump\t// out\n        /* \"#utility.yul\":19552:19648   */\n    tag_160:\n        /* \"#utility.yul\":19589:19596   */\n      0x00\n        /* \"#utility.yul\":19618:19642   */\n      tag_293\n        /* \"#utility.yul\":19636:19641   */\n      dup3\n        /* \"#utility.yul\":19618:19642   */\n      tag_294\n      jump\t// in\n    tag_293:\n        /* \"#utility.yul\":19607:19642   */\n      swap1\n      pop\n        /* \"#utility.yul\":19552:19648   */\n      swap2\n      swap1\n      pop\n      jump\t// out\n        /* \"#utility.yul\":19654:19758   */\n    tag_295:\n        /* \"#utility.yul\":19699:19706   */\n      0x00\n        /* \"#utility.yul\":19728:19752   */\n      tag_297\n        /* \"#utility.yul\":19746:19751   */\n      dup3\n        /* \"#utility.yul\":19728:19752   */\n      tag_294\n      jump\t// in\n    tag_297:\n        /* \"#utility.yul\":19717:19752   */\n      swap1\n      pop\n        /* \"#utility.yul\":19654:19758   */\n      swap2\n      swap1\n      pop\n      jump\t// out\n        /* \"#utility.yul\":19764:19890   */\n    tag_294:\n        /* \"#utility.yul\":19801:19808   */\n      0x00\n        /* \"#utility.yul\":19841:19883   */\n      0xffffffffffffffffffffffffffffffffffffffff\n        /* \"#utility.yul\":19834:19839   */\n      dup3\n        /* \"#utility.yul\":19830:19884   */\n      and\n        /* \"#utility.yul\":19819:19884   */\n      swap1\n      pop\n        /* \"#utility.yul\":19764:19890   */\n      swap2\n      swap1\n      pop\n      jump\t// out\n        /* \"#utility.yul\":19896:19973   */\n    tag_236:\n        /* \"#utility.yul\":19933:19940   */\n      0x00\n        /* \"#utility.yul\":19962:19967   */\n      dup2\n        /* \"#utility.yul\":19951:19967   */\n      swap1\n      pop\n        /* \"#utility.yul\":19896:19973   */\n      swap2\n      swap1\n      pop\n      jump\t// out\n        /* \"#utility.yul\":19979:20133   */\n    tag_62:\n        /* \"#utility.yul\":20063:20069   */\n      dup3\n        /* \"#utility.yul\":20058:20061   */\n      dup2\n        /* \"#utility.yul\":20053:20056   */\n      dup4\n        /* \"#utility.yul\":20040:20070   */\n      calldatacopy\n        /* \"#utility.yul\":20125:20126   */\n      0x00\n        /* \"#utility.yul\":20116:20122   */\n      dup4\n        /* \"#utility.yul\":20111:20114   */\n      dup4\n        /* \"#utility.yul\":20107:20123   */\n      add\n        /* \"#utility.yul\":20100:20127   */\n      mstore\n        /* \"#utility.yul\":19979:20133   */\n      pop\n      pop\n      pop\n      jump\t// out\n        /* \"#utility.yul\":20139:20446   */\n    tag_206:\n        /* \"#utility.yul\":20207:20208   */\n      0x00\n        /* \"#utility.yul\":20217:20330   */\n    tag_302:\n        /* \"#utility.yul\":20231:20237   */\n      dup4\n        /* \"#utility.yul\":20228:20229   */\n      dup2\n        /* \"#utility.yul\":20225:20238   */\n      lt\n        /* \"#utility.yul\":20217:20330   */\n      iszero\n      tag_304\n      jumpi\n        /* \"#utility.yul\":20316:20317   */\n      dup1\n        /* \"#utility.yul\":20311:20314   */\n      dup3\n        /* \"#utility.yul\":20307:20318   */\n      add\n        /* \"#utility.yul\":20301:20319   */\n      mload\n        /* \"#utility.yul\":20297:20298   */\n      dup2\n        /* \"#utility.yul\":20292:20295   */\n      dup5\n        /* \"#utility.yul\":20288:20299   */\n      add\n        /* \"#utility.yul\":20281:20320   */\n      mstore\n        /* \"#utility.yul\":20253:20255   */\n      0x20\n        /* \"#utility.yul\":20250:20251   */\n      dup2\n        /* \"#utility.yul\":20246:20256   */\n      add\n        /* \"#utility.yul\":20241:20256   */\n      swap1\n      pop\n        /* \"#utility.yul\":20217:20330   */\n      jump(tag_302)\n    tag_304:\n        /* \"#utility.yul\":20348:20354   */\n      dup4\n        /* \"#utility.yul\":20345:20346   */\n      dup2\n        /* \"#utility.yul\":20342:20355   */\n      gt\n        /* \"#utility.yul\":20339:20440   */\n      iszero\n      tag_305\n      jumpi\n        /* \"#utility.yul\":20428:20429   */\n      0x00\n        /* \"#utility.yul\":20419:20425   */\n      dup5\n        /* \"#utility.yul\":20414:20417   */\n      dup5\n        /* \"#utility.yul\":20410:20426   */\n      add\n        /* \"#utility.yul\":20403:20430   */\n      mstore\n        /* \"#utility.yul\":20339:20440   */\n    tag_305:\n        /* \"#utility.yul\":20188:20446   */\n      pop\n        /* \"#utility.yul\":20139:20446   */\n      pop\n      pop\n      pop\n      jump\t// out\n        /* \"#utility.yul\":20452:20733   */\n    tag_256:\n        /* \"#utility.yul\":20535:20562   */\n      tag_307\n        /* \"#utility.yul\":20557:20561   */\n      dup3\n        /* \"#utility.yul\":20535:20562   */\n      tag_208\n      jump\t// in\n    tag_307:\n        /* \"#utility.yul\":20527:20533   */\n      dup2\n        /* \"#utility.yul\":20523:20563   */\n      add\n        /* \"#utility.yul\":20665:20671   */\n      dup2\n        /* \"#utility.yul\":20653:20663   */\n      dup2\n        /* \"#utility.yul\":20650:20672   */\n      lt\n        /* \"#utility.yul\":20629:20647   */\n      0xffffffffffffffff\n        /* \"#utility.yul\":20617:20627   */\n      dup3\n        /* \"#utility.yul\":20614:20648   */\n      gt\n        /* \"#utility.yul\":20611:20673   */\n      or\n        /* \"#utility.yul\":20608:20696   */\n      iszero\n      tag_308\n      jumpi\n        /* \"#utility.yul\":20676:20694   */\n      tag_309\n      tag_261\n      jump\t// in\n    tag_309:\n        /* \"#utility.yul\":20608:20696   */\n    tag_308:\n        /* \"#utility.yul\":20716:20726   */\n      dup1\n        /* \"#utility.yul\":20712:20714   */\n      0x40\n        /* \"#utility.yul\":20705:20727   */\n      mstore\n        /* \"#utility.yul\":20495:20733   */\n      pop\n        /* \"#utility.yul\":20452:20733   */\n      pop\n      pop\n      jump\t// out\n        /* \"#utility.yul\":20739:20919   */\n    tag_261:\n        /* \"#utility.yul\":20787:20864   */\n      0x4e487b7100000000000000000000000000000000000000000000000000000000\n        /* \"#utility.yul\":20784:20785   */\n      0x00\n        /* \"#utility.yul\":20777:20865   */\n      mstore\n        /* \"#utility.yul\":20884:20888   */\n      0x41\n        /* \"#utility.yul\":20881:20882   */\n      0x04\n        /* \"#utility.yul\":20874:20889   */\n      mstore\n        /* \"#utility.yul\":20908:20912   */\n      0x24\n        /* \"#utility.yul\":20905:20906   */\n      0x00\n        /* \"#utility.yul\":20898:20913   */\n      revert\n        /* \"#utility.yul\":20925:21042   */\n    tag_288:\n        /* \"#utility.yul\":21034:21035   */\n      0x00\n        /* \"#utility.yul\":21031:21032   */\n      dup1\n        /* \"#utility.yul\":21024:21036   */\n      revert\n        /* \"#utility.yul\":21048:21165   */\n    tag_83:\n        /* \"#utility.yul\":21157:21158   */\n      0x00\n        /* \"#utility.yul\":21154:21155   */\n      dup1\n        /* \"#utility.yul\":21147:21159   */\n      revert\n        /* \"#utility.yul\":21171:21288   */\n    tag_75:\n        /* \"#utility.yul\":21280:21281   */\n      0x00\n        /* \"#utility.yul\":21277:21278   */\n      dup1\n        /* \"#utility.yul\":21270:21282   */\n      revert\n        /* \"#utility.yul\":21294:21411   */\n    tag_108:\n        /* \"#utility.yul\":21403:21404   */\n      0x00\n        /* \"#utility.yul\":21400:21401   */\n      dup1\n        /* \"#utility.yul\":21393:21405   */\n      revert\n        /* \"#utility.yul\":21417:21534   */\n    tag_113:\n        /* \"#utility.yul\":21526:21527   */\n      0x00\n        /* \"#utility.yul\":21523:21524   */\n      dup1\n        /* \"#utility.yul\":21516:21528   */\n      revert\n        /* \"#utility.yul\":21540:21657   */\n    tag_291:\n        /* \"#utility.yul\":21649:21650   */\n      0x00\n        /* \"#utility.yul\":21646:21647   */\n      dup1\n        /* \"#utility.yul\":21639:21651   */\n      revert\n        /* \"#utility.yul\":21663:21780   */\n    tag_117:\n        /* \"#utility.yul\":21772:21773   */\n      0x00\n        /* \"#utility.yul\":21769:21770   */\n      dup1\n        /* \"#utility.yul\":21762:21774   */\n      revert\n        /* \"#utility.yul\":21786:21903   */\n    tag_36:\n        /* \"#utility.yul\":21895:21896   */\n      0x00\n        /* \"#utility.yul\":21892:21893   */\n      dup1\n        /* \"#utility.yul\":21885:21897   */\n      revert\n        /* \"#utility.yul\":21909:22026   */\n    tag_60:\n        /* \"#utility.yul\":22018:22019   */\n      0x00\n        /* \"#utility.yul\":22015:22016   */\n      dup1\n        /* \"#utility.yul\":22008:22020   */\n      revert\n        /* \"#utility.yul\":22032:22149   */\n    tag_129:\n        /* \"#utility.yul\":22141:22142   */\n      0x00\n        /* \"#utility.yul\":22138:22139   */\n      dup1\n        /* \"#utility.yul\":22131:22143   */\n      revert\n        /* \"#utility.yul\":22155:22272   */\n    tag_184:\n        /* \"#utility.yul\":22264:22265   */\n      0x00\n        /* \"#utility.yul\":22261:22262   */\n      dup1\n        /* \"#utility.yul\":22254:22266   */\n      revert\n        /* \"#utility.yul\":22278:22395   */\n    tag_285:\n        /* \"#utility.yul\":22387:22388   */\n      0x00\n        /* \"#utility.yul\":22384:22385   */\n      dup1\n        /* \"#utility.yul\":22377:22389   */\n      revert\n        /* \"#utility.yul\":22401:22518   */\n    tag_126:\n        /* \"#utility.yul\":22510:22511   */\n      0x00\n        /* \"#utility.yul\":22507:22508   */\n      dup1\n        /* \"#utility.yul\":22500:22512   */\n      revert\n        /* \"#utility.yul\":22524:22626   */\n    tag_208:\n        /* \"#utility.yul\":22565:22571   */\n      0x00\n        /* \"#utility.yul\":22616:22618   */\n      0x1f\n        /* \"#utility.yul\":22612:22619   */\n      not\n        /* \"#utility.yul\":22607:22609   */\n      0x1f\n        /* \"#utility.yul\":22600:22605   */\n      dup4\n        /* \"#utility.yul\":22596:22610   */\n      add\n        /* \"#utility.yul\":22592:22620   */\n      and\n        /* \"#utility.yul\":22582:22620   */\n      swap1\n      pop\n        /* \"#utility.yul\":22524:22626   */\n      swap2\n      swap1\n      pop\n      jump\t// out\n        /* \"#utility.yul\":22632:22754   */\n    tag_66:\n        /* \"#utility.yul\":22705:22729   */\n      tag_326\n        /* \"#utility.yul\":22723:22728   */\n      dup2\n        /* \"#utility.yul\":22705:22729   */\n      tag_160\n      jump\t// in\n    tag_326:\n        /* \"#utility.yul\":22698:22703   */\n      dup2\n        /* \"#utility.yul\":22695:22730   */\n      eq\n        /* \"#utility.yul\":22685:22748   */\n      tag_327\n      jumpi\n        /* \"#utility.yul\":22744:22745   */\n      0x00\n        /* \"#utility.yul\":22741:22742   */\n      dup1\n        /* \"#utility.yul\":22734:22746   */\n      revert\n        /* \"#utility.yul\":22685:22748   */\n    tag_327:\n        /* \"#utility.yul\":22632:22754   */\n      pop\n      jump\t// out\n        /* \"#utility.yul\":22760:22898   */\n    tag_70:\n        /* \"#utility.yul\":22841:22873   */\n      tag_329\n        /* \"#utility.yul\":22867:22872   */\n      dup2\n        /* \"#utility.yul\":22841:22873   */\n      tag_295\n      jump\t// in\n    tag_329:\n        /* \"#utility.yul\":22834:22839   */\n      dup2\n        /* \"#utility.yul\":22831:22874   */\n      eq\n        /* \"#utility.yul\":22821:22892   */\n      tag_330\n      jumpi\n        /* \"#utility.yul\":22888:22889   */\n      0x00\n        /* \"#utility.yul\":22885:22886   */\n      dup1\n        /* \"#utility.yul\":22878:22890   */\n      revert\n        /* \"#utility.yul\":22821:22892   */\n    tag_330:\n        /* \"#utility.yul\":22760:22898   */\n      pop\n      jump\t// out\n        /* \"#utility.yul\":22904:23026   */\n    tag_122:\n        /* \"#utility.yul\":22977:23001   */\n      tag_332\n        /* \"#utility.yul\":22995:23000   */\n      dup2\n        /* \"#utility.yul\":22977:23001   */\n      tag_236\n      jump\t// in\n    tag_332:\n        /* \"#utility.yul\":22970:22975   */\n      dup2\n        /* \"#utility.yul\":22967:23002   */\n      eq\n        /* \"#utility.yul\":22957:23020   */\n      tag_333\n      jumpi\n        /* \"#utility.yul\":23016:23017   */\n      0x00\n        /* \"#utility.yul\":23013:23014   */\n      dup1\n        /* \"#utility.yul\":23006:23018   */\n      revert\n        /* \"#utility.yul\":22957:23020   */\n    tag_333:\n        /* \"#utility.yul\":22904:23026   */\n      pop\n      jump\t// out\n\n    auxdata: 0xa26469706673582212203cc06046a40e246903ac45c637fc06cc5b726ba970be4f390ca6ee4453d4b71564736f6c63430008070033\n}\n",
				"bytecode": {
					"linkReferences": {},
					"object": "608060405234801561001057600080fd5b50610cbc806100206000396000f3fe608060405234801561001057600080fd5b50600436106100365760003560e01c80637049e0871461003b578063e5c5e9a31461006b575b600080fd5b6100556004803603810190610050919061054c565b61009e565b6040516100629190610881565b60405180910390f35b61008560048036038101906100809190610460565b6100d3565b60405161009594939291906108f8565b60405180910390f35b606085858585856040516020016100b99594939291906108a3565b604051602081830303815290604052905095945050505050565b60008060606100e0610108565b85858101906100ef91906104ad565b8094508195508296508397505050505092959194509250565b604051806040016040528060608152602001610122610128565b81525090565b6040518060400160405280600290602082028036833780820191505090505090565b600061015d61015884610970565b61094b565b9050808285602086028201111561017757610176610c12565b5b60005b858110156101a7578161018d888261044b565b84526020840193506020830192505060018101905061017a565b5050509392505050565b60006101c46101bf84610996565b61094b565b905080838252602082019050828560208602820111156101e7576101e6610c12565b5b60005b8581101561021757816101fd888261044b565b8452602084019350602083019250506001810190506101ea565b5050509392505050565b600061023461022f846109c2565b61094b565b9050828152602081018484840111156102505761024f610c17565b5b61025b848285610b4d565b509392505050565b60008135905061027281610c41565b92915050565b60008135905061028781610c58565b92915050565b600082601f8301126102a2576102a1610bf9565b5b60026102af84828561014a565b91505092915050565b60008083601f8401126102ce576102cd610bf9565b5b8235905067ffffffffffffffff8111156102eb576102ea610bf4565b5b60208301915083602082028301111561030757610306610c12565b5b9250929050565b600082601f83011261032357610322610bf9565b5b81356103338482602086016101b1565b91505092915050565b60008083601f84011261035257610351610bf9565b5b8235905067ffffffffffffffff81111561036f5761036e610bf4565b5b60208301915083600182028301111561038b5761038a610c12565b5b9250929050565b600082601f8301126103a7576103a6610bf9565b5b81356103b7848260208601610221565b91505092915050565b6000606082840312156103d6576103d5610bfe565b5b81905092915050565b6000606082840312156103f5576103f4610c03565b5b6103ff604061094b565b9050600082013567ffffffffffffffff81111561041f5761041e610c0d565b5b61042b84828501610392565b600083015250602061043f8482850161028d565b60208301525092915050565b60008135905061045a81610c6f565b92915050565b6000806020838503121561047757610476610c2b565b5b600083013567ffffffffffffffff81111561049557610494610c1c565b5b6104a18582860161033c565b92509250509250929050565b600080600080608085870312156104c7576104c6610c2b565b5b60006104d58782880161044b565b94505060206104e687828801610278565b935050604085013567ffffffffffffffff81111561050757610506610c1c565b5b6105138782880161030e565b925050606085013567ffffffffffffffff81111561053457610533610c1c565b5b610540878288016103df565b91505092959194509250565b60008060008060006080868803121561056857610567610c2b565b5b60006105768882890161044b565b955050602061058788828901610263565b945050604086013567ffffffffffffffff8111156105a8576105a7610c1c565b5b6105b4888289016102b8565b9350935050606086013567ffffffffffffffff8111156105d7576105d6610c1c565b5b6105e3888289016103c0565b9150509295509295909350565b60006105fc8383610863565b60208301905092915050565b61061181610aff565b82525050565b61062360408383610b4d565b5050565b61063081610a0d565b61063a8184610a53565b9250610645826109f3565b8060005b8381101561067657815161065d87826105f0565b965061066883610a39565b925050600181019050610649565b505050505050565b600061068a8385610a5e565b93507f07ffffffffffffffffffffffffffffffffffffffffffffffffffffffffffffff8311156106bd576106bc610c21565b5b6020830292506106ce838584610b4d565b82840190509392505050565b60006106e582610a18565b6106ef8185610a5e565b93506106fa836109fd565b8060005b8381101561072b57815161071288826105f0565b975061071d83610a46565b9250506001810190506106fe565b5085935050505092915050565b600061074382610a23565b61074d8185610a6f565b935061075d818560208601610b5c565b61076681610c30565b840191505092915050565b600061077d8385610a80565b935061078a838584610b4d565b61079383610c30565b840190509392505050565b60006107a982610a2e565b6107b38185610a80565b93506107c3818560208601610b5c565b6107cc81610c30565b840191505092915050565b6000606083016107ea6000840184610a9c565b85830360008701526107fd838284610771565b9250505061080e6020840184610a91565b61081b6020860182610617565b508091505092915050565b60006060830160008301518482036000860152610843828261079e565b91505060208301516108586020860182610627565b508091505092915050565b61086c81610b43565b82525050565b61087b81610b43565b82525050565b6000602082019050818103600083015261089b8184610738565b905092915050565b60006080820190506108b86000830188610872565b6108c56020830187610608565b81810360408301526108d881858761067e565b905081810360608301526108ec81846107d7565b90509695505050505050565b600060808201905061090d6000830187610872565b61091a6020830186610608565b818103604083015261092c81856106da565b905081810360608301526109408184610826565b905095945050505050565b6000610955610966565b90506109618282610b8f565b919050565b6000604051905090565b600067ffffffffffffffff82111561098b5761098a610bc0565b5b602082029050919050565b600067ffffffffffffffff8211156109b1576109b0610bc0565b5b602082029050602081019050919050565b600067ffffffffffffffff8211156109dd576109dc610bc0565b5b6109e682610c30565b9050602081019050919050565b6000819050919050565b6000819050602082019050919050565b600060029050919050565b600081519050919050565b600081519050919050565b600081519050919050565b6000602082019050919050565b6000602082019050919050565b600081905092915050565b600082825260208201905092915050565b600082825260208201905092915050565b600082825260208201905092915050565b600082905092915050565b60008083356001602003843603038112610ab957610ab8610c26565b5b83810192508235915060208301925067ffffffffffffffff821115610ae157610ae0610bef565b5b600182023603841315610af757610af6610c08565b5b509250929050565b6000610b0a82610b23565b9050919050565b6000610b1c82610b23565b9050919050565b600073ffffffffffffffffffffffffffffffffffffffff82169050919050565b6000819050919050565b82818337600083830152505050565b60005b83811015610b7a578082015181840152602081019050610b5f565b83811115610b89576000848401525b50505050565b610b9882610c30565b810181811067ffffffffffffffff82111715610bb757610bb6610bc0565b5b80604052505050565b7f4e487b7100000000000000000000000000000000000000000000000000000000600052604160045260246000fd5b600080fd5b600080fd5b600080fd5b600080fd5b600080fd5b600080fd5b600080fd5b600080fd5b600080fd5b600080fd5b600080fd5b600080fd5b600080fd5b6000601f19601f8301169050919050565b610c4a81610aff565b8114610c5557600080fd5b50565b610c6181610b11565b8114610c6c57600080fd5b50565b610c7881610b43565b8114610c8357600080fd5b5056fea26469706673582212203cc06046a40e246903ac45c637fc06cc5b726ba970be4f390ca6ee4453d4b71564736f6c63430008070033",
					"opcodes": "PUSH1 0x80 PUSH1 0x40 MSTORE CALLVALUE DUP1 ISZERO PUSH2 0x10 JUMPI PUSH1 0x0 DUP1 REVERT JUMPDEST POP PUSH2 0xCBC DUP1 PUSH2 0x20 PUSH1 0x0 CODECOPY PUSH1 0x0 RETURN INVALID PUSH1 0x80 PUSH1 0x40 MSTORE CALLVALUE DUP1 ISZERO PUSH2 0x10 JUMPI PUSH1 0x0 DUP1 REVERT JUMPDEST POP PUSH1 0x4 CALLDATASIZE LT PUSH2 0x36 JUMPI PUSH1 0x0 CALLDATALOAD PUSH1 0xE0 SHR DUP1 PUSH4 0x7049E087 EQ PUSH2 0x3B JUMPI DUP1 PUSH4 0xE5C5E9A3 EQ PUSH2 0x6B JUMPI JUMPDEST PUSH1 0x0 DUP1 REVERT JUMPDEST PUSH2 0x55 PUSH1 0x4 DUP1 CALLDATASIZE SUB DUP2 ADD SWAP1 PUSH2 0x50 SWAP2 SWAP1 PUSH2 0x54C JUMP JUMPDEST PUSH2 0x9E JUMP JUMPDEST PUSH1 0x40 MLOAD PUSH2 0x62 SWAP2 SWAP1 PUSH2 0x881 JUMP JUMPDEST PUSH1 0x40 MLOAD DUP1 SWAP2 SUB SWAP1 RETURN JUMPDEST PUSH2 0x85 PUSH1 0x4 DUP1 CALLDATASIZE SUB DUP2 ADD SWAP1 PUSH2 0x80 SWAP2 SWAP1 PUSH2 0x460 JUMP JUMPDEST PUSH2 0xD3 JUMP JUMPDEST PUSH1 0x40 MLOAD PUSH2 0x95 SWAP5 SWAP4 SWAP3 SWAP2 SWAP1 PUSH2 0x8F8 JUMP JUMPDEST PUSH1 0x40 MLOAD DUP1 SWAP2 SUB SWAP1 RETURN JUMPDEST PUSH1 0x60 DUP6 DUP6 DUP6 DUP6 DUP6 PUSH1 0x40 MLOAD PUSH1 0x20 ADD PUSH2 0xB9 SWAP6 SWAP5 SWAP4 SWAP3 SWAP2 SWAP1 PUSH2 0x8A3 JUMP JUMPDEST PUSH1 0x40 MLOAD PUSH1 0x20 DUP2 DUP4 SUB SUB DUP2 MSTORE SWAP1 PUSH1 0x40 MSTORE SWAP1 POP SWAP6 SWAP5 POP POP POP POP POP JUMP JUMPDEST PUSH1 0x0 DUP1 PUSH1 0x60 PUSH2 0xE0 PUSH2 0x108 JUMP JUMPDEST DUP6 DUP6 DUP2 ADD SWAP1 PUSH2 0xEF SWAP2 SWAP1 PUSH2 0x4AD JUMP JUMPDEST DUP1 SWAP5 POP DUP2 SWAP6 POP DUP3 SWAP7 POP DUP4 SWAP8 POP POP POP POP POP SWAP3 SWAP6 SWAP2 SWAP5 POP SWAP3 POP JUMP JUMPDEST PUSH1 0x40 MLOAD DUP1 PUSH1 0x40 ADD PUSH1 0x40 MSTORE DUP1 PUSH1 0x60 DUP2 MSTORE PUSH1 0x20 ADD PUSH2 0x122 PUSH2 0x128 JUMP JUMPDEST DUP2 MSTORE POP SWAP1 JUMP JUMPDEST PUSH1 0x40 MLOAD DUP1 PUSH1 0x40 ADD PUSH1 0x40 MSTORE DUP1 PUSH1 0x2 SWAP1 PUSH1 0x20 DUP3 MUL DUP1 CALLDATASIZE DUP4 CALLDATACOPY DUP1 DUP3 ADD SWAP2 POP POP SWAP1 POP POP SWAP1 JUMP JUMPDEST PUSH1 0x0 PUSH2 0x15D PUSH2 0x158 DUP5 PUSH2 0x970 JUMP JUMPDEST PUSH2 0x94B JUMP JUMPDEST SWAP1 POP DUP1 DUP3 DUP6 PUSH1 0x20 DUP7 MUL DUP3 ADD GT ISZERO PUSH2 0x177 JUMPI PUSH2 0x176 PUSH2 0xC12 JUMP JUMPDEST JUMPDEST PUSH1 0x0 JUMPDEST DUP6 DUP2 LT ISZERO PUSH2 0x1A7 JUMPI DUP2 PUSH2 0x18D DUP9 DUP3 PUSH2 0x44B JUMP JUMPDEST DUP5 MSTORE PUSH1 0x20 DUP5 ADD SWAP4 POP PUSH1 0x20 DUP4 ADD SWAP3 POP POP PUSH1 0x1 DUP2 ADD SWAP1 POP PUSH2 0x17A JUMP JUMPDEST POP POP POP SWAP4 SWAP3 POP POP POP JUMP JUMPDEST PUSH1 0x0 PUSH2 0x1C4 PUSH2 0x1BF DUP5 PUSH2 0x996 JUMP JUMPDEST PUSH2 0x94B JUMP JUMPDEST SWAP1 POP DUP1 DUP4 DUP3 MSTORE PUSH1 0x20 DUP3 ADD SWAP1 POP DUP3 DUP6 PUSH1 0x20 DUP7 MUL DUP3 ADD GT ISZERO PUSH2 0x1E7 JUMPI PUSH2 0x1E6 PUSH2 0xC12 JUMP JUMPDEST JUMPDEST PUSH1 0x0 JUMPDEST DUP6 DUP2 LT ISZERO PUSH2 0x217 JUMPI DUP2 PUSH2 0x1FD DUP9 DUP3 PUSH2 0x44B JUMP JUMPDEST DUP5 MSTORE PUSH1 0x20 DUP5 ADD SWAP4 POP PUSH1 0x20 DUP4 ADD SWAP3 POP POP PUSH1 0x1 DUP2 ADD SWAP1 POP PUSH2 0x1EA JUMP JUMPDEST POP POP POP SWAP4 SWAP3 POP POP POP JUMP JUMPDEST PUSH1 0x0 PUSH2 0x234 PUSH2 0x22F DUP5 PUSH2 0x9C2 JUMP JUMPDEST PUSH2 0x94B JUMP JUMPDEST SWAP1 POP DUP3 DUP2 MSTORE PUSH1 0x20 DUP2 ADD DUP5 DUP5 DUP5 ADD GT ISZERO PUSH2 0x250 JUMPI PUSH2 0x24F PUSH2 0xC17 JUMP JUMPDEST JUMPDEST PUSH2 0x25B DUP5 DUP3 DUP6 PUSH2 0xB4D JUMP JUMPDEST POP SWAP4 SWAP3 POP POP POP JUMP JUMPDEST PUSH1 0x0 DUP2 CALLDATALOAD SWAP1 POP PUSH2 0x272 DUP2 PUSH2 0xC41 JUMP JUMPDEST SWAP3 SWAP2 POP POP JUMP JUMPDEST PUSH1 0x0 DUP2 CALLDATALOAD SWAP1 POP PUSH2 0x287 DUP2 PUSH2 0xC58 JUMP JUMPDEST SWAP3 SWAP2 POP POP JUMP JUMPDEST PUSH1 0x0 DUP3 PUSH1 0x1F DUP4 ADD SLT PUSH2 0x2A2 JUMPI PUSH2 0x2A1 PUSH2 0xBF9 JUMP JUMPDEST JUMPDEST PUSH1 0x2 PUSH2 0x2AF DUP5 DUP3 DUP6 PUSH2 0x14A JUMP JUMPDEST SWAP2 POP POP SWAP3 SWAP2 POP POP JUMP JUMPDEST PUSH1 0x0 DUP1 DUP4 PUSH1 0x1F DUP5 ADD SLT PUSH2 0x2CE JUMPI PUSH2 0x2CD PUSH2 0xBF9 JUMP JUMPDEST JUMPDEST DUP3 CALLDATALOAD SWAP1 POP PUSH8 0xFFFFFFFFFFFFFFFF DUP2 GT ISZERO PUSH2 0x2EB JUMPI PUSH2 0x2EA PUSH2 0xBF4 JUMP JUMPDEST JUMPDEST PUSH1 0x20 DUP4 ADD SWAP2 POP DUP4 PUSH1 0x20 DUP3 MUL DUP4 ADD GT ISZERO PUSH2 0x307 JUMPI PUSH2 0x306 PUSH2 0xC12 JUMP JUMPDEST JUMPDEST SWAP3 POP SWAP3 SWAP1 POP JUMP JUMPDEST PUSH1 0x0 DUP3 PUSH1 0x1F DUP4 ADD SLT PUSH2 0x323 JUMPI PUSH2 0x322 PUSH2 0xBF9 JUMP JUMPDEST JUMPDEST DUP2 CALLDATALOAD PUSH2 0x333 DUP5 DUP3 PUSH1 0x20 DUP7 ADD PUSH2 0x1B1 JUMP JUMPDEST SWAP2 POP POP SWAP3 SWAP2 POP POP JUMP JUMPDEST PUSH1 0x0 DUP1 DUP4 PUSH1 0x1F DUP5 ADD SLT PUSH2 0x352 JUMPI PUSH2 0x351 PUSH2 0xBF9 JUMP JUMPDEST JUMPDEST DUP3 CALLDATALOAD SWAP1 POP PUSH8 0xFFFFFFFFFFFFFFFF DUP2 GT ISZERO PUSH2 0x36F JUMPI PUSH2 0x36E PUSH2 0xBF4 JUMP JUMPDEST JUMPDEST PUSH1 0x20 DUP4 ADD SWAP2 POP DUP4 PUSH1 0x1 DUP3 MUL DUP4 ADD GT ISZERO PUSH2 0x38B JUMPI PUSH2 0x38A PUSH2 0xC12 JUMP JUMPDEST JUMPDEST SWAP3 POP SWAP3 SWAP1 POP JUMP JUMPDEST PUSH1 0x0 DUP3 PUSH1 0x1F DUP4 ADD SLT PUSH2 0x3A7 JUMPI PUSH2 0x3A6 PUSH2 0xBF9 JUMP JUMPDEST JUMPDEST DUP2 CALLDATALOAD PUSH2 0x3B7 DUP5 DUP3 PUSH1 0x20 DUP7 ADD PUSH2 0x221 JUMP JUMPDEST SWAP2 POP POP SWAP3 SWAP2 POP POP JUMP JUMPDEST PUSH1 0x0 PUSH1 0x60 DUP3 DUP5 SUB SLT ISZERO PUSH2 0x3D6 JUMPI PUSH2 0x3D5 PUSH2 0xBFE JUMP JUMPDEST JUMPDEST DUP2 SWAP1 POP SWAP3 SWAP2 POP POP JUMP JUMPDEST PUSH1 0x0 PUSH1 0x60 DUP3 DUP5 SUB SLT ISZERO PUSH2 0x3F5 JUMPI PUSH2 0x3F4 PUSH2 0xC03 JUMP JUMPDEST JUMPDEST PUSH2 0x3FF PUSH1 0x40 PUSH2 0x94B JUMP JUMPDEST SWAP1 POP PUSH1 0x0 DUP3 ADD CALLDATALOAD PUSH8 0xFFFFFFFFFFFFFFFF DUP2 GT ISZERO PUSH2 0x41F JUMPI PUSH2 0x41E PUSH2 0xC0D JUMP JUMPDEST JUMPDEST PUSH2 0x42B DUP5 DUP3 DUP6 ADD PUSH2 0x392 JUMP JUMPDEST PUSH1 0x0 DUP4 ADD MSTORE POP PUSH1 0x20 PUSH2 0x43F DUP5 DUP3 DUP6 ADD PUSH2 0x28D JUMP JUMPDEST PUSH1 0x20 DUP4 ADD MSTORE POP SWAP3 SWAP2 POP POP JUMP JUMPDEST PUSH1 0x0 DUP2 CALLDATALOAD SWAP1 POP PUSH2 0x45A DUP2 PUSH2 0xC6F JUMP JUMPDEST SWAP3 SWAP2 POP POP JUMP JUMPDEST PUSH1 0x0 DUP1 PUSH1 0x20 DUP4 DUP6 SUB SLT ISZERO PUSH2 0x477 JUMPI PUSH2 0x476 PUSH2 0xC2B JUMP JUMPDEST JUMPDEST PUSH1 0x0 DUP4 ADD CALLDATALOAD PUSH8 0xFFFFFFFFFFFFFFFF DUP2 GT ISZERO PUSH2 0x495 JUMPI PUSH2 0x494 PUSH2 0xC1C JUMP JUMPDEST JUMPDEST PUSH2 0x4A1 DUP6 DUP3 DUP7 ADD PUSH2 0x33C JUMP JUMPDEST SWAP3 POP SWAP3 POP POP SWAP3 POP SWAP3 SWAP1 POP JUMP JUMPDEST PUSH1 0x0 DUP1 PUSH1 0x0 DUP1 PUSH1 0x80 DUP6 DUP8 SUB SLT ISZERO PUSH2 0x4C7 JUMPI PUSH2 0x4C6 PUSH2 0xC2B JUMP JUMPDEST JUMPDEST PUSH1 0x0 PUSH2 0x4D5 DUP8 DUP3 DUP9 ADD PUSH2 0x44B JUMP JUMPDEST SWAP5 POP POP PUSH1 0x20 PUSH2 0x4E6 DUP8 DUP3 DUP9 ADD PUSH2 0x278 JUMP JUMPDEST SWAP4 POP POP PUSH1 0x40 DUP6 ADD CALLDATALOAD PUSH8 0xFFFFFFFFFFFFFFFF DUP2 GT ISZERO PUSH2 0x507 JUMPI PUSH2 0x506 PUSH2 0xC1C JUMP JUMPDEST JUMPDEST PUSH2 0x513 DUP8 DUP3 DUP9 ADD PUSH2 0x30E JUMP JUMPDEST SWAP3 POP POP PUSH1 0x60 DUP6 ADD CALLDATALOAD PUSH8 0xFFFFFFFFFFFFFFFF DUP2 GT ISZERO PUSH2 0x534 JUMPI PUSH2 0x533 PUSH2 0xC1C JUMP JUMPDEST JUMPDEST PUSH2 0x540 DUP8 DUP3 DUP9 ADD PUSH2 0x3DF JUMP JUMPDEST SWAP2 POP POP SWAP3 SWAP6 SWAP2 SWAP5 POP SWAP3 POP JUMP JUMPDEST PUSH1 0x0 DUP1 PUSH1 0x0 DUP1 PUSH1 0x0 PUSH1 0x80 DUP7 DUP9 SUB SLT ISZERO PUSH2 0x568 JUMPI PUSH2 0x567 PUSH2 0xC2B JUMP JUMPDEST JUMPDEST PUSH1 0x0 PUSH2 0x576 DUP9 DUP3 DUP10 ADD PUSH2 0x44B JUMP JUMPDEST SWAP6 POP POP PUSH1 0x20 PUSH2 0x587 DUP9 DUP3 DUP10 ADD PUSH2 0x263 JUMP JUMPDEST SWAP5 POP POP PUSH1 0x40 DUP7 ADD CALLDATALOAD PUSH8 0xFFFFFFFFFFFFFFFF DUP2 GT ISZERO PUSH2 0x5A8 JUMPI PUSH2 0x5A7 PUSH2 0xC1C JUMP JUMPDEST JUMPDEST PUSH2 0x5B4 DUP9 DUP3 DUP10 ADD PUSH2 0x2B8 JUMP JUMPDEST SWAP4 POP SWAP4 POP POP PUSH1 0x60 DUP7 ADD CALLDATALOAD PUSH8 0xFFFFFFFFFFFFFFFF DUP2 GT ISZERO PUSH2 0x5D7 JUMPI PUSH2 0x5D6 PUSH2 0xC1C JUMP JUMPDEST JUMPDEST PUSH2 0x5E3 DUP9 DUP3 DUP10 ADD PUSH2 0x3C0 JUMP JUMPDEST SWAP2 POP POP SWAP3 SWAP6 POP SWAP3 SWAP6 SWAP1 SWAP4 POP JUMP JUMPDEST PUSH1 0x0 PUSH2 0x5FC DUP4 DUP4 PUSH2 0x863 JUMP JUMPDEST PUSH1 0x20 DUP4 ADD SWAP1 POP SWAP3 SWAP2 POP POP JUMP JUMPDEST PUSH2 0x611 DUP2 PUSH2 0xAFF JUMP JUMPDEST DUP3 MSTORE POP POP JUMP JUMPDEST PUSH2 0x623 PUSH1 0x40 DUP4 DUP4 PUSH2 0xB4D JUMP JUMPDEST POP POP JUMP JUMPDEST PUSH2 0x630 DUP2 PUSH2 0xA0D JUMP JUMPDEST PUSH2 0x63A DUP2 DUP5 PUSH2 0xA53 JUMP JUMPDEST SWAP3 POP PUSH2 0x645 DUP3 PUSH2 0x9F3 JUMP JUMPDEST DUP1 PUSH1 0x0 JUMPDEST DUP4 DUP2 LT ISZERO PUSH2 0x676 JUMPI DUP2 MLOAD PUSH2 0x65D DUP8 DUP3 PUSH2 0x5F0 JUMP JUMPDEST SWAP7 POP PUSH2 0x668 DUP4 PUSH2 0xA39 JUMP JUMPDEST SWAP3 POP POP PUSH1 0x1 DUP2 ADD SWAP1 POP PUSH2 0x649 JUMP JUMPDEST POP POP POP POP POP POP JUMP JUMPDEST PUSH1 0x0 PUSH2 0x68A DUP4 DUP6 PUSH2 0xA5E JUMP JUMPDEST SWAP4 POP PUSH32 0x7FFFFFFFFFFFFFFFFFFFFFFFFFFFFFFFFFFFFFFFFFFFFFFFFFFFFFFFFFFFFFF DUP4 GT ISZERO PUSH2 0x6BD JUMPI PUSH2 0x6BC PUSH2 0xC21 JUMP JUMPDEST JUMPDEST PUSH1 0x20 DUP4 MUL SWAP3 POP PUSH2 0x6CE DUP4 DUP6 DUP5 PUSH2 0xB4D JUMP JUMPDEST DUP3 DUP5 ADD SWAP1 POP SWAP4 SWAP3 POP POP POP JUMP JUMPDEST PUSH1 0x0 PUSH2 0x6E5 DUP3 PUSH2 0xA18 JUMP JUMPDEST PUSH2 0x6EF DUP2 DUP6 PUSH2 0xA5E JUMP JUMPDEST SWAP4 POP PUSH2 0x6FA DUP4 PUSH2 0x9FD JUMP JUMPDEST DUP1 PUSH1 0x0 JUMPDEST DUP4 DUP2 LT ISZERO PUSH2 0x72B JUMPI DUP2 MLOAD PUSH2 0x712 DUP9 DUP3 PUSH2 0x5F0 JUMP JUMPDEST SWAP8 POP PUSH2 0x71D DUP4 PUSH2 0xA46 JUMP JUMPDEST SWAP3 POP POP PUSH1 0x1 DUP2 ADD SWAP1 POP PUSH2 0x6FE JUMP JUMPDEST POP DUP6 SWAP4 POP POP POP POP SWAP3 SWAP2 POP POP JUMP JUMPDEST PUSH1 0x0 PUSH2 0x743 DUP3 PUSH2 0xA23 JUMP JUMPDEST PUSH2 0x74D DUP2 DUP6 PUSH2 0xA6F JUMP JUMPDEST SWAP4 POP PUSH2 0x75D DUP2 DUP6 PUSH1 0x20 DUP7 ADD PUSH2 0xB5C JUMP JUMPDEST PUSH2 0x766 DUP2 PUSH2 0xC30 JUMP JUMPDEST DUP5 ADD SWAP2 POP POP SWAP3 SWAP2 POP POP JUMP JUMPDEST PUSH1 0x0 PUSH2 0x77D DUP4 DUP6 PUSH2 0xA80 JUMP JUMPDEST SWAP4 POP PUSH2 0x78A DUP4 DUP6 DUP5 PUSH2 0xB4D JUMP JUMPDEST PUSH2 0x793 DUP4 PUSH2 0xC30 JUMP JUMPDEST DUP5 ADD SWAP1 POP SWAP4 SWAP3 POP POP POP JUMP JUMPDEST PUSH1 0x0 PUSH2 0x7A9 DUP3 PUSH2 0xA2E JUMP JUMPDEST PUSH2 0x7B3 DUP2 DUP6 PUSH2 0xA80 JUMP JUMPDEST SWAP4 POP PUSH2 0x7C3 DUP2 DUP6 PUSH1 0x20 DUP7 ADD PUSH2 0xB5C JUMP JUMPDEST PUSH2 0x7CC DUP2 PUSH2 0xC30 JUMP JUMPDEST DUP5 ADD SWAP2 POP POP SWAP3 SWAP2 POP POP JUMP JUMPDEST PUSH1 0x0 PUSH1 0x60 DUP4 ADD PUSH2 0x7EA PUSH1 0x0 DUP5 ADD DUP5 PUSH2 0xA9C JUMP JUMPDEST DUP6 DUP4 SUB PUSH1 0x0 DUP8 ADD MSTORE PUSH2 0x7FD DUP4 DUP3 DUP5 PUSH2 0x771 JUMP JUMPDEST SWAP3 POP POP POP PUSH2 0x80E PUSH1 0x20 DUP5 ADD DUP5 PUSH2 0xA91 JUMP JUMPDEST PUSH2 0x81B PUSH1 0x20 DUP7 ADD DUP3 PUSH2 0x617 JUMP JUMPDEST POP DUP1 SWAP2 POP POP SWAP3 SWAP2 POP POP JUMP JUMPDEST PUSH1 0x0 PUSH1 0x60 DUP4 ADD PUSH1 0x0 DUP4 ADD MLOAD DUP5 DUP3 SUB PUSH1 0x0 DUP7 ADD MSTORE PUSH2 0x843 DUP3 DUP3 PUSH2 0x79E JUMP JUMPDEST SWAP2 POP POP PUSH1 0x20 DUP4 ADD MLOAD PUSH2 0x858 PUSH1 0x20 DUP7 ADD DUP3 PUSH2 0x627 JUMP JUMPDEST POP DUP1 SWAP2 POP POP SWAP3 SWAP2 POP POP JUMP JUMPDEST PUSH2 0x86C DUP2 PUSH2 0xB43 JUMP JUMPDEST DUP3 MSTORE POP POP JUMP JUMPDEST PUSH2 0x87B DUP2 PUSH2 0xB43 JUMP JUMPDEST DUP3 MSTORE POP POP JUMP JUMPDEST PUSH1 0x0 PUSH1 0x20 DUP3 ADD SWAP1 POP DUP2 DUP2 SUB PUSH1 0x0 DUP4 ADD MSTORE PUSH2 0x89B DUP2 DUP5 PUSH2 0x738 JUMP JUMPDEST SWAP1 POP SWAP3 SWAP2 POP POP JUMP JUMPDEST PUSH1 0x0 PUSH1 0x80 DUP3 ADD SWAP1 POP PUSH2 0x8B8 PUSH1 0x0 DUP4 ADD DUP9 PUSH2 0x872 JUMP JUMPDEST PUSH2 0x8C5 PUSH1 0x20 DUP4 ADD DUP8 PUSH2 0x608 JUMP JUMPDEST DUP2 DUP2 SUB PUSH1 0x40 DUP4 ADD MSTORE PUSH2 0x8D8 DUP2 DUP6 DUP8 PUSH2 0x67E JUMP JUMPDEST SWAP1 POP DUP2 DUP2 SUB PUSH1 0x60 DUP4 ADD MSTORE PUSH2 0x8EC DUP2 DUP5 PUSH2 0x7D7 JUMP JUMPDEST SWAP1 POP SWAP7 SWAP6 POP POP POP POP POP POP JUMP JUMPDEST PUSH1 0x0 PUSH1 0x80 DUP3 ADD SWAP1 POP PUSH2 0x90D PUSH1 0x0 DUP4 ADD DUP8 PUSH2 0x872 JUMP JUMPDEST PUSH2 0x91A PUSH1 0x20 DUP4 ADD DUP7 PUSH2 0x608 JUMP JUMPDEST DUP2 DUP2 SUB PUSH1 0x40 DUP4 ADD MSTORE PUSH2 0x92C DUP2 DUP6 PUSH2 0x6DA JUMP JUMPDEST SWAP1 POP DUP2 DUP2 SUB PUSH1 0x60 DUP4 ADD MSTORE PUSH2 0x940 DUP2 DUP5 PUSH2 0x826 JUMP JUMPDEST SWAP1 POP SWAP6 SWAP5 POP POP POP POP POP JUMP JUMPDEST PUSH1 0x0 PUSH2 0x955 PUSH2 0x966 JUMP JUMPDEST SWAP1 POP PUSH2 0x961 DUP3 DUP3 PUSH2 0xB8F JUMP JUMPDEST SWAP2 SWAP1 POP JUMP JUMPDEST PUSH1 0x0 PUSH1 0x40 MLOAD SWAP1 POP SWAP1 JUMP JUMPDEST PUSH1 0x0 PUSH8 0xFFFFFFFFFFFFFFFF DUP3 GT ISZERO PUSH2 0x98B JUMPI PUSH2 0x98A PUSH2 0xBC0 JUMP JUMPDEST JUMPDEST PUSH1 0x20 DUP3 MUL SWAP1 POP SWAP2 SWAP1 POP JUMP JUMPDEST PUSH1 0x0 PUSH8 0xFFFFFFFFFFFFFFFF DUP3 GT ISZERO PUSH2 0x9B1 JUMPI PUSH2 0x9B0 PUSH2 0xBC0 JUMP JUMPDEST JUMPDEST PUSH1 0x20 DUP3 MUL SWAP1 POP PUSH1 0x20 DUP2 ADD SWAP1 POP SWAP2 SWAP1 POP JUMP JUMPDEST PUSH1 0x0 PUSH8 0xFFFFFFFFFFFFFFFF DUP3 GT ISZERO PUSH2 0x9DD JUMPI PUSH2 0x9DC PUSH2 0xBC0 JUMP JUMPDEST JUMPDEST PUSH2 0x9E6 DUP3 PUSH2 0xC30 JUMP JUMPDEST SWAP1 POP PUSH1 0x20 DUP2 ADD SWAP1 POP SWAP2 SWAP1 POP JUMP JUMPDEST PUSH1 0x0 DUP2 SWAP1 POP SWAP2 SWAP1 POP JUMP JUMPDEST PUSH1 0x0 DUP2 SWAP1 POP PUSH1 0x20 DUP3 ADD SWAP1 POP SWAP2 SWAP1 POP JUMP JUMPDEST PUSH1 0x0 PUSH1 0x2 SWAP1 POP SWAP2 SWAP1 POP JUMP JUMPDEST PUSH1 0x0 DUP2 MLOAD SWAP1 POP SWAP2 SWAP1 POP JUMP JUMPDEST PUSH1 0x0 DUP2 MLOAD SWAP1 POP SWAP2 SWAP1 POP JUMP JUMPDEST PUSH1 0x0 DUP2 MLOAD SWAP1 POP SWAP2 SWAP1 POP JUMP JUMPDEST PUSH1 0x0 PUSH1 0x20 DUP3 ADD SWAP1 POP SWAP2 SWAP1 POP JUMP JUMPDEST PUSH1 0x0 PUSH1 0x20 DUP3 ADD SWAP1 POP SWAP2 SWAP1 POP JUMP JUMPDEST PUSH1 0x0 DUP2 SWAP1 POP SWAP3 SWAP2 POP POP JUMP JUMPDEST PUSH1 0x0 DUP3 DUP3 MSTORE PUSH1 0x20 DUP3 ADD SWAP1 POP SWAP3 SWAP2 POP POP JUMP JUMPDEST PUSH1 0x0 DUP3 DUP3 MSTORE PUSH1 0x20 DUP3 ADD SWAP1 POP SWAP3 SWAP2 POP POP JUMP JUMPDEST PUSH1 0x0 DUP3 DUP3 MSTORE PUSH1 0x20 DUP3 ADD SWAP1 POP SWAP3 SWAP2 POP POP JUMP JUMPDEST PUSH1 0x0 DUP3 SWAP1 POP SWAP3 SWAP2 POP POP JUMP JUMPDEST PUSH1 0x0 DUP1 DUP4 CALLDATALOAD PUSH1 0x1 PUSH1 0x20 SUB DUP5 CALLDATASIZE SUB SUB DUP2 SLT PUSH2 0xAB9 JUMPI PUSH2 0xAB8 PUSH2 0xC26 JUMP JUMPDEST JUMPDEST DUP4 DUP2 ADD SWAP3 POP DUP3 CALLDATALOAD SWAP2 POP PUSH1 0x20 DUP4 ADD SWAP3 POP PUSH8 0xFFFFFFFFFFFFFFFF DUP3 GT ISZERO PUSH2 0xAE1 JUMPI PUSH2 0xAE0 PUSH2 0xBEF JUMP JUMPDEST JUMPDEST PUSH1 0x1 DUP3 MUL CALLDATASIZE SUB DUP5 SGT ISZERO PUSH2 0xAF7 JUMPI PUSH2 0xAF6 PUSH2 0xC08 JUMP JUMPDEST JUMPDEST POP SWAP3 POP SWAP3 SWAP1 POP JUMP JUMPDEST PUSH1 0x0 PUSH2 0xB0A DUP3 PUSH2 0xB23 JUMP JUMPDEST SWAP1 POP SWAP2 SWAP1 POP JUMP JUMPDEST PUSH1 0x0 PUSH2 0xB1C DUP3 PUSH2 0xB23 JUMP JUMPDEST SWAP1 POP SWAP2 SWAP1 POP JUMP JUMPDEST PUSH1 0x0 PUSH20 0xFFFFFFFFFFFFFFFFFFFFFFFFFFFFFFFFFFFFFFFF DUP3 AND SWAP1 POP SWAP2 SWAP1 POP JUMP JUMPDEST PUSH1 0x0 DUP2 SWAP1 POP SWAP2 SWAP1 POP JUMP JUMPDEST DUP3 DUP2 DUP4 CALLDATACOPY PUSH1 0x0 DUP4 DUP4 ADD MSTORE POP POP POP JUMP JUMPDEST PUSH1 0x0 JUMPDEST DUP4 DUP2 LT ISZERO PUSH2 0xB7A JUMPI DUP1 DUP3 ADD MLOAD DUP2 DUP5 ADD MSTORE PUSH1 0x20 DUP2 ADD SWAP1 POP PUSH2 0xB5F JUMP JUMPDEST DUP4 DUP2 GT ISZERO PUSH2 0xB89 JUMPI PUSH1 0x0 DUP5 DUP5 ADD MSTORE JUMPDEST POP POP POP POP JUMP JUMPDEST PUSH2 0xB98 DUP3 PUSH2 0xC30 JUMP JUMPDEST DUP2 ADD DUP2 DUP2 LT PUSH8 0xFFFFFFFFFFFFFFFF DUP3 GT OR ISZERO PUSH2 0xBB7 JUMPI PUSH2 0xBB6 PUSH2 0xBC0 JUMP JUMPDEST JUMPDEST DUP1 PUSH1 0x40 MSTORE POP POP POP JUMP JUMPDEST PUSH32 0x4E487B7100000000000000000000000000000000000000000000000000000000 PUSH1 0x0 MSTORE PUSH1 0x41 PUSH1 0x4 MSTORE PUSH1 0x24 PUSH1 0x0 REVERT JUMPDEST PUSH1 0x0 DUP1 REVERT JUMPDEST PUSH1 0x0 DUP1 REVERT JUMPDEST PUSH1 0x0 DUP1 REVERT JUMPDEST PUSH1 0x0 DUP1 REVERT JUMPDEST PUSH1 0x0 DUP1 REVERT JUMPDEST PUSH1 0x0 DUP1 REVERT JUMPDEST PUSH1 0x0 DUP1 REVERT JUMPDEST PUSH1 0x0 DUP1 REVERT JUMPDEST PUSH1 0x0 DUP1 REVERT JUMPDEST PUSH1 0x0 DUP1 REVERT JUMPDEST PUSH1 0x0 DUP1 REVERT JUMPDEST PUSH1 0x0 DUP1 REVERT JUMPDEST PUSH1 0x0 DUP1 REVERT JUMPDEST PUSH1 0x0 PUSH1 0x1F NOT PUSH1 0x1F DUP4 ADD AND SWAP1 POP SWAP2 SWAP1 POP JUMP JUMPDEST PUSH2 0xC4A DUP2 PUSH2 0xAFF JUMP JUMPDEST DUP2 EQ PUSH2 0xC55 JUMPI PUSH1 0x0 DUP1 REVERT JUMPDEST POP JUMP JUMPDEST PUSH2 0xC61 DUP2 PUSH2 0xB11 JUMP JUMPDEST DUP2 EQ PUSH2 0xC6C JUMPI PUSH1 0x0 DUP1 REVERT JUMPDEST POP JUMP JUMPDEST PUSH2 0xC78 DUP2 PUSH2 0xB43 JUMP JUMPDEST DUP2 EQ PUSH2 0xC83 JUMPI PUSH1 0x0 DUP1 REVERT JUMPDEST POP JUMP INVALID LOG2 PUSH5 0x6970667358 0x22 SLT KECCAK256 EXTCODECOPY 0xC0 PUSH1 0x46 LOG4 0xE 0x24 PUSH10 0x3AC45C637FC06CC5B72 PUSH12 0xA970BE4F390CA6EE4453D4B7 ISZERO PUSH5 0x736F6C6343 STOP ADDMOD SMOD STOP CALLER "
				},
				"gasEstimates": {
					"creation": {
						"codeDepositCost": "652000",
						"executionCost": "683",
						"totalCost": "652683"
					},
					"external": {
						"decode(bytes)": "infinite",
						"encode(uint256,address,uint256[],(string,uint256[2]))": "infinite"
					}
				},
				"methodIdentifiers": {
					"decode(bytes)": "e5c5e9a3",
					"encode(uint256,address,uint256[],(string,uint256[2]))": "7049e087"
				}
			},
			"storageLayout": {
				"storage": [],
				"types": null
			},
			"userdoc": {
				"kind": "user",
				"methods": {},
				"version": 1
			}
		}
	}
}