{
	"SCP/CPAMM.sol": {
		"CPAMM": {
			"abi": [
				{
					"inputs": [
						{
							"internalType": "address",
							"name": "_token0",
							"type": "address"
						},
						{
							"internalType": "address",
							"name": "_token1",
							"type": "address"
						}
					],
					"stateMutability": "nonpayable",
					"type": "constructor"
				},
				{
					"inputs": [
						{
							"internalType": "uint256",
							"name": "_amount0",
							"type": "uint256"
						},
						{
							"internalType": "uint256",
							"name": "_amount1",
							"type": "uint256"
						}
					],
					"name": "addLiquidity",
					"outputs": [
						{
							"internalType": "uint256",
							"name": "",
							"type": "uint256"
						}
					],
					"stateMutability": "nonpayable",
					"type": "function"
				},
				{
					"inputs": [
						{
							"internalType": "address",
							"name": "",
							"type": "address"
						}
					],
					"name": "balanceOf",
					"outputs": [
						{
							"internalType": "uint256",
							"name": "",
							"type": "uint256"
						}
					],
					"stateMutability": "view",
					"type": "function"
				},
				{
					"inputs": [],
					"name": "removeLiquidity",
					"outputs": [],
					"stateMutability": "nonpayable",
					"type": "function"
				},
				{
					"inputs": [],
					"name": "reserve0",
					"outputs": [
						{
							"internalType": "uint256",
							"name": "",
							"type": "uint256"
						}
					],
					"stateMutability": "view",
					"type": "function"
				},
				{
					"inputs": [],
					"name": "reserve1",
					"outputs": [
						{
							"internalType": "uint256",
							"name": "",
							"type": "uint256"
						}
					],
					"stateMutability": "view",
					"type": "function"
				},
				{
					"inputs": [
						{
							"internalType": "uint256",
							"name": "y",
							"type": "uint256"
						}
					],
					"name": "sqrtUniswap",
					"outputs": [
						{
							"internalType": "uint256",
							"name": "z",
							"type": "uint256"
						}
					],
					"stateMutability": "pure",
					"type": "function"
				},
				{
					"inputs": [
						{
							"internalType": "address",
							"name": "_tokenIn",
							"type": "address"
						},
						{
							"internalType": "uint256",
							"name": "_amountIn",
							"type": "uint256"
						}
					],
					"name": "swap",
					"outputs": [
						{
							"internalType": "uint256",
							"name": "amountOut",
							"type": "uint256"
						}
					],
					"stateMutability": "nonpayable",
					"type": "function"
				},
				{
					"inputs": [],
					"name": "token0",
					"outputs": [
						{
							"internalType": "contract IERC20",
							"name": "",
							"type": "address"
						}
					],
					"stateMutability": "view",
					"type": "function"
				},
				{
					"inputs": [],
					"name": "token1",
					"outputs": [
						{
							"internalType": "contract IERC20",
							"name": "",
							"type": "address"
						}
					],
					"stateMutability": "view",
					"type": "function"
				},
				{
					"inputs": [],
					"name": "totalSupply",
					"outputs": [
						{
							"internalType": "uint256",
							"name": "",
							"type": "uint256"
						}
					],
					"stateMutability": "view",
					"type": "function"
				}
			],
			"devdoc": {
				"kind": "dev",
				"methods": {},
				"version": 1
			},
			"evm": {
				"assembly": "    /* \"SCP/CPAMM.sol\":81:2692  contract CPAMM {... */\n  mstore(0x40, 0xc0)\n    /* \"SCP/CPAMM.sol\":305:425  constructor(address _token0, address _token1){... */\n  callvalue\n  dup1\n  iszero\n  tag_1\n  jumpi\n  0x00\n  dup1\n  revert\ntag_1:\n  pop\n  mload(0x40)\n  sub(codesize, bytecodeSize)\n  dup1\n  bytecodeSize\n  dup4\n  codecopy\n  dup2\n  dup2\n  add\n  0x40\n  mstore\n  dup2\n  add\n  swap1\n  tag_2\n  swap2\n  swap1\n  tag_3\n  jump\t// in\ntag_2:\n    /* \"SCP/CPAMM.sol\":376:383  _token0 */\n  dup2\n    /* \"SCP/CPAMM.sol\":360:384  token0 = IERC20(_token0) */\n  0xffffffffffffffffffffffffffffffffffffffff\n  and\n  0x80\n  dup2\n  0xffffffffffffffffffffffffffffffffffffffff\n  and\n  0x60\n  shl\n  dup2\n  mstore\n  pop\n  pop\n    /* \"SCP/CPAMM.sol\":410:417  _token1 */\n  dup1\n    /* \"SCP/CPAMM.sol\":394:418  token1 = IERC20(_token1) */\n  0xffffffffffffffffffffffffffffffffffffffff\n  and\n  0xa0\n  dup2\n  0xffffffffffffffffffffffffffffffffffffffff\n  and\n  0x60\n  shl\n  dup2\n  mstore\n  pop\n  pop\n    /* \"SCP/CPAMM.sol\":305:425  constructor(address _token0, address _token1){... */\n  pop\n  pop\n    /* \"SCP/CPAMM.sol\":81:2692  contract CPAMM {... */\n  jump(tag_6)\n    /* \"#utility.yul\":7:150   */\ntag_8:\n    /* \"#utility.yul\":64:69   */\n  0x00\n    /* \"#utility.yul\":95:101   */\n  dup2\n    /* \"#utility.yul\":89:102   */\n  mload\n    /* \"#utility.yul\":80:102   */\n  swap1\n  pop\n    /* \"#utility.yul\":111:144   */\n  tag_10\n    /* \"#utility.yul\":138:143   */\n  dup2\n    /* \"#utility.yul\":111:144   */\n  tag_11\n  jump\t// in\ntag_10:\n    /* \"#utility.yul\":7:150   */\n  swap3\n  swap2\n  pop\n  pop\n  jump\t// out\n    /* \"#utility.yul\":156:663   */\ntag_3:\n    /* \"#utility.yul\":235:241   */\n  0x00\n    /* \"#utility.yul\":243:249   */\n  dup1\n    /* \"#utility.yul\":292:294   */\n  0x40\n    /* \"#utility.yul\":280:289   */\n  dup4\n    /* \"#utility.yul\":271:278   */\n  dup6\n    /* \"#utility.yul\":267:290   */\n  sub\n    /* \"#utility.yul\":263:295   */\n  slt\n    /* \"#utility.yul\":260:379   */\n  iszero\n  tag_13\n  jumpi\n    /* \"#utility.yul\":298:377   */\n  tag_14\n  tag_15\n  jump\t// in\ntag_14:\n    /* \"#utility.yul\":260:379   */\ntag_13:\n    /* \"#utility.yul\":418:419   */\n  0x00\n    /* \"#utility.yul\":443:507   */\n  tag_16\n    /* \"#utility.yul\":499:506   */\n  dup6\n    /* \"#utility.yul\":490:496   */\n  dup3\n    /* \"#utility.yul\":479:488   */\n  dup7\n    /* \"#utility.yul\":475:497   */\n  add\n    /* \"#utility.yul\":443:507   */\n  tag_8\n  jump\t// in\ntag_16:\n    /* \"#utility.yul\":433:507   */\n  swap3\n  pop\n    /* \"#utility.yul\":389:517   */\n  pop\n    /* \"#utility.yul\":556:558   */\n  0x20\n    /* \"#utility.yul\":582:646   */\n  tag_17\n    /* \"#utility.yul\":638:645   */\n  dup6\n    /* \"#utility.yul\":629:635   */\n  dup3\n    /* \"#utility.yul\":618:627   */\n  dup7\n    /* \"#utility.yul\":614:636   */\n  add\n    /* \"#utility.yul\":582:646   */\n  tag_8\n  jump\t// in\ntag_17:\n    /* \"#utility.yul\":572:646   */\n  swap2\n  pop\n    /* \"#utility.yul\":527:656   */\n  pop\n    /* \"#utility.yul\":156:663   */\n  swap3\n  pop\n  swap3\n  swap1\n  pop\n  jump\t// out\n    /* \"#utility.yul\":750:846   */\ntag_20:\n    /* \"#utility.yul\":787:794   */\n  0x00\n    /* \"#utility.yul\":816:840   */\n  tag_22\n    /* \"#utility.yul\":834:839   */\n  dup3\n    /* \"#utility.yul\":816:840   */\n  tag_23\n  jump\t// in\ntag_22:\n    /* \"#utility.yul\":805:840   */\n  swap1\n  pop\n    /* \"#utility.yul\":750:846   */\n  swap2\n  swap1\n  pop\n  jump\t// out\n    /* \"#utility.yul\":852:978   */\ntag_23:\n    /* \"#utility.yul\":889:896   */\n  0x00\n    /* \"#utility.yul\":929:971   */\n  0xffffffffffffffffffffffffffffffffffffffff\n    /* \"#utility.yul\":922:927   */\n  dup3\n    /* \"#utility.yul\":918:972   */\n  and\n    /* \"#utility.yul\":907:972   */\n  swap1\n  pop\n    /* \"#utility.yul\":852:978   */\n  swap2\n  swap1\n  pop\n  jump\t// out\n    /* \"#utility.yul\":1107:1224   */\ntag_15:\n    /* \"#utility.yul\":1216:1217   */\n  0x00\n    /* \"#utility.yul\":1213:1214   */\n  dup1\n    /* \"#utility.yul\":1206:1218   */\n  revert\n    /* \"#utility.yul\":1230:1352   */\ntag_11:\n    /* \"#utility.yul\":1303:1327   */\n  tag_29\n    /* \"#utility.yul\":1321:1326   */\n  dup2\n    /* \"#utility.yul\":1303:1327   */\n  tag_20\n  jump\t// in\ntag_29:\n    /* \"#utility.yul\":1296:1301   */\n  dup2\n    /* \"#utility.yul\":1293:1328   */\n  eq\n    /* \"#utility.yul\":1283:1346   */\n  tag_30\n  jumpi\n    /* \"#utility.yul\":1342:1343   */\n  0x00\n    /* \"#utility.yul\":1339:1340   */\n  dup1\n    /* \"#utility.yul\":1332:1344   */\n  revert\n    /* \"#utility.yul\":1283:1346   */\ntag_30:\n    /* \"#utility.yul\":1230:1352   */\n  pop\n  jump\t// out\n    /* \"SCP/CPAMM.sol\":81:2692  contract CPAMM {... */\ntag_6:\n  shr(0x60, mload(0x80))\n  shr(0x60, mload(0xa0))\n  codecopy(0x00, dataOffset(sub_0), dataSize(sub_0))\n  0x00\n  assignImmutable(\"0xe4b1702d9298fee62dfeccc57d322a463ad55ca201256d01f62b45b2e1c21c10\")\n  0x00\n  assignImmutable(\"0xceebf77a833b30520287ddd9478ff51abbdffa30aa90a8d655dba0e8a79ce0c1\")\n  return(0x00, dataSize(sub_0))\nstop\n\nsub_0: assembly {\n        /* \"SCP/CPAMM.sol\":81:2692  contract CPAMM {... */\n      mstore(0x40, 0x80)\n      callvalue\n      dup1\n      iszero\n      tag_1\n      jumpi\n      0x00\n      dup1\n      revert\n    tag_1:\n      pop\n      jumpi(tag_2, lt(calldatasize, 0x04))\n      shr(0xe0, calldataload(0x00))\n      dup1\n      0x70a08231\n      gt\n      tag_13\n      jumpi\n      dup1\n      0x70a08231\n      eq\n      tag_8\n      jumpi\n      dup1\n      0x9cd441da\n      eq\n      tag_9\n      jumpi\n      dup1\n      0xbbd2b3b2\n      eq\n      tag_10\n      jumpi\n      dup1\n      0xd004f0f7\n      eq\n      tag_11\n      jumpi\n      dup1\n      0xd21220a7\n      eq\n      tag_12\n      jumpi\n      jump(tag_2)\n    tag_13:\n      dup1\n      0x0dfe1681\n      eq\n      tag_3\n      jumpi\n      dup1\n      0x18160ddd\n      eq\n      tag_4\n      jumpi\n      dup1\n      0x443cb4bc\n      eq\n      tag_5\n      jumpi\n      dup1\n      0x5a76f25e\n      eq\n      tag_6\n      jumpi\n      dup1\n      0x67b9a286\n      eq\n      tag_7\n      jumpi\n    tag_2:\n      0x00\n      dup1\n      revert\n        /* \"SCP/CPAMM.sol\":102:132  IERC20 public immutable token0 */\n    tag_3:\n      tag_14\n      tag_15\n      jump\t// in\n    tag_14:\n      mload(0x40)\n      tag_16\n      swap2\n      swap1\n      tag_17\n      jump\t// in\n    tag_16:\n      mload(0x40)\n      dup1\n      swap2\n      sub\n      swap1\n      return\n        /* \"SCP/CPAMM.sol\":228:251  uint public totalSupply */\n    tag_4:\n      tag_18\n      tag_19\n      jump\t// in\n    tag_18:\n      mload(0x40)\n      tag_20\n      swap2\n      swap1\n      tag_21\n      jump\t// in\n    tag_20:\n      mload(0x40)\n      dup1\n      swap2\n      sub\n      swap1\n      return\n        /* \"SCP/CPAMM.sol\":175:195  uint public reserve0 */\n    tag_5:\n      tag_22\n      tag_23\n      jump\t// in\n    tag_22:\n      mload(0x40)\n      tag_24\n      swap2\n      swap1\n      tag_21\n      jump\t// in\n    tag_24:\n      mload(0x40)\n      dup1\n      swap2\n      sub\n      swap1\n      return\n        /* \"SCP/CPAMM.sol\":201:221  uint public reserve1 */\n    tag_6:\n      tag_25\n      tag_26\n      jump\t// in\n    tag_25:\n      mload(0x40)\n      tag_27\n      swap2\n      swap1\n      tag_21\n      jump\t// in\n    tag_27:\n      mload(0x40)\n      dup1\n      swap2\n      sub\n      swap1\n      return\n        /* \"SCP/CPAMM.sol\":2225:2263  function removeLiquidity() external {} */\n    tag_7:\n      tag_28\n      tag_29\n      jump\t// in\n    tag_28:\n      stop\n        /* \"SCP/CPAMM.sol\":257:298  mapping(address => uint) public balanceOf */\n    tag_8:\n      tag_30\n      0x04\n      dup1\n      calldatasize\n      sub\n      dup2\n      add\n      swap1\n      tag_31\n      swap2\n      swap1\n      tag_32\n      jump\t// in\n    tag_31:\n      tag_33\n      jump\t// in\n    tag_30:\n      mload(0x40)\n      tag_34\n      swap2\n      swap1\n      tag_21\n      jump\t// in\n    tag_34:\n      mload(0x40)\n      dup1\n      swap2\n      sub\n      swap1\n      return\n        /* \"SCP/CPAMM.sol\":1830:2218  function addLiquidity(uint _amount0, uint _amount1) external returns (uint) {... */\n    tag_9:\n      tag_35\n      0x04\n      dup1\n      calldatasize\n      sub\n      dup2\n      add\n      swap1\n      tag_36\n      swap2\n      swap1\n      tag_37\n      jump\t// in\n    tag_36:\n      tag_38\n      jump\t// in\n    tag_35:\n      mload(0x40)\n      tag_39\n      swap2\n      swap1\n      tag_21\n      jump\t// in\n    tag_39:\n      mload(0x40)\n      dup1\n      swap2\n      sub\n      swap1\n      return\n        /* \"SCP/CPAMM.sol\":2269:2588  function sqrtUniswap(uint y) public pure returns (uint256 z) {... */\n    tag_10:\n      tag_40\n      0x04\n      dup1\n      calldatasize\n      sub\n      dup2\n      add\n      swap1\n      tag_41\n      swap2\n      swap1\n      tag_42\n      jump\t// in\n    tag_41:\n      tag_43\n      jump\t// in\n    tag_40:\n      mload(0x40)\n      tag_44\n      swap2\n      swap1\n      tag_21\n      jump\t// in\n    tag_44:\n      mload(0x40)\n      dup1\n      swap2\n      sub\n      swap1\n      return\n        /* \"SCP/CPAMM.sol\":823:1824  function swap(address _tokenIn, uint _amountIn) external returns (uint amountOut) {... */\n    tag_11:\n      tag_45\n      0x04\n      dup1\n      calldatasize\n      sub\n      dup2\n      add\n      swap1\n      tag_46\n      swap2\n      swap1\n      tag_47\n      jump\t// in\n    tag_46:\n      tag_48\n      jump\t// in\n    tag_45:\n      mload(0x40)\n      tag_49\n      swap2\n      swap1\n      tag_21\n      jump\t// in\n    tag_49:\n      mload(0x40)\n      dup1\n      swap2\n      sub\n      swap1\n      return\n        /* \"SCP/CPAMM.sol\":138:168  IERC20 public immutable token1 */\n    tag_12:\n      tag_50\n      tag_51\n      jump\t// in\n    tag_50:\n      mload(0x40)\n      tag_52\n      swap2\n      swap1\n      tag_17\n      jump\t// in\n    tag_52:\n      mload(0x40)\n      dup1\n      swap2\n      sub\n      swap1\n      return\n        /* \"SCP/CPAMM.sol\":102:132  IERC20 public immutable token0 */\n    tag_15:\n      immutable(\"0xceebf77a833b30520287ddd9478ff51abbdffa30aa90a8d655dba0e8a79ce0c1\")\n      dup2\n      jump\t// out\n        /* \"SCP/CPAMM.sol\":228:251  uint public totalSupply */\n    tag_19:\n      sload(0x02)\n      dup2\n      jump\t// out\n        /* \"SCP/CPAMM.sol\":175:195  uint public reserve0 */\n    tag_23:\n      sload(0x00)\n      dup2\n      jump\t// out\n        /* \"SCP/CPAMM.sol\":201:221  uint public reserve1 */\n    tag_26:\n      sload(0x01)\n      dup2\n      jump\t// out\n        /* \"SCP/CPAMM.sol\":2225:2263  function removeLiquidity() external {} */\n    tag_29:\n      jump\t// out\n        /* \"SCP/CPAMM.sol\":257:298  mapping(address => uint) public balanceOf */\n    tag_33:\n      mstore(0x20, 0x03)\n      dup1\n      0x00\n      mstore\n      keccak256(0x00, 0x40)\n      0x00\n      swap2\n      pop\n      swap1\n      pop\n      sload\n      dup2\n      jump\t// out\n        /* \"SCP/CPAMM.sol\":1830:2218  function addLiquidity(uint _amount0, uint _amount1) external returns (uint) {... */\n    tag_38:\n        /* \"SCP/CPAMM.sol\":1900:1904  uint */\n      0x00\n        /* \"SCP/CPAMM.sol\":1952:1958  token0 */\n      immutable(\"0xceebf77a833b30520287ddd9478ff51abbdffa30aa90a8d655dba0e8a79ce0c1\")\n        /* \"SCP/CPAMM.sol\":1952:1971  token0.transferFrom */\n      0xffffffffffffffffffffffffffffffffffffffff\n      and\n      0x23b872dd\n        /* \"SCP/CPAMM.sol\":1972:1982  msg.sender */\n      caller\n        /* \"SCP/CPAMM.sol\":1992:1996  this */\n      address\n        /* \"SCP/CPAMM.sol\":1999:2007  _amount0 */\n      dup7\n        /* \"SCP/CPAMM.sol\":1952:2008  token0.transferFrom(msg.sender, address(this), _amount0) */\n      mload(0x40)\n      dup5\n      0xffffffff\n      and\n      0xe0\n      shl\n      dup2\n      mstore\n      0x04\n      add\n      tag_55\n      swap4\n      swap3\n      swap2\n      swap1\n      tag_56\n      jump\t// in\n    tag_55:\n      0x20\n      mload(0x40)\n      dup1\n      dup4\n      sub\n      dup2\n      0x00\n      dup8\n      dup1\n      extcodesize\n      iszero\n      dup1\n      iszero\n      tag_57\n      jumpi\n      0x00\n      dup1\n      revert\n    tag_57:\n      pop\n      gas\n      call\n      iszero\n      dup1\n      iszero\n      tag_59\n      jumpi\n      returndatasize\n      0x00\n      dup1\n      returndatacopy\n      revert(0x00, returndatasize)\n    tag_59:\n      pop\n      pop\n      pop\n      pop\n      mload(0x40)\n      returndatasize\n      not(0x1f)\n      0x1f\n      dup3\n      add\n      and\n      dup3\n      add\n      dup1\n      0x40\n      mstore\n      pop\n      dup2\n      add\n      swap1\n      tag_60\n      swap2\n      swap1\n      tag_61\n      jump\t// in\n    tag_60:\n      pop\n        /* \"SCP/CPAMM.sol\":2018:2024  token1 */\n      immutable(\"0xe4b1702d9298fee62dfeccc57d322a463ad55ca201256d01f62b45b2e1c21c10\")\n        /* \"SCP/CPAMM.sol\":2018:2037  token1.transferFrom */\n      0xffffffffffffffffffffffffffffffffffffffff\n      and\n      0x23b872dd\n        /* \"SCP/CPAMM.sol\":2038:2048  msg.sender */\n      caller\n        /* \"SCP/CPAMM.sol\":2058:2062  this */\n      address\n        /* \"SCP/CPAMM.sol\":2065:2073  _amount1 */\n      dup6\n        /* \"SCP/CPAMM.sol\":2018:2074  token1.transferFrom(msg.sender, address(this), _amount1) */\n      mload(0x40)\n      dup5\n      0xffffffff\n      and\n      0xe0\n      shl\n      dup2\n      mstore\n      0x04\n      add\n      tag_62\n      swap4\n      swap3\n      swap2\n      swap1\n      tag_56\n      jump\t// in\n    tag_62:\n      0x20\n      mload(0x40)\n      dup1\n      dup4\n      sub\n      dup2\n      0x00\n      dup8\n      dup1\n      extcodesize\n      iszero\n      dup1\n      iszero\n      tag_63\n      jumpi\n      0x00\n      dup1\n      revert\n    tag_63:\n      pop\n      gas\n      call\n      iszero\n      dup1\n      iszero\n      tag_65\n      jumpi\n      returndatasize\n      0x00\n      dup1\n      returndatacopy\n      revert(0x00, returndatasize)\n    tag_65:\n      pop\n      pop\n      pop\n      pop\n      mload(0x40)\n      returndatasize\n      not(0x1f)\n      0x1f\n      dup3\n      add\n      and\n      dup3\n      add\n      dup1\n      0x40\n      mstore\n      pop\n      dup2\n      add\n      swap1\n      tag_66\n      swap2\n      swap1\n      tag_61\n      jump\t// in\n    tag_66:\n      pop\n        /* \"SCP/CPAMM.sol\":2099:2100  0 */\n      0x00\n        /* \"SCP/CPAMM.sol\":2088:2096  reserve0 */\n      dup1\n      sload\n        /* \"SCP/CPAMM.sol\":2088:2100  reserve0 > 0 */\n      gt\n        /* \"SCP/CPAMM.sol\":2088:2116  reserve0 > 0 || reserve1 > 0 */\n      dup1\n      tag_67\n      jumpi\n      pop\n        /* \"SCP/CPAMM.sol\":2115:2116  0 */\n      0x00\n        /* \"SCP/CPAMM.sol\":2104:2112  reserve1 */\n      sload(0x01)\n        /* \"SCP/CPAMM.sol\":2104:2116  reserve1 > 0 */\n      gt\n        /* \"SCP/CPAMM.sol\":2088:2116  reserve0 > 0 || reserve1 > 0 */\n    tag_67:\n        /* \"SCP/CPAMM.sol\":2085:2199  if(reserve0 > 0 || reserve1 > 0){... */\n      iszero\n      tag_68\n      jumpi\n        /* \"SCP/CPAMM.sol\":2173:2181  _amount0 */\n      dup3\n        /* \"SCP/CPAMM.sol\":2162:2170  reserve1 */\n      sload(0x01)\n        /* \"SCP/CPAMM.sol\":2162:2181  reserve1 * _amount0 */\n      tag_69\n      swap2\n      swap1\n      tag_70\n      jump\t// in\n    tag_69:\n        /* \"SCP/CPAMM.sol\":2150:2158  _amount1 */\n      dup3\n        /* \"SCP/CPAMM.sol\":2139:2147  reserve0 */\n      sload(0x00)\n        /* \"SCP/CPAMM.sol\":2139:2158  reserve0 * _amount1 */\n      tag_71\n      swap2\n      swap1\n      tag_70\n      jump\t// in\n    tag_71:\n        /* \"SCP/CPAMM.sol\":2139:2181  reserve0 * _amount1 == reserve1 * _amount0 */\n      eq\n        /* \"SCP/CPAMM.sol\":2131:2197  require(reserve0 * _amount1 == reserve1 * _amount0, \"dy/dx ! y/x\") */\n      tag_72\n      jumpi\n      mload(0x40)\n      0x08c379a000000000000000000000000000000000000000000000000000000000\n      dup2\n      mstore\n      0x04\n      add\n      tag_73\n      swap1\n      tag_74\n      jump\t// in\n    tag_73:\n      mload(0x40)\n      dup1\n      swap2\n      sub\n      swap1\n      revert\n    tag_72:\n        /* \"SCP/CPAMM.sol\":2085:2199  if(reserve0 > 0 || reserve1 > 0){... */\n    tag_68:\n        /* \"SCP/CPAMM.sol\":1830:2218  function addLiquidity(uint _amount0, uint _amount1) external returns (uint) {... */\n      swap3\n      swap2\n      pop\n      pop\n      jump\t// out\n        /* \"SCP/CPAMM.sol\":2269:2588  function sqrtUniswap(uint y) public pure returns (uint256 z) {... */\n    tag_43:\n        /* \"SCP/CPAMM.sol\":2319:2328  uint256 z */\n      0x00\n        /* \"SCP/CPAMM.sol\":2348:2349  3 */\n      0x03\n        /* \"SCP/CPAMM.sol\":2344:2345  y */\n      dup3\n        /* \"SCP/CPAMM.sol\":2344:2349  y > 3 */\n      gt\n        /* \"SCP/CPAMM.sol\":2340:2563  if (y > 3) {... */\n      iszero\n      tag_76\n      jumpi\n        /* \"SCP/CPAMM.sol\":2369:2370  y */\n      dup2\n        /* \"SCP/CPAMM.sol\":2365:2370  z = y */\n      swap1\n      pop\n        /* \"SCP/CPAMM.sol\":2384:2390  uint x */\n      0x00\n        /* \"SCP/CPAMM.sol\":2401:2402  1 */\n      0x01\n        /* \"SCP/CPAMM.sol\":2397:2398  2 */\n      0x02\n        /* \"SCP/CPAMM.sol\":2393:2394  y */\n      dup5\n        /* \"SCP/CPAMM.sol\":2393:2398  y / 2 */\n      tag_77\n      swap2\n      swap1\n      tag_78\n      jump\t// in\n    tag_77:\n        /* \"SCP/CPAMM.sol\":2393:2402  y / 2 + 1 */\n      tag_79\n      swap2\n      swap1\n      tag_80\n      jump\t// in\n    tag_79:\n        /* \"SCP/CPAMM.sol\":2384:2402  uint x = y / 2 + 1 */\n      swap1\n      pop\n        /* \"SCP/CPAMM.sol\":2416:2505  while (x < z) {... */\n    tag_81:\n        /* \"SCP/CPAMM.sol\":2427:2428  z */\n      dup2\n        /* \"SCP/CPAMM.sol\":2423:2424  x */\n      dup2\n        /* \"SCP/CPAMM.sol\":2423:2428  x < z */\n      lt\n        /* \"SCP/CPAMM.sol\":2416:2505  while (x < z) {... */\n      iszero\n      tag_82\n      jumpi\n        /* \"SCP/CPAMM.sol\":2452:2453  x */\n      dup1\n        /* \"SCP/CPAMM.sol\":2448:2453  z = x */\n      swap2\n      pop\n        /* \"SCP/CPAMM.sol\":2489:2490  2 */\n      0x02\n        /* \"SCP/CPAMM.sol\":2484:2485  x */\n      dup2\n        /* \"SCP/CPAMM.sol\":2480:2481  x */\n      dup3\n        /* \"SCP/CPAMM.sol\":2476:2477  y */\n      dup6\n        /* \"SCP/CPAMM.sol\":2476:2481  y / x */\n      tag_83\n      swap2\n      swap1\n      tag_78\n      jump\t// in\n    tag_83:\n        /* \"SCP/CPAMM.sol\":2476:2485  y / x + x */\n      tag_84\n      swap2\n      swap1\n      tag_80\n      jump\t// in\n    tag_84:\n        /* \"SCP/CPAMM.sol\":2475:2490  (y / x + x) / 2 */\n      tag_85\n      swap2\n      swap1\n      tag_78\n      jump\t// in\n    tag_85:\n        /* \"SCP/CPAMM.sol\":2471:2490  x = (y / x + x) / 2 */\n      swap1\n      pop\n        /* \"SCP/CPAMM.sol\":2416:2505  while (x < z) {... */\n      jump(tag_81)\n    tag_82:\n        /* \"SCP/CPAMM.sol\":2351:2515  {... */\n      pop\n        /* \"SCP/CPAMM.sol\":2340:2563  if (y > 3) {... */\n      jump(tag_86)\n    tag_76:\n        /* \"SCP/CPAMM.sol\":2530:2531  0 */\n      0x00\n        /* \"SCP/CPAMM.sol\":2525:2526  y */\n      dup3\n        /* \"SCP/CPAMM.sol\":2525:2531  y != 0 */\n      eq\n        /* \"SCP/CPAMM.sol\":2521:2563  if (y != 0) {... */\n      tag_87\n      jumpi\n        /* \"SCP/CPAMM.sol\":2551:2552  1 */\n      0x01\n        /* \"SCP/CPAMM.sol\":2547:2552  z = 1 */\n      swap1\n      pop\n        /* \"SCP/CPAMM.sol\":2521:2563  if (y != 0) {... */\n    tag_87:\n        /* \"SCP/CPAMM.sol\":2340:2563  if (y > 3) {... */\n    tag_86:\n        /* \"SCP/CPAMM.sol\":2269:2588  function sqrtUniswap(uint y) public pure returns (uint256 z) {... */\n      swap2\n      swap1\n      pop\n      jump\t// out\n        /* \"SCP/CPAMM.sol\":823:1824  function swap(address _tokenIn, uint _amountIn) external returns (uint amountOut) {... */\n    tag_48:\n        /* \"SCP/CPAMM.sol\":889:903  uint amountOut */\n      0x00\n        /* \"SCP/CPAMM.sol\":956:962  token0 */\n      immutable(\"0xceebf77a833b30520287ddd9478ff51abbdffa30aa90a8d655dba0e8a79ce0c1\")\n        /* \"SCP/CPAMM.sol\":936:963  _tokenIn == address(token0) */\n      0xffffffffffffffffffffffffffffffffffffffff\n      and\n        /* \"SCP/CPAMM.sol\":936:944  _tokenIn */\n      dup4\n        /* \"SCP/CPAMM.sol\":936:963  _tokenIn == address(token0) */\n      0xffffffffffffffffffffffffffffffffffffffff\n      and\n      eq\n        /* \"SCP/CPAMM.sol\":936:994  _tokenIn == address(token0) || _tokenIn == address(token1) */\n      dup1\n      tag_89\n      jumpi\n      pop\n        /* \"SCP/CPAMM.sol\":987:993  token1 */\n      immutable(\"0xe4b1702d9298fee62dfeccc57d322a463ad55ca201256d01f62b45b2e1c21c10\")\n        /* \"SCP/CPAMM.sol\":967:994  _tokenIn == address(token1) */\n      0xffffffffffffffffffffffffffffffffffffffff\n      and\n        /* \"SCP/CPAMM.sol\":967:975  _tokenIn */\n      dup4\n        /* \"SCP/CPAMM.sol\":967:994  _tokenIn == address(token1) */\n      0xffffffffffffffffffffffffffffffffffffffff\n      and\n      eq\n        /* \"SCP/CPAMM.sol\":936:994  _tokenIn == address(token0) || _tokenIn == address(token1) */\n    tag_89:\n        /* \"SCP/CPAMM.sol\":915:1033  require(... */\n      tag_90\n      jumpi\n      mload(0x40)\n      0x08c379a000000000000000000000000000000000000000000000000000000000\n      dup2\n      mstore\n      0x04\n      add\n      tag_91\n      swap1\n      tag_92\n      jump\t// in\n    tag_91:\n      mload(0x40)\n      dup1\n      swap2\n      sub\n      swap1\n      revert\n    tag_90:\n        /* \"SCP/CPAMM.sol\":1063:1064  0 */\n      0x00\n        /* \"SCP/CPAMM.sol\":1051:1060  _amountIn */\n      dup3\n        /* \"SCP/CPAMM.sol\":1051:1064  _amountIn > 0 */\n      gt\n        /* \"SCP/CPAMM.sol\":1043:1080  require(_amountIn > 0, \"amount is 0\") */\n      tag_93\n      jumpi\n      mload(0x40)\n      0x08c379a000000000000000000000000000000000000000000000000000000000\n      dup2\n      mstore\n      0x04\n      add\n      tag_94\n      swap1\n      tag_95\n      jump\t// in\n    tag_94:\n      mload(0x40)\n      dup1\n      swap2\n      sub\n      swap1\n      revert\n    tag_93:\n        /* \"SCP/CPAMM.sol\":1125:1138  bool isToken0 */\n      0x00\n        /* \"SCP/CPAMM.sol\":1161:1167  token0 */\n      immutable(\"0xceebf77a833b30520287ddd9478ff51abbdffa30aa90a8d655dba0e8a79ce0c1\")\n        /* \"SCP/CPAMM.sol\":1141:1168  _tokenIn == address(token0) */\n      0xffffffffffffffffffffffffffffffffffffffff\n      and\n        /* \"SCP/CPAMM.sol\":1141:1149  _tokenIn */\n      dup5\n        /* \"SCP/CPAMM.sol\":1141:1168  _tokenIn == address(token0) */\n      0xffffffffffffffffffffffffffffffffffffffff\n      and\n      eq\n        /* \"SCP/CPAMM.sol\":1125:1168  bool isToken0 = _tokenIn == address(token0) */\n      swap1\n      pop\n        /* \"SCP/CPAMM.sol\":1179:1193  IERC20 tokenIn */\n      0x00\n        /* \"SCP/CPAMM.sol\":1195:1210  IERC20 tokenOut */\n      dup1\n        /* \"SCP/CPAMM.sol\":1212:1226  uint reserveIn */\n      0x00\n        /* \"SCP/CPAMM.sol\":1228:1243  uint reserveOut */\n      dup1\n        /* \"SCP/CPAMM.sol\":1247:1255  isToken0 */\n      dup5\n        /* \"SCP/CPAMM.sol\":1247:1353  isToken0 ... */\n      tag_96\n      jumpi\n        /* \"SCP/CPAMM.sol\":1317:1323  token1 */\n      immutable(\"0xe4b1702d9298fee62dfeccc57d322a463ad55ca201256d01f62b45b2e1c21c10\")\n        /* \"SCP/CPAMM.sol\":1326:1332  token0 */\n      immutable(\"0xceebf77a833b30520287ddd9478ff51abbdffa30aa90a8d655dba0e8a79ce0c1\")\n        /* \"SCP/CPAMM.sol\":1334:1342  reserve1 */\n      sload(0x01)\n        /* \"SCP/CPAMM.sol\":1344:1352  reserve0 */\n      sload(0x00)\n        /* \"SCP/CPAMM.sol\":1247:1353  isToken0 ... */\n      jump(tag_97)\n    tag_96:\n        /* \"SCP/CPAMM.sol\":1268:1274  token0 */\n      immutable(\"0xceebf77a833b30520287ddd9478ff51abbdffa30aa90a8d655dba0e8a79ce0c1\")\n        /* \"SCP/CPAMM.sol\":1277:1283  token1 */\n      immutable(\"0xe4b1702d9298fee62dfeccc57d322a463ad55ca201256d01f62b45b2e1c21c10\")\n        /* \"SCP/CPAMM.sol\":1285:1293  reserve0 */\n      sload(0x00)\n        /* \"SCP/CPAMM.sol\":1295:1303  reserve1 */\n      sload(0x01)\n        /* \"SCP/CPAMM.sol\":1247:1353  isToken0 ... */\n    tag_97:\n        /* \"SCP/CPAMM.sol\":1178:1353  (IERC20 tokenIn, IERC20 tokenOut, uint reserveIn, uint reserveOut) = isToken0 ... */\n      swap4\n      pop\n      swap4\n      pop\n      swap4\n      pop\n      swap4\n      pop\n        /* \"SCP/CPAMM.sol\":1363:1370  tokenIn */\n      dup4\n        /* \"SCP/CPAMM.sol\":1363:1383  tokenIn.transferFrom */\n      0xffffffffffffffffffffffffffffffffffffffff\n      and\n      0x23b872dd\n        /* \"SCP/CPAMM.sol\":1384:1394  msg.sender */\n      caller\n        /* \"SCP/CPAMM.sol\":1404:1408  this */\n      address\n        /* \"SCP/CPAMM.sol\":1411:1420  _amountIn */\n      dup11\n        /* \"SCP/CPAMM.sol\":1363:1421  tokenIn.transferFrom(msg.sender, address(this), _amountIn) */\n      mload(0x40)\n      dup5\n      0xffffffff\n      and\n      0xe0\n      shl\n      dup2\n      mstore\n      0x04\n      add\n      tag_98\n      swap4\n      swap3\n      swap2\n      swap1\n      tag_56\n      jump\t// in\n    tag_98:\n      0x20\n      mload(0x40)\n      dup1\n      dup4\n      sub\n      dup2\n      0x00\n      dup8\n      dup1\n      extcodesize\n      iszero\n      dup1\n      iszero\n      tag_99\n      jumpi\n      0x00\n      dup1\n      revert\n    tag_99:\n      pop\n      gas\n      call\n      iszero\n      dup1\n      iszero\n      tag_101\n      jumpi\n      returndatasize\n      0x00\n      dup1\n      returndatacopy\n      revert(0x00, returndatasize)\n    tag_101:\n      pop\n      pop\n      pop\n      pop\n      mload(0x40)\n      returndatasize\n      not(0x1f)\n      0x1f\n      dup3\n      add\n      and\n      dup3\n      add\n      dup1\n      0x40\n      mstore\n      pop\n      dup2\n      add\n      swap1\n      tag_102\n      swap2\n      swap1\n      tag_61\n      jump\t// in\n    tag_102:\n      pop\n        /* \"SCP/CPAMM.sol\":1432:1452  uint amountInWithFee */\n      0x00\n        /* \"SCP/CPAMM.sol\":1474:1478  1000 */\n      0x03e8\n        /* \"SCP/CPAMM.sol\":1468:1471  997 */\n      0x03e5\n        /* \"SCP/CPAMM.sol\":1456:1465  _amountIn */\n      dup10\n        /* \"SCP/CPAMM.sol\":1456:1471  _amountIn * 997 */\n      tag_103\n      swap2\n      swap1\n      tag_70\n      jump\t// in\n    tag_103:\n        /* \"SCP/CPAMM.sol\":1455:1478  (_amountIn * 997)/ 1000 */\n      tag_104\n      swap2\n      swap1\n      tag_78\n      jump\t// in\n    tag_104:\n        /* \"SCP/CPAMM.sol\":1432:1478  uint amountInWithFee = (_amountIn * 997)/ 1000 */\n      swap1\n      pop\n        /* \"SCP/CPAMM.sol\":1545:1560  amountInWithFee */\n      dup1\n        /* \"SCP/CPAMM.sol\":1533:1542  reserveIn */\n      dup4\n        /* \"SCP/CPAMM.sol\":1533:1560  reserveIn * amountInWithFee */\n      tag_105\n      swap2\n      swap1\n      tag_70\n      jump\t// in\n    tag_105:\n        /* \"SCP/CPAMM.sol\":1514:1529  amountInWithFee */\n      dup2\n        /* \"SCP/CPAMM.sol\":1501:1511  reserveOut */\n      dup4\n        /* \"SCP/CPAMM.sol\":1501:1529  reserveOut * amountInWithFee */\n      tag_106\n      swap2\n      swap1\n      tag_70\n      jump\t// in\n    tag_106:\n        /* \"SCP/CPAMM.sol\":1500:1561  (reserveOut * amountInWithFee) /(reserveIn * amountInWithFee) */\n      tag_107\n      swap2\n      swap1\n      tag_78\n      jump\t// in\n    tag_107:\n        /* \"SCP/CPAMM.sol\":1488:1561  amountOut = (reserveOut * amountInWithFee) /(reserveIn * amountInWithFee) */\n      swap7\n      pop\n        /* \"SCP/CPAMM.sol\":1626:1634  tokenOut */\n      dup4\n        /* \"SCP/CPAMM.sol\":1626:1643  tokenOut.transfer */\n      0xffffffffffffffffffffffffffffffffffffffff\n      and\n      0xa9059cbb\n        /* \"SCP/CPAMM.sol\":1644:1654  msg.sender */\n      caller\n        /* \"SCP/CPAMM.sol\":1656:1665  amountOut */\n      dup10\n        /* \"SCP/CPAMM.sol\":1626:1666  tokenOut.transfer(msg.sender, amountOut) */\n      mload(0x40)\n      dup4\n      0xffffffff\n      and\n      0xe0\n      shl\n      dup2\n      mstore\n      0x04\n      add\n      tag_108\n      swap3\n      swap2\n      swap1\n      tag_109\n      jump\t// in\n    tag_108:\n      0x20\n      mload(0x40)\n      dup1\n      dup4\n      sub\n      dup2\n      0x00\n      dup8\n      dup1\n      extcodesize\n      iszero\n      dup1\n      iszero\n      tag_110\n      jumpi\n      0x00\n      dup1\n      revert\n    tag_110:\n      pop\n      gas\n      call\n      iszero\n      dup1\n      iszero\n      tag_112\n      jumpi\n      returndatasize\n      0x00\n      dup1\n      returndatacopy\n      revert(0x00, returndatasize)\n    tag_112:\n      pop\n      pop\n      pop\n      pop\n      mload(0x40)\n      returndatasize\n      not(0x1f)\n      0x1f\n      dup3\n      add\n      and\n      dup3\n      add\n      dup1\n      0x40\n      mstore\n      pop\n      dup2\n      add\n      swap1\n      tag_113\n      swap2\n      swap1\n      tag_61\n      jump\t// in\n    tag_113:\n      pop\n        /* \"SCP/CPAMM.sol\":1710:1817  _update(... */\n      tag_114\n        /* \"SCP/CPAMM.sol\":1731:1737  token0 */\n      immutable(\"0xceebf77a833b30520287ddd9478ff51abbdffa30aa90a8d655dba0e8a79ce0c1\")\n        /* \"SCP/CPAMM.sol\":1731:1747  token0.balanceOf */\n      0xffffffffffffffffffffffffffffffffffffffff\n      and\n      0x70a08231\n        /* \"SCP/CPAMM.sol\":1756:1760  this */\n      address\n        /* \"SCP/CPAMM.sol\":1731:1762  token0.balanceOf(address(this)) */\n      mload(0x40)\n      dup3\n      0xffffffff\n      and\n      0xe0\n      shl\n      dup2\n      mstore\n      0x04\n      add\n      tag_115\n      swap2\n      swap1\n      tag_116\n      jump\t// in\n    tag_115:\n      0x20\n      mload(0x40)\n      dup1\n      dup4\n      sub\n      dup2\n      dup7\n      dup1\n      extcodesize\n      iszero\n      dup1\n      iszero\n      tag_117\n      jumpi\n      0x00\n      dup1\n      revert\n    tag_117:\n      pop\n      gas\n      staticcall\n      iszero\n      dup1\n      iszero\n      tag_119\n      jumpi\n      returndatasize\n      0x00\n      dup1\n      returndatacopy\n      revert(0x00, returndatasize)\n    tag_119:\n      pop\n      pop\n      pop\n      pop\n      mload(0x40)\n      returndatasize\n      not(0x1f)\n      0x1f\n      dup3\n      add\n      and\n      dup3\n      add\n      dup1\n      0x40\n      mstore\n      pop\n      dup2\n      add\n      swap1\n      tag_120\n      swap2\n      swap1\n      tag_121\n      jump\t// in\n    tag_120:\n        /* \"SCP/CPAMM.sol\":1776:1782  token1 */\n      immutable(\"0xe4b1702d9298fee62dfeccc57d322a463ad55ca201256d01f62b45b2e1c21c10\")\n        /* \"SCP/CPAMM.sol\":1776:1792  token1.balanceOf */\n      0xffffffffffffffffffffffffffffffffffffffff\n      and\n      0x70a08231\n        /* \"SCP/CPAMM.sol\":1801:1805  this */\n      address\n        /* \"SCP/CPAMM.sol\":1776:1807  token1.balanceOf(address(this)) */\n      mload(0x40)\n      dup3\n      0xffffffff\n      and\n      0xe0\n      shl\n      dup2\n      mstore\n      0x04\n      add\n      tag_122\n      swap2\n      swap1\n      tag_116\n      jump\t// in\n    tag_122:\n      0x20\n      mload(0x40)\n      dup1\n      dup4\n      sub\n      dup2\n      dup7\n      dup1\n      extcodesize\n      iszero\n      dup1\n      iszero\n      tag_123\n      jumpi\n      0x00\n      dup1\n      revert\n    tag_123:\n      pop\n      gas\n      staticcall\n      iszero\n      dup1\n      iszero\n      tag_125\n      jumpi\n      returndatasize\n      0x00\n      dup1\n      returndatacopy\n      revert(0x00, returndatasize)\n    tag_125:\n      pop\n      pop\n      pop\n      pop\n      mload(0x40)\n      returndatasize\n      not(0x1f)\n      0x1f\n      dup3\n      add\n      and\n      dup3\n      add\n      dup1\n      0x40\n      mstore\n      pop\n      dup2\n      add\n      swap1\n      tag_126\n      swap2\n      swap1\n      tag_121\n      jump\t// in\n    tag_126:\n        /* \"SCP/CPAMM.sol\":1710:1717  _update */\n      tag_127\n        /* \"SCP/CPAMM.sol\":1710:1817  _update(... */\n      jump\t// in\n    tag_114:\n        /* \"SCP/CPAMM.sol\":905:1824  {... */\n      pop\n      pop\n      pop\n      pop\n      pop\n      pop\n        /* \"SCP/CPAMM.sol\":823:1824  function swap(address _tokenIn, uint _amountIn) external returns (uint amountOut) {... */\n      swap3\n      swap2\n      pop\n      pop\n      jump\t// out\n        /* \"SCP/CPAMM.sol\":138:168  IERC20 public immutable token1 */\n    tag_51:\n      immutable(\"0xe4b1702d9298fee62dfeccc57d322a463ad55ca201256d01f62b45b2e1c21c10\")\n      dup2\n      jump\t// out\n        /* \"SCP/CPAMM.sol\":693:817  function _update(uint _reserve0, uint _reserve1) private {... */\n    tag_127:\n        /* \"SCP/CPAMM.sol\":771:780  _reserve0 */\n      dup2\n        /* \"SCP/CPAMM.sol\":760:768  reserve0 */\n      0x00\n        /* \"SCP/CPAMM.sol\":760:780  reserve0 = _reserve0 */\n      dup2\n      swap1\n      sstore\n      pop\n        /* \"SCP/CPAMM.sol\":801:810  _reserve1 */\n      dup1\n        /* \"SCP/CPAMM.sol\":790:798  reserve1 */\n      0x01\n        /* \"SCP/CPAMM.sol\":790:810  reserve1 = _reserve1 */\n      dup2\n      swap1\n      sstore\n      pop\n        /* \"SCP/CPAMM.sol\":693:817  function _update(uint _reserve0, uint _reserve1) private {... */\n      pop\n      pop\n      jump\t// out\n        /* \"#utility.yul\":7:146   */\n    tag_130:\n        /* \"#utility.yul\":53:58   */\n      0x00\n        /* \"#utility.yul\":91:97   */\n      dup2\n        /* \"#utility.yul\":78:98   */\n      calldataload\n        /* \"#utility.yul\":69:98   */\n      swap1\n      pop\n        /* \"#utility.yul\":107:140   */\n      tag_132\n        /* \"#utility.yul\":134:139   */\n      dup2\n        /* \"#utility.yul\":107:140   */\n      tag_133\n      jump\t// in\n    tag_132:\n        /* \"#utility.yul\":7:146   */\n      swap3\n      swap2\n      pop\n      pop\n      jump\t// out\n        /* \"#utility.yul\":152:289   */\n    tag_134:\n        /* \"#utility.yul\":206:211   */\n      0x00\n        /* \"#utility.yul\":237:243   */\n      dup2\n        /* \"#utility.yul\":231:244   */\n      mload\n        /* \"#utility.yul\":222:244   */\n      swap1\n      pop\n        /* \"#utility.yul\":253:283   */\n      tag_136\n        /* \"#utility.yul\":277:282   */\n      dup2\n        /* \"#utility.yul\":253:283   */\n      tag_137\n      jump\t// in\n    tag_136:\n        /* \"#utility.yul\":152:289   */\n      swap3\n      swap2\n      pop\n      pop\n      jump\t// out\n        /* \"#utility.yul\":295:434   */\n    tag_138:\n        /* \"#utility.yul\":341:346   */\n      0x00\n        /* \"#utility.yul\":379:385   */\n      dup2\n        /* \"#utility.yul\":366:386   */\n      calldataload\n        /* \"#utility.yul\":357:386   */\n      swap1\n      pop\n        /* \"#utility.yul\":395:428   */\n      tag_140\n        /* \"#utility.yul\":422:427   */\n      dup2\n        /* \"#utility.yul\":395:428   */\n      tag_141\n      jump\t// in\n    tag_140:\n        /* \"#utility.yul\":295:434   */\n      swap3\n      swap2\n      pop\n      pop\n      jump\t// out\n        /* \"#utility.yul\":440:583   */\n    tag_142:\n        /* \"#utility.yul\":497:502   */\n      0x00\n        /* \"#utility.yul\":528:534   */\n      dup2\n        /* \"#utility.yul\":522:535   */\n      mload\n        /* \"#utility.yul\":513:535   */\n      swap1\n      pop\n        /* \"#utility.yul\":544:577   */\n      tag_144\n        /* \"#utility.yul\":571:576   */\n      dup2\n        /* \"#utility.yul\":544:577   */\n      tag_141\n      jump\t// in\n    tag_144:\n        /* \"#utility.yul\":440:583   */\n      swap3\n      swap2\n      pop\n      pop\n      jump\t// out\n        /* \"#utility.yul\":589:918   */\n    tag_32:\n        /* \"#utility.yul\":648:654   */\n      0x00\n        /* \"#utility.yul\":697:699   */\n      0x20\n        /* \"#utility.yul\":685:694   */\n      dup3\n        /* \"#utility.yul\":676:683   */\n      dup5\n        /* \"#utility.yul\":672:695   */\n      sub\n        /* \"#utility.yul\":668:700   */\n      slt\n        /* \"#utility.yul\":665:784   */\n      iszero\n      tag_146\n      jumpi\n        /* \"#utility.yul\":703:782   */\n      tag_147\n      tag_148\n      jump\t// in\n    tag_147:\n        /* \"#utility.yul\":665:784   */\n    tag_146:\n        /* \"#utility.yul\":823:824   */\n      0x00\n        /* \"#utility.yul\":848:901   */\n      tag_149\n        /* \"#utility.yul\":893:900   */\n      dup5\n        /* \"#utility.yul\":884:890   */\n      dup3\n        /* \"#utility.yul\":873:882   */\n      dup6\n        /* \"#utility.yul\":869:891   */\n      add\n        /* \"#utility.yul\":848:901   */\n      tag_130\n      jump\t// in\n    tag_149:\n        /* \"#utility.yul\":838:901   */\n      swap2\n      pop\n        /* \"#utility.yul\":794:911   */\n      pop\n        /* \"#utility.yul\":589:918   */\n      swap3\n      swap2\n      pop\n      pop\n      jump\t// out\n        /* \"#utility.yul\":924:1398   */\n    tag_47:\n        /* \"#utility.yul\":992:998   */\n      0x00\n        /* \"#utility.yul\":1000:1006   */\n      dup1\n        /* \"#utility.yul\":1049:1051   */\n      0x40\n        /* \"#utility.yul\":1037:1046   */\n      dup4\n        /* \"#utility.yul\":1028:1035   */\n      dup6\n        /* \"#utility.yul\":1024:1047   */\n      sub\n        /* \"#utility.yul\":1020:1052   */\n      slt\n        /* \"#utility.yul\":1017:1136   */\n      iszero\n      tag_151\n      jumpi\n        /* \"#utility.yul\":1055:1134   */\n      tag_152\n      tag_148\n      jump\t// in\n    tag_152:\n        /* \"#utility.yul\":1017:1136   */\n    tag_151:\n        /* \"#utility.yul\":1175:1176   */\n      0x00\n        /* \"#utility.yul\":1200:1253   */\n      tag_153\n        /* \"#utility.yul\":1245:1252   */\n      dup6\n        /* \"#utility.yul\":1236:1242   */\n      dup3\n        /* \"#utility.yul\":1225:1234   */\n      dup7\n        /* \"#utility.yul\":1221:1243   */\n      add\n        /* \"#utility.yul\":1200:1253   */\n      tag_130\n      jump\t// in\n    tag_153:\n        /* \"#utility.yul\":1190:1253   */\n      swap3\n      pop\n        /* \"#utility.yul\":1146:1263   */\n      pop\n        /* \"#utility.yul\":1302:1304   */\n      0x20\n        /* \"#utility.yul\":1328:1381   */\n      tag_154\n        /* \"#utility.yul\":1373:1380   */\n      dup6\n        /* \"#utility.yul\":1364:1370   */\n      dup3\n        /* \"#utility.yul\":1353:1362   */\n      dup7\n        /* \"#utility.yul\":1349:1371   */\n      add\n        /* \"#utility.yul\":1328:1381   */\n      tag_138\n      jump\t// in\n    tag_154:\n        /* \"#utility.yul\":1318:1381   */\n      swap2\n      pop\n        /* \"#utility.yul\":1273:1391   */\n      pop\n        /* \"#utility.yul\":924:1398   */\n      swap3\n      pop\n      swap3\n      swap1\n      pop\n      jump\t// out\n        /* \"#utility.yul\":1404:1749   */\n    tag_61:\n        /* \"#utility.yul\":1471:1477   */\n      0x00\n        /* \"#utility.yul\":1520:1522   */\n      0x20\n        /* \"#utility.yul\":1508:1517   */\n      dup3\n        /* \"#utility.yul\":1499:1506   */\n      dup5\n        /* \"#utility.yul\":1495:1518   */\n      sub\n        /* \"#utility.yul\":1491:1523   */\n      slt\n        /* \"#utility.yul\":1488:1607   */\n      iszero\n      tag_156\n      jumpi\n        /* \"#utility.yul\":1526:1605   */\n      tag_157\n      tag_148\n      jump\t// in\n    tag_157:\n        /* \"#utility.yul\":1488:1607   */\n    tag_156:\n        /* \"#utility.yul\":1646:1647   */\n      0x00\n        /* \"#utility.yul\":1671:1732   */\n      tag_158\n        /* \"#utility.yul\":1724:1731   */\n      dup5\n        /* \"#utility.yul\":1715:1721   */\n      dup3\n        /* \"#utility.yul\":1704:1713   */\n      dup6\n        /* \"#utility.yul\":1700:1722   */\n      add\n        /* \"#utility.yul\":1671:1732   */\n      tag_134\n      jump\t// in\n    tag_158:\n        /* \"#utility.yul\":1661:1732   */\n      swap2\n      pop\n        /* \"#utility.yul\":1617:1742   */\n      pop\n        /* \"#utility.yul\":1404:1749   */\n      swap3\n      swap2\n      pop\n      pop\n      jump\t// out\n        /* \"#utility.yul\":1755:2084   */\n    tag_42:\n        /* \"#utility.yul\":1814:1820   */\n      0x00\n        /* \"#utility.yul\":1863:1865   */\n      0x20\n        /* \"#utility.yul\":1851:1860   */\n      dup3\n        /* \"#utility.yul\":1842:1849   */\n      dup5\n        /* \"#utility.yul\":1838:1861   */\n      sub\n        /* \"#utility.yul\":1834:1866   */\n      slt\n        /* \"#utility.yul\":1831:1950   */\n      iszero\n      tag_160\n      jumpi\n        /* \"#utility.yul\":1869:1948   */\n      tag_161\n      tag_148\n      jump\t// in\n    tag_161:\n        /* \"#utility.yul\":1831:1950   */\n    tag_160:\n        /* \"#utility.yul\":1989:1990   */\n      0x00\n        /* \"#utility.yul\":2014:2067   */\n      tag_162\n        /* \"#utility.yul\":2059:2066   */\n      dup5\n        /* \"#utility.yul\":2050:2056   */\n      dup3\n        /* \"#utility.yul\":2039:2048   */\n      dup6\n        /* \"#utility.yul\":2035:2057   */\n      add\n        /* \"#utility.yul\":2014:2067   */\n      tag_138\n      jump\t// in\n    tag_162:\n        /* \"#utility.yul\":2004:2067   */\n      swap2\n      pop\n        /* \"#utility.yul\":1960:2077   */\n      pop\n        /* \"#utility.yul\":1755:2084   */\n      swap3\n      swap2\n      pop\n      pop\n      jump\t// out\n        /* \"#utility.yul\":2090:2441   */\n    tag_121:\n        /* \"#utility.yul\":2160:2166   */\n      0x00\n        /* \"#utility.yul\":2209:2211   */\n      0x20\n        /* \"#utility.yul\":2197:2206   */\n      dup3\n        /* \"#utility.yul\":2188:2195   */\n      dup5\n        /* \"#utility.yul\":2184:2207   */\n      sub\n        /* \"#utility.yul\":2180:2212   */\n      slt\n        /* \"#utility.yul\":2177:2296   */\n      iszero\n      tag_164\n      jumpi\n        /* \"#utility.yul\":2215:2294   */\n      tag_165\n      tag_148\n      jump\t// in\n    tag_165:\n        /* \"#utility.yul\":2177:2296   */\n    tag_164:\n        /* \"#utility.yul\":2335:2336   */\n      0x00\n        /* \"#utility.yul\":2360:2424   */\n      tag_166\n        /* \"#utility.yul\":2416:2423   */\n      dup5\n        /* \"#utility.yul\":2407:2413   */\n      dup3\n        /* \"#utility.yul\":2396:2405   */\n      dup6\n        /* \"#utility.yul\":2392:2414   */\n      add\n        /* \"#utility.yul\":2360:2424   */\n      tag_142\n      jump\t// in\n    tag_166:\n        /* \"#utility.yul\":2350:2424   */\n      swap2\n      pop\n        /* \"#utility.yul\":2306:2434   */\n      pop\n        /* \"#utility.yul\":2090:2441   */\n      swap3\n      swap2\n      pop\n      pop\n      jump\t// out\n        /* \"#utility.yul\":2447:2921   */\n    tag_37:\n        /* \"#utility.yul\":2515:2521   */\n      0x00\n        /* \"#utility.yul\":2523:2529   */\n      dup1\n        /* \"#utility.yul\":2572:2574   */\n      0x40\n        /* \"#utility.yul\":2560:2569   */\n      dup4\n        /* \"#utility.yul\":2551:2558   */\n      dup6\n        /* \"#utility.yul\":2547:2570   */\n      sub\n        /* \"#utility.yul\":2543:2575   */\n      slt\n        /* \"#utility.yul\":2540:2659   */\n      iszero\n      tag_168\n      jumpi\n        /* \"#utility.yul\":2578:2657   */\n      tag_169\n      tag_148\n      jump\t// in\n    tag_169:\n        /* \"#utility.yul\":2540:2659   */\n    tag_168:\n        /* \"#utility.yul\":2698:2699   */\n      0x00\n        /* \"#utility.yul\":2723:2776   */\n      tag_170\n        /* \"#utility.yul\":2768:2775   */\n      dup6\n        /* \"#utility.yul\":2759:2765   */\n      dup3\n        /* \"#utility.yul\":2748:2757   */\n      dup7\n        /* \"#utility.yul\":2744:2766   */\n      add\n        /* \"#utility.yul\":2723:2776   */\n      tag_138\n      jump\t// in\n    tag_170:\n        /* \"#utility.yul\":2713:2776   */\n      swap3\n      pop\n        /* \"#utility.yul\":2669:2786   */\n      pop\n        /* \"#utility.yul\":2825:2827   */\n      0x20\n        /* \"#utility.yul\":2851:2904   */\n      tag_171\n        /* \"#utility.yul\":2896:2903   */\n      dup6\n        /* \"#utility.yul\":2887:2893   */\n      dup3\n        /* \"#utility.yul\":2876:2885   */\n      dup7\n        /* \"#utility.yul\":2872:2894   */\n      add\n        /* \"#utility.yul\":2851:2904   */\n      tag_138\n      jump\t// in\n    tag_171:\n        /* \"#utility.yul\":2841:2904   */\n      swap2\n      pop\n        /* \"#utility.yul\":2796:2914   */\n      pop\n        /* \"#utility.yul\":2447:2921   */\n      swap3\n      pop\n      swap3\n      swap1\n      pop\n      jump\t// out\n        /* \"#utility.yul\":2927:3045   */\n    tag_172:\n        /* \"#utility.yul\":3014:3038   */\n      tag_174\n        /* \"#utility.yul\":3032:3037   */\n      dup2\n        /* \"#utility.yul\":3014:3038   */\n      tag_175\n      jump\t// in\n    tag_174:\n        /* \"#utility.yul\":3009:3012   */\n      dup3\n        /* \"#utility.yul\":3002:3039   */\n      mstore\n        /* \"#utility.yul\":2927:3045   */\n      pop\n      pop\n      jump\t// out\n        /* \"#utility.yul\":3051:3210   */\n    tag_176:\n        /* \"#utility.yul\":3152:3203   */\n      tag_178\n        /* \"#utility.yul\":3197:3202   */\n      dup2\n        /* \"#utility.yul\":3152:3203   */\n      tag_179\n      jump\t// in\n    tag_178:\n        /* \"#utility.yul\":3147:3150   */\n      dup3\n        /* \"#utility.yul\":3140:3204   */\n      mstore\n        /* \"#utility.yul\":3051:3210   */\n      pop\n      pop\n      jump\t// out\n        /* \"#utility.yul\":3216:3582   */\n    tag_180:\n        /* \"#utility.yul\":3358:3361   */\n      0x00\n        /* \"#utility.yul\":3379:3446   */\n      tag_182\n        /* \"#utility.yul\":3443:3445   */\n      0x0d\n        /* \"#utility.yul\":3438:3441   */\n      dup4\n        /* \"#utility.yul\":3379:3446   */\n      tag_183\n      jump\t// in\n    tag_182:\n        /* \"#utility.yul\":3372:3446   */\n      swap2\n      pop\n        /* \"#utility.yul\":3455:3548   */\n      tag_184\n        /* \"#utility.yul\":3544:3547   */\n      dup3\n        /* \"#utility.yul\":3455:3548   */\n      tag_185\n      jump\t// in\n    tag_184:\n        /* \"#utility.yul\":3573:3575   */\n      0x20\n        /* \"#utility.yul\":3568:3571   */\n      dup3\n        /* \"#utility.yul\":3564:3576   */\n      add\n        /* \"#utility.yul\":3557:3576   */\n      swap1\n      pop\n        /* \"#utility.yul\":3216:3582   */\n      swap2\n      swap1\n      pop\n      jump\t// out\n        /* \"#utility.yul\":3588:3954   */\n    tag_186:\n        /* \"#utility.yul\":3730:3733   */\n      0x00\n        /* \"#utility.yul\":3751:3818   */\n      tag_188\n        /* \"#utility.yul\":3815:3817   */\n      0x0b\n        /* \"#utility.yul\":3810:3813   */\n      dup4\n        /* \"#utility.yul\":3751:3818   */\n      tag_183\n      jump\t// in\n    tag_188:\n        /* \"#utility.yul\":3744:3818   */\n      swap2\n      pop\n        /* \"#utility.yul\":3827:3920   */\n      tag_189\n        /* \"#utility.yul\":3916:3919   */\n      dup3\n        /* \"#utility.yul\":3827:3920   */\n      tag_190\n      jump\t// in\n    tag_189:\n        /* \"#utility.yul\":3945:3947   */\n      0x20\n        /* \"#utility.yul\":3940:3943   */\n      dup3\n        /* \"#utility.yul\":3936:3948   */\n      add\n        /* \"#utility.yul\":3929:3948   */\n      swap1\n      pop\n        /* \"#utility.yul\":3588:3954   */\n      swap2\n      swap1\n      pop\n      jump\t// out\n        /* \"#utility.yul\":3960:4326   */\n    tag_191:\n        /* \"#utility.yul\":4102:4105   */\n      0x00\n        /* \"#utility.yul\":4123:4190   */\n      tag_193\n        /* \"#utility.yul\":4187:4189   */\n      0x0b\n        /* \"#utility.yul\":4182:4185   */\n      dup4\n        /* \"#utility.yul\":4123:4190   */\n      tag_183\n      jump\t// in\n    tag_193:\n        /* \"#utility.yul\":4116:4190   */\n      swap2\n      pop\n        /* \"#utility.yul\":4199:4292   */\n      tag_194\n        /* \"#utility.yul\":4288:4291   */\n      dup3\n        /* \"#utility.yul\":4199:4292   */\n      tag_195\n      jump\t// in\n    tag_194:\n        /* \"#utility.yul\":4317:4319   */\n      0x20\n        /* \"#utility.yul\":4312:4315   */\n      dup3\n        /* \"#utility.yul\":4308:4320   */\n      add\n        /* \"#utility.yul\":4301:4320   */\n      swap1\n      pop\n        /* \"#utility.yul\":3960:4326   */\n      swap2\n      swap1\n      pop\n      jump\t// out\n        /* \"#utility.yul\":4332:4450   */\n    tag_196:\n        /* \"#utility.yul\":4419:4443   */\n      tag_198\n        /* \"#utility.yul\":4437:4442   */\n      dup2\n        /* \"#utility.yul\":4419:4443   */\n      tag_199\n      jump\t// in\n    tag_198:\n        /* \"#utility.yul\":4414:4417   */\n      dup3\n        /* \"#utility.yul\":4407:4444   */\n      mstore\n        /* \"#utility.yul\":4332:4450   */\n      pop\n      pop\n      jump\t// out\n        /* \"#utility.yul\":4456:4678   */\n    tag_116:\n        /* \"#utility.yul\":4549:4553   */\n      0x00\n        /* \"#utility.yul\":4587:4589   */\n      0x20\n        /* \"#utility.yul\":4576:4585   */\n      dup3\n        /* \"#utility.yul\":4572:4590   */\n      add\n        /* \"#utility.yul\":4564:4590   */\n      swap1\n      pop\n        /* \"#utility.yul\":4600:4671   */\n      tag_201\n        /* \"#utility.yul\":4668:4669   */\n      0x00\n        /* \"#utility.yul\":4657:4666   */\n      dup4\n        /* \"#utility.yul\":4653:4670   */\n      add\n        /* \"#utility.yul\":4644:4650   */\n      dup5\n        /* \"#utility.yul\":4600:4671   */\n      tag_172\n      jump\t// in\n    tag_201:\n        /* \"#utility.yul\":4456:4678   */\n      swap3\n      swap2\n      pop\n      pop\n      jump\t// out\n        /* \"#utility.yul\":4684:5126   */\n    tag_56:\n        /* \"#utility.yul\":4833:4837   */\n      0x00\n        /* \"#utility.yul\":4871:4873   */\n      0x60\n        /* \"#utility.yul\":4860:4869   */\n      dup3\n        /* \"#utility.yul\":4856:4874   */\n      add\n        /* \"#utility.yul\":4848:4874   */\n      swap1\n      pop\n        /* \"#utility.yul\":4884:4955   */\n      tag_203\n        /* \"#utility.yul\":4952:4953   */\n      0x00\n        /* \"#utility.yul\":4941:4950   */\n      dup4\n        /* \"#utility.yul\":4937:4954   */\n      add\n        /* \"#utility.yul\":4928:4934   */\n      dup7\n        /* \"#utility.yul\":4884:4955   */\n      tag_172\n      jump\t// in\n    tag_203:\n        /* \"#utility.yul\":4965:5037   */\n      tag_204\n        /* \"#utility.yul\":5033:5035   */\n      0x20\n        /* \"#utility.yul\":5022:5031   */\n      dup4\n        /* \"#utility.yul\":5018:5036   */\n      add\n        /* \"#utility.yul\":5009:5015   */\n      dup6\n        /* \"#utility.yul\":4965:5037   */\n      tag_172\n      jump\t// in\n    tag_204:\n        /* \"#utility.yul\":5047:5119   */\n      tag_205\n        /* \"#utility.yul\":5115:5117   */\n      0x40\n        /* \"#utility.yul\":5104:5113   */\n      dup4\n        /* \"#utility.yul\":5100:5118   */\n      add\n        /* \"#utility.yul\":5091:5097   */\n      dup5\n        /* \"#utility.yul\":5047:5119   */\n      tag_196\n      jump\t// in\n    tag_205:\n        /* \"#utility.yul\":4684:5126   */\n      swap5\n      swap4\n      pop\n      pop\n      pop\n      pop\n      jump\t// out\n        /* \"#utility.yul\":5132:5464   */\n    tag_109:\n        /* \"#utility.yul\":5253:5257   */\n      0x00\n        /* \"#utility.yul\":5291:5293   */\n      0x40\n        /* \"#utility.yul\":5280:5289   */\n      dup3\n        /* \"#utility.yul\":5276:5294   */\n      add\n        /* \"#utility.yul\":5268:5294   */\n      swap1\n      pop\n        /* \"#utility.yul\":5304:5375   */\n      tag_207\n        /* \"#utility.yul\":5372:5373   */\n      0x00\n        /* \"#utility.yul\":5361:5370   */\n      dup4\n        /* \"#utility.yul\":5357:5374   */\n      add\n        /* \"#utility.yul\":5348:5354   */\n      dup6\n        /* \"#utility.yul\":5304:5375   */\n      tag_172\n      jump\t// in\n    tag_207:\n        /* \"#utility.yul\":5385:5457   */\n      tag_208\n        /* \"#utility.yul\":5453:5455   */\n      0x20\n        /* \"#utility.yul\":5442:5451   */\n      dup4\n        /* \"#utility.yul\":5438:5456   */\n      add\n        /* \"#utility.yul\":5429:5435   */\n      dup5\n        /* \"#utility.yul\":5385:5457   */\n      tag_196\n      jump\t// in\n    tag_208:\n        /* \"#utility.yul\":5132:5464   */\n      swap4\n      swap3\n      pop\n      pop\n      pop\n      jump\t// out\n        /* \"#utility.yul\":5470:5720   */\n    tag_17:\n        /* \"#utility.yul\":5577:5581   */\n      0x00\n        /* \"#utility.yul\":5615:5617   */\n      0x20\n        /* \"#utility.yul\":5604:5613   */\n      dup3\n        /* \"#utility.yul\":5600:5618   */\n      add\n        /* \"#utility.yul\":5592:5618   */\n      swap1\n      pop\n        /* \"#utility.yul\":5628:5713   */\n      tag_210\n        /* \"#utility.yul\":5710:5711   */\n      0x00\n        /* \"#utility.yul\":5699:5708   */\n      dup4\n        /* \"#utility.yul\":5695:5712   */\n      add\n        /* \"#utility.yul\":5686:5692   */\n      dup5\n        /* \"#utility.yul\":5628:5713   */\n      tag_176\n      jump\t// in\n    tag_210:\n        /* \"#utility.yul\":5470:5720   */\n      swap3\n      swap2\n      pop\n      pop\n      jump\t// out\n        /* \"#utility.yul\":5726:6145   */\n    tag_92:\n        /* \"#utility.yul\":5892:5896   */\n      0x00\n        /* \"#utility.yul\":5930:5932   */\n      0x20\n        /* \"#utility.yul\":5919:5928   */\n      dup3\n        /* \"#utility.yul\":5915:5933   */\n      add\n        /* \"#utility.yul\":5907:5933   */\n      swap1\n      pop\n        /* \"#utility.yul\":5979:5988   */\n      dup2\n        /* \"#utility.yul\":5973:5977   */\n      dup2\n        /* \"#utility.yul\":5969:5989   */\n      sub\n        /* \"#utility.yul\":5965:5966   */\n      0x00\n        /* \"#utility.yul\":5954:5963   */\n      dup4\n        /* \"#utility.yul\":5950:5967   */\n      add\n        /* \"#utility.yul\":5943:5990   */\n      mstore\n        /* \"#utility.yul\":6007:6138   */\n      tag_212\n        /* \"#utility.yul\":6133:6137   */\n      dup2\n        /* \"#utility.yul\":6007:6138   */\n      tag_180\n      jump\t// in\n    tag_212:\n        /* \"#utility.yul\":5999:6138   */\n      swap1\n      pop\n        /* \"#utility.yul\":5726:6145   */\n      swap2\n      swap1\n      pop\n      jump\t// out\n        /* \"#utility.yul\":6151:6570   */\n    tag_74:\n        /* \"#utility.yul\":6317:6321   */\n      0x00\n        /* \"#utility.yul\":6355:6357   */\n      0x20\n        /* \"#utility.yul\":6344:6353   */\n      dup3\n        /* \"#utility.yul\":6340:6358   */\n      add\n        /* \"#utility.yul\":6332:6358   */\n      swap1\n      pop\n        /* \"#utility.yul\":6404:6413   */\n      dup2\n        /* \"#utility.yul\":6398:6402   */\n      dup2\n        /* \"#utility.yul\":6394:6414   */\n      sub\n        /* \"#utility.yul\":6390:6391   */\n      0x00\n        /* \"#utility.yul\":6379:6388   */\n      dup4\n        /* \"#utility.yul\":6375:6392   */\n      add\n        /* \"#utility.yul\":6368:6415   */\n      mstore\n        /* \"#utility.yul\":6432:6563   */\n      tag_214\n        /* \"#utility.yul\":6558:6562   */\n      dup2\n        /* \"#utility.yul\":6432:6563   */\n      tag_186\n      jump\t// in\n    tag_214:\n        /* \"#utility.yul\":6424:6563   */\n      swap1\n      pop\n        /* \"#utility.yul\":6151:6570   */\n      swap2\n      swap1\n      pop\n      jump\t// out\n        /* \"#utility.yul\":6576:6995   */\n    tag_95:\n        /* \"#utility.yul\":6742:6746   */\n      0x00\n        /* \"#utility.yul\":6780:6782   */\n      0x20\n        /* \"#utility.yul\":6769:6778   */\n      dup3\n        /* \"#utility.yul\":6765:6783   */\n      add\n        /* \"#utility.yul\":6757:6783   */\n      swap1\n      pop\n        /* \"#utility.yul\":6829:6838   */\n      dup2\n        /* \"#utility.yul\":6823:6827   */\n      dup2\n        /* \"#utility.yul\":6819:6839   */\n      sub\n        /* \"#utility.yul\":6815:6816   */\n      0x00\n        /* \"#utility.yul\":6804:6813   */\n      dup4\n        /* \"#utility.yul\":6800:6817   */\n      add\n        /* \"#utility.yul\":6793:6840   */\n      mstore\n        /* \"#utility.yul\":6857:6988   */\n      tag_216\n        /* \"#utility.yul\":6983:6987   */\n      dup2\n        /* \"#utility.yul\":6857:6988   */\n      tag_191\n      jump\t// in\n    tag_216:\n        /* \"#utility.yul\":6849:6988   */\n      swap1\n      pop\n        /* \"#utility.yul\":6576:6995   */\n      swap2\n      swap1\n      pop\n      jump\t// out\n        /* \"#utility.yul\":7001:7223   */\n    tag_21:\n        /* \"#utility.yul\":7094:7098   */\n      0x00\n        /* \"#utility.yul\":7132:7134   */\n      0x20\n        /* \"#utility.yul\":7121:7130   */\n      dup3\n        /* \"#utility.yul\":7117:7135   */\n      add\n        /* \"#utility.yul\":7109:7135   */\n      swap1\n      pop\n        /* \"#utility.yul\":7145:7216   */\n      tag_218\n        /* \"#utility.yul\":7213:7214   */\n      0x00\n        /* \"#utility.yul\":7202:7211   */\n      dup4\n        /* \"#utility.yul\":7198:7215   */\n      add\n        /* \"#utility.yul\":7189:7195   */\n      dup5\n        /* \"#utility.yul\":7145:7216   */\n      tag_196\n      jump\t// in\n    tag_218:\n        /* \"#utility.yul\":7001:7223   */\n      swap3\n      swap2\n      pop\n      pop\n      jump\t// out\n        /* \"#utility.yul\":7310:7479   */\n    tag_183:\n        /* \"#utility.yul\":7394:7405   */\n      0x00\n        /* \"#utility.yul\":7428:7434   */\n      dup3\n        /* \"#utility.yul\":7423:7426   */\n      dup3\n        /* \"#utility.yul\":7416:7435   */\n      mstore\n        /* \"#utility.yul\":7468:7472   */\n      0x20\n        /* \"#utility.yul\":7463:7466   */\n      dup3\n        /* \"#utility.yul\":7459:7473   */\n      add\n        /* \"#utility.yul\":7444:7473   */\n      swap1\n      pop\n        /* \"#utility.yul\":7310:7479   */\n      swap3\n      swap2\n      pop\n      pop\n      jump\t// out\n        /* \"#utility.yul\":7485:7790   */\n    tag_80:\n        /* \"#utility.yul\":7525:7528   */\n      0x00\n        /* \"#utility.yul\":7544:7564   */\n      tag_223\n        /* \"#utility.yul\":7562:7563   */\n      dup3\n        /* \"#utility.yul\":7544:7564   */\n      tag_199\n      jump\t// in\n    tag_223:\n        /* \"#utility.yul\":7539:7564   */\n      swap2\n      pop\n        /* \"#utility.yul\":7578:7598   */\n      tag_224\n        /* \"#utility.yul\":7596:7597   */\n      dup4\n        /* \"#utility.yul\":7578:7598   */\n      tag_199\n      jump\t// in\n    tag_224:\n        /* \"#utility.yul\":7573:7598   */\n      swap3\n      pop\n        /* \"#utility.yul\":7732:7733   */\n      dup3\n        /* \"#utility.yul\":7664:7730   */\n      0xffffffffffffffffffffffffffffffffffffffffffffffffffffffffffffffff\n        /* \"#utility.yul\":7660:7734   */\n      sub\n        /* \"#utility.yul\":7657:7658   */\n      dup3\n        /* \"#utility.yul\":7654:7735   */\n      gt\n        /* \"#utility.yul\":7651:7758   */\n      iszero\n      tag_225\n      jumpi\n        /* \"#utility.yul\":7738:7756   */\n      tag_226\n      tag_227\n      jump\t// in\n    tag_226:\n        /* \"#utility.yul\":7651:7758   */\n    tag_225:\n        /* \"#utility.yul\":7782:7783   */\n      dup3\n        /* \"#utility.yul\":7779:7780   */\n      dup3\n        /* \"#utility.yul\":7775:7784   */\n      add\n        /* \"#utility.yul\":7768:7784   */\n      swap1\n      pop\n        /* \"#utility.yul\":7485:7790   */\n      swap3\n      swap2\n      pop\n      pop\n      jump\t// out\n        /* \"#utility.yul\":7796:7981   */\n    tag_78:\n        /* \"#utility.yul\":7836:7837   */\n      0x00\n        /* \"#utility.yul\":7853:7873   */\n      tag_229\n        /* \"#utility.yul\":7871:7872   */\n      dup3\n        /* \"#utility.yul\":7853:7873   */\n      tag_199\n      jump\t// in\n    tag_229:\n        /* \"#utility.yul\":7848:7873   */\n      swap2\n      pop\n        /* \"#utility.yul\":7887:7907   */\n      tag_230\n        /* \"#utility.yul\":7905:7906   */\n      dup4\n        /* \"#utility.yul\":7887:7907   */\n      tag_199\n      jump\t// in\n    tag_230:\n        /* \"#utility.yul\":7882:7907   */\n      swap3\n      pop\n        /* \"#utility.yul\":7926:7927   */\n      dup3\n        /* \"#utility.yul\":7916:7951   */\n      tag_231\n      jumpi\n        /* \"#utility.yul\":7931:7949   */\n      tag_232\n      tag_233\n      jump\t// in\n    tag_232:\n        /* \"#utility.yul\":7916:7951   */\n    tag_231:\n        /* \"#utility.yul\":7973:7974   */\n      dup3\n        /* \"#utility.yul\":7970:7971   */\n      dup3\n        /* \"#utility.yul\":7966:7975   */\n      div\n        /* \"#utility.yul\":7961:7975   */\n      swap1\n      pop\n        /* \"#utility.yul\":7796:7981   */\n      swap3\n      swap2\n      pop\n      pop\n      jump\t// out\n        /* \"#utility.yul\":7987:8335   */\n    tag_70:\n        /* \"#utility.yul\":8027:8034   */\n      0x00\n        /* \"#utility.yul\":8050:8070   */\n      tag_235\n        /* \"#utility.yul\":8068:8069   */\n      dup3\n        /* \"#utility.yul\":8050:8070   */\n      tag_199\n      jump\t// in\n    tag_235:\n        /* \"#utility.yul\":8045:8070   */\n      swap2\n      pop\n        /* \"#utility.yul\":8084:8104   */\n      tag_236\n        /* \"#utility.yul\":8102:8103   */\n      dup4\n        /* \"#utility.yul\":8084:8104   */\n      tag_199\n      jump\t// in\n    tag_236:\n        /* \"#utility.yul\":8079:8104   */\n      swap3\n      pop\n        /* \"#utility.yul\":8272:8273   */\n      dup2\n        /* \"#utility.yul\":8204:8270   */\n      0xffffffffffffffffffffffffffffffffffffffffffffffffffffffffffffffff\n        /* \"#utility.yul\":8200:8274   */\n      div\n        /* \"#utility.yul\":8197:8198   */\n      dup4\n        /* \"#utility.yul\":8194:8275   */\n      gt\n        /* \"#utility.yul\":8189:8190   */\n      dup3\n        /* \"#utility.yul\":8182:8191   */\n      iszero\n        /* \"#utility.yul\":8175:8192   */\n      iszero\n        /* \"#utility.yul\":8171:8276   */\n      and\n        /* \"#utility.yul\":8168:8299   */\n      iszero\n      tag_237\n      jumpi\n        /* \"#utility.yul\":8279:8297   */\n      tag_238\n      tag_227\n      jump\t// in\n    tag_238:\n        /* \"#utility.yul\":8168:8299   */\n    tag_237:\n        /* \"#utility.yul\":8327:8328   */\n      dup3\n        /* \"#utility.yul\":8324:8325   */\n      dup3\n        /* \"#utility.yul\":8320:8329   */\n      mul\n        /* \"#utility.yul\":8309:8329   */\n      swap1\n      pop\n        /* \"#utility.yul\":7987:8335   */\n      swap3\n      swap2\n      pop\n      pop\n      jump\t// out\n        /* \"#utility.yul\":8341:8437   */\n    tag_175:\n        /* \"#utility.yul\":8378:8385   */\n      0x00\n        /* \"#utility.yul\":8407:8431   */\n      tag_240\n        /* \"#utility.yul\":8425:8430   */\n      dup3\n        /* \"#utility.yul\":8407:8431   */\n      tag_241\n      jump\t// in\n    tag_240:\n        /* \"#utility.yul\":8396:8431   */\n      swap1\n      pop\n        /* \"#utility.yul\":8341:8437   */\n      swap2\n      swap1\n      pop\n      jump\t// out\n        /* \"#utility.yul\":8443:8533   */\n    tag_242:\n        /* \"#utility.yul\":8477:8484   */\n      0x00\n        /* \"#utility.yul\":8520:8525   */\n      dup2\n        /* \"#utility.yul\":8513:8526   */\n      iszero\n        /* \"#utility.yul\":8506:8527   */\n      iszero\n        /* \"#utility.yul\":8495:8527   */\n      swap1\n      pop\n        /* \"#utility.yul\":8443:8533   */\n      swap2\n      swap1\n      pop\n      jump\t// out\n        /* \"#utility.yul\":8539:8665   */\n    tag_241:\n        /* \"#utility.yul\":8576:8583   */\n      0x00\n        /* \"#utility.yul\":8616:8658   */\n      0xffffffffffffffffffffffffffffffffffffffff\n        /* \"#utility.yul\":8609:8614   */\n      dup3\n        /* \"#utility.yul\":8605:8659   */\n      and\n        /* \"#utility.yul\":8594:8659   */\n      swap1\n      pop\n        /* \"#utility.yul\":8539:8665   */\n      swap2\n      swap1\n      pop\n      jump\t// out\n        /* \"#utility.yul\":8671:8748   */\n    tag_199:\n        /* \"#utility.yul\":8708:8715   */\n      0x00\n        /* \"#utility.yul\":8737:8742   */\n      dup2\n        /* \"#utility.yul\":8726:8742   */\n      swap1\n      pop\n        /* \"#utility.yul\":8671:8748   */\n      swap2\n      swap1\n      pop\n      jump\t// out\n        /* \"#utility.yul\":8754:8894   */\n    tag_179:\n        /* \"#utility.yul\":8818:8827   */\n      0x00\n        /* \"#utility.yul\":8851:8888   */\n      tag_247\n        /* \"#utility.yul\":8882:8887   */\n      dup3\n        /* \"#utility.yul\":8851:8888   */\n      tag_248\n      jump\t// in\n    tag_247:\n        /* \"#utility.yul\":8838:8888   */\n      swap1\n      pop\n        /* \"#utility.yul\":8754:8894   */\n      swap2\n      swap1\n      pop\n      jump\t// out\n        /* \"#utility.yul\":8900:9026   */\n    tag_248:\n        /* \"#utility.yul\":8950:8959   */\n      0x00\n        /* \"#utility.yul\":8983:9020   */\n      tag_250\n        /* \"#utility.yul\":9014:9019   */\n      dup3\n        /* \"#utility.yul\":8983:9020   */\n      tag_251\n      jump\t// in\n    tag_250:\n        /* \"#utility.yul\":8970:9020   */\n      swap1\n      pop\n        /* \"#utility.yul\":8900:9026   */\n      swap2\n      swap1\n      pop\n      jump\t// out\n        /* \"#utility.yul\":9032:9145   */\n    tag_251:\n        /* \"#utility.yul\":9082:9091   */\n      0x00\n        /* \"#utility.yul\":9115:9139   */\n      tag_253\n        /* \"#utility.yul\":9133:9138   */\n      dup3\n        /* \"#utility.yul\":9115:9139   */\n      tag_241\n      jump\t// in\n    tag_253:\n        /* \"#utility.yul\":9102:9139   */\n      swap1\n      pop\n        /* \"#utility.yul\":9032:9145   */\n      swap2\n      swap1\n      pop\n      jump\t// out\n        /* \"#utility.yul\":9151:9331   */\n    tag_227:\n        /* \"#utility.yul\":9199:9276   */\n      0x4e487b7100000000000000000000000000000000000000000000000000000000\n        /* \"#utility.yul\":9196:9197   */\n      0x00\n        /* \"#utility.yul\":9189:9277   */\n      mstore\n        /* \"#utility.yul\":9296:9300   */\n      0x11\n        /* \"#utility.yul\":9293:9294   */\n      0x04\n        /* \"#utility.yul\":9286:9301   */\n      mstore\n        /* \"#utility.yul\":9320:9324   */\n      0x24\n        /* \"#utility.yul\":9317:9318   */\n      0x00\n        /* \"#utility.yul\":9310:9325   */\n      revert\n        /* \"#utility.yul\":9337:9517   */\n    tag_233:\n        /* \"#utility.yul\":9385:9462   */\n      0x4e487b7100000000000000000000000000000000000000000000000000000000\n        /* \"#utility.yul\":9382:9383   */\n      0x00\n        /* \"#utility.yul\":9375:9463   */\n      mstore\n        /* \"#utility.yul\":9482:9486   */\n      0x12\n        /* \"#utility.yul\":9479:9480   */\n      0x04\n        /* \"#utility.yul\":9472:9487   */\n      mstore\n        /* \"#utility.yul\":9506:9510   */\n      0x24\n        /* \"#utility.yul\":9503:9504   */\n      0x00\n        /* \"#utility.yul\":9496:9511   */\n      revert\n        /* \"#utility.yul\":9646:9763   */\n    tag_148:\n        /* \"#utility.yul\":9755:9756   */\n      0x00\n        /* \"#utility.yul\":9752:9753   */\n      dup1\n        /* \"#utility.yul\":9745:9757   */\n      revert\n        /* \"#utility.yul\":9769:9932   */\n    tag_185:\n        /* \"#utility.yul\":9909:9924   */\n      0x496e76616c696420746f6b656e00000000000000000000000000000000000000\n        /* \"#utility.yul\":9905:9906   */\n      0x00\n        /* \"#utility.yul\":9897:9903   */\n      dup3\n        /* \"#utility.yul\":9893:9907   */\n      add\n        /* \"#utility.yul\":9886:9925   */\n      mstore\n        /* \"#utility.yul\":9769:9932   */\n      pop\n      jump\t// out\n        /* \"#utility.yul\":9938:10099   */\n    tag_190:\n        /* \"#utility.yul\":10078:10091   */\n      0x64792f6478202120792f78000000000000000000000000000000000000000000\n        /* \"#utility.yul\":10074:10075   */\n      0x00\n        /* \"#utility.yul\":10066:10072   */\n      dup3\n        /* \"#utility.yul\":10062:10076   */\n      add\n        /* \"#utility.yul\":10055:10092   */\n      mstore\n        /* \"#utility.yul\":9938:10099   */\n      pop\n      jump\t// out\n        /* \"#utility.yul\":10105:10266   */\n    tag_195:\n        /* \"#utility.yul\":10245:10258   */\n      0x616d6f756e742069732030000000000000000000000000000000000000000000\n        /* \"#utility.yul\":10241:10242   */\n      0x00\n        /* \"#utility.yul\":10233:10239   */\n      dup3\n        /* \"#utility.yul\":10229:10243   */\n      add\n        /* \"#utility.yul\":10222:10259   */\n      mstore\n        /* \"#utility.yul\":10105:10266   */\n      pop\n      jump\t// out\n        /* \"#utility.yul\":10272:10394   */\n    tag_133:\n        /* \"#utility.yul\":10345:10369   */\n      tag_263\n        /* \"#utility.yul\":10363:10368   */\n      dup2\n        /* \"#utility.yul\":10345:10369   */\n      tag_175\n      jump\t// in\n    tag_263:\n        /* \"#utility.yul\":10338:10343   */\n      dup2\n        /* \"#utility.yul\":10335:10370   */\n      eq\n        /* \"#utility.yul\":10325:10388   */\n      tag_264\n      jumpi\n        /* \"#utility.yul\":10384:10385   */\n      0x00\n        /* \"#utility.yul\":10381:10382   */\n      dup1\n        /* \"#utility.yul\":10374:10386   */\n      revert\n        /* \"#utility.yul\":10325:10388   */\n    tag_264:\n        /* \"#utility.yul\":10272:10394   */\n      pop\n      jump\t// out\n        /* \"#utility.yul\":10400:10516   */\n    tag_137:\n        /* \"#utility.yul\":10470:10491   */\n      tag_266\n        /* \"#utility.yul\":10485:10490   */\n      dup2\n        /* \"#utility.yul\":10470:10491   */\n      tag_242\n      jump\t// in\n    tag_266:\n        /* \"#utility.yul\":10463:10468   */\n      dup2\n        /* \"#utility.yul\":10460:10492   */\n      eq\n        /* \"#utility.yul\":10450:10510   */\n      tag_267\n      jumpi\n        /* \"#utility.yul\":10506:10507   */\n      0x00\n        /* \"#utility.yul\":10503:10504   */\n      dup1\n        /* \"#utility.yul\":10496:10508   */\n      revert\n        /* \"#utility.yul\":10450:10510   */\n    tag_267:\n        /* \"#utility.yul\":10400:10516   */\n      pop\n      jump\t// out\n        /* \"#utility.yul\":10522:10644   */\n    tag_141:\n        /* \"#utility.yul\":10595:10619   */\n      tag_269\n        /* \"#utility.yul\":10613:10618   */\n      dup2\n        /* \"#utility.yul\":10595:10619   */\n      tag_199\n      jump\t// in\n    tag_269:\n        /* \"#utility.yul\":10588:10593   */\n      dup2\n        /* \"#utility.yul\":10585:10620   */\n      eq\n        /* \"#utility.yul\":10575:10638   */\n      tag_270\n      jumpi\n        /* \"#utility.yul\":10634:10635   */\n      0x00\n        /* \"#utility.yul\":10631:10632   */\n      dup1\n        /* \"#utility.yul\":10624:10636   */\n      revert\n        /* \"#utility.yul\":10575:10638   */\n    tag_270:\n        /* \"#utility.yul\":10522:10644   */\n      pop\n      jump\t// out\n\n    auxdata: 0xa2646970667358221220b64ed049991404a3acd239c0907e52f38ba91816c3eb3ea9aa670e2f7ba5f65464736f6c63430008070033\n}\n",
				"bytecode": {
					"linkReferences": {},
					"object": "60c06040523480156200001157600080fd5b506040516200119a3803806200119a8339818101604052810190620000379190620000c4565b8173ffffffffffffffffffffffffffffffffffffffff1660808173ffffffffffffffffffffffffffffffffffffffff1660601b815250508073ffffffffffffffffffffffffffffffffffffffff1660a08173ffffffffffffffffffffffffffffffffffffffff1660601b8152505050506200015e565b600081519050620000be8162000144565b92915050565b60008060408385031215620000de57620000dd6200013f565b5b6000620000ee85828601620000ad565b92505060206200010185828601620000ad565b9150509250929050565b600062000118826200011f565b9050919050565b600073ffffffffffffffffffffffffffffffffffffffff82169050919050565b600080fd5b6200014f816200010b565b81146200015b57600080fd5b50565b60805160601c60a05160601c610fc3620001d7600039600081816103070152818161050201528181610632015281816106a0015281816108dd015261099701526000818161020501528181610257015281816104ad015281816105d6015281816106530152818161067f01526108340152610fc36000f3fe608060405234801561001057600080fd5b506004361061009e5760003560e01c806370a082311161006657806370a08231146101255780639cd441da14610155578063bbd2b3b214610185578063d004f0f7146101b5578063d21220a7146101e55761009e565b80630dfe1681146100a357806318160ddd146100c1578063443cb4bc146100df5780635a76f25e146100fd57806367b9a2861461011b575b600080fd5b6100ab610203565b6040516100b89190610c64565b60405180910390f35b6100c9610227565b6040516100d69190610cdf565b60405180910390f35b6100e761022d565b6040516100f49190610cdf565b60405180910390f35b610105610233565b6040516101129190610cdf565b60405180910390f35b610123610239565b005b61013f600480360381019061013a9190610a1f565b61023b565b60405161014c9190610cdf565b60405180910390f35b61016f600480360381019061016a9190610b13565b610253565b60405161017c9190610cdf565b60405180910390f35b61019f600480360381019061019a9190610ab9565b61042f565b6040516101ac9190610cdf565b60405180910390f35b6101cf60048036038101906101ca9190610a4c565b6104a9565b6040516101dc9190610cdf565b60405180910390f35b6101ed610995565b6040516101fa9190610c64565b60405180910390f35b7f000000000000000000000000000000000000000000000000000000000000000081565b60025481565b60005481565b60015481565b565b60036020528060005260406000206000915090505481565b60007f000000000000000000000000000000000000000000000000000000000000000073ffffffffffffffffffffffffffffffffffffffff166323b872dd3330866040518463ffffffff1660e01b81526004016102b293929190610c04565b602060405180830381600087803b1580156102cc57600080fd5b505af11580156102e0573d6000803e3d6000fd5b505050506040513d601f19601f820116820180604052508101906103049190610a8c565b507f000000000000000000000000000000000000000000000000000000000000000073ffffffffffffffffffffffffffffffffffffffff166323b872dd3330856040518463ffffffff1660e01b815260040161036293929190610c04565b602060405180830381600087803b15801561037c57600080fd5b505af1158015610390573d6000803e3d6000fd5b505050506040513d601f19601f820116820180604052508101906103b49190610a8c565b506000805411806103c757506000600154115b1561042957826001546103da9190610d92565b826000546103e89190610d92565b14610428576040517f08c379a000000000000000000000000000000000000000000000000000000000815260040161041f90610c9f565b60405180910390fd5b5b92915050565b60006003821115610496578190506000600160028461044e9190610d61565b6104589190610d0b565b90505b818110156104905780915060028182856104759190610d61565b61047f9190610d0b565b6104899190610d61565b905061045b565b506104a4565b600082146104a357600190505b5b919050565b60007f000000000000000000000000000000000000000000000000000000000000000073ffffffffffffffffffffffffffffffffffffffff168373ffffffffffffffffffffffffffffffffffffffff16148061055057507f000000000000000000000000000000000000000000000000000000000000000073ffffffffffffffffffffffffffffffffffffffff168373ffffffffffffffffffffffffffffffffffffffff16145b61058f576040517f08c379a000000000000000000000000000000000000000000000000000000000815260040161058690610c7f565b60405180910390fd5b600082116105d2576040517f08c379a00000000000000000000000000000000000000000000000000000000081526004016105c990610cbf565b60405180910390fd5b60007f000000000000000000000000000000000000000000000000000000000000000073ffffffffffffffffffffffffffffffffffffffff168473ffffffffffffffffffffffffffffffffffffffff161490506000806000808461067d577f00000000000000000000000000000000000000000000000000000000000000007f00000000000000000000000000000000000000000000000000000000000000006001546000546106c6565b7f00000000000000000000000000000000000000000000000000000000000000007f00000000000000000000000000000000000000000000000000000000000000006000546001545b93509350935093508373ffffffffffffffffffffffffffffffffffffffff166323b872dd33308a6040518463ffffffff1660e01b815260040161070b93929190610c04565b602060405180830381600087803b15801561072557600080fd5b505af1158015610739573d6000803e3d6000fd5b505050506040513d601f19601f8201168201806040525081019061075d9190610a8c565b5060006103e86103e5896107719190610d92565b61077b9190610d61565b905080836107899190610d92565b81836107959190610d92565b61079f9190610d61565b96508373ffffffffffffffffffffffffffffffffffffffff1663a9059cbb33896040518363ffffffff1660e01b81526004016107dc929190610c3b565b602060405180830381600087803b1580156107f657600080fd5b505af115801561080a573d6000803e3d6000fd5b505050506040513d601f19601f8201168201806040525081019061082e9190610a8c565b506109897f000000000000000000000000000000000000000000000000000000000000000073ffffffffffffffffffffffffffffffffffffffff166370a08231306040518263ffffffff1660e01b815260040161088b9190610be9565b60206040518083038186803b1580156108a357600080fd5b505afa1580156108b7573d6000803e3d6000fd5b505050506040513d601f19601f820116820180604052508101906108db9190610ae6565b7f000000000000000000000000000000000000000000000000000000000000000073ffffffffffffffffffffffffffffffffffffffff166370a08231306040518263ffffffff1660e01b81526004016109349190610be9565b60206040518083038186803b15801561094c57600080fd5b505afa158015610960573d6000803e3d6000fd5b505050506040513d601f19601f820116820180604052508101906109849190610ae6565b6109b9565b50505050505092915050565b7f000000000000000000000000000000000000000000000000000000000000000081565b81600081905550806001819055505050565b6000813590506109da81610f48565b92915050565b6000815190506109ef81610f5f565b92915050565b600081359050610a0481610f76565b92915050565b600081519050610a1981610f76565b92915050565b600060208284031215610a3557610a34610ec8565b5b6000610a43848285016109cb565b91505092915050565b60008060408385031215610a6357610a62610ec8565b5b6000610a71858286016109cb565b9250506020610a82858286016109f5565b9150509250929050565b600060208284031215610aa257610aa1610ec8565b5b6000610ab0848285016109e0565b91505092915050565b600060208284031215610acf57610ace610ec8565b5b6000610add848285016109f5565b91505092915050565b600060208284031215610afc57610afb610ec8565b5b6000610b0a84828501610a0a565b91505092915050565b60008060408385031215610b2a57610b29610ec8565b5b6000610b38858286016109f5565b9250506020610b49858286016109f5565b9150509250929050565b610b5c81610dec565b82525050565b610b6b81610e34565b82525050565b6000610b7e600d83610cfa565b9150610b8982610ecd565b602082019050919050565b6000610ba1600b83610cfa565b9150610bac82610ef6565b602082019050919050565b6000610bc4600b83610cfa565b9150610bcf82610f1f565b602082019050919050565b610be381610e2a565b82525050565b6000602082019050610bfe6000830184610b53565b92915050565b6000606082019050610c196000830186610b53565b610c266020830185610b53565b610c336040830184610bda565b949350505050565b6000604082019050610c506000830185610b53565b610c5d6020830184610bda565b9392505050565b6000602082019050610c796000830184610b62565b92915050565b60006020820190508181036000830152610c9881610b71565b9050919050565b60006020820190508181036000830152610cb881610b94565b9050919050565b60006020820190508181036000830152610cd881610bb7565b9050919050565b6000602082019050610cf46000830184610bda565b92915050565b600082825260208201905092915050565b6000610d1682610e2a565b9150610d2183610e2a565b9250827fffffffffffffffffffffffffffffffffffffffffffffffffffffffffffffffff03821115610d5657610d55610e6a565b5b828201905092915050565b6000610d6c82610e2a565b9150610d7783610e2a565b925082610d8757610d86610e99565b5b828204905092915050565b6000610d9d82610e2a565b9150610da883610e2a565b9250817fffffffffffffffffffffffffffffffffffffffffffffffffffffffffffffffff0483118215151615610de157610de0610e6a565b5b828202905092915050565b6000610df782610e0a565b9050919050565b60008115159050919050565b600073ffffffffffffffffffffffffffffffffffffffff82169050919050565b6000819050919050565b6000610e3f82610e46565b9050919050565b6000610e5182610e58565b9050919050565b6000610e6382610e0a565b9050919050565b7f4e487b7100000000000000000000000000000000000000000000000000000000600052601160045260246000fd5b7f4e487b7100000000000000000000000000000000000000000000000000000000600052601260045260246000fd5b600080fd5b7f496e76616c696420746f6b656e00000000000000000000000000000000000000600082015250565b7f64792f6478202120792f78000000000000000000000000000000000000000000600082015250565b7f616d6f756e742069732030000000000000000000000000000000000000000000600082015250565b610f5181610dec565b8114610f5c57600080fd5b50565b610f6881610dfe565b8114610f7357600080fd5b50565b610f7f81610e2a565b8114610f8a57600080fd5b5056fea2646970667358221220b64ed049991404a3acd239c0907e52f38ba91816c3eb3ea9aa670e2f7ba5f65464736f6c63430008070033",
					"opcodes": "PUSH1 0xC0 PUSH1 0x40 MSTORE CALLVALUE DUP1 ISZERO PUSH3 0x11 JUMPI PUSH1 0x0 DUP1 REVERT JUMPDEST POP PUSH1 0x40 MLOAD PUSH3 0x119A CODESIZE SUB DUP1 PUSH3 0x119A DUP4 CODECOPY DUP2 DUP2 ADD PUSH1 0x40 MSTORE DUP2 ADD SWAP1 PUSH3 0x37 SWAP2 SWAP1 PUSH3 0xC4 JUMP JUMPDEST DUP2 PUSH20 0xFFFFFFFFFFFFFFFFFFFFFFFFFFFFFFFFFFFFFFFF AND PUSH1 0x80 DUP2 PUSH20 0xFFFFFFFFFFFFFFFFFFFFFFFFFFFFFFFFFFFFFFFF AND PUSH1 0x60 SHL DUP2 MSTORE POP POP DUP1 PUSH20 0xFFFFFFFFFFFFFFFFFFFFFFFFFFFFFFFFFFFFFFFF AND PUSH1 0xA0 DUP2 PUSH20 0xFFFFFFFFFFFFFFFFFFFFFFFFFFFFFFFFFFFFFFFF AND PUSH1 0x60 SHL DUP2 MSTORE POP POP POP POP PUSH3 0x15E JUMP JUMPDEST PUSH1 0x0 DUP2 MLOAD SWAP1 POP PUSH3 0xBE DUP2 PUSH3 0x144 JUMP JUMPDEST SWAP3 SWAP2 POP POP JUMP JUMPDEST PUSH1 0x0 DUP1 PUSH1 0x40 DUP4 DUP6 SUB SLT ISZERO PUSH3 0xDE JUMPI PUSH3 0xDD PUSH3 0x13F JUMP JUMPDEST JUMPDEST PUSH1 0x0 PUSH3 0xEE DUP6 DUP3 DUP7 ADD PUSH3 0xAD JUMP JUMPDEST SWAP3 POP POP PUSH1 0x20 PUSH3 0x101 DUP6 DUP3 DUP7 ADD PUSH3 0xAD JUMP JUMPDEST SWAP2 POP POP SWAP3 POP SWAP3 SWAP1 POP JUMP JUMPDEST PUSH1 0x0 PUSH3 0x118 DUP3 PUSH3 0x11F JUMP JUMPDEST SWAP1 POP SWAP2 SWAP1 POP JUMP JUMPDEST PUSH1 0x0 PUSH20 0xFFFFFFFFFFFFFFFFFFFFFFFFFFFFFFFFFFFFFFFF DUP3 AND SWAP1 POP SWAP2 SWAP1 POP JUMP JUMPDEST PUSH1 0x0 DUP1 REVERT JUMPDEST PUSH3 0x14F DUP2 PUSH3 0x10B JUMP JUMPDEST DUP2 EQ PUSH3 0x15B JUMPI PUSH1 0x0 DUP1 REVERT JUMPDEST POP JUMP JUMPDEST PUSH1 0x80 MLOAD PUSH1 0x60 SHR PUSH1 0xA0 MLOAD PUSH1 0x60 SHR PUSH2 0xFC3 PUSH3 0x1D7 PUSH1 0x0 CODECOPY PUSH1 0x0 DUP2 DUP2 PUSH2 0x307 ADD MSTORE DUP2 DUP2 PUSH2 0x502 ADD MSTORE DUP2 DUP2 PUSH2 0x632 ADD MSTORE DUP2 DUP2 PUSH2 0x6A0 ADD MSTORE DUP2 DUP2 PUSH2 0x8DD ADD MSTORE PUSH2 0x997 ADD MSTORE PUSH1 0x0 DUP2 DUP2 PUSH2 0x205 ADD MSTORE DUP2 DUP2 PUSH2 0x257 ADD MSTORE DUP2 DUP2 PUSH2 0x4AD ADD MSTORE DUP2 DUP2 PUSH2 0x5D6 ADD MSTORE DUP2 DUP2 PUSH2 0x653 ADD MSTORE DUP2 DUP2 PUSH2 0x67F ADD MSTORE PUSH2 0x834 ADD MSTORE PUSH2 0xFC3 PUSH1 0x0 RETURN INVALID PUSH1 0x80 PUSH1 0x40 MSTORE CALLVALUE DUP1 ISZERO PUSH2 0x10 JUMPI PUSH1 0x0 DUP1 REVERT JUMPDEST POP PUSH1 0x4 CALLDATASIZE LT PUSH2 0x9E JUMPI PUSH1 0x0 CALLDATALOAD PUSH1 0xE0 SHR DUP1 PUSH4 0x70A08231 GT PUSH2 0x66 JUMPI DUP1 PUSH4 0x70A08231 EQ PUSH2 0x125 JUMPI DUP1 PUSH4 0x9CD441DA EQ PUSH2 0x155 JUMPI DUP1 PUSH4 0xBBD2B3B2 EQ PUSH2 0x185 JUMPI DUP1 PUSH4 0xD004F0F7 EQ PUSH2 0x1B5 JUMPI DUP1 PUSH4 0xD21220A7 EQ PUSH2 0x1E5 JUMPI PUSH2 0x9E JUMP JUMPDEST DUP1 PUSH4 0xDFE1681 EQ PUSH2 0xA3 JUMPI DUP1 PUSH4 0x18160DDD EQ PUSH2 0xC1 JUMPI DUP1 PUSH4 0x443CB4BC EQ PUSH2 0xDF JUMPI DUP1 PUSH4 0x5A76F25E EQ PUSH2 0xFD JUMPI DUP1 PUSH4 0x67B9A286 EQ PUSH2 0x11B JUMPI JUMPDEST PUSH1 0x0 DUP1 REVERT JUMPDEST PUSH2 0xAB PUSH2 0x203 JUMP JUMPDEST PUSH1 0x40 MLOAD PUSH2 0xB8 SWAP2 SWAP1 PUSH2 0xC64 JUMP JUMPDEST PUSH1 0x40 MLOAD DUP1 SWAP2 SUB SWAP1 RETURN JUMPDEST PUSH2 0xC9 PUSH2 0x227 JUMP JUMPDEST PUSH1 0x40 MLOAD PUSH2 0xD6 SWAP2 SWAP1 PUSH2 0xCDF JUMP JUMPDEST PUSH1 0x40 MLOAD DUP1 SWAP2 SUB SWAP1 RETURN JUMPDEST PUSH2 0xE7 PUSH2 0x22D JUMP JUMPDEST PUSH1 0x40 MLOAD PUSH2 0xF4 SWAP2 SWAP1 PUSH2 0xCDF JUMP JUMPDEST PUSH1 0x40 MLOAD DUP1 SWAP2 SUB SWAP1 RETURN JUMPDEST PUSH2 0x105 PUSH2 0x233 JUMP JUMPDEST PUSH1 0x40 MLOAD PUSH2 0x112 SWAP2 SWAP1 PUSH2 0xCDF JUMP JUMPDEST PUSH1 0x40 MLOAD DUP1 SWAP2 SUB SWAP1 RETURN JUMPDEST PUSH2 0x123 PUSH2 0x239 JUMP JUMPDEST STOP JUMPDEST PUSH2 0x13F PUSH1 0x4 DUP1 CALLDATASIZE SUB DUP2 ADD SWAP1 PUSH2 0x13A SWAP2 SWAP1 PUSH2 0xA1F JUMP JUMPDEST PUSH2 0x23B JUMP JUMPDEST PUSH1 0x40 MLOAD PUSH2 0x14C SWAP2 SWAP1 PUSH2 0xCDF JUMP JUMPDEST PUSH1 0x40 MLOAD DUP1 SWAP2 SUB SWAP1 RETURN JUMPDEST PUSH2 0x16F PUSH1 0x4 DUP1 CALLDATASIZE SUB DUP2 ADD SWAP1 PUSH2 0x16A SWAP2 SWAP1 PUSH2 0xB13 JUMP JUMPDEST PUSH2 0x253 JUMP JUMPDEST PUSH1 0x40 MLOAD PUSH2 0x17C SWAP2 SWAP1 PUSH2 0xCDF JUMP JUMPDEST PUSH1 0x40 MLOAD DUP1 SWAP2 SUB SWAP1 RETURN JUMPDEST PUSH2 0x19F PUSH1 0x4 DUP1 CALLDATASIZE SUB DUP2 ADD SWAP1 PUSH2 0x19A SWAP2 SWAP1 PUSH2 0xAB9 JUMP JUMPDEST PUSH2 0x42F JUMP JUMPDEST PUSH1 0x40 MLOAD PUSH2 0x1AC SWAP2 SWAP1 PUSH2 0xCDF JUMP JUMPDEST PUSH1 0x40 MLOAD DUP1 SWAP2 SUB SWAP1 RETURN JUMPDEST PUSH2 0x1CF PUSH1 0x4 DUP1 CALLDATASIZE SUB DUP2 ADD SWAP1 PUSH2 0x1CA SWAP2 SWAP1 PUSH2 0xA4C JUMP JUMPDEST PUSH2 0x4A9 JUMP JUMPDEST PUSH1 0x40 MLOAD PUSH2 0x1DC SWAP2 SWAP1 PUSH2 0xCDF JUMP JUMPDEST PUSH1 0x40 MLOAD DUP1 SWAP2 SUB SWAP1 RETURN JUMPDEST PUSH2 0x1ED PUSH2 0x995 JUMP JUMPDEST PUSH1 0x40 MLOAD PUSH2 0x1FA SWAP2 SWAP1 PUSH2 0xC64 JUMP JUMPDEST PUSH1 0x40 MLOAD DUP1 SWAP2 SUB SWAP1 RETURN JUMPDEST PUSH32 0x0 DUP2 JUMP JUMPDEST PUSH1 0x2 SLOAD DUP2 JUMP JUMPDEST PUSH1 0x0 SLOAD DUP2 JUMP JUMPDEST PUSH1 0x1 SLOAD DUP2 JUMP JUMPDEST JUMP JUMPDEST PUSH1 0x3 PUSH1 0x20 MSTORE DUP1 PUSH1 0x0 MSTORE PUSH1 0x40 PUSH1 0x0 KECCAK256 PUSH1 0x0 SWAP2 POP SWAP1 POP SLOAD DUP2 JUMP JUMPDEST PUSH1 0x0 PUSH32 0x0 PUSH20 0xFFFFFFFFFFFFFFFFFFFFFFFFFFFFFFFFFFFFFFFF AND PUSH4 0x23B872DD CALLER ADDRESS DUP7 PUSH1 0x40 MLOAD DUP5 PUSH4 0xFFFFFFFF AND PUSH1 0xE0 SHL DUP2 MSTORE PUSH1 0x4 ADD PUSH2 0x2B2 SWAP4 SWAP3 SWAP2 SWAP1 PUSH2 0xC04 JUMP JUMPDEST PUSH1 0x20 PUSH1 0x40 MLOAD DUP1 DUP4 SUB DUP2 PUSH1 0x0 DUP8 DUP1 EXTCODESIZE ISZERO DUP1 ISZERO PUSH2 0x2CC JUMPI PUSH1 0x0 DUP1 REVERT JUMPDEST POP GAS CALL ISZERO DUP1 ISZERO PUSH2 0x2E0 JUMPI RETURNDATASIZE PUSH1 0x0 DUP1 RETURNDATACOPY RETURNDATASIZE PUSH1 0x0 REVERT JUMPDEST POP POP POP POP PUSH1 0x40 MLOAD RETURNDATASIZE PUSH1 0x1F NOT PUSH1 0x1F DUP3 ADD AND DUP3 ADD DUP1 PUSH1 0x40 MSTORE POP DUP2 ADD SWAP1 PUSH2 0x304 SWAP2 SWAP1 PUSH2 0xA8C JUMP JUMPDEST POP PUSH32 0x0 PUSH20 0xFFFFFFFFFFFFFFFFFFFFFFFFFFFFFFFFFFFFFFFF AND PUSH4 0x23B872DD CALLER ADDRESS DUP6 PUSH1 0x40 MLOAD DUP5 PUSH4 0xFFFFFFFF AND PUSH1 0xE0 SHL DUP2 MSTORE PUSH1 0x4 ADD PUSH2 0x362 SWAP4 SWAP3 SWAP2 SWAP1 PUSH2 0xC04 JUMP JUMPDEST PUSH1 0x20 PUSH1 0x40 MLOAD DUP1 DUP4 SUB DUP2 PUSH1 0x0 DUP8 DUP1 EXTCODESIZE ISZERO DUP1 ISZERO PUSH2 0x37C JUMPI PUSH1 0x0 DUP1 REVERT JUMPDEST POP GAS CALL ISZERO DUP1 ISZERO PUSH2 0x390 JUMPI RETURNDATASIZE PUSH1 0x0 DUP1 RETURNDATACOPY RETURNDATASIZE PUSH1 0x0 REVERT JUMPDEST POP POP POP POP PUSH1 0x40 MLOAD RETURNDATASIZE PUSH1 0x1F NOT PUSH1 0x1F DUP3 ADD AND DUP3 ADD DUP1 PUSH1 0x40 MSTORE POP DUP2 ADD SWAP1 PUSH2 0x3B4 SWAP2 SWAP1 PUSH2 0xA8C JUMP JUMPDEST POP PUSH1 0x0 DUP1 SLOAD GT DUP1 PUSH2 0x3C7 JUMPI POP PUSH1 0x0 PUSH1 0x1 SLOAD GT JUMPDEST ISZERO PUSH2 0x429 JUMPI DUP3 PUSH1 0x1 SLOAD PUSH2 0x3DA SWAP2 SWAP1 PUSH2 0xD92 JUMP JUMPDEST DUP3 PUSH1 0x0 SLOAD PUSH2 0x3E8 SWAP2 SWAP1 PUSH2 0xD92 JUMP JUMPDEST EQ PUSH2 0x428 JUMPI PUSH1 0x40 MLOAD PUSH32 0x8C379A000000000000000000000000000000000000000000000000000000000 DUP2 MSTORE PUSH1 0x4 ADD PUSH2 0x41F SWAP1 PUSH2 0xC9F JUMP JUMPDEST PUSH1 0x40 MLOAD DUP1 SWAP2 SUB SWAP1 REVERT JUMPDEST JUMPDEST SWAP3 SWAP2 POP POP JUMP JUMPDEST PUSH1 0x0 PUSH1 0x3 DUP3 GT ISZERO PUSH2 0x496 JUMPI DUP2 SWAP1 POP PUSH1 0x0 PUSH1 0x1 PUSH1 0x2 DUP5 PUSH2 0x44E SWAP2 SWAP1 PUSH2 0xD61 JUMP JUMPDEST PUSH2 0x458 SWAP2 SWAP1 PUSH2 0xD0B JUMP JUMPDEST SWAP1 POP JUMPDEST DUP2 DUP2 LT ISZERO PUSH2 0x490 JUMPI DUP1 SWAP2 POP PUSH1 0x2 DUP2 DUP3 DUP6 PUSH2 0x475 SWAP2 SWAP1 PUSH2 0xD61 JUMP JUMPDEST PUSH2 0x47F SWAP2 SWAP1 PUSH2 0xD0B JUMP JUMPDEST PUSH2 0x489 SWAP2 SWAP1 PUSH2 0xD61 JUMP JUMPDEST SWAP1 POP PUSH2 0x45B JUMP JUMPDEST POP PUSH2 0x4A4 JUMP JUMPDEST PUSH1 0x0 DUP3 EQ PUSH2 0x4A3 JUMPI PUSH1 0x1 SWAP1 POP JUMPDEST JUMPDEST SWAP2 SWAP1 POP JUMP JUMPDEST PUSH1 0x0 PUSH32 0x0 PUSH20 0xFFFFFFFFFFFFFFFFFFFFFFFFFFFFFFFFFFFFFFFF AND DUP4 PUSH20 0xFFFFFFFFFFFFFFFFFFFFFFFFFFFFFFFFFFFFFFFF AND EQ DUP1 PUSH2 0x550 JUMPI POP PUSH32 0x0 PUSH20 0xFFFFFFFFFFFFFFFFFFFFFFFFFFFFFFFFFFFFFFFF AND DUP4 PUSH20 0xFFFFFFFFFFFFFFFFFFFFFFFFFFFFFFFFFFFFFFFF AND EQ JUMPDEST PUSH2 0x58F JUMPI PUSH1 0x40 MLOAD PUSH32 0x8C379A000000000000000000000000000000000000000000000000000000000 DUP2 MSTORE PUSH1 0x4 ADD PUSH2 0x586 SWAP1 PUSH2 0xC7F JUMP JUMPDEST PUSH1 0x40 MLOAD DUP1 SWAP2 SUB SWAP1 REVERT JUMPDEST PUSH1 0x0 DUP3 GT PUSH2 0x5D2 JUMPI PUSH1 0x40 MLOAD PUSH32 0x8C379A000000000000000000000000000000000000000000000000000000000 DUP2 MSTORE PUSH1 0x4 ADD PUSH2 0x5C9 SWAP1 PUSH2 0xCBF JUMP JUMPDEST PUSH1 0x40 MLOAD DUP1 SWAP2 SUB SWAP1 REVERT JUMPDEST PUSH1 0x0 PUSH32 0x0 PUSH20 0xFFFFFFFFFFFFFFFFFFFFFFFFFFFFFFFFFFFFFFFF AND DUP5 PUSH20 0xFFFFFFFFFFFFFFFFFFFFFFFFFFFFFFFFFFFFFFFF AND EQ SWAP1 POP PUSH1 0x0 DUP1 PUSH1 0x0 DUP1 DUP5 PUSH2 0x67D JUMPI PUSH32 0x0 PUSH32 0x0 PUSH1 0x1 SLOAD PUSH1 0x0 SLOAD PUSH2 0x6C6 JUMP JUMPDEST PUSH32 0x0 PUSH32 0x0 PUSH1 0x0 SLOAD PUSH1 0x1 SLOAD JUMPDEST SWAP4 POP SWAP4 POP SWAP4 POP SWAP4 POP DUP4 PUSH20 0xFFFFFFFFFFFFFFFFFFFFFFFFFFFFFFFFFFFFFFFF AND PUSH4 0x23B872DD CALLER ADDRESS DUP11 PUSH1 0x40 MLOAD DUP5 PUSH4 0xFFFFFFFF AND PUSH1 0xE0 SHL DUP2 MSTORE PUSH1 0x4 ADD PUSH2 0x70B SWAP4 SWAP3 SWAP2 SWAP1 PUSH2 0xC04 JUMP JUMPDEST PUSH1 0x20 PUSH1 0x40 MLOAD DUP1 DUP4 SUB DUP2 PUSH1 0x0 DUP8 DUP1 EXTCODESIZE ISZERO DUP1 ISZERO PUSH2 0x725 JUMPI PUSH1 0x0 DUP1 REVERT JUMPDEST POP GAS CALL ISZERO DUP1 ISZERO PUSH2 0x739 JUMPI RETURNDATASIZE PUSH1 0x0 DUP1 RETURNDATACOPY RETURNDATASIZE PUSH1 0x0 REVERT JUMPDEST POP POP POP POP PUSH1 0x40 MLOAD RETURNDATASIZE PUSH1 0x1F NOT PUSH1 0x1F DUP3 ADD AND DUP3 ADD DUP1 PUSH1 0x40 MSTORE POP DUP2 ADD SWAP1 PUSH2 0x75D SWAP2 SWAP1 PUSH2 0xA8C JUMP JUMPDEST POP PUSH1 0x0 PUSH2 0x3E8 PUSH2 0x3E5 DUP10 PUSH2 0x771 SWAP2 SWAP1 PUSH2 0xD92 JUMP JUMPDEST PUSH2 0x77B SWAP2 SWAP1 PUSH2 0xD61 JUMP JUMPDEST SWAP1 POP DUP1 DUP4 PUSH2 0x789 SWAP2 SWAP1 PUSH2 0xD92 JUMP JUMPDEST DUP2 DUP4 PUSH2 0x795 SWAP2 SWAP1 PUSH2 0xD92 JUMP JUMPDEST PUSH2 0x79F SWAP2 SWAP1 PUSH2 0xD61 JUMP JUMPDEST SWAP7 POP DUP4 PUSH20 0xFFFFFFFFFFFFFFFFFFFFFFFFFFFFFFFFFFFFFFFF AND PUSH4 0xA9059CBB CALLER DUP10 PUSH1 0x40 MLOAD DUP4 PUSH4 0xFFFFFFFF AND PUSH1 0xE0 SHL DUP2 MSTORE PUSH1 0x4 ADD PUSH2 0x7DC SWAP3 SWAP2 SWAP1 PUSH2 0xC3B JUMP JUMPDEST PUSH1 0x20 PUSH1 0x40 MLOAD DUP1 DUP4 SUB DUP2 PUSH1 0x0 DUP8 DUP1 EXTCODESIZE ISZERO DUP1 ISZERO PUSH2 0x7F6 JUMPI PUSH1 0x0 DUP1 REVERT JUMPDEST POP GAS CALL ISZERO DUP1 ISZERO PUSH2 0x80A JUMPI RETURNDATASIZE PUSH1 0x0 DUP1 RETURNDATACOPY RETURNDATASIZE PUSH1 0x0 REVERT JUMPDEST POP POP POP POP PUSH1 0x40 MLOAD RETURNDATASIZE PUSH1 0x1F NOT PUSH1 0x1F DUP3 ADD AND DUP3 ADD DUP1 PUSH1 0x40 MSTORE POP DUP2 ADD SWAP1 PUSH2 0x82E SWAP2 SWAP1 PUSH2 0xA8C JUMP JUMPDEST POP PUSH2 0x989 PUSH32 0x0 PUSH20 0xFFFFFFFFFFFFFFFFFFFFFFFFFFFFFFFFFFFFFFFF AND PUSH4 0x70A08231 ADDRESS PUSH1 0x40 MLOAD DUP3 PUSH4 0xFFFFFFFF AND PUSH1 0xE0 SHL DUP2 MSTORE PUSH1 0x4 ADD PUSH2 0x88B SWAP2 SWAP1 PUSH2 0xBE9 JUMP JUMPDEST PUSH1 0x20 PUSH1 0x40 MLOAD DUP1 DUP4 SUB DUP2 DUP7 DUP1 EXTCODESIZE ISZERO DUP1 ISZERO PUSH2 0x8A3 JUMPI PUSH1 0x0 DUP1 REVERT JUMPDEST POP GAS STATICCALL ISZERO DUP1 ISZERO PUSH2 0x8B7 JUMPI RETURNDATASIZE PUSH1 0x0 DUP1 RETURNDATACOPY RETURNDATASIZE PUSH1 0x0 REVERT JUMPDEST POP POP POP POP PUSH1 0x40 MLOAD RETURNDATASIZE PUSH1 0x1F NOT PUSH1 0x1F DUP3 ADD AND DUP3 ADD DUP1 PUSH1 0x40 MSTORE POP DUP2 ADD SWAP1 PUSH2 0x8DB SWAP2 SWAP1 PUSH2 0xAE6 JUMP JUMPDEST PUSH32 0x0 PUSH20 0xFFFFFFFFFFFFFFFFFFFFFFFFFFFFFFFFFFFFFFFF AND PUSH4 0x70A08231 ADDRESS PUSH1 0x40 MLOAD DUP3 PUSH4 0xFFFFFFFF AND PUSH1 0xE0 SHL DUP2 MSTORE PUSH1 0x4 ADD PUSH2 0x934 SWAP2 SWAP1 PUSH2 0xBE9 JUMP JUMPDEST PUSH1 0x20 PUSH1 0x40 MLOAD DUP1 DUP4 SUB DUP2 DUP7 DUP1 EXTCODESIZE ISZERO DUP1 ISZERO PUSH2 0x94C JUMPI PUSH1 0x0 DUP1 REVERT JUMPDEST POP GAS STATICCALL ISZERO DUP1 ISZERO PUSH2 0x960 JUMPI RETURNDATASIZE PUSH1 0x0 DUP1 RETURNDATACOPY RETURNDATASIZE PUSH1 0x0 REVERT JUMPDEST POP POP POP POP PUSH1 0x40 MLOAD RETURNDATASIZE PUSH1 0x1F NOT PUSH1 0x1F DUP3 ADD AND DUP3 ADD DUP1 PUSH1 0x40 MSTORE POP DUP2 ADD SWAP1 PUSH2 0x984 SWAP2 SWAP1 PUSH2 0xAE6 JUMP JUMPDEST PUSH2 0x9B9 JUMP JUMPDEST POP POP POP POP POP POP SWAP3 SWAP2 POP POP JUMP JUMPDEST PUSH32 0x0 DUP2 JUMP JUMPDEST DUP2 PUSH1 0x0 DUP2 SWAP1 SSTORE POP DUP1 PUSH1 0x1 DUP2 SWAP1 SSTORE POP POP POP JUMP JUMPDEST PUSH1 0x0 DUP2 CALLDATALOAD SWAP1 POP PUSH2 0x9DA DUP2 PUSH2 0xF48 JUMP JUMPDEST SWAP3 SWAP2 POP POP JUMP JUMPDEST PUSH1 0x0 DUP2 MLOAD SWAP1 POP PUSH2 0x9EF DUP2 PUSH2 0xF5F JUMP JUMPDEST SWAP3 SWAP2 POP POP JUMP JUMPDEST PUSH1 0x0 DUP2 CALLDATALOAD SWAP1 POP PUSH2 0xA04 DUP2 PUSH2 0xF76 JUMP JUMPDEST SWAP3 SWAP2 POP POP JUMP JUMPDEST PUSH1 0x0 DUP2 MLOAD SWAP1 POP PUSH2 0xA19 DUP2 PUSH2 0xF76 JUMP JUMPDEST SWAP3 SWAP2 POP POP JUMP JUMPDEST PUSH1 0x0 PUSH1 0x20 DUP3 DUP5 SUB SLT ISZERO PUSH2 0xA35 JUMPI PUSH2 0xA34 PUSH2 0xEC8 JUMP JUMPDEST JUMPDEST PUSH1 0x0 PUSH2 0xA43 DUP5 DUP3 DUP6 ADD PUSH2 0x9CB JUMP JUMPDEST SWAP2 POP POP SWAP3 SWAP2 POP POP JUMP JUMPDEST PUSH1 0x0 DUP1 PUSH1 0x40 DUP4 DUP6 SUB SLT ISZERO PUSH2 0xA63 JUMPI PUSH2 0xA62 PUSH2 0xEC8 JUMP JUMPDEST JUMPDEST PUSH1 0x0 PUSH2 0xA71 DUP6 DUP3 DUP7 ADD PUSH2 0x9CB JUMP JUMPDEST SWAP3 POP POP PUSH1 0x20 PUSH2 0xA82 DUP6 DUP3 DUP7 ADD PUSH2 0x9F5 JUMP JUMPDEST SWAP2 POP POP SWAP3 POP SWAP3 SWAP1 POP JUMP JUMPDEST PUSH1 0x0 PUSH1 0x20 DUP3 DUP5 SUB SLT ISZERO PUSH2 0xAA2 JUMPI PUSH2 0xAA1 PUSH2 0xEC8 JUMP JUMPDEST JUMPDEST PUSH1 0x0 PUSH2 0xAB0 DUP5 DUP3 DUP6 ADD PUSH2 0x9E0 JUMP JUMPDEST SWAP2 POP POP SWAP3 SWAP2 POP POP JUMP JUMPDEST PUSH1 0x0 PUSH1 0x20 DUP3 DUP5 SUB SLT ISZERO PUSH2 0xACF JUMPI PUSH2 0xACE PUSH2 0xEC8 JUMP JUMPDEST JUMPDEST PUSH1 0x0 PUSH2 0xADD DUP5 DUP3 DUP6 ADD PUSH2 0x9F5 JUMP JUMPDEST SWAP2 POP POP SWAP3 SWAP2 POP POP JUMP JUMPDEST PUSH1 0x0 PUSH1 0x20 DUP3 DUP5 SUB SLT ISZERO PUSH2 0xAFC JUMPI PUSH2 0xAFB PUSH2 0xEC8 JUMP JUMPDEST JUMPDEST PUSH1 0x0 PUSH2 0xB0A DUP5 DUP3 DUP6 ADD PUSH2 0xA0A JUMP JUMPDEST SWAP2 POP POP SWAP3 SWAP2 POP POP JUMP JUMPDEST PUSH1 0x0 DUP1 PUSH1 0x40 DUP4 DUP6 SUB SLT ISZERO PUSH2 0xB2A JUMPI PUSH2 0xB29 PUSH2 0xEC8 JUMP JUMPDEST JUMPDEST PUSH1 0x0 PUSH2 0xB38 DUP6 DUP3 DUP7 ADD PUSH2 0x9F5 JUMP JUMPDEST SWAP3 POP POP PUSH1 0x20 PUSH2 0xB49 DUP6 DUP3 DUP7 ADD PUSH2 0x9F5 JUMP JUMPDEST SWAP2 POP POP SWAP3 POP SWAP3 SWAP1 POP JUMP JUMPDEST PUSH2 0xB5C DUP2 PUSH2 0xDEC JUMP JUMPDEST DUP3 MSTORE POP POP JUMP JUMPDEST PUSH2 0xB6B DUP2 PUSH2 0xE34 JUMP JUMPDEST DUP3 MSTORE POP POP JUMP JUMPDEST PUSH1 0x0 PUSH2 0xB7E PUSH1 0xD DUP4 PUSH2 0xCFA JUMP JUMPDEST SWAP2 POP PUSH2 0xB89 DUP3 PUSH2 0xECD JUMP JUMPDEST PUSH1 0x20 DUP3 ADD SWAP1 POP SWAP2 SWAP1 POP JUMP JUMPDEST PUSH1 0x0 PUSH2 0xBA1 PUSH1 0xB DUP4 PUSH2 0xCFA JUMP JUMPDEST SWAP2 POP PUSH2 0xBAC DUP3 PUSH2 0xEF6 JUMP JUMPDEST PUSH1 0x20 DUP3 ADD SWAP1 POP SWAP2 SWAP1 POP JUMP JUMPDEST PUSH1 0x0 PUSH2 0xBC4 PUSH1 0xB DUP4 PUSH2 0xCFA JUMP JUMPDEST SWAP2 POP PUSH2 0xBCF DUP3 PUSH2 0xF1F JUMP JUMPDEST PUSH1 0x20 DUP3 ADD SWAP1 POP SWAP2 SWAP1 POP JUMP JUMPDEST PUSH2 0xBE3 DUP2 PUSH2 0xE2A JUMP JUMPDEST DUP3 MSTORE POP POP JUMP JUMPDEST PUSH1 0x0 PUSH1 0x20 DUP3 ADD SWAP1 POP PUSH2 0xBFE PUSH1 0x0 DUP4 ADD DUP5 PUSH2 0xB53 JUMP JUMPDEST SWAP3 SWAP2 POP POP JUMP JUMPDEST PUSH1 0x0 PUSH1 0x60 DUP3 ADD SWAP1 POP PUSH2 0xC19 PUSH1 0x0 DUP4 ADD DUP7 PUSH2 0xB53 JUMP JUMPDEST PUSH2 0xC26 PUSH1 0x20 DUP4 ADD DUP6 PUSH2 0xB53 JUMP JUMPDEST PUSH2 0xC33 PUSH1 0x40 DUP4 ADD DUP5 PUSH2 0xBDA JUMP JUMPDEST SWAP5 SWAP4 POP POP POP POP JUMP JUMPDEST PUSH1 0x0 PUSH1 0x40 DUP3 ADD SWAP1 POP PUSH2 0xC50 PUSH1 0x0 DUP4 ADD DUP6 PUSH2 0xB53 JUMP JUMPDEST PUSH2 0xC5D PUSH1 0x20 DUP4 ADD DUP5 PUSH2 0xBDA JUMP JUMPDEST SWAP4 SWAP3 POP POP POP JUMP JUMPDEST PUSH1 0x0 PUSH1 0x20 DUP3 ADD SWAP1 POP PUSH2 0xC79 PUSH1 0x0 DUP4 ADD DUP5 PUSH2 0xB62 JUMP JUMPDEST SWAP3 SWAP2 POP POP JUMP JUMPDEST PUSH1 0x0 PUSH1 0x20 DUP3 ADD SWAP1 POP DUP2 DUP2 SUB PUSH1 0x0 DUP4 ADD MSTORE PUSH2 0xC98 DUP2 PUSH2 0xB71 JUMP JUMPDEST SWAP1 POP SWAP2 SWAP1 POP JUMP JUMPDEST PUSH1 0x0 PUSH1 0x20 DUP3 ADD SWAP1 POP DUP2 DUP2 SUB PUSH1 0x0 DUP4 ADD MSTORE PUSH2 0xCB8 DUP2 PUSH2 0xB94 JUMP JUMPDEST SWAP1 POP SWAP2 SWAP1 POP JUMP JUMPDEST PUSH1 0x0 PUSH1 0x20 DUP3 ADD SWAP1 POP DUP2 DUP2 SUB PUSH1 0x0 DUP4 ADD MSTORE PUSH2 0xCD8 DUP2 PUSH2 0xBB7 JUMP JUMPDEST SWAP1 POP SWAP2 SWAP1 POP JUMP JUMPDEST PUSH1 0x0 PUSH1 0x20 DUP3 ADD SWAP1 POP PUSH2 0xCF4 PUSH1 0x0 DUP4 ADD DUP5 PUSH2 0xBDA JUMP JUMPDEST SWAP3 SWAP2 POP POP JUMP JUMPDEST PUSH1 0x0 DUP3 DUP3 MSTORE PUSH1 0x20 DUP3 ADD SWAP1 POP SWAP3 SWAP2 POP POP JUMP JUMPDEST PUSH1 0x0 PUSH2 0xD16 DUP3 PUSH2 0xE2A JUMP JUMPDEST SWAP2 POP PUSH2 0xD21 DUP4 PUSH2 0xE2A JUMP JUMPDEST SWAP3 POP DUP3 PUSH32 0xFFFFFFFFFFFFFFFFFFFFFFFFFFFFFFFFFFFFFFFFFFFFFFFFFFFFFFFFFFFFFFFF SUB DUP3 GT ISZERO PUSH2 0xD56 JUMPI PUSH2 0xD55 PUSH2 0xE6A JUMP JUMPDEST JUMPDEST DUP3 DUP3 ADD SWAP1 POP SWAP3 SWAP2 POP POP JUMP JUMPDEST PUSH1 0x0 PUSH2 0xD6C DUP3 PUSH2 0xE2A JUMP JUMPDEST SWAP2 POP PUSH2 0xD77 DUP4 PUSH2 0xE2A JUMP JUMPDEST SWAP3 POP DUP3 PUSH2 0xD87 JUMPI PUSH2 0xD86 PUSH2 0xE99 JUMP JUMPDEST JUMPDEST DUP3 DUP3 DIV SWAP1 POP SWAP3 SWAP2 POP POP JUMP JUMPDEST PUSH1 0x0 PUSH2 0xD9D DUP3 PUSH2 0xE2A JUMP JUMPDEST SWAP2 POP PUSH2 0xDA8 DUP4 PUSH2 0xE2A JUMP JUMPDEST SWAP3 POP DUP2 PUSH32 0xFFFFFFFFFFFFFFFFFFFFFFFFFFFFFFFFFFFFFFFFFFFFFFFFFFFFFFFFFFFFFFFF DIV DUP4 GT DUP3 ISZERO ISZERO AND ISZERO PUSH2 0xDE1 JUMPI PUSH2 0xDE0 PUSH2 0xE6A JUMP JUMPDEST JUMPDEST DUP3 DUP3 MUL SWAP1 POP SWAP3 SWAP2 POP POP JUMP JUMPDEST PUSH1 0x0 PUSH2 0xDF7 DUP3 PUSH2 0xE0A JUMP JUMPDEST SWAP1 POP SWAP2 SWAP1 POP JUMP JUMPDEST PUSH1 0x0 DUP2 ISZERO ISZERO SWAP1 POP SWAP2 SWAP1 POP JUMP JUMPDEST PUSH1 0x0 PUSH20 0xFFFFFFFFFFFFFFFFFFFFFFFFFFFFFFFFFFFFFFFF DUP3 AND SWAP1 POP SWAP2 SWAP1 POP JUMP JUMPDEST PUSH1 0x0 DUP2 SWAP1 POP SWAP2 SWAP1 POP JUMP JUMPDEST PUSH1 0x0 PUSH2 0xE3F DUP3 PUSH2 0xE46 JUMP JUMPDEST SWAP1 POP SWAP2 SWAP1 POP JUMP JUMPDEST PUSH1 0x0 PUSH2 0xE51 DUP3 PUSH2 0xE58 JUMP JUMPDEST SWAP1 POP SWAP2 SWAP1 POP JUMP JUMPDEST PUSH1 0x0 PUSH2 0xE63 DUP3 PUSH2 0xE0A JUMP JUMPDEST SWAP1 POP SWAP2 SWAP1 POP JUMP JUMPDEST PUSH32 0x4E487B7100000000000000000000000000000000000000000000000000000000 PUSH1 0x0 MSTORE PUSH1 0x11 PUSH1 0x4 MSTORE PUSH1 0x24 PUSH1 0x0 REVERT JUMPDEST PUSH32 0x4E487B7100000000000000000000000000000000000000000000000000000000 PUSH1 0x0 MSTORE PUSH1 0x12 PUSH1 0x4 MSTORE PUSH1 0x24 PUSH1 0x0 REVERT JUMPDEST PUSH1 0x0 DUP1 REVERT JUMPDEST PUSH32 0x496E76616C696420746F6B656E00000000000000000000000000000000000000 PUSH1 0x0 DUP3 ADD MSTORE POP JUMP JUMPDEST PUSH32 0x64792F6478202120792F78000000000000000000000000000000000000000000 PUSH1 0x0 DUP3 ADD MSTORE POP JUMP JUMPDEST PUSH32 0x616D6F756E742069732030000000000000000000000000000000000000000000 PUSH1 0x0 DUP3 ADD MSTORE POP JUMP JUMPDEST PUSH2 0xF51 DUP2 PUSH2 0xDEC JUMP JUMPDEST DUP2 EQ PUSH2 0xF5C JUMPI PUSH1 0x0 DUP1 REVERT JUMPDEST POP JUMP JUMPDEST PUSH2 0xF68 DUP2 PUSH2 0xDFE JUMP JUMPDEST DUP2 EQ PUSH2 0xF73 JUMPI PUSH1 0x0 DUP1 REVERT JUMPDEST POP JUMP JUMPDEST PUSH2 0xF7F DUP2 PUSH2 0xE2A JUMP JUMPDEST DUP2 EQ PUSH2 0xF8A JUMPI PUSH1 0x0 DUP1 REVERT JUMPDEST POP JUMP INVALID LOG2 PUSH5 0x6970667358 0x22 SLT KECCAK256 0xB6 0x4E 0xD0 0x49 SWAP10 EQ DIV LOG3 0xAC 0xD2 CODECOPY 0xC0 SWAP1 PUSH31 0x52F38BA91816C3EB3EA9AA670E2F7BA5F65464736F6C634300080700330000 "
				},
				"gasEstimates": {
					"creation": {
						"codeDepositCost": "807000",
						"executionCost": "infinite",
						"totalCost": "infinite"
					},
					"external": {
						"addLiquidity(uint256,uint256)": "infinite",
						"balanceOf(address)": "2814",
						"removeLiquidity()": "233",
						"reserve0()": "2474",
						"reserve1()": "2496",
						"sqrtUniswap(uint256)": "infinite",
						"swap(address,uint256)": "infinite",
						"token0()": "infinite",
						"token1()": "infinite",
						"totalSupply()": "2452"
					},
					"internal": {
						"_burn(address,uint256)": "infinite",
						"_min(uint256,uint256)": "infinite",
						"_mint(address,uint256)": "infinite",
						"_update(uint256,uint256)": "44241"
					}
				},
				"methodIdentifiers": {
					"addLiquidity(uint256,uint256)": "9cd441da",
					"balanceOf(address)": "70a08231",
					"removeLiquidity()": "67b9a286",
					"reserve0()": "443cb4bc",
					"reserve1()": "5a76f25e",
					"sqrtUniswap(uint256)": "bbd2b3b2",
					"swap(address,uint256)": "d004f0f7",
					"token0()": "0dfe1681",
					"token1()": "d21220a7",
					"totalSupply()": "18160ddd"
				}
			},
			"storageLayout": {
				"storage": [
					{
						"astId": 10,
						"contract": "SCP/CPAMM.sol:CPAMM",
						"label": "reserve0",
						"offset": 0,
						"slot": "0",
						"type": "t_uint256"
					},
					{
						"astId": 12,
						"contract": "SCP/CPAMM.sol:CPAMM",
						"label": "reserve1",
						"offset": 0,
						"slot": "1",
						"type": "t_uint256"
					},
					{
						"astId": 14,
						"contract": "SCP/CPAMM.sol:CPAMM",
						"label": "totalSupply",
						"offset": 0,
						"slot": "2",
						"type": "t_uint256"
					},
					{
						"astId": 18,
						"contract": "SCP/CPAMM.sol:CPAMM",
						"label": "balanceOf",
						"offset": 0,
						"slot": "3",
						"type": "t_mapping(t_address,t_uint256)"
					}
				],
				"types": {
					"t_address": {
						"encoding": "inplace",
						"label": "address",
						"numberOfBytes": "20"
					},
					"t_mapping(t_address,t_uint256)": {
						"encoding": "mapping",
						"key": "t_address",
						"label": "mapping(address => uint256)",
						"numberOfBytes": "32",
						"value": "t_uint256"
					},
					"t_uint256": {
						"encoding": "inplace",
						"label": "uint256",
						"numberOfBytes": "32"
					}
				}
			},
			"userdoc": {
				"kind": "user",
				"methods": {},
				"version": 1
			}
		}
	}
}