{
	"SCP/WETH.sol": {
		"WETH": {
			"abi": [
				{
					"inputs": [],
					"stateMutability": "nonpayable",
					"type": "constructor"
				},
				{
					"anonymous": false,
					"inputs": [
						{
							"indexed": true,
							"internalType": "address",
							"name": "owner",
							"type": "address"
						},
						{
							"indexed": true,
							"internalType": "address",
							"name": "spender",
							"type": "address"
						},
						{
							"indexed": false,
							"internalType": "uint256",
							"name": "amount",
							"type": "uint256"
						}
					],
					"name": "Approval",
					"type": "event"
				},
				{
					"anonymous": false,
					"inputs": [
						{
							"indexed": true,
							"internalType": "address",
							"name": "account",
							"type": "address"
						},
						{
							"indexed": false,
							"internalType": "uint256",
							"name": "amount",
							"type": "uint256"
						}
					],
					"name": "Deposit",
					"type": "event"
				},
				{
					"anonymous": false,
					"inputs": [
						{
							"indexed": true,
							"internalType": "address",
							"name": "from",
							"type": "address"
						},
						{
							"indexed": true,
							"internalType": "address",
							"name": "to",
							"type": "address"
						},
						{
							"indexed": false,
							"internalType": "uint256",
							"name": "amount",
							"type": "uint256"
						}
					],
					"name": "Transfer",
					"type": "event"
				},
				{
					"anonymous": false,
					"inputs": [
						{
							"indexed": true,
							"internalType": "address",
							"name": "account",
							"type": "address"
						},
						{
							"indexed": false,
							"internalType": "uint256",
							"name": "amount",
							"type": "uint256"
						}
					],
					"name": "Withdraw",
					"type": "event"
				},
				{
					"stateMutability": "payable",
					"type": "fallback"
				},
				{
					"inputs": [],
					"name": "DOMAIN_SEPARATOR",
					"outputs": [
						{
							"internalType": "bytes32",
							"name": "",
							"type": "bytes32"
						}
					],
					"stateMutability": "view",
					"type": "function"
				},
				{
					"inputs": [
						{
							"internalType": "address",
							"name": "",
							"type": "address"
						},
						{
							"internalType": "address",
							"name": "",
							"type": "address"
						}
					],
					"name": "allowance",
					"outputs": [
						{
							"internalType": "uint256",
							"name": "",
							"type": "uint256"
						}
					],
					"stateMutability": "view",
					"type": "function"
				},
				{
					"inputs": [
						{
							"internalType": "address",
							"name": "spender",
							"type": "address"
						},
						{
							"internalType": "uint256",
							"name": "amount",
							"type": "uint256"
						}
					],
					"name": "approve",
					"outputs": [
						{
							"internalType": "bool",
							"name": "",
							"type": "bool"
						}
					],
					"stateMutability": "nonpayable",
					"type": "function"
				},
				{
					"inputs": [
						{
							"internalType": "address",
							"name": "",
							"type": "address"
						}
					],
					"name": "balanceOf",
					"outputs": [
						{
							"internalType": "uint256",
							"name": "",
							"type": "uint256"
						}
					],
					"stateMutability": "view",
					"type": "function"
				},
				{
					"inputs": [],
					"name": "decimals",
					"outputs": [
						{
							"internalType": "uint8",
							"name": "",
							"type": "uint8"
						}
					],
					"stateMutability": "view",
					"type": "function"
				},
				{
					"inputs": [],
					"name": "deposit",
					"outputs": [],
					"stateMutability": "payable",
					"type": "function"
				},
				{
					"inputs": [],
					"name": "name",
					"outputs": [
						{
							"internalType": "string",
							"name": "",
							"type": "string"
						}
					],
					"stateMutability": "view",
					"type": "function"
				},
				{
					"inputs": [
						{
							"internalType": "address",
							"name": "",
							"type": "address"
						}
					],
					"name": "nonces",
					"outputs": [
						{
							"internalType": "uint256",
							"name": "",
							"type": "uint256"
						}
					],
					"stateMutability": "view",
					"type": "function"
				},
				{
					"inputs": [
						{
							"internalType": "address",
							"name": "owner",
							"type": "address"
						},
						{
							"internalType": "address",
							"name": "spender",
							"type": "address"
						},
						{
							"internalType": "uint256",
							"name": "value",
							"type": "uint256"
						},
						{
							"internalType": "uint256",
							"name": "deadline",
							"type": "uint256"
						},
						{
							"internalType": "uint8",
							"name": "v",
							"type": "uint8"
						},
						{
							"internalType": "bytes32",
							"name": "r",
							"type": "bytes32"
						},
						{
							"internalType": "bytes32",
							"name": "s",
							"type": "bytes32"
						}
					],
					"name": "permit",
					"outputs": [],
					"stateMutability": "nonpayable",
					"type": "function"
				},
				{
					"inputs": [],
					"name": "symbol",
					"outputs": [
						{
							"internalType": "string",
							"name": "",
							"type": "string"
						}
					],
					"stateMutability": "view",
					"type": "function"
				},
				{
					"inputs": [],
					"name": "totalSupply",
					"outputs": [
						{
							"internalType": "uint256",
							"name": "",
							"type": "uint256"
						}
					],
					"stateMutability": "view",
					"type": "function"
				},
				{
					"inputs": [
						{
							"internalType": "address",
							"name": "to",
							"type": "address"
						},
						{
							"internalType": "uint256",
							"name": "amount",
							"type": "uint256"
						}
					],
					"name": "transfer",
					"outputs": [
						{
							"internalType": "bool",
							"name": "",
							"type": "bool"
						}
					],
					"stateMutability": "nonpayable",
					"type": "function"
				},
				{
					"inputs": [
						{
							"internalType": "address",
							"name": "from",
							"type": "address"
						},
						{
							"internalType": "address",
							"name": "to",
							"type": "address"
						},
						{
							"internalType": "uint256",
							"name": "amount",
							"type": "uint256"
						}
					],
					"name": "transferFrom",
					"outputs": [
						{
							"internalType": "bool",
							"name": "",
							"type": "bool"
						}
					],
					"stateMutability": "nonpayable",
					"type": "function"
				},
				{
					"inputs": [
						{
							"internalType": "uint256",
							"name": "_amount",
							"type": "uint256"
						}
					],
					"name": "withdraw",
					"outputs": [],
					"stateMutability": "nonpayable",
					"type": "function"
				}
			],
			"devdoc": {
				"kind": "dev",
				"methods": {},
				"version": 1
			},
			"evm": {
				"assembly": "    /* \"SCP/WETH.sol\":111:689  contract WETH is ERC20 {... */\n  mstore(0x40, 0xe0)\n    /* \"SCP/WETH.sol\":256:307  constructor() ERC20(\"Wrapped Ether\", \"WETH\", 18) {} */\n  callvalue\n  dup1\n  iszero\n  tag_1\n  jumpi\n  0x00\n  dup1\n  revert\ntag_1:\n  pop\n    /* \"@rari-capital/solmate/src/tokens/ERC20.sol\":1978:2270  constructor(... */\n  mload(0x40)\n  dup1\n  0x40\n  add\n  0x40\n  mstore\n  dup1\n  0x0d\n  dup2\n  mstore\n  0x20\n  add\n  0x5772617070656420457468657200000000000000000000000000000000000000\n  dup2\n  mstore\n  pop\n  mload(0x40)\n  dup1\n  0x40\n  add\n  0x40\n  mstore\n  dup1\n  0x04\n  dup2\n  mstore\n  0x20\n  add\n  0x5745544800000000000000000000000000000000000000000000000000000000\n  dup2\n  mstore\n  pop\n    /* \"SCP/WETH.sol\":301:303  18 */\n  0x12\n    /* \"@rari-capital/solmate/src/tokens/ERC20.sol\":2098:2103  _name */\n  dup3\n    /* \"@rari-capital/solmate/src/tokens/ERC20.sol\":2091:2095  name */\n  0x00\n    /* \"@rari-capital/solmate/src/tokens/ERC20.sol\":2091:2103  name = _name */\n  swap1\n  dup1\n  mload\n  swap1\n  0x20\n  add\n  swap1\n  tag_5\n  swap3\n  swap2\n  swap1\n  tag_6\n  jump\t// in\ntag_5:\n  pop\n    /* \"@rari-capital/solmate/src/tokens/ERC20.sol\":2122:2129  _symbol */\n  dup2\n    /* \"@rari-capital/solmate/src/tokens/ERC20.sol\":2113:2119  symbol */\n  0x01\n    /* \"@rari-capital/solmate/src/tokens/ERC20.sol\":2113:2129  symbol = _symbol */\n  swap1\n  dup1\n  mload\n  swap1\n  0x20\n  add\n  swap1\n  tag_7\n  swap3\n  swap2\n  swap1\n  tag_6\n  jump\t// in\ntag_7:\n  pop\n    /* \"@rari-capital/solmate/src/tokens/ERC20.sol\":2150:2159  _decimals */\n  dup1\n    /* \"@rari-capital/solmate/src/tokens/ERC20.sol\":2139:2159  decimals = _decimals */\n  0xff\n  and\n  0x80\n  dup2\n  0xff\n  and\n  0xf8\n  shl\n  dup2\n  mstore\n  pop\n  pop\n    /* \"@rari-capital/solmate/src/tokens/ERC20.sol\":2189:2202  block.chainid */\n  chainid\n    /* \"@rari-capital/solmate/src/tokens/ERC20.sol\":2170:2202  INITIAL_CHAIN_ID = block.chainid */\n  0xa0\n  dup2\n  dup2\n  mstore\n  pop\n  pop\n    /* \"@rari-capital/solmate/src/tokens/ERC20.sol\":2239:2263  computeDomainSeparator() */\n  tag_8\n    /* \"@rari-capital/solmate/src/tokens/ERC20.sol\":2239:2261  computeDomainSeparator */\n  shl(0x20, tag_9)\n    /* \"@rari-capital/solmate/src/tokens/ERC20.sol\":2239:2263  computeDomainSeparator() */\n  0x20\n  shr\n  jump\t// in\ntag_8:\n    /* \"@rari-capital/solmate/src/tokens/ERC20.sol\":2212:2263  INITIAL_DOMAIN_SEPARATOR = computeDomainSeparator() */\n  0xc0\n  dup2\n  dup2\n  mstore\n  pop\n  pop\n    /* \"@rari-capital/solmate/src/tokens/ERC20.sol\":1978:2270  constructor(... */\n  pop\n  pop\n  pop\n    /* \"SCP/WETH.sol\":111:689  contract WETH is ERC20 {... */\n  jump(tag_11)\n    /* \"@rari-capital/solmate/src/tokens/ERC20.sol\":5507:5953  function computeDomainSeparator() internal view virtual returns (bytes32) {... */\ntag_9:\n    /* \"@rari-capital/solmate/src/tokens/ERC20.sol\":5572:5579  bytes32 */\n  0x00\n    /* \"@rari-capital/solmate/src/tokens/ERC20.sol\":5669:5764  keccak256(\"EIP712Domain(string name,string version,uint256 chainId,address verifyingContract)\") */\n  0x8b73c3c69bb8fe3d512ecc4cf759cc79239f7b179b0ffacaa9a75d522b39400f\n    /* \"@rari-capital/solmate/src/tokens/ERC20.sol\":5802:5806  name */\n  0x00\n    /* \"@rari-capital/solmate/src/tokens/ERC20.sol\":5786:5808  keccak256(bytes(name)) */\n  mload(0x40)\n  tag_13\n  swap2\n  swap1\n  tag_14\n  jump\t// in\ntag_13:\n  mload(0x40)\n  dup1\n  swap2\n  sub\n  swap1\n  keccak256\n    /* \"@rari-capital/solmate/src/tokens/ERC20.sol\":5830:5844  keccak256(\"1\") */\n  0xc89efdaa54c0f20c7adf612882df0950f5a951637e0307cdcb4c672f298b8bc6\n    /* \"@rari-capital/solmate/src/tokens/ERC20.sol\":5866:5879  block.chainid */\n  chainid\n    /* \"@rari-capital/solmate/src/tokens/ERC20.sol\":5909:5913  this */\n  address\n    /* \"@rari-capital/solmate/src/tokens/ERC20.sol\":5637:5932  abi.encode(... */\n  add(0x20, mload(0x40))\n  tag_15\n  swap6\n  swap5\n  swap4\n  swap3\n  swap2\n  swap1\n  tag_16\n  jump\t// in\ntag_15:\n  mload(0x40)\n  0x20\n  dup2\n  dup4\n  sub\n  sub\n  dup2\n  mstore\n  swap1\n  0x40\n  mstore\n    /* \"@rari-capital/solmate/src/tokens/ERC20.sol\":5610:5946  keccak256(... */\n  dup1\n  mload\n  swap1\n  0x20\n  add\n  keccak256\n    /* \"@rari-capital/solmate/src/tokens/ERC20.sol\":5591:5946  return... */\n  swap1\n  pop\n    /* \"@rari-capital/solmate/src/tokens/ERC20.sol\":5507:5953  function computeDomainSeparator() internal view virtual returns (bytes32) {... */\n  swap1\n  jump\t// out\n    /* \"SCP/WETH.sol\":111:689  contract WETH is ERC20 {... */\ntag_6:\n  dup3\n  dup1\n  sload\n  tag_17\n  swap1\n  tag_18\n  jump\t// in\ntag_17:\n  swap1\n  0x00\n  mstore\n  keccak256(0x00, 0x20)\n  swap1\n  0x1f\n  add\n  0x20\n  swap1\n  div\n  dup2\n  add\n  swap3\n  dup3\n  tag_20\n  jumpi\n  0x00\n  dup6\n  sstore\n  jump(tag_19)\ntag_20:\n  dup3\n  0x1f\n  lt\n  tag_21\n  jumpi\n  dup1\n  mload\n  not(0xff)\n  and\n  dup4\n  dup1\n  add\n  or\n  dup6\n  sstore\n  jump(tag_19)\ntag_21:\n  dup3\n  dup1\n  add\n  0x01\n  add\n  dup6\n  sstore\n  dup3\n  iszero\n  tag_19\n  jumpi\n  swap2\n  dup3\n  add\ntag_22:\n  dup3\n  dup2\n  gt\n  iszero\n  tag_23\n  jumpi\n  dup3\n  mload\n  dup3\n  sstore\n  swap2\n  0x20\n  add\n  swap2\n  swap1\n  0x01\n  add\n  swap1\n  jump(tag_22)\ntag_23:\ntag_19:\n  pop\n  swap1\n  pop\n  tag_24\n  swap2\n  swap1\n  tag_25\n  jump\t// in\ntag_24:\n  pop\n  swap1\n  jump\t// out\ntag_25:\ntag_26:\n  dup1\n  dup3\n  gt\n  iszero\n  tag_27\n  jumpi\n  0x00\n  dup2\n  0x00\n  swap1\n  sstore\n  pop\n  0x01\n  add\n  jump(tag_26)\ntag_27:\n  pop\n  swap1\n  jump\t// out\n    /* \"#utility.yul\":7:125   */\ntag_29:\n    /* \"#utility.yul\":94:118   */\n  tag_31\n    /* \"#utility.yul\":112:117   */\n  dup2\n    /* \"#utility.yul\":94:118   */\n  tag_32\n  jump\t// in\ntag_31:\n    /* \"#utility.yul\":89:92   */\n  dup3\n    /* \"#utility.yul\":82:119   */\n  mstore\n    /* \"#utility.yul\":7:125   */\n  pop\n  pop\n  jump\t// out\n    /* \"#utility.yul\":131:249   */\ntag_33:\n    /* \"#utility.yul\":218:242   */\n  tag_35\n    /* \"#utility.yul\":236:241   */\n  dup2\n    /* \"#utility.yul\":218:242   */\n  tag_36\n  jump\t// in\ntag_35:\n    /* \"#utility.yul\":213:216   */\n  dup3\n    /* \"#utility.yul\":206:243   */\n  mstore\n    /* \"#utility.yul\":131:249   */\n  pop\n  pop\n  jump\t// out\n    /* \"#utility.yul\":277:1126   */\ntag_37:\n    /* \"#utility.yul\":382:385   */\n  0x00\n    /* \"#utility.yul\":419:424   */\n  dup2\n    /* \"#utility.yul\":413:425   */\n  sload\n    /* \"#utility.yul\":448:484   */\n  tag_39\n    /* \"#utility.yul\":474:483   */\n  dup2\n    /* \"#utility.yul\":448:484   */\n  tag_18\n  jump\t// in\ntag_39:\n    /* \"#utility.yul\":500:588   */\n  tag_40\n    /* \"#utility.yul\":581:587   */\n  dup2\n    /* \"#utility.yul\":576:579   */\n  dup7\n    /* \"#utility.yul\":500:588   */\n  tag_41\n  jump\t// in\ntag_40:\n    /* \"#utility.yul\":493:588   */\n  swap5\n  pop\n    /* \"#utility.yul\":619:620   */\n  0x01\n    /* \"#utility.yul\":608:617   */\n  dup3\n    /* \"#utility.yul\":604:621   */\n  and\n    /* \"#utility.yul\":635:636   */\n  0x00\n    /* \"#utility.yul\":630:767   */\n  dup2\n  eq\n  tag_43\n  jumpi\n    /* \"#utility.yul\":781:782   */\n  0x01\n    /* \"#utility.yul\":776:1120   */\n  dup2\n  eq\n  tag_44\n  jumpi\n    /* \"#utility.yul\":597:1120   */\n  jump(tag_42)\n    /* \"#utility.yul\":630:767   */\ntag_43:\n    /* \"#utility.yul\":714:718   */\n  0xff\n    /* \"#utility.yul\":710:719   */\n  not\n    /* \"#utility.yul\":699:708   */\n  dup4\n    /* \"#utility.yul\":695:720   */\n  and\n    /* \"#utility.yul\":690:693   */\n  dup7\n    /* \"#utility.yul\":683:721   */\n  mstore\n    /* \"#utility.yul\":750:756   */\n  dup2\n    /* \"#utility.yul\":745:748   */\n  dup7\n    /* \"#utility.yul\":741:757   */\n  add\n    /* \"#utility.yul\":734:757   */\n  swap4\n  pop\n    /* \"#utility.yul\":630:767   */\n  jump(tag_42)\n    /* \"#utility.yul\":776:1120   */\ntag_44:\n    /* \"#utility.yul\":843:884   */\n  tag_45\n    /* \"#utility.yul\":878:883   */\n  dup6\n    /* \"#utility.yul\":843:884   */\n  tag_46\n  jump\t// in\ntag_45:\n    /* \"#utility.yul\":906:907   */\n  0x00\n    /* \"#utility.yul\":920:1074   */\ntag_47:\n    /* \"#utility.yul\":934:940   */\n  dup4\n    /* \"#utility.yul\":931:932   */\n  dup2\n    /* \"#utility.yul\":928:941   */\n  lt\n    /* \"#utility.yul\":920:1074   */\n  iszero\n  tag_49\n  jumpi\n    /* \"#utility.yul\":1008:1015   */\n  dup2\n    /* \"#utility.yul\":1002:1016   */\n  sload\n    /* \"#utility.yul\":998:999   */\n  dup2\n    /* \"#utility.yul\":993:996   */\n  dup10\n    /* \"#utility.yul\":989:1000   */\n  add\n    /* \"#utility.yul\":982:1017   */\n  mstore\n    /* \"#utility.yul\":1058:1059   */\n  0x01\n    /* \"#utility.yul\":1049:1056   */\n  dup3\n    /* \"#utility.yul\":1045:1060   */\n  add\n    /* \"#utility.yul\":1034:1060   */\n  swap2\n  pop\n    /* \"#utility.yul\":956:960   */\n  0x20\n    /* \"#utility.yul\":953:954   */\n  dup2\n    /* \"#utility.yul\":949:961   */\n  add\n    /* \"#utility.yul\":944:961   */\n  swap1\n  pop\n    /* \"#utility.yul\":920:1074   */\n  jump(tag_47)\ntag_49:\n    /* \"#utility.yul\":1103:1109   */\n  dup4\n    /* \"#utility.yul\":1098:1101   */\n  dup9\n    /* \"#utility.yul\":1094:1110   */\n  add\n    /* \"#utility.yul\":1087:1110   */\n  swap6\n  pop\n    /* \"#utility.yul\":783:1120   */\n  pop\n  pop\n    /* \"#utility.yul\":597:1120   */\ntag_42:\n  pop\n    /* \"#utility.yul\":386:1126   */\n  pop\n  pop\n    /* \"#utility.yul\":277:1126   */\n  swap3\n  swap2\n  pop\n  pop\n  jump\t// out\n    /* \"#utility.yul\":1132:1250   */\ntag_50:\n    /* \"#utility.yul\":1219:1243   */\n  tag_52\n    /* \"#utility.yul\":1237:1242   */\n  dup2\n    /* \"#utility.yul\":1219:1243   */\n  tag_53\n  jump\t// in\ntag_52:\n    /* \"#utility.yul\":1214:1217   */\n  dup3\n    /* \"#utility.yul\":1207:1244   */\n  mstore\n    /* \"#utility.yul\":1132:1250   */\n  pop\n  pop\n  jump\t// out\n    /* \"#utility.yul\":1256:1529   */\ntag_14:\n    /* \"#utility.yul\":1387:1390   */\n  0x00\n    /* \"#utility.yul\":1409:1503   */\n  tag_55\n    /* \"#utility.yul\":1499:1502   */\n  dup3\n    /* \"#utility.yul\":1490:1496   */\n  dup5\n    /* \"#utility.yul\":1409:1503   */\n  tag_37\n  jump\t// in\ntag_55:\n    /* \"#utility.yul\":1402:1503   */\n  swap2\n  pop\n    /* \"#utility.yul\":1520:1523   */\n  dup2\n    /* \"#utility.yul\":1513:1523   */\n  swap1\n  pop\n    /* \"#utility.yul\":1256:1529   */\n  swap3\n  swap2\n  pop\n  pop\n  jump\t// out\n    /* \"#utility.yul\":1535:2199   */\ntag_16:\n    /* \"#utility.yul\":1740:1744   */\n  0x00\n    /* \"#utility.yul\":1778:1781   */\n  0xa0\n    /* \"#utility.yul\":1767:1776   */\n  dup3\n    /* \"#utility.yul\":1763:1782   */\n  add\n    /* \"#utility.yul\":1755:1782   */\n  swap1\n  pop\n    /* \"#utility.yul\":1792:1863   */\n  tag_57\n    /* \"#utility.yul\":1860:1861   */\n  0x00\n    /* \"#utility.yul\":1849:1858   */\n  dup4\n    /* \"#utility.yul\":1845:1862   */\n  add\n    /* \"#utility.yul\":1836:1842   */\n  dup9\n    /* \"#utility.yul\":1792:1863   */\n  tag_33\n  jump\t// in\ntag_57:\n    /* \"#utility.yul\":1873:1945   */\n  tag_58\n    /* \"#utility.yul\":1941:1943   */\n  0x20\n    /* \"#utility.yul\":1930:1939   */\n  dup4\n    /* \"#utility.yul\":1926:1944   */\n  add\n    /* \"#utility.yul\":1917:1923   */\n  dup8\n    /* \"#utility.yul\":1873:1945   */\n  tag_33\n  jump\t// in\ntag_58:\n    /* \"#utility.yul\":1955:2027   */\n  tag_59\n    /* \"#utility.yul\":2023:2025   */\n  0x40\n    /* \"#utility.yul\":2012:2021   */\n  dup4\n    /* \"#utility.yul\":2008:2026   */\n  add\n    /* \"#utility.yul\":1999:2005   */\n  dup7\n    /* \"#utility.yul\":1955:2027   */\n  tag_33\n  jump\t// in\ntag_59:\n    /* \"#utility.yul\":2037:2109   */\n  tag_60\n    /* \"#utility.yul\":2105:2107   */\n  0x60\n    /* \"#utility.yul\":2094:2103   */\n  dup4\n    /* \"#utility.yul\":2090:2108   */\n  add\n    /* \"#utility.yul\":2081:2087   */\n  dup6\n    /* \"#utility.yul\":2037:2109   */\n  tag_50\n  jump\t// in\ntag_60:\n    /* \"#utility.yul\":2119:2192   */\n  tag_61\n    /* \"#utility.yul\":2187:2190   */\n  0x80\n    /* \"#utility.yul\":2176:2185   */\n  dup4\n    /* \"#utility.yul\":2172:2191   */\n  add\n    /* \"#utility.yul\":2163:2169   */\n  dup5\n    /* \"#utility.yul\":2119:2192   */\n  tag_29\n  jump\t// in\ntag_61:\n    /* \"#utility.yul\":1535:2199   */\n  swap7\n  swap6\n  pop\n  pop\n  pop\n  pop\n  pop\n  pop\n  jump\t// out\n    /* \"#utility.yul\":2205:2349   */\ntag_46:\n    /* \"#utility.yul\":2257:2261   */\n  0x00\n    /* \"#utility.yul\":2280:2283   */\n  dup2\n    /* \"#utility.yul\":2272:2283   */\n  swap1\n  pop\n    /* \"#utility.yul\":2303:2306   */\n  dup2\n    /* \"#utility.yul\":2300:2301   */\n  0x00\n    /* \"#utility.yul\":2293:2307   */\n  mstore\n    /* \"#utility.yul\":2337:2341   */\n  0x20\n    /* \"#utility.yul\":2334:2335   */\n  0x00\n    /* \"#utility.yul\":2324:2342   */\n  keccak256\n    /* \"#utility.yul\":2316:2342   */\n  swap1\n  pop\n    /* \"#utility.yul\":2205:2349   */\n  swap2\n  swap1\n  pop\n  jump\t// out\n    /* \"#utility.yul\":2355:2502   */\ntag_41:\n    /* \"#utility.yul\":2456:2467   */\n  0x00\n    /* \"#utility.yul\":2493:2496   */\n  dup2\n    /* \"#utility.yul\":2478:2496   */\n  swap1\n  pop\n    /* \"#utility.yul\":2355:2502   */\n  swap3\n  swap2\n  pop\n  pop\n  jump\t// out\n    /* \"#utility.yul\":2508:2604   */\ntag_32:\n    /* \"#utility.yul\":2545:2552   */\n  0x00\n    /* \"#utility.yul\":2574:2598   */\n  tag_65\n    /* \"#utility.yul\":2592:2597   */\n  dup3\n    /* \"#utility.yul\":2574:2598   */\n  tag_66\n  jump\t// in\ntag_65:\n    /* \"#utility.yul\":2563:2598   */\n  swap1\n  pop\n    /* \"#utility.yul\":2508:2604   */\n  swap2\n  swap1\n  pop\n  jump\t// out\n    /* \"#utility.yul\":2610:2687   */\ntag_36:\n    /* \"#utility.yul\":2647:2654   */\n  0x00\n    /* \"#utility.yul\":2676:2681   */\n  dup2\n    /* \"#utility.yul\":2665:2681   */\n  swap1\n  pop\n    /* \"#utility.yul\":2610:2687   */\n  swap2\n  swap1\n  pop\n  jump\t// out\n    /* \"#utility.yul\":2693:2819   */\ntag_66:\n    /* \"#utility.yul\":2730:2737   */\n  0x00\n    /* \"#utility.yul\":2770:2812   */\n  0xffffffffffffffffffffffffffffffffffffffff\n    /* \"#utility.yul\":2763:2768   */\n  dup3\n    /* \"#utility.yul\":2759:2813   */\n  and\n    /* \"#utility.yul\":2748:2813   */\n  swap1\n  pop\n    /* \"#utility.yul\":2693:2819   */\n  swap2\n  swap1\n  pop\n  jump\t// out\n    /* \"#utility.yul\":2825:2902   */\ntag_53:\n    /* \"#utility.yul\":2862:2869   */\n  0x00\n    /* \"#utility.yul\":2891:2896   */\n  dup2\n    /* \"#utility.yul\":2880:2896   */\n  swap1\n  pop\n    /* \"#utility.yul\":2825:2902   */\n  swap2\n  swap1\n  pop\n  jump\t// out\n    /* \"#utility.yul\":2908:3228   */\ntag_18:\n    /* \"#utility.yul\":2952:2958   */\n  0x00\n    /* \"#utility.yul\":2989:2990   */\n  0x02\n    /* \"#utility.yul\":2983:2987   */\n  dup3\n    /* \"#utility.yul\":2979:2991   */\n  div\n    /* \"#utility.yul\":2969:2991   */\n  swap1\n  pop\n    /* \"#utility.yul\":3036:3037   */\n  0x01\n    /* \"#utility.yul\":3030:3034   */\n  dup3\n    /* \"#utility.yul\":3026:3038   */\n  and\n    /* \"#utility.yul\":3057:3075   */\n  dup1\n    /* \"#utility.yul\":3047:3128   */\n  tag_71\n  jumpi\n    /* \"#utility.yul\":3113:3117   */\n  0x7f\n    /* \"#utility.yul\":3105:3111   */\n  dup3\n    /* \"#utility.yul\":3101:3118   */\n  and\n    /* \"#utility.yul\":3091:3118   */\n  swap2\n  pop\n    /* \"#utility.yul\":3047:3128   */\ntag_71:\n    /* \"#utility.yul\":3175:3177   */\n  0x20\n    /* \"#utility.yul\":3167:3173   */\n  dup3\n    /* \"#utility.yul\":3164:3178   */\n  lt\n    /* \"#utility.yul\":3144:3162   */\n  dup2\n    /* \"#utility.yul\":3141:3179   */\n  eq\n    /* \"#utility.yul\":3138:3222   */\n  iszero\n  tag_72\n  jumpi\n    /* \"#utility.yul\":3194:3212   */\n  tag_73\n  tag_74\n  jump\t// in\ntag_73:\n    /* \"#utility.yul\":3138:3222   */\ntag_72:\n    /* \"#utility.yul\":2959:3228   */\n  pop\n    /* \"#utility.yul\":2908:3228   */\n  swap2\n  swap1\n  pop\n  jump\t// out\n    /* \"#utility.yul\":3234:3414   */\ntag_74:\n    /* \"#utility.yul\":3282:3359   */\n  0x4e487b7100000000000000000000000000000000000000000000000000000000\n    /* \"#utility.yul\":3279:3280   */\n  0x00\n    /* \"#utility.yul\":3272:3360   */\n  mstore\n    /* \"#utility.yul\":3379:3383   */\n  0x22\n    /* \"#utility.yul\":3376:3377   */\n  0x04\n    /* \"#utility.yul\":3369:3384   */\n  mstore\n    /* \"#utility.yul\":3403:3407   */\n  0x24\n    /* \"#utility.yul\":3400:3401   */\n  0x00\n    /* \"#utility.yul\":3393:3408   */\n  revert\n    /* \"SCP/WETH.sol\":111:689  contract WETH is ERC20 {... */\ntag_11:\n  shr(0xf8, mload(0x80))\n  mload(0xa0)\n  mload(0xc0)\n  codecopy(0x00, dataOffset(sub_0), dataSize(sub_0))\n  0x00\n  assignImmutable(\"0x880de8116b3dfac28e9ff528a9fef1d1e0a51449c1addce011ffec1f302992b6\")\n  0x00\n  assignImmutable(\"0xd67d834462ca31eaef1f30157e31659f60355143b7441e6fc7d9eae1fa79f3f8\")\n  0x00\n  assignImmutable(\"0x6585423cb6456b1d4957f6454d2f004f0c4f58d53a00082412d5c2ef4b1b31fd\")\n  return(0x00, dataSize(sub_0))\nstop\n\nsub_0: assembly {\n        /* \"SCP/WETH.sol\":111:689  contract WETH is ERC20 {... */\n      mstore(0x40, 0x80)\n      jumpi(tag_1, lt(calldatasize, 0x04))\n      shr(0xe0, calldataload(0x00))\n      dup1\n      0x70a08231\n      gt\n      tag_17\n      jumpi\n      dup1\n      0xa9059cbb\n      gt\n      tag_18\n      jumpi\n      dup1\n      0xa9059cbb\n      eq\n      tag_13\n      jumpi\n      dup1\n      0xd0e30db0\n      eq\n      tag_14\n      jumpi\n      dup1\n      0xd505accf\n      eq\n      tag_15\n      jumpi\n      dup1\n      0xdd62ed3e\n      eq\n      tag_16\n      jumpi\n      jump(tag_2)\n    tag_18:\n      dup1\n      0x70a08231\n      eq\n      tag_10\n      jumpi\n      dup1\n      0x7ecebe00\n      eq\n      tag_11\n      jumpi\n      dup1\n      0x95d89b41\n      eq\n      tag_12\n      jumpi\n      jump(tag_2)\n    tag_17:\n      dup1\n      0x23b872dd\n      gt\n      tag_19\n      jumpi\n      dup1\n      0x23b872dd\n      eq\n      tag_6\n      jumpi\n      dup1\n      0x2e1a7d4d\n      eq\n      tag_7\n      jumpi\n      dup1\n      0x313ce567\n      eq\n      tag_8\n      jumpi\n      dup1\n      0x3644e515\n      eq\n      tag_9\n      jumpi\n      jump(tag_2)\n    tag_19:\n      dup1\n      0x06fdde03\n      eq\n      tag_3\n      jumpi\n      dup1\n      0x095ea7b3\n      eq\n      tag_4\n      jumpi\n      dup1\n      0x18160ddd\n      eq\n      tag_5\n      jumpi\n      jump(tag_2)\n    tag_1:\n    tag_2:\n        /* \"SCP/WETH.sol\":351:360  deposit() */\n      tag_22\n        /* \"SCP/WETH.sol\":351:358  deposit */\n      tag_23\n        /* \"SCP/WETH.sol\":351:360  deposit() */\n      jump\t// in\n    tag_22:\n        /* \"SCP/WETH.sol\":111:689  contract WETH is ERC20 {... */\n      stop\n        /* \"@rari-capital/solmate/src/tokens/ERC20.sol\":1028:1046  string public name */\n    tag_3:\n      callvalue\n      dup1\n      iszero\n      tag_24\n      jumpi\n      0x00\n      dup1\n      revert\n    tag_24:\n      pop\n      tag_25\n      tag_26\n      jump\t// in\n    tag_25:\n      mload(0x40)\n      tag_27\n      swap2\n      swap1\n      tag_28\n      jump\t// in\n    tag_27:\n      mload(0x40)\n      dup1\n      swap2\n      sub\n      swap1\n      return\n        /* \"@rari-capital/solmate/src/tokens/ERC20.sol\":2458:2669  function approve(address spender, uint256 amount) public virtual returns (bool) {... */\n    tag_4:\n      callvalue\n      dup1\n      iszero\n      tag_29\n      jumpi\n      0x00\n      dup1\n      revert\n    tag_29:\n      pop\n      tag_30\n      0x04\n      dup1\n      calldatasize\n      sub\n      dup2\n      add\n      swap1\n      tag_31\n      swap2\n      swap1\n      tag_32\n      jump\t// in\n    tag_31:\n      tag_33\n      jump\t// in\n    tag_30:\n      mload(0x40)\n      tag_34\n      swap2\n      swap1\n      tag_35\n      jump\t// in\n    tag_34:\n      mload(0x40)\n      dup1\n      swap2\n      sub\n      swap1\n      return\n        /* \"@rari-capital/solmate/src/tokens/ERC20.sol\":1301:1327  uint256 public totalSupply */\n    tag_5:\n      callvalue\n      dup1\n      iszero\n      tag_36\n      jumpi\n      0x00\n      dup1\n      revert\n    tag_36:\n      pop\n      tag_37\n      tag_38\n      jump\t// in\n    tag_37:\n      mload(0x40)\n      tag_39\n      swap2\n      swap1\n      tag_40\n      jump\t// in\n    tag_39:\n      mload(0x40)\n      dup1\n      swap2\n      sub\n      swap1\n      return\n        /* \"@rari-capital/solmate/src/tokens/ERC20.sol\":3054:3646  function transferFrom(... */\n    tag_6:\n      callvalue\n      dup1\n      iszero\n      tag_41\n      jumpi\n      0x00\n      dup1\n      revert\n    tag_41:\n      pop\n      tag_42\n      0x04\n      dup1\n      calldatasize\n      sub\n      dup2\n      add\n      swap1\n      tag_43\n      swap2\n      swap1\n      tag_44\n      jump\t// in\n    tag_43:\n      tag_45\n      jump\t// in\n    tag_42:\n      mload(0x40)\n      tag_46\n      swap2\n      swap1\n      tag_35\n      jump\t// in\n    tag_46:\n      mload(0x40)\n      dup1\n      swap2\n      sub\n      swap1\n      return\n        /* \"SCP/WETH.sol\":503:687  function withdraw(uint _amount) external {... */\n    tag_7:\n      callvalue\n      dup1\n      iszero\n      tag_47\n      jumpi\n      0x00\n      dup1\n      revert\n    tag_47:\n      pop\n      tag_48\n      0x04\n      dup1\n      calldatasize\n      sub\n      dup2\n      add\n      swap1\n      tag_49\n      swap2\n      swap1\n      tag_50\n      jump\t// in\n    tag_49:\n      tag_51\n      jump\t// in\n    tag_48:\n      stop\n        /* \"@rari-capital/solmate/src/tokens/ERC20.sol\":1080:1111  uint8 public immutable decimals */\n    tag_8:\n      callvalue\n      dup1\n      iszero\n      tag_52\n      jumpi\n      0x00\n      dup1\n      revert\n    tag_52:\n      pop\n      tag_53\n      tag_54\n      jump\t// in\n    tag_53:\n      mload(0x40)\n      tag_55\n      swap2\n      swap1\n      tag_56\n      jump\t// in\n    tag_55:\n      mload(0x40)\n      dup1\n      swap2\n      sub\n      swap1\n      return\n        /* \"@rari-capital/solmate/src/tokens/ERC20.sol\":5324:5501  function DOMAIN_SEPARATOR() public view virtual returns (bytes32) {... */\n    tag_9:\n      callvalue\n      dup1\n      iszero\n      tag_57\n      jumpi\n      0x00\n      dup1\n      revert\n    tag_57:\n      pop\n      tag_58\n      tag_59\n      jump\t// in\n    tag_58:\n      mload(0x40)\n      tag_60\n      swap2\n      swap1\n      tag_61\n      jump\t// in\n    tag_60:\n      mload(0x40)\n      dup1\n      swap2\n      sub\n      swap1\n      return\n        /* \"@rari-capital/solmate/src/tokens/ERC20.sol\":1334:1378  mapping(address => uint256) public balanceOf */\n    tag_10:\n      callvalue\n      dup1\n      iszero\n      tag_62\n      jumpi\n      0x00\n      dup1\n      revert\n    tag_62:\n      pop\n      tag_63\n      0x04\n      dup1\n      calldatasize\n      sub\n      dup2\n      add\n      swap1\n      tag_64\n      swap2\n      swap1\n      tag_65\n      jump\t// in\n    tag_64:\n      tag_66\n      jump\t// in\n    tag_63:\n      mload(0x40)\n      tag_67\n      swap2\n      swap1\n      tag_40\n      jump\t// in\n    tag_67:\n      mload(0x40)\n      dup1\n      swap2\n      sub\n      swap1\n      return\n        /* \"@rari-capital/solmate/src/tokens/ERC20.sol\":1748:1789  mapping(address => uint256) public nonces */\n    tag_11:\n      callvalue\n      dup1\n      iszero\n      tag_68\n      jumpi\n      0x00\n      dup1\n      revert\n    tag_68:\n      pop\n      tag_69\n      0x04\n      dup1\n      calldatasize\n      sub\n      dup2\n      add\n      swap1\n      tag_70\n      swap2\n      swap1\n      tag_65\n      jump\t// in\n    tag_70:\n      tag_71\n      jump\t// in\n    tag_69:\n      mload(0x40)\n      tag_72\n      swap2\n      swap1\n      tag_40\n      jump\t// in\n    tag_72:\n      mload(0x40)\n      dup1\n      swap2\n      sub\n      swap1\n      return\n        /* \"@rari-capital/solmate/src/tokens/ERC20.sol\":1053:1073  string public symbol */\n    tag_12:\n      callvalue\n      dup1\n      iszero\n      tag_73\n      jumpi\n      0x00\n      dup1\n      revert\n    tag_73:\n      pop\n      tag_74\n      tag_75\n      jump\t// in\n    tag_74:\n      mload(0x40)\n      tag_76\n      swap2\n      swap1\n      tag_28\n      jump\t// in\n    tag_76:\n      mload(0x40)\n      dup1\n      swap2\n      sub\n      swap1\n      return\n        /* \"@rari-capital/solmate/src/tokens/ERC20.sol\":2675:3048  function transfer(address to, uint256 amount) public virtual returns (bool) {... */\n    tag_13:\n      callvalue\n      dup1\n      iszero\n      tag_77\n      jumpi\n      0x00\n      dup1\n      revert\n    tag_77:\n      pop\n      tag_78\n      0x04\n      dup1\n      calldatasize\n      sub\n      dup2\n      add\n      swap1\n      tag_79\n      swap2\n      swap1\n      tag_32\n      jump\t// in\n    tag_79:\n      tag_80\n      jump\t// in\n    tag_78:\n      mload(0x40)\n      tag_81\n      swap2\n      swap1\n      tag_35\n      jump\t// in\n    tag_81:\n      mload(0x40)\n      dup1\n      swap2\n      sub\n      swap1\n      return\n        /* \"SCP/WETH.sol\":373:497  function deposit() public payable {... */\n    tag_14:\n      tag_82\n      tag_23\n      jump\t// in\n    tag_82:\n      stop\n        /* \"@rari-capital/solmate/src/tokens/ERC20.sol\":3835:5318  function permit(... */\n    tag_15:\n      callvalue\n      dup1\n      iszero\n      tag_83\n      jumpi\n      0x00\n      dup1\n      revert\n    tag_83:\n      pop\n      tag_84\n      0x04\n      dup1\n      calldatasize\n      sub\n      dup2\n      add\n      swap1\n      tag_85\n      swap2\n      swap1\n      tag_86\n      jump\t// in\n    tag_85:\n      tag_87\n      jump\t// in\n    tag_84:\n      stop\n        /* \"@rari-capital/solmate/src/tokens/ERC20.sol\":1385:1449  mapping(address => mapping(address => uint256)) public allowance */\n    tag_16:\n      callvalue\n      dup1\n      iszero\n      tag_88\n      jumpi\n      0x00\n      dup1\n      revert\n    tag_88:\n      pop\n      tag_89\n      0x04\n      dup1\n      calldatasize\n      sub\n      dup2\n      add\n      swap1\n      tag_90\n      swap2\n      swap1\n      tag_91\n      jump\t// in\n    tag_90:\n      tag_92\n      jump\t// in\n    tag_89:\n      mload(0x40)\n      tag_93\n      swap2\n      swap1\n      tag_40\n      jump\t// in\n    tag_93:\n      mload(0x40)\n      dup1\n      swap2\n      sub\n      swap1\n      return\n        /* \"SCP/WETH.sol\":373:497  function deposit() public payable {... */\n    tag_23:\n        /* \"SCP/WETH.sol\":417:445  _mint(msg.sender, msg.value) */\n      tag_95\n        /* \"SCP/WETH.sol\":423:433  msg.sender */\n      caller\n        /* \"SCP/WETH.sol\":435:444  msg.value */\n      callvalue\n        /* \"SCP/WETH.sol\":417:422  _mint */\n      tag_96\n        /* \"SCP/WETH.sol\":417:445  _mint(msg.sender, msg.value) */\n      jump\t// in\n    tag_95:\n        /* \"SCP/WETH.sol\":468:478  msg.sender */\n      caller\n        /* \"SCP/WETH.sol\":460:490  Deposit(msg.sender, msg.value) */\n      0xffffffffffffffffffffffffffffffffffffffff\n      and\n      0xe1fffcc4923d04b559f4d29a8bfc6cda04eb5b0d3c460751c2402c5c5cc9109c\n        /* \"SCP/WETH.sol\":480:489  msg.value */\n      callvalue\n        /* \"SCP/WETH.sol\":460:490  Deposit(msg.sender, msg.value) */\n      mload(0x40)\n      tag_97\n      swap2\n      swap1\n      tag_40\n      jump\t// in\n    tag_97:\n      mload(0x40)\n      dup1\n      swap2\n      sub\n      swap1\n      log2\n        /* \"SCP/WETH.sol\":373:497  function deposit() public payable {... */\n      jump\t// out\n        /* \"@rari-capital/solmate/src/tokens/ERC20.sol\":1028:1046  string public name */\n    tag_26:\n      0x00\n      dup1\n      sload\n      tag_98\n      swap1\n      tag_99\n      jump\t// in\n    tag_98:\n      dup1\n      0x1f\n      add\n      0x20\n      dup1\n      swap2\n      div\n      mul\n      0x20\n      add\n      mload(0x40)\n      swap1\n      dup2\n      add\n      0x40\n      mstore\n      dup1\n      swap3\n      swap2\n      swap1\n      dup2\n      dup2\n      mstore\n      0x20\n      add\n      dup3\n      dup1\n      sload\n      tag_100\n      swap1\n      tag_99\n      jump\t// in\n    tag_100:\n      dup1\n      iszero\n      tag_101\n      jumpi\n      dup1\n      0x1f\n      lt\n      tag_102\n      jumpi\n      0x0100\n      dup1\n      dup4\n      sload\n      div\n      mul\n      dup4\n      mstore\n      swap2\n      0x20\n      add\n      swap2\n      jump(tag_101)\n    tag_102:\n      dup3\n      add\n      swap2\n      swap1\n      0x00\n      mstore\n      keccak256(0x00, 0x20)\n      swap1\n    tag_103:\n      dup2\n      sload\n      dup2\n      mstore\n      swap1\n      0x01\n      add\n      swap1\n      0x20\n      add\n      dup1\n      dup4\n      gt\n      tag_103\n      jumpi\n      dup3\n      swap1\n      sub\n      0x1f\n      and\n      dup3\n      add\n      swap2\n    tag_101:\n      pop\n      pop\n      pop\n      pop\n      pop\n      dup2\n      jump\t// out\n        /* \"@rari-capital/solmate/src/tokens/ERC20.sol\":2458:2669  function approve(address spender, uint256 amount) public virtual returns (bool) {... */\n    tag_33:\n        /* \"@rari-capital/solmate/src/tokens/ERC20.sol\":2532:2536  bool */\n      0x00\n        /* \"@rari-capital/solmate/src/tokens/ERC20.sol\":2581:2587  amount */\n      dup2\n        /* \"@rari-capital/solmate/src/tokens/ERC20.sol\":2548:2557  allowance */\n      0x04\n        /* \"@rari-capital/solmate/src/tokens/ERC20.sol\":2548:2569  allowance[msg.sender] */\n      0x00\n        /* \"@rari-capital/solmate/src/tokens/ERC20.sol\":2558:2568  msg.sender */\n      caller\n        /* \"@rari-capital/solmate/src/tokens/ERC20.sol\":2548:2569  allowance[msg.sender] */\n      0xffffffffffffffffffffffffffffffffffffffff\n      and\n      0xffffffffffffffffffffffffffffffffffffffff\n      and\n      dup2\n      mstore\n      0x20\n      add\n      swap1\n      dup2\n      mstore\n      0x20\n      add\n      0x00\n      keccak256\n        /* \"@rari-capital/solmate/src/tokens/ERC20.sol\":2548:2578  allowance[msg.sender][spender] */\n      0x00\n        /* \"@rari-capital/solmate/src/tokens/ERC20.sol\":2570:2577  spender */\n      dup6\n        /* \"@rari-capital/solmate/src/tokens/ERC20.sol\":2548:2578  allowance[msg.sender][spender] */\n      0xffffffffffffffffffffffffffffffffffffffff\n      and\n      0xffffffffffffffffffffffffffffffffffffffff\n      and\n      dup2\n      mstore\n      0x20\n      add\n      swap1\n      dup2\n      mstore\n      0x20\n      add\n      0x00\n      keccak256\n        /* \"@rari-capital/solmate/src/tokens/ERC20.sol\":2548:2587  allowance[msg.sender][spender] = amount */\n      dup2\n      swap1\n      sstore\n      pop\n        /* \"@rari-capital/solmate/src/tokens/ERC20.sol\":2624:2631  spender */\n      dup3\n        /* \"@rari-capital/solmate/src/tokens/ERC20.sol\":2603:2640  Approval(msg.sender, spender, amount) */\n      0xffffffffffffffffffffffffffffffffffffffff\n      and\n        /* \"@rari-capital/solmate/src/tokens/ERC20.sol\":2612:2622  msg.sender */\n      caller\n        /* \"@rari-capital/solmate/src/tokens/ERC20.sol\":2603:2640  Approval(msg.sender, spender, amount) */\n      0xffffffffffffffffffffffffffffffffffffffff\n      and\n      0x8c5be1e5ebec7d5bd14f71427d1e84f3dd0314c0f7b2291e5b200ac8c7c3b925\n        /* \"@rari-capital/solmate/src/tokens/ERC20.sol\":2633:2639  amount */\n      dup5\n        /* \"@rari-capital/solmate/src/tokens/ERC20.sol\":2603:2640  Approval(msg.sender, spender, amount) */\n      mload(0x40)\n      tag_105\n      swap2\n      swap1\n      tag_40\n      jump\t// in\n    tag_105:\n      mload(0x40)\n      dup1\n      swap2\n      sub\n      swap1\n      log3\n        /* \"@rari-capital/solmate/src/tokens/ERC20.sol\":2658:2662  true */\n      0x01\n        /* \"@rari-capital/solmate/src/tokens/ERC20.sol\":2651:2662  return true */\n      swap1\n      pop\n        /* \"@rari-capital/solmate/src/tokens/ERC20.sol\":2458:2669  function approve(address spender, uint256 amount) public virtual returns (bool) {... */\n      swap3\n      swap2\n      pop\n      pop\n      jump\t// out\n        /* \"@rari-capital/solmate/src/tokens/ERC20.sol\":1301:1327  uint256 public totalSupply */\n    tag_38:\n      sload(0x02)\n      dup2\n      jump\t// out\n        /* \"@rari-capital/solmate/src/tokens/ERC20.sol\":3054:3646  function transferFrom(... */\n    tag_45:\n        /* \"@rari-capital/solmate/src/tokens/ERC20.sol\":3172:3176  bool */\n      0x00\n        /* \"@rari-capital/solmate/src/tokens/ERC20.sol\":3188:3203  uint256 allowed */\n      dup1\n        /* \"@rari-capital/solmate/src/tokens/ERC20.sol\":3206:3215  allowance */\n      0x04\n        /* \"@rari-capital/solmate/src/tokens/ERC20.sol\":3206:3221  allowance[from] */\n      0x00\n        /* \"@rari-capital/solmate/src/tokens/ERC20.sol\":3216:3220  from */\n      dup7\n        /* \"@rari-capital/solmate/src/tokens/ERC20.sol\":3206:3221  allowance[from] */\n      0xffffffffffffffffffffffffffffffffffffffff\n      and\n      0xffffffffffffffffffffffffffffffffffffffff\n      and\n      dup2\n      mstore\n      0x20\n      add\n      swap1\n      dup2\n      mstore\n      0x20\n      add\n      0x00\n      keccak256\n        /* \"@rari-capital/solmate/src/tokens/ERC20.sol\":3206:3233  allowance[from][msg.sender] */\n      0x00\n        /* \"@rari-capital/solmate/src/tokens/ERC20.sol\":3222:3232  msg.sender */\n      caller\n        /* \"@rari-capital/solmate/src/tokens/ERC20.sol\":3206:3233  allowance[from][msg.sender] */\n      0xffffffffffffffffffffffffffffffffffffffff\n      and\n      0xffffffffffffffffffffffffffffffffffffffff\n      and\n      dup2\n      mstore\n      0x20\n      add\n      swap1\n      dup2\n      mstore\n      0x20\n      add\n      0x00\n      keccak256\n      sload\n        /* \"@rari-capital/solmate/src/tokens/ERC20.sol\":3188:3233  uint256 allowed = allowance[from][msg.sender] */\n      swap1\n      pop\n        /* \"@rari-capital/solmate/src/tokens/ERC20.sol\":3295:3312  type(uint256).max */\n      0xffffffffffffffffffffffffffffffffffffffffffffffffffffffffffffffff\n        /* \"@rari-capital/solmate/src/tokens/ERC20.sol\":3284:3291  allowed */\n      dup2\n        /* \"@rari-capital/solmate/src/tokens/ERC20.sol\":3284:3312  allowed != type(uint256).max */\n      eq\n        /* \"@rari-capital/solmate/src/tokens/ERC20.sol\":3280:3360  if (allowed != type(uint256).max) allowance[from][msg.sender] = allowed - amount */\n      tag_107\n      jumpi\n        /* \"@rari-capital/solmate/src/tokens/ERC20.sol\":3354:3360  amount */\n      dup3\n        /* \"@rari-capital/solmate/src/tokens/ERC20.sol\":3344:3351  allowed */\n      dup2\n        /* \"@rari-capital/solmate/src/tokens/ERC20.sol\":3344:3360  allowed - amount */\n      tag_108\n      swap2\n      swap1\n      tag_109\n      jump\t// in\n    tag_108:\n        /* \"@rari-capital/solmate/src/tokens/ERC20.sol\":3314:3323  allowance */\n      0x04\n        /* \"@rari-capital/solmate/src/tokens/ERC20.sol\":3314:3329  allowance[from] */\n      0x00\n        /* \"@rari-capital/solmate/src/tokens/ERC20.sol\":3324:3328  from */\n      dup8\n        /* \"@rari-capital/solmate/src/tokens/ERC20.sol\":3314:3329  allowance[from] */\n      0xffffffffffffffffffffffffffffffffffffffff\n      and\n      0xffffffffffffffffffffffffffffffffffffffff\n      and\n      dup2\n      mstore\n      0x20\n      add\n      swap1\n      dup2\n      mstore\n      0x20\n      add\n      0x00\n      keccak256\n        /* \"@rari-capital/solmate/src/tokens/ERC20.sol\":3314:3341  allowance[from][msg.sender] */\n      0x00\n        /* \"@rari-capital/solmate/src/tokens/ERC20.sol\":3330:3340  msg.sender */\n      caller\n        /* \"@rari-capital/solmate/src/tokens/ERC20.sol\":3314:3341  allowance[from][msg.sender] */\n      0xffffffffffffffffffffffffffffffffffffffff\n      and\n      0xffffffffffffffffffffffffffffffffffffffff\n      and\n      dup2\n      mstore\n      0x20\n      add\n      swap1\n      dup2\n      mstore\n      0x20\n      add\n      0x00\n      keccak256\n        /* \"@rari-capital/solmate/src/tokens/ERC20.sol\":3314:3360  allowance[from][msg.sender] = allowed - amount */\n      dup2\n      swap1\n      sstore\n      pop\n        /* \"@rari-capital/solmate/src/tokens/ERC20.sol\":3280:3360  if (allowed != type(uint256).max) allowance[from][msg.sender] = allowed - amount */\n    tag_107:\n        /* \"@rari-capital/solmate/src/tokens/ERC20.sol\":3390:3396  amount */\n      dup3\n        /* \"@rari-capital/solmate/src/tokens/ERC20.sol\":3371:3380  balanceOf */\n      0x03\n        /* \"@rari-capital/solmate/src/tokens/ERC20.sol\":3371:3386  balanceOf[from] */\n      0x00\n        /* \"@rari-capital/solmate/src/tokens/ERC20.sol\":3381:3385  from */\n      dup8\n        /* \"@rari-capital/solmate/src/tokens/ERC20.sol\":3371:3386  balanceOf[from] */\n      0xffffffffffffffffffffffffffffffffffffffff\n      and\n      0xffffffffffffffffffffffffffffffffffffffff\n      and\n      dup2\n      mstore\n      0x20\n      add\n      swap1\n      dup2\n      mstore\n      0x20\n      add\n      0x00\n      keccak256\n      0x00\n        /* \"@rari-capital/solmate/src/tokens/ERC20.sol\":3371:3396  balanceOf[from] -= amount */\n      dup3\n      dup3\n      sload\n      tag_110\n      swap2\n      swap1\n      tag_109\n      jump\t// in\n    tag_110:\n      swap3\n      pop\n      pop\n      dup2\n      swap1\n      sstore\n      pop\n        /* \"@rari-capital/solmate/src/tokens/ERC20.sol\":3559:3565  amount */\n      dup3\n        /* \"@rari-capital/solmate/src/tokens/ERC20.sol\":3542:3551  balanceOf */\n      0x03\n        /* \"@rari-capital/solmate/src/tokens/ERC20.sol\":3542:3555  balanceOf[to] */\n      0x00\n        /* \"@rari-capital/solmate/src/tokens/ERC20.sol\":3552:3554  to */\n      dup7\n        /* \"@rari-capital/solmate/src/tokens/ERC20.sol\":3542:3555  balanceOf[to] */\n      0xffffffffffffffffffffffffffffffffffffffff\n      and\n      0xffffffffffffffffffffffffffffffffffffffff\n      and\n      dup2\n      mstore\n      0x20\n      add\n      swap1\n      dup2\n      mstore\n      0x20\n      add\n      0x00\n      keccak256\n      0x00\n        /* \"@rari-capital/solmate/src/tokens/ERC20.sol\":3542:3565  balanceOf[to] += amount */\n      dup3\n      dup3\n      sload\n      add\n      swap3\n      pop\n      pop\n      dup2\n      swap1\n      sstore\n      pop\n        /* \"@rari-capital/solmate/src/tokens/ERC20.sol\":3606:3608  to */\n      dup4\n        /* \"@rari-capital/solmate/src/tokens/ERC20.sol\":3591:3617  Transfer(from, to, amount) */\n      0xffffffffffffffffffffffffffffffffffffffff\n      and\n        /* \"@rari-capital/solmate/src/tokens/ERC20.sol\":3600:3604  from */\n      dup6\n        /* \"@rari-capital/solmate/src/tokens/ERC20.sol\":3591:3617  Transfer(from, to, amount) */\n      0xffffffffffffffffffffffffffffffffffffffff\n      and\n      0xddf252ad1be2c89b69c2b068fc378daa952ba7f163c4a11628f55a4df523b3ef\n        /* \"@rari-capital/solmate/src/tokens/ERC20.sol\":3610:3616  amount */\n      dup6\n        /* \"@rari-capital/solmate/src/tokens/ERC20.sol\":3591:3617  Transfer(from, to, amount) */\n      mload(0x40)\n      tag_111\n      swap2\n      swap1\n      tag_40\n      jump\t// in\n    tag_111:\n      mload(0x40)\n      dup1\n      swap2\n      sub\n      swap1\n      log3\n        /* \"@rari-capital/solmate/src/tokens/ERC20.sol\":3635:3639  true */\n      0x01\n        /* \"@rari-capital/solmate/src/tokens/ERC20.sol\":3628:3639  return true */\n      swap2\n      pop\n      pop\n        /* \"@rari-capital/solmate/src/tokens/ERC20.sol\":3054:3646  function transferFrom(... */\n      swap4\n      swap3\n      pop\n      pop\n      pop\n      jump\t// out\n        /* \"SCP/WETH.sol\":503:687  function withdraw(uint _amount) external {... */\n    tag_51:\n        /* \"SCP/WETH.sol\":555:581  _burn(msg.sender, _amount) */\n      tag_113\n        /* \"SCP/WETH.sol\":561:571  msg.sender */\n      caller\n        /* \"SCP/WETH.sol\":573:580  _amount */\n      dup3\n        /* \"SCP/WETH.sol\":555:560  _burn */\n      tag_114\n        /* \"SCP/WETH.sol\":555:581  _burn(msg.sender, _amount) */\n      jump\t// in\n    tag_113:\n        /* \"SCP/WETH.sol\":603:613  msg.sender */\n      caller\n        /* \"SCP/WETH.sol\":595:623  payable(msg.sender).transfer */\n      0xffffffffffffffffffffffffffffffffffffffff\n      and\n        /* \"SCP/WETH.sol\":595:632  payable(msg.sender).transfer(_amount) */\n      0x08fc\n        /* \"SCP/WETH.sol\":624:631  _amount */\n      dup3\n        /* \"SCP/WETH.sol\":595:632  payable(msg.sender).transfer(_amount) */\n      swap1\n      dup2\n      iszero\n      mul\n      swap1\n      mload(0x40)\n      0x00\n      mload(0x40)\n      dup1\n      dup4\n      sub\n      dup2\n      dup6\n      dup9\n      dup9\n      call\n      swap4\n      pop\n      pop\n      pop\n      pop\n      iszero\n      dup1\n      iszero\n      tag_116\n      jumpi\n      returndatasize\n      0x00\n      dup1\n      returndatacopy\n      revert(0x00, returndatasize)\n    tag_116:\n      pop\n        /* \"SCP/WETH.sol\":660:670  msg.sender */\n      caller\n        /* \"SCP/WETH.sol\":651:680  Withdraw(msg.sender, _amount) */\n      0xffffffffffffffffffffffffffffffffffffffff\n      and\n      0x884edad9ce6fa2440d8a54cc123490eb96d2768479d49ff9c7366125a9424364\n        /* \"SCP/WETH.sol\":672:679  _amount */\n      dup3\n        /* \"SCP/WETH.sol\":651:680  Withdraw(msg.sender, _amount) */\n      mload(0x40)\n      tag_117\n      swap2\n      swap1\n      tag_40\n      jump\t// in\n    tag_117:\n      mload(0x40)\n      dup1\n      swap2\n      sub\n      swap1\n      log2\n        /* \"SCP/WETH.sol\":503:687  function withdraw(uint _amount) external {... */\n      pop\n      jump\t// out\n        /* \"@rari-capital/solmate/src/tokens/ERC20.sol\":1080:1111  uint8 public immutable decimals */\n    tag_54:\n      immutable(\"0x6585423cb6456b1d4957f6454d2f004f0c4f58d53a00082412d5c2ef4b1b31fd\")\n      dup2\n      jump\t// out\n        /* \"@rari-capital/solmate/src/tokens/ERC20.sol\":5324:5501  function DOMAIN_SEPARATOR() public view virtual returns (bytes32) {... */\n    tag_59:\n        /* \"@rari-capital/solmate/src/tokens/ERC20.sol\":5381:5388  bytes32 */\n      0x00\n        /* \"@rari-capital/solmate/src/tokens/ERC20.sol\":5424:5440  INITIAL_CHAIN_ID */\n      immutable(\"0xd67d834462ca31eaef1f30157e31659f60355143b7441e6fc7d9eae1fa79f3f8\")\n        /* \"@rari-capital/solmate/src/tokens/ERC20.sol\":5407:5420  block.chainid */\n      chainid\n        /* \"@rari-capital/solmate/src/tokens/ERC20.sol\":5407:5440  block.chainid == INITIAL_CHAIN_ID */\n      eq\n        /* \"@rari-capital/solmate/src/tokens/ERC20.sol\":5407:5494  block.chainid == INITIAL_CHAIN_ID ? INITIAL_DOMAIN_SEPARATOR : computeDomainSeparator() */\n      tag_119\n      jumpi\n        /* \"@rari-capital/solmate/src/tokens/ERC20.sol\":5470:5494  computeDomainSeparator() */\n      tag_120\n        /* \"@rari-capital/solmate/src/tokens/ERC20.sol\":5470:5492  computeDomainSeparator */\n      tag_121\n        /* \"@rari-capital/solmate/src/tokens/ERC20.sol\":5470:5494  computeDomainSeparator() */\n      jump\t// in\n    tag_120:\n        /* \"@rari-capital/solmate/src/tokens/ERC20.sol\":5407:5494  block.chainid == INITIAL_CHAIN_ID ? INITIAL_DOMAIN_SEPARATOR : computeDomainSeparator() */\n      jump(tag_122)\n    tag_119:\n        /* \"@rari-capital/solmate/src/tokens/ERC20.sol\":5443:5467  INITIAL_DOMAIN_SEPARATOR */\n      immutable(\"0x880de8116b3dfac28e9ff528a9fef1d1e0a51449c1addce011ffec1f302992b6\")\n        /* \"@rari-capital/solmate/src/tokens/ERC20.sol\":5407:5494  block.chainid == INITIAL_CHAIN_ID ? INITIAL_DOMAIN_SEPARATOR : computeDomainSeparator() */\n    tag_122:\n        /* \"@rari-capital/solmate/src/tokens/ERC20.sol\":5400:5494  return block.chainid == INITIAL_CHAIN_ID ? INITIAL_DOMAIN_SEPARATOR : computeDomainSeparator() */\n      swap1\n      pop\n        /* \"@rari-capital/solmate/src/tokens/ERC20.sol\":5324:5501  function DOMAIN_SEPARATOR() public view virtual returns (bytes32) {... */\n      swap1\n      jump\t// out\n        /* \"@rari-capital/solmate/src/tokens/ERC20.sol\":1334:1378  mapping(address => uint256) public balanceOf */\n    tag_66:\n      mstore(0x20, 0x03)\n      dup1\n      0x00\n      mstore\n      keccak256(0x00, 0x40)\n      0x00\n      swap2\n      pop\n      swap1\n      pop\n      sload\n      dup2\n      jump\t// out\n        /* \"@rari-capital/solmate/src/tokens/ERC20.sol\":1748:1789  mapping(address => uint256) public nonces */\n    tag_71:\n      mstore(0x20, 0x05)\n      dup1\n      0x00\n      mstore\n      keccak256(0x00, 0x40)\n      0x00\n      swap2\n      pop\n      swap1\n      pop\n      sload\n      dup2\n      jump\t// out\n        /* \"@rari-capital/solmate/src/tokens/ERC20.sol\":1053:1073  string public symbol */\n    tag_75:\n      0x01\n      dup1\n      sload\n      tag_123\n      swap1\n      tag_99\n      jump\t// in\n    tag_123:\n      dup1\n      0x1f\n      add\n      0x20\n      dup1\n      swap2\n      div\n      mul\n      0x20\n      add\n      mload(0x40)\n      swap1\n      dup2\n      add\n      0x40\n      mstore\n      dup1\n      swap3\n      swap2\n      swap1\n      dup2\n      dup2\n      mstore\n      0x20\n      add\n      dup3\n      dup1\n      sload\n      tag_124\n      swap1\n      tag_99\n      jump\t// in\n    tag_124:\n      dup1\n      iszero\n      tag_125\n      jumpi\n      dup1\n      0x1f\n      lt\n      tag_126\n      jumpi\n      0x0100\n      dup1\n      dup4\n      sload\n      div\n      mul\n      dup4\n      mstore\n      swap2\n      0x20\n      add\n      swap2\n      jump(tag_125)\n    tag_126:\n      dup3\n      add\n      swap2\n      swap1\n      0x00\n      mstore\n      keccak256(0x00, 0x20)\n      swap1\n    tag_127:\n      dup2\n      sload\n      dup2\n      mstore\n      swap1\n      0x01\n      add\n      swap1\n      0x20\n      add\n      dup1\n      dup4\n      gt\n      tag_127\n      jumpi\n      dup3\n      swap1\n      sub\n      0x1f\n      and\n      dup3\n      add\n      swap2\n    tag_125:\n      pop\n      pop\n      pop\n      pop\n      pop\n      dup2\n      jump\t// out\n        /* \"@rari-capital/solmate/src/tokens/ERC20.sol\":2675:3048  function transfer(address to, uint256 amount) public virtual returns (bool) {... */\n    tag_80:\n        /* \"@rari-capital/solmate/src/tokens/ERC20.sol\":2745:2749  bool */\n      0x00\n        /* \"@rari-capital/solmate/src/tokens/ERC20.sol\":2786:2792  amount */\n      dup2\n        /* \"@rari-capital/solmate/src/tokens/ERC20.sol\":2761:2770  balanceOf */\n      0x03\n        /* \"@rari-capital/solmate/src/tokens/ERC20.sol\":2761:2782  balanceOf[msg.sender] */\n      0x00\n        /* \"@rari-capital/solmate/src/tokens/ERC20.sol\":2771:2781  msg.sender */\n      caller\n        /* \"@rari-capital/solmate/src/tokens/ERC20.sol\":2761:2782  balanceOf[msg.sender] */\n      0xffffffffffffffffffffffffffffffffffffffff\n      and\n      0xffffffffffffffffffffffffffffffffffffffff\n      and\n      dup2\n      mstore\n      0x20\n      add\n      swap1\n      dup2\n      mstore\n      0x20\n      add\n      0x00\n      keccak256\n      0x00\n        /* \"@rari-capital/solmate/src/tokens/ERC20.sol\":2761:2792  balanceOf[msg.sender] -= amount */\n      dup3\n      dup3\n      sload\n      tag_129\n      swap2\n      swap1\n      tag_109\n      jump\t// in\n    tag_129:\n      swap3\n      pop\n      pop\n      dup2\n      swap1\n      sstore\n      pop\n        /* \"@rari-capital/solmate/src/tokens/ERC20.sol\":2955:2961  amount */\n      dup2\n        /* \"@rari-capital/solmate/src/tokens/ERC20.sol\":2938:2947  balanceOf */\n      0x03\n        /* \"@rari-capital/solmate/src/tokens/ERC20.sol\":2938:2951  balanceOf[to] */\n      0x00\n        /* \"@rari-capital/solmate/src/tokens/ERC20.sol\":2948:2950  to */\n      dup6\n        /* \"@rari-capital/solmate/src/tokens/ERC20.sol\":2938:2951  balanceOf[to] */\n      0xffffffffffffffffffffffffffffffffffffffff\n      and\n      0xffffffffffffffffffffffffffffffffffffffff\n      and\n      dup2\n      mstore\n      0x20\n      add\n      swap1\n      dup2\n      mstore\n      0x20\n      add\n      0x00\n      keccak256\n      0x00\n        /* \"@rari-capital/solmate/src/tokens/ERC20.sol\":2938:2961  balanceOf[to] += amount */\n      dup3\n      dup3\n      sload\n      add\n      swap3\n      pop\n      pop\n      dup2\n      swap1\n      sstore\n      pop\n        /* \"@rari-capital/solmate/src/tokens/ERC20.sol\":3008:3010  to */\n      dup3\n        /* \"@rari-capital/solmate/src/tokens/ERC20.sol\":2987:3019  Transfer(msg.sender, to, amount) */\n      0xffffffffffffffffffffffffffffffffffffffff\n      and\n        /* \"@rari-capital/solmate/src/tokens/ERC20.sol\":2996:3006  msg.sender */\n      caller\n        /* \"@rari-capital/solmate/src/tokens/ERC20.sol\":2987:3019  Transfer(msg.sender, to, amount) */\n      0xffffffffffffffffffffffffffffffffffffffff\n      and\n      0xddf252ad1be2c89b69c2b068fc378daa952ba7f163c4a11628f55a4df523b3ef\n        /* \"@rari-capital/solmate/src/tokens/ERC20.sol\":3012:3018  amount */\n      dup5\n        /* \"@rari-capital/solmate/src/tokens/ERC20.sol\":2987:3019  Transfer(msg.sender, to, amount) */\n      mload(0x40)\n      tag_130\n      swap2\n      swap1\n      tag_40\n      jump\t// in\n    tag_130:\n      mload(0x40)\n      dup1\n      swap2\n      sub\n      swap1\n      log3\n        /* \"@rari-capital/solmate/src/tokens/ERC20.sol\":3037:3041  true */\n      0x01\n        /* \"@rari-capital/solmate/src/tokens/ERC20.sol\":3030:3041  return true */\n      swap1\n      pop\n        /* \"@rari-capital/solmate/src/tokens/ERC20.sol\":2675:3048  function transfer(address to, uint256 amount) public virtual returns (bool) {... */\n      swap3\n      swap2\n      pop\n      pop\n      jump\t// out\n        /* \"@rari-capital/solmate/src/tokens/ERC20.sol\":3835:5318  function permit(... */\n    tag_87:\n        /* \"@rari-capital/solmate/src/tokens/ERC20.sol\":4054:4069  block.timestamp */\n      timestamp\n        /* \"@rari-capital/solmate/src/tokens/ERC20.sol\":4042:4050  deadline */\n      dup5\n        /* \"@rari-capital/solmate/src/tokens/ERC20.sol\":4042:4069  deadline >= block.timestamp */\n      lt\n      iszero\n        /* \"@rari-capital/solmate/src/tokens/ERC20.sol\":4034:4097  require(deadline >= block.timestamp, \"PERMIT_DEADLINE_EXPIRED\") */\n      tag_132\n      jumpi\n      mload(0x40)\n      0x08c379a000000000000000000000000000000000000000000000000000000000\n      dup2\n      mstore\n      0x04\n      add\n      tag_133\n      swap1\n      tag_134\n      jump\t// in\n    tag_133:\n      mload(0x40)\n      dup1\n      swap2\n      sub\n      swap1\n      revert\n    tag_132:\n        /* \"@rari-capital/solmate/src/tokens/ERC20.sol\":4262:4286  address recoveredAddress */\n      0x00\n        /* \"@rari-capital/solmate/src/tokens/ERC20.sol\":4289:5094  ecrecover(... */\n      0x01\n        /* \"@rari-capital/solmate/src/tokens/ERC20.sol\":4425:4443  DOMAIN_SEPARATOR() */\n      tag_135\n        /* \"@rari-capital/solmate/src/tokens/ERC20.sol\":4425:4441  DOMAIN_SEPARATOR */\n      tag_59\n        /* \"@rari-capital/solmate/src/tokens/ERC20.sol\":4425:4443  DOMAIN_SEPARATOR() */\n      jump\t// in\n    tag_135:\n        /* \"@rari-capital/solmate/src/tokens/ERC20.sol\":4552:4717  keccak256(... */\n      0x6e71edae12b1b97f4d1f60370fef10105fa2faae0126114a169c64845d6126c9\n        /* \"@rari-capital/solmate/src/tokens/ERC20.sol\":4751:4756  owner */\n      dup11\n        /* \"@rari-capital/solmate/src/tokens/ERC20.sol\":4790:4797  spender */\n      dup11\n        /* \"@rari-capital/solmate/src/tokens/ERC20.sol\":4831:4836  value */\n      dup11\n        /* \"@rari-capital/solmate/src/tokens/ERC20.sol\":4870:4876  nonces */\n      0x05\n        /* \"@rari-capital/solmate/src/tokens/ERC20.sol\":4870:4883  nonces[owner] */\n      0x00\n        /* \"@rari-capital/solmate/src/tokens/ERC20.sol\":4877:4882  owner */\n      dup16\n        /* \"@rari-capital/solmate/src/tokens/ERC20.sol\":4870:4883  nonces[owner] */\n      0xffffffffffffffffffffffffffffffffffffffff\n      and\n      0xffffffffffffffffffffffffffffffffffffffff\n      and\n      dup2\n      mstore\n      0x20\n      add\n      swap1\n      dup2\n      mstore\n      0x20\n      add\n      0x00\n      keccak256\n      0x00\n        /* \"@rari-capital/solmate/src/tokens/ERC20.sol\":4870:4885  nonces[owner]++ */\n      dup2\n      sload\n      dup1\n      swap3\n      swap2\n      swap1\n      0x01\n      add\n      swap2\n      swap1\n      pop\n      sstore\n        /* \"@rari-capital/solmate/src/tokens/ERC20.sol\":4919:4927  deadline */\n      dup12\n        /* \"@rari-capital/solmate/src/tokens/ERC20.sol\":4508:4957  abi.encode(... */\n      add(0x20, mload(0x40))\n      tag_136\n      swap7\n      swap6\n      swap5\n      swap4\n      swap3\n      swap2\n      swap1\n      tag_137\n      jump\t// in\n    tag_136:\n      mload(0x40)\n      0x20\n      dup2\n      dup4\n      sub\n      sub\n      dup2\n      mstore\n      swap1\n      0x40\n      mstore\n        /* \"@rari-capital/solmate/src/tokens/ERC20.sol\":4469:4983  keccak256(... */\n      dup1\n      mload\n      swap1\n      0x20\n      add\n      keccak256\n        /* \"@rari-capital/solmate/src/tokens/ERC20.sol\":4347:5005  abi.encodePacked(... */\n      add(0x20, mload(0x40))\n      tag_138\n      swap3\n      swap2\n      swap1\n      tag_139\n      jump\t// in\n    tag_138:\n      mload(0x40)\n      0x20\n      dup2\n      dup4\n      sub\n      sub\n      dup2\n      mstore\n      swap1\n      0x40\n      mstore\n        /* \"@rari-capital/solmate/src/tokens/ERC20.sol\":4316:5023  keccak256(... */\n      dup1\n      mload\n      swap1\n      0x20\n      add\n      keccak256\n        /* \"@rari-capital/solmate/src/tokens/ERC20.sol\":5041:5042  v */\n      dup6\n        /* \"@rari-capital/solmate/src/tokens/ERC20.sol\":5060:5061  r */\n      dup6\n        /* \"@rari-capital/solmate/src/tokens/ERC20.sol\":5079:5080  s */\n      dup6\n        /* \"@rari-capital/solmate/src/tokens/ERC20.sol\":4289:5094  ecrecover(... */\n      mload(0x40)\n      0x00\n      dup2\n      mstore\n      0x20\n      add\n      0x40\n      mstore\n      mload(0x40)\n      tag_140\n      swap5\n      swap4\n      swap3\n      swap2\n      swap1\n      tag_141\n      jump\t// in\n    tag_140:\n      0x20\n      mload(0x40)\n      0x20\n      dup2\n      sub\n      swap1\n      dup1\n      dup5\n      sub\n      swap1\n      dup6\n      gas\n      staticcall\n      iszero\n      dup1\n      iszero\n      tag_143\n      jumpi\n      returndatasize\n      0x00\n      dup1\n      returndatacopy\n      revert(0x00, returndatasize)\n    tag_143:\n      pop\n      pop\n      pop\n      mload(sub(mload(0x40), 0x20))\n        /* \"@rari-capital/solmate/src/tokens/ERC20.sol\":4262:5094  address recoveredAddress = ecrecover(... */\n      swap1\n      pop\n        /* \"@rari-capital/solmate/src/tokens/ERC20.sol\":5145:5146  0 */\n      0x00\n        /* \"@rari-capital/solmate/src/tokens/ERC20.sol\":5117:5147  recoveredAddress != address(0) */\n      0xffffffffffffffffffffffffffffffffffffffff\n      and\n        /* \"@rari-capital/solmate/src/tokens/ERC20.sol\":5117:5133  recoveredAddress */\n      dup2\n        /* \"@rari-capital/solmate/src/tokens/ERC20.sol\":5117:5147  recoveredAddress != address(0) */\n      0xffffffffffffffffffffffffffffffffffffffff\n      and\n      eq\n      iszero\n        /* \"@rari-capital/solmate/src/tokens/ERC20.sol\":5117:5176  recoveredAddress != address(0) && recoveredAddress == owner */\n      dup1\n      iszero\n      tag_144\n      jumpi\n      pop\n        /* \"@rari-capital/solmate/src/tokens/ERC20.sol\":5171:5176  owner */\n      dup8\n        /* \"@rari-capital/solmate/src/tokens/ERC20.sol\":5151:5176  recoveredAddress == owner */\n      0xffffffffffffffffffffffffffffffffffffffff\n      and\n        /* \"@rari-capital/solmate/src/tokens/ERC20.sol\":5151:5167  recoveredAddress */\n      dup2\n        /* \"@rari-capital/solmate/src/tokens/ERC20.sol\":5151:5176  recoveredAddress == owner */\n      0xffffffffffffffffffffffffffffffffffffffff\n      and\n      eq\n        /* \"@rari-capital/solmate/src/tokens/ERC20.sol\":5117:5176  recoveredAddress != address(0) && recoveredAddress == owner */\n    tag_144:\n        /* \"@rari-capital/solmate/src/tokens/ERC20.sol\":5109:5195  require(recoveredAddress != address(0) && recoveredAddress == owner, \"INVALID_SIGNER\") */\n      tag_145\n      jumpi\n      mload(0x40)\n      0x08c379a000000000000000000000000000000000000000000000000000000000\n      dup2\n      mstore\n      0x04\n      add\n      tag_146\n      swap1\n      tag_147\n      jump\t// in\n    tag_146:\n      mload(0x40)\n      dup1\n      swap2\n      sub\n      swap1\n      revert\n    tag_145:\n        /* \"@rari-capital/solmate/src/tokens/ERC20.sol\":5249:5254  value */\n      dup6\n        /* \"@rari-capital/solmate/src/tokens/ERC20.sol\":5210:5219  allowance */\n      0x04\n        /* \"@rari-capital/solmate/src/tokens/ERC20.sol\":5210:5237  allowance[recoveredAddress] */\n      0x00\n        /* \"@rari-capital/solmate/src/tokens/ERC20.sol\":5220:5236  recoveredAddress */\n      dup4\n        /* \"@rari-capital/solmate/src/tokens/ERC20.sol\":5210:5237  allowance[recoveredAddress] */\n      0xffffffffffffffffffffffffffffffffffffffff\n      and\n      0xffffffffffffffffffffffffffffffffffffffff\n      and\n      dup2\n      mstore\n      0x20\n      add\n      swap1\n      dup2\n      mstore\n      0x20\n      add\n      0x00\n      keccak256\n        /* \"@rari-capital/solmate/src/tokens/ERC20.sol\":5210:5246  allowance[recoveredAddress][spender] */\n      0x00\n        /* \"@rari-capital/solmate/src/tokens/ERC20.sol\":5238:5245  spender */\n      dup10\n        /* \"@rari-capital/solmate/src/tokens/ERC20.sol\":5210:5246  allowance[recoveredAddress][spender] */\n      0xffffffffffffffffffffffffffffffffffffffff\n      and\n      0xffffffffffffffffffffffffffffffffffffffff\n      and\n      dup2\n      mstore\n      0x20\n      add\n      swap1\n      dup2\n      mstore\n      0x20\n      add\n      0x00\n      keccak256\n        /* \"@rari-capital/solmate/src/tokens/ERC20.sol\":5210:5254  allowance[recoveredAddress][spender] = value */\n      dup2\n      swap1\n      sstore\n      pop\n        /* \"@rari-capital/solmate/src/tokens/ERC20.sol\":4238:5265  unchecked {... */\n      pop\n        /* \"@rari-capital/solmate/src/tokens/ERC20.sol\":5296:5303  spender */\n      dup6\n        /* \"@rari-capital/solmate/src/tokens/ERC20.sol\":5280:5311  Approval(owner, spender, value) */\n      0xffffffffffffffffffffffffffffffffffffffff\n      and\n        /* \"@rari-capital/solmate/src/tokens/ERC20.sol\":5289:5294  owner */\n      dup8\n        /* \"@rari-capital/solmate/src/tokens/ERC20.sol\":5280:5311  Approval(owner, spender, value) */\n      0xffffffffffffffffffffffffffffffffffffffff\n      and\n      0x8c5be1e5ebec7d5bd14f71427d1e84f3dd0314c0f7b2291e5b200ac8c7c3b925\n        /* \"@rari-capital/solmate/src/tokens/ERC20.sol\":5305:5310  value */\n      dup8\n        /* \"@rari-capital/solmate/src/tokens/ERC20.sol\":5280:5311  Approval(owner, spender, value) */\n      mload(0x40)\n      tag_148\n      swap2\n      swap1\n      tag_40\n      jump\t// in\n    tag_148:\n      mload(0x40)\n      dup1\n      swap2\n      sub\n      swap1\n      log3\n        /* \"@rari-capital/solmate/src/tokens/ERC20.sol\":3835:5318  function permit(... */\n      pop\n      pop\n      pop\n      pop\n      pop\n      pop\n      pop\n      jump\t// out\n        /* \"@rari-capital/solmate/src/tokens/ERC20.sol\":1385:1449  mapping(address => mapping(address => uint256)) public allowance */\n    tag_92:\n      mstore(0x20, 0x04)\n      dup2\n      0x00\n      mstore\n      mstore(0x20, keccak256(0x00, 0x40))\n      dup1\n      0x00\n      mstore\n      keccak256(0x00, 0x40)\n      0x00\n      swap2\n      pop\n      swap2\n      pop\n      pop\n      sload\n      dup2\n      jump\t// out\n        /* \"@rari-capital/solmate/src/tokens/ERC20.sol\":6147:6472  function _mint(address to, uint256 amount) internal virtual {... */\n    tag_96:\n        /* \"@rari-capital/solmate/src/tokens/ERC20.sol\":6232:6238  amount */\n      dup1\n        /* \"@rari-capital/solmate/src/tokens/ERC20.sol\":6217:6228  totalSupply */\n      0x02\n      0x00\n        /* \"@rari-capital/solmate/src/tokens/ERC20.sol\":6217:6238  totalSupply += amount */\n      dup3\n      dup3\n      sload\n      tag_150\n      swap2\n      swap1\n      tag_151\n      jump\t// in\n    tag_150:\n      swap3\n      pop\n      pop\n      dup2\n      swap1\n      sstore\n      pop\n        /* \"@rari-capital/solmate/src/tokens/ERC20.sol\":6401:6407  amount */\n      dup1\n        /* \"@rari-capital/solmate/src/tokens/ERC20.sol\":6384:6393  balanceOf */\n      0x03\n        /* \"@rari-capital/solmate/src/tokens/ERC20.sol\":6384:6397  balanceOf[to] */\n      0x00\n        /* \"@rari-capital/solmate/src/tokens/ERC20.sol\":6394:6396  to */\n      dup5\n        /* \"@rari-capital/solmate/src/tokens/ERC20.sol\":6384:6397  balanceOf[to] */\n      0xffffffffffffffffffffffffffffffffffffffff\n      and\n      0xffffffffffffffffffffffffffffffffffffffff\n      and\n      dup2\n      mstore\n      0x20\n      add\n      swap1\n      dup2\n      mstore\n      0x20\n      add\n      0x00\n      keccak256\n      0x00\n        /* \"@rari-capital/solmate/src/tokens/ERC20.sol\":6384:6407  balanceOf[to] += amount */\n      dup3\n      dup3\n      sload\n      add\n      swap3\n      pop\n      pop\n      dup2\n      swap1\n      sstore\n      pop\n        /* \"@rari-capital/solmate/src/tokens/ERC20.sol\":6454:6456  to */\n      dup2\n        /* \"@rari-capital/solmate/src/tokens/ERC20.sol\":6433:6465  Transfer(address(0), to, amount) */\n      0xffffffffffffffffffffffffffffffffffffffff\n      and\n        /* \"@rari-capital/solmate/src/tokens/ERC20.sol\":6450:6451  0 */\n      0x00\n        /* \"@rari-capital/solmate/src/tokens/ERC20.sol\":6433:6465  Transfer(address(0), to, amount) */\n      0xffffffffffffffffffffffffffffffffffffffff\n      and\n      0xddf252ad1be2c89b69c2b068fc378daa952ba7f163c4a11628f55a4df523b3ef\n        /* \"@rari-capital/solmate/src/tokens/ERC20.sol\":6458:6464  amount */\n      dup4\n        /* \"@rari-capital/solmate/src/tokens/ERC20.sol\":6433:6465  Transfer(address(0), to, amount) */\n      mload(0x40)\n      tag_152\n      swap2\n      swap1\n      tag_40\n      jump\t// in\n    tag_152:\n      mload(0x40)\n      dup1\n      swap2\n      sub\n      swap1\n      log3\n        /* \"@rari-capital/solmate/src/tokens/ERC20.sol\":6147:6472  function _mint(address to, uint256 amount) internal virtual {... */\n      pop\n      pop\n      jump\t// out\n        /* \"@rari-capital/solmate/src/tokens/ERC20.sol\":6478:6806  function _burn(address from, uint256 amount) internal virtual {... */\n    tag_114:\n        /* \"@rari-capital/solmate/src/tokens/ERC20.sol\":6569:6575  amount */\n      dup1\n        /* \"@rari-capital/solmate/src/tokens/ERC20.sol\":6550:6559  balanceOf */\n      0x03\n        /* \"@rari-capital/solmate/src/tokens/ERC20.sol\":6550:6565  balanceOf[from] */\n      0x00\n        /* \"@rari-capital/solmate/src/tokens/ERC20.sol\":6560:6564  from */\n      dup5\n        /* \"@rari-capital/solmate/src/tokens/ERC20.sol\":6550:6565  balanceOf[from] */\n      0xffffffffffffffffffffffffffffffffffffffff\n      and\n      0xffffffffffffffffffffffffffffffffffffffff\n      and\n      dup2\n      mstore\n      0x20\n      add\n      swap1\n      dup2\n      mstore\n      0x20\n      add\n      0x00\n      keccak256\n      0x00\n        /* \"@rari-capital/solmate/src/tokens/ERC20.sol\":6550:6575  balanceOf[from] -= amount */\n      dup3\n      dup3\n      sload\n      tag_154\n      swap2\n      swap1\n      tag_109\n      jump\t// in\n    tag_154:\n      swap3\n      pop\n      pop\n      dup2\n      swap1\n      sstore\n      pop\n        /* \"@rari-capital/solmate/src/tokens/ERC20.sol\":6733:6739  amount */\n      dup1\n        /* \"@rari-capital/solmate/src/tokens/ERC20.sol\":6718:6729  totalSupply */\n      0x02\n      0x00\n        /* \"@rari-capital/solmate/src/tokens/ERC20.sol\":6718:6739  totalSupply -= amount */\n      dup3\n      dup3\n      sload\n      sub\n      swap3\n      pop\n      pop\n      dup2\n      swap1\n      sstore\n      pop\n        /* \"@rari-capital/solmate/src/tokens/ERC20.sol\":6788:6789  0 */\n      0x00\n        /* \"@rari-capital/solmate/src/tokens/ERC20.sol\":6765:6799  Transfer(from, address(0), amount) */\n      0xffffffffffffffffffffffffffffffffffffffff\n      and\n        /* \"@rari-capital/solmate/src/tokens/ERC20.sol\":6774:6778  from */\n      dup3\n        /* \"@rari-capital/solmate/src/tokens/ERC20.sol\":6765:6799  Transfer(from, address(0), amount) */\n      0xffffffffffffffffffffffffffffffffffffffff\n      and\n      0xddf252ad1be2c89b69c2b068fc378daa952ba7f163c4a11628f55a4df523b3ef\n        /* \"@rari-capital/solmate/src/tokens/ERC20.sol\":6792:6798  amount */\n      dup4\n        /* \"@rari-capital/solmate/src/tokens/ERC20.sol\":6765:6799  Transfer(from, address(0), amount) */\n      mload(0x40)\n      tag_155\n      swap2\n      swap1\n      tag_40\n      jump\t// in\n    tag_155:\n      mload(0x40)\n      dup1\n      swap2\n      sub\n      swap1\n      log3\n        /* \"@rari-capital/solmate/src/tokens/ERC20.sol\":6478:6806  function _burn(address from, uint256 amount) internal virtual {... */\n      pop\n      pop\n      jump\t// out\n        /* \"@rari-capital/solmate/src/tokens/ERC20.sol\":5507:5953  function computeDomainSeparator() internal view virtual returns (bytes32) {... */\n    tag_121:\n        /* \"@rari-capital/solmate/src/tokens/ERC20.sol\":5572:5579  bytes32 */\n      0x00\n        /* \"@rari-capital/solmate/src/tokens/ERC20.sol\":5669:5764  keccak256(\"EIP712Domain(string name,string version,uint256 chainId,address verifyingContract)\") */\n      0x8b73c3c69bb8fe3d512ecc4cf759cc79239f7b179b0ffacaa9a75d522b39400f\n        /* \"@rari-capital/solmate/src/tokens/ERC20.sol\":5802:5806  name */\n      0x00\n        /* \"@rari-capital/solmate/src/tokens/ERC20.sol\":5786:5808  keccak256(bytes(name)) */\n      mload(0x40)\n      tag_157\n      swap2\n      swap1\n      tag_158\n      jump\t// in\n    tag_157:\n      mload(0x40)\n      dup1\n      swap2\n      sub\n      swap1\n      keccak256\n        /* \"@rari-capital/solmate/src/tokens/ERC20.sol\":5830:5844  keccak256(\"1\") */\n      0xc89efdaa54c0f20c7adf612882df0950f5a951637e0307cdcb4c672f298b8bc6\n        /* \"@rari-capital/solmate/src/tokens/ERC20.sol\":5866:5879  block.chainid */\n      chainid\n        /* \"@rari-capital/solmate/src/tokens/ERC20.sol\":5909:5913  this */\n      address\n        /* \"@rari-capital/solmate/src/tokens/ERC20.sol\":5637:5932  abi.encode(... */\n      add(0x20, mload(0x40))\n      tag_159\n      swap6\n      swap5\n      swap4\n      swap3\n      swap2\n      swap1\n      tag_160\n      jump\t// in\n    tag_159:\n      mload(0x40)\n      0x20\n      dup2\n      dup4\n      sub\n      sub\n      dup2\n      mstore\n      swap1\n      0x40\n      mstore\n        /* \"@rari-capital/solmate/src/tokens/ERC20.sol\":5610:5946  keccak256(... */\n      dup1\n      mload\n      swap1\n      0x20\n      add\n      keccak256\n        /* \"@rari-capital/solmate/src/tokens/ERC20.sol\":5591:5946  return... */\n      swap1\n      pop\n        /* \"@rari-capital/solmate/src/tokens/ERC20.sol\":5507:5953  function computeDomainSeparator() internal view virtual returns (bytes32) {... */\n      swap1\n      jump\t// out\n        /* \"#utility.yul\":7:146   */\n    tag_162:\n        /* \"#utility.yul\":53:58   */\n      0x00\n        /* \"#utility.yul\":91:97   */\n      dup2\n        /* \"#utility.yul\":78:98   */\n      calldataload\n        /* \"#utility.yul\":69:98   */\n      swap1\n      pop\n        /* \"#utility.yul\":107:140   */\n      tag_164\n        /* \"#utility.yul\":134:139   */\n      dup2\n        /* \"#utility.yul\":107:140   */\n      tag_165\n      jump\t// in\n    tag_164:\n        /* \"#utility.yul\":7:146   */\n      swap3\n      swap2\n      pop\n      pop\n      jump\t// out\n        /* \"#utility.yul\":152:291   */\n    tag_166:\n        /* \"#utility.yul\":198:203   */\n      0x00\n        /* \"#utility.yul\":236:242   */\n      dup2\n        /* \"#utility.yul\":223:243   */\n      calldataload\n        /* \"#utility.yul\":214:243   */\n      swap1\n      pop\n        /* \"#utility.yul\":252:285   */\n      tag_168\n        /* \"#utility.yul\":279:284   */\n      dup2\n        /* \"#utility.yul\":252:285   */\n      tag_169\n      jump\t// in\n    tag_168:\n        /* \"#utility.yul\":152:291   */\n      swap3\n      swap2\n      pop\n      pop\n      jump\t// out\n        /* \"#utility.yul\":297:436   */\n    tag_170:\n        /* \"#utility.yul\":343:348   */\n      0x00\n        /* \"#utility.yul\":381:387   */\n      dup2\n        /* \"#utility.yul\":368:388   */\n      calldataload\n        /* \"#utility.yul\":359:388   */\n      swap1\n      pop\n        /* \"#utility.yul\":397:430   */\n      tag_172\n        /* \"#utility.yul\":424:429   */\n      dup2\n        /* \"#utility.yul\":397:430   */\n      tag_173\n      jump\t// in\n    tag_172:\n        /* \"#utility.yul\":297:436   */\n      swap3\n      swap2\n      pop\n      pop\n      jump\t// out\n        /* \"#utility.yul\":442:577   */\n    tag_174:\n        /* \"#utility.yul\":486:491   */\n      0x00\n        /* \"#utility.yul\":524:530   */\n      dup2\n        /* \"#utility.yul\":511:531   */\n      calldataload\n        /* \"#utility.yul\":502:531   */\n      swap1\n      pop\n        /* \"#utility.yul\":540:571   */\n      tag_176\n        /* \"#utility.yul\":565:570   */\n      dup2\n        /* \"#utility.yul\":540:571   */\n      tag_177\n      jump\t// in\n    tag_176:\n        /* \"#utility.yul\":442:577   */\n      swap3\n      swap2\n      pop\n      pop\n      jump\t// out\n        /* \"#utility.yul\":583:912   */\n    tag_65:\n        /* \"#utility.yul\":642:648   */\n      0x00\n        /* \"#utility.yul\":691:693   */\n      0x20\n        /* \"#utility.yul\":679:688   */\n      dup3\n        /* \"#utility.yul\":670:677   */\n      dup5\n        /* \"#utility.yul\":666:689   */\n      sub\n        /* \"#utility.yul\":662:694   */\n      slt\n        /* \"#utility.yul\":659:778   */\n      iszero\n      tag_179\n      jumpi\n        /* \"#utility.yul\":697:776   */\n      tag_180\n      tag_181\n      jump\t// in\n    tag_180:\n        /* \"#utility.yul\":659:778   */\n    tag_179:\n        /* \"#utility.yul\":817:818   */\n      0x00\n        /* \"#utility.yul\":842:895   */\n      tag_182\n        /* \"#utility.yul\":887:894   */\n      dup5\n        /* \"#utility.yul\":878:884   */\n      dup3\n        /* \"#utility.yul\":867:876   */\n      dup6\n        /* \"#utility.yul\":863:885   */\n      add\n        /* \"#utility.yul\":842:895   */\n      tag_162\n      jump\t// in\n    tag_182:\n        /* \"#utility.yul\":832:895   */\n      swap2\n      pop\n        /* \"#utility.yul\":788:905   */\n      pop\n        /* \"#utility.yul\":583:912   */\n      swap3\n      swap2\n      pop\n      pop\n      jump\t// out\n        /* \"#utility.yul\":918:1392   */\n    tag_91:\n        /* \"#utility.yul\":986:992   */\n      0x00\n        /* \"#utility.yul\":994:1000   */\n      dup1\n        /* \"#utility.yul\":1043:1045   */\n      0x40\n        /* \"#utility.yul\":1031:1040   */\n      dup4\n        /* \"#utility.yul\":1022:1029   */\n      dup6\n        /* \"#utility.yul\":1018:1041   */\n      sub\n        /* \"#utility.yul\":1014:1046   */\n      slt\n        /* \"#utility.yul\":1011:1130   */\n      iszero\n      tag_184\n      jumpi\n        /* \"#utility.yul\":1049:1128   */\n      tag_185\n      tag_181\n      jump\t// in\n    tag_185:\n        /* \"#utility.yul\":1011:1130   */\n    tag_184:\n        /* \"#utility.yul\":1169:1170   */\n      0x00\n        /* \"#utility.yul\":1194:1247   */\n      tag_186\n        /* \"#utility.yul\":1239:1246   */\n      dup6\n        /* \"#utility.yul\":1230:1236   */\n      dup3\n        /* \"#utility.yul\":1219:1228   */\n      dup7\n        /* \"#utility.yul\":1215:1237   */\n      add\n        /* \"#utility.yul\":1194:1247   */\n      tag_162\n      jump\t// in\n    tag_186:\n        /* \"#utility.yul\":1184:1247   */\n      swap3\n      pop\n        /* \"#utility.yul\":1140:1257   */\n      pop\n        /* \"#utility.yul\":1296:1298   */\n      0x20\n        /* \"#utility.yul\":1322:1375   */\n      tag_187\n        /* \"#utility.yul\":1367:1374   */\n      dup6\n        /* \"#utility.yul\":1358:1364   */\n      dup3\n        /* \"#utility.yul\":1347:1356   */\n      dup7\n        /* \"#utility.yul\":1343:1365   */\n      add\n        /* \"#utility.yul\":1322:1375   */\n      tag_162\n      jump\t// in\n    tag_187:\n        /* \"#utility.yul\":1312:1375   */\n      swap2\n      pop\n        /* \"#utility.yul\":1267:1385   */\n      pop\n        /* \"#utility.yul\":918:1392   */\n      swap3\n      pop\n      swap3\n      swap1\n      pop\n      jump\t// out\n        /* \"#utility.yul\":1398:2017   */\n    tag_44:\n        /* \"#utility.yul\":1475:1481   */\n      0x00\n        /* \"#utility.yul\":1483:1489   */\n      dup1\n        /* \"#utility.yul\":1491:1497   */\n      0x00\n        /* \"#utility.yul\":1540:1542   */\n      0x60\n        /* \"#utility.yul\":1528:1537   */\n      dup5\n        /* \"#utility.yul\":1519:1526   */\n      dup7\n        /* \"#utility.yul\":1515:1538   */\n      sub\n        /* \"#utility.yul\":1511:1543   */\n      slt\n        /* \"#utility.yul\":1508:1627   */\n      iszero\n      tag_189\n      jumpi\n        /* \"#utility.yul\":1546:1625   */\n      tag_190\n      tag_181\n      jump\t// in\n    tag_190:\n        /* \"#utility.yul\":1508:1627   */\n    tag_189:\n        /* \"#utility.yul\":1666:1667   */\n      0x00\n        /* \"#utility.yul\":1691:1744   */\n      tag_191\n        /* \"#utility.yul\":1736:1743   */\n      dup7\n        /* \"#utility.yul\":1727:1733   */\n      dup3\n        /* \"#utility.yul\":1716:1725   */\n      dup8\n        /* \"#utility.yul\":1712:1734   */\n      add\n        /* \"#utility.yul\":1691:1744   */\n      tag_162\n      jump\t// in\n    tag_191:\n        /* \"#utility.yul\":1681:1744   */\n      swap4\n      pop\n        /* \"#utility.yul\":1637:1754   */\n      pop\n        /* \"#utility.yul\":1793:1795   */\n      0x20\n        /* \"#utility.yul\":1819:1872   */\n      tag_192\n        /* \"#utility.yul\":1864:1871   */\n      dup7\n        /* \"#utility.yul\":1855:1861   */\n      dup3\n        /* \"#utility.yul\":1844:1853   */\n      dup8\n        /* \"#utility.yul\":1840:1862   */\n      add\n        /* \"#utility.yul\":1819:1872   */\n      tag_162\n      jump\t// in\n    tag_192:\n        /* \"#utility.yul\":1809:1872   */\n      swap3\n      pop\n        /* \"#utility.yul\":1764:1882   */\n      pop\n        /* \"#utility.yul\":1921:1923   */\n      0x40\n        /* \"#utility.yul\":1947:2000   */\n      tag_193\n        /* \"#utility.yul\":1992:1999   */\n      dup7\n        /* \"#utility.yul\":1983:1989   */\n      dup3\n        /* \"#utility.yul\":1972:1981   */\n      dup8\n        /* \"#utility.yul\":1968:1990   */\n      add\n        /* \"#utility.yul\":1947:2000   */\n      tag_170\n      jump\t// in\n    tag_193:\n        /* \"#utility.yul\":1937:2000   */\n      swap2\n      pop\n        /* \"#utility.yul\":1892:2010   */\n      pop\n        /* \"#utility.yul\":1398:2017   */\n      swap3\n      pop\n      swap3\n      pop\n      swap3\n      jump\t// out\n        /* \"#utility.yul\":2023:3222   */\n    tag_86:\n        /* \"#utility.yul\":2134:2140   */\n      0x00\n        /* \"#utility.yul\":2142:2148   */\n      dup1\n        /* \"#utility.yul\":2150:2156   */\n      0x00\n        /* \"#utility.yul\":2158:2164   */\n      dup1\n        /* \"#utility.yul\":2166:2172   */\n      0x00\n        /* \"#utility.yul\":2174:2180   */\n      dup1\n        /* \"#utility.yul\":2182:2188   */\n      0x00\n        /* \"#utility.yul\":2231:2234   */\n      0xe0\n        /* \"#utility.yul\":2219:2228   */\n      dup9\n        /* \"#utility.yul\":2210:2217   */\n      dup11\n        /* \"#utility.yul\":2206:2229   */\n      sub\n        /* \"#utility.yul\":2202:2235   */\n      slt\n        /* \"#utility.yul\":2199:2319   */\n      iszero\n      tag_195\n      jumpi\n        /* \"#utility.yul\":2238:2317   */\n      tag_196\n      tag_181\n      jump\t// in\n    tag_196:\n        /* \"#utility.yul\":2199:2319   */\n    tag_195:\n        /* \"#utility.yul\":2358:2359   */\n      0x00\n        /* \"#utility.yul\":2383:2436   */\n      tag_197\n        /* \"#utility.yul\":2428:2435   */\n      dup11\n        /* \"#utility.yul\":2419:2425   */\n      dup3\n        /* \"#utility.yul\":2408:2417   */\n      dup12\n        /* \"#utility.yul\":2404:2426   */\n      add\n        /* \"#utility.yul\":2383:2436   */\n      tag_162\n      jump\t// in\n    tag_197:\n        /* \"#utility.yul\":2373:2436   */\n      swap8\n      pop\n        /* \"#utility.yul\":2329:2446   */\n      pop\n        /* \"#utility.yul\":2485:2487   */\n      0x20\n        /* \"#utility.yul\":2511:2564   */\n      tag_198\n        /* \"#utility.yul\":2556:2563   */\n      dup11\n        /* \"#utility.yul\":2547:2553   */\n      dup3\n        /* \"#utility.yul\":2536:2545   */\n      dup12\n        /* \"#utility.yul\":2532:2554   */\n      add\n        /* \"#utility.yul\":2511:2564   */\n      tag_162\n      jump\t// in\n    tag_198:\n        /* \"#utility.yul\":2501:2564   */\n      swap7\n      pop\n        /* \"#utility.yul\":2456:2574   */\n      pop\n        /* \"#utility.yul\":2613:2615   */\n      0x40\n        /* \"#utility.yul\":2639:2692   */\n      tag_199\n        /* \"#utility.yul\":2684:2691   */\n      dup11\n        /* \"#utility.yul\":2675:2681   */\n      dup3\n        /* \"#utility.yul\":2664:2673   */\n      dup12\n        /* \"#utility.yul\":2660:2682   */\n      add\n        /* \"#utility.yul\":2639:2692   */\n      tag_170\n      jump\t// in\n    tag_199:\n        /* \"#utility.yul\":2629:2692   */\n      swap6\n      pop\n        /* \"#utility.yul\":2584:2702   */\n      pop\n        /* \"#utility.yul\":2741:2743   */\n      0x60\n        /* \"#utility.yul\":2767:2820   */\n      tag_200\n        /* \"#utility.yul\":2812:2819   */\n      dup11\n        /* \"#utility.yul\":2803:2809   */\n      dup3\n        /* \"#utility.yul\":2792:2801   */\n      dup12\n        /* \"#utility.yul\":2788:2810   */\n      add\n        /* \"#utility.yul\":2767:2820   */\n      tag_170\n      jump\t// in\n    tag_200:\n        /* \"#utility.yul\":2757:2820   */\n      swap5\n      pop\n        /* \"#utility.yul\":2712:2830   */\n      pop\n        /* \"#utility.yul\":2869:2872   */\n      0x80\n        /* \"#utility.yul\":2896:2947   */\n      tag_201\n        /* \"#utility.yul\":2939:2946   */\n      dup11\n        /* \"#utility.yul\":2930:2936   */\n      dup3\n        /* \"#utility.yul\":2919:2928   */\n      dup12\n        /* \"#utility.yul\":2915:2937   */\n      add\n        /* \"#utility.yul\":2896:2947   */\n      tag_174\n      jump\t// in\n    tag_201:\n        /* \"#utility.yul\":2886:2947   */\n      swap4\n      pop\n        /* \"#utility.yul\":2840:2957   */\n      pop\n        /* \"#utility.yul\":2996:2999   */\n      0xa0\n        /* \"#utility.yul\":3023:3076   */\n      tag_202\n        /* \"#utility.yul\":3068:3075   */\n      dup11\n        /* \"#utility.yul\":3059:3065   */\n      dup3\n        /* \"#utility.yul\":3048:3057   */\n      dup12\n        /* \"#utility.yul\":3044:3066   */\n      add\n        /* \"#utility.yul\":3023:3076   */\n      tag_166\n      jump\t// in\n    tag_202:\n        /* \"#utility.yul\":3013:3076   */\n      swap3\n      pop\n        /* \"#utility.yul\":2967:3086   */\n      pop\n        /* \"#utility.yul\":3125:3128   */\n      0xc0\n        /* \"#utility.yul\":3152:3205   */\n      tag_203\n        /* \"#utility.yul\":3197:3204   */\n      dup11\n        /* \"#utility.yul\":3188:3194   */\n      dup3\n        /* \"#utility.yul\":3177:3186   */\n      dup12\n        /* \"#utility.yul\":3173:3195   */\n      add\n        /* \"#utility.yul\":3152:3205   */\n      tag_166\n      jump\t// in\n    tag_203:\n        /* \"#utility.yul\":3142:3205   */\n      swap2\n      pop\n        /* \"#utility.yul\":3096:3215   */\n      pop\n        /* \"#utility.yul\":2023:3222   */\n      swap3\n      swap6\n      swap9\n      swap2\n      swap5\n      swap8\n      pop\n      swap3\n      swap6\n      pop\n      jump\t// out\n        /* \"#utility.yul\":3228:3702   */\n    tag_32:\n        /* \"#utility.yul\":3296:3302   */\n      0x00\n        /* \"#utility.yul\":3304:3310   */\n      dup1\n        /* \"#utility.yul\":3353:3355   */\n      0x40\n        /* \"#utility.yul\":3341:3350   */\n      dup4\n        /* \"#utility.yul\":3332:3339   */\n      dup6\n        /* \"#utility.yul\":3328:3351   */\n      sub\n        /* \"#utility.yul\":3324:3356   */\n      slt\n        /* \"#utility.yul\":3321:3440   */\n      iszero\n      tag_205\n      jumpi\n        /* \"#utility.yul\":3359:3438   */\n      tag_206\n      tag_181\n      jump\t// in\n    tag_206:\n        /* \"#utility.yul\":3321:3440   */\n    tag_205:\n        /* \"#utility.yul\":3479:3480   */\n      0x00\n        /* \"#utility.yul\":3504:3557   */\n      tag_207\n        /* \"#utility.yul\":3549:3556   */\n      dup6\n        /* \"#utility.yul\":3540:3546   */\n      dup3\n        /* \"#utility.yul\":3529:3538   */\n      dup7\n        /* \"#utility.yul\":3525:3547   */\n      add\n        /* \"#utility.yul\":3504:3557   */\n      tag_162\n      jump\t// in\n    tag_207:\n        /* \"#utility.yul\":3494:3557   */\n      swap3\n      pop\n        /* \"#utility.yul\":3450:3567   */\n      pop\n        /* \"#utility.yul\":3606:3608   */\n      0x20\n        /* \"#utility.yul\":3632:3685   */\n      tag_208\n        /* \"#utility.yul\":3677:3684   */\n      dup6\n        /* \"#utility.yul\":3668:3674   */\n      dup3\n        /* \"#utility.yul\":3657:3666   */\n      dup7\n        /* \"#utility.yul\":3653:3675   */\n      add\n        /* \"#utility.yul\":3632:3685   */\n      tag_170\n      jump\t// in\n    tag_208:\n        /* \"#utility.yul\":3622:3685   */\n      swap2\n      pop\n        /* \"#utility.yul\":3577:3695   */\n      pop\n        /* \"#utility.yul\":3228:3702   */\n      swap3\n      pop\n      swap3\n      swap1\n      pop\n      jump\t// out\n        /* \"#utility.yul\":3708:4037   */\n    tag_50:\n        /* \"#utility.yul\":3767:3773   */\n      0x00\n        /* \"#utility.yul\":3816:3818   */\n      0x20\n        /* \"#utility.yul\":3804:3813   */\n      dup3\n        /* \"#utility.yul\":3795:3802   */\n      dup5\n        /* \"#utility.yul\":3791:3814   */\n      sub\n        /* \"#utility.yul\":3787:3819   */\n      slt\n        /* \"#utility.yul\":3784:3903   */\n      iszero\n      tag_210\n      jumpi\n        /* \"#utility.yul\":3822:3901   */\n      tag_211\n      tag_181\n      jump\t// in\n    tag_211:\n        /* \"#utility.yul\":3784:3903   */\n    tag_210:\n        /* \"#utility.yul\":3942:3943   */\n      0x00\n        /* \"#utility.yul\":3967:4020   */\n      tag_212\n        /* \"#utility.yul\":4012:4019   */\n      dup5\n        /* \"#utility.yul\":4003:4009   */\n      dup3\n        /* \"#utility.yul\":3992:4001   */\n      dup6\n        /* \"#utility.yul\":3988:4010   */\n      add\n        /* \"#utility.yul\":3967:4020   */\n      tag_170\n      jump\t// in\n    tag_212:\n        /* \"#utility.yul\":3957:4020   */\n      swap2\n      pop\n        /* \"#utility.yul\":3913:4030   */\n      pop\n        /* \"#utility.yul\":3708:4037   */\n      swap3\n      swap2\n      pop\n      pop\n      jump\t// out\n        /* \"#utility.yul\":4043:4161   */\n    tag_213:\n        /* \"#utility.yul\":4130:4154   */\n      tag_215\n        /* \"#utility.yul\":4148:4153   */\n      dup2\n        /* \"#utility.yul\":4130:4154   */\n      tag_216\n      jump\t// in\n    tag_215:\n        /* \"#utility.yul\":4125:4128   */\n      dup3\n        /* \"#utility.yul\":4118:4155   */\n      mstore\n        /* \"#utility.yul\":4043:4161   */\n      pop\n      pop\n      jump\t// out\n        /* \"#utility.yul\":4167:4276   */\n    tag_217:\n        /* \"#utility.yul\":4248:4269   */\n      tag_219\n        /* \"#utility.yul\":4263:4268   */\n      dup2\n        /* \"#utility.yul\":4248:4269   */\n      tag_220\n      jump\t// in\n    tag_219:\n        /* \"#utility.yul\":4243:4246   */\n      dup3\n        /* \"#utility.yul\":4236:4270   */\n      mstore\n        /* \"#utility.yul\":4167:4276   */\n      pop\n      pop\n      jump\t// out\n        /* \"#utility.yul\":4282:4400   */\n    tag_221:\n        /* \"#utility.yul\":4369:4393   */\n      tag_223\n        /* \"#utility.yul\":4387:4392   */\n      dup2\n        /* \"#utility.yul\":4369:4393   */\n      tag_224\n      jump\t// in\n    tag_223:\n        /* \"#utility.yul\":4364:4367   */\n      dup3\n        /* \"#utility.yul\":4357:4394   */\n      mstore\n        /* \"#utility.yul\":4282:4400   */\n      pop\n      pop\n      jump\t// out\n        /* \"#utility.yul\":4406:4563   */\n    tag_225:\n        /* \"#utility.yul\":4511:4556   */\n      tag_227\n        /* \"#utility.yul\":4531:4555   */\n      tag_228\n        /* \"#utility.yul\":4549:4554   */\n      dup3\n        /* \"#utility.yul\":4531:4555   */\n      tag_224\n      jump\t// in\n    tag_228:\n        /* \"#utility.yul\":4511:4556   */\n      tag_229\n      jump\t// in\n    tag_227:\n        /* \"#utility.yul\":4506:4509   */\n      dup3\n        /* \"#utility.yul\":4499:4557   */\n      mstore\n        /* \"#utility.yul\":4406:4563   */\n      pop\n      pop\n      jump\t// out\n        /* \"#utility.yul\":4591:5440   */\n    tag_230:\n        /* \"#utility.yul\":4696:4699   */\n      0x00\n        /* \"#utility.yul\":4733:4738   */\n      dup2\n        /* \"#utility.yul\":4727:4739   */\n      sload\n        /* \"#utility.yul\":4762:4798   */\n      tag_232\n        /* \"#utility.yul\":4788:4797   */\n      dup2\n        /* \"#utility.yul\":4762:4798   */\n      tag_99\n      jump\t// in\n    tag_232:\n        /* \"#utility.yul\":4814:4902   */\n      tag_233\n        /* \"#utility.yul\":4895:4901   */\n      dup2\n        /* \"#utility.yul\":4890:4893   */\n      dup7\n        /* \"#utility.yul\":4814:4902   */\n      tag_234\n      jump\t// in\n    tag_233:\n        /* \"#utility.yul\":4807:4902   */\n      swap5\n      pop\n        /* \"#utility.yul\":4933:4934   */\n      0x01\n        /* \"#utility.yul\":4922:4931   */\n      dup3\n        /* \"#utility.yul\":4918:4935   */\n      and\n        /* \"#utility.yul\":4949:4950   */\n      0x00\n        /* \"#utility.yul\":4944:5081   */\n      dup2\n      eq\n      tag_236\n      jumpi\n        /* \"#utility.yul\":5095:5096   */\n      0x01\n        /* \"#utility.yul\":5090:5434   */\n      dup2\n      eq\n      tag_237\n      jumpi\n        /* \"#utility.yul\":4911:5434   */\n      jump(tag_235)\n        /* \"#utility.yul\":4944:5081   */\n    tag_236:\n        /* \"#utility.yul\":5028:5032   */\n      0xff\n        /* \"#utility.yul\":5024:5033   */\n      not\n        /* \"#utility.yul\":5013:5022   */\n      dup4\n        /* \"#utility.yul\":5009:5034   */\n      and\n        /* \"#utility.yul\":5004:5007   */\n      dup7\n        /* \"#utility.yul\":4997:5035   */\n      mstore\n        /* \"#utility.yul\":5064:5070   */\n      dup2\n        /* \"#utility.yul\":5059:5062   */\n      dup7\n        /* \"#utility.yul\":5055:5071   */\n      add\n        /* \"#utility.yul\":5048:5071   */\n      swap4\n      pop\n        /* \"#utility.yul\":4944:5081   */\n      jump(tag_235)\n        /* \"#utility.yul\":5090:5434   */\n    tag_237:\n        /* \"#utility.yul\":5157:5198   */\n      tag_238\n        /* \"#utility.yul\":5192:5197   */\n      dup6\n        /* \"#utility.yul\":5157:5198   */\n      tag_239\n      jump\t// in\n    tag_238:\n        /* \"#utility.yul\":5220:5221   */\n      0x00\n        /* \"#utility.yul\":5234:5388   */\n    tag_240:\n        /* \"#utility.yul\":5248:5254   */\n      dup4\n        /* \"#utility.yul\":5245:5246   */\n      dup2\n        /* \"#utility.yul\":5242:5255   */\n      lt\n        /* \"#utility.yul\":5234:5388   */\n      iszero\n      tag_242\n      jumpi\n        /* \"#utility.yul\":5322:5329   */\n      dup2\n        /* \"#utility.yul\":5316:5330   */\n      sload\n        /* \"#utility.yul\":5312:5313   */\n      dup2\n        /* \"#utility.yul\":5307:5310   */\n      dup10\n        /* \"#utility.yul\":5303:5314   */\n      add\n        /* \"#utility.yul\":5296:5331   */\n      mstore\n        /* \"#utility.yul\":5372:5373   */\n      0x01\n        /* \"#utility.yul\":5363:5370   */\n      dup3\n        /* \"#utility.yul\":5359:5374   */\n      add\n        /* \"#utility.yul\":5348:5374   */\n      swap2\n      pop\n        /* \"#utility.yul\":5270:5274   */\n      0x20\n        /* \"#utility.yul\":5267:5268   */\n      dup2\n        /* \"#utility.yul\":5263:5275   */\n      add\n        /* \"#utility.yul\":5258:5275   */\n      swap1\n      pop\n        /* \"#utility.yul\":5234:5388   */\n      jump(tag_240)\n    tag_242:\n        /* \"#utility.yul\":5417:5423   */\n      dup4\n        /* \"#utility.yul\":5412:5415   */\n      dup9\n        /* \"#utility.yul\":5408:5424   */\n      add\n        /* \"#utility.yul\":5401:5424   */\n      swap6\n      pop\n        /* \"#utility.yul\":5097:5434   */\n      pop\n      pop\n        /* \"#utility.yul\":4911:5434   */\n    tag_235:\n      pop\n        /* \"#utility.yul\":4700:5440   */\n      pop\n      pop\n        /* \"#utility.yul\":4591:5440   */\n      swap3\n      swap2\n      pop\n      pop\n      jump\t// out\n        /* \"#utility.yul\":5446:5810   */\n    tag_243:\n        /* \"#utility.yul\":5534:5537   */\n      0x00\n        /* \"#utility.yul\":5562:5601   */\n      tag_245\n        /* \"#utility.yul\":5595:5600   */\n      dup3\n        /* \"#utility.yul\":5562:5601   */\n      tag_246\n      jump\t// in\n    tag_245:\n        /* \"#utility.yul\":5617:5688   */\n      tag_247\n        /* \"#utility.yul\":5681:5687   */\n      dup2\n        /* \"#utility.yul\":5676:5679   */\n      dup6\n        /* \"#utility.yul\":5617:5688   */\n      tag_248\n      jump\t// in\n    tag_247:\n        /* \"#utility.yul\":5610:5688   */\n      swap4\n      pop\n        /* \"#utility.yul\":5697:5749   */\n      tag_249\n        /* \"#utility.yul\":5742:5748   */\n      dup2\n        /* \"#utility.yul\":5737:5740   */\n      dup6\n        /* \"#utility.yul\":5730:5734   */\n      0x20\n        /* \"#utility.yul\":5723:5728   */\n      dup7\n        /* \"#utility.yul\":5719:5735   */\n      add\n        /* \"#utility.yul\":5697:5749   */\n      tag_250\n      jump\t// in\n    tag_249:\n        /* \"#utility.yul\":5774:5803   */\n      tag_251\n        /* \"#utility.yul\":5796:5802   */\n      dup2\n        /* \"#utility.yul\":5774:5803   */\n      tag_252\n      jump\t// in\n    tag_251:\n        /* \"#utility.yul\":5769:5772   */\n      dup5\n        /* \"#utility.yul\":5765:5804   */\n      add\n        /* \"#utility.yul\":5758:5804   */\n      swap2\n      pop\n        /* \"#utility.yul\":5538:5810   */\n      pop\n        /* \"#utility.yul\":5446:5810   */\n      swap3\n      swap2\n      pop\n      pop\n      jump\t// out\n        /* \"#utility.yul\":5816:6216   */\n    tag_253:\n        /* \"#utility.yul\":5976:5979   */\n      0x00\n        /* \"#utility.yul\":5997:6081   */\n      tag_255\n        /* \"#utility.yul\":6079:6080   */\n      0x02\n        /* \"#utility.yul\":6074:6077   */\n      dup4\n        /* \"#utility.yul\":5997:6081   */\n      tag_256\n      jump\t// in\n    tag_255:\n        /* \"#utility.yul\":5990:6081   */\n      swap2\n      pop\n        /* \"#utility.yul\":6090:6183   */\n      tag_257\n        /* \"#utility.yul\":6179:6182   */\n      dup3\n        /* \"#utility.yul\":6090:6183   */\n      tag_258\n      jump\t// in\n    tag_257:\n        /* \"#utility.yul\":6208:6209   */\n      0x02\n        /* \"#utility.yul\":6203:6206   */\n      dup3\n        /* \"#utility.yul\":6199:6210   */\n      add\n        /* \"#utility.yul\":6192:6210   */\n      swap1\n      pop\n        /* \"#utility.yul\":5816:6216   */\n      swap2\n      swap1\n      pop\n      jump\t// out\n        /* \"#utility.yul\":6222:6588   */\n    tag_259:\n        /* \"#utility.yul\":6364:6367   */\n      0x00\n        /* \"#utility.yul\":6385:6452   */\n      tag_261\n        /* \"#utility.yul\":6449:6451   */\n      0x0e\n        /* \"#utility.yul\":6444:6447   */\n      dup4\n        /* \"#utility.yul\":6385:6452   */\n      tag_248\n      jump\t// in\n    tag_261:\n        /* \"#utility.yul\":6378:6452   */\n      swap2\n      pop\n        /* \"#utility.yul\":6461:6554   */\n      tag_262\n        /* \"#utility.yul\":6550:6553   */\n      dup3\n        /* \"#utility.yul\":6461:6554   */\n      tag_263\n      jump\t// in\n    tag_262:\n        /* \"#utility.yul\":6579:6581   */\n      0x20\n        /* \"#utility.yul\":6574:6577   */\n      dup3\n        /* \"#utility.yul\":6570:6582   */\n      add\n        /* \"#utility.yul\":6563:6582   */\n      swap1\n      pop\n        /* \"#utility.yul\":6222:6588   */\n      swap2\n      swap1\n      pop\n      jump\t// out\n        /* \"#utility.yul\":6594:6960   */\n    tag_264:\n        /* \"#utility.yul\":6736:6739   */\n      0x00\n        /* \"#utility.yul\":6757:6824   */\n      tag_266\n        /* \"#utility.yul\":6821:6823   */\n      0x17\n        /* \"#utility.yul\":6816:6819   */\n      dup4\n        /* \"#utility.yul\":6757:6824   */\n      tag_248\n      jump\t// in\n    tag_266:\n        /* \"#utility.yul\":6750:6824   */\n      swap2\n      pop\n        /* \"#utility.yul\":6833:6926   */\n      tag_267\n        /* \"#utility.yul\":6922:6925   */\n      dup3\n        /* \"#utility.yul\":6833:6926   */\n      tag_268\n      jump\t// in\n    tag_267:\n        /* \"#utility.yul\":6951:6953   */\n      0x20\n        /* \"#utility.yul\":6946:6949   */\n      dup3\n        /* \"#utility.yul\":6942:6954   */\n      add\n        /* \"#utility.yul\":6935:6954   */\n      swap1\n      pop\n        /* \"#utility.yul\":6594:6960   */\n      swap2\n      swap1\n      pop\n      jump\t// out\n        /* \"#utility.yul\":6966:7084   */\n    tag_269:\n        /* \"#utility.yul\":7053:7077   */\n      tag_271\n        /* \"#utility.yul\":7071:7076   */\n      dup2\n        /* \"#utility.yul\":7053:7077   */\n      tag_272\n      jump\t// in\n    tag_271:\n        /* \"#utility.yul\":7048:7051   */\n      dup3\n        /* \"#utility.yul\":7041:7078   */\n      mstore\n        /* \"#utility.yul\":6966:7084   */\n      pop\n      pop\n      jump\t// out\n        /* \"#utility.yul\":7090:7202   */\n    tag_273:\n        /* \"#utility.yul\":7173:7195   */\n      tag_275\n        /* \"#utility.yul\":7189:7194   */\n      dup2\n        /* \"#utility.yul\":7173:7195   */\n      tag_276\n      jump\t// in\n    tag_275:\n        /* \"#utility.yul\":7168:7171   */\n      dup3\n        /* \"#utility.yul\":7161:7196   */\n      mstore\n        /* \"#utility.yul\":7090:7202   */\n      pop\n      pop\n      jump\t// out\n        /* \"#utility.yul\":7208:7481   */\n    tag_158:\n        /* \"#utility.yul\":7339:7342   */\n      0x00\n        /* \"#utility.yul\":7361:7455   */\n      tag_278\n        /* \"#utility.yul\":7451:7454   */\n      dup3\n        /* \"#utility.yul\":7442:7448   */\n      dup5\n        /* \"#utility.yul\":7361:7455   */\n      tag_230\n      jump\t// in\n    tag_278:\n        /* \"#utility.yul\":7354:7455   */\n      swap2\n      pop\n        /* \"#utility.yul\":7472:7475   */\n      dup2\n        /* \"#utility.yul\":7465:7475   */\n      swap1\n      pop\n        /* \"#utility.yul\":7208:7481   */\n      swap3\n      swap2\n      pop\n      pop\n      jump\t// out\n        /* \"#utility.yul\":7487:8150   */\n    tag_139:\n        /* \"#utility.yul\":7728:7731   */\n      0x00\n        /* \"#utility.yul\":7750:7898   */\n      tag_280\n        /* \"#utility.yul\":7894:7897   */\n      dup3\n        /* \"#utility.yul\":7750:7898   */\n      tag_253\n      jump\t// in\n    tag_280:\n        /* \"#utility.yul\":7743:7898   */\n      swap2\n      pop\n        /* \"#utility.yul\":7908:7983   */\n      tag_281\n        /* \"#utility.yul\":7979:7982   */\n      dup3\n        /* \"#utility.yul\":7970:7976   */\n      dup6\n        /* \"#utility.yul\":7908:7983   */\n      tag_225\n      jump\t// in\n    tag_281:\n        /* \"#utility.yul\":8008:8010   */\n      0x20\n        /* \"#utility.yul\":8003:8006   */\n      dup3\n        /* \"#utility.yul\":7999:8011   */\n      add\n        /* \"#utility.yul\":7992:8011   */\n      swap2\n      pop\n        /* \"#utility.yul\":8021:8096   */\n      tag_282\n        /* \"#utility.yul\":8092:8095   */\n      dup3\n        /* \"#utility.yul\":8083:8089   */\n      dup5\n        /* \"#utility.yul\":8021:8096   */\n      tag_225\n      jump\t// in\n    tag_282:\n        /* \"#utility.yul\":8121:8123   */\n      0x20\n        /* \"#utility.yul\":8116:8119   */\n      dup3\n        /* \"#utility.yul\":8112:8124   */\n      add\n        /* \"#utility.yul\":8105:8124   */\n      swap2\n      pop\n        /* \"#utility.yul\":8141:8144   */\n      dup2\n        /* \"#utility.yul\":8134:8144   */\n      swap1\n      pop\n        /* \"#utility.yul\":7487:8150   */\n      swap4\n      swap3\n      pop\n      pop\n      pop\n      jump\t// out\n        /* \"#utility.yul\":8156:8366   */\n    tag_35:\n        /* \"#utility.yul\":8243:8247   */\n      0x00\n        /* \"#utility.yul\":8281:8283   */\n      0x20\n        /* \"#utility.yul\":8270:8279   */\n      dup3\n        /* \"#utility.yul\":8266:8284   */\n      add\n        /* \"#utility.yul\":8258:8284   */\n      swap1\n      pop\n        /* \"#utility.yul\":8294:8359   */\n      tag_284\n        /* \"#utility.yul\":8356:8357   */\n      0x00\n        /* \"#utility.yul\":8345:8354   */\n      dup4\n        /* \"#utility.yul\":8341:8358   */\n      add\n        /* \"#utility.yul\":8332:8338   */\n      dup5\n        /* \"#utility.yul\":8294:8359   */\n      tag_217\n      jump\t// in\n    tag_284:\n        /* \"#utility.yul\":8156:8366   */\n      swap3\n      swap2\n      pop\n      pop\n      jump\t// out\n        /* \"#utility.yul\":8372:8594   */\n    tag_61:\n        /* \"#utility.yul\":8465:8469   */\n      0x00\n        /* \"#utility.yul\":8503:8505   */\n      0x20\n        /* \"#utility.yul\":8492:8501   */\n      dup3\n        /* \"#utility.yul\":8488:8506   */\n      add\n        /* \"#utility.yul\":8480:8506   */\n      swap1\n      pop\n        /* \"#utility.yul\":8516:8587   */\n      tag_286\n        /* \"#utility.yul\":8584:8585   */\n      0x00\n        /* \"#utility.yul\":8573:8582   */\n      dup4\n        /* \"#utility.yul\":8569:8586   */\n      add\n        /* \"#utility.yul\":8560:8566   */\n      dup5\n        /* \"#utility.yul\":8516:8587   */\n      tag_221\n      jump\t// in\n    tag_286:\n        /* \"#utility.yul\":8372:8594   */\n      swap3\n      swap2\n      pop\n      pop\n      jump\t// out\n        /* \"#utility.yul\":8600:9375   */\n    tag_137:\n        /* \"#utility.yul\":8833:8837   */\n      0x00\n        /* \"#utility.yul\":8871:8874   */\n      0xc0\n        /* \"#utility.yul\":8860:8869   */\n      dup3\n        /* \"#utility.yul\":8856:8875   */\n      add\n        /* \"#utility.yul\":8848:8875   */\n      swap1\n      pop\n        /* \"#utility.yul\":8885:8956   */\n      tag_288\n        /* \"#utility.yul\":8953:8954   */\n      0x00\n        /* \"#utility.yul\":8942:8951   */\n      dup4\n        /* \"#utility.yul\":8938:8955   */\n      add\n        /* \"#utility.yul\":8929:8935   */\n      dup10\n        /* \"#utility.yul\":8885:8956   */\n      tag_221\n      jump\t// in\n    tag_288:\n        /* \"#utility.yul\":8966:9038   */\n      tag_289\n        /* \"#utility.yul\":9034:9036   */\n      0x20\n        /* \"#utility.yul\":9023:9032   */\n      dup4\n        /* \"#utility.yul\":9019:9037   */\n      add\n        /* \"#utility.yul\":9010:9016   */\n      dup9\n        /* \"#utility.yul\":8966:9038   */\n      tag_213\n      jump\t// in\n    tag_289:\n        /* \"#utility.yul\":9048:9120   */\n      tag_290\n        /* \"#utility.yul\":9116:9118   */\n      0x40\n        /* \"#utility.yul\":9105:9114   */\n      dup4\n        /* \"#utility.yul\":9101:9119   */\n      add\n        /* \"#utility.yul\":9092:9098   */\n      dup8\n        /* \"#utility.yul\":9048:9120   */\n      tag_213\n      jump\t// in\n    tag_290:\n        /* \"#utility.yul\":9130:9202   */\n      tag_291\n        /* \"#utility.yul\":9198:9200   */\n      0x60\n        /* \"#utility.yul\":9187:9196   */\n      dup4\n        /* \"#utility.yul\":9183:9201   */\n      add\n        /* \"#utility.yul\":9174:9180   */\n      dup7\n        /* \"#utility.yul\":9130:9202   */\n      tag_269\n      jump\t// in\n    tag_291:\n        /* \"#utility.yul\":9212:9285   */\n      tag_292\n        /* \"#utility.yul\":9280:9283   */\n      0x80\n        /* \"#utility.yul\":9269:9278   */\n      dup4\n        /* \"#utility.yul\":9265:9284   */\n      add\n        /* \"#utility.yul\":9256:9262   */\n      dup6\n        /* \"#utility.yul\":9212:9285   */\n      tag_269\n      jump\t// in\n    tag_292:\n        /* \"#utility.yul\":9295:9368   */\n      tag_293\n        /* \"#utility.yul\":9363:9366   */\n      0xa0\n        /* \"#utility.yul\":9352:9361   */\n      dup4\n        /* \"#utility.yul\":9348:9367   */\n      add\n        /* \"#utility.yul\":9339:9345   */\n      dup5\n        /* \"#utility.yul\":9295:9368   */\n      tag_269\n      jump\t// in\n    tag_293:\n        /* \"#utility.yul\":8600:9375   */\n      swap8\n      swap7\n      pop\n      pop\n      pop\n      pop\n      pop\n      pop\n      pop\n      jump\t// out\n        /* \"#utility.yul\":9381:10045   */\n    tag_160:\n        /* \"#utility.yul\":9586:9590   */\n      0x00\n        /* \"#utility.yul\":9624:9627   */\n      0xa0\n        /* \"#utility.yul\":9613:9622   */\n      dup3\n        /* \"#utility.yul\":9609:9628   */\n      add\n        /* \"#utility.yul\":9601:9628   */\n      swap1\n      pop\n        /* \"#utility.yul\":9638:9709   */\n      tag_295\n        /* \"#utility.yul\":9706:9707   */\n      0x00\n        /* \"#utility.yul\":9695:9704   */\n      dup4\n        /* \"#utility.yul\":9691:9708   */\n      add\n        /* \"#utility.yul\":9682:9688   */\n      dup9\n        /* \"#utility.yul\":9638:9709   */\n      tag_221\n      jump\t// in\n    tag_295:\n        /* \"#utility.yul\":9719:9791   */\n      tag_296\n        /* \"#utility.yul\":9787:9789   */\n      0x20\n        /* \"#utility.yul\":9776:9785   */\n      dup4\n        /* \"#utility.yul\":9772:9790   */\n      add\n        /* \"#utility.yul\":9763:9769   */\n      dup8\n        /* \"#utility.yul\":9719:9791   */\n      tag_221\n      jump\t// in\n    tag_296:\n        /* \"#utility.yul\":9801:9873   */\n      tag_297\n        /* \"#utility.yul\":9869:9871   */\n      0x40\n        /* \"#utility.yul\":9858:9867   */\n      dup4\n        /* \"#utility.yul\":9854:9872   */\n      add\n        /* \"#utility.yul\":9845:9851   */\n      dup7\n        /* \"#utility.yul\":9801:9873   */\n      tag_221\n      jump\t// in\n    tag_297:\n        /* \"#utility.yul\":9883:9955   */\n      tag_298\n        /* \"#utility.yul\":9951:9953   */\n      0x60\n        /* \"#utility.yul\":9940:9949   */\n      dup4\n        /* \"#utility.yul\":9936:9954   */\n      add\n        /* \"#utility.yul\":9927:9933   */\n      dup6\n        /* \"#utility.yul\":9883:9955   */\n      tag_269\n      jump\t// in\n    tag_298:\n        /* \"#utility.yul\":9965:10038   */\n      tag_299\n        /* \"#utility.yul\":10033:10036   */\n      0x80\n        /* \"#utility.yul\":10022:10031   */\n      dup4\n        /* \"#utility.yul\":10018:10037   */\n      add\n        /* \"#utility.yul\":10009:10015   */\n      dup5\n        /* \"#utility.yul\":9965:10038   */\n      tag_213\n      jump\t// in\n    tag_299:\n        /* \"#utility.yul\":9381:10045   */\n      swap7\n      swap6\n      pop\n      pop\n      pop\n      pop\n      pop\n      pop\n      jump\t// out\n        /* \"#utility.yul\":10051:10596   */\n    tag_141:\n        /* \"#utility.yul\":10224:10228   */\n      0x00\n        /* \"#utility.yul\":10262:10265   */\n      0x80\n        /* \"#utility.yul\":10251:10260   */\n      dup3\n        /* \"#utility.yul\":10247:10266   */\n      add\n        /* \"#utility.yul\":10239:10266   */\n      swap1\n      pop\n        /* \"#utility.yul\":10276:10347   */\n      tag_301\n        /* \"#utility.yul\":10344:10345   */\n      0x00\n        /* \"#utility.yul\":10333:10342   */\n      dup4\n        /* \"#utility.yul\":10329:10346   */\n      add\n        /* \"#utility.yul\":10320:10326   */\n      dup8\n        /* \"#utility.yul\":10276:10347   */\n      tag_221\n      jump\t// in\n    tag_301:\n        /* \"#utility.yul\":10357:10425   */\n      tag_302\n        /* \"#utility.yul\":10421:10423   */\n      0x20\n        /* \"#utility.yul\":10410:10419   */\n      dup4\n        /* \"#utility.yul\":10406:10424   */\n      add\n        /* \"#utility.yul\":10397:10403   */\n      dup7\n        /* \"#utility.yul\":10357:10425   */\n      tag_273\n      jump\t// in\n    tag_302:\n        /* \"#utility.yul\":10435:10507   */\n      tag_303\n        /* \"#utility.yul\":10503:10505   */\n      0x40\n        /* \"#utility.yul\":10492:10501   */\n      dup4\n        /* \"#utility.yul\":10488:10506   */\n      add\n        /* \"#utility.yul\":10479:10485   */\n      dup6\n        /* \"#utility.yul\":10435:10507   */\n      tag_221\n      jump\t// in\n    tag_303:\n        /* \"#utility.yul\":10517:10589   */\n      tag_304\n        /* \"#utility.yul\":10585:10587   */\n      0x60\n        /* \"#utility.yul\":10574:10583   */\n      dup4\n        /* \"#utility.yul\":10570:10588   */\n      add\n        /* \"#utility.yul\":10561:10567   */\n      dup5\n        /* \"#utility.yul\":10517:10589   */\n      tag_221\n      jump\t// in\n    tag_304:\n        /* \"#utility.yul\":10051:10596   */\n      swap6\n      swap5\n      pop\n      pop\n      pop\n      pop\n      pop\n      jump\t// out\n        /* \"#utility.yul\":10602:10915   */\n    tag_28:\n        /* \"#utility.yul\":10715:10719   */\n      0x00\n        /* \"#utility.yul\":10753:10755   */\n      0x20\n        /* \"#utility.yul\":10742:10751   */\n      dup3\n        /* \"#utility.yul\":10738:10756   */\n      add\n        /* \"#utility.yul\":10730:10756   */\n      swap1\n      pop\n        /* \"#utility.yul\":10802:10811   */\n      dup2\n        /* \"#utility.yul\":10796:10800   */\n      dup2\n        /* \"#utility.yul\":10792:10812   */\n      sub\n        /* \"#utility.yul\":10788:10789   */\n      0x00\n        /* \"#utility.yul\":10777:10786   */\n      dup4\n        /* \"#utility.yul\":10773:10790   */\n      add\n        /* \"#utility.yul\":10766:10813   */\n      mstore\n        /* \"#utility.yul\":10830:10908   */\n      tag_306\n        /* \"#utility.yul\":10903:10907   */\n      dup2\n        /* \"#utility.yul\":10894:10900   */\n      dup5\n        /* \"#utility.yul\":10830:10908   */\n      tag_243\n      jump\t// in\n    tag_306:\n        /* \"#utility.yul\":10822:10908   */\n      swap1\n      pop\n        /* \"#utility.yul\":10602:10915   */\n      swap3\n      swap2\n      pop\n      pop\n      jump\t// out\n        /* \"#utility.yul\":10921:11340   */\n    tag_147:\n        /* \"#utility.yul\":11087:11091   */\n      0x00\n        /* \"#utility.yul\":11125:11127   */\n      0x20\n        /* \"#utility.yul\":11114:11123   */\n      dup3\n        /* \"#utility.yul\":11110:11128   */\n      add\n        /* \"#utility.yul\":11102:11128   */\n      swap1\n      pop\n        /* \"#utility.yul\":11174:11183   */\n      dup2\n        /* \"#utility.yul\":11168:11172   */\n      dup2\n        /* \"#utility.yul\":11164:11184   */\n      sub\n        /* \"#utility.yul\":11160:11161   */\n      0x00\n        /* \"#utility.yul\":11149:11158   */\n      dup4\n        /* \"#utility.yul\":11145:11162   */\n      add\n        /* \"#utility.yul\":11138:11185   */\n      mstore\n        /* \"#utility.yul\":11202:11333   */\n      tag_308\n        /* \"#utility.yul\":11328:11332   */\n      dup2\n        /* \"#utility.yul\":11202:11333   */\n      tag_259\n      jump\t// in\n    tag_308:\n        /* \"#utility.yul\":11194:11333   */\n      swap1\n      pop\n        /* \"#utility.yul\":10921:11340   */\n      swap2\n      swap1\n      pop\n      jump\t// out\n        /* \"#utility.yul\":11346:11765   */\n    tag_134:\n        /* \"#utility.yul\":11512:11516   */\n      0x00\n        /* \"#utility.yul\":11550:11552   */\n      0x20\n        /* \"#utility.yul\":11539:11548   */\n      dup3\n        /* \"#utility.yul\":11535:11553   */\n      add\n        /* \"#utility.yul\":11527:11553   */\n      swap1\n      pop\n        /* \"#utility.yul\":11599:11608   */\n      dup2\n        /* \"#utility.yul\":11593:11597   */\n      dup2\n        /* \"#utility.yul\":11589:11609   */\n      sub\n        /* \"#utility.yul\":11585:11586   */\n      0x00\n        /* \"#utility.yul\":11574:11583   */\n      dup4\n        /* \"#utility.yul\":11570:11587   */\n      add\n        /* \"#utility.yul\":11563:11610   */\n      mstore\n        /* \"#utility.yul\":11627:11758   */\n      tag_310\n        /* \"#utility.yul\":11753:11757   */\n      dup2\n        /* \"#utility.yul\":11627:11758   */\n      tag_264\n      jump\t// in\n    tag_310:\n        /* \"#utility.yul\":11619:11758   */\n      swap1\n      pop\n        /* \"#utility.yul\":11346:11765   */\n      swap2\n      swap1\n      pop\n      jump\t// out\n        /* \"#utility.yul\":11771:11993   */\n    tag_40:\n        /* \"#utility.yul\":11864:11868   */\n      0x00\n        /* \"#utility.yul\":11902:11904   */\n      0x20\n        /* \"#utility.yul\":11891:11900   */\n      dup3\n        /* \"#utility.yul\":11887:11905   */\n      add\n        /* \"#utility.yul\":11879:11905   */\n      swap1\n      pop\n        /* \"#utility.yul\":11915:11986   */\n      tag_312\n        /* \"#utility.yul\":11983:11984   */\n      0x00\n        /* \"#utility.yul\":11972:11981   */\n      dup4\n        /* \"#utility.yul\":11968:11985   */\n      add\n        /* \"#utility.yul\":11959:11965   */\n      dup5\n        /* \"#utility.yul\":11915:11986   */\n      tag_269\n      jump\t// in\n    tag_312:\n        /* \"#utility.yul\":11771:11993   */\n      swap3\n      swap2\n      pop\n      pop\n      jump\t// out\n        /* \"#utility.yul\":11999:12213   */\n    tag_56:\n        /* \"#utility.yul\":12088:12092   */\n      0x00\n        /* \"#utility.yul\":12126:12128   */\n      0x20\n        /* \"#utility.yul\":12115:12124   */\n      dup3\n        /* \"#utility.yul\":12111:12129   */\n      add\n        /* \"#utility.yul\":12103:12129   */\n      swap1\n      pop\n        /* \"#utility.yul\":12139:12206   */\n      tag_314\n        /* \"#utility.yul\":12203:12204   */\n      0x00\n        /* \"#utility.yul\":12192:12201   */\n      dup4\n        /* \"#utility.yul\":12188:12205   */\n      add\n        /* \"#utility.yul\":12179:12185   */\n      dup5\n        /* \"#utility.yul\":12139:12206   */\n      tag_273\n      jump\t// in\n    tag_314:\n        /* \"#utility.yul\":11999:12213   */\n      swap3\n      swap2\n      pop\n      pop\n      jump\t// out\n        /* \"#utility.yul\":12300:12444   */\n    tag_239:\n        /* \"#utility.yul\":12352:12356   */\n      0x00\n        /* \"#utility.yul\":12375:12378   */\n      dup2\n        /* \"#utility.yul\":12367:12378   */\n      swap1\n      pop\n        /* \"#utility.yul\":12398:12401   */\n      dup2\n        /* \"#utility.yul\":12395:12396   */\n      0x00\n        /* \"#utility.yul\":12388:12402   */\n      mstore\n        /* \"#utility.yul\":12432:12436   */\n      0x20\n        /* \"#utility.yul\":12429:12430   */\n      0x00\n        /* \"#utility.yul\":12419:12437   */\n      keccak256\n        /* \"#utility.yul\":12411:12437   */\n      swap1\n      pop\n        /* \"#utility.yul\":12300:12444   */\n      swap2\n      swap1\n      pop\n      jump\t// out\n        /* \"#utility.yul\":12450:12549   */\n    tag_246:\n        /* \"#utility.yul\":12502:12508   */\n      0x00\n        /* \"#utility.yul\":12536:12541   */\n      dup2\n        /* \"#utility.yul\":12530:12542   */\n      mload\n        /* \"#utility.yul\":12520:12542   */\n      swap1\n      pop\n        /* \"#utility.yul\":12450:12549   */\n      swap2\n      swap1\n      pop\n      jump\t// out\n        /* \"#utility.yul\":12555:12702   */\n    tag_234:\n        /* \"#utility.yul\":12656:12667   */\n      0x00\n        /* \"#utility.yul\":12693:12696   */\n      dup2\n        /* \"#utility.yul\":12678:12696   */\n      swap1\n      pop\n        /* \"#utility.yul\":12555:12702   */\n      swap3\n      swap2\n      pop\n      pop\n      jump\t// out\n        /* \"#utility.yul\":12708:12877   */\n    tag_248:\n        /* \"#utility.yul\":12792:12803   */\n      0x00\n        /* \"#utility.yul\":12826:12832   */\n      dup3\n        /* \"#utility.yul\":12821:12824   */\n      dup3\n        /* \"#utility.yul\":12814:12833   */\n      mstore\n        /* \"#utility.yul\":12866:12870   */\n      0x20\n        /* \"#utility.yul\":12861:12864   */\n      dup3\n        /* \"#utility.yul\":12857:12871   */\n      add\n        /* \"#utility.yul\":12842:12871   */\n      swap1\n      pop\n        /* \"#utility.yul\":12708:12877   */\n      swap3\n      swap2\n      pop\n      pop\n      jump\t// out\n        /* \"#utility.yul\":12883:13031   */\n    tag_256:\n        /* \"#utility.yul\":12985:12996   */\n      0x00\n        /* \"#utility.yul\":13022:13025   */\n      dup2\n        /* \"#utility.yul\":13007:13025   */\n      swap1\n      pop\n        /* \"#utility.yul\":12883:13031   */\n      swap3\n      swap2\n      pop\n      pop\n      jump\t// out\n        /* \"#utility.yul\":13037:13342   */\n    tag_151:\n        /* \"#utility.yul\":13077:13080   */\n      0x00\n        /* \"#utility.yul\":13096:13116   */\n      tag_323\n        /* \"#utility.yul\":13114:13115   */\n      dup3\n        /* \"#utility.yul\":13096:13116   */\n      tag_272\n      jump\t// in\n    tag_323:\n        /* \"#utility.yul\":13091:13116   */\n      swap2\n      pop\n        /* \"#utility.yul\":13130:13150   */\n      tag_324\n        /* \"#utility.yul\":13148:13149   */\n      dup4\n        /* \"#utility.yul\":13130:13150   */\n      tag_272\n      jump\t// in\n    tag_324:\n        /* \"#utility.yul\":13125:13150   */\n      swap3\n      pop\n        /* \"#utility.yul\":13284:13285   */\n      dup3\n        /* \"#utility.yul\":13216:13282   */\n      0xffffffffffffffffffffffffffffffffffffffffffffffffffffffffffffffff\n        /* \"#utility.yul\":13212:13286   */\n      sub\n        /* \"#utility.yul\":13209:13210   */\n      dup3\n        /* \"#utility.yul\":13206:13287   */\n      gt\n        /* \"#utility.yul\":13203:13310   */\n      iszero\n      tag_325\n      jumpi\n        /* \"#utility.yul\":13290:13308   */\n      tag_326\n      tag_327\n      jump\t// in\n    tag_326:\n        /* \"#utility.yul\":13203:13310   */\n    tag_325:\n        /* \"#utility.yul\":13334:13335   */\n      dup3\n        /* \"#utility.yul\":13331:13332   */\n      dup3\n        /* \"#utility.yul\":13327:13336   */\n      add\n        /* \"#utility.yul\":13320:13336   */\n      swap1\n      pop\n        /* \"#utility.yul\":13037:13342   */\n      swap3\n      swap2\n      pop\n      pop\n      jump\t// out\n        /* \"#utility.yul\":13348:13539   */\n    tag_109:\n        /* \"#utility.yul\":13388:13392   */\n      0x00\n        /* \"#utility.yul\":13408:13428   */\n      tag_329\n        /* \"#utility.yul\":13426:13427   */\n      dup3\n        /* \"#utility.yul\":13408:13428   */\n      tag_272\n      jump\t// in\n    tag_329:\n        /* \"#utility.yul\":13403:13428   */\n      swap2\n      pop\n        /* \"#utility.yul\":13442:13462   */\n      tag_330\n        /* \"#utility.yul\":13460:13461   */\n      dup4\n        /* \"#utility.yul\":13442:13462   */\n      tag_272\n      jump\t// in\n    tag_330:\n        /* \"#utility.yul\":13437:13462   */\n      swap3\n      pop\n        /* \"#utility.yul\":13481:13482   */\n      dup3\n        /* \"#utility.yul\":13478:13479   */\n      dup3\n        /* \"#utility.yul\":13475:13483   */\n      lt\n        /* \"#utility.yul\":13472:13506   */\n      iszero\n      tag_331\n      jumpi\n        /* \"#utility.yul\":13486:13504   */\n      tag_332\n      tag_327\n      jump\t// in\n    tag_332:\n        /* \"#utility.yul\":13472:13506   */\n    tag_331:\n        /* \"#utility.yul\":13531:13532   */\n      dup3\n        /* \"#utility.yul\":13528:13529   */\n      dup3\n        /* \"#utility.yul\":13524:13533   */\n      sub\n        /* \"#utility.yul\":13516:13533   */\n      swap1\n      pop\n        /* \"#utility.yul\":13348:13539   */\n      swap3\n      swap2\n      pop\n      pop\n      jump\t// out\n        /* \"#utility.yul\":13545:13641   */\n    tag_216:\n        /* \"#utility.yul\":13582:13589   */\n      0x00\n        /* \"#utility.yul\":13611:13635   */\n      tag_334\n        /* \"#utility.yul\":13629:13634   */\n      dup3\n        /* \"#utility.yul\":13611:13635   */\n      tag_335\n      jump\t// in\n    tag_334:\n        /* \"#utility.yul\":13600:13635   */\n      swap1\n      pop\n        /* \"#utility.yul\":13545:13641   */\n      swap2\n      swap1\n      pop\n      jump\t// out\n        /* \"#utility.yul\":13647:13737   */\n    tag_220:\n        /* \"#utility.yul\":13681:13688   */\n      0x00\n        /* \"#utility.yul\":13724:13729   */\n      dup2\n        /* \"#utility.yul\":13717:13730   */\n      iszero\n        /* \"#utility.yul\":13710:13731   */\n      iszero\n        /* \"#utility.yul\":13699:13731   */\n      swap1\n      pop\n        /* \"#utility.yul\":13647:13737   */\n      swap2\n      swap1\n      pop\n      jump\t// out\n        /* \"#utility.yul\":13743:13820   */\n    tag_224:\n        /* \"#utility.yul\":13780:13787   */\n      0x00\n        /* \"#utility.yul\":13809:13814   */\n      dup2\n        /* \"#utility.yul\":13798:13814   */\n      swap1\n      pop\n        /* \"#utility.yul\":13743:13820   */\n      swap2\n      swap1\n      pop\n      jump\t// out\n        /* \"#utility.yul\":13826:13952   */\n    tag_335:\n        /* \"#utility.yul\":13863:13870   */\n      0x00\n        /* \"#utility.yul\":13903:13945   */\n      0xffffffffffffffffffffffffffffffffffffffff\n        /* \"#utility.yul\":13896:13901   */\n      dup3\n        /* \"#utility.yul\":13892:13946   */\n      and\n        /* \"#utility.yul\":13881:13946   */\n      swap1\n      pop\n        /* \"#utility.yul\":13826:13952   */\n      swap2\n      swap1\n      pop\n      jump\t// out\n        /* \"#utility.yul\":13958:14035   */\n    tag_272:\n        /* \"#utility.yul\":13995:14002   */\n      0x00\n        /* \"#utility.yul\":14024:14029   */\n      dup2\n        /* \"#utility.yul\":14013:14029   */\n      swap1\n      pop\n        /* \"#utility.yul\":13958:14035   */\n      swap2\n      swap1\n      pop\n      jump\t// out\n        /* \"#utility.yul\":14041:14127   */\n    tag_276:\n        /* \"#utility.yul\":14076:14083   */\n      0x00\n        /* \"#utility.yul\":14116:14120   */\n      0xff\n        /* \"#utility.yul\":14109:14114   */\n      dup3\n        /* \"#utility.yul\":14105:14121   */\n      and\n        /* \"#utility.yul\":14094:14121   */\n      swap1\n      pop\n        /* \"#utility.yul\":14041:14127   */\n      swap2\n      swap1\n      pop\n      jump\t// out\n        /* \"#utility.yul\":14133:14440   */\n    tag_250:\n        /* \"#utility.yul\":14201:14202   */\n      0x00\n        /* \"#utility.yul\":14211:14324   */\n    tag_342:\n        /* \"#utility.yul\":14225:14231   */\n      dup4\n        /* \"#utility.yul\":14222:14223   */\n      dup2\n        /* \"#utility.yul\":14219:14232   */\n      lt\n        /* \"#utility.yul\":14211:14324   */\n      iszero\n      tag_344\n      jumpi\n        /* \"#utility.yul\":14310:14311   */\n      dup1\n        /* \"#utility.yul\":14305:14308   */\n      dup3\n        /* \"#utility.yul\":14301:14312   */\n      add\n        /* \"#utility.yul\":14295:14313   */\n      mload\n        /* \"#utility.yul\":14291:14292   */\n      dup2\n        /* \"#utility.yul\":14286:14289   */\n      dup5\n        /* \"#utility.yul\":14282:14293   */\n      add\n        /* \"#utility.yul\":14275:14314   */\n      mstore\n        /* \"#utility.yul\":14247:14249   */\n      0x20\n        /* \"#utility.yul\":14244:14245   */\n      dup2\n        /* \"#utility.yul\":14240:14250   */\n      add\n        /* \"#utility.yul\":14235:14250   */\n      swap1\n      pop\n        /* \"#utility.yul\":14211:14324   */\n      jump(tag_342)\n    tag_344:\n        /* \"#utility.yul\":14342:14348   */\n      dup4\n        /* \"#utility.yul\":14339:14340   */\n      dup2\n        /* \"#utility.yul\":14336:14349   */\n      gt\n        /* \"#utility.yul\":14333:14434   */\n      iszero\n      tag_345\n      jumpi\n        /* \"#utility.yul\":14422:14423   */\n      0x00\n        /* \"#utility.yul\":14413:14419   */\n      dup5\n        /* \"#utility.yul\":14408:14411   */\n      dup5\n        /* \"#utility.yul\":14404:14420   */\n      add\n        /* \"#utility.yul\":14397:14424   */\n      mstore\n        /* \"#utility.yul\":14333:14434   */\n    tag_345:\n        /* \"#utility.yul\":14182:14440   */\n      pop\n        /* \"#utility.yul\":14133:14440   */\n      pop\n      pop\n      pop\n      jump\t// out\n        /* \"#utility.yul\":14446:14766   */\n    tag_99:\n        /* \"#utility.yul\":14490:14496   */\n      0x00\n        /* \"#utility.yul\":14527:14528   */\n      0x02\n        /* \"#utility.yul\":14521:14525   */\n      dup3\n        /* \"#utility.yul\":14517:14529   */\n      div\n        /* \"#utility.yul\":14507:14529   */\n      swap1\n      pop\n        /* \"#utility.yul\":14574:14575   */\n      0x01\n        /* \"#utility.yul\":14568:14572   */\n      dup3\n        /* \"#utility.yul\":14564:14576   */\n      and\n        /* \"#utility.yul\":14595:14613   */\n      dup1\n        /* \"#utility.yul\":14585:14666   */\n      tag_347\n      jumpi\n        /* \"#utility.yul\":14651:14655   */\n      0x7f\n        /* \"#utility.yul\":14643:14649   */\n      dup3\n        /* \"#utility.yul\":14639:14656   */\n      and\n        /* \"#utility.yul\":14629:14656   */\n      swap2\n      pop\n        /* \"#utility.yul\":14585:14666   */\n    tag_347:\n        /* \"#utility.yul\":14713:14715   */\n      0x20\n        /* \"#utility.yul\":14705:14711   */\n      dup3\n        /* \"#utility.yul\":14702:14716   */\n      lt\n        /* \"#utility.yul\":14682:14700   */\n      dup2\n        /* \"#utility.yul\":14679:14717   */\n      eq\n        /* \"#utility.yul\":14676:14760   */\n      iszero\n      tag_348\n      jumpi\n        /* \"#utility.yul\":14732:14750   */\n      tag_349\n      tag_350\n      jump\t// in\n    tag_349:\n        /* \"#utility.yul\":14676:14760   */\n    tag_348:\n        /* \"#utility.yul\":14497:14766   */\n      pop\n        /* \"#utility.yul\":14446:14766   */\n      swap2\n      swap1\n      pop\n      jump\t// out\n        /* \"#utility.yul\":14772:14851   */\n    tag_229:\n        /* \"#utility.yul\":14811:14818   */\n      0x00\n        /* \"#utility.yul\":14840:14845   */\n      dup2\n        /* \"#utility.yul\":14829:14845   */\n      swap1\n      pop\n        /* \"#utility.yul\":14772:14851   */\n      swap2\n      swap1\n      pop\n      jump\t// out\n        /* \"#utility.yul\":14857:15037   */\n    tag_327:\n        /* \"#utility.yul\":14905:14982   */\n      0x4e487b7100000000000000000000000000000000000000000000000000000000\n        /* \"#utility.yul\":14902:14903   */\n      0x00\n        /* \"#utility.yul\":14895:14983   */\n      mstore\n        /* \"#utility.yul\":15002:15006   */\n      0x11\n        /* \"#utility.yul\":14999:15000   */\n      0x04\n        /* \"#utility.yul\":14992:15007   */\n      mstore\n        /* \"#utility.yul\":15026:15030   */\n      0x24\n        /* \"#utility.yul\":15023:15024   */\n      0x00\n        /* \"#utility.yul\":15016:15031   */\n      revert\n        /* \"#utility.yul\":15043:15223   */\n    tag_350:\n        /* \"#utility.yul\":15091:15168   */\n      0x4e487b7100000000000000000000000000000000000000000000000000000000\n        /* \"#utility.yul\":15088:15089   */\n      0x00\n        /* \"#utility.yul\":15081:15169   */\n      mstore\n        /* \"#utility.yul\":15188:15192   */\n      0x22\n        /* \"#utility.yul\":15185:15186   */\n      0x04\n        /* \"#utility.yul\":15178:15193   */\n      mstore\n        /* \"#utility.yul\":15212:15216   */\n      0x24\n        /* \"#utility.yul\":15209:15210   */\n      0x00\n        /* \"#utility.yul\":15202:15217   */\n      revert\n        /* \"#utility.yul\":15352:15469   */\n    tag_181:\n        /* \"#utility.yul\":15461:15462   */\n      0x00\n        /* \"#utility.yul\":15458:15459   */\n      dup1\n        /* \"#utility.yul\":15451:15463   */\n      revert\n        /* \"#utility.yul\":15475:15577   */\n    tag_252:\n        /* \"#utility.yul\":15516:15522   */\n      0x00\n        /* \"#utility.yul\":15567:15569   */\n      0x1f\n        /* \"#utility.yul\":15563:15570   */\n      not\n        /* \"#utility.yul\":15558:15560   */\n      0x1f\n        /* \"#utility.yul\":15551:15556   */\n      dup4\n        /* \"#utility.yul\":15547:15561   */\n      add\n        /* \"#utility.yul\":15543:15571   */\n      and\n        /* \"#utility.yul\":15533:15571   */\n      swap1\n      pop\n        /* \"#utility.yul\":15475:15577   */\n      swap2\n      swap1\n      pop\n      jump\t// out\n        /* \"#utility.yul\":15583:15797   */\n    tag_258:\n        /* \"#utility.yul\":15723:15789   */\n      0x1901000000000000000000000000000000000000000000000000000000000000\n        /* \"#utility.yul\":15719:15720   */\n      0x00\n        /* \"#utility.yul\":15711:15717   */\n      dup3\n        /* \"#utility.yul\":15707:15721   */\n      add\n        /* \"#utility.yul\":15700:15790   */\n      mstore\n        /* \"#utility.yul\":15583:15797   */\n      pop\n      jump\t// out\n        /* \"#utility.yul\":15803:15967   */\n    tag_263:\n        /* \"#utility.yul\":15943:15959   */\n      0x494e56414c49445f5349474e4552000000000000000000000000000000000000\n        /* \"#utility.yul\":15939:15940   */\n      0x00\n        /* \"#utility.yul\":15931:15937   */\n      dup3\n        /* \"#utility.yul\":15927:15941   */\n      add\n        /* \"#utility.yul\":15920:15960   */\n      mstore\n        /* \"#utility.yul\":15803:15967   */\n      pop\n      jump\t// out\n        /* \"#utility.yul\":15973:16146   */\n    tag_268:\n        /* \"#utility.yul\":16113:16138   */\n      0x5045524d49545f444541444c494e455f45585049524544000000000000000000\n        /* \"#utility.yul\":16109:16110   */\n      0x00\n        /* \"#utility.yul\":16101:16107   */\n      dup3\n        /* \"#utility.yul\":16097:16111   */\n      add\n        /* \"#utility.yul\":16090:16139   */\n      mstore\n        /* \"#utility.yul\":15973:16146   */\n      pop\n      jump\t// out\n        /* \"#utility.yul\":16152:16274   */\n    tag_165:\n        /* \"#utility.yul\":16225:16249   */\n      tag_362\n        /* \"#utility.yul\":16243:16248   */\n      dup2\n        /* \"#utility.yul\":16225:16249   */\n      tag_216\n      jump\t// in\n    tag_362:\n        /* \"#utility.yul\":16218:16223   */\n      dup2\n        /* \"#utility.yul\":16215:16250   */\n      eq\n        /* \"#utility.yul\":16205:16268   */\n      tag_363\n      jumpi\n        /* \"#utility.yul\":16264:16265   */\n      0x00\n        /* \"#utility.yul\":16261:16262   */\n      dup1\n        /* \"#utility.yul\":16254:16266   */\n      revert\n        /* \"#utility.yul\":16205:16268   */\n    tag_363:\n        /* \"#utility.yul\":16152:16274   */\n      pop\n      jump\t// out\n        /* \"#utility.yul\":16280:16402   */\n    tag_169:\n        /* \"#utility.yul\":16353:16377   */\n      tag_365\n        /* \"#utility.yul\":16371:16376   */\n      dup2\n        /* \"#utility.yul\":16353:16377   */\n      tag_224\n      jump\t// in\n    tag_365:\n        /* \"#utility.yul\":16346:16351   */\n      dup2\n        /* \"#utility.yul\":16343:16378   */\n      eq\n        /* \"#utility.yul\":16333:16396   */\n      tag_366\n      jumpi\n        /* \"#utility.yul\":16392:16393   */\n      0x00\n        /* \"#utility.yul\":16389:16390   */\n      dup1\n        /* \"#utility.yul\":16382:16394   */\n      revert\n        /* \"#utility.yul\":16333:16396   */\n    tag_366:\n        /* \"#utility.yul\":16280:16402   */\n      pop\n      jump\t// out\n        /* \"#utility.yul\":16408:16530   */\n    tag_173:\n        /* \"#utility.yul\":16481:16505   */\n      tag_368\n        /* \"#utility.yul\":16499:16504   */\n      dup2\n        /* \"#utility.yul\":16481:16505   */\n      tag_272\n      jump\t// in\n    tag_368:\n        /* \"#utility.yul\":16474:16479   */\n      dup2\n        /* \"#utility.yul\":16471:16506   */\n      eq\n        /* \"#utility.yul\":16461:16524   */\n      tag_369\n      jumpi\n        /* \"#utility.yul\":16520:16521   */\n      0x00\n        /* \"#utility.yul\":16517:16518   */\n      dup1\n        /* \"#utility.yul\":16510:16522   */\n      revert\n        /* \"#utility.yul\":16461:16524   */\n    tag_369:\n        /* \"#utility.yul\":16408:16530   */\n      pop\n      jump\t// out\n        /* \"#utility.yul\":16536:16654   */\n    tag_177:\n        /* \"#utility.yul\":16607:16629   */\n      tag_371\n        /* \"#utility.yul\":16623:16628   */\n      dup2\n        /* \"#utility.yul\":16607:16629   */\n      tag_276\n      jump\t// in\n    tag_371:\n        /* \"#utility.yul\":16600:16605   */\n      dup2\n        /* \"#utility.yul\":16597:16630   */\n      eq\n        /* \"#utility.yul\":16587:16648   */\n      tag_372\n      jumpi\n        /* \"#utility.yul\":16644:16645   */\n      0x00\n        /* \"#utility.yul\":16641:16642   */\n      dup1\n        /* \"#utility.yul\":16634:16646   */\n      revert\n        /* \"#utility.yul\":16587:16648   */\n    tag_372:\n        /* \"#utility.yul\":16536:16654   */\n      pop\n      jump\t// out\n\n    auxdata: 0xa2646970667358221220f57fc6d8418c3f0ceac8502f18dd758eee382f59098a938e15cca4675e4ec28164736f6c63430008070033\n}\n",
				"bytecode": {
					"linkReferences": {},
					"object": "60e06040523480156200001157600080fd5b506040518060400160405280600d81526020017f57726170706564204574686572000000000000000000000000000000000000008152506040518060400160405280600481526020017f574554480000000000000000000000000000000000000000000000000000000081525060128260009080519060200190620000989291906200017b565b508160019080519060200190620000b19291906200017b565b508060ff1660808160ff1660f81b815250504660a08181525050620000db620000eb60201b60201c565b60c081815250505050506200042c565b60007f8b73c3c69bb8fe3d512ecc4cf759cc79239f7b179b0ffacaa9a75d522b39400f60006040516200011f9190620002e9565b60405180910390207fc89efdaa54c0f20c7adf612882df0950f5a951637e0307cdcb4c672f298b8bc646306040516020016200016095949392919062000302565b60405160208183030381529060405280519060200120905090565b8280546200018990620003c7565b90600052602060002090601f016020900481019282620001ad5760008555620001f9565b82601f10620001c857805160ff1916838001178555620001f9565b82800160010185558215620001f9579182015b82811115620001f8578251825591602001919060010190620001db565b5b5090506200020891906200020c565b5090565b5b80821115620002275760008160009055506001016200020d565b5090565b62000236816200037f565b82525050565b620002478162000393565b82525050565b600081546200025c81620003c7565b62000268818662000374565b945060018216600081146200028657600181146200029857620002cf565b60ff19831686528186019350620002cf565b620002a3856200035f565b60005b83811015620002c757815481890152600182019150602081019050620002a6565b838801955050505b50505092915050565b620002e381620003bd565b82525050565b6000620002f782846200024d565b915081905092915050565b600060a0820190506200031960008301886200023c565b6200032860208301876200023c565b6200033760408301866200023c565b620003466060830185620002d8565b6200035560808301846200022b565b9695505050505050565b60008190508160005260206000209050919050565b600081905092915050565b60006200038c826200039d565b9050919050565b6000819050919050565b600073ffffffffffffffffffffffffffffffffffffffff82169050919050565b6000819050919050565b60006002820490506001821680620003e057607f821691505b60208210811415620003f757620003f6620003fd565b5b50919050565b7f4e487b7100000000000000000000000000000000000000000000000000000000600052602260045260246000fd5b60805160f81c60a05160c0516118d16200045f60003960006108b5015260006108810152600061085b01526118d16000f3fe6080604052600436106100e15760003560e01c806370a082311161007f578063a9059cbb11610059578063a9059cbb146102e0578063d0e30db01461031d578063d505accf14610327578063dd62ed3e14610350576100e2565b806370a082311461023b5780637ecebe001461027857806395d89b41146102b5576100e2565b806323b872dd116100bb57806323b872dd1461017f5780632e1a7d4d146101bc578063313ce567146101e55780633644e51514610210576100e2565b806306fdde03146100ec578063095ea7b31461011757806318160ddd14610154576100e2565b5b6100ea61038d565b005b3480156100f857600080fd5b506101016103e7565b60405161010e9190611519565b60405180910390f35b34801561012357600080fd5b5061013e600480360381019061013991906111ac565b610475565b60405161014b91906113ea565b60405180910390f35b34801561016057600080fd5b50610169610567565b604051610176919061157b565b60405180910390f35b34801561018b57600080fd5b506101a660048036038101906101a191906110b7565b61056d565b6040516101b391906113ea565b60405180910390f35b3480156101c857600080fd5b506101e360048036038101906101de91906111ec565b6107b7565b005b3480156101f157600080fd5b506101fa610859565b6040516102079190611596565b60405180910390f35b34801561021c57600080fd5b5061022561087d565b6040516102329190611405565b60405180910390f35b34801561024757600080fd5b50610262600480360381019061025d919061104a565b6108da565b60405161026f919061157b565b60405180910390f35b34801561028457600080fd5b5061029f600480360381019061029a919061104a565b6108f2565b6040516102ac919061157b565b60405180910390f35b3480156102c157600080fd5b506102ca61090a565b6040516102d79190611519565b60405180910390f35b3480156102ec57600080fd5b50610307600480360381019061030291906111ac565b610998565b60405161031491906113ea565b60405180910390f35b61032561038d565b005b34801561033357600080fd5b5061034e6004803603810190610349919061110a565b610aac565b005b34801561035c57600080fd5b5061037760048036038101906103729190611077565b610da5565b604051610384919061157b565b60405180910390f35b6103973334610dca565b3373ffffffffffffffffffffffffffffffffffffffff167fe1fffcc4923d04b559f4d29a8bfc6cda04eb5b0d3c460751c2402c5c5cc9109c346040516103dd919061157b565b60405180910390a2565b600080546103f490611714565b80601f016020809104026020016040519081016040528092919081815260200182805461042090611714565b801561046d5780601f106104425761010080835404028352916020019161046d565b820191906000526020600020905b81548152906001019060200180831161045057829003601f168201915b505050505081565b600081600460003373ffffffffffffffffffffffffffffffffffffffff1673ffffffffffffffffffffffffffffffffffffffff16815260200190815260200160002060008573ffffffffffffffffffffffffffffffffffffffff1673ffffffffffffffffffffffffffffffffffffffff168152602001908152602001600020819055508273ffffffffffffffffffffffffffffffffffffffff163373ffffffffffffffffffffffffffffffffffffffff167f8c5be1e5ebec7d5bd14f71427d1e84f3dd0314c0f7b2291e5b200ac8c7c3b92584604051610555919061157b565b60405180910390a36001905092915050565b60025481565b600080600460008673ffffffffffffffffffffffffffffffffffffffff1673ffffffffffffffffffffffffffffffffffffffff16815260200190815260200160002060003373ffffffffffffffffffffffffffffffffffffffff1673ffffffffffffffffffffffffffffffffffffffff1681526020019081526020016000205490507fffffffffffffffffffffffffffffffffffffffffffffffffffffffffffffffff81146106a3578281610622919061164e565b600460008773ffffffffffffffffffffffffffffffffffffffff1673ffffffffffffffffffffffffffffffffffffffff16815260200190815260200160002060003373ffffffffffffffffffffffffffffffffffffffff1673ffffffffffffffffffffffffffffffffffffffff168152602001908152602001600020819055505b82600360008773ffffffffffffffffffffffffffffffffffffffff1673ffffffffffffffffffffffffffffffffffffffff16815260200190815260200160002060008282546106f2919061164e565b9250508190555082600360008673ffffffffffffffffffffffffffffffffffffffff1673ffffffffffffffffffffffffffffffffffffffff168152602001908152602001600020600082825401925050819055508373ffffffffffffffffffffffffffffffffffffffff168573ffffffffffffffffffffffffffffffffffffffff167fddf252ad1be2c89b69c2b068fc378daa952ba7f163c4a11628f55a4df523b3ef856040516107a3919061157b565b60405180910390a360019150509392505050565b6107c13382610e9a565b3373ffffffffffffffffffffffffffffffffffffffff166108fc829081150290604051600060405180830381858888f19350505050158015610807573d6000803e3d6000fd5b503373ffffffffffffffffffffffffffffffffffffffff167f884edad9ce6fa2440d8a54cc123490eb96d2768479d49ff9c7366125a94243648260405161084e919061157b565b60405180910390a250565b7f000000000000000000000000000000000000000000000000000000000000000081565b60007f000000000000000000000000000000000000000000000000000000000000000046146108b3576108ae610f6a565b6108d5565b7f00000000000000000000000000000000000000000000000000000000000000005b905090565b60036020528060005260406000206000915090505481565b60056020528060005260406000206000915090505481565b6001805461091790611714565b80601f016020809104026020016040519081016040528092919081815260200182805461094390611714565b80156109905780601f1061096557610100808354040283529160200191610990565b820191906000526020600020905b81548152906001019060200180831161097357829003601f168201915b505050505081565b600081600360003373ffffffffffffffffffffffffffffffffffffffff1673ffffffffffffffffffffffffffffffffffffffff16815260200190815260200160002060008282546109e9919061164e565b9250508190555081600360008573ffffffffffffffffffffffffffffffffffffffff1673ffffffffffffffffffffffffffffffffffffffff168152602001908152602001600020600082825401925050819055508273ffffffffffffffffffffffffffffffffffffffff163373ffffffffffffffffffffffffffffffffffffffff167fddf252ad1be2c89b69c2b068fc378daa952ba7f163c4a11628f55a4df523b3ef84604051610a9a919061157b565b60405180910390a36001905092915050565b42841015610aef576040517f08c379a0000000000000000000000000000000000000000000000000000000008152600401610ae69061155b565b60405180910390fd5b60006001610afb61087d565b7f6e71edae12b1b97f4d1f60370fef10105fa2faae0126114a169c64845d6126c98a8a8a600560008f73ffffffffffffffffffffffffffffffffffffffff1673ffffffffffffffffffffffffffffffffffffffff1681526020019081526020016000206000815480929190600101919050558b604051602001610b8396959493929190611420565b60405160208183030381529060405280519060200120604051602001610baa9291906113b3565b6040516020818303038152906040528051906020012085858560405160008152602001604052604051610be094939291906114d4565b6020604051602081039080840390855afa158015610c02573d6000803e3d6000fd5b505050602060405103519050600073ffffffffffffffffffffffffffffffffffffffff168173ffffffffffffffffffffffffffffffffffffffff1614158015610c7657508773ffffffffffffffffffffffffffffffffffffffff168173ffffffffffffffffffffffffffffffffffffffff16145b610cb5576040517f08c379a0000000000000000000000000000000000000000000000000000000008152600401610cac9061153b565b60405180910390fd5b85600460008373ffffffffffffffffffffffffffffffffffffffff1673ffffffffffffffffffffffffffffffffffffffff16815260200190815260200160002060008973ffffffffffffffffffffffffffffffffffffffff1673ffffffffffffffffffffffffffffffffffffffff16815260200190815260200160002081905550508573ffffffffffffffffffffffffffffffffffffffff168773ffffffffffffffffffffffffffffffffffffffff167f8c5be1e5ebec7d5bd14f71427d1e84f3dd0314c0f7b2291e5b200ac8c7c3b92587604051610d94919061157b565b60405180910390a350505050505050565b6004602052816000526040600020602052806000526040600020600091509150505481565b8060026000828254610ddc91906115f8565b9250508190555080600360008473ffffffffffffffffffffffffffffffffffffffff1673ffffffffffffffffffffffffffffffffffffffff168152602001908152602001600020600082825401925050819055508173ffffffffffffffffffffffffffffffffffffffff16600073ffffffffffffffffffffffffffffffffffffffff167fddf252ad1be2c89b69c2b068fc378daa952ba7f163c4a11628f55a4df523b3ef83604051610e8e919061157b565b60405180910390a35050565b80600360008473ffffffffffffffffffffffffffffffffffffffff1673ffffffffffffffffffffffffffffffffffffffff1681526020019081526020016000206000828254610ee9919061164e565b9250508190555080600260008282540392505081905550600073ffffffffffffffffffffffffffffffffffffffff168273ffffffffffffffffffffffffffffffffffffffff167fddf252ad1be2c89b69c2b068fc378daa952ba7f163c4a11628f55a4df523b3ef83604051610f5e919061157b565b60405180910390a35050565b60007f8b73c3c69bb8fe3d512ecc4cf759cc79239f7b179b0ffacaa9a75d522b39400f6000604051610f9c919061139c565b60405180910390207fc89efdaa54c0f20c7adf612882df0950f5a951637e0307cdcb4c672f298b8bc64630604051602001610fdb959493929190611481565b60405160208183030381529060405280519060200120905090565b6000813590506110058161183f565b92915050565b60008135905061101a81611856565b92915050565b60008135905061102f8161186d565b92915050565b60008135905061104481611884565b92915050565b6000602082840312156110605761105f6117ae565b5b600061106e84828501610ff6565b91505092915050565b6000806040838503121561108e5761108d6117ae565b5b600061109c85828601610ff6565b92505060206110ad85828601610ff6565b9150509250929050565b6000806000606084860312156110d0576110cf6117ae565b5b60006110de86828701610ff6565b93505060206110ef86828701610ff6565b925050604061110086828701611020565b9150509250925092565b600080600080600080600060e0888a031215611129576111286117ae565b5b60006111378a828b01610ff6565b97505060206111488a828b01610ff6565b96505060406111598a828b01611020565b955050606061116a8a828b01611020565b945050608061117b8a828b01611035565b93505060a061118c8a828b0161100b565b92505060c061119d8a828b0161100b565b91505092959891949750929550565b600080604083850312156111c3576111c26117ae565b5b60006111d185828601610ff6565b92505060206111e285828601611020565b9150509250929050565b600060208284031215611202576112016117ae565b5b600061121084828501611020565b91505092915050565b61122281611682565b82525050565b61123181611694565b82525050565b611240816116a0565b82525050565b611257611252826116a0565b611746565b82525050565b6000815461126a81611714565b61127481866115d1565b9450600182166000811461128f57600181146112a0576112d3565b60ff198316865281860193506112d3565b6112a9856115b1565b60005b838110156112cb578154818901526001820191506020810190506112ac565b838801955050505b50505092915050565b60006112e7826115c6565b6112f181856115dc565b93506113018185602086016116e1565b61130a816117b3565b840191505092915050565b60006113226002836115ed565b915061132d826117c4565b600282019050919050565b6000611345600e836115dc565b9150611350826117ed565b602082019050919050565b60006113686017836115dc565b915061137382611816565b602082019050919050565b611387816116ca565b82525050565b611396816116d4565b82525050565b60006113a8828461125d565b915081905092915050565b60006113be82611315565b91506113ca8285611246565b6020820191506113da8284611246565b6020820191508190509392505050565b60006020820190506113ff6000830184611228565b92915050565b600060208201905061141a6000830184611237565b92915050565b600060c0820190506114356000830189611237565b6114426020830188611219565b61144f6040830187611219565b61145c606083018661137e565b611469608083018561137e565b61147660a083018461137e565b979650505050505050565b600060a0820190506114966000830188611237565b6114a36020830187611237565b6114b06040830186611237565b6114bd606083018561137e565b6114ca6080830184611219565b9695505050505050565b60006080820190506114e96000830187611237565b6114f6602083018661138d565b6115036040830185611237565b6115106060830184611237565b95945050505050565b6000602082019050818103600083015261153381846112dc565b905092915050565b6000602082019050818103600083015261155481611338565b9050919050565b600060208201905081810360008301526115748161135b565b9050919050565b6000602082019050611590600083018461137e565b92915050565b60006020820190506115ab600083018461138d565b92915050565b60008190508160005260206000209050919050565b600081519050919050565b600081905092915050565b600082825260208201905092915050565b600081905092915050565b6000611603826116ca565b915061160e836116ca565b9250827fffffffffffffffffffffffffffffffffffffffffffffffffffffffffffffffff0382111561164357611642611750565b5b828201905092915050565b6000611659826116ca565b9150611664836116ca565b92508282101561167757611676611750565b5b828203905092915050565b600061168d826116aa565b9050919050565b60008115159050919050565b6000819050919050565b600073ffffffffffffffffffffffffffffffffffffffff82169050919050565b6000819050919050565b600060ff82169050919050565b60005b838110156116ff5780820151818401526020810190506116e4565b8381111561170e576000848401525b50505050565b6000600282049050600182168061172c57607f821691505b602082108114156117405761173f61177f565b5b50919050565b6000819050919050565b7f4e487b7100000000000000000000000000000000000000000000000000000000600052601160045260246000fd5b7f4e487b7100000000000000000000000000000000000000000000000000000000600052602260045260246000fd5b600080fd5b6000601f19601f8301169050919050565b7f1901000000000000000000000000000000000000000000000000000000000000600082015250565b7f494e56414c49445f5349474e4552000000000000000000000000000000000000600082015250565b7f5045524d49545f444541444c494e455f45585049524544000000000000000000600082015250565b61184881611682565b811461185357600080fd5b50565b61185f816116a0565b811461186a57600080fd5b50565b611876816116ca565b811461188157600080fd5b50565b61188d816116d4565b811461189857600080fd5b5056fea2646970667358221220f57fc6d8418c3f0ceac8502f18dd758eee382f59098a938e15cca4675e4ec28164736f6c63430008070033",
					"opcodes": "PUSH1 0xE0 PUSH1 0x40 MSTORE CALLVALUE DUP1 ISZERO PUSH3 0x11 JUMPI PUSH1 0x0 DUP1 REVERT JUMPDEST POP PUSH1 0x40 MLOAD DUP1 PUSH1 0x40 ADD PUSH1 0x40 MSTORE DUP1 PUSH1 0xD DUP2 MSTORE PUSH1 0x20 ADD PUSH32 0x5772617070656420457468657200000000000000000000000000000000000000 DUP2 MSTORE POP PUSH1 0x40 MLOAD DUP1 PUSH1 0x40 ADD PUSH1 0x40 MSTORE DUP1 PUSH1 0x4 DUP2 MSTORE PUSH1 0x20 ADD PUSH32 0x5745544800000000000000000000000000000000000000000000000000000000 DUP2 MSTORE POP PUSH1 0x12 DUP3 PUSH1 0x0 SWAP1 DUP1 MLOAD SWAP1 PUSH1 0x20 ADD SWAP1 PUSH3 0x98 SWAP3 SWAP2 SWAP1 PUSH3 0x17B JUMP JUMPDEST POP DUP2 PUSH1 0x1 SWAP1 DUP1 MLOAD SWAP1 PUSH1 0x20 ADD SWAP1 PUSH3 0xB1 SWAP3 SWAP2 SWAP1 PUSH3 0x17B JUMP JUMPDEST POP DUP1 PUSH1 0xFF AND PUSH1 0x80 DUP2 PUSH1 0xFF AND PUSH1 0xF8 SHL DUP2 MSTORE POP POP CHAINID PUSH1 0xA0 DUP2 DUP2 MSTORE POP POP PUSH3 0xDB PUSH3 0xEB PUSH1 0x20 SHL PUSH1 0x20 SHR JUMP JUMPDEST PUSH1 0xC0 DUP2 DUP2 MSTORE POP POP POP POP POP PUSH3 0x42C JUMP JUMPDEST PUSH1 0x0 PUSH32 0x8B73C3C69BB8FE3D512ECC4CF759CC79239F7B179B0FFACAA9A75D522B39400F PUSH1 0x0 PUSH1 0x40 MLOAD PUSH3 0x11F SWAP2 SWAP1 PUSH3 0x2E9 JUMP JUMPDEST PUSH1 0x40 MLOAD DUP1 SWAP2 SUB SWAP1 KECCAK256 PUSH32 0xC89EFDAA54C0F20C7ADF612882DF0950F5A951637E0307CDCB4C672F298B8BC6 CHAINID ADDRESS PUSH1 0x40 MLOAD PUSH1 0x20 ADD PUSH3 0x160 SWAP6 SWAP5 SWAP4 SWAP3 SWAP2 SWAP1 PUSH3 0x302 JUMP JUMPDEST PUSH1 0x40 MLOAD PUSH1 0x20 DUP2 DUP4 SUB SUB DUP2 MSTORE SWAP1 PUSH1 0x40 MSTORE DUP1 MLOAD SWAP1 PUSH1 0x20 ADD KECCAK256 SWAP1 POP SWAP1 JUMP JUMPDEST DUP3 DUP1 SLOAD PUSH3 0x189 SWAP1 PUSH3 0x3C7 JUMP JUMPDEST SWAP1 PUSH1 0x0 MSTORE PUSH1 0x20 PUSH1 0x0 KECCAK256 SWAP1 PUSH1 0x1F ADD PUSH1 0x20 SWAP1 DIV DUP2 ADD SWAP3 DUP3 PUSH3 0x1AD JUMPI PUSH1 0x0 DUP6 SSTORE PUSH3 0x1F9 JUMP JUMPDEST DUP3 PUSH1 0x1F LT PUSH3 0x1C8 JUMPI DUP1 MLOAD PUSH1 0xFF NOT AND DUP4 DUP1 ADD OR DUP6 SSTORE PUSH3 0x1F9 JUMP JUMPDEST DUP3 DUP1 ADD PUSH1 0x1 ADD DUP6 SSTORE DUP3 ISZERO PUSH3 0x1F9 JUMPI SWAP2 DUP3 ADD JUMPDEST DUP3 DUP2 GT ISZERO PUSH3 0x1F8 JUMPI DUP3 MLOAD DUP3 SSTORE SWAP2 PUSH1 0x20 ADD SWAP2 SWAP1 PUSH1 0x1 ADD SWAP1 PUSH3 0x1DB JUMP JUMPDEST JUMPDEST POP SWAP1 POP PUSH3 0x208 SWAP2 SWAP1 PUSH3 0x20C JUMP JUMPDEST POP SWAP1 JUMP JUMPDEST JUMPDEST DUP1 DUP3 GT ISZERO PUSH3 0x227 JUMPI PUSH1 0x0 DUP2 PUSH1 0x0 SWAP1 SSTORE POP PUSH1 0x1 ADD PUSH3 0x20D JUMP JUMPDEST POP SWAP1 JUMP JUMPDEST PUSH3 0x236 DUP2 PUSH3 0x37F JUMP JUMPDEST DUP3 MSTORE POP POP JUMP JUMPDEST PUSH3 0x247 DUP2 PUSH3 0x393 JUMP JUMPDEST DUP3 MSTORE POP POP JUMP JUMPDEST PUSH1 0x0 DUP2 SLOAD PUSH3 0x25C DUP2 PUSH3 0x3C7 JUMP JUMPDEST PUSH3 0x268 DUP2 DUP7 PUSH3 0x374 JUMP JUMPDEST SWAP5 POP PUSH1 0x1 DUP3 AND PUSH1 0x0 DUP2 EQ PUSH3 0x286 JUMPI PUSH1 0x1 DUP2 EQ PUSH3 0x298 JUMPI PUSH3 0x2CF JUMP JUMPDEST PUSH1 0xFF NOT DUP4 AND DUP7 MSTORE DUP2 DUP7 ADD SWAP4 POP PUSH3 0x2CF JUMP JUMPDEST PUSH3 0x2A3 DUP6 PUSH3 0x35F JUMP JUMPDEST PUSH1 0x0 JUMPDEST DUP4 DUP2 LT ISZERO PUSH3 0x2C7 JUMPI DUP2 SLOAD DUP2 DUP10 ADD MSTORE PUSH1 0x1 DUP3 ADD SWAP2 POP PUSH1 0x20 DUP2 ADD SWAP1 POP PUSH3 0x2A6 JUMP JUMPDEST DUP4 DUP9 ADD SWAP6 POP POP POP JUMPDEST POP POP POP SWAP3 SWAP2 POP POP JUMP JUMPDEST PUSH3 0x2E3 DUP2 PUSH3 0x3BD JUMP JUMPDEST DUP3 MSTORE POP POP JUMP JUMPDEST PUSH1 0x0 PUSH3 0x2F7 DUP3 DUP5 PUSH3 0x24D JUMP JUMPDEST SWAP2 POP DUP2 SWAP1 POP SWAP3 SWAP2 POP POP JUMP JUMPDEST PUSH1 0x0 PUSH1 0xA0 DUP3 ADD SWAP1 POP PUSH3 0x319 PUSH1 0x0 DUP4 ADD DUP9 PUSH3 0x23C JUMP JUMPDEST PUSH3 0x328 PUSH1 0x20 DUP4 ADD DUP8 PUSH3 0x23C JUMP JUMPDEST PUSH3 0x337 PUSH1 0x40 DUP4 ADD DUP7 PUSH3 0x23C JUMP JUMPDEST PUSH3 0x346 PUSH1 0x60 DUP4 ADD DUP6 PUSH3 0x2D8 JUMP JUMPDEST PUSH3 0x355 PUSH1 0x80 DUP4 ADD DUP5 PUSH3 0x22B JUMP JUMPDEST SWAP7 SWAP6 POP POP POP POP POP POP JUMP JUMPDEST PUSH1 0x0 DUP2 SWAP1 POP DUP2 PUSH1 0x0 MSTORE PUSH1 0x20 PUSH1 0x0 KECCAK256 SWAP1 POP SWAP2 SWAP1 POP JUMP JUMPDEST PUSH1 0x0 DUP2 SWAP1 POP SWAP3 SWAP2 POP POP JUMP JUMPDEST PUSH1 0x0 PUSH3 0x38C DUP3 PUSH3 0x39D JUMP JUMPDEST SWAP1 POP SWAP2 SWAP1 POP JUMP JUMPDEST PUSH1 0x0 DUP2 SWAP1 POP SWAP2 SWAP1 POP JUMP JUMPDEST PUSH1 0x0 PUSH20 0xFFFFFFFFFFFFFFFFFFFFFFFFFFFFFFFFFFFFFFFF DUP3 AND SWAP1 POP SWAP2 SWAP1 POP JUMP JUMPDEST PUSH1 0x0 DUP2 SWAP1 POP SWAP2 SWAP1 POP JUMP JUMPDEST PUSH1 0x0 PUSH1 0x2 DUP3 DIV SWAP1 POP PUSH1 0x1 DUP3 AND DUP1 PUSH3 0x3E0 JUMPI PUSH1 0x7F DUP3 AND SWAP2 POP JUMPDEST PUSH1 0x20 DUP3 LT DUP2 EQ ISZERO PUSH3 0x3F7 JUMPI PUSH3 0x3F6 PUSH3 0x3FD JUMP JUMPDEST JUMPDEST POP SWAP2 SWAP1 POP JUMP JUMPDEST PUSH32 0x4E487B7100000000000000000000000000000000000000000000000000000000 PUSH1 0x0 MSTORE PUSH1 0x22 PUSH1 0x4 MSTORE PUSH1 0x24 PUSH1 0x0 REVERT JUMPDEST PUSH1 0x80 MLOAD PUSH1 0xF8 SHR PUSH1 0xA0 MLOAD PUSH1 0xC0 MLOAD PUSH2 0x18D1 PUSH3 0x45F PUSH1 0x0 CODECOPY PUSH1 0x0 PUSH2 0x8B5 ADD MSTORE PUSH1 0x0 PUSH2 0x881 ADD MSTORE PUSH1 0x0 PUSH2 0x85B ADD MSTORE PUSH2 0x18D1 PUSH1 0x0 RETURN INVALID PUSH1 0x80 PUSH1 0x40 MSTORE PUSH1 0x4 CALLDATASIZE LT PUSH2 0xE1 JUMPI PUSH1 0x0 CALLDATALOAD PUSH1 0xE0 SHR DUP1 PUSH4 0x70A08231 GT PUSH2 0x7F JUMPI DUP1 PUSH4 0xA9059CBB GT PUSH2 0x59 JUMPI DUP1 PUSH4 0xA9059CBB EQ PUSH2 0x2E0 JUMPI DUP1 PUSH4 0xD0E30DB0 EQ PUSH2 0x31D JUMPI DUP1 PUSH4 0xD505ACCF EQ PUSH2 0x327 JUMPI DUP1 PUSH4 0xDD62ED3E EQ PUSH2 0x350 JUMPI PUSH2 0xE2 JUMP JUMPDEST DUP1 PUSH4 0x70A08231 EQ PUSH2 0x23B JUMPI DUP1 PUSH4 0x7ECEBE00 EQ PUSH2 0x278 JUMPI DUP1 PUSH4 0x95D89B41 EQ PUSH2 0x2B5 JUMPI PUSH2 0xE2 JUMP JUMPDEST DUP1 PUSH4 0x23B872DD GT PUSH2 0xBB JUMPI DUP1 PUSH4 0x23B872DD EQ PUSH2 0x17F JUMPI DUP1 PUSH4 0x2E1A7D4D EQ PUSH2 0x1BC JUMPI DUP1 PUSH4 0x313CE567 EQ PUSH2 0x1E5 JUMPI DUP1 PUSH4 0x3644E515 EQ PUSH2 0x210 JUMPI PUSH2 0xE2 JUMP JUMPDEST DUP1 PUSH4 0x6FDDE03 EQ PUSH2 0xEC JUMPI DUP1 PUSH4 0x95EA7B3 EQ PUSH2 0x117 JUMPI DUP1 PUSH4 0x18160DDD EQ PUSH2 0x154 JUMPI PUSH2 0xE2 JUMP JUMPDEST JUMPDEST PUSH2 0xEA PUSH2 0x38D JUMP JUMPDEST STOP JUMPDEST CALLVALUE DUP1 ISZERO PUSH2 0xF8 JUMPI PUSH1 0x0 DUP1 REVERT JUMPDEST POP PUSH2 0x101 PUSH2 0x3E7 JUMP JUMPDEST PUSH1 0x40 MLOAD PUSH2 0x10E SWAP2 SWAP1 PUSH2 0x1519 JUMP JUMPDEST PUSH1 0x40 MLOAD DUP1 SWAP2 SUB SWAP1 RETURN JUMPDEST CALLVALUE DUP1 ISZERO PUSH2 0x123 JUMPI PUSH1 0x0 DUP1 REVERT JUMPDEST POP PUSH2 0x13E PUSH1 0x4 DUP1 CALLDATASIZE SUB DUP2 ADD SWAP1 PUSH2 0x139 SWAP2 SWAP1 PUSH2 0x11AC JUMP JUMPDEST PUSH2 0x475 JUMP JUMPDEST PUSH1 0x40 MLOAD PUSH2 0x14B SWAP2 SWAP1 PUSH2 0x13EA JUMP JUMPDEST PUSH1 0x40 MLOAD DUP1 SWAP2 SUB SWAP1 RETURN JUMPDEST CALLVALUE DUP1 ISZERO PUSH2 0x160 JUMPI PUSH1 0x0 DUP1 REVERT JUMPDEST POP PUSH2 0x169 PUSH2 0x567 JUMP JUMPDEST PUSH1 0x40 MLOAD PUSH2 0x176 SWAP2 SWAP1 PUSH2 0x157B JUMP JUMPDEST PUSH1 0x40 MLOAD DUP1 SWAP2 SUB SWAP1 RETURN JUMPDEST CALLVALUE DUP1 ISZERO PUSH2 0x18B JUMPI PUSH1 0x0 DUP1 REVERT JUMPDEST POP PUSH2 0x1A6 PUSH1 0x4 DUP1 CALLDATASIZE SUB DUP2 ADD SWAP1 PUSH2 0x1A1 SWAP2 SWAP1 PUSH2 0x10B7 JUMP JUMPDEST PUSH2 0x56D JUMP JUMPDEST PUSH1 0x40 MLOAD PUSH2 0x1B3 SWAP2 SWAP1 PUSH2 0x13EA JUMP JUMPDEST PUSH1 0x40 MLOAD DUP1 SWAP2 SUB SWAP1 RETURN JUMPDEST CALLVALUE DUP1 ISZERO PUSH2 0x1C8 JUMPI PUSH1 0x0 DUP1 REVERT JUMPDEST POP PUSH2 0x1E3 PUSH1 0x4 DUP1 CALLDATASIZE SUB DUP2 ADD SWAP1 PUSH2 0x1DE SWAP2 SWAP1 PUSH2 0x11EC JUMP JUMPDEST PUSH2 0x7B7 JUMP JUMPDEST STOP JUMPDEST CALLVALUE DUP1 ISZERO PUSH2 0x1F1 JUMPI PUSH1 0x0 DUP1 REVERT JUMPDEST POP PUSH2 0x1FA PUSH2 0x859 JUMP JUMPDEST PUSH1 0x40 MLOAD PUSH2 0x207 SWAP2 SWAP1 PUSH2 0x1596 JUMP JUMPDEST PUSH1 0x40 MLOAD DUP1 SWAP2 SUB SWAP1 RETURN JUMPDEST CALLVALUE DUP1 ISZERO PUSH2 0x21C JUMPI PUSH1 0x0 DUP1 REVERT JUMPDEST POP PUSH2 0x225 PUSH2 0x87D JUMP JUMPDEST PUSH1 0x40 MLOAD PUSH2 0x232 SWAP2 SWAP1 PUSH2 0x1405 JUMP JUMPDEST PUSH1 0x40 MLOAD DUP1 SWAP2 SUB SWAP1 RETURN JUMPDEST CALLVALUE DUP1 ISZERO PUSH2 0x247 JUMPI PUSH1 0x0 DUP1 REVERT JUMPDEST POP PUSH2 0x262 PUSH1 0x4 DUP1 CALLDATASIZE SUB DUP2 ADD SWAP1 PUSH2 0x25D SWAP2 SWAP1 PUSH2 0x104A JUMP JUMPDEST PUSH2 0x8DA JUMP JUMPDEST PUSH1 0x40 MLOAD PUSH2 0x26F SWAP2 SWAP1 PUSH2 0x157B JUMP JUMPDEST PUSH1 0x40 MLOAD DUP1 SWAP2 SUB SWAP1 RETURN JUMPDEST CALLVALUE DUP1 ISZERO PUSH2 0x284 JUMPI PUSH1 0x0 DUP1 REVERT JUMPDEST POP PUSH2 0x29F PUSH1 0x4 DUP1 CALLDATASIZE SUB DUP2 ADD SWAP1 PUSH2 0x29A SWAP2 SWAP1 PUSH2 0x104A JUMP JUMPDEST PUSH2 0x8F2 JUMP JUMPDEST PUSH1 0x40 MLOAD PUSH2 0x2AC SWAP2 SWAP1 PUSH2 0x157B JUMP JUMPDEST PUSH1 0x40 MLOAD DUP1 SWAP2 SUB SWAP1 RETURN JUMPDEST CALLVALUE DUP1 ISZERO PUSH2 0x2C1 JUMPI PUSH1 0x0 DUP1 REVERT JUMPDEST POP PUSH2 0x2CA PUSH2 0x90A JUMP JUMPDEST PUSH1 0x40 MLOAD PUSH2 0x2D7 SWAP2 SWAP1 PUSH2 0x1519 JUMP JUMPDEST PUSH1 0x40 MLOAD DUP1 SWAP2 SUB SWAP1 RETURN JUMPDEST CALLVALUE DUP1 ISZERO PUSH2 0x2EC JUMPI PUSH1 0x0 DUP1 REVERT JUMPDEST POP PUSH2 0x307 PUSH1 0x4 DUP1 CALLDATASIZE SUB DUP2 ADD SWAP1 PUSH2 0x302 SWAP2 SWAP1 PUSH2 0x11AC JUMP JUMPDEST PUSH2 0x998 JUMP JUMPDEST PUSH1 0x40 MLOAD PUSH2 0x314 SWAP2 SWAP1 PUSH2 0x13EA JUMP JUMPDEST PUSH1 0x40 MLOAD DUP1 SWAP2 SUB SWAP1 RETURN JUMPDEST PUSH2 0x325 PUSH2 0x38D JUMP JUMPDEST STOP JUMPDEST CALLVALUE DUP1 ISZERO PUSH2 0x333 JUMPI PUSH1 0x0 DUP1 REVERT JUMPDEST POP PUSH2 0x34E PUSH1 0x4 DUP1 CALLDATASIZE SUB DUP2 ADD SWAP1 PUSH2 0x349 SWAP2 SWAP1 PUSH2 0x110A JUMP JUMPDEST PUSH2 0xAAC JUMP JUMPDEST STOP JUMPDEST CALLVALUE DUP1 ISZERO PUSH2 0x35C JUMPI PUSH1 0x0 DUP1 REVERT JUMPDEST POP PUSH2 0x377 PUSH1 0x4 DUP1 CALLDATASIZE SUB DUP2 ADD SWAP1 PUSH2 0x372 SWAP2 SWAP1 PUSH2 0x1077 JUMP JUMPDEST PUSH2 0xDA5 JUMP JUMPDEST PUSH1 0x40 MLOAD PUSH2 0x384 SWAP2 SWAP1 PUSH2 0x157B JUMP JUMPDEST PUSH1 0x40 MLOAD DUP1 SWAP2 SUB SWAP1 RETURN JUMPDEST PUSH2 0x397 CALLER CALLVALUE PUSH2 0xDCA JUMP JUMPDEST CALLER PUSH20 0xFFFFFFFFFFFFFFFFFFFFFFFFFFFFFFFFFFFFFFFF AND PUSH32 0xE1FFFCC4923D04B559F4D29A8BFC6CDA04EB5B0D3C460751C2402C5C5CC9109C CALLVALUE PUSH1 0x40 MLOAD PUSH2 0x3DD SWAP2 SWAP1 PUSH2 0x157B JUMP JUMPDEST PUSH1 0x40 MLOAD DUP1 SWAP2 SUB SWAP1 LOG2 JUMP JUMPDEST PUSH1 0x0 DUP1 SLOAD PUSH2 0x3F4 SWAP1 PUSH2 0x1714 JUMP JUMPDEST DUP1 PUSH1 0x1F ADD PUSH1 0x20 DUP1 SWAP2 DIV MUL PUSH1 0x20 ADD PUSH1 0x40 MLOAD SWAP1 DUP2 ADD PUSH1 0x40 MSTORE DUP1 SWAP3 SWAP2 SWAP1 DUP2 DUP2 MSTORE PUSH1 0x20 ADD DUP3 DUP1 SLOAD PUSH2 0x420 SWAP1 PUSH2 0x1714 JUMP JUMPDEST DUP1 ISZERO PUSH2 0x46D JUMPI DUP1 PUSH1 0x1F LT PUSH2 0x442 JUMPI PUSH2 0x100 DUP1 DUP4 SLOAD DIV MUL DUP4 MSTORE SWAP2 PUSH1 0x20 ADD SWAP2 PUSH2 0x46D JUMP JUMPDEST DUP3 ADD SWAP2 SWAP1 PUSH1 0x0 MSTORE PUSH1 0x20 PUSH1 0x0 KECCAK256 SWAP1 JUMPDEST DUP2 SLOAD DUP2 MSTORE SWAP1 PUSH1 0x1 ADD SWAP1 PUSH1 0x20 ADD DUP1 DUP4 GT PUSH2 0x450 JUMPI DUP3 SWAP1 SUB PUSH1 0x1F AND DUP3 ADD SWAP2 JUMPDEST POP POP POP POP POP DUP2 JUMP JUMPDEST PUSH1 0x0 DUP2 PUSH1 0x4 PUSH1 0x0 CALLER PUSH20 0xFFFFFFFFFFFFFFFFFFFFFFFFFFFFFFFFFFFFFFFF AND PUSH20 0xFFFFFFFFFFFFFFFFFFFFFFFFFFFFFFFFFFFFFFFF AND DUP2 MSTORE PUSH1 0x20 ADD SWAP1 DUP2 MSTORE PUSH1 0x20 ADD PUSH1 0x0 KECCAK256 PUSH1 0x0 DUP6 PUSH20 0xFFFFFFFFFFFFFFFFFFFFFFFFFFFFFFFFFFFFFFFF AND PUSH20 0xFFFFFFFFFFFFFFFFFFFFFFFFFFFFFFFFFFFFFFFF AND DUP2 MSTORE PUSH1 0x20 ADD SWAP1 DUP2 MSTORE PUSH1 0x20 ADD PUSH1 0x0 KECCAK256 DUP2 SWAP1 SSTORE POP DUP3 PUSH20 0xFFFFFFFFFFFFFFFFFFFFFFFFFFFFFFFFFFFFFFFF AND CALLER PUSH20 0xFFFFFFFFFFFFFFFFFFFFFFFFFFFFFFFFFFFFFFFF AND PUSH32 0x8C5BE1E5EBEC7D5BD14F71427D1E84F3DD0314C0F7B2291E5B200AC8C7C3B925 DUP5 PUSH1 0x40 MLOAD PUSH2 0x555 SWAP2 SWAP1 PUSH2 0x157B JUMP JUMPDEST PUSH1 0x40 MLOAD DUP1 SWAP2 SUB SWAP1 LOG3 PUSH1 0x1 SWAP1 POP SWAP3 SWAP2 POP POP JUMP JUMPDEST PUSH1 0x2 SLOAD DUP2 JUMP JUMPDEST PUSH1 0x0 DUP1 PUSH1 0x4 PUSH1 0x0 DUP7 PUSH20 0xFFFFFFFFFFFFFFFFFFFFFFFFFFFFFFFFFFFFFFFF AND PUSH20 0xFFFFFFFFFFFFFFFFFFFFFFFFFFFFFFFFFFFFFFFF AND DUP2 MSTORE PUSH1 0x20 ADD SWAP1 DUP2 MSTORE PUSH1 0x20 ADD PUSH1 0x0 KECCAK256 PUSH1 0x0 CALLER PUSH20 0xFFFFFFFFFFFFFFFFFFFFFFFFFFFFFFFFFFFFFFFF AND PUSH20 0xFFFFFFFFFFFFFFFFFFFFFFFFFFFFFFFFFFFFFFFF AND DUP2 MSTORE PUSH1 0x20 ADD SWAP1 DUP2 MSTORE PUSH1 0x20 ADD PUSH1 0x0 KECCAK256 SLOAD SWAP1 POP PUSH32 0xFFFFFFFFFFFFFFFFFFFFFFFFFFFFFFFFFFFFFFFFFFFFFFFFFFFFFFFFFFFFFFFF DUP2 EQ PUSH2 0x6A3 JUMPI DUP3 DUP2 PUSH2 0x622 SWAP2 SWAP1 PUSH2 0x164E JUMP JUMPDEST PUSH1 0x4 PUSH1 0x0 DUP8 PUSH20 0xFFFFFFFFFFFFFFFFFFFFFFFFFFFFFFFFFFFFFFFF AND PUSH20 0xFFFFFFFFFFFFFFFFFFFFFFFFFFFFFFFFFFFFFFFF AND DUP2 MSTORE PUSH1 0x20 ADD SWAP1 DUP2 MSTORE PUSH1 0x20 ADD PUSH1 0x0 KECCAK256 PUSH1 0x0 CALLER PUSH20 0xFFFFFFFFFFFFFFFFFFFFFFFFFFFFFFFFFFFFFFFF AND PUSH20 0xFFFFFFFFFFFFFFFFFFFFFFFFFFFFFFFFFFFFFFFF AND DUP2 MSTORE PUSH1 0x20 ADD SWAP1 DUP2 MSTORE PUSH1 0x20 ADD PUSH1 0x0 KECCAK256 DUP2 SWAP1 SSTORE POP JUMPDEST DUP3 PUSH1 0x3 PUSH1 0x0 DUP8 PUSH20 0xFFFFFFFFFFFFFFFFFFFFFFFFFFFFFFFFFFFFFFFF AND PUSH20 0xFFFFFFFFFFFFFFFFFFFFFFFFFFFFFFFFFFFFFFFF AND DUP2 MSTORE PUSH1 0x20 ADD SWAP1 DUP2 MSTORE PUSH1 0x20 ADD PUSH1 0x0 KECCAK256 PUSH1 0x0 DUP3 DUP3 SLOAD PUSH2 0x6F2 SWAP2 SWAP1 PUSH2 0x164E JUMP JUMPDEST SWAP3 POP POP DUP2 SWAP1 SSTORE POP DUP3 PUSH1 0x3 PUSH1 0x0 DUP7 PUSH20 0xFFFFFFFFFFFFFFFFFFFFFFFFFFFFFFFFFFFFFFFF AND PUSH20 0xFFFFFFFFFFFFFFFFFFFFFFFFFFFFFFFFFFFFFFFF AND DUP2 MSTORE PUSH1 0x20 ADD SWAP1 DUP2 MSTORE PUSH1 0x20 ADD PUSH1 0x0 KECCAK256 PUSH1 0x0 DUP3 DUP3 SLOAD ADD SWAP3 POP POP DUP2 SWAP1 SSTORE POP DUP4 PUSH20 0xFFFFFFFFFFFFFFFFFFFFFFFFFFFFFFFFFFFFFFFF AND DUP6 PUSH20 0xFFFFFFFFFFFFFFFFFFFFFFFFFFFFFFFFFFFFFFFF AND PUSH32 0xDDF252AD1BE2C89B69C2B068FC378DAA952BA7F163C4A11628F55A4DF523B3EF DUP6 PUSH1 0x40 MLOAD PUSH2 0x7A3 SWAP2 SWAP1 PUSH2 0x157B JUMP JUMPDEST PUSH1 0x40 MLOAD DUP1 SWAP2 SUB SWAP1 LOG3 PUSH1 0x1 SWAP2 POP POP SWAP4 SWAP3 POP POP POP JUMP JUMPDEST PUSH2 0x7C1 CALLER DUP3 PUSH2 0xE9A JUMP JUMPDEST CALLER PUSH20 0xFFFFFFFFFFFFFFFFFFFFFFFFFFFFFFFFFFFFFFFF AND PUSH2 0x8FC DUP3 SWAP1 DUP2 ISZERO MUL SWAP1 PUSH1 0x40 MLOAD PUSH1 0x0 PUSH1 0x40 MLOAD DUP1 DUP4 SUB DUP2 DUP6 DUP9 DUP9 CALL SWAP4 POP POP POP POP ISZERO DUP1 ISZERO PUSH2 0x807 JUMPI RETURNDATASIZE PUSH1 0x0 DUP1 RETURNDATACOPY RETURNDATASIZE PUSH1 0x0 REVERT JUMPDEST POP CALLER PUSH20 0xFFFFFFFFFFFFFFFFFFFFFFFFFFFFFFFFFFFFFFFF AND PUSH32 0x884EDAD9CE6FA2440D8A54CC123490EB96D2768479D49FF9C7366125A9424364 DUP3 PUSH1 0x40 MLOAD PUSH2 0x84E SWAP2 SWAP1 PUSH2 0x157B JUMP JUMPDEST PUSH1 0x40 MLOAD DUP1 SWAP2 SUB SWAP1 LOG2 POP JUMP JUMPDEST PUSH32 0x0 DUP2 JUMP JUMPDEST PUSH1 0x0 PUSH32 0x0 CHAINID EQ PUSH2 0x8B3 JUMPI PUSH2 0x8AE PUSH2 0xF6A JUMP JUMPDEST PUSH2 0x8D5 JUMP JUMPDEST PUSH32 0x0 JUMPDEST SWAP1 POP SWAP1 JUMP JUMPDEST PUSH1 0x3 PUSH1 0x20 MSTORE DUP1 PUSH1 0x0 MSTORE PUSH1 0x40 PUSH1 0x0 KECCAK256 PUSH1 0x0 SWAP2 POP SWAP1 POP SLOAD DUP2 JUMP JUMPDEST PUSH1 0x5 PUSH1 0x20 MSTORE DUP1 PUSH1 0x0 MSTORE PUSH1 0x40 PUSH1 0x0 KECCAK256 PUSH1 0x0 SWAP2 POP SWAP1 POP SLOAD DUP2 JUMP JUMPDEST PUSH1 0x1 DUP1 SLOAD PUSH2 0x917 SWAP1 PUSH2 0x1714 JUMP JUMPDEST DUP1 PUSH1 0x1F ADD PUSH1 0x20 DUP1 SWAP2 DIV MUL PUSH1 0x20 ADD PUSH1 0x40 MLOAD SWAP1 DUP2 ADD PUSH1 0x40 MSTORE DUP1 SWAP3 SWAP2 SWAP1 DUP2 DUP2 MSTORE PUSH1 0x20 ADD DUP3 DUP1 SLOAD PUSH2 0x943 SWAP1 PUSH2 0x1714 JUMP JUMPDEST DUP1 ISZERO PUSH2 0x990 JUMPI DUP1 PUSH1 0x1F LT PUSH2 0x965 JUMPI PUSH2 0x100 DUP1 DUP4 SLOAD DIV MUL DUP4 MSTORE SWAP2 PUSH1 0x20 ADD SWAP2 PUSH2 0x990 JUMP JUMPDEST DUP3 ADD SWAP2 SWAP1 PUSH1 0x0 MSTORE PUSH1 0x20 PUSH1 0x0 KECCAK256 SWAP1 JUMPDEST DUP2 SLOAD DUP2 MSTORE SWAP1 PUSH1 0x1 ADD SWAP1 PUSH1 0x20 ADD DUP1 DUP4 GT PUSH2 0x973 JUMPI DUP3 SWAP1 SUB PUSH1 0x1F AND DUP3 ADD SWAP2 JUMPDEST POP POP POP POP POP DUP2 JUMP JUMPDEST PUSH1 0x0 DUP2 PUSH1 0x3 PUSH1 0x0 CALLER PUSH20 0xFFFFFFFFFFFFFFFFFFFFFFFFFFFFFFFFFFFFFFFF AND PUSH20 0xFFFFFFFFFFFFFFFFFFFFFFFFFFFFFFFFFFFFFFFF AND DUP2 MSTORE PUSH1 0x20 ADD SWAP1 DUP2 MSTORE PUSH1 0x20 ADD PUSH1 0x0 KECCAK256 PUSH1 0x0 DUP3 DUP3 SLOAD PUSH2 0x9E9 SWAP2 SWAP1 PUSH2 0x164E JUMP JUMPDEST SWAP3 POP POP DUP2 SWAP1 SSTORE POP DUP2 PUSH1 0x3 PUSH1 0x0 DUP6 PUSH20 0xFFFFFFFFFFFFFFFFFFFFFFFFFFFFFFFFFFFFFFFF AND PUSH20 0xFFFFFFFFFFFFFFFFFFFFFFFFFFFFFFFFFFFFFFFF AND DUP2 MSTORE PUSH1 0x20 ADD SWAP1 DUP2 MSTORE PUSH1 0x20 ADD PUSH1 0x0 KECCAK256 PUSH1 0x0 DUP3 DUP3 SLOAD ADD SWAP3 POP POP DUP2 SWAP1 SSTORE POP DUP3 PUSH20 0xFFFFFFFFFFFFFFFFFFFFFFFFFFFFFFFFFFFFFFFF AND CALLER PUSH20 0xFFFFFFFFFFFFFFFFFFFFFFFFFFFFFFFFFFFFFFFF AND PUSH32 0xDDF252AD1BE2C89B69C2B068FC378DAA952BA7F163C4A11628F55A4DF523B3EF DUP5 PUSH1 0x40 MLOAD PUSH2 0xA9A SWAP2 SWAP1 PUSH2 0x157B JUMP JUMPDEST PUSH1 0x40 MLOAD DUP1 SWAP2 SUB SWAP1 LOG3 PUSH1 0x1 SWAP1 POP SWAP3 SWAP2 POP POP JUMP JUMPDEST TIMESTAMP DUP5 LT ISZERO PUSH2 0xAEF JUMPI PUSH1 0x40 MLOAD PUSH32 0x8C379A000000000000000000000000000000000000000000000000000000000 DUP2 MSTORE PUSH1 0x4 ADD PUSH2 0xAE6 SWAP1 PUSH2 0x155B JUMP JUMPDEST PUSH1 0x40 MLOAD DUP1 SWAP2 SUB SWAP1 REVERT JUMPDEST PUSH1 0x0 PUSH1 0x1 PUSH2 0xAFB PUSH2 0x87D JUMP JUMPDEST PUSH32 0x6E71EDAE12B1B97F4D1F60370FEF10105FA2FAAE0126114A169C64845D6126C9 DUP11 DUP11 DUP11 PUSH1 0x5 PUSH1 0x0 DUP16 PUSH20 0xFFFFFFFFFFFFFFFFFFFFFFFFFFFFFFFFFFFFFFFF AND PUSH20 0xFFFFFFFFFFFFFFFFFFFFFFFFFFFFFFFFFFFFFFFF AND DUP2 MSTORE PUSH1 0x20 ADD SWAP1 DUP2 MSTORE PUSH1 0x20 ADD PUSH1 0x0 KECCAK256 PUSH1 0x0 DUP2 SLOAD DUP1 SWAP3 SWAP2 SWAP1 PUSH1 0x1 ADD SWAP2 SWAP1 POP SSTORE DUP12 PUSH1 0x40 MLOAD PUSH1 0x20 ADD PUSH2 0xB83 SWAP7 SWAP6 SWAP5 SWAP4 SWAP3 SWAP2 SWAP1 PUSH2 0x1420 JUMP JUMPDEST PUSH1 0x40 MLOAD PUSH1 0x20 DUP2 DUP4 SUB SUB DUP2 MSTORE SWAP1 PUSH1 0x40 MSTORE DUP1 MLOAD SWAP1 PUSH1 0x20 ADD KECCAK256 PUSH1 0x40 MLOAD PUSH1 0x20 ADD PUSH2 0xBAA SWAP3 SWAP2 SWAP1 PUSH2 0x13B3 JUMP JUMPDEST PUSH1 0x40 MLOAD PUSH1 0x20 DUP2 DUP4 SUB SUB DUP2 MSTORE SWAP1 PUSH1 0x40 MSTORE DUP1 MLOAD SWAP1 PUSH1 0x20 ADD KECCAK256 DUP6 DUP6 DUP6 PUSH1 0x40 MLOAD PUSH1 0x0 DUP2 MSTORE PUSH1 0x20 ADD PUSH1 0x40 MSTORE PUSH1 0x40 MLOAD PUSH2 0xBE0 SWAP5 SWAP4 SWAP3 SWAP2 SWAP1 PUSH2 0x14D4 JUMP JUMPDEST PUSH1 0x20 PUSH1 0x40 MLOAD PUSH1 0x20 DUP2 SUB SWAP1 DUP1 DUP5 SUB SWAP1 DUP6 GAS STATICCALL ISZERO DUP1 ISZERO PUSH2 0xC02 JUMPI RETURNDATASIZE PUSH1 0x0 DUP1 RETURNDATACOPY RETURNDATASIZE PUSH1 0x0 REVERT JUMPDEST POP POP POP PUSH1 0x20 PUSH1 0x40 MLOAD SUB MLOAD SWAP1 POP PUSH1 0x0 PUSH20 0xFFFFFFFFFFFFFFFFFFFFFFFFFFFFFFFFFFFFFFFF AND DUP2 PUSH20 0xFFFFFFFFFFFFFFFFFFFFFFFFFFFFFFFFFFFFFFFF AND EQ ISZERO DUP1 ISZERO PUSH2 0xC76 JUMPI POP DUP8 PUSH20 0xFFFFFFFFFFFFFFFFFFFFFFFFFFFFFFFFFFFFFFFF AND DUP2 PUSH20 0xFFFFFFFFFFFFFFFFFFFFFFFFFFFFFFFFFFFFFFFF AND EQ JUMPDEST PUSH2 0xCB5 JUMPI PUSH1 0x40 MLOAD PUSH32 0x8C379A000000000000000000000000000000000000000000000000000000000 DUP2 MSTORE PUSH1 0x4 ADD PUSH2 0xCAC SWAP1 PUSH2 0x153B JUMP JUMPDEST PUSH1 0x40 MLOAD DUP1 SWAP2 SUB SWAP1 REVERT JUMPDEST DUP6 PUSH1 0x4 PUSH1 0x0 DUP4 PUSH20 0xFFFFFFFFFFFFFFFFFFFFFFFFFFFFFFFFFFFFFFFF AND PUSH20 0xFFFFFFFFFFFFFFFFFFFFFFFFFFFFFFFFFFFFFFFF AND DUP2 MSTORE PUSH1 0x20 ADD SWAP1 DUP2 MSTORE PUSH1 0x20 ADD PUSH1 0x0 KECCAK256 PUSH1 0x0 DUP10 PUSH20 0xFFFFFFFFFFFFFFFFFFFFFFFFFFFFFFFFFFFFFFFF AND PUSH20 0xFFFFFFFFFFFFFFFFFFFFFFFFFFFFFFFFFFFFFFFF AND DUP2 MSTORE PUSH1 0x20 ADD SWAP1 DUP2 MSTORE PUSH1 0x20 ADD PUSH1 0x0 KECCAK256 DUP2 SWAP1 SSTORE POP POP DUP6 PUSH20 0xFFFFFFFFFFFFFFFFFFFFFFFFFFFFFFFFFFFFFFFF AND DUP8 PUSH20 0xFFFFFFFFFFFFFFFFFFFFFFFFFFFFFFFFFFFFFFFF AND PUSH32 0x8C5BE1E5EBEC7D5BD14F71427D1E84F3DD0314C0F7B2291E5B200AC8C7C3B925 DUP8 PUSH1 0x40 MLOAD PUSH2 0xD94 SWAP2 SWAP1 PUSH2 0x157B JUMP JUMPDEST PUSH1 0x40 MLOAD DUP1 SWAP2 SUB SWAP1 LOG3 POP POP POP POP POP POP POP JUMP JUMPDEST PUSH1 0x4 PUSH1 0x20 MSTORE DUP2 PUSH1 0x0 MSTORE PUSH1 0x40 PUSH1 0x0 KECCAK256 PUSH1 0x20 MSTORE DUP1 PUSH1 0x0 MSTORE PUSH1 0x40 PUSH1 0x0 KECCAK256 PUSH1 0x0 SWAP2 POP SWAP2 POP POP SLOAD DUP2 JUMP JUMPDEST DUP1 PUSH1 0x2 PUSH1 0x0 DUP3 DUP3 SLOAD PUSH2 0xDDC SWAP2 SWAP1 PUSH2 0x15F8 JUMP JUMPDEST SWAP3 POP POP DUP2 SWAP1 SSTORE POP DUP1 PUSH1 0x3 PUSH1 0x0 DUP5 PUSH20 0xFFFFFFFFFFFFFFFFFFFFFFFFFFFFFFFFFFFFFFFF AND PUSH20 0xFFFFFFFFFFFFFFFFFFFFFFFFFFFFFFFFFFFFFFFF AND DUP2 MSTORE PUSH1 0x20 ADD SWAP1 DUP2 MSTORE PUSH1 0x20 ADD PUSH1 0x0 KECCAK256 PUSH1 0x0 DUP3 DUP3 SLOAD ADD SWAP3 POP POP DUP2 SWAP1 SSTORE POP DUP2 PUSH20 0xFFFFFFFFFFFFFFFFFFFFFFFFFFFFFFFFFFFFFFFF AND PUSH1 0x0 PUSH20 0xFFFFFFFFFFFFFFFFFFFFFFFFFFFFFFFFFFFFFFFF AND PUSH32 0xDDF252AD1BE2C89B69C2B068FC378DAA952BA7F163C4A11628F55A4DF523B3EF DUP4 PUSH1 0x40 MLOAD PUSH2 0xE8E SWAP2 SWAP1 PUSH2 0x157B JUMP JUMPDEST PUSH1 0x40 MLOAD DUP1 SWAP2 SUB SWAP1 LOG3 POP POP JUMP JUMPDEST DUP1 PUSH1 0x3 PUSH1 0x0 DUP5 PUSH20 0xFFFFFFFFFFFFFFFFFFFFFFFFFFFFFFFFFFFFFFFF AND PUSH20 0xFFFFFFFFFFFFFFFFFFFFFFFFFFFFFFFFFFFFFFFF AND DUP2 MSTORE PUSH1 0x20 ADD SWAP1 DUP2 MSTORE PUSH1 0x20 ADD PUSH1 0x0 KECCAK256 PUSH1 0x0 DUP3 DUP3 SLOAD PUSH2 0xEE9 SWAP2 SWAP1 PUSH2 0x164E JUMP JUMPDEST SWAP3 POP POP DUP2 SWAP1 SSTORE POP DUP1 PUSH1 0x2 PUSH1 0x0 DUP3 DUP3 SLOAD SUB SWAP3 POP POP DUP2 SWAP1 SSTORE POP PUSH1 0x0 PUSH20 0xFFFFFFFFFFFFFFFFFFFFFFFFFFFFFFFFFFFFFFFF AND DUP3 PUSH20 0xFFFFFFFFFFFFFFFFFFFFFFFFFFFFFFFFFFFFFFFF AND PUSH32 0xDDF252AD1BE2C89B69C2B068FC378DAA952BA7F163C4A11628F55A4DF523B3EF DUP4 PUSH1 0x40 MLOAD PUSH2 0xF5E SWAP2 SWAP1 PUSH2 0x157B JUMP JUMPDEST PUSH1 0x40 MLOAD DUP1 SWAP2 SUB SWAP1 LOG3 POP POP JUMP JUMPDEST PUSH1 0x0 PUSH32 0x8B73C3C69BB8FE3D512ECC4CF759CC79239F7B179B0FFACAA9A75D522B39400F PUSH1 0x0 PUSH1 0x40 MLOAD PUSH2 0xF9C SWAP2 SWAP1 PUSH2 0x139C JUMP JUMPDEST PUSH1 0x40 MLOAD DUP1 SWAP2 SUB SWAP1 KECCAK256 PUSH32 0xC89EFDAA54C0F20C7ADF612882DF0950F5A951637E0307CDCB4C672F298B8BC6 CHAINID ADDRESS PUSH1 0x40 MLOAD PUSH1 0x20 ADD PUSH2 0xFDB SWAP6 SWAP5 SWAP4 SWAP3 SWAP2 SWAP1 PUSH2 0x1481 JUMP JUMPDEST PUSH1 0x40 MLOAD PUSH1 0x20 DUP2 DUP4 SUB SUB DUP2 MSTORE SWAP1 PUSH1 0x40 MSTORE DUP1 MLOAD SWAP1 PUSH1 0x20 ADD KECCAK256 SWAP1 POP SWAP1 JUMP JUMPDEST PUSH1 0x0 DUP2 CALLDATALOAD SWAP1 POP PUSH2 0x1005 DUP2 PUSH2 0x183F JUMP JUMPDEST SWAP3 SWAP2 POP POP JUMP JUMPDEST PUSH1 0x0 DUP2 CALLDATALOAD SWAP1 POP PUSH2 0x101A DUP2 PUSH2 0x1856 JUMP JUMPDEST SWAP3 SWAP2 POP POP JUMP JUMPDEST PUSH1 0x0 DUP2 CALLDATALOAD SWAP1 POP PUSH2 0x102F DUP2 PUSH2 0x186D JUMP JUMPDEST SWAP3 SWAP2 POP POP JUMP JUMPDEST PUSH1 0x0 DUP2 CALLDATALOAD SWAP1 POP PUSH2 0x1044 DUP2 PUSH2 0x1884 JUMP JUMPDEST SWAP3 SWAP2 POP POP JUMP JUMPDEST PUSH1 0x0 PUSH1 0x20 DUP3 DUP5 SUB SLT ISZERO PUSH2 0x1060 JUMPI PUSH2 0x105F PUSH2 0x17AE JUMP JUMPDEST JUMPDEST PUSH1 0x0 PUSH2 0x106E DUP5 DUP3 DUP6 ADD PUSH2 0xFF6 JUMP JUMPDEST SWAP2 POP POP SWAP3 SWAP2 POP POP JUMP JUMPDEST PUSH1 0x0 DUP1 PUSH1 0x40 DUP4 DUP6 SUB SLT ISZERO PUSH2 0x108E JUMPI PUSH2 0x108D PUSH2 0x17AE JUMP JUMPDEST JUMPDEST PUSH1 0x0 PUSH2 0x109C DUP6 DUP3 DUP7 ADD PUSH2 0xFF6 JUMP JUMPDEST SWAP3 POP POP PUSH1 0x20 PUSH2 0x10AD DUP6 DUP3 DUP7 ADD PUSH2 0xFF6 JUMP JUMPDEST SWAP2 POP POP SWAP3 POP SWAP3 SWAP1 POP JUMP JUMPDEST PUSH1 0x0 DUP1 PUSH1 0x0 PUSH1 0x60 DUP5 DUP7 SUB SLT ISZERO PUSH2 0x10D0 JUMPI PUSH2 0x10CF PUSH2 0x17AE JUMP JUMPDEST JUMPDEST PUSH1 0x0 PUSH2 0x10DE DUP7 DUP3 DUP8 ADD PUSH2 0xFF6 JUMP JUMPDEST SWAP4 POP POP PUSH1 0x20 PUSH2 0x10EF DUP7 DUP3 DUP8 ADD PUSH2 0xFF6 JUMP JUMPDEST SWAP3 POP POP PUSH1 0x40 PUSH2 0x1100 DUP7 DUP3 DUP8 ADD PUSH2 0x1020 JUMP JUMPDEST SWAP2 POP POP SWAP3 POP SWAP3 POP SWAP3 JUMP JUMPDEST PUSH1 0x0 DUP1 PUSH1 0x0 DUP1 PUSH1 0x0 DUP1 PUSH1 0x0 PUSH1 0xE0 DUP9 DUP11 SUB SLT ISZERO PUSH2 0x1129 JUMPI PUSH2 0x1128 PUSH2 0x17AE JUMP JUMPDEST JUMPDEST PUSH1 0x0 PUSH2 0x1137 DUP11 DUP3 DUP12 ADD PUSH2 0xFF6 JUMP JUMPDEST SWAP8 POP POP PUSH1 0x20 PUSH2 0x1148 DUP11 DUP3 DUP12 ADD PUSH2 0xFF6 JUMP JUMPDEST SWAP7 POP POP PUSH1 0x40 PUSH2 0x1159 DUP11 DUP3 DUP12 ADD PUSH2 0x1020 JUMP JUMPDEST SWAP6 POP POP PUSH1 0x60 PUSH2 0x116A DUP11 DUP3 DUP12 ADD PUSH2 0x1020 JUMP JUMPDEST SWAP5 POP POP PUSH1 0x80 PUSH2 0x117B DUP11 DUP3 DUP12 ADD PUSH2 0x1035 JUMP JUMPDEST SWAP4 POP POP PUSH1 0xA0 PUSH2 0x118C DUP11 DUP3 DUP12 ADD PUSH2 0x100B JUMP JUMPDEST SWAP3 POP POP PUSH1 0xC0 PUSH2 0x119D DUP11 DUP3 DUP12 ADD PUSH2 0x100B JUMP JUMPDEST SWAP2 POP POP SWAP3 SWAP6 SWAP9 SWAP2 SWAP5 SWAP8 POP SWAP3 SWAP6 POP JUMP JUMPDEST PUSH1 0x0 DUP1 PUSH1 0x40 DUP4 DUP6 SUB SLT ISZERO PUSH2 0x11C3 JUMPI PUSH2 0x11C2 PUSH2 0x17AE JUMP JUMPDEST JUMPDEST PUSH1 0x0 PUSH2 0x11D1 DUP6 DUP3 DUP7 ADD PUSH2 0xFF6 JUMP JUMPDEST SWAP3 POP POP PUSH1 0x20 PUSH2 0x11E2 DUP6 DUP3 DUP7 ADD PUSH2 0x1020 JUMP JUMPDEST SWAP2 POP POP SWAP3 POP SWAP3 SWAP1 POP JUMP JUMPDEST PUSH1 0x0 PUSH1 0x20 DUP3 DUP5 SUB SLT ISZERO PUSH2 0x1202 JUMPI PUSH2 0x1201 PUSH2 0x17AE JUMP JUMPDEST JUMPDEST PUSH1 0x0 PUSH2 0x1210 DUP5 DUP3 DUP6 ADD PUSH2 0x1020 JUMP JUMPDEST SWAP2 POP POP SWAP3 SWAP2 POP POP JUMP JUMPDEST PUSH2 0x1222 DUP2 PUSH2 0x1682 JUMP JUMPDEST DUP3 MSTORE POP POP JUMP JUMPDEST PUSH2 0x1231 DUP2 PUSH2 0x1694 JUMP JUMPDEST DUP3 MSTORE POP POP JUMP JUMPDEST PUSH2 0x1240 DUP2 PUSH2 0x16A0 JUMP JUMPDEST DUP3 MSTORE POP POP JUMP JUMPDEST PUSH2 0x1257 PUSH2 0x1252 DUP3 PUSH2 0x16A0 JUMP JUMPDEST PUSH2 0x1746 JUMP JUMPDEST DUP3 MSTORE POP POP JUMP JUMPDEST PUSH1 0x0 DUP2 SLOAD PUSH2 0x126A DUP2 PUSH2 0x1714 JUMP JUMPDEST PUSH2 0x1274 DUP2 DUP7 PUSH2 0x15D1 JUMP JUMPDEST SWAP5 POP PUSH1 0x1 DUP3 AND PUSH1 0x0 DUP2 EQ PUSH2 0x128F JUMPI PUSH1 0x1 DUP2 EQ PUSH2 0x12A0 JUMPI PUSH2 0x12D3 JUMP JUMPDEST PUSH1 0xFF NOT DUP4 AND DUP7 MSTORE DUP2 DUP7 ADD SWAP4 POP PUSH2 0x12D3 JUMP JUMPDEST PUSH2 0x12A9 DUP6 PUSH2 0x15B1 JUMP JUMPDEST PUSH1 0x0 JUMPDEST DUP4 DUP2 LT ISZERO PUSH2 0x12CB JUMPI DUP2 SLOAD DUP2 DUP10 ADD MSTORE PUSH1 0x1 DUP3 ADD SWAP2 POP PUSH1 0x20 DUP2 ADD SWAP1 POP PUSH2 0x12AC JUMP JUMPDEST DUP4 DUP9 ADD SWAP6 POP POP POP JUMPDEST POP POP POP SWAP3 SWAP2 POP POP JUMP JUMPDEST PUSH1 0x0 PUSH2 0x12E7 DUP3 PUSH2 0x15C6 JUMP JUMPDEST PUSH2 0x12F1 DUP2 DUP6 PUSH2 0x15DC JUMP JUMPDEST SWAP4 POP PUSH2 0x1301 DUP2 DUP6 PUSH1 0x20 DUP7 ADD PUSH2 0x16E1 JUMP JUMPDEST PUSH2 0x130A DUP2 PUSH2 0x17B3 JUMP JUMPDEST DUP5 ADD SWAP2 POP POP SWAP3 SWAP2 POP POP JUMP JUMPDEST PUSH1 0x0 PUSH2 0x1322 PUSH1 0x2 DUP4 PUSH2 0x15ED JUMP JUMPDEST SWAP2 POP PUSH2 0x132D DUP3 PUSH2 0x17C4 JUMP JUMPDEST PUSH1 0x2 DUP3 ADD SWAP1 POP SWAP2 SWAP1 POP JUMP JUMPDEST PUSH1 0x0 PUSH2 0x1345 PUSH1 0xE DUP4 PUSH2 0x15DC JUMP JUMPDEST SWAP2 POP PUSH2 0x1350 DUP3 PUSH2 0x17ED JUMP JUMPDEST PUSH1 0x20 DUP3 ADD SWAP1 POP SWAP2 SWAP1 POP JUMP JUMPDEST PUSH1 0x0 PUSH2 0x1368 PUSH1 0x17 DUP4 PUSH2 0x15DC JUMP JUMPDEST SWAP2 POP PUSH2 0x1373 DUP3 PUSH2 0x1816 JUMP JUMPDEST PUSH1 0x20 DUP3 ADD SWAP1 POP SWAP2 SWAP1 POP JUMP JUMPDEST PUSH2 0x1387 DUP2 PUSH2 0x16CA JUMP JUMPDEST DUP3 MSTORE POP POP JUMP JUMPDEST PUSH2 0x1396 DUP2 PUSH2 0x16D4 JUMP JUMPDEST DUP3 MSTORE POP POP JUMP JUMPDEST PUSH1 0x0 PUSH2 0x13A8 DUP3 DUP5 PUSH2 0x125D JUMP JUMPDEST SWAP2 POP DUP2 SWAP1 POP SWAP3 SWAP2 POP POP JUMP JUMPDEST PUSH1 0x0 PUSH2 0x13BE DUP3 PUSH2 0x1315 JUMP JUMPDEST SWAP2 POP PUSH2 0x13CA DUP3 DUP6 PUSH2 0x1246 JUMP JUMPDEST PUSH1 0x20 DUP3 ADD SWAP2 POP PUSH2 0x13DA DUP3 DUP5 PUSH2 0x1246 JUMP JUMPDEST PUSH1 0x20 DUP3 ADD SWAP2 POP DUP2 SWAP1 POP SWAP4 SWAP3 POP POP POP JUMP JUMPDEST PUSH1 0x0 PUSH1 0x20 DUP3 ADD SWAP1 POP PUSH2 0x13FF PUSH1 0x0 DUP4 ADD DUP5 PUSH2 0x1228 JUMP JUMPDEST SWAP3 SWAP2 POP POP JUMP JUMPDEST PUSH1 0x0 PUSH1 0x20 DUP3 ADD SWAP1 POP PUSH2 0x141A PUSH1 0x0 DUP4 ADD DUP5 PUSH2 0x1237 JUMP JUMPDEST SWAP3 SWAP2 POP POP JUMP JUMPDEST PUSH1 0x0 PUSH1 0xC0 DUP3 ADD SWAP1 POP PUSH2 0x1435 PUSH1 0x0 DUP4 ADD DUP10 PUSH2 0x1237 JUMP JUMPDEST PUSH2 0x1442 PUSH1 0x20 DUP4 ADD DUP9 PUSH2 0x1219 JUMP JUMPDEST PUSH2 0x144F PUSH1 0x40 DUP4 ADD DUP8 PUSH2 0x1219 JUMP JUMPDEST PUSH2 0x145C PUSH1 0x60 DUP4 ADD DUP7 PUSH2 0x137E JUMP JUMPDEST PUSH2 0x1469 PUSH1 0x80 DUP4 ADD DUP6 PUSH2 0x137E JUMP JUMPDEST PUSH2 0x1476 PUSH1 0xA0 DUP4 ADD DUP5 PUSH2 0x137E JUMP JUMPDEST SWAP8 SWAP7 POP POP POP POP POP POP POP JUMP JUMPDEST PUSH1 0x0 PUSH1 0xA0 DUP3 ADD SWAP1 POP PUSH2 0x1496 PUSH1 0x0 DUP4 ADD DUP9 PUSH2 0x1237 JUMP JUMPDEST PUSH2 0x14A3 PUSH1 0x20 DUP4 ADD DUP8 PUSH2 0x1237 JUMP JUMPDEST PUSH2 0x14B0 PUSH1 0x40 DUP4 ADD DUP7 PUSH2 0x1237 JUMP JUMPDEST PUSH2 0x14BD PUSH1 0x60 DUP4 ADD DUP6 PUSH2 0x137E JUMP JUMPDEST PUSH2 0x14CA PUSH1 0x80 DUP4 ADD DUP5 PUSH2 0x1219 JUMP JUMPDEST SWAP7 SWAP6 POP POP POP POP POP POP JUMP JUMPDEST PUSH1 0x0 PUSH1 0x80 DUP3 ADD SWAP1 POP PUSH2 0x14E9 PUSH1 0x0 DUP4 ADD DUP8 PUSH2 0x1237 JUMP JUMPDEST PUSH2 0x14F6 PUSH1 0x20 DUP4 ADD DUP7 PUSH2 0x138D JUMP JUMPDEST PUSH2 0x1503 PUSH1 0x40 DUP4 ADD DUP6 PUSH2 0x1237 JUMP JUMPDEST PUSH2 0x1510 PUSH1 0x60 DUP4 ADD DUP5 PUSH2 0x1237 JUMP JUMPDEST SWAP6 SWAP5 POP POP POP POP POP JUMP JUMPDEST PUSH1 0x0 PUSH1 0x20 DUP3 ADD SWAP1 POP DUP2 DUP2 SUB PUSH1 0x0 DUP4 ADD MSTORE PUSH2 0x1533 DUP2 DUP5 PUSH2 0x12DC JUMP JUMPDEST SWAP1 POP SWAP3 SWAP2 POP POP JUMP JUMPDEST PUSH1 0x0 PUSH1 0x20 DUP3 ADD SWAP1 POP DUP2 DUP2 SUB PUSH1 0x0 DUP4 ADD MSTORE PUSH2 0x1554 DUP2 PUSH2 0x1338 JUMP JUMPDEST SWAP1 POP SWAP2 SWAP1 POP JUMP JUMPDEST PUSH1 0x0 PUSH1 0x20 DUP3 ADD SWAP1 POP DUP2 DUP2 SUB PUSH1 0x0 DUP4 ADD MSTORE PUSH2 0x1574 DUP2 PUSH2 0x135B JUMP JUMPDEST SWAP1 POP SWAP2 SWAP1 POP JUMP JUMPDEST PUSH1 0x0 PUSH1 0x20 DUP3 ADD SWAP1 POP PUSH2 0x1590 PUSH1 0x0 DUP4 ADD DUP5 PUSH2 0x137E JUMP JUMPDEST SWAP3 SWAP2 POP POP JUMP JUMPDEST PUSH1 0x0 PUSH1 0x20 DUP3 ADD SWAP1 POP PUSH2 0x15AB PUSH1 0x0 DUP4 ADD DUP5 PUSH2 0x138D JUMP JUMPDEST SWAP3 SWAP2 POP POP JUMP JUMPDEST PUSH1 0x0 DUP2 SWAP1 POP DUP2 PUSH1 0x0 MSTORE PUSH1 0x20 PUSH1 0x0 KECCAK256 SWAP1 POP SWAP2 SWAP1 POP JUMP JUMPDEST PUSH1 0x0 DUP2 MLOAD SWAP1 POP SWAP2 SWAP1 POP JUMP JUMPDEST PUSH1 0x0 DUP2 SWAP1 POP SWAP3 SWAP2 POP POP JUMP JUMPDEST PUSH1 0x0 DUP3 DUP3 MSTORE PUSH1 0x20 DUP3 ADD SWAP1 POP SWAP3 SWAP2 POP POP JUMP JUMPDEST PUSH1 0x0 DUP2 SWAP1 POP SWAP3 SWAP2 POP POP JUMP JUMPDEST PUSH1 0x0 PUSH2 0x1603 DUP3 PUSH2 0x16CA JUMP JUMPDEST SWAP2 POP PUSH2 0x160E DUP4 PUSH2 0x16CA JUMP JUMPDEST SWAP3 POP DUP3 PUSH32 0xFFFFFFFFFFFFFFFFFFFFFFFFFFFFFFFFFFFFFFFFFFFFFFFFFFFFFFFFFFFFFFFF SUB DUP3 GT ISZERO PUSH2 0x1643 JUMPI PUSH2 0x1642 PUSH2 0x1750 JUMP JUMPDEST JUMPDEST DUP3 DUP3 ADD SWAP1 POP SWAP3 SWAP2 POP POP JUMP JUMPDEST PUSH1 0x0 PUSH2 0x1659 DUP3 PUSH2 0x16CA JUMP JUMPDEST SWAP2 POP PUSH2 0x1664 DUP4 PUSH2 0x16CA JUMP JUMPDEST SWAP3 POP DUP3 DUP3 LT ISZERO PUSH2 0x1677 JUMPI PUSH2 0x1676 PUSH2 0x1750 JUMP JUMPDEST JUMPDEST DUP3 DUP3 SUB SWAP1 POP SWAP3 SWAP2 POP POP JUMP JUMPDEST PUSH1 0x0 PUSH2 0x168D DUP3 PUSH2 0x16AA JUMP JUMPDEST SWAP1 POP SWAP2 SWAP1 POP JUMP JUMPDEST PUSH1 0x0 DUP2 ISZERO ISZERO SWAP1 POP SWAP2 SWAP1 POP JUMP JUMPDEST PUSH1 0x0 DUP2 SWAP1 POP SWAP2 SWAP1 POP JUMP JUMPDEST PUSH1 0x0 PUSH20 0xFFFFFFFFFFFFFFFFFFFFFFFFFFFFFFFFFFFFFFFF DUP3 AND SWAP1 POP SWAP2 SWAP1 POP JUMP JUMPDEST PUSH1 0x0 DUP2 SWAP1 POP SWAP2 SWAP1 POP JUMP JUMPDEST PUSH1 0x0 PUSH1 0xFF DUP3 AND SWAP1 POP SWAP2 SWAP1 POP JUMP JUMPDEST PUSH1 0x0 JUMPDEST DUP4 DUP2 LT ISZERO PUSH2 0x16FF JUMPI DUP1 DUP3 ADD MLOAD DUP2 DUP5 ADD MSTORE PUSH1 0x20 DUP2 ADD SWAP1 POP PUSH2 0x16E4 JUMP JUMPDEST DUP4 DUP2 GT ISZERO PUSH2 0x170E JUMPI PUSH1 0x0 DUP5 DUP5 ADD MSTORE JUMPDEST POP POP POP POP JUMP JUMPDEST PUSH1 0x0 PUSH1 0x2 DUP3 DIV SWAP1 POP PUSH1 0x1 DUP3 AND DUP1 PUSH2 0x172C JUMPI PUSH1 0x7F DUP3 AND SWAP2 POP JUMPDEST PUSH1 0x20 DUP3 LT DUP2 EQ ISZERO PUSH2 0x1740 JUMPI PUSH2 0x173F PUSH2 0x177F JUMP JUMPDEST JUMPDEST POP SWAP2 SWAP1 POP JUMP JUMPDEST PUSH1 0x0 DUP2 SWAP1 POP SWAP2 SWAP1 POP JUMP JUMPDEST PUSH32 0x4E487B7100000000000000000000000000000000000000000000000000000000 PUSH1 0x0 MSTORE PUSH1 0x11 PUSH1 0x4 MSTORE PUSH1 0x24 PUSH1 0x0 REVERT JUMPDEST PUSH32 0x4E487B7100000000000000000000000000000000000000000000000000000000 PUSH1 0x0 MSTORE PUSH1 0x22 PUSH1 0x4 MSTORE PUSH1 0x24 PUSH1 0x0 REVERT JUMPDEST PUSH1 0x0 DUP1 REVERT JUMPDEST PUSH1 0x0 PUSH1 0x1F NOT PUSH1 0x1F DUP4 ADD AND SWAP1 POP SWAP2 SWAP1 POP JUMP JUMPDEST PUSH32 0x1901000000000000000000000000000000000000000000000000000000000000 PUSH1 0x0 DUP3 ADD MSTORE POP JUMP JUMPDEST PUSH32 0x494E56414C49445F5349474E4552000000000000000000000000000000000000 PUSH1 0x0 DUP3 ADD MSTORE POP JUMP JUMPDEST PUSH32 0x5045524D49545F444541444C494E455F45585049524544000000000000000000 PUSH1 0x0 DUP3 ADD MSTORE POP JUMP JUMPDEST PUSH2 0x1848 DUP2 PUSH2 0x1682 JUMP JUMPDEST DUP2 EQ PUSH2 0x1853 JUMPI PUSH1 0x0 DUP1 REVERT JUMPDEST POP JUMP JUMPDEST PUSH2 0x185F DUP2 PUSH2 0x16A0 JUMP JUMPDEST DUP2 EQ PUSH2 0x186A JUMPI PUSH1 0x0 DUP1 REVERT JUMPDEST POP JUMP JUMPDEST PUSH2 0x1876 DUP2 PUSH2 0x16CA JUMP JUMPDEST DUP2 EQ PUSH2 0x1881 JUMPI PUSH1 0x0 DUP1 REVERT JUMPDEST POP JUMP JUMPDEST PUSH2 0x188D DUP2 PUSH2 0x16D4 JUMP JUMPDEST DUP2 EQ PUSH2 0x1898 JUMPI PUSH1 0x0 DUP1 REVERT JUMPDEST POP JUMP INVALID LOG2 PUSH5 0x6970667358 0x22 SLT KECCAK256 CREATE2 PUSH32 0xC6D8418C3F0CEAC8502F18DD758EEE382F59098A938E15CCA4675E4EC2816473 PUSH16 0x6C634300080700330000000000000000 "
				},
				"gasEstimates": {
					"creation": {
						"codeDepositCost": "1270600",
						"executionCost": "infinite",
						"totalCost": "infinite"
					},
					"external": {
						"": "infinite",
						"DOMAIN_SEPARATOR()": "infinite",
						"allowance(address,address)": "infinite",
						"approve(address,uint256)": "infinite",
						"balanceOf(address)": "2837",
						"decimals()": "infinite",
						"deposit()": "infinite",
						"name()": "infinite",
						"nonces(address)": "2859",
						"permit(address,address,uint256,uint256,uint8,bytes32,bytes32)": "infinite",
						"symbol()": "infinite",
						"totalSupply()": "2497",
						"transfer(address,uint256)": "infinite",
						"transferFrom(address,address,uint256)": "infinite",
						"withdraw(uint256)": "infinite"
					}
				},
				"methodIdentifiers": {
					"DOMAIN_SEPARATOR()": "3644e515",
					"allowance(address,address)": "dd62ed3e",
					"approve(address,uint256)": "095ea7b3",
					"balanceOf(address)": "70a08231",
					"decimals()": "313ce567",
					"deposit()": "d0e30db0",
					"name()": "06fdde03",
					"nonces(address)": "7ecebe00",
					"permit(address,address,uint256,uint256,uint8,bytes32,bytes32)": "d505accf",
					"symbol()": "95d89b41",
					"totalSupply()": "18160ddd",
					"transfer(address,uint256)": "a9059cbb",
					"transferFrom(address,address,uint256)": "23b872dd",
					"withdraw(uint256)": "2e1a7d4d"
				}
			},
			"storageLayout": {
				"storage": [
					{
						"astId": 20,
						"contract": "SCP/WETH.sol:WETH",
						"label": "name",
						"offset": 0,
						"slot": "0",
						"type": "t_string_storage"
					},
					{
						"astId": 22,
						"contract": "SCP/WETH.sol:WETH",
						"label": "symbol",
						"offset": 0,
						"slot": "1",
						"type": "t_string_storage"
					},
					{
						"astId": 26,
						"contract": "SCP/WETH.sol:WETH",
						"label": "totalSupply",
						"offset": 0,
						"slot": "2",
						"type": "t_uint256"
					},
					{
						"astId": 30,
						"contract": "SCP/WETH.sol:WETH",
						"label": "balanceOf",
						"offset": 0,
						"slot": "3",
						"type": "t_mapping(t_address,t_uint256)"
					},
					{
						"astId": 36,
						"contract": "SCP/WETH.sol:WETH",
						"label": "allowance",
						"offset": 0,
						"slot": "4",
						"type": "t_mapping(t_address,t_mapping(t_address,t_uint256))"
					},
					{
						"astId": 44,
						"contract": "SCP/WETH.sol:WETH",
						"label": "nonces",
						"offset": 0,
						"slot": "5",
						"type": "t_mapping(t_address,t_uint256)"
					}
				],
				"types": {
					"t_address": {
						"encoding": "inplace",
						"label": "address",
						"numberOfBytes": "20"
					},
					"t_mapping(t_address,t_mapping(t_address,t_uint256))": {
						"encoding": "mapping",
						"key": "t_address",
						"label": "mapping(address => mapping(address => uint256))",
						"numberOfBytes": "32",
						"value": "t_mapping(t_address,t_uint256)"
					},
					"t_mapping(t_address,t_uint256)": {
						"encoding": "mapping",
						"key": "t_address",
						"label": "mapping(address => uint256)",
						"numberOfBytes": "32",
						"value": "t_uint256"
					},
					"t_string_storage": {
						"encoding": "bytes",
						"label": "string",
						"numberOfBytes": "32"
					},
					"t_uint256": {
						"encoding": "inplace",
						"label": "uint256",
						"numberOfBytes": "32"
					}
				}
			},
			"userdoc": {
				"kind": "user",
				"methods": {},
				"version": 1
			}
		}
	}
}