{
	"SCP/Create2.sol": {
		"Create2Factory": {
			"abi": [
				{
					"anonymous": false,
					"inputs": [
						{
							"indexed": false,
							"internalType": "address",
							"name": "addr",
							"type": "address"
						}
					],
					"name": "Deploy",
					"type": "event"
				},
				{
					"inputs": [
						{
							"internalType": "uint256",
							"name": "_salt",
							"type": "uint256"
						}
					],
					"name": "deploy",
					"outputs": [],
					"stateMutability": "nonpayable",
					"type": "function"
				},
				{
					"inputs": [
						{
							"internalType": "bytes",
							"name": "bytecode",
							"type": "bytes"
						},
						{
							"internalType": "uint256",
							"name": "_salt",
							"type": "uint256"
						}
					],
					"name": "getAddress",
					"outputs": [
						{
							"internalType": "address",
							"name": "",
							"type": "address"
						}
					],
					"stateMutability": "view",
					"type": "function"
				},
				{
					"inputs": [
						{
							"internalType": "address",
							"name": "_owner",
							"type": "address"
						}
					],
					"name": "getBytecode",
					"outputs": [
						{
							"internalType": "bytes",
							"name": "",
							"type": "bytes"
						}
					],
					"stateMutability": "pure",
					"type": "function"
				}
			],
			"devdoc": {
				"kind": "dev",
				"methods": {},
				"version": 1
			},
			"evm": {
				"assembly": "    /* \"SCP/Create2.sol\":181:1129  contract Create2Factory {... */\n  mstore(0x40, 0x80)\n  callvalue\n  dup1\n  iszero\n  tag_1\n  jumpi\n  0x00\n  dup1\n  revert\ntag_1:\n  pop\n  dataSize(sub_0)\n  dup1\n  dataOffset(sub_0)\n  0x00\n  codecopy\n  0x00\n  return\nstop\n\nsub_0: assembly {\n        /* \"SCP/Create2.sol\":181:1129  contract Create2Factory {... */\n      mstore(0x40, 0x80)\n      callvalue\n      dup1\n      iszero\n      tag_1\n      jumpi\n      0x00\n      dup1\n      revert\n    tag_1:\n      pop\n      jumpi(tag_2, lt(calldatasize, 0x04))\n      shr(0xe0, calldataload(0x00))\n      dup1\n      0x0c6008af\n      eq\n      tag_3\n      jumpi\n      dup1\n      0x94ca2cb5\n      eq\n      tag_4\n      jumpi\n      dup1\n      0xa5e38751\n      eq\n      tag_5\n      jumpi\n    tag_2:\n      0x00\n      dup1\n      revert\n        /* \"SCP/Create2.sol\":436:649  function getBytecode(address _owner) public pure returns (bytes memory) {... */\n    tag_3:\n      tag_6\n      0x04\n      dup1\n      calldatasize\n      sub\n      dup2\n      add\n      swap1\n      tag_7\n      swap2\n      swap1\n      tag_8\n      jump\t// in\n    tag_7:\n      tag_9\n      jump\t// in\n    tag_6:\n      mload(0x40)\n      tag_10\n      swap2\n      swap1\n      tag_11\n      jump\t// in\n    tag_10:\n      mload(0x40)\n      dup1\n      swap2\n      sub\n      swap1\n      return\n        /* \"SCP/Create2.sol\":780:1126  function getAddress(... */\n    tag_4:\n      tag_12\n      0x04\n      dup1\n      calldatasize\n      sub\n      dup2\n      add\n      swap1\n      tag_13\n      swap2\n      swap1\n      tag_14\n      jump\t// in\n    tag_13:\n      tag_15\n      jump\t// in\n    tag_12:\n      mload(0x40)\n      tag_16\n      swap2\n      swap1\n      tag_17\n      jump\t// in\n    tag_16:\n      mload(0x40)\n      dup1\n      swap2\n      sub\n      swap1\n      return\n        /* \"SCP/Create2.sol\":244:430  function deploy(uint _salt) external {... */\n    tag_5:\n      tag_18\n      0x04\n      dup1\n      calldatasize\n      sub\n      dup2\n      add\n      swap1\n      tag_19\n      swap2\n      swap1\n      tag_20\n      jump\t// in\n    tag_19:\n      tag_21\n      jump\t// in\n    tag_18:\n      stop\n        /* \"SCP/Create2.sol\":436:649  function getBytecode(address _owner) public pure returns (bytes memory) {... */\n    tag_9:\n        /* \"SCP/Create2.sol\":494:506  bytes memory */\n      0x60\n        /* \"SCP/Create2.sol\":518:539  bytes memory bytecode */\n      0x00\n        /* \"SCP/Create2.sol\":542:578  type(DeployWithCreate2).creationCode */\n      mload(0x40)\n      dup1\n      0x20\n      add\n      tag_23\n      swap1\n      tag_24\n      jump\t// in\n    tag_23:\n      0x20\n      dup3\n      add\n      dup2\n      sub\n      dup3\n      mstore\n      not(0x1f)\n      0x1f\n      dup3\n      add\n      and\n      0x40\n      mstore\n      pop\n        /* \"SCP/Create2.sol\":518:578  bytes memory bytecode = type(DeployWithCreate2).creationCode */\n      swap1\n      pop\n        /* \"SCP/Create2.sol\":613:621  bytecode */\n      dup1\n        /* \"SCP/Create2.sol\":634:640  _owner */\n      dup4\n        /* \"SCP/Create2.sol\":623:641  abi.encode(_owner) */\n      add(0x20, mload(0x40))\n      tag_25\n      swap2\n      swap1\n      tag_17\n      jump\t// in\n    tag_25:\n      mload(0x40)\n      0x20\n      dup2\n      dup4\n      sub\n      sub\n      dup2\n      mstore\n      swap1\n      0x40\n      mstore\n        /* \"SCP/Create2.sol\":596:642  abi.encodePacked(bytecode, abi.encode(_owner)) */\n      add(0x20, mload(0x40))\n      tag_26\n      swap3\n      swap2\n      swap1\n      tag_27\n      jump\t// in\n    tag_26:\n      mload(0x40)\n      0x20\n      dup2\n      dup4\n      sub\n      sub\n      dup2\n      mstore\n      swap1\n      0x40\n      mstore\n        /* \"SCP/Create2.sol\":589:642  return abi.encodePacked(bytecode, abi.encode(_owner)) */\n      swap2\n      pop\n      pop\n        /* \"SCP/Create2.sol\":436:649  function getBytecode(address _owner) public pure returns (bytes memory) {... */\n      swap2\n      swap1\n      pop\n      jump\t// out\n        /* \"SCP/Create2.sol\":780:1126  function getAddress(... */\n    tag_15:\n        /* \"SCP/Create2.sol\":878:885  address */\n      0x00\n        /* \"SCP/Create2.sol\":897:909  bytes32 hash */\n      dup1\n        /* \"SCP/Create2.sol\":959:963  0xff */\n      0xff\n        /* \"SCP/Create2.sol\":952:964  bytes1(0xff) */\n      0xf8\n      shl\n        /* \"SCP/Create2.sol\":974:978  this */\n      address\n        /* \"SCP/Create2.sol\":981:986  _salt */\n      dup5\n        /* \"SCP/Create2.sol\":998:1006  bytecode */\n      dup7\n        /* \"SCP/Create2.sol\":988:1007  keccak256(bytecode) */\n      dup1\n      mload\n      swap1\n      0x20\n      add\n      keccak256\n        /* \"SCP/Create2.sol\":935:1008  abi.encodePacked(bytes1(0xff), address(this), _salt, keccak256(bytecode)) */\n      add(0x20, mload(0x40))\n      tag_29\n      swap5\n      swap4\n      swap3\n      swap2\n      swap1\n      tag_30\n      jump\t// in\n    tag_29:\n      mload(0x40)\n      0x20\n      dup2\n      dup4\n      sub\n      sub\n      dup2\n      mstore\n      swap1\n      0x40\n      mstore\n        /* \"SCP/Create2.sol\":912:1018  keccak256(... */\n      dup1\n      mload\n      swap1\n      0x20\n      add\n      keccak256\n        /* \"SCP/Create2.sol\":897:1018  bytes32 hash = keccak256(... */\n      swap1\n      pop\n        /* \"SCP/Create2.sol\":1112:1116  hash */\n      dup1\n        /* \"SCP/Create2.sol\":1107:1117  uint(hash) */\n      0x00\n      shr\n        /* \"SCP/Create2.sol\":1084:1119  return address(uint160(uint(hash))) */\n      swap2\n      pop\n      pop\n        /* \"SCP/Create2.sol\":780:1126  function getAddress(... */\n      swap3\n      swap2\n      pop\n      pop\n      jump\t// out\n        /* \"SCP/Create2.sol\":244:430  function deploy(uint _salt) external {... */\n    tag_21:\n        /* \"SCP/Create2.sol\":291:318  DeployWithCreate2 _contract */\n      0x00\n        /* \"SCP/Create2.sol\":357:362  _salt */\n      dup2\n        /* \"SCP/Create2.sol\":349:363  bytes32(_salt) */\n      0x00\n      shl\n        /* \"SCP/Create2.sol\":366:376  msg.sender */\n      caller\n        /* \"SCP/Create2.sol\":321:377  new DeployWithCreate2{salt: bytes32(_salt)} (msg.sender) */\n      mload(0x40)\n      tag_32\n      swap1\n      tag_24\n      jump\t// in\n    tag_32:\n      tag_33\n      swap2\n      swap1\n      tag_17\n      jump\t// in\n    tag_33:\n      dup2\n      swap1\n      mload(0x40)\n      dup1\n      swap2\n      sub\n      swap1\n      0x00\n      create2\n      swap1\n      pop\n      dup1\n      iszero\n      dup1\n      iszero\n      tag_34\n      jumpi\n      returndatasize\n      0x00\n      dup1\n      returndatacopy\n      revert(0x00, returndatasize)\n    tag_34:\n      pop\n        /* \"SCP/Create2.sol\":291:377  DeployWithCreate2 _contract = new DeployWithCreate2{salt: bytes32(_salt)} (msg.sender) */\n      swap1\n      pop\n        /* \"SCP/Create2.sol\":397:423  Deploy(address(_contract)) */\n      0x55ea6c6b31543d8e2ec6a72f71a79c0f4b72ed0d4757172b043d8f4f4cd84848\n        /* \"SCP/Create2.sol\":412:421  _contract */\n      dup2\n        /* \"SCP/Create2.sol\":397:423  Deploy(address(_contract)) */\n      mload(0x40)\n      tag_35\n      swap2\n      swap1\n      tag_17\n      jump\t// in\n    tag_35:\n      mload(0x40)\n      dup1\n      swap2\n      sub\n      swap1\n      log1\n        /* \"SCP/Create2.sol\":281:430  {... */\n      pop\n        /* \"SCP/Create2.sol\":244:430  function deploy(uint _salt) external {... */\n      pop\n      jump\t// out\n    tag_24:\n      dataSize(sub_0)\n      dup1\n      dataOffset(sub_0)\n      dup4\n      codecopy\n      add\n      swap1\n      jump\t// out\n        /* \"#utility.yul\":7:417   */\n    tag_37:\n        /* \"#utility.yul\":84:89   */\n      0x00\n        /* \"#utility.yul\":109:174   */\n      tag_39\n        /* \"#utility.yul\":125:173   */\n      tag_40\n        /* \"#utility.yul\":166:172   */\n      dup5\n        /* \"#utility.yul\":125:173   */\n      tag_41\n      jump\t// in\n    tag_40:\n        /* \"#utility.yul\":109:174   */\n      tag_42\n      jump\t// in\n    tag_39:\n        /* \"#utility.yul\":100:174   */\n      swap1\n      pop\n        /* \"#utility.yul\":197:203   */\n      dup3\n        /* \"#utility.yul\":190:195   */\n      dup2\n        /* \"#utility.yul\":183:204   */\n      mstore\n        /* \"#utility.yul\":235:239   */\n      0x20\n        /* \"#utility.yul\":228:233   */\n      dup2\n        /* \"#utility.yul\":224:240   */\n      add\n        /* \"#utility.yul\":273:276   */\n      dup5\n        /* \"#utility.yul\":264:270   */\n      dup5\n        /* \"#utility.yul\":259:262   */\n      dup5\n        /* \"#utility.yul\":255:271   */\n      add\n        /* \"#utility.yul\":252:277   */\n      gt\n        /* \"#utility.yul\":249:361   */\n      iszero\n      tag_43\n      jumpi\n        /* \"#utility.yul\":280:359   */\n      tag_44\n      tag_45\n      jump\t// in\n    tag_44:\n        /* \"#utility.yul\":249:361   */\n    tag_43:\n        /* \"#utility.yul\":370:411   */\n      tag_46\n        /* \"#utility.yul\":404:410   */\n      dup5\n        /* \"#utility.yul\":399:402   */\n      dup3\n        /* \"#utility.yul\":394:397   */\n      dup6\n        /* \"#utility.yul\":370:411   */\n      tag_47\n      jump\t// in\n    tag_46:\n        /* \"#utility.yul\":90:417   */\n      pop\n        /* \"#utility.yul\":7:417   */\n      swap4\n      swap3\n      pop\n      pop\n      pop\n      jump\t// out\n        /* \"#utility.yul\":423:562   */\n    tag_48:\n        /* \"#utility.yul\":469:474   */\n      0x00\n        /* \"#utility.yul\":507:513   */\n      dup2\n        /* \"#utility.yul\":494:514   */\n      calldataload\n        /* \"#utility.yul\":485:514   */\n      swap1\n      pop\n        /* \"#utility.yul\":523:556   */\n      tag_50\n        /* \"#utility.yul\":550:555   */\n      dup2\n        /* \"#utility.yul\":523:556   */\n      tag_51\n      jump\t// in\n    tag_50:\n        /* \"#utility.yul\":423:562   */\n      swap3\n      swap2\n      pop\n      pop\n      jump\t// out\n        /* \"#utility.yul\":581:919   */\n    tag_52:\n        /* \"#utility.yul\":636:641   */\n      0x00\n        /* \"#utility.yul\":685:688   */\n      dup3\n        /* \"#utility.yul\":678:682   */\n      0x1f\n        /* \"#utility.yul\":670:676   */\n      dup4\n        /* \"#utility.yul\":666:683   */\n      add\n        /* \"#utility.yul\":662:689   */\n      slt\n        /* \"#utility.yul\":652:774   */\n      tag_54\n      jumpi\n        /* \"#utility.yul\":693:772   */\n      tag_55\n      tag_56\n      jump\t// in\n    tag_55:\n        /* \"#utility.yul\":652:774   */\n    tag_54:\n        /* \"#utility.yul\":810:816   */\n      dup2\n        /* \"#utility.yul\":797:817   */\n      calldataload\n        /* \"#utility.yul\":835:913   */\n      tag_57\n        /* \"#utility.yul\":909:912   */\n      dup5\n        /* \"#utility.yul\":901:907   */\n      dup3\n        /* \"#utility.yul\":894:898   */\n      0x20\n        /* \"#utility.yul\":886:892   */\n      dup7\n        /* \"#utility.yul\":882:899   */\n      add\n        /* \"#utility.yul\":835:913   */\n      tag_37\n      jump\t// in\n    tag_57:\n        /* \"#utility.yul\":826:913   */\n      swap2\n      pop\n        /* \"#utility.yul\":642:919   */\n      pop\n        /* \"#utility.yul\":581:919   */\n      swap3\n      swap2\n      pop\n      pop\n      jump\t// out\n        /* \"#utility.yul\":925:1064   */\n    tag_58:\n        /* \"#utility.yul\":971:976   */\n      0x00\n        /* \"#utility.yul\":1009:1015   */\n      dup2\n        /* \"#utility.yul\":996:1016   */\n      calldataload\n        /* \"#utility.yul\":987:1016   */\n      swap1\n      pop\n        /* \"#utility.yul\":1025:1058   */\n      tag_60\n        /* \"#utility.yul\":1052:1057   */\n      dup2\n        /* \"#utility.yul\":1025:1058   */\n      tag_61\n      jump\t// in\n    tag_60:\n        /* \"#utility.yul\":925:1064   */\n      swap3\n      swap2\n      pop\n      pop\n      jump\t// out\n        /* \"#utility.yul\":1070:1399   */\n    tag_8:\n        /* \"#utility.yul\":1129:1135   */\n      0x00\n        /* \"#utility.yul\":1178:1180   */\n      0x20\n        /* \"#utility.yul\":1166:1175   */\n      dup3\n        /* \"#utility.yul\":1157:1164   */\n      dup5\n        /* \"#utility.yul\":1153:1176   */\n      sub\n        /* \"#utility.yul\":1149:1181   */\n      slt\n        /* \"#utility.yul\":1146:1265   */\n      iszero\n      tag_63\n      jumpi\n        /* \"#utility.yul\":1184:1263   */\n      tag_64\n      tag_65\n      jump\t// in\n    tag_64:\n        /* \"#utility.yul\":1146:1265   */\n    tag_63:\n        /* \"#utility.yul\":1304:1305   */\n      0x00\n        /* \"#utility.yul\":1329:1382   */\n      tag_66\n        /* \"#utility.yul\":1374:1381   */\n      dup5\n        /* \"#utility.yul\":1365:1371   */\n      dup3\n        /* \"#utility.yul\":1354:1363   */\n      dup6\n        /* \"#utility.yul\":1350:1372   */\n      add\n        /* \"#utility.yul\":1329:1382   */\n      tag_48\n      jump\t// in\n    tag_66:\n        /* \"#utility.yul\":1319:1382   */\n      swap2\n      pop\n        /* \"#utility.yul\":1275:1392   */\n      pop\n        /* \"#utility.yul\":1070:1399   */\n      swap3\n      swap2\n      pop\n      pop\n      jump\t// out\n        /* \"#utility.yul\":1405:2057   */\n    tag_14:\n        /* \"#utility.yul\":1482:1488   */\n      0x00\n        /* \"#utility.yul\":1490:1496   */\n      dup1\n        /* \"#utility.yul\":1539:1541   */\n      0x40\n        /* \"#utility.yul\":1527:1536   */\n      dup4\n        /* \"#utility.yul\":1518:1525   */\n      dup6\n        /* \"#utility.yul\":1514:1537   */\n      sub\n        /* \"#utility.yul\":1510:1542   */\n      slt\n        /* \"#utility.yul\":1507:1626   */\n      iszero\n      tag_68\n      jumpi\n        /* \"#utility.yul\":1545:1624   */\n      tag_69\n      tag_65\n      jump\t// in\n    tag_69:\n        /* \"#utility.yul\":1507:1626   */\n    tag_68:\n        /* \"#utility.yul\":1693:1694   */\n      0x00\n        /* \"#utility.yul\":1682:1691   */\n      dup4\n        /* \"#utility.yul\":1678:1695   */\n      add\n        /* \"#utility.yul\":1665:1696   */\n      calldataload\n        /* \"#utility.yul\":1723:1741   */\n      0xffffffffffffffff\n        /* \"#utility.yul\":1715:1721   */\n      dup2\n        /* \"#utility.yul\":1712:1742   */\n      gt\n        /* \"#utility.yul\":1709:1826   */\n      iszero\n      tag_70\n      jumpi\n        /* \"#utility.yul\":1745:1824   */\n      tag_71\n      tag_72\n      jump\t// in\n    tag_71:\n        /* \"#utility.yul\":1709:1826   */\n    tag_70:\n        /* \"#utility.yul\":1850:1912   */\n      tag_73\n        /* \"#utility.yul\":1904:1911   */\n      dup6\n        /* \"#utility.yul\":1895:1901   */\n      dup3\n        /* \"#utility.yul\":1884:1893   */\n      dup7\n        /* \"#utility.yul\":1880:1902   */\n      add\n        /* \"#utility.yul\":1850:1912   */\n      tag_52\n      jump\t// in\n    tag_73:\n        /* \"#utility.yul\":1840:1912   */\n      swap3\n      pop\n        /* \"#utility.yul\":1636:1922   */\n      pop\n        /* \"#utility.yul\":1961:1963   */\n      0x20\n        /* \"#utility.yul\":1987:2040   */\n      tag_74\n        /* \"#utility.yul\":2032:2039   */\n      dup6\n        /* \"#utility.yul\":2023:2029   */\n      dup3\n        /* \"#utility.yul\":2012:2021   */\n      dup7\n        /* \"#utility.yul\":2008:2030   */\n      add\n        /* \"#utility.yul\":1987:2040   */\n      tag_58\n      jump\t// in\n    tag_74:\n        /* \"#utility.yul\":1977:2040   */\n      swap2\n      pop\n        /* \"#utility.yul\":1932:2050   */\n      pop\n        /* \"#utility.yul\":1405:2057   */\n      swap3\n      pop\n      swap3\n      swap1\n      pop\n      jump\t// out\n        /* \"#utility.yul\":2063:2392   */\n    tag_20:\n        /* \"#utility.yul\":2122:2128   */\n      0x00\n        /* \"#utility.yul\":2171:2173   */\n      0x20\n        /* \"#utility.yul\":2159:2168   */\n      dup3\n        /* \"#utility.yul\":2150:2157   */\n      dup5\n        /* \"#utility.yul\":2146:2169   */\n      sub\n        /* \"#utility.yul\":2142:2174   */\n      slt\n        /* \"#utility.yul\":2139:2258   */\n      iszero\n      tag_76\n      jumpi\n        /* \"#utility.yul\":2177:2256   */\n      tag_77\n      tag_65\n      jump\t// in\n    tag_77:\n        /* \"#utility.yul\":2139:2258   */\n    tag_76:\n        /* \"#utility.yul\":2297:2298   */\n      0x00\n        /* \"#utility.yul\":2322:2375   */\n      tag_78\n        /* \"#utility.yul\":2367:2374   */\n      dup5\n        /* \"#utility.yul\":2358:2364   */\n      dup3\n        /* \"#utility.yul\":2347:2356   */\n      dup6\n        /* \"#utility.yul\":2343:2365   */\n      add\n        /* \"#utility.yul\":2322:2375   */\n      tag_58\n      jump\t// in\n    tag_78:\n        /* \"#utility.yul\":2312:2375   */\n      swap2\n      pop\n        /* \"#utility.yul\":2268:2385   */\n      pop\n        /* \"#utility.yul\":2063:2392   */\n      swap3\n      swap2\n      pop\n      pop\n      jump\t// out\n        /* \"#utility.yul\":2398:2516   */\n    tag_79:\n        /* \"#utility.yul\":2485:2509   */\n      tag_81\n        /* \"#utility.yul\":2503:2508   */\n      dup2\n        /* \"#utility.yul\":2485:2509   */\n      tag_82\n      jump\t// in\n    tag_81:\n        /* \"#utility.yul\":2480:2483   */\n      dup3\n        /* \"#utility.yul\":2473:2510   */\n      mstore\n        /* \"#utility.yul\":2398:2516   */\n      pop\n      pop\n      jump\t// out\n        /* \"#utility.yul\":2522:2679   */\n    tag_83:\n        /* \"#utility.yul\":2627:2672   */\n      tag_85\n        /* \"#utility.yul\":2647:2671   */\n      tag_86\n        /* \"#utility.yul\":2665:2670   */\n      dup3\n        /* \"#utility.yul\":2647:2671   */\n      tag_82\n      jump\t// in\n    tag_86:\n        /* \"#utility.yul\":2627:2672   */\n      tag_87\n      jump\t// in\n    tag_85:\n        /* \"#utility.yul\":2622:2625   */\n      dup3\n        /* \"#utility.yul\":2615:2673   */\n      mstore\n        /* \"#utility.yul\":2522:2679   */\n      pop\n      pop\n      jump\t// out\n        /* \"#utility.yul\":2685:2838   */\n    tag_88:\n        /* \"#utility.yul\":2788:2831   */\n      tag_90\n        /* \"#utility.yul\":2807:2830   */\n      tag_91\n        /* \"#utility.yul\":2824:2829   */\n      dup3\n        /* \"#utility.yul\":2807:2830   */\n      tag_92\n      jump\t// in\n    tag_91:\n        /* \"#utility.yul\":2788:2831   */\n      tag_93\n      jump\t// in\n    tag_90:\n        /* \"#utility.yul\":2783:2786   */\n      dup3\n        /* \"#utility.yul\":2776:2832   */\n      mstore\n        /* \"#utility.yul\":2685:2838   */\n      pop\n      pop\n      jump\t// out\n        /* \"#utility.yul\":2844:3001   */\n    tag_94:\n        /* \"#utility.yul\":2949:2994   */\n      tag_96\n        /* \"#utility.yul\":2969:2993   */\n      tag_97\n        /* \"#utility.yul\":2987:2992   */\n      dup3\n        /* \"#utility.yul\":2969:2993   */\n      tag_98\n      jump\t// in\n    tag_97:\n        /* \"#utility.yul\":2949:2994   */\n      tag_99\n      jump\t// in\n    tag_96:\n        /* \"#utility.yul\":2944:2947   */\n      dup3\n        /* \"#utility.yul\":2937:2995   */\n      mstore\n        /* \"#utility.yul\":2844:3001   */\n      pop\n      pop\n      jump\t// out\n        /* \"#utility.yul\":3007:3367   */\n    tag_100:\n        /* \"#utility.yul\":3093:3096   */\n      0x00\n        /* \"#utility.yul\":3121:3159   */\n      tag_102\n        /* \"#utility.yul\":3153:3158   */\n      dup3\n        /* \"#utility.yul\":3121:3159   */\n      tag_103\n      jump\t// in\n    tag_102:\n        /* \"#utility.yul\":3175:3245   */\n      tag_104\n        /* \"#utility.yul\":3238:3244   */\n      dup2\n        /* \"#utility.yul\":3233:3236   */\n      dup6\n        /* \"#utility.yul\":3175:3245   */\n      tag_105\n      jump\t// in\n    tag_104:\n        /* \"#utility.yul\":3168:3245   */\n      swap4\n      pop\n        /* \"#utility.yul\":3254:3306   */\n      tag_106\n        /* \"#utility.yul\":3299:3305   */\n      dup2\n        /* \"#utility.yul\":3294:3297   */\n      dup6\n        /* \"#utility.yul\":3287:3291   */\n      0x20\n        /* \"#utility.yul\":3280:3285   */\n      dup7\n        /* \"#utility.yul\":3276:3292   */\n      add\n        /* \"#utility.yul\":3254:3306   */\n      tag_107\n      jump\t// in\n    tag_106:\n        /* \"#utility.yul\":3331:3360   */\n      tag_108\n        /* \"#utility.yul\":3353:3359   */\n      dup2\n        /* \"#utility.yul\":3331:3360   */\n      tag_109\n      jump\t// in\n    tag_108:\n        /* \"#utility.yul\":3326:3329   */\n      dup5\n        /* \"#utility.yul\":3322:3361   */\n      add\n        /* \"#utility.yul\":3315:3361   */\n      swap2\n      pop\n        /* \"#utility.yul\":3097:3367   */\n      pop\n        /* \"#utility.yul\":3007:3367   */\n      swap3\n      swap2\n      pop\n      pop\n      jump\t// out\n        /* \"#utility.yul\":3373:3746   */\n    tag_110:\n        /* \"#utility.yul\":3477:3480   */\n      0x00\n        /* \"#utility.yul\":3505:3543   */\n      tag_112\n        /* \"#utility.yul\":3537:3542   */\n      dup3\n        /* \"#utility.yul\":3505:3543   */\n      tag_103\n      jump\t// in\n    tag_112:\n        /* \"#utility.yul\":3559:3647   */\n      tag_113\n        /* \"#utility.yul\":3640:3646   */\n      dup2\n        /* \"#utility.yul\":3635:3638   */\n      dup6\n        /* \"#utility.yul\":3559:3647   */\n      tag_114\n      jump\t// in\n    tag_113:\n        /* \"#utility.yul\":3552:3647   */\n      swap4\n      pop\n        /* \"#utility.yul\":3656:3708   */\n      tag_115\n        /* \"#utility.yul\":3701:3707   */\n      dup2\n        /* \"#utility.yul\":3696:3699   */\n      dup6\n        /* \"#utility.yul\":3689:3693   */\n      0x20\n        /* \"#utility.yul\":3682:3687   */\n      dup7\n        /* \"#utility.yul\":3678:3694   */\n      add\n        /* \"#utility.yul\":3656:3708   */\n      tag_107\n      jump\t// in\n    tag_115:\n        /* \"#utility.yul\":3733:3739   */\n      dup1\n        /* \"#utility.yul\":3728:3731   */\n      dup5\n        /* \"#utility.yul\":3724:3740   */\n      add\n        /* \"#utility.yul\":3717:3740   */\n      swap2\n      pop\n        /* \"#utility.yul\":3481:3746   */\n      pop\n        /* \"#utility.yul\":3373:3746   */\n      swap3\n      swap2\n      pop\n      pop\n      jump\t// out\n        /* \"#utility.yul\":3752:3909   */\n    tag_116:\n        /* \"#utility.yul\":3857:3902   */\n      tag_118\n        /* \"#utility.yul\":3877:3901   */\n      tag_119\n        /* \"#utility.yul\":3895:3900   */\n      dup3\n        /* \"#utility.yul\":3877:3901   */\n      tag_120\n      jump\t// in\n    tag_119:\n        /* \"#utility.yul\":3857:3902   */\n      tag_121\n      jump\t// in\n    tag_118:\n        /* \"#utility.yul\":3852:3855   */\n      dup3\n        /* \"#utility.yul\":3845:3903   */\n      mstore\n        /* \"#utility.yul\":3752:3909   */\n      pop\n      pop\n      jump\t// out\n        /* \"#utility.yul\":3915:4589   */\n    tag_30:\n        /* \"#utility.yul\":4109:4112   */\n      0x00\n        /* \"#utility.yul\":4124:4197   */\n      tag_123\n        /* \"#utility.yul\":4193:4196   */\n      dup3\n        /* \"#utility.yul\":4184:4190   */\n      dup8\n        /* \"#utility.yul\":4124:4197   */\n      tag_88\n      jump\t// in\n    tag_123:\n        /* \"#utility.yul\":4222:4223   */\n      0x01\n        /* \"#utility.yul\":4217:4220   */\n      dup3\n        /* \"#utility.yul\":4213:4224   */\n      add\n        /* \"#utility.yul\":4206:4224   */\n      swap2\n      pop\n        /* \"#utility.yul\":4234:4309   */\n      tag_124\n        /* \"#utility.yul\":4305:4308   */\n      dup3\n        /* \"#utility.yul\":4296:4302   */\n      dup7\n        /* \"#utility.yul\":4234:4309   */\n      tag_83\n      jump\t// in\n    tag_124:\n        /* \"#utility.yul\":4334:4336   */\n      0x14\n        /* \"#utility.yul\":4329:4332   */\n      dup3\n        /* \"#utility.yul\":4325:4337   */\n      add\n        /* \"#utility.yul\":4318:4337   */\n      swap2\n      pop\n        /* \"#utility.yul\":4347:4422   */\n      tag_125\n        /* \"#utility.yul\":4418:4421   */\n      dup3\n        /* \"#utility.yul\":4409:4415   */\n      dup6\n        /* \"#utility.yul\":4347:4422   */\n      tag_116\n      jump\t// in\n    tag_125:\n        /* \"#utility.yul\":4447:4449   */\n      0x20\n        /* \"#utility.yul\":4442:4445   */\n      dup3\n        /* \"#utility.yul\":4438:4450   */\n      add\n        /* \"#utility.yul\":4431:4450   */\n      swap2\n      pop\n        /* \"#utility.yul\":4460:4535   */\n      tag_126\n        /* \"#utility.yul\":4531:4534   */\n      dup3\n        /* \"#utility.yul\":4522:4528   */\n      dup5\n        /* \"#utility.yul\":4460:4535   */\n      tag_94\n      jump\t// in\n    tag_126:\n        /* \"#utility.yul\":4560:4562   */\n      0x20\n        /* \"#utility.yul\":4555:4558   */\n      dup3\n        /* \"#utility.yul\":4551:4563   */\n      add\n        /* \"#utility.yul\":4544:4563   */\n      swap2\n      pop\n        /* \"#utility.yul\":4580:4583   */\n      dup2\n        /* \"#utility.yul\":4573:4583   */\n      swap1\n      pop\n        /* \"#utility.yul\":3915:4589   */\n      swap6\n      swap5\n      pop\n      pop\n      pop\n      pop\n      pop\n      jump\t// out\n        /* \"#utility.yul\":4595:5022   */\n    tag_27:\n        /* \"#utility.yul\":4771:4774   */\n      0x00\n        /* \"#utility.yul\":4793:4886   */\n      tag_128\n        /* \"#utility.yul\":4882:4885   */\n      dup3\n        /* \"#utility.yul\":4873:4879   */\n      dup6\n        /* \"#utility.yul\":4793:4886   */\n      tag_110\n      jump\t// in\n    tag_128:\n        /* \"#utility.yul\":4786:4886   */\n      swap2\n      pop\n        /* \"#utility.yul\":4903:4996   */\n      tag_129\n        /* \"#utility.yul\":4992:4995   */\n      dup3\n        /* \"#utility.yul\":4983:4989   */\n      dup5\n        /* \"#utility.yul\":4903:4996   */\n      tag_110\n      jump\t// in\n    tag_129:\n        /* \"#utility.yul\":4896:4996   */\n      swap2\n      pop\n        /* \"#utility.yul\":5013:5016   */\n      dup2\n        /* \"#utility.yul\":5006:5016   */\n      swap1\n      pop\n        /* \"#utility.yul\":4595:5022   */\n      swap4\n      swap3\n      pop\n      pop\n      pop\n      jump\t// out\n        /* \"#utility.yul\":5028:5250   */\n    tag_17:\n        /* \"#utility.yul\":5121:5125   */\n      0x00\n        /* \"#utility.yul\":5159:5161   */\n      0x20\n        /* \"#utility.yul\":5148:5157   */\n      dup3\n        /* \"#utility.yul\":5144:5162   */\n      add\n        /* \"#utility.yul\":5136:5162   */\n      swap1\n      pop\n        /* \"#utility.yul\":5172:5243   */\n      tag_131\n        /* \"#utility.yul\":5240:5241   */\n      0x00\n        /* \"#utility.yul\":5229:5238   */\n      dup4\n        /* \"#utility.yul\":5225:5242   */\n      add\n        /* \"#utility.yul\":5216:5222   */\n      dup5\n        /* \"#utility.yul\":5172:5243   */\n      tag_79\n      jump\t// in\n    tag_131:\n        /* \"#utility.yul\":5028:5250   */\n      swap3\n      swap2\n      pop\n      pop\n      jump\t// out\n        /* \"#utility.yul\":5256:5565   */\n    tag_11:\n        /* \"#utility.yul\":5367:5371   */\n      0x00\n        /* \"#utility.yul\":5405:5407   */\n      0x20\n        /* \"#utility.yul\":5394:5403   */\n      dup3\n        /* \"#utility.yul\":5390:5408   */\n      add\n        /* \"#utility.yul\":5382:5408   */\n      swap1\n      pop\n        /* \"#utility.yul\":5454:5463   */\n      dup2\n        /* \"#utility.yul\":5448:5452   */\n      dup2\n        /* \"#utility.yul\":5444:5464   */\n      sub\n        /* \"#utility.yul\":5440:5441   */\n      0x00\n        /* \"#utility.yul\":5429:5438   */\n      dup4\n        /* \"#utility.yul\":5425:5442   */\n      add\n        /* \"#utility.yul\":5418:5465   */\n      mstore\n        /* \"#utility.yul\":5482:5558   */\n      tag_133\n        /* \"#utility.yul\":5553:5557   */\n      dup2\n        /* \"#utility.yul\":5544:5550   */\n      dup5\n        /* \"#utility.yul\":5482:5558   */\n      tag_100\n      jump\t// in\n    tag_133:\n        /* \"#utility.yul\":5474:5558   */\n      swap1\n      pop\n        /* \"#utility.yul\":5256:5565   */\n      swap3\n      swap2\n      pop\n      pop\n      jump\t// out\n        /* \"#utility.yul\":5571:5700   */\n    tag_42:\n        /* \"#utility.yul\":5605:5611   */\n      0x00\n        /* \"#utility.yul\":5632:5652   */\n      tag_135\n      tag_136\n      jump\t// in\n    tag_135:\n        /* \"#utility.yul\":5622:5652   */\n      swap1\n      pop\n        /* \"#utility.yul\":5661:5694   */\n      tag_137\n        /* \"#utility.yul\":5689:5693   */\n      dup3\n        /* \"#utility.yul\":5681:5687   */\n      dup3\n        /* \"#utility.yul\":5661:5694   */\n      tag_138\n      jump\t// in\n    tag_137:\n        /* \"#utility.yul\":5571:5700   */\n      swap2\n      swap1\n      pop\n      jump\t// out\n        /* \"#utility.yul\":5706:5781   */\n    tag_136:\n        /* \"#utility.yul\":5739:5745   */\n      0x00\n        /* \"#utility.yul\":5772:5774   */\n      0x40\n        /* \"#utility.yul\":5766:5775   */\n      mload\n        /* \"#utility.yul\":5756:5775   */\n      swap1\n      pop\n        /* \"#utility.yul\":5706:5781   */\n      swap1\n      jump\t// out\n        /* \"#utility.yul\":5787:6094   */\n    tag_41:\n        /* \"#utility.yul\":5848:5852   */\n      0x00\n        /* \"#utility.yul\":5938:5956   */\n      0xffffffffffffffff\n        /* \"#utility.yul\":5930:5936   */\n      dup3\n        /* \"#utility.yul\":5927:5957   */\n      gt\n        /* \"#utility.yul\":5924:5980   */\n      iszero\n      tag_141\n      jumpi\n        /* \"#utility.yul\":5960:5978   */\n      tag_142\n      tag_143\n      jump\t// in\n    tag_142:\n        /* \"#utility.yul\":5924:5980   */\n    tag_141:\n        /* \"#utility.yul\":5998:6027   */\n      tag_144\n        /* \"#utility.yul\":6020:6026   */\n      dup3\n        /* \"#utility.yul\":5998:6027   */\n      tag_109\n      jump\t// in\n    tag_144:\n        /* \"#utility.yul\":5990:6027   */\n      swap1\n      pop\n        /* \"#utility.yul\":6082:6086   */\n      0x20\n        /* \"#utility.yul\":6076:6080   */\n      dup2\n        /* \"#utility.yul\":6072:6087   */\n      add\n        /* \"#utility.yul\":6064:6087   */\n      swap1\n      pop\n        /* \"#utility.yul\":5787:6094   */\n      swap2\n      swap1\n      pop\n      jump\t// out\n        /* \"#utility.yul\":6100:6198   */\n    tag_103:\n        /* \"#utility.yul\":6151:6157   */\n      0x00\n        /* \"#utility.yul\":6185:6190   */\n      dup2\n        /* \"#utility.yul\":6179:6191   */\n      mload\n        /* \"#utility.yul\":6169:6191   */\n      swap1\n      pop\n        /* \"#utility.yul\":6100:6198   */\n      swap2\n      swap1\n      pop\n      jump\t// out\n        /* \"#utility.yul\":6204:6372   */\n    tag_105:\n        /* \"#utility.yul\":6287:6298   */\n      0x00\n        /* \"#utility.yul\":6321:6327   */\n      dup3\n        /* \"#utility.yul\":6316:6319   */\n      dup3\n        /* \"#utility.yul\":6309:6328   */\n      mstore\n        /* \"#utility.yul\":6361:6365   */\n      0x20\n        /* \"#utility.yul\":6356:6359   */\n      dup3\n        /* \"#utility.yul\":6352:6366   */\n      add\n        /* \"#utility.yul\":6337:6366   */\n      swap1\n      pop\n        /* \"#utility.yul\":6204:6372   */\n      swap3\n      swap2\n      pop\n      pop\n      jump\t// out\n        /* \"#utility.yul\":6378:6525   */\n    tag_114:\n        /* \"#utility.yul\":6479:6490   */\n      0x00\n        /* \"#utility.yul\":6516:6519   */\n      dup2\n        /* \"#utility.yul\":6501:6519   */\n      swap1\n      pop\n        /* \"#utility.yul\":6378:6525   */\n      swap3\n      swap2\n      pop\n      pop\n      jump\t// out\n        /* \"#utility.yul\":6531:6627   */\n    tag_82:\n        /* \"#utility.yul\":6568:6575   */\n      0x00\n        /* \"#utility.yul\":6597:6621   */\n      tag_149\n        /* \"#utility.yul\":6615:6620   */\n      dup3\n        /* \"#utility.yul\":6597:6621   */\n      tag_150\n      jump\t// in\n    tag_149:\n        /* \"#utility.yul\":6586:6621   */\n      swap1\n      pop\n        /* \"#utility.yul\":6531:6627   */\n      swap2\n      swap1\n      pop\n      jump\t// out\n        /* \"#utility.yul\":6633:6782   */\n    tag_92:\n        /* \"#utility.yul\":6669:6676   */\n      0x00\n        /* \"#utility.yul\":6709:6775   */\n      0xff00000000000000000000000000000000000000000000000000000000000000\n        /* \"#utility.yul\":6702:6707   */\n      dup3\n        /* \"#utility.yul\":6698:6776   */\n      and\n        /* \"#utility.yul\":6687:6776   */\n      swap1\n      pop\n        /* \"#utility.yul\":6633:6782   */\n      swap2\n      swap1\n      pop\n      jump\t// out\n        /* \"#utility.yul\":6788:6865   */\n    tag_98:\n        /* \"#utility.yul\":6825:6832   */\n      0x00\n        /* \"#utility.yul\":6854:6859   */\n      dup2\n        /* \"#utility.yul\":6843:6859   */\n      swap1\n      pop\n        /* \"#utility.yul\":6788:6865   */\n      swap2\n      swap1\n      pop\n      jump\t// out\n        /* \"#utility.yul\":6871:6997   */\n    tag_150:\n        /* \"#utility.yul\":6908:6915   */\n      0x00\n        /* \"#utility.yul\":6948:6990   */\n      0xffffffffffffffffffffffffffffffffffffffff\n        /* \"#utility.yul\":6941:6946   */\n      dup3\n        /* \"#utility.yul\":6937:6991   */\n      and\n        /* \"#utility.yul\":6926:6991   */\n      swap1\n      pop\n        /* \"#utility.yul\":6871:6997   */\n      swap2\n      swap1\n      pop\n      jump\t// out\n        /* \"#utility.yul\":7003:7080   */\n    tag_120:\n        /* \"#utility.yul\":7040:7047   */\n      0x00\n        /* \"#utility.yul\":7069:7074   */\n      dup2\n        /* \"#utility.yul\":7058:7074   */\n      swap1\n      pop\n        /* \"#utility.yul\":7003:7080   */\n      swap2\n      swap1\n      pop\n      jump\t// out\n        /* \"#utility.yul\":7086:7240   */\n    tag_47:\n        /* \"#utility.yul\":7170:7176   */\n      dup3\n        /* \"#utility.yul\":7165:7168   */\n      dup2\n        /* \"#utility.yul\":7160:7163   */\n      dup4\n        /* \"#utility.yul\":7147:7177   */\n      calldatacopy\n        /* \"#utility.yul\":7232:7233   */\n      0x00\n        /* \"#utility.yul\":7223:7229   */\n      dup4\n        /* \"#utility.yul\":7218:7221   */\n      dup4\n        /* \"#utility.yul\":7214:7230   */\n      add\n        /* \"#utility.yul\":7207:7234   */\n      mstore\n        /* \"#utility.yul\":7086:7240   */\n      pop\n      pop\n      pop\n      jump\t// out\n        /* \"#utility.yul\":7246:7553   */\n    tag_107:\n        /* \"#utility.yul\":7314:7315   */\n      0x00\n        /* \"#utility.yul\":7324:7437   */\n    tag_157:\n        /* \"#utility.yul\":7338:7344   */\n      dup4\n        /* \"#utility.yul\":7335:7336   */\n      dup2\n        /* \"#utility.yul\":7332:7345   */\n      lt\n        /* \"#utility.yul\":7324:7437   */\n      iszero\n      tag_159\n      jumpi\n        /* \"#utility.yul\":7423:7424   */\n      dup1\n        /* \"#utility.yul\":7418:7421   */\n      dup3\n        /* \"#utility.yul\":7414:7425   */\n      add\n        /* \"#utility.yul\":7408:7426   */\n      mload\n        /* \"#utility.yul\":7404:7405   */\n      dup2\n        /* \"#utility.yul\":7399:7402   */\n      dup5\n        /* \"#utility.yul\":7395:7406   */\n      add\n        /* \"#utility.yul\":7388:7427   */\n      mstore\n        /* \"#utility.yul\":7360:7362   */\n      0x20\n        /* \"#utility.yul\":7357:7358   */\n      dup2\n        /* \"#utility.yul\":7353:7363   */\n      add\n        /* \"#utility.yul\":7348:7363   */\n      swap1\n      pop\n        /* \"#utility.yul\":7324:7437   */\n      jump(tag_157)\n    tag_159:\n        /* \"#utility.yul\":7455:7461   */\n      dup4\n        /* \"#utility.yul\":7452:7453   */\n      dup2\n        /* \"#utility.yul\":7449:7462   */\n      gt\n        /* \"#utility.yul\":7446:7547   */\n      iszero\n      tag_160\n      jumpi\n        /* \"#utility.yul\":7535:7536   */\n      0x00\n        /* \"#utility.yul\":7526:7532   */\n      dup5\n        /* \"#utility.yul\":7521:7524   */\n      dup5\n        /* \"#utility.yul\":7517:7533   */\n      add\n        /* \"#utility.yul\":7510:7537   */\n      mstore\n        /* \"#utility.yul\":7446:7547   */\n    tag_160:\n        /* \"#utility.yul\":7295:7553   */\n      pop\n        /* \"#utility.yul\":7246:7553   */\n      pop\n      pop\n      pop\n      jump\t// out\n        /* \"#utility.yul\":7559:7840   */\n    tag_138:\n        /* \"#utility.yul\":7642:7669   */\n      tag_162\n        /* \"#utility.yul\":7664:7668   */\n      dup3\n        /* \"#utility.yul\":7642:7669   */\n      tag_109\n      jump\t// in\n    tag_162:\n        /* \"#utility.yul\":7634:7640   */\n      dup2\n        /* \"#utility.yul\":7630:7670   */\n      add\n        /* \"#utility.yul\":7772:7778   */\n      dup2\n        /* \"#utility.yul\":7760:7770   */\n      dup2\n        /* \"#utility.yul\":7757:7779   */\n      lt\n        /* \"#utility.yul\":7736:7754   */\n      0xffffffffffffffff\n        /* \"#utility.yul\":7724:7734   */\n      dup3\n        /* \"#utility.yul\":7721:7755   */\n      gt\n        /* \"#utility.yul\":7718:7780   */\n      or\n        /* \"#utility.yul\":7715:7803   */\n      iszero\n      tag_163\n      jumpi\n        /* \"#utility.yul\":7783:7801   */\n      tag_164\n      tag_143\n      jump\t// in\n    tag_164:\n        /* \"#utility.yul\":7715:7803   */\n    tag_163:\n        /* \"#utility.yul\":7823:7833   */\n      dup1\n        /* \"#utility.yul\":7819:7821   */\n      0x40\n        /* \"#utility.yul\":7812:7834   */\n      mstore\n        /* \"#utility.yul\":7602:7840   */\n      pop\n        /* \"#utility.yul\":7559:7840   */\n      pop\n      pop\n      jump\t// out\n        /* \"#utility.yul\":7846:7946   */\n    tag_87:\n        /* \"#utility.yul\":7885:7892   */\n      0x00\n        /* \"#utility.yul\":7914:7940   */\n      tag_166\n        /* \"#utility.yul\":7934:7939   */\n      dup3\n        /* \"#utility.yul\":7914:7940   */\n      tag_167\n      jump\t// in\n    tag_166:\n        /* \"#utility.yul\":7903:7940   */\n      swap1\n      pop\n        /* \"#utility.yul\":7846:7946   */\n      swap2\n      swap1\n      pop\n      jump\t// out\n        /* \"#utility.yul\":7952:8030   */\n    tag_93:\n        /* \"#utility.yul\":7990:7997   */\n      0x00\n        /* \"#utility.yul\":8019:8024   */\n      dup2\n        /* \"#utility.yul\":8008:8024   */\n      swap1\n      pop\n        /* \"#utility.yul\":7952:8030   */\n      swap2\n      swap1\n      pop\n      jump\t// out\n        /* \"#utility.yul\":8036:8115   */\n    tag_99:\n        /* \"#utility.yul\":8075:8082   */\n      0x00\n        /* \"#utility.yul\":8104:8109   */\n      dup2\n        /* \"#utility.yul\":8093:8109   */\n      swap1\n      pop\n        /* \"#utility.yul\":8036:8115   */\n      swap2\n      swap1\n      pop\n      jump\t// out\n        /* \"#utility.yul\":8121:8215   */\n    tag_167:\n        /* \"#utility.yul\":8160:8167   */\n      0x00\n        /* \"#utility.yul\":8189:8209   */\n      tag_171\n        /* \"#utility.yul\":8203:8208   */\n      dup3\n        /* \"#utility.yul\":8189:8209   */\n      tag_172\n      jump\t// in\n    tag_171:\n        /* \"#utility.yul\":8178:8209   */\n      swap1\n      pop\n        /* \"#utility.yul\":8121:8215   */\n      swap2\n      swap1\n      pop\n      jump\t// out\n        /* \"#utility.yul\":8221:8300   */\n    tag_121:\n        /* \"#utility.yul\":8260:8267   */\n      0x00\n        /* \"#utility.yul\":8289:8294   */\n      dup2\n        /* \"#utility.yul\":8278:8294   */\n      swap1\n      pop\n        /* \"#utility.yul\":8221:8300   */\n      swap2\n      swap1\n      pop\n      jump\t// out\n        /* \"#utility.yul\":8306:8486   */\n    tag_143:\n        /* \"#utility.yul\":8354:8431   */\n      0x4e487b7100000000000000000000000000000000000000000000000000000000\n        /* \"#utility.yul\":8351:8352   */\n      0x00\n        /* \"#utility.yul\":8344:8432   */\n      mstore\n        /* \"#utility.yul\":8451:8455   */\n      0x41\n        /* \"#utility.yul\":8448:8449   */\n      0x04\n        /* \"#utility.yul\":8441:8456   */\n      mstore\n        /* \"#utility.yul\":8475:8479   */\n      0x24\n        /* \"#utility.yul\":8472:8473   */\n      0x00\n        /* \"#utility.yul\":8465:8480   */\n      revert\n        /* \"#utility.yul\":8492:8609   */\n    tag_56:\n        /* \"#utility.yul\":8601:8602   */\n      0x00\n        /* \"#utility.yul\":8598:8599   */\n      dup1\n        /* \"#utility.yul\":8591:8603   */\n      revert\n        /* \"#utility.yul\":8615:8732   */\n    tag_45:\n        /* \"#utility.yul\":8724:8725   */\n      0x00\n        /* \"#utility.yul\":8721:8722   */\n      dup1\n        /* \"#utility.yul\":8714:8726   */\n      revert\n        /* \"#utility.yul\":8738:8855   */\n    tag_72:\n        /* \"#utility.yul\":8847:8848   */\n      0x00\n        /* \"#utility.yul\":8844:8845   */\n      dup1\n        /* \"#utility.yul\":8837:8849   */\n      revert\n        /* \"#utility.yul\":8861:8978   */\n    tag_65:\n        /* \"#utility.yul\":8970:8971   */\n      0x00\n        /* \"#utility.yul\":8967:8968   */\n      dup1\n        /* \"#utility.yul\":8960:8972   */\n      revert\n        /* \"#utility.yul\":8984:9086   */\n    tag_109:\n        /* \"#utility.yul\":9025:9031   */\n      0x00\n        /* \"#utility.yul\":9076:9078   */\n      0x1f\n        /* \"#utility.yul\":9072:9079   */\n      not\n        /* \"#utility.yul\":9067:9069   */\n      0x1f\n        /* \"#utility.yul\":9060:9065   */\n      dup4\n        /* \"#utility.yul\":9056:9070   */\n      add\n        /* \"#utility.yul\":9052:9080   */\n      and\n        /* \"#utility.yul\":9042:9080   */\n      swap1\n      pop\n        /* \"#utility.yul\":8984:9086   */\n      swap2\n      swap1\n      pop\n      jump\t// out\n        /* \"#utility.yul\":9092:9186   */\n    tag_172:\n        /* \"#utility.yul\":9125:9133   */\n      0x00\n        /* \"#utility.yul\":9173:9178   */\n      dup2\n        /* \"#utility.yul\":9169:9171   */\n      0x60\n        /* \"#utility.yul\":9165:9179   */\n      shl\n        /* \"#utility.yul\":9144:9179   */\n      swap1\n      pop\n        /* \"#utility.yul\":9092:9186   */\n      swap2\n      swap1\n      pop\n      jump\t// out\n        /* \"#utility.yul\":9192:9314   */\n    tag_51:\n        /* \"#utility.yul\":9265:9289   */\n      tag_182\n        /* \"#utility.yul\":9283:9288   */\n      dup2\n        /* \"#utility.yul\":9265:9289   */\n      tag_82\n      jump\t// in\n    tag_182:\n        /* \"#utility.yul\":9258:9263   */\n      dup2\n        /* \"#utility.yul\":9255:9290   */\n      eq\n        /* \"#utility.yul\":9245:9308   */\n      tag_183\n      jumpi\n        /* \"#utility.yul\":9304:9305   */\n      0x00\n        /* \"#utility.yul\":9301:9302   */\n      dup1\n        /* \"#utility.yul\":9294:9306   */\n      revert\n        /* \"#utility.yul\":9245:9308   */\n    tag_183:\n        /* \"#utility.yul\":9192:9314   */\n      pop\n      jump\t// out\n        /* \"#utility.yul\":9320:9442   */\n    tag_61:\n        /* \"#utility.yul\":9393:9417   */\n      tag_185\n        /* \"#utility.yul\":9411:9416   */\n      dup2\n        /* \"#utility.yul\":9393:9417   */\n      tag_120\n      jump\t// in\n    tag_185:\n        /* \"#utility.yul\":9386:9391   */\n      dup2\n        /* \"#utility.yul\":9383:9418   */\n      eq\n        /* \"#utility.yul\":9373:9436   */\n      tag_186\n      jumpi\n        /* \"#utility.yul\":9432:9433   */\n      0x00\n        /* \"#utility.yul\":9429:9430   */\n      dup1\n        /* \"#utility.yul\":9422:9434   */\n      revert\n        /* \"#utility.yul\":9373:9436   */\n    tag_186:\n        /* \"#utility.yul\":9320:9442   */\n      pop\n      jump\t// out\n    stop\n\n    sub_0: assembly {\n            /* \"SCP/Create2.sol\":58:179  contract DeployWithCreate2 {... */\n          mstore(0x40, 0x80)\n            /* \"SCP/Create2.sol\":119:177  constructor(address _owner){... */\n          callvalue\n          dup1\n          iszero\n          tag_1\n          jumpi\n          0x00\n          dup1\n          revert\n        tag_1:\n          pop\n          mload(0x40)\n          sub(codesize, bytecodeSize)\n          dup1\n          bytecodeSize\n          dup4\n          codecopy\n          dup2\n          dup2\n          add\n          0x40\n          mstore\n          dup2\n          add\n          swap1\n          tag_2\n          swap2\n          swap1\n          tag_3\n          jump\t// in\n        tag_2:\n            /* \"SCP/Create2.sol\":164:170  _owner */\n          dup1\n            /* \"SCP/Create2.sol\":156:161  owner */\n          0x00\n          dup1\n            /* \"SCP/Create2.sol\":156:170  owner = _owner */\n          0x0100\n          exp\n          dup2\n          sload\n          dup2\n          0xffffffffffffffffffffffffffffffffffffffff\n          mul\n          not\n          and\n          swap1\n          dup4\n          0xffffffffffffffffffffffffffffffffffffffff\n          and\n          mul\n          or\n          swap1\n          sstore\n          pop\n            /* \"SCP/Create2.sol\":119:177  constructor(address _owner){... */\n          pop\n            /* \"SCP/Create2.sol\":58:179  contract DeployWithCreate2 {... */\n          jump(tag_6)\n            /* \"#utility.yul\":7:150   */\n        tag_8:\n            /* \"#utility.yul\":64:69   */\n          0x00\n            /* \"#utility.yul\":95:101   */\n          dup2\n            /* \"#utility.yul\":89:102   */\n          mload\n            /* \"#utility.yul\":80:102   */\n          swap1\n          pop\n            /* \"#utility.yul\":111:144   */\n          tag_10\n            /* \"#utility.yul\":138:143   */\n          dup2\n            /* \"#utility.yul\":111:144   */\n          tag_11\n          jump\t// in\n        tag_10:\n            /* \"#utility.yul\":7:150   */\n          swap3\n          swap2\n          pop\n          pop\n          jump\t// out\n            /* \"#utility.yul\":156:507   */\n        tag_3:\n            /* \"#utility.yul\":226:232   */\n          0x00\n            /* \"#utility.yul\":275:277   */\n          0x20\n            /* \"#utility.yul\":263:272   */\n          dup3\n            /* \"#utility.yul\":254:261   */\n          dup5\n            /* \"#utility.yul\":250:273   */\n          sub\n            /* \"#utility.yul\":246:278   */\n          slt\n            /* \"#utility.yul\":243:362   */\n          iszero\n          tag_13\n          jumpi\n            /* \"#utility.yul\":281:360   */\n          tag_14\n          tag_15\n          jump\t// in\n        tag_14:\n            /* \"#utility.yul\":243:362   */\n        tag_13:\n            /* \"#utility.yul\":401:402   */\n          0x00\n            /* \"#utility.yul\":426:490   */\n          tag_16\n            /* \"#utility.yul\":482:489   */\n          dup5\n            /* \"#utility.yul\":473:479   */\n          dup3\n            /* \"#utility.yul\":462:471   */\n          dup6\n            /* \"#utility.yul\":458:480   */\n          add\n            /* \"#utility.yul\":426:490   */\n          tag_8\n          jump\t// in\n        tag_16:\n            /* \"#utility.yul\":416:490   */\n          swap2\n          pop\n            /* \"#utility.yul\":372:500   */\n          pop\n            /* \"#utility.yul\":156:507   */\n          swap3\n          swap2\n          pop\n          pop\n          jump\t// out\n            /* \"#utility.yul\":594:690   */\n        tag_19:\n            /* \"#utility.yul\":631:638   */\n          0x00\n            /* \"#utility.yul\":660:684   */\n          tag_21\n            /* \"#utility.yul\":678:683   */\n          dup3\n            /* \"#utility.yul\":660:684   */\n          tag_22\n          jump\t// in\n        tag_21:\n            /* \"#utility.yul\":649:684   */\n          swap1\n          pop\n            /* \"#utility.yul\":594:690   */\n          swap2\n          swap1\n          pop\n          jump\t// out\n            /* \"#utility.yul\":696:822   */\n        tag_22:\n            /* \"#utility.yul\":733:740   */\n          0x00\n            /* \"#utility.yul\":773:815   */\n          0xffffffffffffffffffffffffffffffffffffffff\n            /* \"#utility.yul\":766:771   */\n          dup3\n            /* \"#utility.yul\":762:816   */\n          and\n            /* \"#utility.yul\":751:816   */\n          swap1\n          pop\n            /* \"#utility.yul\":696:822   */\n          swap2\n          swap1\n          pop\n          jump\t// out\n            /* \"#utility.yul\":951:1068   */\n        tag_15:\n            /* \"#utility.yul\":1060:1061   */\n          0x00\n            /* \"#utility.yul\":1057:1058   */\n          dup1\n            /* \"#utility.yul\":1050:1062   */\n          revert\n            /* \"#utility.yul\":1074:1196   */\n        tag_11:\n            /* \"#utility.yul\":1147:1171   */\n          tag_28\n            /* \"#utility.yul\":1165:1170   */\n          dup2\n            /* \"#utility.yul\":1147:1171   */\n          tag_19\n          jump\t// in\n        tag_28:\n            /* \"#utility.yul\":1140:1145   */\n          dup2\n            /* \"#utility.yul\":1137:1172   */\n          eq\n            /* \"#utility.yul\":1127:1190   */\n          tag_29\n          jumpi\n            /* \"#utility.yul\":1186:1187   */\n          0x00\n            /* \"#utility.yul\":1183:1184   */\n          dup1\n            /* \"#utility.yul\":1176:1188   */\n          revert\n            /* \"#utility.yul\":1127:1190   */\n        tag_29:\n            /* \"#utility.yul\":1074:1196   */\n          pop\n          jump\t// out\n            /* \"SCP/Create2.sol\":58:179  contract DeployWithCreate2 {... */\n        tag_6:\n          dataSize(sub_0)\n          dup1\n          dataOffset(sub_0)\n          0x00\n          codecopy\n          0x00\n          return\n        stop\n\n        sub_0: assembly {\n                /* \"SCP/Create2.sol\":58:179  contract DeployWithCreate2 {... */\n              mstore(0x40, 0x80)\n              callvalue\n              dup1\n              iszero\n              tag_1\n              jumpi\n              0x00\n              dup1\n              revert\n            tag_1:\n              pop\n              jumpi(tag_2, lt(calldatasize, 0x04))\n              shr(0xe0, calldataload(0x00))\n              dup1\n              0x8da5cb5b\n              eq\n              tag_3\n              jumpi\n            tag_2:\n              0x00\n              dup1\n              revert\n                /* \"SCP/Create2.sol\":91:111  address public owner */\n            tag_3:\n              tag_4\n              tag_5\n              jump\t// in\n            tag_4:\n              mload(0x40)\n              tag_6\n              swap2\n              swap1\n              tag_7\n              jump\t// in\n            tag_6:\n              mload(0x40)\n              dup1\n              swap2\n              sub\n              swap1\n              return\n            tag_5:\n              0x00\n              dup1\n              sload\n              swap1\n              0x0100\n              exp\n              swap1\n              div\n              0xffffffffffffffffffffffffffffffffffffffff\n              and\n              dup2\n              jump\t// out\n                /* \"#utility.yul\":7:125   */\n            tag_9:\n                /* \"#utility.yul\":94:118   */\n              tag_11\n                /* \"#utility.yul\":112:117   */\n              dup2\n                /* \"#utility.yul\":94:118   */\n              tag_12\n              jump\t// in\n            tag_11:\n                /* \"#utility.yul\":89:92   */\n              dup3\n                /* \"#utility.yul\":82:119   */\n              mstore\n                /* \"#utility.yul\":7:125   */\n              pop\n              pop\n              jump\t// out\n                /* \"#utility.yul\":131:353   */\n            tag_7:\n                /* \"#utility.yul\":224:228   */\n              0x00\n                /* \"#utility.yul\":262:264   */\n              0x20\n                /* \"#utility.yul\":251:260   */\n              dup3\n                /* \"#utility.yul\":247:265   */\n              add\n                /* \"#utility.yul\":239:265   */\n              swap1\n              pop\n                /* \"#utility.yul\":275:346   */\n              tag_14\n                /* \"#utility.yul\":343:344   */\n              0x00\n                /* \"#utility.yul\":332:341   */\n              dup4\n                /* \"#utility.yul\":328:345   */\n              add\n                /* \"#utility.yul\":319:325   */\n              dup5\n                /* \"#utility.yul\":275:346   */\n              tag_9\n              jump\t// in\n            tag_14:\n                /* \"#utility.yul\":131:353   */\n              swap3\n              swap2\n              pop\n              pop\n              jump\t// out\n                /* \"#utility.yul\":359:455   */\n            tag_12:\n                /* \"#utility.yul\":396:403   */\n              0x00\n                /* \"#utility.yul\":425:449   */\n              tag_16\n                /* \"#utility.yul\":443:448   */\n              dup3\n                /* \"#utility.yul\":425:449   */\n              tag_17\n              jump\t// in\n            tag_16:\n                /* \"#utility.yul\":414:449   */\n              swap1\n              pop\n                /* \"#utility.yul\":359:455   */\n              swap2\n              swap1\n              pop\n              jump\t// out\n                /* \"#utility.yul\":461:587   */\n            tag_17:\n                /* \"#utility.yul\":498:505   */\n              0x00\n                /* \"#utility.yul\":538:580   */\n              0xffffffffffffffffffffffffffffffffffffffff\n                /* \"#utility.yul\":531:536   */\n              dup3\n                /* \"#utility.yul\":527:581   */\n              and\n                /* \"#utility.yul\":516:581   */\n              swap1\n              pop\n                /* \"#utility.yul\":461:587   */\n              swap2\n              swap1\n              pop\n              jump\t// out\n\n            auxdata: 0xa2646970667358221220a2a875905221c8485a13830cce898d6fba79b0a5754c2685b289089da45f421f64736f6c63430008070033\n        }\n    }\n\n    auxdata: 0xa2646970667358221220008d8bd4c47a6e88461adc0464f80de912f25349fc292f546f7e04d03839d18064736f6c63430008070033\n}\n",
				"bytecode": {
					"linkReferences": {},
					"object": "608060405234801561001057600080fd5b50610951806100206000396000f3fe608060405234801561001057600080fd5b50600436106100415760003560e01c80630c6008af1461004657806394ca2cb514610076578063a5e38751146100a6575b600080fd5b610060600480360381019061005b91906102a1565b6100c2565b60405161006d91906104b9565b60405180910390f35b610090600480360381019061008b91906102ce565b610135565b60405161009d919061049e565b60405180910390f35b6100c060048036038101906100bb919061032a565b61017f565b005b60606000604051806020016100d6906101fa565b6020820181038252601f19601f82011660405250905080836040516020016100fe919061049e565b60405160208183030381529060405260405160200161011e92919061047a565b604051602081830303815290604052915050919050565b60008060ff60f81b3084868051906020012060405160200161015a949392919061042c565b6040516020818303038152906040528051906020012090508060001c91505092915050565b60008160001b33604051610192906101fa565b61019c919061049e565b8190604051809103906000f59050801580156101bc573d6000803e3d6000fd5b5090507f55ea6c6b31543d8e2ec6a72f71a79c0f4b72ed0d4757172b043d8f4f4cd84848816040516101ee919061049e565b60405180910390a15050565b61020d8061070f83390190565b600061021a61021584610500565b6104db565b905082815260208101848484011115610236576102356106b3565b5b6102418482856105ca565b509392505050565b600081359050610258816106e0565b92915050565b600082601f830112610273576102726106ae565b5b8135610283848260208601610207565b91505092915050565b60008135905061029b816106f7565b92915050565b6000602082840312156102b7576102b66106bd565b5b60006102c584828501610249565b91505092915050565b600080604083850312156102e5576102e46106bd565b5b600083013567ffffffffffffffff811115610303576103026106b8565b5b61030f8582860161025e565b92505060206103208582860161028c565b9150509250929050565b6000602082840312156103405761033f6106bd565b5b600061034e8482850161028c565b91505092915050565b61036081610558565b82525050565b61037761037282610558565b61063d565b82525050565b61038e6103898261056a565b61064f565b82525050565b6103a56103a082610596565b610659565b82525050565b60006103b682610531565b6103c0818561053c565b93506103d08185602086016105d9565b6103d9816106c2565b840191505092915050565b60006103ef82610531565b6103f9818561054d565b93506104098185602086016105d9565b80840191505092915050565b610426610421826105c0565b610675565b82525050565b6000610438828761037d565b6001820191506104488286610366565b6014820191506104588285610415565b6020820191506104688284610394565b60208201915081905095945050505050565b600061048682856103e4565b915061049282846103e4565b91508190509392505050565b60006020820190506104b36000830184610357565b92915050565b600060208201905081810360008301526104d381846103ab565b905092915050565b60006104e56104f6565b90506104f1828261060c565b919050565b6000604051905090565b600067ffffffffffffffff82111561051b5761051a61067f565b5b610524826106c2565b9050602081019050919050565b600081519050919050565b600082825260208201905092915050565b600081905092915050565b6000610563826105a0565b9050919050565b60007fff0000000000000000000000000000000000000000000000000000000000000082169050919050565b6000819050919050565b600073ffffffffffffffffffffffffffffffffffffffff82169050919050565b6000819050919050565b82818337600083830152505050565b60005b838110156105f75780820151818401526020810190506105dc565b83811115610606576000848401525b50505050565b610615826106c2565b810181811067ffffffffffffffff821117156106345761063361067f565b5b80604052505050565b600061064882610663565b9050919050565b6000819050919050565b6000819050919050565b600061066e826106d3565b9050919050565b6000819050919050565b7f4e487b7100000000000000000000000000000000000000000000000000000000600052604160045260246000fd5b600080fd5b600080fd5b600080fd5b600080fd5b6000601f19601f8301169050919050565b60008160601b9050919050565b6106e981610558565b81146106f457600080fd5b50565b610700816105c0565b811461070b57600080fd5b5056fe608060405234801561001057600080fd5b5060405161020d38038061020d8339818101604052810190610032919061008d565b806000806101000a81548173ffffffffffffffffffffffffffffffffffffffff021916908373ffffffffffffffffffffffffffffffffffffffff16021790555050610108565b600081519050610087816100f1565b92915050565b6000602082840312156100a3576100a26100ec565b5b60006100b184828501610078565b91505092915050565b60006100c5826100cc565b9050919050565b600073ffffffffffffffffffffffffffffffffffffffff82169050919050565b600080fd5b6100fa816100ba565b811461010557600080fd5b50565b60f7806101166000396000f3fe6080604052348015600f57600080fd5b506004361060285760003560e01c80638da5cb5b14602d575b600080fd5b60336047565b604051603e91906078565b60405180910390f35b60008054906101000a900473ffffffffffffffffffffffffffffffffffffffff1681565b6072816091565b82525050565b6000602082019050608b6000830184606b565b92915050565b6000609a8260a1565b9050919050565b600073ffffffffffffffffffffffffffffffffffffffff8216905091905056fea2646970667358221220a2a875905221c8485a13830cce898d6fba79b0a5754c2685b289089da45f421f64736f6c63430008070033a2646970667358221220008d8bd4c47a6e88461adc0464f80de912f25349fc292f546f7e04d03839d18064736f6c63430008070033",
					"opcodes": "PUSH1 0x80 PUSH1 0x40 MSTORE CALLVALUE DUP1 ISZERO PUSH2 0x10 JUMPI PUSH1 0x0 DUP1 REVERT JUMPDEST POP PUSH2 0x951 DUP1 PUSH2 0x20 PUSH1 0x0 CODECOPY PUSH1 0x0 RETURN INVALID PUSH1 0x80 PUSH1 0x40 MSTORE CALLVALUE DUP1 ISZERO PUSH2 0x10 JUMPI PUSH1 0x0 DUP1 REVERT JUMPDEST POP PUSH1 0x4 CALLDATASIZE LT PUSH2 0x41 JUMPI PUSH1 0x0 CALLDATALOAD PUSH1 0xE0 SHR DUP1 PUSH4 0xC6008AF EQ PUSH2 0x46 JUMPI DUP1 PUSH4 0x94CA2CB5 EQ PUSH2 0x76 JUMPI DUP1 PUSH4 0xA5E38751 EQ PUSH2 0xA6 JUMPI JUMPDEST PUSH1 0x0 DUP1 REVERT JUMPDEST PUSH2 0x60 PUSH1 0x4 DUP1 CALLDATASIZE SUB DUP2 ADD SWAP1 PUSH2 0x5B SWAP2 SWAP1 PUSH2 0x2A1 JUMP JUMPDEST PUSH2 0xC2 JUMP JUMPDEST PUSH1 0x40 MLOAD PUSH2 0x6D SWAP2 SWAP1 PUSH2 0x4B9 JUMP JUMPDEST PUSH1 0x40 MLOAD DUP1 SWAP2 SUB SWAP1 RETURN JUMPDEST PUSH2 0x90 PUSH1 0x4 DUP1 CALLDATASIZE SUB DUP2 ADD SWAP1 PUSH2 0x8B SWAP2 SWAP1 PUSH2 0x2CE JUMP JUMPDEST PUSH2 0x135 JUMP JUMPDEST PUSH1 0x40 MLOAD PUSH2 0x9D SWAP2 SWAP1 PUSH2 0x49E JUMP JUMPDEST PUSH1 0x40 MLOAD DUP1 SWAP2 SUB SWAP1 RETURN JUMPDEST PUSH2 0xC0 PUSH1 0x4 DUP1 CALLDATASIZE SUB DUP2 ADD SWAP1 PUSH2 0xBB SWAP2 SWAP1 PUSH2 0x32A JUMP JUMPDEST PUSH2 0x17F JUMP JUMPDEST STOP JUMPDEST PUSH1 0x60 PUSH1 0x0 PUSH1 0x40 MLOAD DUP1 PUSH1 0x20 ADD PUSH2 0xD6 SWAP1 PUSH2 0x1FA JUMP JUMPDEST PUSH1 0x20 DUP3 ADD DUP2 SUB DUP3 MSTORE PUSH1 0x1F NOT PUSH1 0x1F DUP3 ADD AND PUSH1 0x40 MSTORE POP SWAP1 POP DUP1 DUP4 PUSH1 0x40 MLOAD PUSH1 0x20 ADD PUSH2 0xFE SWAP2 SWAP1 PUSH2 0x49E JUMP JUMPDEST PUSH1 0x40 MLOAD PUSH1 0x20 DUP2 DUP4 SUB SUB DUP2 MSTORE SWAP1 PUSH1 0x40 MSTORE PUSH1 0x40 MLOAD PUSH1 0x20 ADD PUSH2 0x11E SWAP3 SWAP2 SWAP1 PUSH2 0x47A JUMP JUMPDEST PUSH1 0x40 MLOAD PUSH1 0x20 DUP2 DUP4 SUB SUB DUP2 MSTORE SWAP1 PUSH1 0x40 MSTORE SWAP2 POP POP SWAP2 SWAP1 POP JUMP JUMPDEST PUSH1 0x0 DUP1 PUSH1 0xFF PUSH1 0xF8 SHL ADDRESS DUP5 DUP7 DUP1 MLOAD SWAP1 PUSH1 0x20 ADD KECCAK256 PUSH1 0x40 MLOAD PUSH1 0x20 ADD PUSH2 0x15A SWAP5 SWAP4 SWAP3 SWAP2 SWAP1 PUSH2 0x42C JUMP JUMPDEST PUSH1 0x40 MLOAD PUSH1 0x20 DUP2 DUP4 SUB SUB DUP2 MSTORE SWAP1 PUSH1 0x40 MSTORE DUP1 MLOAD SWAP1 PUSH1 0x20 ADD KECCAK256 SWAP1 POP DUP1 PUSH1 0x0 SHR SWAP2 POP POP SWAP3 SWAP2 POP POP JUMP JUMPDEST PUSH1 0x0 DUP2 PUSH1 0x0 SHL CALLER PUSH1 0x40 MLOAD PUSH2 0x192 SWAP1 PUSH2 0x1FA JUMP JUMPDEST PUSH2 0x19C SWAP2 SWAP1 PUSH2 0x49E JUMP JUMPDEST DUP2 SWAP1 PUSH1 0x40 MLOAD DUP1 SWAP2 SUB SWAP1 PUSH1 0x0 CREATE2 SWAP1 POP DUP1 ISZERO DUP1 ISZERO PUSH2 0x1BC JUMPI RETURNDATASIZE PUSH1 0x0 DUP1 RETURNDATACOPY RETURNDATASIZE PUSH1 0x0 REVERT JUMPDEST POP SWAP1 POP PUSH32 0x55EA6C6B31543D8E2EC6A72F71A79C0F4B72ED0D4757172B043D8F4F4CD84848 DUP2 PUSH1 0x40 MLOAD PUSH2 0x1EE SWAP2 SWAP1 PUSH2 0x49E JUMP JUMPDEST PUSH1 0x40 MLOAD DUP1 SWAP2 SUB SWAP1 LOG1 POP POP JUMP JUMPDEST PUSH2 0x20D DUP1 PUSH2 0x70F DUP4 CODECOPY ADD SWAP1 JUMP JUMPDEST PUSH1 0x0 PUSH2 0x21A PUSH2 0x215 DUP5 PUSH2 0x500 JUMP JUMPDEST PUSH2 0x4DB JUMP JUMPDEST SWAP1 POP DUP3 DUP2 MSTORE PUSH1 0x20 DUP2 ADD DUP5 DUP5 DUP5 ADD GT ISZERO PUSH2 0x236 JUMPI PUSH2 0x235 PUSH2 0x6B3 JUMP JUMPDEST JUMPDEST PUSH2 0x241 DUP5 DUP3 DUP6 PUSH2 0x5CA JUMP JUMPDEST POP SWAP4 SWAP3 POP POP POP JUMP JUMPDEST PUSH1 0x0 DUP2 CALLDATALOAD SWAP1 POP PUSH2 0x258 DUP2 PUSH2 0x6E0 JUMP JUMPDEST SWAP3 SWAP2 POP POP JUMP JUMPDEST PUSH1 0x0 DUP3 PUSH1 0x1F DUP4 ADD SLT PUSH2 0x273 JUMPI PUSH2 0x272 PUSH2 0x6AE JUMP JUMPDEST JUMPDEST DUP2 CALLDATALOAD PUSH2 0x283 DUP5 DUP3 PUSH1 0x20 DUP7 ADD PUSH2 0x207 JUMP JUMPDEST SWAP2 POP POP SWAP3 SWAP2 POP POP JUMP JUMPDEST PUSH1 0x0 DUP2 CALLDATALOAD SWAP1 POP PUSH2 0x29B DUP2 PUSH2 0x6F7 JUMP JUMPDEST SWAP3 SWAP2 POP POP JUMP JUMPDEST PUSH1 0x0 PUSH1 0x20 DUP3 DUP5 SUB SLT ISZERO PUSH2 0x2B7 JUMPI PUSH2 0x2B6 PUSH2 0x6BD JUMP JUMPDEST JUMPDEST PUSH1 0x0 PUSH2 0x2C5 DUP5 DUP3 DUP6 ADD PUSH2 0x249 JUMP JUMPDEST SWAP2 POP POP SWAP3 SWAP2 POP POP JUMP JUMPDEST PUSH1 0x0 DUP1 PUSH1 0x40 DUP4 DUP6 SUB SLT ISZERO PUSH2 0x2E5 JUMPI PUSH2 0x2E4 PUSH2 0x6BD JUMP JUMPDEST JUMPDEST PUSH1 0x0 DUP4 ADD CALLDATALOAD PUSH8 0xFFFFFFFFFFFFFFFF DUP2 GT ISZERO PUSH2 0x303 JUMPI PUSH2 0x302 PUSH2 0x6B8 JUMP JUMPDEST JUMPDEST PUSH2 0x30F DUP6 DUP3 DUP7 ADD PUSH2 0x25E JUMP JUMPDEST SWAP3 POP POP PUSH1 0x20 PUSH2 0x320 DUP6 DUP3 DUP7 ADD PUSH2 0x28C JUMP JUMPDEST SWAP2 POP POP SWAP3 POP SWAP3 SWAP1 POP JUMP JUMPDEST PUSH1 0x0 PUSH1 0x20 DUP3 DUP5 SUB SLT ISZERO PUSH2 0x340 JUMPI PUSH2 0x33F PUSH2 0x6BD JUMP JUMPDEST JUMPDEST PUSH1 0x0 PUSH2 0x34E DUP5 DUP3 DUP6 ADD PUSH2 0x28C JUMP JUMPDEST SWAP2 POP POP SWAP3 SWAP2 POP POP JUMP JUMPDEST PUSH2 0x360 DUP2 PUSH2 0x558 JUMP JUMPDEST DUP3 MSTORE POP POP JUMP JUMPDEST PUSH2 0x377 PUSH2 0x372 DUP3 PUSH2 0x558 JUMP JUMPDEST PUSH2 0x63D JUMP JUMPDEST DUP3 MSTORE POP POP JUMP JUMPDEST PUSH2 0x38E PUSH2 0x389 DUP3 PUSH2 0x56A JUMP JUMPDEST PUSH2 0x64F JUMP JUMPDEST DUP3 MSTORE POP POP JUMP JUMPDEST PUSH2 0x3A5 PUSH2 0x3A0 DUP3 PUSH2 0x596 JUMP JUMPDEST PUSH2 0x659 JUMP JUMPDEST DUP3 MSTORE POP POP JUMP JUMPDEST PUSH1 0x0 PUSH2 0x3B6 DUP3 PUSH2 0x531 JUMP JUMPDEST PUSH2 0x3C0 DUP2 DUP6 PUSH2 0x53C JUMP JUMPDEST SWAP4 POP PUSH2 0x3D0 DUP2 DUP6 PUSH1 0x20 DUP7 ADD PUSH2 0x5D9 JUMP JUMPDEST PUSH2 0x3D9 DUP2 PUSH2 0x6C2 JUMP JUMPDEST DUP5 ADD SWAP2 POP POP SWAP3 SWAP2 POP POP JUMP JUMPDEST PUSH1 0x0 PUSH2 0x3EF DUP3 PUSH2 0x531 JUMP JUMPDEST PUSH2 0x3F9 DUP2 DUP6 PUSH2 0x54D JUMP JUMPDEST SWAP4 POP PUSH2 0x409 DUP2 DUP6 PUSH1 0x20 DUP7 ADD PUSH2 0x5D9 JUMP JUMPDEST DUP1 DUP5 ADD SWAP2 POP POP SWAP3 SWAP2 POP POP JUMP JUMPDEST PUSH2 0x426 PUSH2 0x421 DUP3 PUSH2 0x5C0 JUMP JUMPDEST PUSH2 0x675 JUMP JUMPDEST DUP3 MSTORE POP POP JUMP JUMPDEST PUSH1 0x0 PUSH2 0x438 DUP3 DUP8 PUSH2 0x37D JUMP JUMPDEST PUSH1 0x1 DUP3 ADD SWAP2 POP PUSH2 0x448 DUP3 DUP7 PUSH2 0x366 JUMP JUMPDEST PUSH1 0x14 DUP3 ADD SWAP2 POP PUSH2 0x458 DUP3 DUP6 PUSH2 0x415 JUMP JUMPDEST PUSH1 0x20 DUP3 ADD SWAP2 POP PUSH2 0x468 DUP3 DUP5 PUSH2 0x394 JUMP JUMPDEST PUSH1 0x20 DUP3 ADD SWAP2 POP DUP2 SWAP1 POP SWAP6 SWAP5 POP POP POP POP POP JUMP JUMPDEST PUSH1 0x0 PUSH2 0x486 DUP3 DUP6 PUSH2 0x3E4 JUMP JUMPDEST SWAP2 POP PUSH2 0x492 DUP3 DUP5 PUSH2 0x3E4 JUMP JUMPDEST SWAP2 POP DUP2 SWAP1 POP SWAP4 SWAP3 POP POP POP JUMP JUMPDEST PUSH1 0x0 PUSH1 0x20 DUP3 ADD SWAP1 POP PUSH2 0x4B3 PUSH1 0x0 DUP4 ADD DUP5 PUSH2 0x357 JUMP JUMPDEST SWAP3 SWAP2 POP POP JUMP JUMPDEST PUSH1 0x0 PUSH1 0x20 DUP3 ADD SWAP1 POP DUP2 DUP2 SUB PUSH1 0x0 DUP4 ADD MSTORE PUSH2 0x4D3 DUP2 DUP5 PUSH2 0x3AB JUMP JUMPDEST SWAP1 POP SWAP3 SWAP2 POP POP JUMP JUMPDEST PUSH1 0x0 PUSH2 0x4E5 PUSH2 0x4F6 JUMP JUMPDEST SWAP1 POP PUSH2 0x4F1 DUP3 DUP3 PUSH2 0x60C JUMP JUMPDEST SWAP2 SWAP1 POP JUMP JUMPDEST PUSH1 0x0 PUSH1 0x40 MLOAD SWAP1 POP SWAP1 JUMP JUMPDEST PUSH1 0x0 PUSH8 0xFFFFFFFFFFFFFFFF DUP3 GT ISZERO PUSH2 0x51B JUMPI PUSH2 0x51A PUSH2 0x67F JUMP JUMPDEST JUMPDEST PUSH2 0x524 DUP3 PUSH2 0x6C2 JUMP JUMPDEST SWAP1 POP PUSH1 0x20 DUP2 ADD SWAP1 POP SWAP2 SWAP1 POP JUMP JUMPDEST PUSH1 0x0 DUP2 MLOAD SWAP1 POP SWAP2 SWAP1 POP JUMP JUMPDEST PUSH1 0x0 DUP3 DUP3 MSTORE PUSH1 0x20 DUP3 ADD SWAP1 POP SWAP3 SWAP2 POP POP JUMP JUMPDEST PUSH1 0x0 DUP2 SWAP1 POP SWAP3 SWAP2 POP POP JUMP JUMPDEST PUSH1 0x0 PUSH2 0x563 DUP3 PUSH2 0x5A0 JUMP JUMPDEST SWAP1 POP SWAP2 SWAP1 POP JUMP JUMPDEST PUSH1 0x0 PUSH32 0xFF00000000000000000000000000000000000000000000000000000000000000 DUP3 AND SWAP1 POP SWAP2 SWAP1 POP JUMP JUMPDEST PUSH1 0x0 DUP2 SWAP1 POP SWAP2 SWAP1 POP JUMP JUMPDEST PUSH1 0x0 PUSH20 0xFFFFFFFFFFFFFFFFFFFFFFFFFFFFFFFFFFFFFFFF DUP3 AND SWAP1 POP SWAP2 SWAP1 POP JUMP JUMPDEST PUSH1 0x0 DUP2 SWAP1 POP SWAP2 SWAP1 POP JUMP JUMPDEST DUP3 DUP2 DUP4 CALLDATACOPY PUSH1 0x0 DUP4 DUP4 ADD MSTORE POP POP POP JUMP JUMPDEST PUSH1 0x0 JUMPDEST DUP4 DUP2 LT ISZERO PUSH2 0x5F7 JUMPI DUP1 DUP3 ADD MLOAD DUP2 DUP5 ADD MSTORE PUSH1 0x20 DUP2 ADD SWAP1 POP PUSH2 0x5DC JUMP JUMPDEST DUP4 DUP2 GT ISZERO PUSH2 0x606 JUMPI PUSH1 0x0 DUP5 DUP5 ADD MSTORE JUMPDEST POP POP POP POP JUMP JUMPDEST PUSH2 0x615 DUP3 PUSH2 0x6C2 JUMP JUMPDEST DUP2 ADD DUP2 DUP2 LT PUSH8 0xFFFFFFFFFFFFFFFF DUP3 GT OR ISZERO PUSH2 0x634 JUMPI PUSH2 0x633 PUSH2 0x67F JUMP JUMPDEST JUMPDEST DUP1 PUSH1 0x40 MSTORE POP POP POP JUMP JUMPDEST PUSH1 0x0 PUSH2 0x648 DUP3 PUSH2 0x663 JUMP JUMPDEST SWAP1 POP SWAP2 SWAP1 POP JUMP JUMPDEST PUSH1 0x0 DUP2 SWAP1 POP SWAP2 SWAP1 POP JUMP JUMPDEST PUSH1 0x0 DUP2 SWAP1 POP SWAP2 SWAP1 POP JUMP JUMPDEST PUSH1 0x0 PUSH2 0x66E DUP3 PUSH2 0x6D3 JUMP JUMPDEST SWAP1 POP SWAP2 SWAP1 POP JUMP JUMPDEST PUSH1 0x0 DUP2 SWAP1 POP SWAP2 SWAP1 POP JUMP JUMPDEST PUSH32 0x4E487B7100000000000000000000000000000000000000000000000000000000 PUSH1 0x0 MSTORE PUSH1 0x41 PUSH1 0x4 MSTORE PUSH1 0x24 PUSH1 0x0 REVERT JUMPDEST PUSH1 0x0 DUP1 REVERT JUMPDEST PUSH1 0x0 DUP1 REVERT JUMPDEST PUSH1 0x0 DUP1 REVERT JUMPDEST PUSH1 0x0 DUP1 REVERT JUMPDEST PUSH1 0x0 PUSH1 0x1F NOT PUSH1 0x1F DUP4 ADD AND SWAP1 POP SWAP2 SWAP1 POP JUMP JUMPDEST PUSH1 0x0 DUP2 PUSH1 0x60 SHL SWAP1 POP SWAP2 SWAP1 POP JUMP JUMPDEST PUSH2 0x6E9 DUP2 PUSH2 0x558 JUMP JUMPDEST DUP2 EQ PUSH2 0x6F4 JUMPI PUSH1 0x0 DUP1 REVERT JUMPDEST POP JUMP JUMPDEST PUSH2 0x700 DUP2 PUSH2 0x5C0 JUMP JUMPDEST DUP2 EQ PUSH2 0x70B JUMPI PUSH1 0x0 DUP1 REVERT JUMPDEST POP JUMP INVALID PUSH1 0x80 PUSH1 0x40 MSTORE CALLVALUE DUP1 ISZERO PUSH2 0x10 JUMPI PUSH1 0x0 DUP1 REVERT JUMPDEST POP PUSH1 0x40 MLOAD PUSH2 0x20D CODESIZE SUB DUP1 PUSH2 0x20D DUP4 CODECOPY DUP2 DUP2 ADD PUSH1 0x40 MSTORE DUP2 ADD SWAP1 PUSH2 0x32 SWAP2 SWAP1 PUSH2 0x8D JUMP JUMPDEST DUP1 PUSH1 0x0 DUP1 PUSH2 0x100 EXP DUP2 SLOAD DUP2 PUSH20 0xFFFFFFFFFFFFFFFFFFFFFFFFFFFFFFFFFFFFFFFF MUL NOT AND SWAP1 DUP4 PUSH20 0xFFFFFFFFFFFFFFFFFFFFFFFFFFFFFFFFFFFFFFFF AND MUL OR SWAP1 SSTORE POP POP PUSH2 0x108 JUMP JUMPDEST PUSH1 0x0 DUP2 MLOAD SWAP1 POP PUSH2 0x87 DUP2 PUSH2 0xF1 JUMP JUMPDEST SWAP3 SWAP2 POP POP JUMP JUMPDEST PUSH1 0x0 PUSH1 0x20 DUP3 DUP5 SUB SLT ISZERO PUSH2 0xA3 JUMPI PUSH2 0xA2 PUSH2 0xEC JUMP JUMPDEST JUMPDEST PUSH1 0x0 PUSH2 0xB1 DUP5 DUP3 DUP6 ADD PUSH2 0x78 JUMP JUMPDEST SWAP2 POP POP SWAP3 SWAP2 POP POP JUMP JUMPDEST PUSH1 0x0 PUSH2 0xC5 DUP3 PUSH2 0xCC JUMP JUMPDEST SWAP1 POP SWAP2 SWAP1 POP JUMP JUMPDEST PUSH1 0x0 PUSH20 0xFFFFFFFFFFFFFFFFFFFFFFFFFFFFFFFFFFFFFFFF DUP3 AND SWAP1 POP SWAP2 SWAP1 POP JUMP JUMPDEST PUSH1 0x0 DUP1 REVERT JUMPDEST PUSH2 0xFA DUP2 PUSH2 0xBA JUMP JUMPDEST DUP2 EQ PUSH2 0x105 JUMPI PUSH1 0x0 DUP1 REVERT JUMPDEST POP JUMP JUMPDEST PUSH1 0xF7 DUP1 PUSH2 0x116 PUSH1 0x0 CODECOPY PUSH1 0x0 RETURN INVALID PUSH1 0x80 PUSH1 0x40 MSTORE CALLVALUE DUP1 ISZERO PUSH1 0xF JUMPI PUSH1 0x0 DUP1 REVERT JUMPDEST POP PUSH1 0x4 CALLDATASIZE LT PUSH1 0x28 JUMPI PUSH1 0x0 CALLDATALOAD PUSH1 0xE0 SHR DUP1 PUSH4 0x8DA5CB5B EQ PUSH1 0x2D JUMPI JUMPDEST PUSH1 0x0 DUP1 REVERT JUMPDEST PUSH1 0x33 PUSH1 0x47 JUMP JUMPDEST PUSH1 0x40 MLOAD PUSH1 0x3E SWAP2 SWAP1 PUSH1 0x78 JUMP JUMPDEST PUSH1 0x40 MLOAD DUP1 SWAP2 SUB SWAP1 RETURN JUMPDEST PUSH1 0x0 DUP1 SLOAD SWAP1 PUSH2 0x100 EXP SWAP1 DIV PUSH20 0xFFFFFFFFFFFFFFFFFFFFFFFFFFFFFFFFFFFFFFFF AND DUP2 JUMP JUMPDEST PUSH1 0x72 DUP2 PUSH1 0x91 JUMP JUMPDEST DUP3 MSTORE POP POP JUMP JUMPDEST PUSH1 0x0 PUSH1 0x20 DUP3 ADD SWAP1 POP PUSH1 0x8B PUSH1 0x0 DUP4 ADD DUP5 PUSH1 0x6B JUMP JUMPDEST SWAP3 SWAP2 POP POP JUMP JUMPDEST PUSH1 0x0 PUSH1 0x9A DUP3 PUSH1 0xA1 JUMP JUMPDEST SWAP1 POP SWAP2 SWAP1 POP JUMP JUMPDEST PUSH1 0x0 PUSH20 0xFFFFFFFFFFFFFFFFFFFFFFFFFFFFFFFFFFFFFFFF DUP3 AND SWAP1 POP SWAP2 SWAP1 POP JUMP INVALID LOG2 PUSH5 0x6970667358 0x22 SLT KECCAK256 LOG2 0xA8 PUSH22 0x905221C8485A13830CCE898D6FBA79B0A5754C2685B2 DUP10 ADDMOD SWAP14 LOG4 0x5F TIMESTAMP 0x1F PUSH5 0x736F6C6343 STOP ADDMOD SMOD STOP CALLER LOG2 PUSH5 0x6970667358 0x22 SLT KECCAK256 STOP DUP14 DUP12 0xD4 0xC4 PUSH27 0x6E88461ADC0464F80DE912F25349FC292F546F7E04D03839D18064 PUSH20 0x6F6C634300080700330000000000000000000000 "
				},
				"gasEstimates": {
					"creation": {
						"codeDepositCost": "477000",
						"executionCost": "511",
						"totalCost": "477511"
					},
					"external": {
						"deploy(uint256)": "infinite",
						"getAddress(bytes,uint256)": "infinite",
						"getBytecode(address)": "infinite"
					}
				},
				"methodIdentifiers": {
					"deploy(uint256)": "a5e38751",
					"getAddress(bytes,uint256)": "94ca2cb5",
					"getBytecode(address)": "0c6008af"
				}
			},
			"storageLayout": {
				"storage": [],
				"types": null
			},
			"userdoc": {
				"kind": "user",
				"methods": {},
				"version": 1
			}
		}
	}
}