{
	"SCP/CSAMM.sol": {
		"CSAMM": {
			"abi": [
				{
					"inputs": [
						{
							"internalType": "address",
							"name": "_token0",
							"type": "address"
						},
						{
							"internalType": "address",
							"name": "_token1",
							"type": "address"
						}
					],
					"stateMutability": "nonpayable",
					"type": "constructor"
				},
				{
					"inputs": [
						{
							"internalType": "uint256",
							"name": "_amount0",
							"type": "uint256"
						},
						{
							"internalType": "uint256",
							"name": "_amount1",
							"type": "uint256"
						}
					],
					"name": "addLiquidity",
					"outputs": [
						{
							"internalType": "uint256",
							"name": "shares",
							"type": "uint256"
						}
					],
					"stateMutability": "nonpayable",
					"type": "function"
				},
				{
					"inputs": [
						{
							"internalType": "address",
							"name": "",
							"type": "address"
						}
					],
					"name": "balanceOf",
					"outputs": [
						{
							"internalType": "uint256",
							"name": "",
							"type": "uint256"
						}
					],
					"stateMutability": "view",
					"type": "function"
				},
				{
					"inputs": [
						{
							"internalType": "uint256",
							"name": "_shares",
							"type": "uint256"
						}
					],
					"name": "removeLiquidity",
					"outputs": [
						{
							"internalType": "uint256",
							"name": "d0",
							"type": "uint256"
						},
						{
							"internalType": "uint256",
							"name": "d1",
							"type": "uint256"
						}
					],
					"stateMutability": "nonpayable",
					"type": "function"
				},
				{
					"inputs": [],
					"name": "reserve0",
					"outputs": [
						{
							"internalType": "uint256",
							"name": "",
							"type": "uint256"
						}
					],
					"stateMutability": "view",
					"type": "function"
				},
				{
					"inputs": [],
					"name": "reserve1",
					"outputs": [
						{
							"internalType": "uint256",
							"name": "",
							"type": "uint256"
						}
					],
					"stateMutability": "view",
					"type": "function"
				},
				{
					"inputs": [
						{
							"internalType": "address",
							"name": "_tokenIn",
							"type": "address"
						},
						{
							"internalType": "uint256",
							"name": "_amountIn",
							"type": "uint256"
						}
					],
					"name": "swap",
					"outputs": [
						{
							"internalType": "uint256",
							"name": "amountOut",
							"type": "uint256"
						}
					],
					"stateMutability": "payable",
					"type": "function"
				},
				{
					"inputs": [],
					"name": "token0",
					"outputs": [
						{
							"internalType": "contract IERC20",
							"name": "",
							"type": "address"
						}
					],
					"stateMutability": "view",
					"type": "function"
				},
				{
					"inputs": [],
					"name": "token1",
					"outputs": [
						{
							"internalType": "contract IERC20",
							"name": "",
							"type": "address"
						}
					],
					"stateMutability": "view",
					"type": "function"
				},
				{
					"inputs": [],
					"name": "totalSupply",
					"outputs": [
						{
							"internalType": "uint256",
							"name": "",
							"type": "uint256"
						}
					],
					"stateMutability": "view",
					"type": "function"
				}
			],
			"devdoc": {
				"kind": "dev",
				"methods": {},
				"version": 1
			},
			"evm": {
				"assembly": "    /* \"SCP/CSAMM.sol\":81:2826  contract CSAMM {... */\n  mstore(0x40, 0xc0)\n    /* \"SCP/CSAMM.sol\":306:427  constructor(address _token0, address _token1) {... */\n  callvalue\n  dup1\n  iszero\n  tag_1\n  jumpi\n  0x00\n  dup1\n  revert\ntag_1:\n  pop\n  mload(0x40)\n  sub(codesize, bytecodeSize)\n  dup1\n  bytecodeSize\n  dup4\n  codecopy\n  dup2\n  dup2\n  add\n  0x40\n  mstore\n  dup2\n  add\n  swap1\n  tag_2\n  swap2\n  swap1\n  tag_3\n  jump\t// in\ntag_2:\n    /* \"SCP/CSAMM.sol\":378:385  _token0 */\n  dup2\n    /* \"SCP/CSAMM.sol\":362:386  token0 = IERC20(_token0) */\n  0xffffffffffffffffffffffffffffffffffffffff\n  and\n  0x80\n  dup2\n  0xffffffffffffffffffffffffffffffffffffffff\n  and\n  0x60\n  shl\n  dup2\n  mstore\n  pop\n  pop\n    /* \"SCP/CSAMM.sol\":412:419  _token1 */\n  dup1\n    /* \"SCP/CSAMM.sol\":396:420  token1 = IERC20(_token1) */\n  0xffffffffffffffffffffffffffffffffffffffff\n  and\n  0xa0\n  dup2\n  0xffffffffffffffffffffffffffffffffffffffff\n  and\n  0x60\n  shl\n  dup2\n  mstore\n  pop\n  pop\n    /* \"SCP/CSAMM.sol\":306:427  constructor(address _token0, address _token1) {... */\n  pop\n  pop\n    /* \"SCP/CSAMM.sol\":81:2826  contract CSAMM {... */\n  jump(tag_6)\n    /* \"#utility.yul\":7:150   */\ntag_8:\n    /* \"#utility.yul\":64:69   */\n  0x00\n    /* \"#utility.yul\":95:101   */\n  dup2\n    /* \"#utility.yul\":89:102   */\n  mload\n    /* \"#utility.yul\":80:102   */\n  swap1\n  pop\n    /* \"#utility.yul\":111:144   */\n  tag_10\n    /* \"#utility.yul\":138:143   */\n  dup2\n    /* \"#utility.yul\":111:144   */\n  tag_11\n  jump\t// in\ntag_10:\n    /* \"#utility.yul\":7:150   */\n  swap3\n  swap2\n  pop\n  pop\n  jump\t// out\n    /* \"#utility.yul\":156:663   */\ntag_3:\n    /* \"#utility.yul\":235:241   */\n  0x00\n    /* \"#utility.yul\":243:249   */\n  dup1\n    /* \"#utility.yul\":292:294   */\n  0x40\n    /* \"#utility.yul\":280:289   */\n  dup4\n    /* \"#utility.yul\":271:278   */\n  dup6\n    /* \"#utility.yul\":267:290   */\n  sub\n    /* \"#utility.yul\":263:295   */\n  slt\n    /* \"#utility.yul\":260:379   */\n  iszero\n  tag_13\n  jumpi\n    /* \"#utility.yul\":298:377   */\n  tag_14\n  tag_15\n  jump\t// in\ntag_14:\n    /* \"#utility.yul\":260:379   */\ntag_13:\n    /* \"#utility.yul\":418:419   */\n  0x00\n    /* \"#utility.yul\":443:507   */\n  tag_16\n    /* \"#utility.yul\":499:506   */\n  dup6\n    /* \"#utility.yul\":490:496   */\n  dup3\n    /* \"#utility.yul\":479:488   */\n  dup7\n    /* \"#utility.yul\":475:497   */\n  add\n    /* \"#utility.yul\":443:507   */\n  tag_8\n  jump\t// in\ntag_16:\n    /* \"#utility.yul\":433:507   */\n  swap3\n  pop\n    /* \"#utility.yul\":389:517   */\n  pop\n    /* \"#utility.yul\":556:558   */\n  0x20\n    /* \"#utility.yul\":582:646   */\n  tag_17\n    /* \"#utility.yul\":638:645   */\n  dup6\n    /* \"#utility.yul\":629:635   */\n  dup3\n    /* \"#utility.yul\":618:627   */\n  dup7\n    /* \"#utility.yul\":614:636   */\n  add\n    /* \"#utility.yul\":582:646   */\n  tag_8\n  jump\t// in\ntag_17:\n    /* \"#utility.yul\":572:646   */\n  swap2\n  pop\n    /* \"#utility.yul\":527:656   */\n  pop\n    /* \"#utility.yul\":156:663   */\n  swap3\n  pop\n  swap3\n  swap1\n  pop\n  jump\t// out\n    /* \"#utility.yul\":750:846   */\ntag_20:\n    /* \"#utility.yul\":787:794   */\n  0x00\n    /* \"#utility.yul\":816:840   */\n  tag_22\n    /* \"#utility.yul\":834:839   */\n  dup3\n    /* \"#utility.yul\":816:840   */\n  tag_23\n  jump\t// in\ntag_22:\n    /* \"#utility.yul\":805:840   */\n  swap1\n  pop\n    /* \"#utility.yul\":750:846   */\n  swap2\n  swap1\n  pop\n  jump\t// out\n    /* \"#utility.yul\":852:978   */\ntag_23:\n    /* \"#utility.yul\":889:896   */\n  0x00\n    /* \"#utility.yul\":929:971   */\n  0xffffffffffffffffffffffffffffffffffffffff\n    /* \"#utility.yul\":922:927   */\n  dup3\n    /* \"#utility.yul\":918:972   */\n  and\n    /* \"#utility.yul\":907:972   */\n  swap1\n  pop\n    /* \"#utility.yul\":852:978   */\n  swap2\n  swap1\n  pop\n  jump\t// out\n    /* \"#utility.yul\":1107:1224   */\ntag_15:\n    /* \"#utility.yul\":1216:1217   */\n  0x00\n    /* \"#utility.yul\":1213:1214   */\n  dup1\n    /* \"#utility.yul\":1206:1218   */\n  revert\n    /* \"#utility.yul\":1230:1352   */\ntag_11:\n    /* \"#utility.yul\":1303:1327   */\n  tag_29\n    /* \"#utility.yul\":1321:1326   */\n  dup2\n    /* \"#utility.yul\":1303:1327   */\n  tag_20\n  jump\t// in\ntag_29:\n    /* \"#utility.yul\":1296:1301   */\n  dup2\n    /* \"#utility.yul\":1293:1328   */\n  eq\n    /* \"#utility.yul\":1283:1346   */\n  tag_30\n  jumpi\n    /* \"#utility.yul\":1342:1343   */\n  0x00\n    /* \"#utility.yul\":1339:1340   */\n  dup1\n    /* \"#utility.yul\":1332:1344   */\n  revert\n    /* \"#utility.yul\":1283:1346   */\ntag_30:\n    /* \"#utility.yul\":1230:1352   */\n  pop\n  jump\t// out\n    /* \"SCP/CSAMM.sol\":81:2826  contract CSAMM {... */\ntag_6:\n  shr(0x60, mload(0x80))\n  shr(0x60, mload(0xa0))\n  codecopy(0x00, dataOffset(sub_0), dataSize(sub_0))\n  0x00\n  assignImmutable(\"0xe4b1702d9298fee62dfeccc57d322a463ad55ca201256d01f62b45b2e1c21c10\")\n  0x00\n  assignImmutable(\"0xceebf77a833b30520287ddd9478ff51abbdffa30aa90a8d655dba0e8a79ce0c1\")\n  return(0x00, dataSize(sub_0))\nstop\n\nsub_0: assembly {\n        /* \"SCP/CSAMM.sol\":81:2826  contract CSAMM {... */\n      mstore(0x40, 0x80)\n      jumpi(tag_1, lt(calldatasize, 0x04))\n      shr(0xe0, calldataload(0x00))\n      dup1\n      0x70a08231\n      gt\n      tag_11\n      jumpi\n      dup1\n      0x70a08231\n      eq\n      tag_6\n      jumpi\n      dup1\n      0x9c8f9f23\n      eq\n      tag_7\n      jumpi\n      dup1\n      0x9cd441da\n      eq\n      tag_8\n      jumpi\n      dup1\n      0xd004f0f7\n      eq\n      tag_9\n      jumpi\n      dup1\n      0xd21220a7\n      eq\n      tag_10\n      jumpi\n      jump(tag_1)\n    tag_11:\n      dup1\n      0x0dfe1681\n      eq\n      tag_2\n      jumpi\n      dup1\n      0x18160ddd\n      eq\n      tag_3\n      jumpi\n      dup1\n      0x443cb4bc\n      eq\n      tag_4\n      jumpi\n      dup1\n      0x5a76f25e\n      eq\n      tag_5\n      jumpi\n    tag_1:\n      0x00\n      dup1\n      revert\n        /* \"SCP/CSAMM.sol\":102:132  IERC20 public immutable token0 */\n    tag_2:\n      callvalue\n      dup1\n      iszero\n      tag_12\n      jumpi\n      0x00\n      dup1\n      revert\n    tag_12:\n      pop\n      tag_13\n      tag_14\n      jump\t// in\n    tag_13:\n      mload(0x40)\n      tag_15\n      swap2\n      swap1\n      tag_16\n      jump\t// in\n    tag_15:\n      mload(0x40)\n      dup1\n      swap2\n      sub\n      swap1\n      return\n        /* \"SCP/CSAMM.sol\":229:252  uint public totalSupply */\n    tag_3:\n      callvalue\n      dup1\n      iszero\n      tag_17\n      jumpi\n      0x00\n      dup1\n      revert\n    tag_17:\n      pop\n      tag_18\n      tag_19\n      jump\t// in\n    tag_18:\n      mload(0x40)\n      tag_20\n      swap2\n      swap1\n      tag_21\n      jump\t// in\n    tag_20:\n      mload(0x40)\n      dup1\n      swap2\n      sub\n      swap1\n      return\n        /* \"SCP/CSAMM.sol\":175:195  uint public reserve0 */\n    tag_4:\n      callvalue\n      dup1\n      iszero\n      tag_22\n      jumpi\n      0x00\n      dup1\n      revert\n    tag_22:\n      pop\n      tag_23\n      tag_24\n      jump\t// in\n    tag_23:\n      mload(0x40)\n      tag_25\n      swap2\n      swap1\n      tag_21\n      jump\t// in\n    tag_25:\n      mload(0x40)\n      dup1\n      swap2\n      sub\n      swap1\n      return\n        /* \"SCP/CSAMM.sol\":201:221  uint public reserve1 */\n    tag_5:\n      callvalue\n      dup1\n      iszero\n      tag_26\n      jumpi\n      0x00\n      dup1\n      revert\n    tag_26:\n      pop\n      tag_27\n      tag_28\n      jump\t// in\n    tag_27:\n      mload(0x40)\n      tag_29\n      swap2\n      swap1\n      tag_21\n      jump\t// in\n    tag_29:\n      mload(0x40)\n      dup1\n      swap2\n      sub\n      swap1\n      return\n        /* \"SCP/CSAMM.sol\":258:299  mapping(address => uint) public balanceOf */\n    tag_6:\n      callvalue\n      dup1\n      iszero\n      tag_30\n      jumpi\n      0x00\n      dup1\n      revert\n    tag_30:\n      pop\n      tag_31\n      0x04\n      dup1\n      calldatasize\n      sub\n      dup2\n      add\n      swap1\n      tag_32\n      swap2\n      swap1\n      tag_33\n      jump\t// in\n    tag_32:\n      tag_34\n      jump\t// in\n    tag_31:\n      mload(0x40)\n      tag_35\n      swap2\n      swap1\n      tag_21\n      jump\t// in\n    tag_35:\n      mload(0x40)\n      dup1\n      swap2\n      sub\n      swap1\n      return\n        /* \"SCP/CSAMM.sol\":2404:2824  function removeLiquidity(uint _shares) external returns (uint d0, uint d1) {... */\n    tag_7:\n      callvalue\n      dup1\n      iszero\n      tag_36\n      jumpi\n      0x00\n      dup1\n      revert\n    tag_36:\n      pop\n      tag_37\n      0x04\n      dup1\n      calldatasize\n      sub\n      dup2\n      add\n      swap1\n      tag_38\n      swap2\n      swap1\n      tag_39\n      jump\t// in\n    tag_38:\n      tag_40\n      jump\t// in\n    tag_37:\n      mload(0x40)\n      tag_41\n      swap3\n      swap2\n      swap1\n      tag_42\n      jump\t// in\n    tag_41:\n      mload(0x40)\n      dup1\n      swap2\n      sub\n      swap1\n      return\n        /* \"SCP/CSAMM.sol\":1768:2399  function addLiquidity(uint _amount0, uint _amount1) external returns (uint shares){... */\n    tag_8:\n      callvalue\n      dup1\n      iszero\n      tag_43\n      jumpi\n      0x00\n      dup1\n      revert\n    tag_43:\n      pop\n      tag_44\n      0x04\n      dup1\n      calldatasize\n      sub\n      dup2\n      add\n      swap1\n      tag_45\n      swap2\n      swap1\n      tag_46\n      jump\t// in\n    tag_45:\n      tag_47\n      jump\t// in\n    tag_44:\n      mload(0x40)\n      tag_48\n      swap2\n      swap1\n      tag_21\n      jump\t// in\n    tag_48:\n      mload(0x40)\n      dup1\n      swap2\n      sub\n      swap1\n      return\n        /* \"SCP/CSAMM.sol\":812:1763  function swap(address _tokenIn, uint _amountIn)payable external returns... */\n    tag_9:\n      tag_49\n      0x04\n      dup1\n      calldatasize\n      sub\n      dup2\n      add\n      swap1\n      tag_50\n      swap2\n      swap1\n      tag_51\n      jump\t// in\n    tag_50:\n      tag_52\n      jump\t// in\n    tag_49:\n      mload(0x40)\n      tag_53\n      swap2\n      swap1\n      tag_21\n      jump\t// in\n    tag_53:\n      mload(0x40)\n      dup1\n      swap2\n      sub\n      swap1\n      return\n        /* \"SCP/CSAMM.sol\":138:168  IERC20 public immutable token1 */\n    tag_10:\n      callvalue\n      dup1\n      iszero\n      tag_54\n      jumpi\n      0x00\n      dup1\n      revert\n    tag_54:\n      pop\n      tag_55\n      tag_56\n      jump\t// in\n    tag_55:\n      mload(0x40)\n      tag_57\n      swap2\n      swap1\n      tag_16\n      jump\t// in\n    tag_57:\n      mload(0x40)\n      dup1\n      swap2\n      sub\n      swap1\n      return\n        /* \"SCP/CSAMM.sol\":102:132  IERC20 public immutable token0 */\n    tag_14:\n      immutable(\"0xceebf77a833b30520287ddd9478ff51abbdffa30aa90a8d655dba0e8a79ce0c1\")\n      dup2\n      jump\t// out\n        /* \"SCP/CSAMM.sol\":229:252  uint public totalSupply */\n    tag_19:\n      sload(0x02)\n      dup2\n      jump\t// out\n        /* \"SCP/CSAMM.sol\":175:195  uint public reserve0 */\n    tag_24:\n      sload(0x00)\n      dup2\n      jump\t// out\n        /* \"SCP/CSAMM.sol\":201:221  uint public reserve1 */\n    tag_28:\n      sload(0x01)\n      dup2\n      jump\t// out\n        /* \"SCP/CSAMM.sol\":258:299  mapping(address => uint) public balanceOf */\n    tag_34:\n      mstore(0x20, 0x03)\n      dup1\n      0x00\n      mstore\n      keccak256(0x00, 0x40)\n      0x00\n      swap2\n      pop\n      swap1\n      pop\n      sload\n      dup2\n      jump\t// out\n        /* \"SCP/CSAMM.sol\":2404:2824  function removeLiquidity(uint _shares) external returns (uint d0, uint d1) {... */\n    tag_40:\n        /* \"SCP/CSAMM.sol\":2461:2468  uint d0 */\n      0x00\n        /* \"SCP/CSAMM.sol\":2470:2477  uint d1 */\n      dup1\n        /* \"SCP/CSAMM.sol\":2517:2528  totalSupply */\n      sload(0x02)\n        /* \"SCP/CSAMM.sol\":2506:2513  _shares */\n      dup4\n        /* \"SCP/CSAMM.sol\":2495:2503  reserve0 */\n      sload(0x00)\n        /* \"SCP/CSAMM.sol\":2495:2513  reserve0 * _shares */\n      tag_59\n      swap2\n      swap1\n      tag_60\n      jump\t// in\n    tag_59:\n        /* \"SCP/CSAMM.sol\":2494:2528  (reserve0 * _shares) / totalSupply */\n      tag_61\n      swap2\n      swap1\n      tag_62\n      jump\t// in\n    tag_61:\n        /* \"SCP/CSAMM.sol\":2489:2528  d0 = (reserve0 * _shares) / totalSupply */\n      swap2\n      pop\n        /* \"SCP/CSAMM.sol\":2567:2578  totalSupply */\n      sload(0x02)\n        /* \"SCP/CSAMM.sol\":2555:2562  _shares */\n      dup4\n        /* \"SCP/CSAMM.sol\":2544:2552  reserve1 */\n      sload(0x01)\n        /* \"SCP/CSAMM.sol\":2544:2562  reserve1 * _shares */\n      tag_63\n      swap2\n      swap1\n      tag_60\n      jump\t// in\n    tag_63:\n        /* \"SCP/CSAMM.sol\":2543:2578  (reserve1 * _shares)  / totalSupply */\n      tag_64\n      swap2\n      swap1\n      tag_62\n      jump\t// in\n    tag_64:\n        /* \"SCP/CSAMM.sol\":2538:2578  d1 = (reserve1 * _shares)  / totalSupply */\n      swap1\n      pop\n        /* \"SCP/CSAMM.sol\":2589:2615  _burn(msg.sender, _shares) */\n      tag_65\n        /* \"SCP/CSAMM.sol\":2595:2605  msg.sender */\n      caller\n        /* \"SCP/CSAMM.sol\":2607:2614  _shares */\n      dup5\n        /* \"SCP/CSAMM.sol\":2589:2594  _burn */\n      tag_66\n        /* \"SCP/CSAMM.sol\":2589:2615  _burn(msg.sender, _shares) */\n      jump\t// in\n    tag_65:\n        /* \"SCP/CSAMM.sol\":2625:2662  _update(reserve0 - d0, reserve1 - d1) */\n      tag_67\n        /* \"SCP/CSAMM.sol\":2644:2646  d0 */\n      dup3\n        /* \"SCP/CSAMM.sol\":2633:2641  reserve0 */\n      sload(0x00)\n        /* \"SCP/CSAMM.sol\":2633:2646  reserve0 - d0 */\n      tag_68\n      swap2\n      swap1\n      tag_69\n      jump\t// in\n    tag_68:\n        /* \"SCP/CSAMM.sol\":2659:2661  d1 */\n      dup3\n        /* \"SCP/CSAMM.sol\":2648:2656  reserve1 */\n      sload(0x01)\n        /* \"SCP/CSAMM.sol\":2648:2661  reserve1 - d1 */\n      tag_70\n      swap2\n      swap1\n      tag_69\n      jump\t// in\n    tag_70:\n        /* \"SCP/CSAMM.sol\":2625:2632  _update */\n      tag_71\n        /* \"SCP/CSAMM.sol\":2625:2662  _update(reserve0 - d0, reserve1 - d1) */\n      jump\t// in\n    tag_67:\n        /* \"SCP/CSAMM.sol\":2681:2682  0 */\n      0x00\n        /* \"SCP/CSAMM.sol\":2677:2679  d0 */\n      dup3\n        /* \"SCP/CSAMM.sol\":2677:2682  d0 >0 */\n      gt\n        /* \"SCP/CSAMM.sol\":2673:2741  if (d0 >0 ) {... */\n      iszero\n      tag_72\n      jumpi\n        /* \"SCP/CSAMM.sol\":2699:2705  token0 */\n      immutable(\"0xceebf77a833b30520287ddd9478ff51abbdffa30aa90a8d655dba0e8a79ce0c1\")\n        /* \"SCP/CSAMM.sol\":2699:2714  token0.transfer */\n      0xffffffffffffffffffffffffffffffffffffffff\n      and\n      0xa9059cbb\n        /* \"SCP/CSAMM.sol\":2715:2725  msg.sender */\n      caller\n        /* \"SCP/CSAMM.sol\":2727:2729  d0 */\n      dup5\n        /* \"SCP/CSAMM.sol\":2699:2730  token0.transfer(msg.sender, d0) */\n      mload(0x40)\n      dup4\n      0xffffffff\n      and\n      0xe0\n      shl\n      dup2\n      mstore\n      0x04\n      add\n      tag_73\n      swap3\n      swap2\n      swap1\n      tag_74\n      jump\t// in\n    tag_73:\n      0x20\n      mload(0x40)\n      dup1\n      dup4\n      sub\n      dup2\n      0x00\n      dup8\n      dup1\n      extcodesize\n      iszero\n      dup1\n      iszero\n      tag_75\n      jumpi\n      0x00\n      dup1\n      revert\n    tag_75:\n      pop\n      gas\n      call\n      iszero\n      dup1\n      iszero\n      tag_77\n      jumpi\n      returndatasize\n      0x00\n      dup1\n      returndatacopy\n      revert(0x00, returndatasize)\n    tag_77:\n      pop\n      pop\n      pop\n      pop\n      mload(0x40)\n      returndatasize\n      not(0x1f)\n      0x1f\n      dup3\n      add\n      and\n      dup3\n      add\n      dup1\n      0x40\n      mstore\n      pop\n      dup2\n      add\n      swap1\n      tag_78\n      swap2\n      swap1\n      tag_79\n      jump\t// in\n    tag_78:\n      pop\n        /* \"SCP/CSAMM.sol\":2673:2741  if (d0 >0 ) {... */\n    tag_72:\n        /* \"SCP/CSAMM.sol\":2758:2759  0 */\n      0x00\n        /* \"SCP/CSAMM.sol\":2754:2756  d1 */\n      dup2\n        /* \"SCP/CSAMM.sol\":2754:2759  d1 >0 */\n      gt\n        /* \"SCP/CSAMM.sol\":2750:2818  if (d1 >0 ) {... */\n      iszero\n      tag_80\n      jumpi\n        /* \"SCP/CSAMM.sol\":2776:2782  token1 */\n      immutable(\"0xe4b1702d9298fee62dfeccc57d322a463ad55ca201256d01f62b45b2e1c21c10\")\n        /* \"SCP/CSAMM.sol\":2776:2791  token1.transfer */\n      0xffffffffffffffffffffffffffffffffffffffff\n      and\n      0xa9059cbb\n        /* \"SCP/CSAMM.sol\":2792:2802  msg.sender */\n      caller\n        /* \"SCP/CSAMM.sol\":2804:2806  d1 */\n      dup4\n        /* \"SCP/CSAMM.sol\":2776:2807  token1.transfer(msg.sender, d1) */\n      mload(0x40)\n      dup4\n      0xffffffff\n      and\n      0xe0\n      shl\n      dup2\n      mstore\n      0x04\n      add\n      tag_81\n      swap3\n      swap2\n      swap1\n      tag_74\n      jump\t// in\n    tag_81:\n      0x20\n      mload(0x40)\n      dup1\n      dup4\n      sub\n      dup2\n      0x00\n      dup8\n      dup1\n      extcodesize\n      iszero\n      dup1\n      iszero\n      tag_82\n      jumpi\n      0x00\n      dup1\n      revert\n    tag_82:\n      pop\n      gas\n      call\n      iszero\n      dup1\n      iszero\n      tag_84\n      jumpi\n      returndatasize\n      0x00\n      dup1\n      returndatacopy\n      revert(0x00, returndatasize)\n    tag_84:\n      pop\n      pop\n      pop\n      pop\n      mload(0x40)\n      returndatasize\n      not(0x1f)\n      0x1f\n      dup3\n      add\n      and\n      dup3\n      add\n      dup1\n      0x40\n      mstore\n      pop\n      dup2\n      add\n      swap1\n      tag_85\n      swap2\n      swap1\n      tag_79\n      jump\t// in\n    tag_85:\n      pop\n        /* \"SCP/CSAMM.sol\":2750:2818  if (d1 >0 ) {... */\n    tag_80:\n        /* \"SCP/CSAMM.sol\":2404:2824  function removeLiquidity(uint _shares) external returns (uint d0, uint d1) {... */\n      swap2\n      pop\n      swap2\n      jump\t// out\n        /* \"SCP/CSAMM.sol\":1768:2399  function addLiquidity(uint _amount0, uint _amount1) external returns (uint shares){... */\n    tag_47:\n        /* \"SCP/CSAMM.sol\":1838:1849  uint shares */\n      0x00\n        /* \"SCP/CSAMM.sol\":1860:1866  token0 */\n      immutable(\"0xceebf77a833b30520287ddd9478ff51abbdffa30aa90a8d655dba0e8a79ce0c1\")\n        /* \"SCP/CSAMM.sol\":1860:1879  token0.transferFrom */\n      0xffffffffffffffffffffffffffffffffffffffff\n      and\n      0x23b872dd\n        /* \"SCP/CSAMM.sol\":1880:1890  msg.sender */\n      caller\n        /* \"SCP/CSAMM.sol\":1900:1904  this */\n      address\n        /* \"SCP/CSAMM.sol\":1907:1915  _amount0 */\n      dup7\n        /* \"SCP/CSAMM.sol\":1860:1916  token0.transferFrom(msg.sender, address(this), _amount0) */\n      mload(0x40)\n      dup5\n      0xffffffff\n      and\n      0xe0\n      shl\n      dup2\n      mstore\n      0x04\n      add\n      tag_87\n      swap4\n      swap3\n      swap2\n      swap1\n      tag_88\n      jump\t// in\n    tag_87:\n      0x20\n      mload(0x40)\n      dup1\n      dup4\n      sub\n      dup2\n      0x00\n      dup8\n      dup1\n      extcodesize\n      iszero\n      dup1\n      iszero\n      tag_89\n      jumpi\n      0x00\n      dup1\n      revert\n    tag_89:\n      pop\n      gas\n      call\n      iszero\n      dup1\n      iszero\n      tag_91\n      jumpi\n      returndatasize\n      0x00\n      dup1\n      returndatacopy\n      revert(0x00, returndatasize)\n    tag_91:\n      pop\n      pop\n      pop\n      pop\n      mload(0x40)\n      returndatasize\n      not(0x1f)\n      0x1f\n      dup3\n      add\n      and\n      dup3\n      add\n      dup1\n      0x40\n      mstore\n      pop\n      dup2\n      add\n      swap1\n      tag_92\n      swap2\n      swap1\n      tag_79\n      jump\t// in\n    tag_92:\n      pop\n        /* \"SCP/CSAMM.sol\":1926:1932  token1 */\n      immutable(\"0xe4b1702d9298fee62dfeccc57d322a463ad55ca201256d01f62b45b2e1c21c10\")\n        /* \"SCP/CSAMM.sol\":1926:1945  token1.transferFrom */\n      0xffffffffffffffffffffffffffffffffffffffff\n      and\n      0x23b872dd\n        /* \"SCP/CSAMM.sol\":1946:1956  msg.sender */\n      caller\n        /* \"SCP/CSAMM.sol\":1966:1970  this */\n      address\n        /* \"SCP/CSAMM.sol\":1973:1981  _amount1 */\n      dup6\n        /* \"SCP/CSAMM.sol\":1926:1982  token1.transferFrom(msg.sender, address(this), _amount1) */\n      mload(0x40)\n      dup5\n      0xffffffff\n      and\n      0xe0\n      shl\n      dup2\n      mstore\n      0x04\n      add\n      tag_93\n      swap4\n      swap3\n      swap2\n      swap1\n      tag_88\n      jump\t// in\n    tag_93:\n      0x20\n      mload(0x40)\n      dup1\n      dup4\n      sub\n      dup2\n      0x00\n      dup8\n      dup1\n      extcodesize\n      iszero\n      dup1\n      iszero\n      tag_94\n      jumpi\n      0x00\n      dup1\n      revert\n    tag_94:\n      pop\n      gas\n      call\n      iszero\n      dup1\n      iszero\n      tag_96\n      jumpi\n      returndatasize\n      0x00\n      dup1\n      returndatacopy\n      revert(0x00, returndatasize)\n    tag_96:\n      pop\n      pop\n      pop\n      pop\n      mload(0x40)\n      returndatasize\n      not(0x1f)\n      0x1f\n      dup3\n      add\n      and\n      dup3\n      add\n      dup1\n      0x40\n      mstore\n      pop\n      dup2\n      add\n      swap1\n      tag_97\n      swap2\n      swap1\n      tag_79\n      jump\t// in\n    tag_97:\n      pop\n        /* \"SCP/CSAMM.sol\":1993:2002  uint bal0 */\n      0x00\n        /* \"SCP/CSAMM.sol\":2005:2011  token0 */\n      immutable(\"0xceebf77a833b30520287ddd9478ff51abbdffa30aa90a8d655dba0e8a79ce0c1\")\n        /* \"SCP/CSAMM.sol\":2005:2021  token0.balanceOf */\n      0xffffffffffffffffffffffffffffffffffffffff\n      and\n      0x70a08231\n        /* \"SCP/CSAMM.sol\":2030:2034  this */\n      address\n        /* \"SCP/CSAMM.sol\":2005:2036  token0.balanceOf(address(this)) */\n      mload(0x40)\n      dup3\n      0xffffffff\n      and\n      0xe0\n      shl\n      dup2\n      mstore\n      0x04\n      add\n      tag_98\n      swap2\n      swap1\n      tag_99\n      jump\t// in\n    tag_98:\n      0x20\n      mload(0x40)\n      dup1\n      dup4\n      sub\n      dup2\n      dup7\n      dup1\n      extcodesize\n      iszero\n      dup1\n      iszero\n      tag_100\n      jumpi\n      0x00\n      dup1\n      revert\n    tag_100:\n      pop\n      gas\n      staticcall\n      iszero\n      dup1\n      iszero\n      tag_102\n      jumpi\n      returndatasize\n      0x00\n      dup1\n      returndatacopy\n      revert(0x00, returndatasize)\n    tag_102:\n      pop\n      pop\n      pop\n      pop\n      mload(0x40)\n      returndatasize\n      not(0x1f)\n      0x1f\n      dup3\n      add\n      and\n      dup3\n      add\n      dup1\n      0x40\n      mstore\n      pop\n      dup2\n      add\n      swap1\n      tag_103\n      swap2\n      swap1\n      tag_104\n      jump\t// in\n    tag_103:\n        /* \"SCP/CSAMM.sol\":1993:2036  uint bal0 = token0.balanceOf(address(this)) */\n      swap1\n      pop\n        /* \"SCP/CSAMM.sol\":2046:2055  uint bal1 */\n      0x00\n        /* \"SCP/CSAMM.sol\":2058:2064  token1 */\n      immutable(\"0xe4b1702d9298fee62dfeccc57d322a463ad55ca201256d01f62b45b2e1c21c10\")\n        /* \"SCP/CSAMM.sol\":2058:2074  token1.balanceOf */\n      0xffffffffffffffffffffffffffffffffffffffff\n      and\n      0x70a08231\n        /* \"SCP/CSAMM.sol\":2083:2087  this */\n      address\n        /* \"SCP/CSAMM.sol\":2058:2089  token1.balanceOf(address(this)) */\n      mload(0x40)\n      dup3\n      0xffffffff\n      and\n      0xe0\n      shl\n      dup2\n      mstore\n      0x04\n      add\n      tag_105\n      swap2\n      swap1\n      tag_99\n      jump\t// in\n    tag_105:\n      0x20\n      mload(0x40)\n      dup1\n      dup4\n      sub\n      dup2\n      dup7\n      dup1\n      extcodesize\n      iszero\n      dup1\n      iszero\n      tag_106\n      jumpi\n      0x00\n      dup1\n      revert\n    tag_106:\n      pop\n      gas\n      staticcall\n      iszero\n      dup1\n      iszero\n      tag_108\n      jumpi\n      returndatasize\n      0x00\n      dup1\n      returndatacopy\n      revert(0x00, returndatasize)\n    tag_108:\n      pop\n      pop\n      pop\n      pop\n      mload(0x40)\n      returndatasize\n      not(0x1f)\n      0x1f\n      dup3\n      add\n      and\n      dup3\n      add\n      dup1\n      0x40\n      mstore\n      pop\n      dup2\n      add\n      swap1\n      tag_109\n      swap2\n      swap1\n      tag_104\n      jump\t// in\n    tag_109:\n        /* \"SCP/CSAMM.sol\":2046:2089  uint bal1 = token1.balanceOf(address(this)) */\n      swap1\n      pop\n        /* \"SCP/CSAMM.sol\":2100:2107  uint d0 */\n      0x00\n        /* \"SCP/CSAMM.sol\":2117:2125  reserve0 */\n      dup1\n      sload\n        /* \"SCP/CSAMM.sol\":2110:2114  bal0 */\n      dup4\n        /* \"SCP/CSAMM.sol\":2110:2125  bal0 - reserve0 */\n      tag_110\n      swap2\n      swap1\n      tag_69\n      jump\t// in\n    tag_110:\n        /* \"SCP/CSAMM.sol\":2100:2125  uint d0 = bal0 - reserve0 */\n      swap1\n      pop\n        /* \"SCP/CSAMM.sol\":2135:2142  uint d1 */\n      0x00\n        /* \"SCP/CSAMM.sol\":2152:2160  reserve1 */\n      sload(0x01)\n        /* \"SCP/CSAMM.sol\":2145:2149  bal1 */\n      dup4\n        /* \"SCP/CSAMM.sol\":2145:2160  bal1 - reserve1 */\n      tag_111\n      swap2\n      swap1\n      tag_69\n      jump\t// in\n    tag_111:\n        /* \"SCP/CSAMM.sol\":2135:2160  uint d1 = bal1 - reserve1 */\n      swap1\n      pop\n        /* \"SCP/CSAMM.sol\":2189:2190  0 */\n      0x00\n        /* \"SCP/CSAMM.sol\":2174:2185  totalSupply */\n      sload(0x02)\n        /* \"SCP/CSAMM.sol\":2174:2190  totalSupply == 0 */\n      eq\n        /* \"SCP/CSAMM.sol\":2171:2320  if(totalSupply == 0) {... */\n      iszero\n      tag_112\n      jumpi\n        /* \"SCP/CSAMM.sol\":2220:2222  d1 */\n      dup1\n        /* \"SCP/CSAMM.sol\":2215:2217  d0 */\n      dup3\n        /* \"SCP/CSAMM.sol\":2215:2222  d0 + d1 */\n      tag_113\n      swap2\n      swap1\n      tag_114\n      jump\t// in\n    tag_113:\n        /* \"SCP/CSAMM.sol\":2206:2222  shares = d0 + d1 */\n      swap5\n      pop\n        /* \"SCP/CSAMM.sol\":2171:2320  if(totalSupply == 0) {... */\n      jump(tag_115)\n    tag_112:\n        /* \"SCP/CSAMM.sol\":2299:2307  reserve0 */\n      sload(0x00)\n        /* \"SCP/CSAMM.sol\":2288:2296  reserve1 */\n      sload(0x01)\n        /* \"SCP/CSAMM.sol\":2288:2307  reserve1 + reserve0 */\n      tag_116\n      swap2\n      swap1\n      tag_114\n      jump\t// in\n    tag_116:\n        /* \"SCP/CSAMM.sol\":2274:2285  totalSupply */\n      sload(0x02)\n        /* \"SCP/CSAMM.sol\":2269:2271  d1 */\n      dup3\n        /* \"SCP/CSAMM.sol\":2264:2266  d0 */\n      dup5\n        /* \"SCP/CSAMM.sol\":2264:2271  d0 + d1 */\n      tag_117\n      swap2\n      swap1\n      tag_114\n      jump\t// in\n    tag_117:\n        /* \"SCP/CSAMM.sol\":2263:2285  (d0 + d1)* totalSupply */\n      tag_118\n      swap2\n      swap1\n      tag_60\n      jump\t// in\n    tag_118:\n        /* \"SCP/CSAMM.sol\":2263:2308  (d0 + d1)* totalSupply/ (reserve1 + reserve0) */\n      tag_119\n      swap2\n      swap1\n      tag_62\n      jump\t// in\n    tag_119:\n        /* \"SCP/CSAMM.sol\":2253:2309  shares = ((d0 + d1)* totalSupply/ (reserve1 + reserve0)) */\n      swap5\n      pop\n        /* \"SCP/CSAMM.sol\":2171:2320  if(totalSupply == 0) {... */\n    tag_115:\n        /* \"SCP/CSAMM.sol\":2347:2348  0 */\n      0x00\n        /* \"SCP/CSAMM.sol\":2338:2344  shares */\n      dup6\n        /* \"SCP/CSAMM.sol\":2338:2348  shares > 0 */\n      gt\n        /* \"SCP/CSAMM.sol\":2330:2363  require(shares > 0, \"shares = 0\") */\n      tag_120\n      jumpi\n      mload(0x40)\n      0x08c379a000000000000000000000000000000000000000000000000000000000\n      dup2\n      mstore\n      0x04\n      add\n      tag_121\n      swap1\n      tag_122\n      jump\t// in\n    tag_121:\n      mload(0x40)\n      dup1\n      swap2\n      sub\n      swap1\n      revert\n    tag_120:\n        /* \"SCP/CSAMM.sol\":2373:2392  _update(bal0, bal1) */\n      tag_123\n        /* \"SCP/CSAMM.sol\":2381:2385  bal0 */\n      dup5\n        /* \"SCP/CSAMM.sol\":2387:2391  bal1 */\n      dup5\n        /* \"SCP/CSAMM.sol\":2373:2380  _update */\n      tag_71\n        /* \"SCP/CSAMM.sol\":2373:2392  _update(bal0, bal1) */\n      jump\t// in\n    tag_123:\n        /* \"SCP/CSAMM.sol\":1850:2399  {... */\n      pop\n      pop\n      pop\n      pop\n        /* \"SCP/CSAMM.sol\":1768:2399  function addLiquidity(uint _amount0, uint _amount1) external returns (uint shares){... */\n      swap3\n      swap2\n      pop\n      pop\n      jump\t// out\n        /* \"SCP/CSAMM.sol\":812:1763  function swap(address _tokenIn, uint _amountIn)payable external returns... */\n    tag_52:\n        /* \"SCP/CSAMM.sol\":889:903  uint amountOut */\n      0x00\n        /* \"SCP/CSAMM.sol\":943:949  token0 */\n      immutable(\"0xceebf77a833b30520287ddd9478ff51abbdffa30aa90a8d655dba0e8a79ce0c1\")\n        /* \"SCP/CSAMM.sol\":923:950  _tokenIn == address(token0) */\n      0xffffffffffffffffffffffffffffffffffffffff\n      and\n        /* \"SCP/CSAMM.sol\":923:931  _tokenIn */\n      dup4\n        /* \"SCP/CSAMM.sol\":923:950  _tokenIn == address(token0) */\n      0xffffffffffffffffffffffffffffffffffffffff\n      and\n      eq\n        /* \"SCP/CSAMM.sol\":923:980  _tokenIn == address(token0)|| _tokenIn == address(token1) */\n      dup1\n      tag_125\n      jumpi\n      pop\n        /* \"SCP/CSAMM.sol\":973:979  token1 */\n      immutable(\"0xe4b1702d9298fee62dfeccc57d322a463ad55ca201256d01f62b45b2e1c21c10\")\n        /* \"SCP/CSAMM.sol\":953:980  _tokenIn == address(token1) */\n      0xffffffffffffffffffffffffffffffffffffffff\n      and\n        /* \"SCP/CSAMM.sol\":953:961  _tokenIn */\n      dup4\n        /* \"SCP/CSAMM.sol\":953:980  _tokenIn == address(token1) */\n      0xffffffffffffffffffffffffffffffffffffffff\n      and\n      eq\n        /* \"SCP/CSAMM.sol\":923:980  _tokenIn == address(token0)|| _tokenIn == address(token1) */\n    tag_125:\n        /* \"SCP/CSAMM.sol\":915:997  require(_tokenIn == address(token0)|| _tokenIn == address(token1),\"invalid token\") */\n      tag_126\n      jumpi\n      mload(0x40)\n      0x08c379a000000000000000000000000000000000000000000000000000000000\n      dup2\n      mstore\n      0x04\n      add\n      tag_127\n      swap1\n      tag_128\n      jump\t// in\n    tag_127:\n      mload(0x40)\n      dup1\n      swap2\n      sub\n      swap1\n      revert\n    tag_126:\n        /* \"SCP/CSAMM.sol\":1009:1022  bool isToken0 */\n      0x00\n        /* \"SCP/CSAMM.sol\":1045:1051  token0 */\n      immutable(\"0xceebf77a833b30520287ddd9478ff51abbdffa30aa90a8d655dba0e8a79ce0c1\")\n        /* \"SCP/CSAMM.sol\":1025:1052  _tokenIn == address(token0) */\n      0xffffffffffffffffffffffffffffffffffffffff\n      and\n        /* \"SCP/CSAMM.sol\":1025:1033  _tokenIn */\n      dup5\n        /* \"SCP/CSAMM.sol\":1025:1052  _tokenIn == address(token0) */\n      0xffffffffffffffffffffffffffffffffffffffff\n      and\n      eq\n        /* \"SCP/CSAMM.sol\":1009:1052  bool isToken0 = _tokenIn == address(token0) */\n      swap1\n      pop\n        /* \"SCP/CSAMM.sol\":1059:1073  IERC20 tokenIn */\n      0x00\n        /* \"SCP/CSAMM.sol\":1075:1090  IERC20 tokenOut */\n      dup1\n        /* \"SCP/CSAMM.sol\":1092:1102  uint resIn */\n      0x00\n        /* \"SCP/CSAMM.sol\":1104:1115  uint resOut */\n      dup1\n        /* \"SCP/CSAMM.sol\":1119:1127  isToken0 */\n      dup5\n        /* \"SCP/CSAMM.sol\":1119:1206  isToken0 ? (token0 , token1, reserve0, reserve1) : (token1, token0, reserve1, reserve0) */\n      tag_129\n      jumpi\n        /* \"SCP/CSAMM.sol\":1171:1177  token1 */\n      immutable(\"0xe4b1702d9298fee62dfeccc57d322a463ad55ca201256d01f62b45b2e1c21c10\")\n        /* \"SCP/CSAMM.sol\":1179:1185  token0 */\n      immutable(\"0xceebf77a833b30520287ddd9478ff51abbdffa30aa90a8d655dba0e8a79ce0c1\")\n        /* \"SCP/CSAMM.sol\":1187:1195  reserve1 */\n      sload(0x01)\n        /* \"SCP/CSAMM.sol\":1197:1205  reserve0 */\n      sload(0x00)\n        /* \"SCP/CSAMM.sol\":1119:1206  isToken0 ? (token0 , token1, reserve0, reserve1) : (token1, token0, reserve1, reserve0) */\n      jump(tag_130)\n    tag_129:\n        /* \"SCP/CSAMM.sol\":1131:1137  token0 */\n      immutable(\"0xceebf77a833b30520287ddd9478ff51abbdffa30aa90a8d655dba0e8a79ce0c1\")\n        /* \"SCP/CSAMM.sol\":1140:1146  token1 */\n      immutable(\"0xe4b1702d9298fee62dfeccc57d322a463ad55ca201256d01f62b45b2e1c21c10\")\n        /* \"SCP/CSAMM.sol\":1148:1156  reserve0 */\n      sload(0x00)\n        /* \"SCP/CSAMM.sol\":1158:1166  reserve1 */\n      sload(0x01)\n        /* \"SCP/CSAMM.sol\":1119:1206  isToken0 ? (token0 , token1, reserve0, reserve1) : (token1, token0, reserve1, reserve0) */\n    tag_130:\n        /* \"SCP/CSAMM.sol\":1058:1206  (IERC20 tokenIn, IERC20 tokenOut, uint resIn, uint resOut) = isToken0 ? (token0 , token1, reserve0, reserve1) : (token1, token0, reserve1, reserve0) */\n      swap4\n      pop\n      swap4\n      pop\n      swap4\n      pop\n      swap4\n      pop\n        /* \"SCP/CSAMM.sol\":1247:1254  tokenIn */\n      dup4\n        /* \"SCP/CSAMM.sol\":1247:1267  tokenIn.transferFrom */\n      0xffffffffffffffffffffffffffffffffffffffff\n      and\n      0x23b872dd\n        /* \"SCP/CSAMM.sol\":1268:1278  msg.sender */\n      caller\n        /* \"SCP/CSAMM.sol\":1288:1292  this */\n      address\n        /* \"SCP/CSAMM.sol\":1295:1300  resIn */\n      dup6\n        /* \"SCP/CSAMM.sol\":1247:1301  tokenIn.transferFrom(msg.sender, address(this), resIn) */\n      mload(0x40)\n      dup5\n      0xffffffff\n      and\n      0xe0\n      shl\n      dup2\n      mstore\n      0x04\n      add\n      tag_131\n      swap4\n      swap3\n      swap2\n      swap1\n      tag_88\n      jump\t// in\n    tag_131:\n      0x20\n      mload(0x40)\n      dup1\n      dup4\n      sub\n      dup2\n      0x00\n      dup8\n      dup1\n      extcodesize\n      iszero\n      dup1\n      iszero\n      tag_132\n      jumpi\n      0x00\n      dup1\n      revert\n    tag_132:\n      pop\n      gas\n      call\n      iszero\n      dup1\n      iszero\n      tag_134\n      jumpi\n      returndatasize\n      0x00\n      dup1\n      returndatacopy\n      revert(0x00, returndatasize)\n    tag_134:\n      pop\n      pop\n      pop\n      pop\n      mload(0x40)\n      returndatasize\n      not(0x1f)\n      0x1f\n      dup3\n      add\n      and\n      dup3\n      add\n      dup1\n      0x40\n      mstore\n      pop\n      dup2\n      add\n      swap1\n      tag_135\n      swap2\n      swap1\n      tag_79\n      jump\t// in\n    tag_135:\n      pop\n        /* \"SCP/CSAMM.sol\":1315:1328  uint amountIn */\n      0x00\n        /* \"SCP/CSAMM.sol\":1365:1373  reserve0 */\n      dup1\n      sload\n        /* \"SCP/CSAMM.sol\":1331:1337  token0 */\n      immutable(\"0xceebf77a833b30520287ddd9478ff51abbdffa30aa90a8d655dba0e8a79ce0c1\")\n        /* \"SCP/CSAMM.sol\":1331:1347  token0.balanceOf */\n      0xffffffffffffffffffffffffffffffffffffffff\n      and\n      0x70a08231\n        /* \"SCP/CSAMM.sol\":1356:1360  this */\n      address\n        /* \"SCP/CSAMM.sol\":1331:1362  token0.balanceOf(address(this)) */\n      mload(0x40)\n      dup3\n      0xffffffff\n      and\n      0xe0\n      shl\n      dup2\n      mstore\n      0x04\n      add\n      tag_136\n      swap2\n      swap1\n      tag_99\n      jump\t// in\n    tag_136:\n      0x20\n      mload(0x40)\n      dup1\n      dup4\n      sub\n      dup2\n      dup7\n      dup1\n      extcodesize\n      iszero\n      dup1\n      iszero\n      tag_137\n      jumpi\n      0x00\n      dup1\n      revert\n    tag_137:\n      pop\n      gas\n      staticcall\n      iszero\n      dup1\n      iszero\n      tag_139\n      jumpi\n      returndatasize\n      0x00\n      dup1\n      returndatacopy\n      revert(0x00, returndatasize)\n    tag_139:\n      pop\n      pop\n      pop\n      pop\n      mload(0x40)\n      returndatasize\n      not(0x1f)\n      0x1f\n      dup3\n      add\n      and\n      dup3\n      add\n      dup1\n      0x40\n      mstore\n      pop\n      dup2\n      add\n      swap1\n      tag_140\n      swap2\n      swap1\n      tag_104\n      jump\t// in\n    tag_140:\n        /* \"SCP/CSAMM.sol\":1331:1373  token0.balanceOf(address(this)) - reserve0 */\n      tag_141\n      swap2\n      swap1\n      tag_69\n      jump\t// in\n    tag_141:\n        /* \"SCP/CSAMM.sol\":1315:1373  uint amountIn = token0.balanceOf(address(this)) - reserve0 */\n      swap1\n      pop\n        /* \"SCP/CSAMM.sol\":1427:1431  1000 */\n      0x03e8\n        /* \"SCP/CSAMM.sol\":1422:1425  997 */\n      0x03e5\n        /* \"SCP/CSAMM.sol\":1411:1419  amountIn */\n      dup3\n        /* \"SCP/CSAMM.sol\":1411:1425  amountIn * 997 */\n      tag_142\n      swap2\n      swap1\n      tag_60\n      jump\t// in\n    tag_142:\n        /* \"SCP/CSAMM.sol\":1410:1431  (amountIn * 997)/1000 */\n      tag_143\n      swap2\n      swap1\n      tag_62\n      jump\t// in\n    tag_143:\n        /* \"SCP/CSAMM.sol\":1398:1431  amountOut = (amountIn * 997)/1000 */\n      swap7\n      pop\n        /* \"SCP/CSAMM.sol\":1482:1491  uint res0 */\n      0x00\n        /* \"SCP/CSAMM.sol\":1493:1502  uint res1 */\n      dup1\n        /* \"SCP/CSAMM.sol\":1506:1514  isToken0 */\n      dup8\n        /* \"SCP/CSAMM.sol\":1506:1614  isToken0... */\n      tag_144\n      jumpi\n        /* \"SCP/CSAMM.sol\":1585:1594  amountOut */\n      dup9\n        /* \"SCP/CSAMM.sol\":1576:1582  resOut */\n      dup5\n        /* \"SCP/CSAMM.sol\":1576:1594  resOut - amountOut */\n      tag_145\n      swap2\n      swap1\n      tag_69\n      jump\t// in\n    tag_145:\n        /* \"SCP/CSAMM.sol\":1604:1613  _amountIn */\n      dup11\n        /* \"SCP/CSAMM.sol\":1596:1601  resIn */\n      dup7\n        /* \"SCP/CSAMM.sol\":1596:1613  resIn + _amountIn */\n      tag_146\n      swap2\n      swap1\n      tag_114\n      jump\t// in\n    tag_146:\n        /* \"SCP/CSAMM.sol\":1506:1614  isToken0... */\n      jump(tag_147)\n    tag_144:\n        /* \"SCP/CSAMM.sol\":1534:1543  _amountIn */\n      dup10\n        /* \"SCP/CSAMM.sol\":1526:1531  resIn */\n      dup6\n        /* \"SCP/CSAMM.sol\":1526:1543  resIn + _amountIn */\n      tag_148\n      swap2\n      swap1\n      tag_114\n      jump\t// in\n    tag_148:\n        /* \"SCP/CSAMM.sol\":1554:1563  amountOut */\n      dup10\n        /* \"SCP/CSAMM.sol\":1545:1551  resOut */\n      dup6\n        /* \"SCP/CSAMM.sol\":1545:1563  resOut - amountOut */\n      tag_149\n      swap2\n      swap1\n      tag_69\n      jump\t// in\n    tag_149:\n        /* \"SCP/CSAMM.sol\":1506:1614  isToken0... */\n    tag_147:\n        /* \"SCP/CSAMM.sol\":1481:1614  (uint res0, uint res1) = isToken0... */\n      swap2\n      pop\n      swap2\n      pop\n        /* \"SCP/CSAMM.sol\":1624:1643  _update(res0, res1) */\n      tag_150\n        /* \"SCP/CSAMM.sol\":1632:1636  res0 */\n      dup3\n        /* \"SCP/CSAMM.sol\":1638:1642  res1 */\n      dup3\n        /* \"SCP/CSAMM.sol\":1624:1631  _update */\n      tag_71\n        /* \"SCP/CSAMM.sol\":1624:1643  _update(res0, res1) */\n      jump\t// in\n    tag_150:\n        /* \"SCP/CSAMM.sol\":1706:1714  tokenOut */\n      dup6\n        /* \"SCP/CSAMM.sol\":1706:1723  tokenOut.transfer */\n      0xffffffffffffffffffffffffffffffffffffffff\n      and\n      0xa9059cbb\n        /* \"SCP/CSAMM.sol\":1724:1734  msg.sender */\n      caller\n        /* \"SCP/CSAMM.sol\":1736:1745  amountOut */\n      dup12\n        /* \"SCP/CSAMM.sol\":1706:1746  tokenOut.transfer(msg.sender, amountOut) */\n      mload(0x40)\n      dup4\n      0xffffffff\n      and\n      0xe0\n      shl\n      dup2\n      mstore\n      0x04\n      add\n      tag_151\n      swap3\n      swap2\n      swap1\n      tag_74\n      jump\t// in\n    tag_151:\n      0x20\n      mload(0x40)\n      dup1\n      dup4\n      sub\n      dup2\n      0x00\n      dup8\n      dup1\n      extcodesize\n      iszero\n      dup1\n      iszero\n      tag_152\n      jumpi\n      0x00\n      dup1\n      revert\n    tag_152:\n      pop\n      gas\n      call\n      iszero\n      dup1\n      iszero\n      tag_154\n      jumpi\n      returndatasize\n      0x00\n      dup1\n      returndatacopy\n      revert(0x00, returndatasize)\n    tag_154:\n      pop\n      pop\n      pop\n      pop\n      mload(0x40)\n      returndatasize\n      not(0x1f)\n      0x1f\n      dup3\n      add\n      and\n      dup3\n      add\n      dup1\n      0x40\n      mstore\n      pop\n      dup2\n      add\n      swap1\n      tag_155\n      swap2\n      swap1\n      tag_79\n      jump\t// in\n    tag_155:\n      pop\n        /* \"SCP/CSAMM.sol\":905:1763  {... */\n      pop\n      pop\n      pop\n      pop\n      pop\n      pop\n      pop\n      pop\n        /* \"SCP/CSAMM.sol\":812:1763  function swap(address _tokenIn, uint _amountIn)payable external returns... */\n      swap3\n      swap2\n      pop\n      pop\n      jump\t// out\n        /* \"SCP/CSAMM.sol\":138:168  IERC20 public immutable token1 */\n    tag_56:\n      immutable(\"0xe4b1702d9298fee62dfeccc57d322a463ad55ca201256d01f62b45b2e1c21c10\")\n      dup2\n      jump\t// out\n        /* \"SCP/CSAMM.sol\":564:693  function _burn(address _from, uint _amount) private {... */\n    tag_66:\n        /* \"SCP/CSAMM.sol\":646:653  _amount */\n      dup1\n        /* \"SCP/CSAMM.sol\":626:635  balanceOf */\n      0x03\n        /* \"SCP/CSAMM.sol\":626:642  balanceOf[_from] */\n      0x00\n        /* \"SCP/CSAMM.sol\":636:641  _from */\n      dup5\n        /* \"SCP/CSAMM.sol\":626:642  balanceOf[_from] */\n      0xffffffffffffffffffffffffffffffffffffffff\n      and\n      0xffffffffffffffffffffffffffffffffffffffff\n      and\n      dup2\n      mstore\n      0x20\n      add\n      swap1\n      dup2\n      mstore\n      0x20\n      add\n      0x00\n      keccak256\n      0x00\n        /* \"SCP/CSAMM.sol\":626:653  balanceOf[_from] -= _amount */\n      dup3\n      dup3\n      sload\n      tag_157\n      swap2\n      swap1\n      tag_69\n      jump\t// in\n    tag_157:\n      swap3\n      pop\n      pop\n      dup2\n      swap1\n      sstore\n      pop\n        /* \"SCP/CSAMM.sol\":678:685  _amount */\n      dup1\n        /* \"SCP/CSAMM.sol\":663:674  totalSupply */\n      0x02\n      0x00\n        /* \"SCP/CSAMM.sol\":663:685  totalSupply -= _amount */\n      dup3\n      dup3\n      sload\n      tag_158\n      swap2\n      swap1\n      tag_69\n      jump\t// in\n    tag_158:\n      swap3\n      pop\n      pop\n      dup2\n      swap1\n      sstore\n      pop\n        /* \"SCP/CSAMM.sol\":564:693  function _burn(address _from, uint _amount) private {... */\n      pop\n      pop\n      jump\t// out\n        /* \"SCP/CSAMM.sol\":698:806  function _update(uint _res0, uint _res1) private {... */\n    tag_71:\n        /* \"SCP/CSAMM.sol\":768:773  _res0 */\n      dup2\n        /* \"SCP/CSAMM.sol\":757:765  reserve0 */\n      0x00\n        /* \"SCP/CSAMM.sol\":757:773  reserve0 = _res0 */\n      dup2\n      swap1\n      sstore\n      pop\n        /* \"SCP/CSAMM.sol\":794:799  _res1 */\n      dup1\n        /* \"SCP/CSAMM.sol\":783:791  reserve1 */\n      0x01\n        /* \"SCP/CSAMM.sol\":783:799  reserve1 = _res1 */\n      dup2\n      swap1\n      sstore\n      pop\n        /* \"SCP/CSAMM.sol\":698:806  function _update(uint _res0, uint _res1) private {... */\n      pop\n      pop\n      jump\t// out\n        /* \"#utility.yul\":7:146   */\n    tag_161:\n        /* \"#utility.yul\":53:58   */\n      0x00\n        /* \"#utility.yul\":91:97   */\n      dup2\n        /* \"#utility.yul\":78:98   */\n      calldataload\n        /* \"#utility.yul\":69:98   */\n      swap1\n      pop\n        /* \"#utility.yul\":107:140   */\n      tag_163\n        /* \"#utility.yul\":134:139   */\n      dup2\n        /* \"#utility.yul\":107:140   */\n      tag_164\n      jump\t// in\n    tag_163:\n        /* \"#utility.yul\":7:146   */\n      swap3\n      swap2\n      pop\n      pop\n      jump\t// out\n        /* \"#utility.yul\":152:289   */\n    tag_165:\n        /* \"#utility.yul\":206:211   */\n      0x00\n        /* \"#utility.yul\":237:243   */\n      dup2\n        /* \"#utility.yul\":231:244   */\n      mload\n        /* \"#utility.yul\":222:244   */\n      swap1\n      pop\n        /* \"#utility.yul\":253:283   */\n      tag_167\n        /* \"#utility.yul\":277:282   */\n      dup2\n        /* \"#utility.yul\":253:283   */\n      tag_168\n      jump\t// in\n    tag_167:\n        /* \"#utility.yul\":152:289   */\n      swap3\n      swap2\n      pop\n      pop\n      jump\t// out\n        /* \"#utility.yul\":295:434   */\n    tag_169:\n        /* \"#utility.yul\":341:346   */\n      0x00\n        /* \"#utility.yul\":379:385   */\n      dup2\n        /* \"#utility.yul\":366:386   */\n      calldataload\n        /* \"#utility.yul\":357:386   */\n      swap1\n      pop\n        /* \"#utility.yul\":395:428   */\n      tag_171\n        /* \"#utility.yul\":422:427   */\n      dup2\n        /* \"#utility.yul\":395:428   */\n      tag_172\n      jump\t// in\n    tag_171:\n        /* \"#utility.yul\":295:434   */\n      swap3\n      swap2\n      pop\n      pop\n      jump\t// out\n        /* \"#utility.yul\":440:583   */\n    tag_173:\n        /* \"#utility.yul\":497:502   */\n      0x00\n        /* \"#utility.yul\":528:534   */\n      dup2\n        /* \"#utility.yul\":522:535   */\n      mload\n        /* \"#utility.yul\":513:535   */\n      swap1\n      pop\n        /* \"#utility.yul\":544:577   */\n      tag_175\n        /* \"#utility.yul\":571:576   */\n      dup2\n        /* \"#utility.yul\":544:577   */\n      tag_172\n      jump\t// in\n    tag_175:\n        /* \"#utility.yul\":440:583   */\n      swap3\n      swap2\n      pop\n      pop\n      jump\t// out\n        /* \"#utility.yul\":589:918   */\n    tag_33:\n        /* \"#utility.yul\":648:654   */\n      0x00\n        /* \"#utility.yul\":697:699   */\n      0x20\n        /* \"#utility.yul\":685:694   */\n      dup3\n        /* \"#utility.yul\":676:683   */\n      dup5\n        /* \"#utility.yul\":672:695   */\n      sub\n        /* \"#utility.yul\":668:700   */\n      slt\n        /* \"#utility.yul\":665:784   */\n      iszero\n      tag_177\n      jumpi\n        /* \"#utility.yul\":703:782   */\n      tag_178\n      tag_179\n      jump\t// in\n    tag_178:\n        /* \"#utility.yul\":665:784   */\n    tag_177:\n        /* \"#utility.yul\":823:824   */\n      0x00\n        /* \"#utility.yul\":848:901   */\n      tag_180\n        /* \"#utility.yul\":893:900   */\n      dup5\n        /* \"#utility.yul\":884:890   */\n      dup3\n        /* \"#utility.yul\":873:882   */\n      dup6\n        /* \"#utility.yul\":869:891   */\n      add\n        /* \"#utility.yul\":848:901   */\n      tag_161\n      jump\t// in\n    tag_180:\n        /* \"#utility.yul\":838:901   */\n      swap2\n      pop\n        /* \"#utility.yul\":794:911   */\n      pop\n        /* \"#utility.yul\":589:918   */\n      swap3\n      swap2\n      pop\n      pop\n      jump\t// out\n        /* \"#utility.yul\":924:1398   */\n    tag_51:\n        /* \"#utility.yul\":992:998   */\n      0x00\n        /* \"#utility.yul\":1000:1006   */\n      dup1\n        /* \"#utility.yul\":1049:1051   */\n      0x40\n        /* \"#utility.yul\":1037:1046   */\n      dup4\n        /* \"#utility.yul\":1028:1035   */\n      dup6\n        /* \"#utility.yul\":1024:1047   */\n      sub\n        /* \"#utility.yul\":1020:1052   */\n      slt\n        /* \"#utility.yul\":1017:1136   */\n      iszero\n      tag_182\n      jumpi\n        /* \"#utility.yul\":1055:1134   */\n      tag_183\n      tag_179\n      jump\t// in\n    tag_183:\n        /* \"#utility.yul\":1017:1136   */\n    tag_182:\n        /* \"#utility.yul\":1175:1176   */\n      0x00\n        /* \"#utility.yul\":1200:1253   */\n      tag_184\n        /* \"#utility.yul\":1245:1252   */\n      dup6\n        /* \"#utility.yul\":1236:1242   */\n      dup3\n        /* \"#utility.yul\":1225:1234   */\n      dup7\n        /* \"#utility.yul\":1221:1243   */\n      add\n        /* \"#utility.yul\":1200:1253   */\n      tag_161\n      jump\t// in\n    tag_184:\n        /* \"#utility.yul\":1190:1253   */\n      swap3\n      pop\n        /* \"#utility.yul\":1146:1263   */\n      pop\n        /* \"#utility.yul\":1302:1304   */\n      0x20\n        /* \"#utility.yul\":1328:1381   */\n      tag_185\n        /* \"#utility.yul\":1373:1380   */\n      dup6\n        /* \"#utility.yul\":1364:1370   */\n      dup3\n        /* \"#utility.yul\":1353:1362   */\n      dup7\n        /* \"#utility.yul\":1349:1371   */\n      add\n        /* \"#utility.yul\":1328:1381   */\n      tag_169\n      jump\t// in\n    tag_185:\n        /* \"#utility.yul\":1318:1381   */\n      swap2\n      pop\n        /* \"#utility.yul\":1273:1391   */\n      pop\n        /* \"#utility.yul\":924:1398   */\n      swap3\n      pop\n      swap3\n      swap1\n      pop\n      jump\t// out\n        /* \"#utility.yul\":1404:1749   */\n    tag_79:\n        /* \"#utility.yul\":1471:1477   */\n      0x00\n        /* \"#utility.yul\":1520:1522   */\n      0x20\n        /* \"#utility.yul\":1508:1517   */\n      dup3\n        /* \"#utility.yul\":1499:1506   */\n      dup5\n        /* \"#utility.yul\":1495:1518   */\n      sub\n        /* \"#utility.yul\":1491:1523   */\n      slt\n        /* \"#utility.yul\":1488:1607   */\n      iszero\n      tag_187\n      jumpi\n        /* \"#utility.yul\":1526:1605   */\n      tag_188\n      tag_179\n      jump\t// in\n    tag_188:\n        /* \"#utility.yul\":1488:1607   */\n    tag_187:\n        /* \"#utility.yul\":1646:1647   */\n      0x00\n        /* \"#utility.yul\":1671:1732   */\n      tag_189\n        /* \"#utility.yul\":1724:1731   */\n      dup5\n        /* \"#utility.yul\":1715:1721   */\n      dup3\n        /* \"#utility.yul\":1704:1713   */\n      dup6\n        /* \"#utility.yul\":1700:1722   */\n      add\n        /* \"#utility.yul\":1671:1732   */\n      tag_165\n      jump\t// in\n    tag_189:\n        /* \"#utility.yul\":1661:1732   */\n      swap2\n      pop\n        /* \"#utility.yul\":1617:1742   */\n      pop\n        /* \"#utility.yul\":1404:1749   */\n      swap3\n      swap2\n      pop\n      pop\n      jump\t// out\n        /* \"#utility.yul\":1755:2084   */\n    tag_39:\n        /* \"#utility.yul\":1814:1820   */\n      0x00\n        /* \"#utility.yul\":1863:1865   */\n      0x20\n        /* \"#utility.yul\":1851:1860   */\n      dup3\n        /* \"#utility.yul\":1842:1849   */\n      dup5\n        /* \"#utility.yul\":1838:1861   */\n      sub\n        /* \"#utility.yul\":1834:1866   */\n      slt\n        /* \"#utility.yul\":1831:1950   */\n      iszero\n      tag_191\n      jumpi\n        /* \"#utility.yul\":1869:1948   */\n      tag_192\n      tag_179\n      jump\t// in\n    tag_192:\n        /* \"#utility.yul\":1831:1950   */\n    tag_191:\n        /* \"#utility.yul\":1989:1990   */\n      0x00\n        /* \"#utility.yul\":2014:2067   */\n      tag_193\n        /* \"#utility.yul\":2059:2066   */\n      dup5\n        /* \"#utility.yul\":2050:2056   */\n      dup3\n        /* \"#utility.yul\":2039:2048   */\n      dup6\n        /* \"#utility.yul\":2035:2057   */\n      add\n        /* \"#utility.yul\":2014:2067   */\n      tag_169\n      jump\t// in\n    tag_193:\n        /* \"#utility.yul\":2004:2067   */\n      swap2\n      pop\n        /* \"#utility.yul\":1960:2077   */\n      pop\n        /* \"#utility.yul\":1755:2084   */\n      swap3\n      swap2\n      pop\n      pop\n      jump\t// out\n        /* \"#utility.yul\":2090:2441   */\n    tag_104:\n        /* \"#utility.yul\":2160:2166   */\n      0x00\n        /* \"#utility.yul\":2209:2211   */\n      0x20\n        /* \"#utility.yul\":2197:2206   */\n      dup3\n        /* \"#utility.yul\":2188:2195   */\n      dup5\n        /* \"#utility.yul\":2184:2207   */\n      sub\n        /* \"#utility.yul\":2180:2212   */\n      slt\n        /* \"#utility.yul\":2177:2296   */\n      iszero\n      tag_195\n      jumpi\n        /* \"#utility.yul\":2215:2294   */\n      tag_196\n      tag_179\n      jump\t// in\n    tag_196:\n        /* \"#utility.yul\":2177:2296   */\n    tag_195:\n        /* \"#utility.yul\":2335:2336   */\n      0x00\n        /* \"#utility.yul\":2360:2424   */\n      tag_197\n        /* \"#utility.yul\":2416:2423   */\n      dup5\n        /* \"#utility.yul\":2407:2413   */\n      dup3\n        /* \"#utility.yul\":2396:2405   */\n      dup6\n        /* \"#utility.yul\":2392:2414   */\n      add\n        /* \"#utility.yul\":2360:2424   */\n      tag_173\n      jump\t// in\n    tag_197:\n        /* \"#utility.yul\":2350:2424   */\n      swap2\n      pop\n        /* \"#utility.yul\":2306:2434   */\n      pop\n        /* \"#utility.yul\":2090:2441   */\n      swap3\n      swap2\n      pop\n      pop\n      jump\t// out\n        /* \"#utility.yul\":2447:2921   */\n    tag_46:\n        /* \"#utility.yul\":2515:2521   */\n      0x00\n        /* \"#utility.yul\":2523:2529   */\n      dup1\n        /* \"#utility.yul\":2572:2574   */\n      0x40\n        /* \"#utility.yul\":2560:2569   */\n      dup4\n        /* \"#utility.yul\":2551:2558   */\n      dup6\n        /* \"#utility.yul\":2547:2570   */\n      sub\n        /* \"#utility.yul\":2543:2575   */\n      slt\n        /* \"#utility.yul\":2540:2659   */\n      iszero\n      tag_199\n      jumpi\n        /* \"#utility.yul\":2578:2657   */\n      tag_200\n      tag_179\n      jump\t// in\n    tag_200:\n        /* \"#utility.yul\":2540:2659   */\n    tag_199:\n        /* \"#utility.yul\":2698:2699   */\n      0x00\n        /* \"#utility.yul\":2723:2776   */\n      tag_201\n        /* \"#utility.yul\":2768:2775   */\n      dup6\n        /* \"#utility.yul\":2759:2765   */\n      dup3\n        /* \"#utility.yul\":2748:2757   */\n      dup7\n        /* \"#utility.yul\":2744:2766   */\n      add\n        /* \"#utility.yul\":2723:2776   */\n      tag_169\n      jump\t// in\n    tag_201:\n        /* \"#utility.yul\":2713:2776   */\n      swap3\n      pop\n        /* \"#utility.yul\":2669:2786   */\n      pop\n        /* \"#utility.yul\":2825:2827   */\n      0x20\n        /* \"#utility.yul\":2851:2904   */\n      tag_202\n        /* \"#utility.yul\":2896:2903   */\n      dup6\n        /* \"#utility.yul\":2887:2893   */\n      dup3\n        /* \"#utility.yul\":2876:2885   */\n      dup7\n        /* \"#utility.yul\":2872:2894   */\n      add\n        /* \"#utility.yul\":2851:2904   */\n      tag_169\n      jump\t// in\n    tag_202:\n        /* \"#utility.yul\":2841:2904   */\n      swap2\n      pop\n        /* \"#utility.yul\":2796:2914   */\n      pop\n        /* \"#utility.yul\":2447:2921   */\n      swap3\n      pop\n      swap3\n      swap1\n      pop\n      jump\t// out\n        /* \"#utility.yul\":2927:3045   */\n    tag_203:\n        /* \"#utility.yul\":3014:3038   */\n      tag_205\n        /* \"#utility.yul\":3032:3037   */\n      dup2\n        /* \"#utility.yul\":3014:3038   */\n      tag_206\n      jump\t// in\n    tag_205:\n        /* \"#utility.yul\":3009:3012   */\n      dup3\n        /* \"#utility.yul\":3002:3039   */\n      mstore\n        /* \"#utility.yul\":2927:3045   */\n      pop\n      pop\n      jump\t// out\n        /* \"#utility.yul\":3051:3210   */\n    tag_207:\n        /* \"#utility.yul\":3152:3203   */\n      tag_209\n        /* \"#utility.yul\":3197:3202   */\n      dup2\n        /* \"#utility.yul\":3152:3203   */\n      tag_210\n      jump\t// in\n    tag_209:\n        /* \"#utility.yul\":3147:3150   */\n      dup3\n        /* \"#utility.yul\":3140:3204   */\n      mstore\n        /* \"#utility.yul\":3051:3210   */\n      pop\n      pop\n      jump\t// out\n        /* \"#utility.yul\":3216:3582   */\n    tag_211:\n        /* \"#utility.yul\":3358:3361   */\n      0x00\n        /* \"#utility.yul\":3379:3446   */\n      tag_213\n        /* \"#utility.yul\":3443:3445   */\n      0x0a\n        /* \"#utility.yul\":3438:3441   */\n      dup4\n        /* \"#utility.yul\":3379:3446   */\n      tag_214\n      jump\t// in\n    tag_213:\n        /* \"#utility.yul\":3372:3446   */\n      swap2\n      pop\n        /* \"#utility.yul\":3455:3548   */\n      tag_215\n        /* \"#utility.yul\":3544:3547   */\n      dup3\n        /* \"#utility.yul\":3455:3548   */\n      tag_216\n      jump\t// in\n    tag_215:\n        /* \"#utility.yul\":3573:3575   */\n      0x20\n        /* \"#utility.yul\":3568:3571   */\n      dup3\n        /* \"#utility.yul\":3564:3576   */\n      add\n        /* \"#utility.yul\":3557:3576   */\n      swap1\n      pop\n        /* \"#utility.yul\":3216:3582   */\n      swap2\n      swap1\n      pop\n      jump\t// out\n        /* \"#utility.yul\":3588:3954   */\n    tag_217:\n        /* \"#utility.yul\":3730:3733   */\n      0x00\n        /* \"#utility.yul\":3751:3818   */\n      tag_219\n        /* \"#utility.yul\":3815:3817   */\n      0x0d\n        /* \"#utility.yul\":3810:3813   */\n      dup4\n        /* \"#utility.yul\":3751:3818   */\n      tag_214\n      jump\t// in\n    tag_219:\n        /* \"#utility.yul\":3744:3818   */\n      swap2\n      pop\n        /* \"#utility.yul\":3827:3920   */\n      tag_220\n        /* \"#utility.yul\":3916:3919   */\n      dup3\n        /* \"#utility.yul\":3827:3920   */\n      tag_221\n      jump\t// in\n    tag_220:\n        /* \"#utility.yul\":3945:3947   */\n      0x20\n        /* \"#utility.yul\":3940:3943   */\n      dup3\n        /* \"#utility.yul\":3936:3948   */\n      add\n        /* \"#utility.yul\":3929:3948   */\n      swap1\n      pop\n        /* \"#utility.yul\":3588:3954   */\n      swap2\n      swap1\n      pop\n      jump\t// out\n        /* \"#utility.yul\":3960:4078   */\n    tag_222:\n        /* \"#utility.yul\":4047:4071   */\n      tag_224\n        /* \"#utility.yul\":4065:4070   */\n      dup2\n        /* \"#utility.yul\":4047:4071   */\n      tag_225\n      jump\t// in\n    tag_224:\n        /* \"#utility.yul\":4042:4045   */\n      dup3\n        /* \"#utility.yul\":4035:4072   */\n      mstore\n        /* \"#utility.yul\":3960:4078   */\n      pop\n      pop\n      jump\t// out\n        /* \"#utility.yul\":4084:4306   */\n    tag_99:\n        /* \"#utility.yul\":4177:4181   */\n      0x00\n        /* \"#utility.yul\":4215:4217   */\n      0x20\n        /* \"#utility.yul\":4204:4213   */\n      dup3\n        /* \"#utility.yul\":4200:4218   */\n      add\n        /* \"#utility.yul\":4192:4218   */\n      swap1\n      pop\n        /* \"#utility.yul\":4228:4299   */\n      tag_227\n        /* \"#utility.yul\":4296:4297   */\n      0x00\n        /* \"#utility.yul\":4285:4294   */\n      dup4\n        /* \"#utility.yul\":4281:4298   */\n      add\n        /* \"#utility.yul\":4272:4278   */\n      dup5\n        /* \"#utility.yul\":4228:4299   */\n      tag_203\n      jump\t// in\n    tag_227:\n        /* \"#utility.yul\":4084:4306   */\n      swap3\n      swap2\n      pop\n      pop\n      jump\t// out\n        /* \"#utility.yul\":4312:4754   */\n    tag_88:\n        /* \"#utility.yul\":4461:4465   */\n      0x00\n        /* \"#utility.yul\":4499:4501   */\n      0x60\n        /* \"#utility.yul\":4488:4497   */\n      dup3\n        /* \"#utility.yul\":4484:4502   */\n      add\n        /* \"#utility.yul\":4476:4502   */\n      swap1\n      pop\n        /* \"#utility.yul\":4512:4583   */\n      tag_229\n        /* \"#utility.yul\":4580:4581   */\n      0x00\n        /* \"#utility.yul\":4569:4578   */\n      dup4\n        /* \"#utility.yul\":4565:4582   */\n      add\n        /* \"#utility.yul\":4556:4562   */\n      dup7\n        /* \"#utility.yul\":4512:4583   */\n      tag_203\n      jump\t// in\n    tag_229:\n        /* \"#utility.yul\":4593:4665   */\n      tag_230\n        /* \"#utility.yul\":4661:4663   */\n      0x20\n        /* \"#utility.yul\":4650:4659   */\n      dup4\n        /* \"#utility.yul\":4646:4664   */\n      add\n        /* \"#utility.yul\":4637:4643   */\n      dup6\n        /* \"#utility.yul\":4593:4665   */\n      tag_203\n      jump\t// in\n    tag_230:\n        /* \"#utility.yul\":4675:4747   */\n      tag_231\n        /* \"#utility.yul\":4743:4745   */\n      0x40\n        /* \"#utility.yul\":4732:4741   */\n      dup4\n        /* \"#utility.yul\":4728:4746   */\n      add\n        /* \"#utility.yul\":4719:4725   */\n      dup5\n        /* \"#utility.yul\":4675:4747   */\n      tag_222\n      jump\t// in\n    tag_231:\n        /* \"#utility.yul\":4312:4754   */\n      swap5\n      swap4\n      pop\n      pop\n      pop\n      pop\n      jump\t// out\n        /* \"#utility.yul\":4760:5092   */\n    tag_74:\n        /* \"#utility.yul\":4881:4885   */\n      0x00\n        /* \"#utility.yul\":4919:4921   */\n      0x40\n        /* \"#utility.yul\":4908:4917   */\n      dup3\n        /* \"#utility.yul\":4904:4922   */\n      add\n        /* \"#utility.yul\":4896:4922   */\n      swap1\n      pop\n        /* \"#utility.yul\":4932:5003   */\n      tag_233\n        /* \"#utility.yul\":5000:5001   */\n      0x00\n        /* \"#utility.yul\":4989:4998   */\n      dup4\n        /* \"#utility.yul\":4985:5002   */\n      add\n        /* \"#utility.yul\":4976:4982   */\n      dup6\n        /* \"#utility.yul\":4932:5003   */\n      tag_203\n      jump\t// in\n    tag_233:\n        /* \"#utility.yul\":5013:5085   */\n      tag_234\n        /* \"#utility.yul\":5081:5083   */\n      0x20\n        /* \"#utility.yul\":5070:5079   */\n      dup4\n        /* \"#utility.yul\":5066:5084   */\n      add\n        /* \"#utility.yul\":5057:5063   */\n      dup5\n        /* \"#utility.yul\":5013:5085   */\n      tag_222\n      jump\t// in\n    tag_234:\n        /* \"#utility.yul\":4760:5092   */\n      swap4\n      swap3\n      pop\n      pop\n      pop\n      jump\t// out\n        /* \"#utility.yul\":5098:5348   */\n    tag_16:\n        /* \"#utility.yul\":5205:5209   */\n      0x00\n        /* \"#utility.yul\":5243:5245   */\n      0x20\n        /* \"#utility.yul\":5232:5241   */\n      dup3\n        /* \"#utility.yul\":5228:5246   */\n      add\n        /* \"#utility.yul\":5220:5246   */\n      swap1\n      pop\n        /* \"#utility.yul\":5256:5341   */\n      tag_236\n        /* \"#utility.yul\":5338:5339   */\n      0x00\n        /* \"#utility.yul\":5327:5336   */\n      dup4\n        /* \"#utility.yul\":5323:5340   */\n      add\n        /* \"#utility.yul\":5314:5320   */\n      dup5\n        /* \"#utility.yul\":5256:5341   */\n      tag_207\n      jump\t// in\n    tag_236:\n        /* \"#utility.yul\":5098:5348   */\n      swap3\n      swap2\n      pop\n      pop\n      jump\t// out\n        /* \"#utility.yul\":5354:5773   */\n    tag_122:\n        /* \"#utility.yul\":5520:5524   */\n      0x00\n        /* \"#utility.yul\":5558:5560   */\n      0x20\n        /* \"#utility.yul\":5547:5556   */\n      dup3\n        /* \"#utility.yul\":5543:5561   */\n      add\n        /* \"#utility.yul\":5535:5561   */\n      swap1\n      pop\n        /* \"#utility.yul\":5607:5616   */\n      dup2\n        /* \"#utility.yul\":5601:5605   */\n      dup2\n        /* \"#utility.yul\":5597:5617   */\n      sub\n        /* \"#utility.yul\":5593:5594   */\n      0x00\n        /* \"#utility.yul\":5582:5591   */\n      dup4\n        /* \"#utility.yul\":5578:5595   */\n      add\n        /* \"#utility.yul\":5571:5618   */\n      mstore\n        /* \"#utility.yul\":5635:5766   */\n      tag_238\n        /* \"#utility.yul\":5761:5765   */\n      dup2\n        /* \"#utility.yul\":5635:5766   */\n      tag_211\n      jump\t// in\n    tag_238:\n        /* \"#utility.yul\":5627:5766   */\n      swap1\n      pop\n        /* \"#utility.yul\":5354:5773   */\n      swap2\n      swap1\n      pop\n      jump\t// out\n        /* \"#utility.yul\":5779:6198   */\n    tag_128:\n        /* \"#utility.yul\":5945:5949   */\n      0x00\n        /* \"#utility.yul\":5983:5985   */\n      0x20\n        /* \"#utility.yul\":5972:5981   */\n      dup3\n        /* \"#utility.yul\":5968:5986   */\n      add\n        /* \"#utility.yul\":5960:5986   */\n      swap1\n      pop\n        /* \"#utility.yul\":6032:6041   */\n      dup2\n        /* \"#utility.yul\":6026:6030   */\n      dup2\n        /* \"#utility.yul\":6022:6042   */\n      sub\n        /* \"#utility.yul\":6018:6019   */\n      0x00\n        /* \"#utility.yul\":6007:6016   */\n      dup4\n        /* \"#utility.yul\":6003:6020   */\n      add\n        /* \"#utility.yul\":5996:6043   */\n      mstore\n        /* \"#utility.yul\":6060:6191   */\n      tag_240\n        /* \"#utility.yul\":6186:6190   */\n      dup2\n        /* \"#utility.yul\":6060:6191   */\n      tag_217\n      jump\t// in\n    tag_240:\n        /* \"#utility.yul\":6052:6191   */\n      swap1\n      pop\n        /* \"#utility.yul\":5779:6198   */\n      swap2\n      swap1\n      pop\n      jump\t// out\n        /* \"#utility.yul\":6204:6426   */\n    tag_21:\n        /* \"#utility.yul\":6297:6301   */\n      0x00\n        /* \"#utility.yul\":6335:6337   */\n      0x20\n        /* \"#utility.yul\":6324:6333   */\n      dup3\n        /* \"#utility.yul\":6320:6338   */\n      add\n        /* \"#utility.yul\":6312:6338   */\n      swap1\n      pop\n        /* \"#utility.yul\":6348:6419   */\n      tag_242\n        /* \"#utility.yul\":6416:6417   */\n      0x00\n        /* \"#utility.yul\":6405:6414   */\n      dup4\n        /* \"#utility.yul\":6401:6418   */\n      add\n        /* \"#utility.yul\":6392:6398   */\n      dup5\n        /* \"#utility.yul\":6348:6419   */\n      tag_222\n      jump\t// in\n    tag_242:\n        /* \"#utility.yul\":6204:6426   */\n      swap3\n      swap2\n      pop\n      pop\n      jump\t// out\n        /* \"#utility.yul\":6432:6764   */\n    tag_42:\n        /* \"#utility.yul\":6553:6557   */\n      0x00\n        /* \"#utility.yul\":6591:6593   */\n      0x40\n        /* \"#utility.yul\":6580:6589   */\n      dup3\n        /* \"#utility.yul\":6576:6594   */\n      add\n        /* \"#utility.yul\":6568:6594   */\n      swap1\n      pop\n        /* \"#utility.yul\":6604:6675   */\n      tag_244\n        /* \"#utility.yul\":6672:6673   */\n      0x00\n        /* \"#utility.yul\":6661:6670   */\n      dup4\n        /* \"#utility.yul\":6657:6674   */\n      add\n        /* \"#utility.yul\":6648:6654   */\n      dup6\n        /* \"#utility.yul\":6604:6675   */\n      tag_222\n      jump\t// in\n    tag_244:\n        /* \"#utility.yul\":6685:6757   */\n      tag_245\n        /* \"#utility.yul\":6753:6755   */\n      0x20\n        /* \"#utility.yul\":6742:6751   */\n      dup4\n        /* \"#utility.yul\":6738:6756   */\n      add\n        /* \"#utility.yul\":6729:6735   */\n      dup5\n        /* \"#utility.yul\":6685:6757   */\n      tag_222\n      jump\t// in\n    tag_245:\n        /* \"#utility.yul\":6432:6764   */\n      swap4\n      swap3\n      pop\n      pop\n      pop\n      jump\t// out\n        /* \"#utility.yul\":6851:7020   */\n    tag_214:\n        /* \"#utility.yul\":6935:6946   */\n      0x00\n        /* \"#utility.yul\":6969:6975   */\n      dup3\n        /* \"#utility.yul\":6964:6967   */\n      dup3\n        /* \"#utility.yul\":6957:6976   */\n      mstore\n        /* \"#utility.yul\":7009:7013   */\n      0x20\n        /* \"#utility.yul\":7004:7007   */\n      dup3\n        /* \"#utility.yul\":7000:7014   */\n      add\n        /* \"#utility.yul\":6985:7014   */\n      swap1\n      pop\n        /* \"#utility.yul\":6851:7020   */\n      swap3\n      swap2\n      pop\n      pop\n      jump\t// out\n        /* \"#utility.yul\":7026:7331   */\n    tag_114:\n        /* \"#utility.yul\":7066:7069   */\n      0x00\n        /* \"#utility.yul\":7085:7105   */\n      tag_250\n        /* \"#utility.yul\":7103:7104   */\n      dup3\n        /* \"#utility.yul\":7085:7105   */\n      tag_225\n      jump\t// in\n    tag_250:\n        /* \"#utility.yul\":7080:7105   */\n      swap2\n      pop\n        /* \"#utility.yul\":7119:7139   */\n      tag_251\n        /* \"#utility.yul\":7137:7138   */\n      dup4\n        /* \"#utility.yul\":7119:7139   */\n      tag_225\n      jump\t// in\n    tag_251:\n        /* \"#utility.yul\":7114:7139   */\n      swap3\n      pop\n        /* \"#utility.yul\":7273:7274   */\n      dup3\n        /* \"#utility.yul\":7205:7271   */\n      0xffffffffffffffffffffffffffffffffffffffffffffffffffffffffffffffff\n        /* \"#utility.yul\":7201:7275   */\n      sub\n        /* \"#utility.yul\":7198:7199   */\n      dup3\n        /* \"#utility.yul\":7195:7276   */\n      gt\n        /* \"#utility.yul\":7192:7299   */\n      iszero\n      tag_252\n      jumpi\n        /* \"#utility.yul\":7279:7297   */\n      tag_253\n      tag_254\n      jump\t// in\n    tag_253:\n        /* \"#utility.yul\":7192:7299   */\n    tag_252:\n        /* \"#utility.yul\":7323:7324   */\n      dup3\n        /* \"#utility.yul\":7320:7321   */\n      dup3\n        /* \"#utility.yul\":7316:7325   */\n      add\n        /* \"#utility.yul\":7309:7325   */\n      swap1\n      pop\n        /* \"#utility.yul\":7026:7331   */\n      swap3\n      swap2\n      pop\n      pop\n      jump\t// out\n        /* \"#utility.yul\":7337:7522   */\n    tag_62:\n        /* \"#utility.yul\":7377:7378   */\n      0x00\n        /* \"#utility.yul\":7394:7414   */\n      tag_256\n        /* \"#utility.yul\":7412:7413   */\n      dup3\n        /* \"#utility.yul\":7394:7414   */\n      tag_225\n      jump\t// in\n    tag_256:\n        /* \"#utility.yul\":7389:7414   */\n      swap2\n      pop\n        /* \"#utility.yul\":7428:7448   */\n      tag_257\n        /* \"#utility.yul\":7446:7447   */\n      dup4\n        /* \"#utility.yul\":7428:7448   */\n      tag_225\n      jump\t// in\n    tag_257:\n        /* \"#utility.yul\":7423:7448   */\n      swap3\n      pop\n        /* \"#utility.yul\":7467:7468   */\n      dup3\n        /* \"#utility.yul\":7457:7492   */\n      tag_258\n      jumpi\n        /* \"#utility.yul\":7472:7490   */\n      tag_259\n      tag_260\n      jump\t// in\n    tag_259:\n        /* \"#utility.yul\":7457:7492   */\n    tag_258:\n        /* \"#utility.yul\":7514:7515   */\n      dup3\n        /* \"#utility.yul\":7511:7512   */\n      dup3\n        /* \"#utility.yul\":7507:7516   */\n      div\n        /* \"#utility.yul\":7502:7516   */\n      swap1\n      pop\n        /* \"#utility.yul\":7337:7522   */\n      swap3\n      swap2\n      pop\n      pop\n      jump\t// out\n        /* \"#utility.yul\":7528:7876   */\n    tag_60:\n        /* \"#utility.yul\":7568:7575   */\n      0x00\n        /* \"#utility.yul\":7591:7611   */\n      tag_262\n        /* \"#utility.yul\":7609:7610   */\n      dup3\n        /* \"#utility.yul\":7591:7611   */\n      tag_225\n      jump\t// in\n    tag_262:\n        /* \"#utility.yul\":7586:7611   */\n      swap2\n      pop\n        /* \"#utility.yul\":7625:7645   */\n      tag_263\n        /* \"#utility.yul\":7643:7644   */\n      dup4\n        /* \"#utility.yul\":7625:7645   */\n      tag_225\n      jump\t// in\n    tag_263:\n        /* \"#utility.yul\":7620:7645   */\n      swap3\n      pop\n        /* \"#utility.yul\":7813:7814   */\n      dup2\n        /* \"#utility.yul\":7745:7811   */\n      0xffffffffffffffffffffffffffffffffffffffffffffffffffffffffffffffff\n        /* \"#utility.yul\":7741:7815   */\n      div\n        /* \"#utility.yul\":7738:7739   */\n      dup4\n        /* \"#utility.yul\":7735:7816   */\n      gt\n        /* \"#utility.yul\":7730:7731   */\n      dup3\n        /* \"#utility.yul\":7723:7732   */\n      iszero\n        /* \"#utility.yul\":7716:7733   */\n      iszero\n        /* \"#utility.yul\":7712:7817   */\n      and\n        /* \"#utility.yul\":7709:7840   */\n      iszero\n      tag_264\n      jumpi\n        /* \"#utility.yul\":7820:7838   */\n      tag_265\n      tag_254\n      jump\t// in\n    tag_265:\n        /* \"#utility.yul\":7709:7840   */\n    tag_264:\n        /* \"#utility.yul\":7868:7869   */\n      dup3\n        /* \"#utility.yul\":7865:7866   */\n      dup3\n        /* \"#utility.yul\":7861:7870   */\n      mul\n        /* \"#utility.yul\":7850:7870   */\n      swap1\n      pop\n        /* \"#utility.yul\":7528:7876   */\n      swap3\n      swap2\n      pop\n      pop\n      jump\t// out\n        /* \"#utility.yul\":7882:8073   */\n    tag_69:\n        /* \"#utility.yul\":7922:7926   */\n      0x00\n        /* \"#utility.yul\":7942:7962   */\n      tag_267\n        /* \"#utility.yul\":7960:7961   */\n      dup3\n        /* \"#utility.yul\":7942:7962   */\n      tag_225\n      jump\t// in\n    tag_267:\n        /* \"#utility.yul\":7937:7962   */\n      swap2\n      pop\n        /* \"#utility.yul\":7976:7996   */\n      tag_268\n        /* \"#utility.yul\":7994:7995   */\n      dup4\n        /* \"#utility.yul\":7976:7996   */\n      tag_225\n      jump\t// in\n    tag_268:\n        /* \"#utility.yul\":7971:7996   */\n      swap3\n      pop\n        /* \"#utility.yul\":8015:8016   */\n      dup3\n        /* \"#utility.yul\":8012:8013   */\n      dup3\n        /* \"#utility.yul\":8009:8017   */\n      lt\n        /* \"#utility.yul\":8006:8040   */\n      iszero\n      tag_269\n      jumpi\n        /* \"#utility.yul\":8020:8038   */\n      tag_270\n      tag_254\n      jump\t// in\n    tag_270:\n        /* \"#utility.yul\":8006:8040   */\n    tag_269:\n        /* \"#utility.yul\":8065:8066   */\n      dup3\n        /* \"#utility.yul\":8062:8063   */\n      dup3\n        /* \"#utility.yul\":8058:8067   */\n      sub\n        /* \"#utility.yul\":8050:8067   */\n      swap1\n      pop\n        /* \"#utility.yul\":7882:8073   */\n      swap3\n      swap2\n      pop\n      pop\n      jump\t// out\n        /* \"#utility.yul\":8079:8175   */\n    tag_206:\n        /* \"#utility.yul\":8116:8123   */\n      0x00\n        /* \"#utility.yul\":8145:8169   */\n      tag_272\n        /* \"#utility.yul\":8163:8168   */\n      dup3\n        /* \"#utility.yul\":8145:8169   */\n      tag_273\n      jump\t// in\n    tag_272:\n        /* \"#utility.yul\":8134:8169   */\n      swap1\n      pop\n        /* \"#utility.yul\":8079:8175   */\n      swap2\n      swap1\n      pop\n      jump\t// out\n        /* \"#utility.yul\":8181:8271   */\n    tag_274:\n        /* \"#utility.yul\":8215:8222   */\n      0x00\n        /* \"#utility.yul\":8258:8263   */\n      dup2\n        /* \"#utility.yul\":8251:8264   */\n      iszero\n        /* \"#utility.yul\":8244:8265   */\n      iszero\n        /* \"#utility.yul\":8233:8265   */\n      swap1\n      pop\n        /* \"#utility.yul\":8181:8271   */\n      swap2\n      swap1\n      pop\n      jump\t// out\n        /* \"#utility.yul\":8277:8403   */\n    tag_273:\n        /* \"#utility.yul\":8314:8321   */\n      0x00\n        /* \"#utility.yul\":8354:8396   */\n      0xffffffffffffffffffffffffffffffffffffffff\n        /* \"#utility.yul\":8347:8352   */\n      dup3\n        /* \"#utility.yul\":8343:8397   */\n      and\n        /* \"#utility.yul\":8332:8397   */\n      swap1\n      pop\n        /* \"#utility.yul\":8277:8403   */\n      swap2\n      swap1\n      pop\n      jump\t// out\n        /* \"#utility.yul\":8409:8486   */\n    tag_225:\n        /* \"#utility.yul\":8446:8453   */\n      0x00\n        /* \"#utility.yul\":8475:8480   */\n      dup2\n        /* \"#utility.yul\":8464:8480   */\n      swap1\n      pop\n        /* \"#utility.yul\":8409:8486   */\n      swap2\n      swap1\n      pop\n      jump\t// out\n        /* \"#utility.yul\":8492:8632   */\n    tag_210:\n        /* \"#utility.yul\":8556:8565   */\n      0x00\n        /* \"#utility.yul\":8589:8626   */\n      tag_279\n        /* \"#utility.yul\":8620:8625   */\n      dup3\n        /* \"#utility.yul\":8589:8626   */\n      tag_280\n      jump\t// in\n    tag_279:\n        /* \"#utility.yul\":8576:8626   */\n      swap1\n      pop\n        /* \"#utility.yul\":8492:8632   */\n      swap2\n      swap1\n      pop\n      jump\t// out\n        /* \"#utility.yul\":8638:8764   */\n    tag_280:\n        /* \"#utility.yul\":8688:8697   */\n      0x00\n        /* \"#utility.yul\":8721:8758   */\n      tag_282\n        /* \"#utility.yul\":8752:8757   */\n      dup3\n        /* \"#utility.yul\":8721:8758   */\n      tag_283\n      jump\t// in\n    tag_282:\n        /* \"#utility.yul\":8708:8758   */\n      swap1\n      pop\n        /* \"#utility.yul\":8638:8764   */\n      swap2\n      swap1\n      pop\n      jump\t// out\n        /* \"#utility.yul\":8770:8883   */\n    tag_283:\n        /* \"#utility.yul\":8820:8829   */\n      0x00\n        /* \"#utility.yul\":8853:8877   */\n      tag_285\n        /* \"#utility.yul\":8871:8876   */\n      dup3\n        /* \"#utility.yul\":8853:8877   */\n      tag_273\n      jump\t// in\n    tag_285:\n        /* \"#utility.yul\":8840:8877   */\n      swap1\n      pop\n        /* \"#utility.yul\":8770:8883   */\n      swap2\n      swap1\n      pop\n      jump\t// out\n        /* \"#utility.yul\":8889:9069   */\n    tag_254:\n        /* \"#utility.yul\":8937:9014   */\n      0x4e487b7100000000000000000000000000000000000000000000000000000000\n        /* \"#utility.yul\":8934:8935   */\n      0x00\n        /* \"#utility.yul\":8927:9015   */\n      mstore\n        /* \"#utility.yul\":9034:9038   */\n      0x11\n        /* \"#utility.yul\":9031:9032   */\n      0x04\n        /* \"#utility.yul\":9024:9039   */\n      mstore\n        /* \"#utility.yul\":9058:9062   */\n      0x24\n        /* \"#utility.yul\":9055:9056   */\n      0x00\n        /* \"#utility.yul\":9048:9063   */\n      revert\n        /* \"#utility.yul\":9075:9255   */\n    tag_260:\n        /* \"#utility.yul\":9123:9200   */\n      0x4e487b7100000000000000000000000000000000000000000000000000000000\n        /* \"#utility.yul\":9120:9121   */\n      0x00\n        /* \"#utility.yul\":9113:9201   */\n      mstore\n        /* \"#utility.yul\":9220:9224   */\n      0x12\n        /* \"#utility.yul\":9217:9218   */\n      0x04\n        /* \"#utility.yul\":9210:9225   */\n      mstore\n        /* \"#utility.yul\":9244:9248   */\n      0x24\n        /* \"#utility.yul\":9241:9242   */\n      0x00\n        /* \"#utility.yul\":9234:9249   */\n      revert\n        /* \"#utility.yul\":9384:9501   */\n    tag_179:\n        /* \"#utility.yul\":9493:9494   */\n      0x00\n        /* \"#utility.yul\":9490:9491   */\n      dup1\n        /* \"#utility.yul\":9483:9495   */\n      revert\n        /* \"#utility.yul\":9507:9667   */\n    tag_216:\n        /* \"#utility.yul\":9647:9659   */\n      0x736861726573203d203000000000000000000000000000000000000000000000\n        /* \"#utility.yul\":9643:9644   */\n      0x00\n        /* \"#utility.yul\":9635:9641   */\n      dup3\n        /* \"#utility.yul\":9631:9645   */\n      add\n        /* \"#utility.yul\":9624:9660   */\n      mstore\n        /* \"#utility.yul\":9507:9667   */\n      pop\n      jump\t// out\n        /* \"#utility.yul\":9673:9836   */\n    tag_221:\n        /* \"#utility.yul\":9813:9828   */\n      0x696e76616c696420746f6b656e00000000000000000000000000000000000000\n        /* \"#utility.yul\":9809:9810   */\n      0x00\n        /* \"#utility.yul\":9801:9807   */\n      dup3\n        /* \"#utility.yul\":9797:9811   */\n      add\n        /* \"#utility.yul\":9790:9829   */\n      mstore\n        /* \"#utility.yul\":9673:9836   */\n      pop\n      jump\t// out\n        /* \"#utility.yul\":9842:9964   */\n    tag_164:\n        /* \"#utility.yul\":9915:9939   */\n      tag_294\n        /* \"#utility.yul\":9933:9938   */\n      dup2\n        /* \"#utility.yul\":9915:9939   */\n      tag_206\n      jump\t// in\n    tag_294:\n        /* \"#utility.yul\":9908:9913   */\n      dup2\n        /* \"#utility.yul\":9905:9940   */\n      eq\n        /* \"#utility.yul\":9895:9958   */\n      tag_295\n      jumpi\n        /* \"#utility.yul\":9954:9955   */\n      0x00\n        /* \"#utility.yul\":9951:9952   */\n      dup1\n        /* \"#utility.yul\":9944:9956   */\n      revert\n        /* \"#utility.yul\":9895:9958   */\n    tag_295:\n        /* \"#utility.yul\":9842:9964   */\n      pop\n      jump\t// out\n        /* \"#utility.yul\":9970:10086   */\n    tag_168:\n        /* \"#utility.yul\":10040:10061   */\n      tag_297\n        /* \"#utility.yul\":10055:10060   */\n      dup2\n        /* \"#utility.yul\":10040:10061   */\n      tag_274\n      jump\t// in\n    tag_297:\n        /* \"#utility.yul\":10033:10038   */\n      dup2\n        /* \"#utility.yul\":10030:10062   */\n      eq\n        /* \"#utility.yul\":10020:10080   */\n      tag_298\n      jumpi\n        /* \"#utility.yul\":10076:10077   */\n      0x00\n        /* \"#utility.yul\":10073:10074   */\n      dup1\n        /* \"#utility.yul\":10066:10078   */\n      revert\n        /* \"#utility.yul\":10020:10080   */\n    tag_298:\n        /* \"#utility.yul\":9970:10086   */\n      pop\n      jump\t// out\n        /* \"#utility.yul\":10092:10214   */\n    tag_172:\n        /* \"#utility.yul\":10165:10189   */\n      tag_300\n        /* \"#utility.yul\":10183:10188   */\n      dup2\n        /* \"#utility.yul\":10165:10189   */\n      tag_225\n      jump\t// in\n    tag_300:\n        /* \"#utility.yul\":10158:10163   */\n      dup2\n        /* \"#utility.yul\":10155:10190   */\n      eq\n        /* \"#utility.yul\":10145:10208   */\n      tag_301\n      jumpi\n        /* \"#utility.yul\":10204:10205   */\n      0x00\n        /* \"#utility.yul\":10201:10202   */\n      dup1\n        /* \"#utility.yul\":10194:10206   */\n      revert\n        /* \"#utility.yul\":10145:10208   */\n    tag_301:\n        /* \"#utility.yul\":10092:10214   */\n      pop\n      jump\t// out\n\n    auxdata: 0xa2646970667358221220706a817fcc383edfdcc837d2441d9006f12c02a9b550cfb7cfba286e7c51042e64736f6c63430008070033\n}\n",
				"bytecode": {
					"linkReferences": {},
					"object": "60c06040523480156200001157600080fd5b50604051620014b0380380620014b08339818101604052810190620000379190620000c4565b8173ffffffffffffffffffffffffffffffffffffffff1660808173ffffffffffffffffffffffffffffffffffffffff1660601b815250508073ffffffffffffffffffffffffffffffffffffffff1660a08173ffffffffffffffffffffffffffffffffffffffff1660601b8152505050506200015e565b600081519050620000be8162000144565b92915050565b60008060408385031215620000de57620000dd6200013f565b5b6000620000ee85828601620000ad565b92505060206200010185828601620000ad565b9150509250929050565b600062000118826200011f565b9050919050565b600073ffffffffffffffffffffffffffffffffffffffff82169050919050565b600080fd5b6200014f816200010b565b81146200015b57600080fd5b50565b60805160601c60a05160601c6112c4620001ec600039600081816103c60152818161052c0152818161068b0152818161085b01528181610948015281816109b60152610c3401526000818161024c0152818161030e0152818161047c015281816105de01528181610806015281816108ec01528181610969015281816109950152610a7a01526112c46000f3fe6080604052600436106100865760003560e01c806370a082311161005957806370a08231146101375780639c8f9f23146101745780639cd441da146101b2578063d004f0f7146101ef578063d21220a71461021f57610086565b80630dfe16811461008b57806318160ddd146100b6578063443cb4bc146100e15780635a76f25e1461010c575b600080fd5b34801561009757600080fd5b506100a061024a565b6040516100ad9190610f51565b60405180910390f35b3480156100c257600080fd5b506100cb61026e565b6040516100d89190610fac565b60405180910390f35b3480156100ed57600080fd5b506100f6610274565b6040516101039190610fac565b60405180910390f35b34801561011857600080fd5b5061012161027a565b60405161012e9190610fac565b60405180910390f35b34801561014357600080fd5b5061015e60048036038101906101599190610d2f565b610280565b60405161016b9190610fac565b60405180910390f35b34801561018057600080fd5b5061019b60048036038101906101969190610dc9565b610298565b6040516101a9929190610fc7565b60405180910390f35b3480156101be57600080fd5b506101d960048036038101906101d49190610e23565b610478565b6040516101e69190610fac565b60405180910390f35b61020960048036038101906102049190610d5c565b610802565b6040516102169190610fac565b60405180910390f35b34801561022b57600080fd5b50610234610c32565b6040516102419190610f51565b60405180910390f35b7f000000000000000000000000000000000000000000000000000000000000000081565b60025481565b60005481565b60015481565b60036020528060005260406000206000915090505481565b600080600254836000546102ac9190611088565b6102b69190611057565b9150600254836001546102c99190611088565b6102d39190611057565b90506102df3384610c56565b610303826000546102f091906110e2565b826001546102fe91906110e2565b610cc9565b60008211156103bb577f000000000000000000000000000000000000000000000000000000000000000073ffffffffffffffffffffffffffffffffffffffff1663a9059cbb33846040518363ffffffff1660e01b8152600401610367929190610f28565b602060405180830381600087803b15801561038157600080fd5b505af1158015610395573d6000803e3d6000fd5b505050506040513d601f19601f820116820180604052508101906103b99190610d9c565b505b6000811115610473577f000000000000000000000000000000000000000000000000000000000000000073ffffffffffffffffffffffffffffffffffffffff1663a9059cbb33836040518363ffffffff1660e01b815260040161041f929190610f28565b602060405180830381600087803b15801561043957600080fd5b505af115801561044d573d6000803e3d6000fd5b505050506040513d601f19601f820116820180604052508101906104719190610d9c565b505b915091565b60007f000000000000000000000000000000000000000000000000000000000000000073ffffffffffffffffffffffffffffffffffffffff166323b872dd3330866040518463ffffffff1660e01b81526004016104d793929190610ef1565b602060405180830381600087803b1580156104f157600080fd5b505af1158015610505573d6000803e3d6000fd5b505050506040513d601f19601f820116820180604052508101906105299190610d9c565b507f000000000000000000000000000000000000000000000000000000000000000073ffffffffffffffffffffffffffffffffffffffff166323b872dd3330856040518463ffffffff1660e01b815260040161058793929190610ef1565b602060405180830381600087803b1580156105a157600080fd5b505af11580156105b5573d6000803e3d6000fd5b505050506040513d601f19601f820116820180604052508101906105d99190610d9c565b5060007f000000000000000000000000000000000000000000000000000000000000000073ffffffffffffffffffffffffffffffffffffffff166370a08231306040518263ffffffff1660e01b81526004016106359190610ed6565b60206040518083038186803b15801561064d57600080fd5b505afa158015610661573d6000803e3d6000fd5b505050506040513d601f19601f820116820180604052508101906106859190610df6565b905060007f000000000000000000000000000000000000000000000000000000000000000073ffffffffffffffffffffffffffffffffffffffff166370a08231306040518263ffffffff1660e01b81526004016106e29190610ed6565b60206040518083038186803b1580156106fa57600080fd5b505afa15801561070e573d6000803e3d6000fd5b505050506040513d601f19601f820116820180604052508101906107329190610df6565b9050600080548361074391906110e2565b905060006001548361075591906110e2565b90506000600254141561077557808261076e9190611001565b94506107ab565b6000546001546107859190611001565b60025482846107949190611001565b61079e9190611088565b6107a89190611057565b94505b600085116107ee576040517f08c379a00000000000000000000000000000000000000000000000000000000081526004016107e590610f6c565b60405180910390fd5b6107f88484610cc9565b5050505092915050565b60007f000000000000000000000000000000000000000000000000000000000000000073ffffffffffffffffffffffffffffffffffffffff168373ffffffffffffffffffffffffffffffffffffffff1614806108a957507f000000000000000000000000000000000000000000000000000000000000000073ffffffffffffffffffffffffffffffffffffffff168373ffffffffffffffffffffffffffffffffffffffff16145b6108e8576040517f08c379a00000000000000000000000000000000000000000000000000000000081526004016108df90610f8c565b60405180910390fd5b60007f000000000000000000000000000000000000000000000000000000000000000073ffffffffffffffffffffffffffffffffffffffff168473ffffffffffffffffffffffffffffffffffffffff1614905060008060008084610993577f00000000000000000000000000000000000000000000000000000000000000007f00000000000000000000000000000000000000000000000000000000000000006001546000546109dc565b7f00000000000000000000000000000000000000000000000000000000000000007f00000000000000000000000000000000000000000000000000000000000000006000546001545b93509350935093508373ffffffffffffffffffffffffffffffffffffffff166323b872dd3330856040518463ffffffff1660e01b8152600401610a2193929190610ef1565b602060405180830381600087803b158015610a3b57600080fd5b505af1158015610a4f573d6000803e3d6000fd5b505050506040513d601f19601f82011682018060405250810190610a739190610d9c565b50600080547f000000000000000000000000000000000000000000000000000000000000000073ffffffffffffffffffffffffffffffffffffffff166370a08231306040518263ffffffff1660e01b8152600401610ad19190610ed6565b60206040518083038186803b158015610ae957600080fd5b505afa158015610afd573d6000803e3d6000fd5b505050506040513d601f19601f82011682018060405250810190610b219190610df6565b610b2b91906110e2565b90506103e86103e582610b3e9190611088565b610b489190611057565b965060008087610b6f578884610b5e91906110e2565b8a86610b6a9190611001565b610b88565b8985610b7b9190611001565b8985610b8791906110e2565b5b91509150610b968282610cc9565b8573ffffffffffffffffffffffffffffffffffffffff1663a9059cbb338b6040518363ffffffff1660e01b8152600401610bd1929190610f28565b602060405180830381600087803b158015610beb57600080fd5b505af1158015610bff573d6000803e3d6000fd5b505050506040513d601f19601f82011682018060405250810190610c239190610d9c565b50505050505050505092915050565b7f000000000000000000000000000000000000000000000000000000000000000081565b80600360008473ffffffffffffffffffffffffffffffffffffffff1673ffffffffffffffffffffffffffffffffffffffff1681526020019081526020016000206000828254610ca591906110e2565b925050819055508060026000828254610cbe91906110e2565b925050819055505050565b81600081905550806001819055505050565b600081359050610cea81611249565b92915050565b600081519050610cff81611260565b92915050565b600081359050610d1481611277565b92915050565b600081519050610d2981611277565b92915050565b600060208284031215610d4557610d446111f2565b5b6000610d5384828501610cdb565b91505092915050565b60008060408385031215610d7357610d726111f2565b5b6000610d8185828601610cdb565b9250506020610d9285828601610d05565b9150509250929050565b600060208284031215610db257610db16111f2565b5b6000610dc084828501610cf0565b91505092915050565b600060208284031215610ddf57610dde6111f2565b5b6000610ded84828501610d05565b91505092915050565b600060208284031215610e0c57610e0b6111f2565b5b6000610e1a84828501610d1a565b91505092915050565b60008060408385031215610e3a57610e396111f2565b5b6000610e4885828601610d05565b9250506020610e5985828601610d05565b9150509250929050565b610e6c81611116565b82525050565b610e7b8161115e565b82525050565b6000610e8e600a83610ff0565b9150610e99826111f7565b602082019050919050565b6000610eb1600d83610ff0565b9150610ebc82611220565b602082019050919050565b610ed081611154565b82525050565b6000602082019050610eeb6000830184610e63565b92915050565b6000606082019050610f066000830186610e63565b610f136020830185610e63565b610f206040830184610ec7565b949350505050565b6000604082019050610f3d6000830185610e63565b610f4a6020830184610ec7565b9392505050565b6000602082019050610f666000830184610e72565b92915050565b60006020820190508181036000830152610f8581610e81565b9050919050565b60006020820190508181036000830152610fa581610ea4565b9050919050565b6000602082019050610fc16000830184610ec7565b92915050565b6000604082019050610fdc6000830185610ec7565b610fe96020830184610ec7565b9392505050565b600082825260208201905092915050565b600061100c82611154565b915061101783611154565b9250827fffffffffffffffffffffffffffffffffffffffffffffffffffffffffffffffff0382111561104c5761104b611194565b5b828201905092915050565b600061106282611154565b915061106d83611154565b92508261107d5761107c6111c3565b5b828204905092915050565b600061109382611154565b915061109e83611154565b9250817fffffffffffffffffffffffffffffffffffffffffffffffffffffffffffffffff04831182151516156110d7576110d6611194565b5b828202905092915050565b60006110ed82611154565b91506110f883611154565b92508282101561110b5761110a611194565b5b828203905092915050565b600061112182611134565b9050919050565b60008115159050919050565b600073ffffffffffffffffffffffffffffffffffffffff82169050919050565b6000819050919050565b600061116982611170565b9050919050565b600061117b82611182565b9050919050565b600061118d82611134565b9050919050565b7f4e487b7100000000000000000000000000000000000000000000000000000000600052601160045260246000fd5b7f4e487b7100000000000000000000000000000000000000000000000000000000600052601260045260246000fd5b600080fd5b7f736861726573203d203000000000000000000000000000000000000000000000600082015250565b7f696e76616c696420746f6b656e00000000000000000000000000000000000000600082015250565b61125281611116565b811461125d57600080fd5b50565b61126981611128565b811461127457600080fd5b50565b61128081611154565b811461128b57600080fd5b5056fea2646970667358221220706a817fcc383edfdcc837d2441d9006f12c02a9b550cfb7cfba286e7c51042e64736f6c63430008070033",
					"opcodes": "PUSH1 0xC0 PUSH1 0x40 MSTORE CALLVALUE DUP1 ISZERO PUSH3 0x11 JUMPI PUSH1 0x0 DUP1 REVERT JUMPDEST POP PUSH1 0x40 MLOAD PUSH3 0x14B0 CODESIZE SUB DUP1 PUSH3 0x14B0 DUP4 CODECOPY DUP2 DUP2 ADD PUSH1 0x40 MSTORE DUP2 ADD SWAP1 PUSH3 0x37 SWAP2 SWAP1 PUSH3 0xC4 JUMP JUMPDEST DUP2 PUSH20 0xFFFFFFFFFFFFFFFFFFFFFFFFFFFFFFFFFFFFFFFF AND PUSH1 0x80 DUP2 PUSH20 0xFFFFFFFFFFFFFFFFFFFFFFFFFFFFFFFFFFFFFFFF AND PUSH1 0x60 SHL DUP2 MSTORE POP POP DUP1 PUSH20 0xFFFFFFFFFFFFFFFFFFFFFFFFFFFFFFFFFFFFFFFF AND PUSH1 0xA0 DUP2 PUSH20 0xFFFFFFFFFFFFFFFFFFFFFFFFFFFFFFFFFFFFFFFF AND PUSH1 0x60 SHL DUP2 MSTORE POP POP POP POP PUSH3 0x15E JUMP JUMPDEST PUSH1 0x0 DUP2 MLOAD SWAP1 POP PUSH3 0xBE DUP2 PUSH3 0x144 JUMP JUMPDEST SWAP3 SWAP2 POP POP JUMP JUMPDEST PUSH1 0x0 DUP1 PUSH1 0x40 DUP4 DUP6 SUB SLT ISZERO PUSH3 0xDE JUMPI PUSH3 0xDD PUSH3 0x13F JUMP JUMPDEST JUMPDEST PUSH1 0x0 PUSH3 0xEE DUP6 DUP3 DUP7 ADD PUSH3 0xAD JUMP JUMPDEST SWAP3 POP POP PUSH1 0x20 PUSH3 0x101 DUP6 DUP3 DUP7 ADD PUSH3 0xAD JUMP JUMPDEST SWAP2 POP POP SWAP3 POP SWAP3 SWAP1 POP JUMP JUMPDEST PUSH1 0x0 PUSH3 0x118 DUP3 PUSH3 0x11F JUMP JUMPDEST SWAP1 POP SWAP2 SWAP1 POP JUMP JUMPDEST PUSH1 0x0 PUSH20 0xFFFFFFFFFFFFFFFFFFFFFFFFFFFFFFFFFFFFFFFF DUP3 AND SWAP1 POP SWAP2 SWAP1 POP JUMP JUMPDEST PUSH1 0x0 DUP1 REVERT JUMPDEST PUSH3 0x14F DUP2 PUSH3 0x10B JUMP JUMPDEST DUP2 EQ PUSH3 0x15B JUMPI PUSH1 0x0 DUP1 REVERT JUMPDEST POP JUMP JUMPDEST PUSH1 0x80 MLOAD PUSH1 0x60 SHR PUSH1 0xA0 MLOAD PUSH1 0x60 SHR PUSH2 0x12C4 PUSH3 0x1EC PUSH1 0x0 CODECOPY PUSH1 0x0 DUP2 DUP2 PUSH2 0x3C6 ADD MSTORE DUP2 DUP2 PUSH2 0x52C ADD MSTORE DUP2 DUP2 PUSH2 0x68B ADD MSTORE DUP2 DUP2 PUSH2 0x85B ADD MSTORE DUP2 DUP2 PUSH2 0x948 ADD MSTORE DUP2 DUP2 PUSH2 0x9B6 ADD MSTORE PUSH2 0xC34 ADD MSTORE PUSH1 0x0 DUP2 DUP2 PUSH2 0x24C ADD MSTORE DUP2 DUP2 PUSH2 0x30E ADD MSTORE DUP2 DUP2 PUSH2 0x47C ADD MSTORE DUP2 DUP2 PUSH2 0x5DE ADD MSTORE DUP2 DUP2 PUSH2 0x806 ADD MSTORE DUP2 DUP2 PUSH2 0x8EC ADD MSTORE DUP2 DUP2 PUSH2 0x969 ADD MSTORE DUP2 DUP2 PUSH2 0x995 ADD MSTORE PUSH2 0xA7A ADD MSTORE PUSH2 0x12C4 PUSH1 0x0 RETURN INVALID PUSH1 0x80 PUSH1 0x40 MSTORE PUSH1 0x4 CALLDATASIZE LT PUSH2 0x86 JUMPI PUSH1 0x0 CALLDATALOAD PUSH1 0xE0 SHR DUP1 PUSH4 0x70A08231 GT PUSH2 0x59 JUMPI DUP1 PUSH4 0x70A08231 EQ PUSH2 0x137 JUMPI DUP1 PUSH4 0x9C8F9F23 EQ PUSH2 0x174 JUMPI DUP1 PUSH4 0x9CD441DA EQ PUSH2 0x1B2 JUMPI DUP1 PUSH4 0xD004F0F7 EQ PUSH2 0x1EF JUMPI DUP1 PUSH4 0xD21220A7 EQ PUSH2 0x21F JUMPI PUSH2 0x86 JUMP JUMPDEST DUP1 PUSH4 0xDFE1681 EQ PUSH2 0x8B JUMPI DUP1 PUSH4 0x18160DDD EQ PUSH2 0xB6 JUMPI DUP1 PUSH4 0x443CB4BC EQ PUSH2 0xE1 JUMPI DUP1 PUSH4 0x5A76F25E EQ PUSH2 0x10C JUMPI JUMPDEST PUSH1 0x0 DUP1 REVERT JUMPDEST CALLVALUE DUP1 ISZERO PUSH2 0x97 JUMPI PUSH1 0x0 DUP1 REVERT JUMPDEST POP PUSH2 0xA0 PUSH2 0x24A JUMP JUMPDEST PUSH1 0x40 MLOAD PUSH2 0xAD SWAP2 SWAP1 PUSH2 0xF51 JUMP JUMPDEST PUSH1 0x40 MLOAD DUP1 SWAP2 SUB SWAP1 RETURN JUMPDEST CALLVALUE DUP1 ISZERO PUSH2 0xC2 JUMPI PUSH1 0x0 DUP1 REVERT JUMPDEST POP PUSH2 0xCB PUSH2 0x26E JUMP JUMPDEST PUSH1 0x40 MLOAD PUSH2 0xD8 SWAP2 SWAP1 PUSH2 0xFAC JUMP JUMPDEST PUSH1 0x40 MLOAD DUP1 SWAP2 SUB SWAP1 RETURN JUMPDEST CALLVALUE DUP1 ISZERO PUSH2 0xED JUMPI PUSH1 0x0 DUP1 REVERT JUMPDEST POP PUSH2 0xF6 PUSH2 0x274 JUMP JUMPDEST PUSH1 0x40 MLOAD PUSH2 0x103 SWAP2 SWAP1 PUSH2 0xFAC JUMP JUMPDEST PUSH1 0x40 MLOAD DUP1 SWAP2 SUB SWAP1 RETURN JUMPDEST CALLVALUE DUP1 ISZERO PUSH2 0x118 JUMPI PUSH1 0x0 DUP1 REVERT JUMPDEST POP PUSH2 0x121 PUSH2 0x27A JUMP JUMPDEST PUSH1 0x40 MLOAD PUSH2 0x12E SWAP2 SWAP1 PUSH2 0xFAC JUMP JUMPDEST PUSH1 0x40 MLOAD DUP1 SWAP2 SUB SWAP1 RETURN JUMPDEST CALLVALUE DUP1 ISZERO PUSH2 0x143 JUMPI PUSH1 0x0 DUP1 REVERT JUMPDEST POP PUSH2 0x15E PUSH1 0x4 DUP1 CALLDATASIZE SUB DUP2 ADD SWAP1 PUSH2 0x159 SWAP2 SWAP1 PUSH2 0xD2F JUMP JUMPDEST PUSH2 0x280 JUMP JUMPDEST PUSH1 0x40 MLOAD PUSH2 0x16B SWAP2 SWAP1 PUSH2 0xFAC JUMP JUMPDEST PUSH1 0x40 MLOAD DUP1 SWAP2 SUB SWAP1 RETURN JUMPDEST CALLVALUE DUP1 ISZERO PUSH2 0x180 JUMPI PUSH1 0x0 DUP1 REVERT JUMPDEST POP PUSH2 0x19B PUSH1 0x4 DUP1 CALLDATASIZE SUB DUP2 ADD SWAP1 PUSH2 0x196 SWAP2 SWAP1 PUSH2 0xDC9 JUMP JUMPDEST PUSH2 0x298 JUMP JUMPDEST PUSH1 0x40 MLOAD PUSH2 0x1A9 SWAP3 SWAP2 SWAP1 PUSH2 0xFC7 JUMP JUMPDEST PUSH1 0x40 MLOAD DUP1 SWAP2 SUB SWAP1 RETURN JUMPDEST CALLVALUE DUP1 ISZERO PUSH2 0x1BE JUMPI PUSH1 0x0 DUP1 REVERT JUMPDEST POP PUSH2 0x1D9 PUSH1 0x4 DUP1 CALLDATASIZE SUB DUP2 ADD SWAP1 PUSH2 0x1D4 SWAP2 SWAP1 PUSH2 0xE23 JUMP JUMPDEST PUSH2 0x478 JUMP JUMPDEST PUSH1 0x40 MLOAD PUSH2 0x1E6 SWAP2 SWAP1 PUSH2 0xFAC JUMP JUMPDEST PUSH1 0x40 MLOAD DUP1 SWAP2 SUB SWAP1 RETURN JUMPDEST PUSH2 0x209 PUSH1 0x4 DUP1 CALLDATASIZE SUB DUP2 ADD SWAP1 PUSH2 0x204 SWAP2 SWAP1 PUSH2 0xD5C JUMP JUMPDEST PUSH2 0x802 JUMP JUMPDEST PUSH1 0x40 MLOAD PUSH2 0x216 SWAP2 SWAP1 PUSH2 0xFAC JUMP JUMPDEST PUSH1 0x40 MLOAD DUP1 SWAP2 SUB SWAP1 RETURN JUMPDEST CALLVALUE DUP1 ISZERO PUSH2 0x22B JUMPI PUSH1 0x0 DUP1 REVERT JUMPDEST POP PUSH2 0x234 PUSH2 0xC32 JUMP JUMPDEST PUSH1 0x40 MLOAD PUSH2 0x241 SWAP2 SWAP1 PUSH2 0xF51 JUMP JUMPDEST PUSH1 0x40 MLOAD DUP1 SWAP2 SUB SWAP1 RETURN JUMPDEST PUSH32 0x0 DUP2 JUMP JUMPDEST PUSH1 0x2 SLOAD DUP2 JUMP JUMPDEST PUSH1 0x0 SLOAD DUP2 JUMP JUMPDEST PUSH1 0x1 SLOAD DUP2 JUMP JUMPDEST PUSH1 0x3 PUSH1 0x20 MSTORE DUP1 PUSH1 0x0 MSTORE PUSH1 0x40 PUSH1 0x0 KECCAK256 PUSH1 0x0 SWAP2 POP SWAP1 POP SLOAD DUP2 JUMP JUMPDEST PUSH1 0x0 DUP1 PUSH1 0x2 SLOAD DUP4 PUSH1 0x0 SLOAD PUSH2 0x2AC SWAP2 SWAP1 PUSH2 0x1088 JUMP JUMPDEST PUSH2 0x2B6 SWAP2 SWAP1 PUSH2 0x1057 JUMP JUMPDEST SWAP2 POP PUSH1 0x2 SLOAD DUP4 PUSH1 0x1 SLOAD PUSH2 0x2C9 SWAP2 SWAP1 PUSH2 0x1088 JUMP JUMPDEST PUSH2 0x2D3 SWAP2 SWAP1 PUSH2 0x1057 JUMP JUMPDEST SWAP1 POP PUSH2 0x2DF CALLER DUP5 PUSH2 0xC56 JUMP JUMPDEST PUSH2 0x303 DUP3 PUSH1 0x0 SLOAD PUSH2 0x2F0 SWAP2 SWAP1 PUSH2 0x10E2 JUMP JUMPDEST DUP3 PUSH1 0x1 SLOAD PUSH2 0x2FE SWAP2 SWAP1 PUSH2 0x10E2 JUMP JUMPDEST PUSH2 0xCC9 JUMP JUMPDEST PUSH1 0x0 DUP3 GT ISZERO PUSH2 0x3BB JUMPI PUSH32 0x0 PUSH20 0xFFFFFFFFFFFFFFFFFFFFFFFFFFFFFFFFFFFFFFFF AND PUSH4 0xA9059CBB CALLER DUP5 PUSH1 0x40 MLOAD DUP4 PUSH4 0xFFFFFFFF AND PUSH1 0xE0 SHL DUP2 MSTORE PUSH1 0x4 ADD PUSH2 0x367 SWAP3 SWAP2 SWAP1 PUSH2 0xF28 JUMP JUMPDEST PUSH1 0x20 PUSH1 0x40 MLOAD DUP1 DUP4 SUB DUP2 PUSH1 0x0 DUP8 DUP1 EXTCODESIZE ISZERO DUP1 ISZERO PUSH2 0x381 JUMPI PUSH1 0x0 DUP1 REVERT JUMPDEST POP GAS CALL ISZERO DUP1 ISZERO PUSH2 0x395 JUMPI RETURNDATASIZE PUSH1 0x0 DUP1 RETURNDATACOPY RETURNDATASIZE PUSH1 0x0 REVERT JUMPDEST POP POP POP POP PUSH1 0x40 MLOAD RETURNDATASIZE PUSH1 0x1F NOT PUSH1 0x1F DUP3 ADD AND DUP3 ADD DUP1 PUSH1 0x40 MSTORE POP DUP2 ADD SWAP1 PUSH2 0x3B9 SWAP2 SWAP1 PUSH2 0xD9C JUMP JUMPDEST POP JUMPDEST PUSH1 0x0 DUP2 GT ISZERO PUSH2 0x473 JUMPI PUSH32 0x0 PUSH20 0xFFFFFFFFFFFFFFFFFFFFFFFFFFFFFFFFFFFFFFFF AND PUSH4 0xA9059CBB CALLER DUP4 PUSH1 0x40 MLOAD DUP4 PUSH4 0xFFFFFFFF AND PUSH1 0xE0 SHL DUP2 MSTORE PUSH1 0x4 ADD PUSH2 0x41F SWAP3 SWAP2 SWAP1 PUSH2 0xF28 JUMP JUMPDEST PUSH1 0x20 PUSH1 0x40 MLOAD DUP1 DUP4 SUB DUP2 PUSH1 0x0 DUP8 DUP1 EXTCODESIZE ISZERO DUP1 ISZERO PUSH2 0x439 JUMPI PUSH1 0x0 DUP1 REVERT JUMPDEST POP GAS CALL ISZERO DUP1 ISZERO PUSH2 0x44D JUMPI RETURNDATASIZE PUSH1 0x0 DUP1 RETURNDATACOPY RETURNDATASIZE PUSH1 0x0 REVERT JUMPDEST POP POP POP POP PUSH1 0x40 MLOAD RETURNDATASIZE PUSH1 0x1F NOT PUSH1 0x1F DUP3 ADD AND DUP3 ADD DUP1 PUSH1 0x40 MSTORE POP DUP2 ADD SWAP1 PUSH2 0x471 SWAP2 SWAP1 PUSH2 0xD9C JUMP JUMPDEST POP JUMPDEST SWAP2 POP SWAP2 JUMP JUMPDEST PUSH1 0x0 PUSH32 0x0 PUSH20 0xFFFFFFFFFFFFFFFFFFFFFFFFFFFFFFFFFFFFFFFF AND PUSH4 0x23B872DD CALLER ADDRESS DUP7 PUSH1 0x40 MLOAD DUP5 PUSH4 0xFFFFFFFF AND PUSH1 0xE0 SHL DUP2 MSTORE PUSH1 0x4 ADD PUSH2 0x4D7 SWAP4 SWAP3 SWAP2 SWAP1 PUSH2 0xEF1 JUMP JUMPDEST PUSH1 0x20 PUSH1 0x40 MLOAD DUP1 DUP4 SUB DUP2 PUSH1 0x0 DUP8 DUP1 EXTCODESIZE ISZERO DUP1 ISZERO PUSH2 0x4F1 JUMPI PUSH1 0x0 DUP1 REVERT JUMPDEST POP GAS CALL ISZERO DUP1 ISZERO PUSH2 0x505 JUMPI RETURNDATASIZE PUSH1 0x0 DUP1 RETURNDATACOPY RETURNDATASIZE PUSH1 0x0 REVERT JUMPDEST POP POP POP POP PUSH1 0x40 MLOAD RETURNDATASIZE PUSH1 0x1F NOT PUSH1 0x1F DUP3 ADD AND DUP3 ADD DUP1 PUSH1 0x40 MSTORE POP DUP2 ADD SWAP1 PUSH2 0x529 SWAP2 SWAP1 PUSH2 0xD9C JUMP JUMPDEST POP PUSH32 0x0 PUSH20 0xFFFFFFFFFFFFFFFFFFFFFFFFFFFFFFFFFFFFFFFF AND PUSH4 0x23B872DD CALLER ADDRESS DUP6 PUSH1 0x40 MLOAD DUP5 PUSH4 0xFFFFFFFF AND PUSH1 0xE0 SHL DUP2 MSTORE PUSH1 0x4 ADD PUSH2 0x587 SWAP4 SWAP3 SWAP2 SWAP1 PUSH2 0xEF1 JUMP JUMPDEST PUSH1 0x20 PUSH1 0x40 MLOAD DUP1 DUP4 SUB DUP2 PUSH1 0x0 DUP8 DUP1 EXTCODESIZE ISZERO DUP1 ISZERO PUSH2 0x5A1 JUMPI PUSH1 0x0 DUP1 REVERT JUMPDEST POP GAS CALL ISZERO DUP1 ISZERO PUSH2 0x5B5 JUMPI RETURNDATASIZE PUSH1 0x0 DUP1 RETURNDATACOPY RETURNDATASIZE PUSH1 0x0 REVERT JUMPDEST POP POP POP POP PUSH1 0x40 MLOAD RETURNDATASIZE PUSH1 0x1F NOT PUSH1 0x1F DUP3 ADD AND DUP3 ADD DUP1 PUSH1 0x40 MSTORE POP DUP2 ADD SWAP1 PUSH2 0x5D9 SWAP2 SWAP1 PUSH2 0xD9C JUMP JUMPDEST POP PUSH1 0x0 PUSH32 0x0 PUSH20 0xFFFFFFFFFFFFFFFFFFFFFFFFFFFFFFFFFFFFFFFF AND PUSH4 0x70A08231 ADDRESS PUSH1 0x40 MLOAD DUP3 PUSH4 0xFFFFFFFF AND PUSH1 0xE0 SHL DUP2 MSTORE PUSH1 0x4 ADD PUSH2 0x635 SWAP2 SWAP1 PUSH2 0xED6 JUMP JUMPDEST PUSH1 0x20 PUSH1 0x40 MLOAD DUP1 DUP4 SUB DUP2 DUP7 DUP1 EXTCODESIZE ISZERO DUP1 ISZERO PUSH2 0x64D JUMPI PUSH1 0x0 DUP1 REVERT JUMPDEST POP GAS STATICCALL ISZERO DUP1 ISZERO PUSH2 0x661 JUMPI RETURNDATASIZE PUSH1 0x0 DUP1 RETURNDATACOPY RETURNDATASIZE PUSH1 0x0 REVERT JUMPDEST POP POP POP POP PUSH1 0x40 MLOAD RETURNDATASIZE PUSH1 0x1F NOT PUSH1 0x1F DUP3 ADD AND DUP3 ADD DUP1 PUSH1 0x40 MSTORE POP DUP2 ADD SWAP1 PUSH2 0x685 SWAP2 SWAP1 PUSH2 0xDF6 JUMP JUMPDEST SWAP1 POP PUSH1 0x0 PUSH32 0x0 PUSH20 0xFFFFFFFFFFFFFFFFFFFFFFFFFFFFFFFFFFFFFFFF AND PUSH4 0x70A08231 ADDRESS PUSH1 0x40 MLOAD DUP3 PUSH4 0xFFFFFFFF AND PUSH1 0xE0 SHL DUP2 MSTORE PUSH1 0x4 ADD PUSH2 0x6E2 SWAP2 SWAP1 PUSH2 0xED6 JUMP JUMPDEST PUSH1 0x20 PUSH1 0x40 MLOAD DUP1 DUP4 SUB DUP2 DUP7 DUP1 EXTCODESIZE ISZERO DUP1 ISZERO PUSH2 0x6FA JUMPI PUSH1 0x0 DUP1 REVERT JUMPDEST POP GAS STATICCALL ISZERO DUP1 ISZERO PUSH2 0x70E JUMPI RETURNDATASIZE PUSH1 0x0 DUP1 RETURNDATACOPY RETURNDATASIZE PUSH1 0x0 REVERT JUMPDEST POP POP POP POP PUSH1 0x40 MLOAD RETURNDATASIZE PUSH1 0x1F NOT PUSH1 0x1F DUP3 ADD AND DUP3 ADD DUP1 PUSH1 0x40 MSTORE POP DUP2 ADD SWAP1 PUSH2 0x732 SWAP2 SWAP1 PUSH2 0xDF6 JUMP JUMPDEST SWAP1 POP PUSH1 0x0 DUP1 SLOAD DUP4 PUSH2 0x743 SWAP2 SWAP1 PUSH2 0x10E2 JUMP JUMPDEST SWAP1 POP PUSH1 0x0 PUSH1 0x1 SLOAD DUP4 PUSH2 0x755 SWAP2 SWAP1 PUSH2 0x10E2 JUMP JUMPDEST SWAP1 POP PUSH1 0x0 PUSH1 0x2 SLOAD EQ ISZERO PUSH2 0x775 JUMPI DUP1 DUP3 PUSH2 0x76E SWAP2 SWAP1 PUSH2 0x1001 JUMP JUMPDEST SWAP5 POP PUSH2 0x7AB JUMP JUMPDEST PUSH1 0x0 SLOAD PUSH1 0x1 SLOAD PUSH2 0x785 SWAP2 SWAP1 PUSH2 0x1001 JUMP JUMPDEST PUSH1 0x2 SLOAD DUP3 DUP5 PUSH2 0x794 SWAP2 SWAP1 PUSH2 0x1001 JUMP JUMPDEST PUSH2 0x79E SWAP2 SWAP1 PUSH2 0x1088 JUMP JUMPDEST PUSH2 0x7A8 SWAP2 SWAP1 PUSH2 0x1057 JUMP JUMPDEST SWAP5 POP JUMPDEST PUSH1 0x0 DUP6 GT PUSH2 0x7EE JUMPI PUSH1 0x40 MLOAD PUSH32 0x8C379A000000000000000000000000000000000000000000000000000000000 DUP2 MSTORE PUSH1 0x4 ADD PUSH2 0x7E5 SWAP1 PUSH2 0xF6C JUMP JUMPDEST PUSH1 0x40 MLOAD DUP1 SWAP2 SUB SWAP1 REVERT JUMPDEST PUSH2 0x7F8 DUP5 DUP5 PUSH2 0xCC9 JUMP JUMPDEST POP POP POP POP SWAP3 SWAP2 POP POP JUMP JUMPDEST PUSH1 0x0 PUSH32 0x0 PUSH20 0xFFFFFFFFFFFFFFFFFFFFFFFFFFFFFFFFFFFFFFFF AND DUP4 PUSH20 0xFFFFFFFFFFFFFFFFFFFFFFFFFFFFFFFFFFFFFFFF AND EQ DUP1 PUSH2 0x8A9 JUMPI POP PUSH32 0x0 PUSH20 0xFFFFFFFFFFFFFFFFFFFFFFFFFFFFFFFFFFFFFFFF AND DUP4 PUSH20 0xFFFFFFFFFFFFFFFFFFFFFFFFFFFFFFFFFFFFFFFF AND EQ JUMPDEST PUSH2 0x8E8 JUMPI PUSH1 0x40 MLOAD PUSH32 0x8C379A000000000000000000000000000000000000000000000000000000000 DUP2 MSTORE PUSH1 0x4 ADD PUSH2 0x8DF SWAP1 PUSH2 0xF8C JUMP JUMPDEST PUSH1 0x40 MLOAD DUP1 SWAP2 SUB SWAP1 REVERT JUMPDEST PUSH1 0x0 PUSH32 0x0 PUSH20 0xFFFFFFFFFFFFFFFFFFFFFFFFFFFFFFFFFFFFFFFF AND DUP5 PUSH20 0xFFFFFFFFFFFFFFFFFFFFFFFFFFFFFFFFFFFFFFFF AND EQ SWAP1 POP PUSH1 0x0 DUP1 PUSH1 0x0 DUP1 DUP5 PUSH2 0x993 JUMPI PUSH32 0x0 PUSH32 0x0 PUSH1 0x1 SLOAD PUSH1 0x0 SLOAD PUSH2 0x9DC JUMP JUMPDEST PUSH32 0x0 PUSH32 0x0 PUSH1 0x0 SLOAD PUSH1 0x1 SLOAD JUMPDEST SWAP4 POP SWAP4 POP SWAP4 POP SWAP4 POP DUP4 PUSH20 0xFFFFFFFFFFFFFFFFFFFFFFFFFFFFFFFFFFFFFFFF AND PUSH4 0x23B872DD CALLER ADDRESS DUP6 PUSH1 0x40 MLOAD DUP5 PUSH4 0xFFFFFFFF AND PUSH1 0xE0 SHL DUP2 MSTORE PUSH1 0x4 ADD PUSH2 0xA21 SWAP4 SWAP3 SWAP2 SWAP1 PUSH2 0xEF1 JUMP JUMPDEST PUSH1 0x20 PUSH1 0x40 MLOAD DUP1 DUP4 SUB DUP2 PUSH1 0x0 DUP8 DUP1 EXTCODESIZE ISZERO DUP1 ISZERO PUSH2 0xA3B JUMPI PUSH1 0x0 DUP1 REVERT JUMPDEST POP GAS CALL ISZERO DUP1 ISZERO PUSH2 0xA4F JUMPI RETURNDATASIZE PUSH1 0x0 DUP1 RETURNDATACOPY RETURNDATASIZE PUSH1 0x0 REVERT JUMPDEST POP POP POP POP PUSH1 0x40 MLOAD RETURNDATASIZE PUSH1 0x1F NOT PUSH1 0x1F DUP3 ADD AND DUP3 ADD DUP1 PUSH1 0x40 MSTORE POP DUP2 ADD SWAP1 PUSH2 0xA73 SWAP2 SWAP1 PUSH2 0xD9C JUMP JUMPDEST POP PUSH1 0x0 DUP1 SLOAD PUSH32 0x0 PUSH20 0xFFFFFFFFFFFFFFFFFFFFFFFFFFFFFFFFFFFFFFFF AND PUSH4 0x70A08231 ADDRESS PUSH1 0x40 MLOAD DUP3 PUSH4 0xFFFFFFFF AND PUSH1 0xE0 SHL DUP2 MSTORE PUSH1 0x4 ADD PUSH2 0xAD1 SWAP2 SWAP1 PUSH2 0xED6 JUMP JUMPDEST PUSH1 0x20 PUSH1 0x40 MLOAD DUP1 DUP4 SUB DUP2 DUP7 DUP1 EXTCODESIZE ISZERO DUP1 ISZERO PUSH2 0xAE9 JUMPI PUSH1 0x0 DUP1 REVERT JUMPDEST POP GAS STATICCALL ISZERO DUP1 ISZERO PUSH2 0xAFD JUMPI RETURNDATASIZE PUSH1 0x0 DUP1 RETURNDATACOPY RETURNDATASIZE PUSH1 0x0 REVERT JUMPDEST POP POP POP POP PUSH1 0x40 MLOAD RETURNDATASIZE PUSH1 0x1F NOT PUSH1 0x1F DUP3 ADD AND DUP3 ADD DUP1 PUSH1 0x40 MSTORE POP DUP2 ADD SWAP1 PUSH2 0xB21 SWAP2 SWAP1 PUSH2 0xDF6 JUMP JUMPDEST PUSH2 0xB2B SWAP2 SWAP1 PUSH2 0x10E2 JUMP JUMPDEST SWAP1 POP PUSH2 0x3E8 PUSH2 0x3E5 DUP3 PUSH2 0xB3E SWAP2 SWAP1 PUSH2 0x1088 JUMP JUMPDEST PUSH2 0xB48 SWAP2 SWAP1 PUSH2 0x1057 JUMP JUMPDEST SWAP7 POP PUSH1 0x0 DUP1 DUP8 PUSH2 0xB6F JUMPI DUP9 DUP5 PUSH2 0xB5E SWAP2 SWAP1 PUSH2 0x10E2 JUMP JUMPDEST DUP11 DUP7 PUSH2 0xB6A SWAP2 SWAP1 PUSH2 0x1001 JUMP JUMPDEST PUSH2 0xB88 JUMP JUMPDEST DUP10 DUP6 PUSH2 0xB7B SWAP2 SWAP1 PUSH2 0x1001 JUMP JUMPDEST DUP10 DUP6 PUSH2 0xB87 SWAP2 SWAP1 PUSH2 0x10E2 JUMP JUMPDEST JUMPDEST SWAP2 POP SWAP2 POP PUSH2 0xB96 DUP3 DUP3 PUSH2 0xCC9 JUMP JUMPDEST DUP6 PUSH20 0xFFFFFFFFFFFFFFFFFFFFFFFFFFFFFFFFFFFFFFFF AND PUSH4 0xA9059CBB CALLER DUP12 PUSH1 0x40 MLOAD DUP4 PUSH4 0xFFFFFFFF AND PUSH1 0xE0 SHL DUP2 MSTORE PUSH1 0x4 ADD PUSH2 0xBD1 SWAP3 SWAP2 SWAP1 PUSH2 0xF28 JUMP JUMPDEST PUSH1 0x20 PUSH1 0x40 MLOAD DUP1 DUP4 SUB DUP2 PUSH1 0x0 DUP8 DUP1 EXTCODESIZE ISZERO DUP1 ISZERO PUSH2 0xBEB JUMPI PUSH1 0x0 DUP1 REVERT JUMPDEST POP GAS CALL ISZERO DUP1 ISZERO PUSH2 0xBFF JUMPI RETURNDATASIZE PUSH1 0x0 DUP1 RETURNDATACOPY RETURNDATASIZE PUSH1 0x0 REVERT JUMPDEST POP POP POP POP PUSH1 0x40 MLOAD RETURNDATASIZE PUSH1 0x1F NOT PUSH1 0x1F DUP3 ADD AND DUP3 ADD DUP1 PUSH1 0x40 MSTORE POP DUP2 ADD SWAP1 PUSH2 0xC23 SWAP2 SWAP1 PUSH2 0xD9C JUMP JUMPDEST POP POP POP POP POP POP POP POP POP SWAP3 SWAP2 POP POP JUMP JUMPDEST PUSH32 0x0 DUP2 JUMP JUMPDEST DUP1 PUSH1 0x3 PUSH1 0x0 DUP5 PUSH20 0xFFFFFFFFFFFFFFFFFFFFFFFFFFFFFFFFFFFFFFFF AND PUSH20 0xFFFFFFFFFFFFFFFFFFFFFFFFFFFFFFFFFFFFFFFF AND DUP2 MSTORE PUSH1 0x20 ADD SWAP1 DUP2 MSTORE PUSH1 0x20 ADD PUSH1 0x0 KECCAK256 PUSH1 0x0 DUP3 DUP3 SLOAD PUSH2 0xCA5 SWAP2 SWAP1 PUSH2 0x10E2 JUMP JUMPDEST SWAP3 POP POP DUP2 SWAP1 SSTORE POP DUP1 PUSH1 0x2 PUSH1 0x0 DUP3 DUP3 SLOAD PUSH2 0xCBE SWAP2 SWAP1 PUSH2 0x10E2 JUMP JUMPDEST SWAP3 POP POP DUP2 SWAP1 SSTORE POP POP POP JUMP JUMPDEST DUP2 PUSH1 0x0 DUP2 SWAP1 SSTORE POP DUP1 PUSH1 0x1 DUP2 SWAP1 SSTORE POP POP POP JUMP JUMPDEST PUSH1 0x0 DUP2 CALLDATALOAD SWAP1 POP PUSH2 0xCEA DUP2 PUSH2 0x1249 JUMP JUMPDEST SWAP3 SWAP2 POP POP JUMP JUMPDEST PUSH1 0x0 DUP2 MLOAD SWAP1 POP PUSH2 0xCFF DUP2 PUSH2 0x1260 JUMP JUMPDEST SWAP3 SWAP2 POP POP JUMP JUMPDEST PUSH1 0x0 DUP2 CALLDATALOAD SWAP1 POP PUSH2 0xD14 DUP2 PUSH2 0x1277 JUMP JUMPDEST SWAP3 SWAP2 POP POP JUMP JUMPDEST PUSH1 0x0 DUP2 MLOAD SWAP1 POP PUSH2 0xD29 DUP2 PUSH2 0x1277 JUMP JUMPDEST SWAP3 SWAP2 POP POP JUMP JUMPDEST PUSH1 0x0 PUSH1 0x20 DUP3 DUP5 SUB SLT ISZERO PUSH2 0xD45 JUMPI PUSH2 0xD44 PUSH2 0x11F2 JUMP JUMPDEST JUMPDEST PUSH1 0x0 PUSH2 0xD53 DUP5 DUP3 DUP6 ADD PUSH2 0xCDB JUMP JUMPDEST SWAP2 POP POP SWAP3 SWAP2 POP POP JUMP JUMPDEST PUSH1 0x0 DUP1 PUSH1 0x40 DUP4 DUP6 SUB SLT ISZERO PUSH2 0xD73 JUMPI PUSH2 0xD72 PUSH2 0x11F2 JUMP JUMPDEST JUMPDEST PUSH1 0x0 PUSH2 0xD81 DUP6 DUP3 DUP7 ADD PUSH2 0xCDB JUMP JUMPDEST SWAP3 POP POP PUSH1 0x20 PUSH2 0xD92 DUP6 DUP3 DUP7 ADD PUSH2 0xD05 JUMP JUMPDEST SWAP2 POP POP SWAP3 POP SWAP3 SWAP1 POP JUMP JUMPDEST PUSH1 0x0 PUSH1 0x20 DUP3 DUP5 SUB SLT ISZERO PUSH2 0xDB2 JUMPI PUSH2 0xDB1 PUSH2 0x11F2 JUMP JUMPDEST JUMPDEST PUSH1 0x0 PUSH2 0xDC0 DUP5 DUP3 DUP6 ADD PUSH2 0xCF0 JUMP JUMPDEST SWAP2 POP POP SWAP3 SWAP2 POP POP JUMP JUMPDEST PUSH1 0x0 PUSH1 0x20 DUP3 DUP5 SUB SLT ISZERO PUSH2 0xDDF JUMPI PUSH2 0xDDE PUSH2 0x11F2 JUMP JUMPDEST JUMPDEST PUSH1 0x0 PUSH2 0xDED DUP5 DUP3 DUP6 ADD PUSH2 0xD05 JUMP JUMPDEST SWAP2 POP POP SWAP3 SWAP2 POP POP JUMP JUMPDEST PUSH1 0x0 PUSH1 0x20 DUP3 DUP5 SUB SLT ISZERO PUSH2 0xE0C JUMPI PUSH2 0xE0B PUSH2 0x11F2 JUMP JUMPDEST JUMPDEST PUSH1 0x0 PUSH2 0xE1A DUP5 DUP3 DUP6 ADD PUSH2 0xD1A JUMP JUMPDEST SWAP2 POP POP SWAP3 SWAP2 POP POP JUMP JUMPDEST PUSH1 0x0 DUP1 PUSH1 0x40 DUP4 DUP6 SUB SLT ISZERO PUSH2 0xE3A JUMPI PUSH2 0xE39 PUSH2 0x11F2 JUMP JUMPDEST JUMPDEST PUSH1 0x0 PUSH2 0xE48 DUP6 DUP3 DUP7 ADD PUSH2 0xD05 JUMP JUMPDEST SWAP3 POP POP PUSH1 0x20 PUSH2 0xE59 DUP6 DUP3 DUP7 ADD PUSH2 0xD05 JUMP JUMPDEST SWAP2 POP POP SWAP3 POP SWAP3 SWAP1 POP JUMP JUMPDEST PUSH2 0xE6C DUP2 PUSH2 0x1116 JUMP JUMPDEST DUP3 MSTORE POP POP JUMP JUMPDEST PUSH2 0xE7B DUP2 PUSH2 0x115E JUMP JUMPDEST DUP3 MSTORE POP POP JUMP JUMPDEST PUSH1 0x0 PUSH2 0xE8E PUSH1 0xA DUP4 PUSH2 0xFF0 JUMP JUMPDEST SWAP2 POP PUSH2 0xE99 DUP3 PUSH2 0x11F7 JUMP JUMPDEST PUSH1 0x20 DUP3 ADD SWAP1 POP SWAP2 SWAP1 POP JUMP JUMPDEST PUSH1 0x0 PUSH2 0xEB1 PUSH1 0xD DUP4 PUSH2 0xFF0 JUMP JUMPDEST SWAP2 POP PUSH2 0xEBC DUP3 PUSH2 0x1220 JUMP JUMPDEST PUSH1 0x20 DUP3 ADD SWAP1 POP SWAP2 SWAP1 POP JUMP JUMPDEST PUSH2 0xED0 DUP2 PUSH2 0x1154 JUMP JUMPDEST DUP3 MSTORE POP POP JUMP JUMPDEST PUSH1 0x0 PUSH1 0x20 DUP3 ADD SWAP1 POP PUSH2 0xEEB PUSH1 0x0 DUP4 ADD DUP5 PUSH2 0xE63 JUMP JUMPDEST SWAP3 SWAP2 POP POP JUMP JUMPDEST PUSH1 0x0 PUSH1 0x60 DUP3 ADD SWAP1 POP PUSH2 0xF06 PUSH1 0x0 DUP4 ADD DUP7 PUSH2 0xE63 JUMP JUMPDEST PUSH2 0xF13 PUSH1 0x20 DUP4 ADD DUP6 PUSH2 0xE63 JUMP JUMPDEST PUSH2 0xF20 PUSH1 0x40 DUP4 ADD DUP5 PUSH2 0xEC7 JUMP JUMPDEST SWAP5 SWAP4 POP POP POP POP JUMP JUMPDEST PUSH1 0x0 PUSH1 0x40 DUP3 ADD SWAP1 POP PUSH2 0xF3D PUSH1 0x0 DUP4 ADD DUP6 PUSH2 0xE63 JUMP JUMPDEST PUSH2 0xF4A PUSH1 0x20 DUP4 ADD DUP5 PUSH2 0xEC7 JUMP JUMPDEST SWAP4 SWAP3 POP POP POP JUMP JUMPDEST PUSH1 0x0 PUSH1 0x20 DUP3 ADD SWAP1 POP PUSH2 0xF66 PUSH1 0x0 DUP4 ADD DUP5 PUSH2 0xE72 JUMP JUMPDEST SWAP3 SWAP2 POP POP JUMP JUMPDEST PUSH1 0x0 PUSH1 0x20 DUP3 ADD SWAP1 POP DUP2 DUP2 SUB PUSH1 0x0 DUP4 ADD MSTORE PUSH2 0xF85 DUP2 PUSH2 0xE81 JUMP JUMPDEST SWAP1 POP SWAP2 SWAP1 POP JUMP JUMPDEST PUSH1 0x0 PUSH1 0x20 DUP3 ADD SWAP1 POP DUP2 DUP2 SUB PUSH1 0x0 DUP4 ADD MSTORE PUSH2 0xFA5 DUP2 PUSH2 0xEA4 JUMP JUMPDEST SWAP1 POP SWAP2 SWAP1 POP JUMP JUMPDEST PUSH1 0x0 PUSH1 0x20 DUP3 ADD SWAP1 POP PUSH2 0xFC1 PUSH1 0x0 DUP4 ADD DUP5 PUSH2 0xEC7 JUMP JUMPDEST SWAP3 SWAP2 POP POP JUMP JUMPDEST PUSH1 0x0 PUSH1 0x40 DUP3 ADD SWAP1 POP PUSH2 0xFDC PUSH1 0x0 DUP4 ADD DUP6 PUSH2 0xEC7 JUMP JUMPDEST PUSH2 0xFE9 PUSH1 0x20 DUP4 ADD DUP5 PUSH2 0xEC7 JUMP JUMPDEST SWAP4 SWAP3 POP POP POP JUMP JUMPDEST PUSH1 0x0 DUP3 DUP3 MSTORE PUSH1 0x20 DUP3 ADD SWAP1 POP SWAP3 SWAP2 POP POP JUMP JUMPDEST PUSH1 0x0 PUSH2 0x100C DUP3 PUSH2 0x1154 JUMP JUMPDEST SWAP2 POP PUSH2 0x1017 DUP4 PUSH2 0x1154 JUMP JUMPDEST SWAP3 POP DUP3 PUSH32 0xFFFFFFFFFFFFFFFFFFFFFFFFFFFFFFFFFFFFFFFFFFFFFFFFFFFFFFFFFFFFFFFF SUB DUP3 GT ISZERO PUSH2 0x104C JUMPI PUSH2 0x104B PUSH2 0x1194 JUMP JUMPDEST JUMPDEST DUP3 DUP3 ADD SWAP1 POP SWAP3 SWAP2 POP POP JUMP JUMPDEST PUSH1 0x0 PUSH2 0x1062 DUP3 PUSH2 0x1154 JUMP JUMPDEST SWAP2 POP PUSH2 0x106D DUP4 PUSH2 0x1154 JUMP JUMPDEST SWAP3 POP DUP3 PUSH2 0x107D JUMPI PUSH2 0x107C PUSH2 0x11C3 JUMP JUMPDEST JUMPDEST DUP3 DUP3 DIV SWAP1 POP SWAP3 SWAP2 POP POP JUMP JUMPDEST PUSH1 0x0 PUSH2 0x1093 DUP3 PUSH2 0x1154 JUMP JUMPDEST SWAP2 POP PUSH2 0x109E DUP4 PUSH2 0x1154 JUMP JUMPDEST SWAP3 POP DUP2 PUSH32 0xFFFFFFFFFFFFFFFFFFFFFFFFFFFFFFFFFFFFFFFFFFFFFFFFFFFFFFFFFFFFFFFF DIV DUP4 GT DUP3 ISZERO ISZERO AND ISZERO PUSH2 0x10D7 JUMPI PUSH2 0x10D6 PUSH2 0x1194 JUMP JUMPDEST JUMPDEST DUP3 DUP3 MUL SWAP1 POP SWAP3 SWAP2 POP POP JUMP JUMPDEST PUSH1 0x0 PUSH2 0x10ED DUP3 PUSH2 0x1154 JUMP JUMPDEST SWAP2 POP PUSH2 0x10F8 DUP4 PUSH2 0x1154 JUMP JUMPDEST SWAP3 POP DUP3 DUP3 LT ISZERO PUSH2 0x110B JUMPI PUSH2 0x110A PUSH2 0x1194 JUMP JUMPDEST JUMPDEST DUP3 DUP3 SUB SWAP1 POP SWAP3 SWAP2 POP POP JUMP JUMPDEST PUSH1 0x0 PUSH2 0x1121 DUP3 PUSH2 0x1134 JUMP JUMPDEST SWAP1 POP SWAP2 SWAP1 POP JUMP JUMPDEST PUSH1 0x0 DUP2 ISZERO ISZERO SWAP1 POP SWAP2 SWAP1 POP JUMP JUMPDEST PUSH1 0x0 PUSH20 0xFFFFFFFFFFFFFFFFFFFFFFFFFFFFFFFFFFFFFFFF DUP3 AND SWAP1 POP SWAP2 SWAP1 POP JUMP JUMPDEST PUSH1 0x0 DUP2 SWAP1 POP SWAP2 SWAP1 POP JUMP JUMPDEST PUSH1 0x0 PUSH2 0x1169 DUP3 PUSH2 0x1170 JUMP JUMPDEST SWAP1 POP SWAP2 SWAP1 POP JUMP JUMPDEST PUSH1 0x0 PUSH2 0x117B DUP3 PUSH2 0x1182 JUMP JUMPDEST SWAP1 POP SWAP2 SWAP1 POP JUMP JUMPDEST PUSH1 0x0 PUSH2 0x118D DUP3 PUSH2 0x1134 JUMP JUMPDEST SWAP1 POP SWAP2 SWAP1 POP JUMP JUMPDEST PUSH32 0x4E487B7100000000000000000000000000000000000000000000000000000000 PUSH1 0x0 MSTORE PUSH1 0x11 PUSH1 0x4 MSTORE PUSH1 0x24 PUSH1 0x0 REVERT JUMPDEST PUSH32 0x4E487B7100000000000000000000000000000000000000000000000000000000 PUSH1 0x0 MSTORE PUSH1 0x12 PUSH1 0x4 MSTORE PUSH1 0x24 PUSH1 0x0 REVERT JUMPDEST PUSH1 0x0 DUP1 REVERT JUMPDEST PUSH32 0x736861726573203D203000000000000000000000000000000000000000000000 PUSH1 0x0 DUP3 ADD MSTORE POP JUMP JUMPDEST PUSH32 0x696E76616C696420746F6B656E00000000000000000000000000000000000000 PUSH1 0x0 DUP3 ADD MSTORE POP JUMP JUMPDEST PUSH2 0x1252 DUP2 PUSH2 0x1116 JUMP JUMPDEST DUP2 EQ PUSH2 0x125D JUMPI PUSH1 0x0 DUP1 REVERT JUMPDEST POP JUMP JUMPDEST PUSH2 0x1269 DUP2 PUSH2 0x1128 JUMP JUMPDEST DUP2 EQ PUSH2 0x1274 JUMPI PUSH1 0x0 DUP1 REVERT JUMPDEST POP JUMP JUMPDEST PUSH2 0x1280 DUP2 PUSH2 0x1154 JUMP JUMPDEST DUP2 EQ PUSH2 0x128B JUMPI PUSH1 0x0 DUP1 REVERT JUMPDEST POP JUMP INVALID LOG2 PUSH5 0x6970667358 0x22 SLT KECCAK256 PUSH17 0x6A817FCC383EDFDCC837D2441D9006F12C MUL 0xA9 0xB5 POP 0xCF 0xB7 0xCF 0xBA 0x28 PUSH15 0x7C51042E64736F6C63430008070033 "
				},
				"gasEstimates": {
					"creation": {
						"codeDepositCost": "960800",
						"executionCost": "infinite",
						"totalCost": "infinite"
					},
					"external": {
						"addLiquidity(uint256,uint256)": "infinite",
						"balanceOf(address)": "2814",
						"removeLiquidity(uint256)": "infinite",
						"reserve0()": "2474",
						"reserve1()": "2496",
						"swap(address,uint256)": "infinite",
						"token0()": "infinite",
						"token1()": "infinite",
						"totalSupply()": "2452"
					},
					"internal": {
						"_burn(address,uint256)": "infinite",
						"_mint(address,uint256)": "infinite",
						"_update(uint256,uint256)": "44241"
					}
				},
				"methodIdentifiers": {
					"addLiquidity(uint256,uint256)": "9cd441da",
					"balanceOf(address)": "70a08231",
					"removeLiquidity(uint256)": "9c8f9f23",
					"reserve0()": "443cb4bc",
					"reserve1()": "5a76f25e",
					"swap(address,uint256)": "d004f0f7",
					"token0()": "0dfe1681",
					"token1()": "d21220a7",
					"totalSupply()": "18160ddd"
				}
			},
			"storageLayout": {
				"storage": [
					{
						"astId": 10,
						"contract": "SCP/CSAMM.sol:CSAMM",
						"label": "reserve0",
						"offset": 0,
						"slot": "0",
						"type": "t_uint256"
					},
					{
						"astId": 12,
						"contract": "SCP/CSAMM.sol:CSAMM",
						"label": "reserve1",
						"offset": 0,
						"slot": "1",
						"type": "t_uint256"
					},
					{
						"astId": 14,
						"contract": "SCP/CSAMM.sol:CSAMM",
						"label": "totalSupply",
						"offset": 0,
						"slot": "2",
						"type": "t_uint256"
					},
					{
						"astId": 18,
						"contract": "SCP/CSAMM.sol:CSAMM",
						"label": "balanceOf",
						"offset": 0,
						"slot": "3",
						"type": "t_mapping(t_address,t_uint256)"
					}
				],
				"types": {
					"t_address": {
						"encoding": "inplace",
						"label": "address",
						"numberOfBytes": "20"
					},
					"t_mapping(t_address,t_uint256)": {
						"encoding": "mapping",
						"key": "t_address",
						"label": "mapping(address => uint256)",
						"numberOfBytes": "32",
						"value": "t_uint256"
					},
					"t_uint256": {
						"encoding": "inplace",
						"label": "uint256",
						"numberOfBytes": "32"
					}
				}
			},
			"userdoc": {
				"kind": "user",
				"methods": {},
				"version": 1
			}
		}
	}
}