{
	"SCP/MultiSigWallet.sol": {
		"MultiSigWallet": {
			"abi": [
				{
					"inputs": [
						{
							"internalType": "address[]",
							"name": "_owners",
							"type": "address[]"
						},
						{
							"internalType": "uint256",
							"name": "_required",
							"type": "uint256"
						}
					],
					"stateMutability": "nonpayable",
					"type": "constructor"
				},
				{
					"anonymous": false,
					"inputs": [
						{
							"indexed": true,
							"internalType": "address",
							"name": "owner",
							"type": "address"
						},
						{
							"indexed": true,
							"internalType": "uint256",
							"name": "txId",
							"type": "uint256"
						}
					],
					"name": "Approve",
					"type": "event"
				},
				{
					"anonymous": false,
					"inputs": [
						{
							"indexed": true,
							"internalType": "address",
							"name": "sender",
							"type": "address"
						},
						{
							"indexed": false,
							"internalType": "uint256",
							"name": "amount",
							"type": "uint256"
						}
					],
					"name": "Deposit",
					"type": "event"
				},
				{
					"anonymous": false,
					"inputs": [
						{
							"indexed": true,
							"internalType": "uint256",
							"name": "txId",
							"type": "uint256"
						}
					],
					"name": "Execute",
					"type": "event"
				},
				{
					"anonymous": false,
					"inputs": [
						{
							"indexed": true,
							"internalType": "address",
							"name": "owner",
							"type": "address"
						},
						{
							"indexed": true,
							"internalType": "uint256",
							"name": "txId",
							"type": "uint256"
						}
					],
					"name": "Revoke",
					"type": "event"
				},
				{
					"anonymous": false,
					"inputs": [
						{
							"indexed": true,
							"internalType": "uint256",
							"name": "txId",
							"type": "uint256"
						}
					],
					"name": "Submit",
					"type": "event"
				},
				{
					"inputs": [
						{
							"internalType": "uint256",
							"name": "_txId",
							"type": "uint256"
						}
					],
					"name": "approve",
					"outputs": [],
					"stateMutability": "nonpayable",
					"type": "function"
				},
				{
					"inputs": [
						{
							"internalType": "uint256",
							"name": "",
							"type": "uint256"
						},
						{
							"internalType": "address",
							"name": "",
							"type": "address"
						}
					],
					"name": "approved",
					"outputs": [
						{
							"internalType": "bool",
							"name": "",
							"type": "bool"
						}
					],
					"stateMutability": "view",
					"type": "function"
				},
				{
					"inputs": [
						{
							"internalType": "uint256",
							"name": "_txId",
							"type": "uint256"
						}
					],
					"name": "execute",
					"outputs": [],
					"stateMutability": "nonpayable",
					"type": "function"
				},
				{
					"inputs": [
						{
							"internalType": "address",
							"name": "",
							"type": "address"
						}
					],
					"name": "isOwner",
					"outputs": [
						{
							"internalType": "bool",
							"name": "",
							"type": "bool"
						}
					],
					"stateMutability": "view",
					"type": "function"
				},
				{
					"inputs": [
						{
							"internalType": "uint256",
							"name": "",
							"type": "uint256"
						}
					],
					"name": "owners",
					"outputs": [
						{
							"internalType": "address",
							"name": "",
							"type": "address"
						}
					],
					"stateMutability": "view",
					"type": "function"
				},
				{
					"inputs": [],
					"name": "required",
					"outputs": [
						{
							"internalType": "uint256",
							"name": "",
							"type": "uint256"
						}
					],
					"stateMutability": "view",
					"type": "function"
				},
				{
					"inputs": [
						{
							"internalType": "uint256",
							"name": "_txId",
							"type": "uint256"
						}
					],
					"name": "revoke",
					"outputs": [],
					"stateMutability": "nonpayable",
					"type": "function"
				},
				{
					"inputs": [
						{
							"internalType": "address",
							"name": "_to",
							"type": "address"
						},
						{
							"internalType": "uint256",
							"name": "_value",
							"type": "uint256"
						},
						{
							"internalType": "bytes",
							"name": "_data",
							"type": "bytes"
						}
					],
					"name": "submit",
					"outputs": [],
					"stateMutability": "nonpayable",
					"type": "function"
				},
				{
					"inputs": [
						{
							"internalType": "uint256",
							"name": "",
							"type": "uint256"
						}
					],
					"name": "transactions",
					"outputs": [
						{
							"internalType": "address",
							"name": "to",
							"type": "address"
						},
						{
							"internalType": "uint256",
							"name": "value",
							"type": "uint256"
						},
						{
							"internalType": "bytes",
							"name": "data",
							"type": "bytes"
						},
						{
							"internalType": "bool",
							"name": "executed",
							"type": "bool"
						}
					],
					"stateMutability": "view",
					"type": "function"
				},
				{
					"stateMutability": "payable",
					"type": "receive"
				}
			],
			"devdoc": {
				"kind": "dev",
				"methods": {},
				"version": 1
			},
			"evm": {
				"assembly": "    /* \"SCP/MultiSigWallet.sol\":58:3198  contract MultiSigWallet {... */\n  mstore(0x40, 0x80)\n    /* \"SCP/MultiSigWallet.sol\":1131:1674  constructor (address[] memory _owners, uint _required ){... */\n  callvalue\n  dup1\n  iszero\n  tag_1\n  jumpi\n  0x00\n  dup1\n  revert\ntag_1:\n  pop\n  mload(0x40)\n  sub(codesize, bytecodeSize)\n  dup1\n  bytecodeSize\n  dup4\n  codecopy\n  dup2\n  dup2\n  add\n  0x40\n  mstore\n  dup2\n  add\n  swap1\n  tag_2\n  swap2\n  swap1\n  tag_3\n  jump\t// in\ntag_2:\n    /* \"SCP/MultiSigWallet.sol\":1221:1222  0 */\n  0x00\n    /* \"SCP/MultiSigWallet.sol\":1204:1211  _owners */\n  dup3\n    /* \"SCP/MultiSigWallet.sol\":1204:1218  _owners.length */\n  mload\n    /* \"SCP/MultiSigWallet.sol\":1204:1222  _owners.length > 0 */\n  gt\n    /* \"SCP/MultiSigWallet.sol\":1196:1242  require(_owners.length > 0, \"owners required\") */\n  tag_6\n  jumpi\n  mload(0x40)\n  0x08c379a000000000000000000000000000000000000000000000000000000000\n  dup2\n  mstore\n  0x04\n  add\n  tag_7\n  swap1\n  tag_8\n  jump\t// in\ntag_7:\n  mload(0x40)\n  dup1\n  swap2\n  sub\n  swap1\n  revert\ntag_6:\n    /* \"SCP/MultiSigWallet.sol\":1272:1273  0 */\n  0x00\n    /* \"SCP/MultiSigWallet.sol\":1260:1269  _required */\n  dup2\n    /* \"SCP/MultiSigWallet.sol\":1260:1273  _required > 0 */\n  gt\n    /* \"SCP/MultiSigWallet.sol\":1260:1304  _required > 0 && _required <= _owners.length */\n  dup1\n  iszero\n  tag_9\n  jumpi\n  pop\n    /* \"SCP/MultiSigWallet.sol\":1290:1297  _owners */\n  dup2\n    /* \"SCP/MultiSigWallet.sol\":1290:1304  _owners.length */\n  mload\n    /* \"SCP/MultiSigWallet.sol\":1277:1286  _required */\n  dup2\n    /* \"SCP/MultiSigWallet.sol\":1277:1304  _required <= _owners.length */\n  gt\n  iszero\n    /* \"SCP/MultiSigWallet.sol\":1260:1304  _required > 0 && _required <= _owners.length */\ntag_9:\n    /* \"SCP/MultiSigWallet.sol\":1252:1350  require(_required > 0 && _required <= _owners.length,... */\n  tag_10\n  jumpi\n  mload(0x40)\n  0x08c379a000000000000000000000000000000000000000000000000000000000\n  dup2\n  mstore\n  0x04\n  add\n  tag_11\n  swap1\n  tag_12\n  jump\t// in\ntag_11:\n  mload(0x40)\n  dup1\n  swap2\n  sub\n  swap1\n  revert\ntag_10:\n    /* \"SCP/MultiSigWallet.sol\":1366:1372  uint i */\n  0x00\n    /* \"SCP/MultiSigWallet.sol\":1361:1638  for (uint i; i < _owners.length; i++) {... */\ntag_13:\n    /* \"SCP/MultiSigWallet.sol\":1378:1385  _owners */\n  dup3\n    /* \"SCP/MultiSigWallet.sol\":1378:1392  _owners.length */\n  mload\n    /* \"SCP/MultiSigWallet.sol\":1374:1375  i */\n  dup2\n    /* \"SCP/MultiSigWallet.sol\":1374:1392  i < _owners.length */\n  lt\n    /* \"SCP/MultiSigWallet.sol\":1361:1638  for (uint i; i < _owners.length; i++) {... */\n  iszero\n  tag_14\n  jumpi\n    /* \"SCP/MultiSigWallet.sol\":1413:1426  address owner */\n  0x00\n    /* \"SCP/MultiSigWallet.sol\":1429:1436  _owners */\n  dup4\n    /* \"SCP/MultiSigWallet.sol\":1437:1438  i */\n  dup3\n    /* \"SCP/MultiSigWallet.sol\":1429:1439  _owners[i] */\n  dup2\n  mload\n  dup2\n  lt\n  tag_16\n  jumpi\n  tag_17\n  tag_18\n  jump\t// in\ntag_17:\ntag_16:\n  0x20\n  mul\n  0x20\n  add\n  add\n  mload\n    /* \"SCP/MultiSigWallet.sol\":1413:1439  address owner = _owners[i] */\n  swap1\n  pop\n    /* \"SCP/MultiSigWallet.sol\":1479:1480  0 */\n  0x00\n    /* \"SCP/MultiSigWallet.sol\":1462:1481  owner != address(0) */\n  0xffffffffffffffffffffffffffffffffffffffff\n  and\n    /* \"SCP/MultiSigWallet.sol\":1462:1467  owner */\n  dup2\n    /* \"SCP/MultiSigWallet.sol\":1462:1481  owner != address(0) */\n  0xffffffffffffffffffffffffffffffffffffffff\n  and\n  eq\n  iszero\n    /* \"SCP/MultiSigWallet.sol\":1454:1498  require(owner != address(0),\"invalid owner\") */\n  tag_19\n  jumpi\n  mload(0x40)\n  0x08c379a000000000000000000000000000000000000000000000000000000000\n  dup2\n  mstore\n  0x04\n  add\n  tag_20\n  swap1\n  tag_21\n  jump\t// in\ntag_20:\n  mload(0x40)\n  dup1\n  swap2\n  sub\n  swap1\n  revert\ntag_19:\n    /* \"SCP/MultiSigWallet.sol\":1521:1528  isOwner */\n  0x01\n    /* \"SCP/MultiSigWallet.sol\":1521:1535  isOwner[owner] */\n  0x00\n    /* \"SCP/MultiSigWallet.sol\":1529:1534  owner */\n  dup3\n    /* \"SCP/MultiSigWallet.sol\":1521:1535  isOwner[owner] */\n  0xffffffffffffffffffffffffffffffffffffffff\n  and\n  0xffffffffffffffffffffffffffffffffffffffff\n  and\n  dup2\n  mstore\n  0x20\n  add\n  swap1\n  dup2\n  mstore\n  0x20\n  add\n  0x00\n  keccak256\n  0x00\n  swap1\n  sload\n  swap1\n  0x0100\n  exp\n  swap1\n  div\n  0xff\n  and\n    /* \"SCP/MultiSigWallet.sol\":1520:1535  !isOwner[owner] */\n  iszero\n    /* \"SCP/MultiSigWallet.sol\":1512:1559  require(!isOwner[owner], \"owner is not unique\") */\n  tag_22\n  jumpi\n  mload(0x40)\n  0x08c379a000000000000000000000000000000000000000000000000000000000\n  dup2\n  mstore\n  0x04\n  add\n  tag_23\n  swap1\n  tag_24\n  jump\t// in\ntag_23:\n  mload(0x40)\n  dup1\n  swap2\n  sub\n  swap1\n  revert\ntag_22:\n    /* \"SCP/MultiSigWallet.sol\":1591:1595  true */\n  0x01\n    /* \"SCP/MultiSigWallet.sol\":1574:1581  isOwner */\n  dup1\n    /* \"SCP/MultiSigWallet.sol\":1574:1588  isOwner[owner] */\n  0x00\n    /* \"SCP/MultiSigWallet.sol\":1582:1587  owner */\n  dup4\n    /* \"SCP/MultiSigWallet.sol\":1574:1588  isOwner[owner] */\n  0xffffffffffffffffffffffffffffffffffffffff\n  and\n  0xffffffffffffffffffffffffffffffffffffffff\n  and\n  dup2\n  mstore\n  0x20\n  add\n  swap1\n  dup2\n  mstore\n  0x20\n  add\n  0x00\n  keccak256\n  0x00\n    /* \"SCP/MultiSigWallet.sol\":1574:1595  isOwner[owner] = true */\n  0x0100\n  exp\n  dup2\n  sload\n  dup2\n  0xff\n  mul\n  not\n  and\n  swap1\n  dup4\n  iszero\n  iszero\n  mul\n  or\n  swap1\n  sstore\n  pop\n    /* \"SCP/MultiSigWallet.sol\":1609:1615  owners */\n  0x00\n    /* \"SCP/MultiSigWallet.sol\":1621:1626  owner */\n  dup2\n    /* \"SCP/MultiSigWallet.sol\":1609:1627  owners.push(owner) */\n  swap1\n  dup1\n  0x01\n  dup2\n  sload\n  add\n  dup1\n  dup3\n  sstore\n  dup1\n  swap2\n  pop\n  pop\n  0x01\n  swap1\n  sub\n  swap1\n  0x00\n  mstore\n  keccak256(0x00, 0x20)\n  add\n  0x00\n  swap1\n  swap2\n  swap1\n  swap2\n  swap1\n  swap2\n  0x0100\n  exp\n  dup2\n  sload\n  dup2\n  0xffffffffffffffffffffffffffffffffffffffff\n  mul\n  not\n  and\n  swap1\n  dup4\n  0xffffffffffffffffffffffffffffffffffffffff\n  and\n  mul\n  or\n  swap1\n  sstore\n  pop\n    /* \"SCP/MultiSigWallet.sol\":1399:1638  {... */\n  pop\n    /* \"SCP/MultiSigWallet.sol\":1394:1397  i++ */\n  dup1\n  dup1\n  tag_26\n  swap1\n  tag_27\n  jump\t// in\ntag_26:\n  swap2\n  pop\n  pop\n    /* \"SCP/MultiSigWallet.sol\":1361:1638  for (uint i; i < _owners.length; i++) {... */\n  jump(tag_13)\ntag_14:\n  pop\n    /* \"SCP/MultiSigWallet.sol\":1658:1667  _required */\n  dup1\n    /* \"SCP/MultiSigWallet.sol\":1647:1655  required */\n  0x02\n    /* \"SCP/MultiSigWallet.sol\":1647:1667  required = _required */\n  dup2\n  swap1\n  sstore\n  pop\n    /* \"SCP/MultiSigWallet.sol\":1131:1674  constructor (address[] memory _owners, uint _required ){... */\n  pop\n  pop\n    /* \"SCP/MultiSigWallet.sol\":58:3198  contract MultiSigWallet {... */\n  jump(tag_28)\n    /* \"#utility.yul\":24:768   */\ntag_30:\n    /* \"#utility.yul\":131:136   */\n  0x00\n    /* \"#utility.yul\":156:237   */\n  tag_32\n    /* \"#utility.yul\":172:236   */\n  tag_33\n    /* \"#utility.yul\":229:235   */\n  dup5\n    /* \"#utility.yul\":172:236   */\n  tag_34\n  jump\t// in\ntag_33:\n    /* \"#utility.yul\":156:237   */\n  tag_35\n  jump\t// in\ntag_32:\n    /* \"#utility.yul\":147:237   */\n  swap1\n  pop\n    /* \"#utility.yul\":257:262   */\n  dup1\n    /* \"#utility.yul\":286:292   */\n  dup4\n    /* \"#utility.yul\":279:284   */\n  dup3\n    /* \"#utility.yul\":272:293   */\n  mstore\n    /* \"#utility.yul\":320:324   */\n  0x20\n    /* \"#utility.yul\":313:318   */\n  dup3\n    /* \"#utility.yul\":309:325   */\n  add\n    /* \"#utility.yul\":302:325   */\n  swap1\n  pop\n    /* \"#utility.yul\":346:352   */\n  dup3\n    /* \"#utility.yul\":396:399   */\n  dup6\n    /* \"#utility.yul\":388:392   */\n  0x20\n    /* \"#utility.yul\":380:386   */\n  dup7\n    /* \"#utility.yul\":376:393   */\n  mul\n    /* \"#utility.yul\":371:374   */\n  dup3\n    /* \"#utility.yul\":367:394   */\n  add\n    /* \"#utility.yul\":364:400   */\n  gt\n    /* \"#utility.yul\":361:504   */\n  iszero\n  tag_36\n  jumpi\n    /* \"#utility.yul\":415:494   */\n  tag_37\n  tag_38\n  jump\t// in\ntag_37:\n    /* \"#utility.yul\":361:504   */\ntag_36:\n    /* \"#utility.yul\":528:529   */\n  0x00\n    /* \"#utility.yul\":513:762   */\ntag_39:\n    /* \"#utility.yul\":538:544   */\n  dup6\n    /* \"#utility.yul\":535:536   */\n  dup2\n    /* \"#utility.yul\":532:545   */\n  lt\n    /* \"#utility.yul\":513:762   */\n  iszero\n  tag_41\n  jumpi\n    /* \"#utility.yul\":606:609   */\n  dup2\n    /* \"#utility.yul\":635:683   */\n  tag_42\n    /* \"#utility.yul\":679:682   */\n  dup9\n    /* \"#utility.yul\":667:677   */\n  dup3\n    /* \"#utility.yul\":635:683   */\n  tag_43\n  jump\t// in\ntag_42:\n    /* \"#utility.yul\":630:633   */\n  dup5\n    /* \"#utility.yul\":623:684   */\n  mstore\n    /* \"#utility.yul\":713:717   */\n  0x20\n    /* \"#utility.yul\":708:711   */\n  dup5\n    /* \"#utility.yul\":704:718   */\n  add\n    /* \"#utility.yul\":697:718   */\n  swap4\n  pop\n    /* \"#utility.yul\":747:751   */\n  0x20\n    /* \"#utility.yul\":742:745   */\n  dup4\n    /* \"#utility.yul\":738:752   */\n  add\n    /* \"#utility.yul\":731:752   */\n  swap3\n  pop\n    /* \"#utility.yul\":573:762   */\n  pop\n    /* \"#utility.yul\":560:561   */\n  0x01\n    /* \"#utility.yul\":557:558   */\n  dup2\n    /* \"#utility.yul\":553:562   */\n  add\n    /* \"#utility.yul\":548:562   */\n  swap1\n  pop\n    /* \"#utility.yul\":513:762   */\n  jump(tag_39)\ntag_41:\n    /* \"#utility.yul\":517:531   */\n  pop\n    /* \"#utility.yul\":137:768   */\n  pop\n  pop\n    /* \"#utility.yul\":24:768   */\n  swap4\n  swap3\n  pop\n  pop\n  pop\n  jump\t// out\n    /* \"#utility.yul\":774:917   */\ntag_43:\n    /* \"#utility.yul\":831:836   */\n  0x00\n    /* \"#utility.yul\":862:868   */\n  dup2\n    /* \"#utility.yul\":856:869   */\n  mload\n    /* \"#utility.yul\":847:869   */\n  swap1\n  pop\n    /* \"#utility.yul\":878:911   */\n  tag_45\n    /* \"#utility.yul\":905:910   */\n  dup2\n    /* \"#utility.yul\":878:911   */\n  tag_46\n  jump\t// in\ntag_45:\n    /* \"#utility.yul\":774:917   */\n  swap3\n  swap2\n  pop\n  pop\n  jump\t// out\n    /* \"#utility.yul\":940:1325   */\ntag_47:\n    /* \"#utility.yul\":1022:1027   */\n  0x00\n    /* \"#utility.yul\":1071:1074   */\n  dup3\n    /* \"#utility.yul\":1064:1068   */\n  0x1f\n    /* \"#utility.yul\":1056:1062   */\n  dup4\n    /* \"#utility.yul\":1052:1069   */\n  add\n    /* \"#utility.yul\":1048:1075   */\n  slt\n    /* \"#utility.yul\":1038:1160   */\n  tag_49\n  jumpi\n    /* \"#utility.yul\":1079:1158   */\n  tag_50\n  tag_51\n  jump\t// in\ntag_50:\n    /* \"#utility.yul\":1038:1160   */\ntag_49:\n    /* \"#utility.yul\":1189:1195   */\n  dup2\n    /* \"#utility.yul\":1183:1196   */\n  mload\n    /* \"#utility.yul\":1214:1319   */\n  tag_52\n    /* \"#utility.yul\":1315:1318   */\n  dup5\n    /* \"#utility.yul\":1307:1313   */\n  dup3\n    /* \"#utility.yul\":1300:1304   */\n  0x20\n    /* \"#utility.yul\":1292:1298   */\n  dup7\n    /* \"#utility.yul\":1288:1305   */\n  add\n    /* \"#utility.yul\":1214:1319   */\n  tag_30\n  jump\t// in\ntag_52:\n    /* \"#utility.yul\":1205:1319   */\n  swap2\n  pop\n    /* \"#utility.yul\":1028:1325   */\n  pop\n    /* \"#utility.yul\":940:1325   */\n  swap3\n  swap2\n  pop\n  pop\n  jump\t// out\n    /* \"#utility.yul\":1331:1474   */\ntag_53:\n    /* \"#utility.yul\":1388:1393   */\n  0x00\n    /* \"#utility.yul\":1419:1425   */\n  dup2\n    /* \"#utility.yul\":1413:1426   */\n  mload\n    /* \"#utility.yul\":1404:1426   */\n  swap1\n  pop\n    /* \"#utility.yul\":1435:1468   */\n  tag_55\n    /* \"#utility.yul\":1462:1467   */\n  dup2\n    /* \"#utility.yul\":1435:1468   */\n  tag_56\n  jump\t// in\ntag_55:\n    /* \"#utility.yul\":1331:1474   */\n  swap3\n  swap2\n  pop\n  pop\n  jump\t// out\n    /* \"#utility.yul\":1480:2190   */\ntag_3:\n    /* \"#utility.yul\":1584:1590   */\n  0x00\n    /* \"#utility.yul\":1592:1598   */\n  dup1\n    /* \"#utility.yul\":1641:1643   */\n  0x40\n    /* \"#utility.yul\":1629:1638   */\n  dup4\n    /* \"#utility.yul\":1620:1627   */\n  dup6\n    /* \"#utility.yul\":1616:1639   */\n  sub\n    /* \"#utility.yul\":1612:1644   */\n  slt\n    /* \"#utility.yul\":1609:1728   */\n  iszero\n  tag_58\n  jumpi\n    /* \"#utility.yul\":1647:1726   */\n  tag_59\n  tag_60\n  jump\t// in\ntag_59:\n    /* \"#utility.yul\":1609:1728   */\ntag_58:\n    /* \"#utility.yul\":1788:1789   */\n  0x00\n    /* \"#utility.yul\":1777:1786   */\n  dup4\n    /* \"#utility.yul\":1773:1790   */\n  add\n    /* \"#utility.yul\":1767:1791   */\n  mload\n    /* \"#utility.yul\":1818:1836   */\n  0xffffffffffffffff\n    /* \"#utility.yul\":1810:1816   */\n  dup2\n    /* \"#utility.yul\":1807:1837   */\n  gt\n    /* \"#utility.yul\":1804:1921   */\n  iszero\n  tag_61\n  jumpi\n    /* \"#utility.yul\":1840:1919   */\n  tag_62\n  tag_63\n  jump\t// in\ntag_62:\n    /* \"#utility.yul\":1804:1921   */\ntag_61:\n    /* \"#utility.yul\":1945:2034   */\n  tag_64\n    /* \"#utility.yul\":2026:2033   */\n  dup6\n    /* \"#utility.yul\":2017:2023   */\n  dup3\n    /* \"#utility.yul\":2006:2015   */\n  dup7\n    /* \"#utility.yul\":2002:2024   */\n  add\n    /* \"#utility.yul\":1945:2034   */\n  tag_47\n  jump\t// in\ntag_64:\n    /* \"#utility.yul\":1935:2034   */\n  swap3\n  pop\n    /* \"#utility.yul\":1738:2044   */\n  pop\n    /* \"#utility.yul\":2083:2085   */\n  0x20\n    /* \"#utility.yul\":2109:2173   */\n  tag_65\n    /* \"#utility.yul\":2165:2172   */\n  dup6\n    /* \"#utility.yul\":2156:2162   */\n  dup3\n    /* \"#utility.yul\":2145:2154   */\n  dup7\n    /* \"#utility.yul\":2141:2163   */\n  add\n    /* \"#utility.yul\":2109:2173   */\n  tag_53\n  jump\t// in\ntag_65:\n    /* \"#utility.yul\":2099:2173   */\n  swap2\n  pop\n    /* \"#utility.yul\":2054:2183   */\n  pop\n    /* \"#utility.yul\":1480:2190   */\n  swap3\n  pop\n  swap3\n  swap1\n  pop\n  jump\t// out\n    /* \"#utility.yul\":2196:2562   */\ntag_66:\n    /* \"#utility.yul\":2338:2341   */\n  0x00\n    /* \"#utility.yul\":2359:2426   */\n  tag_68\n    /* \"#utility.yul\":2423:2425   */\n  0x13\n    /* \"#utility.yul\":2418:2421   */\n  dup4\n    /* \"#utility.yul\":2359:2426   */\n  tag_69\n  jump\t// in\ntag_68:\n    /* \"#utility.yul\":2352:2426   */\n  swap2\n  pop\n    /* \"#utility.yul\":2435:2528   */\n  tag_70\n    /* \"#utility.yul\":2524:2527   */\n  dup3\n    /* \"#utility.yul\":2435:2528   */\n  tag_71\n  jump\t// in\ntag_70:\n    /* \"#utility.yul\":2553:2555   */\n  0x20\n    /* \"#utility.yul\":2548:2551   */\n  dup3\n    /* \"#utility.yul\":2544:2556   */\n  add\n    /* \"#utility.yul\":2537:2556   */\n  swap1\n  pop\n    /* \"#utility.yul\":2196:2562   */\n  swap2\n  swap1\n  pop\n  jump\t// out\n    /* \"#utility.yul\":2568:2934   */\ntag_72:\n    /* \"#utility.yul\":2710:2713   */\n  0x00\n    /* \"#utility.yul\":2731:2798   */\n  tag_74\n    /* \"#utility.yul\":2795:2797   */\n  0x0f\n    /* \"#utility.yul\":2790:2793   */\n  dup4\n    /* \"#utility.yul\":2731:2798   */\n  tag_69\n  jump\t// in\ntag_74:\n    /* \"#utility.yul\":2724:2798   */\n  swap2\n  pop\n    /* \"#utility.yul\":2807:2900   */\n  tag_75\n    /* \"#utility.yul\":2896:2899   */\n  dup3\n    /* \"#utility.yul\":2807:2900   */\n  tag_76\n  jump\t// in\ntag_75:\n    /* \"#utility.yul\":2925:2927   */\n  0x20\n    /* \"#utility.yul\":2920:2923   */\n  dup3\n    /* \"#utility.yul\":2916:2928   */\n  add\n    /* \"#utility.yul\":2909:2928   */\n  swap1\n  pop\n    /* \"#utility.yul\":2568:2934   */\n  swap2\n  swap1\n  pop\n  jump\t// out\n    /* \"#utility.yul\":2940:3306   */\ntag_77:\n    /* \"#utility.yul\":3082:3085   */\n  0x00\n    /* \"#utility.yul\":3103:3170   */\n  tag_79\n    /* \"#utility.yul\":3167:3169   */\n  0x0d\n    /* \"#utility.yul\":3162:3165   */\n  dup4\n    /* \"#utility.yul\":3103:3170   */\n  tag_69\n  jump\t// in\ntag_79:\n    /* \"#utility.yul\":3096:3170   */\n  swap2\n  pop\n    /* \"#utility.yul\":3179:3272   */\n  tag_80\n    /* \"#utility.yul\":3268:3271   */\n  dup3\n    /* \"#utility.yul\":3179:3272   */\n  tag_81\n  jump\t// in\ntag_80:\n    /* \"#utility.yul\":3297:3299   */\n  0x20\n    /* \"#utility.yul\":3292:3295   */\n  dup3\n    /* \"#utility.yul\":3288:3300   */\n  add\n    /* \"#utility.yul\":3281:3300   */\n  swap1\n  pop\n    /* \"#utility.yul\":2940:3306   */\n  swap2\n  swap1\n  pop\n  jump\t// out\n    /* \"#utility.yul\":3312:3678   */\ntag_82:\n    /* \"#utility.yul\":3454:3457   */\n  0x00\n    /* \"#utility.yul\":3475:3542   */\n  tag_84\n    /* \"#utility.yul\":3539:3541   */\n  0x21\n    /* \"#utility.yul\":3534:3537   */\n  dup4\n    /* \"#utility.yul\":3475:3542   */\n  tag_69\n  jump\t// in\ntag_84:\n    /* \"#utility.yul\":3468:3542   */\n  swap2\n  pop\n    /* \"#utility.yul\":3551:3644   */\n  tag_85\n    /* \"#utility.yul\":3640:3643   */\n  dup3\n    /* \"#utility.yul\":3551:3644   */\n  tag_86\n  jump\t// in\ntag_85:\n    /* \"#utility.yul\":3669:3671   */\n  0x40\n    /* \"#utility.yul\":3664:3667   */\n  dup3\n    /* \"#utility.yul\":3660:3672   */\n  add\n    /* \"#utility.yul\":3653:3672   */\n  swap1\n  pop\n    /* \"#utility.yul\":3312:3678   */\n  swap2\n  swap1\n  pop\n  jump\t// out\n    /* \"#utility.yul\":3684:4103   */\ntag_24:\n    /* \"#utility.yul\":3850:3854   */\n  0x00\n    /* \"#utility.yul\":3888:3890   */\n  0x20\n    /* \"#utility.yul\":3877:3886   */\n  dup3\n    /* \"#utility.yul\":3873:3891   */\n  add\n    /* \"#utility.yul\":3865:3891   */\n  swap1\n  pop\n    /* \"#utility.yul\":3937:3946   */\n  dup2\n    /* \"#utility.yul\":3931:3935   */\n  dup2\n    /* \"#utility.yul\":3927:3947   */\n  sub\n    /* \"#utility.yul\":3923:3924   */\n  0x00\n    /* \"#utility.yul\":3912:3921   */\n  dup4\n    /* \"#utility.yul\":3908:3925   */\n  add\n    /* \"#utility.yul\":3901:3948   */\n  mstore\n    /* \"#utility.yul\":3965:4096   */\n  tag_88\n    /* \"#utility.yul\":4091:4095   */\n  dup2\n    /* \"#utility.yul\":3965:4096   */\n  tag_66\n  jump\t// in\ntag_88:\n    /* \"#utility.yul\":3957:4096   */\n  swap1\n  pop\n    /* \"#utility.yul\":3684:4103   */\n  swap2\n  swap1\n  pop\n  jump\t// out\n    /* \"#utility.yul\":4109:4528   */\ntag_8:\n    /* \"#utility.yul\":4275:4279   */\n  0x00\n    /* \"#utility.yul\":4313:4315   */\n  0x20\n    /* \"#utility.yul\":4302:4311   */\n  dup3\n    /* \"#utility.yul\":4298:4316   */\n  add\n    /* \"#utility.yul\":4290:4316   */\n  swap1\n  pop\n    /* \"#utility.yul\":4362:4371   */\n  dup2\n    /* \"#utility.yul\":4356:4360   */\n  dup2\n    /* \"#utility.yul\":4352:4372   */\n  sub\n    /* \"#utility.yul\":4348:4349   */\n  0x00\n    /* \"#utility.yul\":4337:4346   */\n  dup4\n    /* \"#utility.yul\":4333:4350   */\n  add\n    /* \"#utility.yul\":4326:4373   */\n  mstore\n    /* \"#utility.yul\":4390:4521   */\n  tag_90\n    /* \"#utility.yul\":4516:4520   */\n  dup2\n    /* \"#utility.yul\":4390:4521   */\n  tag_72\n  jump\t// in\ntag_90:\n    /* \"#utility.yul\":4382:4521   */\n  swap1\n  pop\n    /* \"#utility.yul\":4109:4528   */\n  swap2\n  swap1\n  pop\n  jump\t// out\n    /* \"#utility.yul\":4534:4953   */\ntag_21:\n    /* \"#utility.yul\":4700:4704   */\n  0x00\n    /* \"#utility.yul\":4738:4740   */\n  0x20\n    /* \"#utility.yul\":4727:4736   */\n  dup3\n    /* \"#utility.yul\":4723:4741   */\n  add\n    /* \"#utility.yul\":4715:4741   */\n  swap1\n  pop\n    /* \"#utility.yul\":4787:4796   */\n  dup2\n    /* \"#utility.yul\":4781:4785   */\n  dup2\n    /* \"#utility.yul\":4777:4797   */\n  sub\n    /* \"#utility.yul\":4773:4774   */\n  0x00\n    /* \"#utility.yul\":4762:4771   */\n  dup4\n    /* \"#utility.yul\":4758:4775   */\n  add\n    /* \"#utility.yul\":4751:4798   */\n  mstore\n    /* \"#utility.yul\":4815:4946   */\n  tag_92\n    /* \"#utility.yul\":4941:4945   */\n  dup2\n    /* \"#utility.yul\":4815:4946   */\n  tag_77\n  jump\t// in\ntag_92:\n    /* \"#utility.yul\":4807:4946   */\n  swap1\n  pop\n    /* \"#utility.yul\":4534:4953   */\n  swap2\n  swap1\n  pop\n  jump\t// out\n    /* \"#utility.yul\":4959:5378   */\ntag_12:\n    /* \"#utility.yul\":5125:5129   */\n  0x00\n    /* \"#utility.yul\":5163:5165   */\n  0x20\n    /* \"#utility.yul\":5152:5161   */\n  dup3\n    /* \"#utility.yul\":5148:5166   */\n  add\n    /* \"#utility.yul\":5140:5166   */\n  swap1\n  pop\n    /* \"#utility.yul\":5212:5221   */\n  dup2\n    /* \"#utility.yul\":5206:5210   */\n  dup2\n    /* \"#utility.yul\":5202:5222   */\n  sub\n    /* \"#utility.yul\":5198:5199   */\n  0x00\n    /* \"#utility.yul\":5187:5196   */\n  dup4\n    /* \"#utility.yul\":5183:5200   */\n  add\n    /* \"#utility.yul\":5176:5223   */\n  mstore\n    /* \"#utility.yul\":5240:5371   */\n  tag_94\n    /* \"#utility.yul\":5366:5370   */\n  dup2\n    /* \"#utility.yul\":5240:5371   */\n  tag_82\n  jump\t// in\ntag_94:\n    /* \"#utility.yul\":5232:5371   */\n  swap1\n  pop\n    /* \"#utility.yul\":4959:5378   */\n  swap2\n  swap1\n  pop\n  jump\t// out\n    /* \"#utility.yul\":5384:5513   */\ntag_35:\n    /* \"#utility.yul\":5418:5424   */\n  0x00\n    /* \"#utility.yul\":5445:5465   */\n  tag_96\n  tag_97\n  jump\t// in\ntag_96:\n    /* \"#utility.yul\":5435:5465   */\n  swap1\n  pop\n    /* \"#utility.yul\":5474:5507   */\n  tag_98\n    /* \"#utility.yul\":5502:5506   */\n  dup3\n    /* \"#utility.yul\":5494:5500   */\n  dup3\n    /* \"#utility.yul\":5474:5507   */\n  tag_99\n  jump\t// in\ntag_98:\n    /* \"#utility.yul\":5384:5513   */\n  swap2\n  swap1\n  pop\n  jump\t// out\n    /* \"#utility.yul\":5519:5594   */\ntag_97:\n    /* \"#utility.yul\":5552:5558   */\n  0x00\n    /* \"#utility.yul\":5585:5587   */\n  0x40\n    /* \"#utility.yul\":5579:5588   */\n  mload\n    /* \"#utility.yul\":5569:5588   */\n  swap1\n  pop\n    /* \"#utility.yul\":5519:5594   */\n  swap1\n  jump\t// out\n    /* \"#utility.yul\":5600:5911   */\ntag_34:\n    /* \"#utility.yul\":5677:5681   */\n  0x00\n    /* \"#utility.yul\":5767:5785   */\n  0xffffffffffffffff\n    /* \"#utility.yul\":5759:5765   */\n  dup3\n    /* \"#utility.yul\":5756:5786   */\n  gt\n    /* \"#utility.yul\":5753:5809   */\n  iszero\n  tag_102\n  jumpi\n    /* \"#utility.yul\":5789:5807   */\n  tag_103\n  tag_104\n  jump\t// in\ntag_103:\n    /* \"#utility.yul\":5753:5809   */\ntag_102:\n    /* \"#utility.yul\":5839:5843   */\n  0x20\n    /* \"#utility.yul\":5831:5837   */\n  dup3\n    /* \"#utility.yul\":5827:5844   */\n  mul\n    /* \"#utility.yul\":5819:5844   */\n  swap1\n  pop\n    /* \"#utility.yul\":5899:5903   */\n  0x20\n    /* \"#utility.yul\":5893:5897   */\n  dup2\n    /* \"#utility.yul\":5889:5904   */\n  add\n    /* \"#utility.yul\":5881:5904   */\n  swap1\n  pop\n    /* \"#utility.yul\":5600:5911   */\n  swap2\n  swap1\n  pop\n  jump\t// out\n    /* \"#utility.yul\":5917:6086   */\ntag_69:\n    /* \"#utility.yul\":6001:6012   */\n  0x00\n    /* \"#utility.yul\":6035:6041   */\n  dup3\n    /* \"#utility.yul\":6030:6033   */\n  dup3\n    /* \"#utility.yul\":6023:6042   */\n  mstore\n    /* \"#utility.yul\":6075:6079   */\n  0x20\n    /* \"#utility.yul\":6070:6073   */\n  dup3\n    /* \"#utility.yul\":6066:6080   */\n  add\n    /* \"#utility.yul\":6051:6080   */\n  swap1\n  pop\n    /* \"#utility.yul\":5917:6086   */\n  swap3\n  swap2\n  pop\n  pop\n  jump\t// out\n    /* \"#utility.yul\":6092:6188   */\ntag_106:\n    /* \"#utility.yul\":6129:6136   */\n  0x00\n    /* \"#utility.yul\":6158:6182   */\n  tag_108\n    /* \"#utility.yul\":6176:6181   */\n  dup3\n    /* \"#utility.yul\":6158:6182   */\n  tag_109\n  jump\t// in\ntag_108:\n    /* \"#utility.yul\":6147:6182   */\n  swap1\n  pop\n    /* \"#utility.yul\":6092:6188   */\n  swap2\n  swap1\n  pop\n  jump\t// out\n    /* \"#utility.yul\":6194:6320   */\ntag_109:\n    /* \"#utility.yul\":6231:6238   */\n  0x00\n    /* \"#utility.yul\":6271:6313   */\n  0xffffffffffffffffffffffffffffffffffffffff\n    /* \"#utility.yul\":6264:6269   */\n  dup3\n    /* \"#utility.yul\":6260:6314   */\n  and\n    /* \"#utility.yul\":6249:6314   */\n  swap1\n  pop\n    /* \"#utility.yul\":6194:6320   */\n  swap2\n  swap1\n  pop\n  jump\t// out\n    /* \"#utility.yul\":6326:6403   */\ntag_111:\n    /* \"#utility.yul\":6363:6370   */\n  0x00\n    /* \"#utility.yul\":6392:6397   */\n  dup2\n    /* \"#utility.yul\":6381:6397   */\n  swap1\n  pop\n    /* \"#utility.yul\":6326:6403   */\n  swap2\n  swap1\n  pop\n  jump\t// out\n    /* \"#utility.yul\":6409:6690   */\ntag_99:\n    /* \"#utility.yul\":6492:6519   */\n  tag_114\n    /* \"#utility.yul\":6514:6518   */\n  dup3\n    /* \"#utility.yul\":6492:6519   */\n  tag_115\n  jump\t// in\ntag_114:\n    /* \"#utility.yul\":6484:6490   */\n  dup2\n    /* \"#utility.yul\":6480:6520   */\n  add\n    /* \"#utility.yul\":6622:6628   */\n  dup2\n    /* \"#utility.yul\":6610:6620   */\n  dup2\n    /* \"#utility.yul\":6607:6629   */\n  lt\n    /* \"#utility.yul\":6586:6604   */\n  0xffffffffffffffff\n    /* \"#utility.yul\":6574:6584   */\n  dup3\n    /* \"#utility.yul\":6571:6605   */\n  gt\n    /* \"#utility.yul\":6568:6630   */\n  or\n    /* \"#utility.yul\":6565:6653   */\n  iszero\n  tag_116\n  jumpi\n    /* \"#utility.yul\":6633:6651   */\n  tag_117\n  tag_104\n  jump\t// in\ntag_117:\n    /* \"#utility.yul\":6565:6653   */\ntag_116:\n    /* \"#utility.yul\":6673:6683   */\n  dup1\n    /* \"#utility.yul\":6669:6671   */\n  0x40\n    /* \"#utility.yul\":6662:6684   */\n  mstore\n    /* \"#utility.yul\":6452:6690   */\n  pop\n    /* \"#utility.yul\":6409:6690   */\n  pop\n  pop\n  jump\t// out\n    /* \"#utility.yul\":6696:6929   */\ntag_27:\n    /* \"#utility.yul\":6735:6738   */\n  0x00\n    /* \"#utility.yul\":6758:6782   */\n  tag_119\n    /* \"#utility.yul\":6776:6781   */\n  dup3\n    /* \"#utility.yul\":6758:6782   */\n  tag_111\n  jump\t// in\ntag_119:\n    /* \"#utility.yul\":6749:6782   */\n  swap2\n  pop\n    /* \"#utility.yul\":6804:6870   */\n  0xffffffffffffffffffffffffffffffffffffffffffffffffffffffffffffffff\n    /* \"#utility.yul\":6797:6802   */\n  dup3\n    /* \"#utility.yul\":6794:6871   */\n  eq\n    /* \"#utility.yul\":6791:6894   */\n  iszero\n  tag_120\n  jumpi\n    /* \"#utility.yul\":6874:6892   */\n  tag_121\n  tag_122\n  jump\t// in\ntag_121:\n    /* \"#utility.yul\":6791:6894   */\ntag_120:\n    /* \"#utility.yul\":6921:6922   */\n  0x01\n    /* \"#utility.yul\":6914:6919   */\n  dup3\n    /* \"#utility.yul\":6910:6923   */\n  add\n    /* \"#utility.yul\":6903:6923   */\n  swap1\n  pop\n    /* \"#utility.yul\":6696:6929   */\n  swap2\n  swap1\n  pop\n  jump\t// out\n    /* \"#utility.yul\":6935:7115   */\ntag_122:\n    /* \"#utility.yul\":6983:7060   */\n  0x4e487b7100000000000000000000000000000000000000000000000000000000\n    /* \"#utility.yul\":6980:6981   */\n  0x00\n    /* \"#utility.yul\":6973:7061   */\n  mstore\n    /* \"#utility.yul\":7080:7084   */\n  0x11\n    /* \"#utility.yul\":7077:7078   */\n  0x04\n    /* \"#utility.yul\":7070:7085   */\n  mstore\n    /* \"#utility.yul\":7104:7108   */\n  0x24\n    /* \"#utility.yul\":7101:7102   */\n  0x00\n    /* \"#utility.yul\":7094:7109   */\n  revert\n    /* \"#utility.yul\":7121:7301   */\ntag_18:\n    /* \"#utility.yul\":7169:7246   */\n  0x4e487b7100000000000000000000000000000000000000000000000000000000\n    /* \"#utility.yul\":7166:7167   */\n  0x00\n    /* \"#utility.yul\":7159:7247   */\n  mstore\n    /* \"#utility.yul\":7266:7270   */\n  0x32\n    /* \"#utility.yul\":7263:7264   */\n  0x04\n    /* \"#utility.yul\":7256:7271   */\n  mstore\n    /* \"#utility.yul\":7290:7294   */\n  0x24\n    /* \"#utility.yul\":7287:7288   */\n  0x00\n    /* \"#utility.yul\":7280:7295   */\n  revert\n    /* \"#utility.yul\":7307:7487   */\ntag_104:\n    /* \"#utility.yul\":7355:7432   */\n  0x4e487b7100000000000000000000000000000000000000000000000000000000\n    /* \"#utility.yul\":7352:7353   */\n  0x00\n    /* \"#utility.yul\":7345:7433   */\n  mstore\n    /* \"#utility.yul\":7452:7456   */\n  0x41\n    /* \"#utility.yul\":7449:7450   */\n  0x04\n    /* \"#utility.yul\":7442:7457   */\n  mstore\n    /* \"#utility.yul\":7476:7480   */\n  0x24\n    /* \"#utility.yul\":7473:7474   */\n  0x00\n    /* \"#utility.yul\":7466:7481   */\n  revert\n    /* \"#utility.yul\":7493:7610   */\ntag_51:\n    /* \"#utility.yul\":7602:7603   */\n  0x00\n    /* \"#utility.yul\":7599:7600   */\n  dup1\n    /* \"#utility.yul\":7592:7604   */\n  revert\n    /* \"#utility.yul\":7616:7733   */\ntag_38:\n    /* \"#utility.yul\":7725:7726   */\n  0x00\n    /* \"#utility.yul\":7722:7723   */\n  dup1\n    /* \"#utility.yul\":7715:7727   */\n  revert\n    /* \"#utility.yul\":7739:7856   */\ntag_63:\n    /* \"#utility.yul\":7848:7849   */\n  0x00\n    /* \"#utility.yul\":7845:7846   */\n  dup1\n    /* \"#utility.yul\":7838:7850   */\n  revert\n    /* \"#utility.yul\":7862:7979   */\ntag_60:\n    /* \"#utility.yul\":7971:7972   */\n  0x00\n    /* \"#utility.yul\":7968:7969   */\n  dup1\n    /* \"#utility.yul\":7961:7973   */\n  revert\n    /* \"#utility.yul\":7985:8087   */\ntag_115:\n    /* \"#utility.yul\":8026:8032   */\n  0x00\n    /* \"#utility.yul\":8077:8079   */\n  0x1f\n    /* \"#utility.yul\":8073:8080   */\n  not\n    /* \"#utility.yul\":8068:8070   */\n  0x1f\n    /* \"#utility.yul\":8061:8066   */\n  dup4\n    /* \"#utility.yul\":8057:8071   */\n  add\n    /* \"#utility.yul\":8053:8081   */\n  and\n    /* \"#utility.yul\":8043:8081   */\n  swap1\n  pop\n    /* \"#utility.yul\":7985:8087   */\n  swap2\n  swap1\n  pop\n  jump\t// out\n    /* \"#utility.yul\":8093:8262   */\ntag_71:\n    /* \"#utility.yul\":8233:8254   */\n  0x6f776e6572206973206e6f7420756e6971756500000000000000000000000000\n    /* \"#utility.yul\":8229:8230   */\n  0x00\n    /* \"#utility.yul\":8221:8227   */\n  dup3\n    /* \"#utility.yul\":8217:8231   */\n  add\n    /* \"#utility.yul\":8210:8255   */\n  mstore\n    /* \"#utility.yul\":8093:8262   */\n  pop\n  jump\t// out\n    /* \"#utility.yul\":8268:8433   */\ntag_76:\n    /* \"#utility.yul\":8408:8425   */\n  0x6f776e6572732072657175697265640000000000000000000000000000000000\n    /* \"#utility.yul\":8404:8405   */\n  0x00\n    /* \"#utility.yul\":8396:8402   */\n  dup3\n    /* \"#utility.yul\":8392:8406   */\n  add\n    /* \"#utility.yul\":8385:8426   */\n  mstore\n    /* \"#utility.yul\":8268:8433   */\n  pop\n  jump\t// out\n    /* \"#utility.yul\":8439:8602   */\ntag_81:\n    /* \"#utility.yul\":8579:8594   */\n  0x696e76616c6964206f776e657200000000000000000000000000000000000000\n    /* \"#utility.yul\":8575:8576   */\n  0x00\n    /* \"#utility.yul\":8567:8573   */\n  dup3\n    /* \"#utility.yul\":8563:8577   */\n  add\n    /* \"#utility.yul\":8556:8595   */\n  mstore\n    /* \"#utility.yul\":8439:8602   */\n  pop\n  jump\t// out\n    /* \"#utility.yul\":8608:8828   */\ntag_86:\n    /* \"#utility.yul\":8748:8782   */\n  0x696e76616c6964207265717569726564206e756d626572206f66206f776e6572\n    /* \"#utility.yul\":8744:8745   */\n  0x00\n    /* \"#utility.yul\":8736:8742   */\n  dup3\n    /* \"#utility.yul\":8732:8746   */\n  add\n    /* \"#utility.yul\":8725:8783   */\n  mstore\n    /* \"#utility.yul\":8817:8820   */\n  0x7300000000000000000000000000000000000000000000000000000000000000\n    /* \"#utility.yul\":8812:8814   */\n  0x20\n    /* \"#utility.yul\":8804:8810   */\n  dup3\n    /* \"#utility.yul\":8800:8815   */\n  add\n    /* \"#utility.yul\":8793:8821   */\n  mstore\n    /* \"#utility.yul\":8608:8828   */\n  pop\n  jump\t// out\n    /* \"#utility.yul\":8834:8956   */\ntag_46:\n    /* \"#utility.yul\":8907:8931   */\n  tag_136\n    /* \"#utility.yul\":8925:8930   */\n  dup2\n    /* \"#utility.yul\":8907:8931   */\n  tag_106\n  jump\t// in\ntag_136:\n    /* \"#utility.yul\":8900:8905   */\n  dup2\n    /* \"#utility.yul\":8897:8932   */\n  eq\n    /* \"#utility.yul\":8887:8950   */\n  tag_137\n  jumpi\n    /* \"#utility.yul\":8946:8947   */\n  0x00\n    /* \"#utility.yul\":8943:8944   */\n  dup1\n    /* \"#utility.yul\":8936:8948   */\n  revert\n    /* \"#utility.yul\":8887:8950   */\ntag_137:\n    /* \"#utility.yul\":8834:8956   */\n  pop\n  jump\t// out\n    /* \"#utility.yul\":8962:9084   */\ntag_56:\n    /* \"#utility.yul\":9035:9059   */\n  tag_139\n    /* \"#utility.yul\":9053:9058   */\n  dup2\n    /* \"#utility.yul\":9035:9059   */\n  tag_111\n  jump\t// in\ntag_139:\n    /* \"#utility.yul\":9028:9033   */\n  dup2\n    /* \"#utility.yul\":9025:9060   */\n  eq\n    /* \"#utility.yul\":9015:9078   */\n  tag_140\n  jumpi\n    /* \"#utility.yul\":9074:9075   */\n  0x00\n    /* \"#utility.yul\":9071:9072   */\n  dup1\n    /* \"#utility.yul\":9064:9076   */\n  revert\n    /* \"#utility.yul\":9015:9078   */\ntag_140:\n    /* \"#utility.yul\":8962:9084   */\n  pop\n  jump\t// out\n    /* \"SCP/MultiSigWallet.sol\":58:3198  contract MultiSigWallet {... */\ntag_28:\n  dataSize(sub_0)\n  dup1\n  dataOffset(sub_0)\n  0x00\n  codecopy\n  0x00\n  return\nstop\n\nsub_0: assembly {\n        /* \"SCP/MultiSigWallet.sol\":58:3198  contract MultiSigWallet {... */\n      mstore(0x40, 0x80)\n      jumpi(tag_1, lt(calldatasize, 0x04))\n      shr(0xe0, calldataload(0x00))\n      dup1\n      0x8253951a\n      gt\n      tag_12\n      jumpi\n      dup1\n      0x8253951a\n      eq\n      tag_7\n      jumpi\n      dup1\n      0x9ace38c2\n      eq\n      tag_8\n      jumpi\n      dup1\n      0xb759f954\n      eq\n      tag_9\n      jumpi\n      dup1\n      0xdc8452cd\n      eq\n      tag_10\n      jumpi\n      dup1\n      0xfe0d94c1\n      eq\n      tag_11\n      jumpi\n      jump(tag_2)\n    tag_12:\n      dup1\n      0x025e7c27\n      eq\n      tag_3\n      jumpi\n      dup1\n      0x14de327f\n      eq\n      tag_4\n      jumpi\n      dup1\n      0x20c5429b\n      eq\n      tag_5\n      jumpi\n      dup1\n      0x2f54bf6e\n      eq\n      tag_6\n      jumpi\n      jump(tag_2)\n    tag_1:\n      jumpi(tag_2, calldatasize)\n        /* \"SCP/MultiSigWallet.sol\":1730:1740  msg.sender */\n      caller\n        /* \"SCP/MultiSigWallet.sol\":1722:1752  Deposit(msg.sender, msg.value) */\n      0xffffffffffffffffffffffffffffffffffffffff\n      and\n      0xe1fffcc4923d04b559f4d29a8bfc6cda04eb5b0d3c460751c2402c5c5cc9109c\n        /* \"SCP/MultiSigWallet.sol\":1742:1751  msg.value */\n      callvalue\n        /* \"SCP/MultiSigWallet.sol\":1722:1752  Deposit(msg.sender, msg.value) */\n      mload(0x40)\n      tag_15\n      swap2\n      swap1\n      tag_16\n      jump\t// in\n    tag_15:\n      mload(0x40)\n      dup1\n      swap2\n      sub\n      swap1\n      log2\n        /* \"SCP/MultiSigWallet.sol\":58:3198  contract MultiSigWallet {... */\n      stop\n    tag_2:\n      0x00\n      dup1\n      revert\n        /* \"SCP/MultiSigWallet.sol\":457:480  address[] public owners */\n    tag_3:\n      callvalue\n      dup1\n      iszero\n      tag_17\n      jumpi\n      0x00\n      dup1\n      revert\n    tag_17:\n      pop\n      tag_18\n      0x04\n      dup1\n      calldatasize\n      sub\n      dup2\n      add\n      swap1\n      tag_19\n      swap2\n      swap1\n      tag_20\n      jump\t// in\n    tag_19:\n      tag_21\n      jump\t// in\n    tag_18:\n      mload(0x40)\n      tag_22\n      swap2\n      swap1\n      tag_23\n      jump\t// in\n    tag_22:\n      mload(0x40)\n      dup1\n      swap2\n      sub\n      swap1\n      return\n        /* \"SCP/MultiSigWallet.sol\":1765:2071  function submit(address _to, uint _value, bytes calldata _data) ... */\n    tag_4:\n      callvalue\n      dup1\n      iszero\n      tag_24\n      jumpi\n      0x00\n      dup1\n      revert\n    tag_24:\n      pop\n      tag_25\n      0x04\n      dup1\n      calldatasize\n      sub\n      dup2\n      add\n      swap1\n      tag_26\n      swap2\n      swap1\n      tag_27\n      jump\t// in\n    tag_26:\n      tag_28\n      jump\t// in\n    tag_25:\n      stop\n        /* \"SCP/MultiSigWallet.sol\":2956:3193  function revoke(uint _txId) external onlyOwner txExists(_txId) notExecuted(_txId){... */\n    tag_5:\n      callvalue\n      dup1\n      iszero\n      tag_29\n      jumpi\n      0x00\n      dup1\n      revert\n    tag_29:\n      pop\n      tag_30\n      0x04\n      dup1\n      calldatasize\n      sub\n      dup2\n      add\n      swap1\n      tag_31\n      swap2\n      swap1\n      tag_20\n      jump\t// in\n    tag_31:\n      tag_32\n      jump\t// in\n    tag_30:\n      stop\n        /* \"SCP/MultiSigWallet.sol\":486:525  mapping(address => bool) public isOwner */\n    tag_6:\n      callvalue\n      dup1\n      iszero\n      tag_33\n      jumpi\n      0x00\n      dup1\n      revert\n    tag_33:\n      pop\n      tag_34\n      0x04\n      dup1\n      calldatasize\n      sub\n      dup2\n      add\n      swap1\n      tag_35\n      swap2\n      swap1\n      tag_36\n      jump\t// in\n    tag_35:\n      tag_37\n      jump\t// in\n    tag_34:\n      mload(0x40)\n      tag_38\n      swap2\n      swap1\n      tag_39\n      jump\t// in\n    tag_38:\n      mload(0x40)\n      dup1\n      swap2\n      sub\n      swap1\n      return\n        /* \"SCP/MultiSigWallet.sol\":597:654  mapping(uint => mapping(address => bool)) public approved */\n    tag_7:\n      callvalue\n      dup1\n      iszero\n      tag_40\n      jumpi\n      0x00\n      dup1\n      revert\n    tag_40:\n      pop\n      tag_41\n      0x04\n      dup1\n      calldatasize\n      sub\n      dup2\n      add\n      swap1\n      tag_42\n      swap2\n      swap1\n      tag_43\n      jump\t// in\n    tag_42:\n      tag_44\n      jump\t// in\n    tag_41:\n      mload(0x40)\n      tag_45\n      swap2\n      swap1\n      tag_39\n      jump\t// in\n    tag_45:\n      mload(0x40)\n      dup1\n      swap2\n      sub\n      swap1\n      return\n        /* \"SCP/MultiSigWallet.sol\":558:591  Transaction[] public transactions */\n    tag_8:\n      callvalue\n      dup1\n      iszero\n      tag_46\n      jumpi\n      0x00\n      dup1\n      revert\n    tag_46:\n      pop\n      tag_47\n      0x04\n      dup1\n      calldatasize\n      sub\n      dup2\n      add\n      swap1\n      tag_48\n      swap2\n      swap1\n      tag_20\n      jump\t// in\n    tag_48:\n      tag_49\n      jump\t// in\n    tag_47:\n      mload(0x40)\n      tag_50\n      swap5\n      swap4\n      swap3\n      swap2\n      swap1\n      tag_51\n      jump\t// in\n    tag_50:\n      mload(0x40)\n      dup1\n      swap2\n      sub\n      swap1\n      return\n        /* \"SCP/MultiSigWallet.sol\":2077:2296  function approve(uint _txId) ... */\n    tag_9:\n      callvalue\n      dup1\n      iszero\n      tag_52\n      jumpi\n      0x00\n      dup1\n      revert\n    tag_52:\n      pop\n      tag_53\n      0x04\n      dup1\n      calldatasize\n      sub\n      dup2\n      add\n      swap1\n      tag_54\n      swap2\n      swap1\n      tag_20\n      jump\t// in\n    tag_54:\n      tag_55\n      jump\t// in\n    tag_53:\n      stop\n        /* \"SCP/MultiSigWallet.sol\":531:551  uint public required */\n    tag_10:\n      callvalue\n      dup1\n      iszero\n      tag_56\n      jumpi\n      0x00\n      dup1\n      revert\n    tag_56:\n      pop\n      tag_57\n      tag_58\n      jump\t// in\n    tag_57:\n      mload(0x40)\n      tag_59\n      swap2\n      swap1\n      tag_16\n      jump\t// in\n    tag_59:\n      mload(0x40)\n      dup1\n      swap2\n      sub\n      swap1\n      return\n        /* \"SCP/MultiSigWallet.sol\":2530:2949  function execute(uint _txId) external txExists(_txId) notExecuted(_txId){... */\n    tag_11:\n      callvalue\n      dup1\n      iszero\n      tag_60\n      jumpi\n      0x00\n      dup1\n      revert\n    tag_60:\n      pop\n      tag_61\n      0x04\n      dup1\n      calldatasize\n      sub\n      dup2\n      add\n      swap1\n      tag_62\n      swap2\n      swap1\n      tag_20\n      jump\t// in\n    tag_62:\n      tag_63\n      jump\t// in\n    tag_61:\n      stop\n        /* \"SCP/MultiSigWallet.sol\":457:480  address[] public owners */\n    tag_21:\n      0x00\n      dup2\n      dup2\n      sload\n      dup2\n      lt\n      tag_64\n      jumpi\n      0x00\n      dup1\n      revert\n    tag_64:\n      swap1\n      0x00\n      mstore\n      keccak256(0x00, 0x20)\n      add\n      0x00\n      swap2\n      pop\n      sload\n      swap1\n      0x0100\n      exp\n      swap1\n      div\n      0xffffffffffffffffffffffffffffffffffffffff\n      and\n      dup2\n      jump\t// out\n        /* \"SCP/MultiSigWallet.sol\":1765:2071  function submit(address _to, uint _value, bytes calldata _data) ... */\n    tag_28:\n        /* \"SCP/MultiSigWallet.sol\":700:707  isOwner */\n      0x01\n        /* \"SCP/MultiSigWallet.sol\":700:719  isOwner[msg.sender] */\n      0x00\n        /* \"SCP/MultiSigWallet.sol\":708:718  msg.sender */\n      caller\n        /* \"SCP/MultiSigWallet.sol\":700:719  isOwner[msg.sender] */\n      0xffffffffffffffffffffffffffffffffffffffff\n      and\n      0xffffffffffffffffffffffffffffffffffffffff\n      and\n      dup2\n      mstore\n      0x20\n      add\n      swap1\n      dup2\n      mstore\n      0x20\n      add\n      0x00\n      keccak256\n      0x00\n      swap1\n      sload\n      swap1\n      0x0100\n      exp\n      swap1\n      div\n      0xff\n      and\n        /* \"SCP/MultiSigWallet.sol\":692:732  require(isOwner[msg.sender],\"not owner\") */\n      tag_67\n      jumpi\n      mload(0x40)\n      0x08c379a000000000000000000000000000000000000000000000000000000000\n      dup2\n      mstore\n      0x04\n      add\n      tag_68\n      swap1\n      tag_69\n      jump\t// in\n    tag_68:\n      mload(0x40)\n      dup1\n      swap2\n      sub\n      swap1\n      revert\n    tag_67:\n        /* \"SCP/MultiSigWallet.sol\":1873:1885  transactions */\n      0x03\n        /* \"SCP/MultiSigWallet.sol\":1891:2016  Transaction({... */\n      mload(0x40)\n      dup1\n      0x80\n      add\n      0x40\n      mstore\n      dup1\n        /* \"SCP/MultiSigWallet.sol\":1921:1924  _to */\n      dup7\n        /* \"SCP/MultiSigWallet.sol\":1891:2016  Transaction({... */\n      0xffffffffffffffffffffffffffffffffffffffff\n      and\n      dup2\n      mstore\n      0x20\n      add\n        /* \"SCP/MultiSigWallet.sol\":1945:1951  _value */\n      dup6\n        /* \"SCP/MultiSigWallet.sol\":1891:2016  Transaction({... */\n      dup2\n      mstore\n      0x20\n      add\n        /* \"SCP/MultiSigWallet.sol\":1971:1976  _data */\n      dup5\n      dup5\n        /* \"SCP/MultiSigWallet.sol\":1891:2016  Transaction({... */\n      dup1\n      dup1\n      0x1f\n      add\n      0x20\n      dup1\n      swap2\n      div\n      mul\n      0x20\n      add\n      mload(0x40)\n      swap1\n      dup2\n      add\n      0x40\n      mstore\n      dup1\n      swap4\n      swap3\n      swap2\n      swap1\n      dup2\n      dup2\n      mstore\n      0x20\n      add\n      dup4\n      dup4\n      dup1\n      dup3\n      dup5\n      calldatacopy\n      0x00\n      dup2\n      dup5\n      add\n      mstore\n      not(0x1f)\n      0x1f\n      dup3\n      add\n      and\n      swap1\n      pop\n      dup1\n      dup4\n      add\n      swap3\n      pop\n      pop\n      pop\n      pop\n      pop\n      pop\n      pop\n      dup2\n      mstore\n      0x20\n      add\n        /* \"SCP/MultiSigWallet.sol\":2000:2005  false */\n      0x00\n        /* \"SCP/MultiSigWallet.sol\":1891:2016  Transaction({... */\n      iszero\n      iszero\n      dup2\n      mstore\n      pop\n        /* \"SCP/MultiSigWallet.sol\":1873:2017  transactions.push(Transaction({... */\n      swap1\n      dup1\n      0x01\n      dup2\n      sload\n      add\n      dup1\n      dup3\n      sstore\n      dup1\n      swap2\n      pop\n      pop\n      0x01\n      swap1\n      sub\n      swap1\n      0x00\n      mstore\n      keccak256(0x00, 0x20)\n      swap1\n      0x04\n      mul\n      add\n      0x00\n      swap1\n      swap2\n      swap1\n      swap2\n      swap1\n      swap2\n      pop\n      0x00\n      dup3\n      add\n      mload\n      dup2\n      0x00\n      add\n      exp(0x0100, 0x00)\n      dup2\n      sload\n      dup2\n      0xffffffffffffffffffffffffffffffffffffffff\n      mul\n      not\n      and\n      swap1\n      dup4\n      0xffffffffffffffffffffffffffffffffffffffff\n      and\n      mul\n      or\n      swap1\n      sstore\n      pop\n      0x20\n      dup3\n      add\n      mload\n      dup2\n      0x01\n      add\n      sstore\n      0x40\n      dup3\n      add\n      mload\n      dup2\n      0x02\n      add\n      swap1\n      dup1\n      mload\n      swap1\n      0x20\n      add\n      swap1\n      tag_72\n      swap3\n      swap2\n      swap1\n      tag_73\n      jump\t// in\n    tag_72:\n      pop\n      0x60\n      dup3\n      add\n      mload\n      dup2\n      0x03\n      add\n      exp(0x0100, 0x00)\n      dup2\n      sload\n      dup2\n      0xff\n      mul\n      not\n      and\n      swap1\n      dup4\n      iszero\n      iszero\n      mul\n      or\n      swap1\n      sstore\n      pop\n      pop\n      pop\n        /* \"SCP/MultiSigWallet.sol\":2062:2063  1 */\n      0x01\n        /* \"SCP/MultiSigWallet.sol\":2040:2052  transactions */\n      0x03\n        /* \"SCP/MultiSigWallet.sol\":2040:2059  transactions.length */\n      dup1\n      sload\n      swap1\n      pop\n        /* \"SCP/MultiSigWallet.sol\":2040:2063  transactions.length - 1 */\n      tag_74\n      swap2\n      swap1\n      tag_75\n      jump\t// in\n    tag_74:\n        /* \"SCP/MultiSigWallet.sol\":2033:2064  Submit(transactions.length - 1) */\n      0x08324b3d745b914e3abd4ffbfead91e3b78391a98c173202129215ab933adfbe\n      mload(0x40)\n      mload(0x40)\n      dup1\n      swap2\n      sub\n      swap1\n      log2\n        /* \"SCP/MultiSigWallet.sol\":1765:2071  function submit(address _to, uint _value, bytes calldata _data) ... */\n      pop\n      pop\n      pop\n      pop\n      jump\t// out\n        /* \"SCP/MultiSigWallet.sol\":2956:3193  function revoke(uint _txId) external onlyOwner txExists(_txId) notExecuted(_txId){... */\n    tag_32:\n        /* \"SCP/MultiSigWallet.sol\":700:707  isOwner */\n      0x01\n        /* \"SCP/MultiSigWallet.sol\":700:719  isOwner[msg.sender] */\n      0x00\n        /* \"SCP/MultiSigWallet.sol\":708:718  msg.sender */\n      caller\n        /* \"SCP/MultiSigWallet.sol\":700:719  isOwner[msg.sender] */\n      0xffffffffffffffffffffffffffffffffffffffff\n      and\n      0xffffffffffffffffffffffffffffffffffffffff\n      and\n      dup2\n      mstore\n      0x20\n      add\n      swap1\n      dup2\n      mstore\n      0x20\n      add\n      0x00\n      keccak256\n      0x00\n      swap1\n      sload\n      swap1\n      0x0100\n      exp\n      swap1\n      div\n      0xff\n      and\n        /* \"SCP/MultiSigWallet.sol\":692:732  require(isOwner[msg.sender],\"not owner\") */\n      tag_77\n      jumpi\n      mload(0x40)\n      0x08c379a000000000000000000000000000000000000000000000000000000000\n      dup2\n      mstore\n      0x04\n      add\n      tag_78\n      swap1\n      tag_69\n      jump\t// in\n    tag_78:\n      mload(0x40)\n      dup1\n      swap2\n      sub\n      swap1\n      revert\n    tag_77:\n        /* \"SCP/MultiSigWallet.sol\":3012:3017  _txId */\n      dup1\n        /* \"SCP/MultiSigWallet.sol\":812:824  transactions */\n      0x03\n        /* \"SCP/MultiSigWallet.sol\":812:831  transactions.length */\n      dup1\n      sload\n      swap1\n      pop\n        /* \"SCP/MultiSigWallet.sol\":804:809  _txId */\n      dup2\n        /* \"SCP/MultiSigWallet.sol\":804:831  _txId < transactions.length */\n      lt\n        /* \"SCP/MultiSigWallet.sol\":796:853  require(_txId < transactions.length, \"tx does not exist\") */\n      tag_80\n      jumpi\n      mload(0x40)\n      0x08c379a000000000000000000000000000000000000000000000000000000000\n      dup2\n      mstore\n      0x04\n      add\n      tag_81\n      swap1\n      tag_82\n      jump\t// in\n    tag_81:\n      mload(0x40)\n      dup1\n      swap2\n      sub\n      swap1\n      revert\n    tag_80:\n        /* \"SCP/MultiSigWallet.sol\":3031:3036  _txId */\n      dup2\n        /* \"SCP/MultiSigWallet.sol\":1055:1067  transactions */\n      0x03\n        /* \"SCP/MultiSigWallet.sol\":1068:1073  _txId */\n      dup2\n        /* \"SCP/MultiSigWallet.sol\":1055:1074  transactions[_txId] */\n      dup2\n      sload\n      dup2\n      lt\n      tag_84\n      jumpi\n      tag_85\n      tag_86\n      jump\t// in\n    tag_85:\n    tag_84:\n      swap1\n      0x00\n      mstore\n      keccak256(0x00, 0x20)\n      swap1\n      0x04\n      mul\n      add\n        /* \"SCP/MultiSigWallet.sol\":1055:1083  transactions[_txId].executed */\n      0x03\n      add\n      0x00\n      swap1\n      sload\n      swap1\n      0x0100\n      exp\n      swap1\n      div\n      0xff\n      and\n        /* \"SCP/MultiSigWallet.sol\":1054:1083  !transactions[_txId].executed */\n      iszero\n        /* \"SCP/MultiSigWallet.sol\":1046:1107  require(!transactions[_txId].executed, \"tx already executed\") */\n      tag_88\n      jumpi\n      mload(0x40)\n      0x08c379a000000000000000000000000000000000000000000000000000000000\n      dup2\n      mstore\n      0x04\n      add\n      tag_89\n      swap1\n      tag_90\n      jump\t// in\n    tag_89:\n      mload(0x40)\n      dup1\n      swap2\n      sub\n      swap1\n      revert\n    tag_88:\n        /* \"SCP/MultiSigWallet.sol\":3055:3063  approved */\n      0x04\n        /* \"SCP/MultiSigWallet.sol\":3055:3070  approved[_txId] */\n      0x00\n        /* \"SCP/MultiSigWallet.sol\":3064:3069  _txId */\n      dup5\n        /* \"SCP/MultiSigWallet.sol\":3055:3070  approved[_txId] */\n      dup2\n      mstore\n      0x20\n      add\n      swap1\n      dup2\n      mstore\n      0x20\n      add\n      0x00\n      keccak256\n        /* \"SCP/MultiSigWallet.sol\":3055:3082  approved[_txId][msg.sender] */\n      0x00\n        /* \"SCP/MultiSigWallet.sol\":3071:3081  msg.sender */\n      caller\n        /* \"SCP/MultiSigWallet.sol\":3055:3082  approved[_txId][msg.sender] */\n      0xffffffffffffffffffffffffffffffffffffffff\n      and\n      0xffffffffffffffffffffffffffffffffffffffff\n      and\n      dup2\n      mstore\n      0x20\n      add\n      swap1\n      dup2\n      mstore\n      0x20\n      add\n      0x00\n      keccak256\n      0x00\n      swap1\n      sload\n      swap1\n      0x0100\n      exp\n      swap1\n      div\n      0xff\n      and\n        /* \"SCP/MultiSigWallet.sol\":3047:3101  require(approved[_txId][msg.sender],\"tx not approved\") */\n      tag_92\n      jumpi\n      mload(0x40)\n      0x08c379a000000000000000000000000000000000000000000000000000000000\n      dup2\n      mstore\n      0x04\n      add\n      tag_93\n      swap1\n      tag_94\n      jump\t// in\n    tag_93:\n      mload(0x40)\n      dup1\n      swap2\n      sub\n      swap1\n      revert\n    tag_92:\n        /* \"SCP/MultiSigWallet.sol\":3141:3146  false */\n      0x00\n        /* \"SCP/MultiSigWallet.sol\":3111:3119  approved */\n      0x04\n        /* \"SCP/MultiSigWallet.sol\":3111:3126  approved[_txId] */\n      0x00\n        /* \"SCP/MultiSigWallet.sol\":3120:3125  _txId */\n      dup6\n        /* \"SCP/MultiSigWallet.sol\":3111:3126  approved[_txId] */\n      dup2\n      mstore\n      0x20\n      add\n      swap1\n      dup2\n      mstore\n      0x20\n      add\n      0x00\n      keccak256\n        /* \"SCP/MultiSigWallet.sol\":3111:3138  approved[_txId][msg.sender] */\n      0x00\n        /* \"SCP/MultiSigWallet.sol\":3127:3137  msg.sender */\n      caller\n        /* \"SCP/MultiSigWallet.sol\":3111:3138  approved[_txId][msg.sender] */\n      0xffffffffffffffffffffffffffffffffffffffff\n      and\n      0xffffffffffffffffffffffffffffffffffffffff\n      and\n      dup2\n      mstore\n      0x20\n      add\n      swap1\n      dup2\n      mstore\n      0x20\n      add\n      0x00\n      keccak256\n      0x00\n        /* \"SCP/MultiSigWallet.sol\":3111:3146  approved[_txId][msg.sender] = false */\n      0x0100\n      exp\n      dup2\n      sload\n      dup2\n      0xff\n      mul\n      not\n      and\n      swap1\n      dup4\n      iszero\n      iszero\n      mul\n      or\n      swap1\n      sstore\n      pop\n        /* \"SCP/MultiSigWallet.sol\":3180:3185  _txId */\n      dup3\n        /* \"SCP/MultiSigWallet.sol\":3168:3178  msg.sender */\n      caller\n        /* \"SCP/MultiSigWallet.sol\":3161:3186  Revoke(msg.sender, _txId) */\n      0xffffffffffffffffffffffffffffffffffffffff\n      and\n      0xec9ab91322523c899ede7830ec9bfc992b5981cdcc27b91162fb23de5791117b\n      mload(0x40)\n      mload(0x40)\n      dup1\n      swap2\n      sub\n      swap1\n      log3\n        /* \"SCP/MultiSigWallet.sol\":863:864  _ */\n      pop\n        /* \"SCP/MultiSigWallet.sol\":742:743  _ */\n      pop\n        /* \"SCP/MultiSigWallet.sol\":2956:3193  function revoke(uint _txId) external onlyOwner txExists(_txId) notExecuted(_txId){... */\n      pop\n      jump\t// out\n        /* \"SCP/MultiSigWallet.sol\":486:525  mapping(address => bool) public isOwner */\n    tag_37:\n      mstore(0x20, 0x01)\n      dup1\n      0x00\n      mstore\n      keccak256(0x00, 0x40)\n      0x00\n      swap2\n      pop\n      sload\n      swap1\n      0x0100\n      exp\n      swap1\n      div\n      0xff\n      and\n      dup2\n      jump\t// out\n        /* \"SCP/MultiSigWallet.sol\":597:654  mapping(uint => mapping(address => bool)) public approved */\n    tag_44:\n      mstore(0x20, 0x04)\n      dup2\n      0x00\n      mstore\n      mstore(0x20, keccak256(0x00, 0x40))\n      dup1\n      0x00\n      mstore\n      keccak256(0x00, 0x40)\n      0x00\n      swap2\n      pop\n      swap2\n      pop\n      swap1\n      sload\n      swap1\n      0x0100\n      exp\n      swap1\n      div\n      0xff\n      and\n      dup2\n      jump\t// out\n        /* \"SCP/MultiSigWallet.sol\":558:591  Transaction[] public transactions */\n    tag_49:\n      0x03\n      dup2\n      dup2\n      sload\n      dup2\n      lt\n      tag_95\n      jumpi\n      0x00\n      dup1\n      revert\n    tag_95:\n      swap1\n      0x00\n      mstore\n      keccak256(0x00, 0x20)\n      swap1\n      0x04\n      mul\n      add\n      0x00\n      swap2\n      pop\n      swap1\n      pop\n      dup1\n      0x00\n      add\n      0x00\n      swap1\n      sload\n      swap1\n      0x0100\n      exp\n      swap1\n      div\n      0xffffffffffffffffffffffffffffffffffffffff\n      and\n      swap1\n      dup1\n      0x01\n      add\n      sload\n      swap1\n      dup1\n      0x02\n      add\n      dup1\n      sload\n      tag_97\n      swap1\n      tag_98\n      jump\t// in\n    tag_97:\n      dup1\n      0x1f\n      add\n      0x20\n      dup1\n      swap2\n      div\n      mul\n      0x20\n      add\n      mload(0x40)\n      swap1\n      dup2\n      add\n      0x40\n      mstore\n      dup1\n      swap3\n      swap2\n      swap1\n      dup2\n      dup2\n      mstore\n      0x20\n      add\n      dup3\n      dup1\n      sload\n      tag_99\n      swap1\n      tag_98\n      jump\t// in\n    tag_99:\n      dup1\n      iszero\n      tag_100\n      jumpi\n      dup1\n      0x1f\n      lt\n      tag_101\n      jumpi\n      0x0100\n      dup1\n      dup4\n      sload\n      div\n      mul\n      dup4\n      mstore\n      swap2\n      0x20\n      add\n      swap2\n      jump(tag_100)\n    tag_101:\n      dup3\n      add\n      swap2\n      swap1\n      0x00\n      mstore\n      keccak256(0x00, 0x20)\n      swap1\n    tag_102:\n      dup2\n      sload\n      dup2\n      mstore\n      swap1\n      0x01\n      add\n      swap1\n      0x20\n      add\n      dup1\n      dup4\n      gt\n      tag_102\n      jumpi\n      dup3\n      swap1\n      sub\n      0x1f\n      and\n      dup3\n      add\n      swap2\n    tag_100:\n      pop\n      pop\n      pop\n      pop\n      pop\n      swap1\n      dup1\n      0x03\n      add\n      0x00\n      swap1\n      sload\n      swap1\n      0x0100\n      exp\n      swap1\n      div\n      0xff\n      and\n      swap1\n      pop\n      dup5\n      jump\t// out\n        /* \"SCP/MultiSigWallet.sol\":2077:2296  function approve(uint _txId) ... */\n    tag_55:\n        /* \"SCP/MultiSigWallet.sol\":700:707  isOwner */\n      0x01\n        /* \"SCP/MultiSigWallet.sol\":700:719  isOwner[msg.sender] */\n      0x00\n        /* \"SCP/MultiSigWallet.sol\":708:718  msg.sender */\n      caller\n        /* \"SCP/MultiSigWallet.sol\":700:719  isOwner[msg.sender] */\n      0xffffffffffffffffffffffffffffffffffffffff\n      and\n      0xffffffffffffffffffffffffffffffffffffffff\n      and\n      dup2\n      mstore\n      0x20\n      add\n      swap1\n      dup2\n      mstore\n      0x20\n      add\n      0x00\n      keccak256\n      0x00\n      swap1\n      sload\n      swap1\n      0x0100\n      exp\n      swap1\n      div\n      0xff\n      and\n        /* \"SCP/MultiSigWallet.sol\":692:732  require(isOwner[msg.sender],\"not owner\") */\n      tag_104\n      jumpi\n      mload(0x40)\n      0x08c379a000000000000000000000000000000000000000000000000000000000\n      dup2\n      mstore\n      0x04\n      add\n      tag_105\n      swap1\n      tag_69\n      jump\t// in\n    tag_105:\n      mload(0x40)\n      dup1\n      swap2\n      sub\n      swap1\n      revert\n    tag_104:\n        /* \"SCP/MultiSigWallet.sol\":2147:2152  _txId */\n      dup1\n        /* \"SCP/MultiSigWallet.sol\":812:824  transactions */\n      0x03\n        /* \"SCP/MultiSigWallet.sol\":812:831  transactions.length */\n      dup1\n      sload\n      swap1\n      pop\n        /* \"SCP/MultiSigWallet.sol\":804:809  _txId */\n      dup2\n        /* \"SCP/MultiSigWallet.sol\":804:831  _txId < transactions.length */\n      lt\n        /* \"SCP/MultiSigWallet.sol\":796:853  require(_txId < transactions.length, \"tx does not exist\") */\n      tag_107\n      jumpi\n      mload(0x40)\n      0x08c379a000000000000000000000000000000000000000000000000000000000\n      dup2\n      mstore\n      0x04\n      add\n      tag_108\n      swap1\n      tag_82\n      jump\t// in\n    tag_108:\n      mload(0x40)\n      dup1\n      swap2\n      sub\n      swap1\n      revert\n    tag_107:\n        /* \"SCP/MultiSigWallet.sol\":2170:2175  _txId */\n      dup2\n        /* \"SCP/MultiSigWallet.sol\":929:937  approved */\n      0x04\n        /* \"SCP/MultiSigWallet.sol\":929:944  approved[_txId] */\n      0x00\n        /* \"SCP/MultiSigWallet.sol\":938:943  _txId */\n      dup3\n        /* \"SCP/MultiSigWallet.sol\":929:944  approved[_txId] */\n      dup2\n      mstore\n      0x20\n      add\n      swap1\n      dup2\n      mstore\n      0x20\n      add\n      0x00\n      keccak256\n        /* \"SCP/MultiSigWallet.sol\":929:956  approved[_txId][msg.sender] */\n      0x00\n        /* \"SCP/MultiSigWallet.sol\":945:955  msg.sender */\n      caller\n        /* \"SCP/MultiSigWallet.sol\":929:956  approved[_txId][msg.sender] */\n      0xffffffffffffffffffffffffffffffffffffffff\n      and\n      0xffffffffffffffffffffffffffffffffffffffff\n      and\n      dup2\n      mstore\n      0x20\n      add\n      swap1\n      dup2\n      mstore\n      0x20\n      add\n      0x00\n      keccak256\n      0x00\n      swap1\n      sload\n      swap1\n      0x0100\n      exp\n      swap1\n      div\n      0xff\n      and\n        /* \"SCP/MultiSigWallet.sol\":928:956  !approved[_txId][msg.sender] */\n      iszero\n        /* \"SCP/MultiSigWallet.sol\":920:980  require(!approved[_txId][msg.sender], \"tx already approved\") */\n      tag_110\n      jumpi\n      mload(0x40)\n      0x08c379a000000000000000000000000000000000000000000000000000000000\n      dup2\n      mstore\n      0x04\n      add\n      tag_111\n      swap1\n      tag_112\n      jump\t// in\n    tag_111:\n      mload(0x40)\n      dup1\n      swap2\n      sub\n      swap1\n      revert\n    tag_110:\n        /* \"SCP/MultiSigWallet.sol\":2193:2198  _txId */\n      dup3\n        /* \"SCP/MultiSigWallet.sol\":1055:1067  transactions */\n      0x03\n        /* \"SCP/MultiSigWallet.sol\":1068:1073  _txId */\n      dup2\n        /* \"SCP/MultiSigWallet.sol\":1055:1074  transactions[_txId] */\n      dup2\n      sload\n      dup2\n      lt\n      tag_114\n      jumpi\n      tag_115\n      tag_86\n      jump\t// in\n    tag_115:\n    tag_114:\n      swap1\n      0x00\n      mstore\n      keccak256(0x00, 0x20)\n      swap1\n      0x04\n      mul\n      add\n        /* \"SCP/MultiSigWallet.sol\":1055:1083  transactions[_txId].executed */\n      0x03\n      add\n      0x00\n      swap1\n      sload\n      swap1\n      0x0100\n      exp\n      swap1\n      div\n      0xff\n      and\n        /* \"SCP/MultiSigWallet.sol\":1054:1083  !transactions[_txId].executed */\n      iszero\n        /* \"SCP/MultiSigWallet.sol\":1046:1107  require(!transactions[_txId].executed, \"tx already executed\") */\n      tag_117\n      jumpi\n      mload(0x40)\n      0x08c379a000000000000000000000000000000000000000000000000000000000\n      dup2\n      mstore\n      0x04\n      add\n      tag_118\n      swap1\n      tag_90\n      jump\t// in\n    tag_118:\n      mload(0x40)\n      dup1\n      swap2\n      sub\n      swap1\n      revert\n    tag_117:\n        /* \"SCP/MultiSigWallet.sol\":2244:2248  true */\n      0x01\n        /* \"SCP/MultiSigWallet.sol\":2214:2222  approved */\n      0x04\n        /* \"SCP/MultiSigWallet.sol\":2214:2229  approved[_txId] */\n      0x00\n        /* \"SCP/MultiSigWallet.sol\":2223:2228  _txId */\n      dup7\n        /* \"SCP/MultiSigWallet.sol\":2214:2229  approved[_txId] */\n      dup2\n      mstore\n      0x20\n      add\n      swap1\n      dup2\n      mstore\n      0x20\n      add\n      0x00\n      keccak256\n        /* \"SCP/MultiSigWallet.sol\":2214:2241  approved[_txId][msg.sender] */\n      0x00\n        /* \"SCP/MultiSigWallet.sol\":2230:2240  msg.sender */\n      caller\n        /* \"SCP/MultiSigWallet.sol\":2214:2241  approved[_txId][msg.sender] */\n      0xffffffffffffffffffffffffffffffffffffffff\n      and\n      0xffffffffffffffffffffffffffffffffffffffff\n      and\n      dup2\n      mstore\n      0x20\n      add\n      swap1\n      dup2\n      mstore\n      0x20\n      add\n      0x00\n      keccak256\n      0x00\n        /* \"SCP/MultiSigWallet.sol\":2214:2248  approved[_txId][msg.sender] = true */\n      0x0100\n      exp\n      dup2\n      sload\n      dup2\n      0xff\n      mul\n      not\n      and\n      swap1\n      dup4\n      iszero\n      iszero\n      mul\n      or\n      swap1\n      sstore\n      pop\n        /* \"SCP/MultiSigWallet.sol\":2283:2288  _txId */\n      dup4\n        /* \"SCP/MultiSigWallet.sol\":2271:2281  msg.sender */\n      caller\n        /* \"SCP/MultiSigWallet.sol\":2263:2289  Approve(msg.sender, _txId) */\n      0xffffffffffffffffffffffffffffffffffffffff\n      and\n      0x90ec57f18fa7b15c6b8d5e4d1deb90796c74b2ff23d4d0cecad0cb42a96b3128\n      mload(0x40)\n      mload(0x40)\n      dup1\n      swap2\n      sub\n      swap1\n      log3\n        /* \"SCP/MultiSigWallet.sol\":990:991  _ */\n      pop\n        /* \"SCP/MultiSigWallet.sol\":863:864  _ */\n      pop\n        /* \"SCP/MultiSigWallet.sol\":742:743  _ */\n      pop\n        /* \"SCP/MultiSigWallet.sol\":2077:2296  function approve(uint _txId) ... */\n      pop\n      jump\t// out\n        /* \"SCP/MultiSigWallet.sol\":531:551  uint public required */\n    tag_58:\n      sload(0x02)\n      dup2\n      jump\t// out\n        /* \"SCP/MultiSigWallet.sol\":2530:2949  function execute(uint _txId) external txExists(_txId) notExecuted(_txId){... */\n    tag_63:\n        /* \"SCP/MultiSigWallet.sol\":2577:2582  _txId */\n      dup1\n        /* \"SCP/MultiSigWallet.sol\":812:824  transactions */\n      0x03\n        /* \"SCP/MultiSigWallet.sol\":812:831  transactions.length */\n      dup1\n      sload\n      swap1\n      pop\n        /* \"SCP/MultiSigWallet.sol\":804:809  _txId */\n      dup2\n        /* \"SCP/MultiSigWallet.sol\":804:831  _txId < transactions.length */\n      lt\n        /* \"SCP/MultiSigWallet.sol\":796:853  require(_txId < transactions.length, \"tx does not exist\") */\n      tag_121\n      jumpi\n      mload(0x40)\n      0x08c379a000000000000000000000000000000000000000000000000000000000\n      dup2\n      mstore\n      0x04\n      add\n      tag_122\n      swap1\n      tag_82\n      jump\t// in\n    tag_122:\n      mload(0x40)\n      dup1\n      swap2\n      sub\n      swap1\n      revert\n    tag_121:\n        /* \"SCP/MultiSigWallet.sol\":2596:2601  _txId */\n      dup2\n        /* \"SCP/MultiSigWallet.sol\":1055:1067  transactions */\n      0x03\n        /* \"SCP/MultiSigWallet.sol\":1068:1073  _txId */\n      dup2\n        /* \"SCP/MultiSigWallet.sol\":1055:1074  transactions[_txId] */\n      dup2\n      sload\n      dup2\n      lt\n      tag_124\n      jumpi\n      tag_125\n      tag_86\n      jump\t// in\n    tag_125:\n    tag_124:\n      swap1\n      0x00\n      mstore\n      keccak256(0x00, 0x20)\n      swap1\n      0x04\n      mul\n      add\n        /* \"SCP/MultiSigWallet.sol\":1055:1083  transactions[_txId].executed */\n      0x03\n      add\n      0x00\n      swap1\n      sload\n      swap1\n      0x0100\n      exp\n      swap1\n      div\n      0xff\n      and\n        /* \"SCP/MultiSigWallet.sol\":1054:1083  !transactions[_txId].executed */\n      iszero\n        /* \"SCP/MultiSigWallet.sol\":1046:1107  require(!transactions[_txId].executed, \"tx already executed\") */\n      tag_127\n      jumpi\n      mload(0x40)\n      0x08c379a000000000000000000000000000000000000000000000000000000000\n      dup2\n      mstore\n      0x04\n      add\n      tag_128\n      swap1\n      tag_90\n      jump\t// in\n    tag_128:\n      mload(0x40)\n      dup1\n      swap2\n      sub\n      swap1\n      revert\n    tag_127:\n        /* \"SCP/MultiSigWallet.sol\":2647:2655  required */\n      sload(0x02)\n        /* \"SCP/MultiSigWallet.sol\":2620:2643  _getApprovaCount(_txId) */\n      tag_130\n        /* \"SCP/MultiSigWallet.sol\":2637:2642  _txId */\n      dup5\n        /* \"SCP/MultiSigWallet.sol\":2620:2636  _getApprovaCount */\n      tag_131\n        /* \"SCP/MultiSigWallet.sol\":2620:2643  _getApprovaCount(_txId) */\n      jump\t// in\n    tag_130:\n        /* \"SCP/MultiSigWallet.sol\":2620:2655  _getApprovaCount(_txId) >= required */\n      lt\n      iszero\n        /* \"SCP/MultiSigWallet.sol\":2612:2680  require(_getApprovaCount(_txId) >= required, \"approvals < required\") */\n      tag_132\n      jumpi\n      mload(0x40)\n      0x08c379a000000000000000000000000000000000000000000000000000000000\n      dup2\n      mstore\n      0x04\n      add\n      tag_133\n      swap1\n      tag_134\n      jump\t// in\n    tag_133:\n      mload(0x40)\n      dup1\n      swap2\n      sub\n      swap1\n      revert\n    tag_132:\n        /* \"SCP/MultiSigWallet.sol\":2690:2721  Transaction storage transaction */\n      0x00\n        /* \"SCP/MultiSigWallet.sol\":2724:2736  transactions */\n      0x03\n        /* \"SCP/MultiSigWallet.sol\":2737:2742  _txId */\n      dup5\n        /* \"SCP/MultiSigWallet.sol\":2724:2743  transactions[_txId] */\n      dup2\n      sload\n      dup2\n      lt\n      tag_135\n      jumpi\n      tag_136\n      tag_86\n      jump\t// in\n    tag_136:\n    tag_135:\n      swap1\n      0x00\n      mstore\n      keccak256(0x00, 0x20)\n      swap1\n      0x04\n      mul\n      add\n        /* \"SCP/MultiSigWallet.sol\":2690:2743  Transaction storage transaction = transactions[_txId] */\n      swap1\n      pop\n        /* \"SCP/MultiSigWallet.sol\":2777:2781  true */\n      0x01\n        /* \"SCP/MultiSigWallet.sol\":2754:2765  transaction */\n      dup2\n        /* \"SCP/MultiSigWallet.sol\":2754:2774  transaction.executed */\n      0x03\n      add\n      0x00\n        /* \"SCP/MultiSigWallet.sol\":2754:2781  transaction.executed = true */\n      0x0100\n      exp\n      dup2\n      sload\n      dup2\n      0xff\n      mul\n      not\n      and\n      swap1\n      dup4\n      iszero\n      iszero\n      mul\n      or\n      swap1\n      sstore\n      pop\n        /* \"SCP/MultiSigWallet.sol\":2793:2805  bool success */\n      0x00\n        /* \"SCP/MultiSigWallet.sol\":2810:2821  transaction */\n      dup2\n        /* \"SCP/MultiSigWallet.sol\":2810:2824  transaction.to */\n      0x00\n      add\n      0x00\n      swap1\n      sload\n      swap1\n      0x0100\n      exp\n      swap1\n      div\n      0xffffffffffffffffffffffffffffffffffffffff\n      and\n        /* \"SCP/MultiSigWallet.sol\":2810:2829  transaction.to.call */\n      0xffffffffffffffffffffffffffffffffffffffff\n      and\n        /* \"SCP/MultiSigWallet.sol\":2837:2848  transaction */\n      dup3\n        /* \"SCP/MultiSigWallet.sol\":2837:2854  transaction.value */\n      0x01\n      add\n      sload\n        /* \"SCP/MultiSigWallet.sol\":2856:2867  transaction */\n      dup4\n        /* \"SCP/MultiSigWallet.sol\":2856:2872  transaction.data */\n      0x02\n      add\n        /* \"SCP/MultiSigWallet.sol\":2810:2873  transaction.to.call{value: transaction.value}(transaction.data) */\n      mload(0x40)\n      tag_138\n      swap2\n      swap1\n      tag_139\n      jump\t// in\n    tag_138:\n      0x00\n      mload(0x40)\n      dup1\n      dup4\n      sub\n      dup2\n      dup6\n      dup8\n      gas\n      call\n      swap3\n      pop\n      pop\n      pop\n      returndatasize\n      dup1\n      0x00\n      dup2\n      eq\n      tag_142\n      jumpi\n      mload(0x40)\n      swap2\n      pop\n      and(add(returndatasize, 0x3f), not(0x1f))\n      dup3\n      add\n      0x40\n      mstore\n      returndatasize\n      dup3\n      mstore\n      returndatasize\n      0x00\n      0x20\n      dup5\n      add\n      returndatacopy\n      jump(tag_141)\n    tag_142:\n      0x60\n      swap2\n      pop\n    tag_141:\n      pop\n        /* \"SCP/MultiSigWallet.sol\":2792:2873  (bool success,) = transaction.to.call{value: transaction.value}(transaction.data) */\n      pop\n      swap1\n      pop\n        /* \"SCP/MultiSigWallet.sol\":2891:2898  success */\n      dup1\n        /* \"SCP/MultiSigWallet.sol\":2883:2911  require(success,\"tx failed\") */\n      tag_143\n      jumpi\n      mload(0x40)\n      0x08c379a000000000000000000000000000000000000000000000000000000000\n      dup2\n      mstore\n      0x04\n      add\n      tag_144\n      swap1\n      tag_145\n      jump\t// in\n    tag_144:\n      mload(0x40)\n      dup1\n      swap2\n      sub\n      swap1\n      revert\n    tag_143:\n        /* \"SCP/MultiSigWallet.sol\":2935:2940  _txId */\n      dup5\n        /* \"SCP/MultiSigWallet.sol\":2927:2941  Execute(_txId) */\n      0xddb556f1d2c1ec821e910b019d3685b229db152a0ecd517ca7e24b8bd7139289\n      mload(0x40)\n      mload(0x40)\n      dup1\n      swap2\n      sub\n      swap1\n      log2\n        /* \"SCP/MultiSigWallet.sol\":2602:2949  {... */\n      pop\n      pop\n        /* \"SCP/MultiSigWallet.sol\":863:864  _ */\n      pop\n        /* \"SCP/MultiSigWallet.sol\":2530:2949  function execute(uint _txId) external txExists(_txId) notExecuted(_txId){... */\n      pop\n      pop\n      jump\t// out\n        /* \"SCP/MultiSigWallet.sol\":2303:2524  function _getApprovaCount(uint _txId) private view returns (uint count){... */\n    tag_131:\n        /* \"SCP/MultiSigWallet.sol\":2363:2373  uint count */\n      0x00\n        /* \"SCP/MultiSigWallet.sol\":2389:2395  uint i */\n      dup1\n        /* \"SCP/MultiSigWallet.sol\":2384:2518  for (uint i; i < owners.length; i++) {... */\n    tag_147:\n        /* \"SCP/MultiSigWallet.sol\":2401:2407  owners */\n      0x00\n        /* \"SCP/MultiSigWallet.sol\":2401:2414  owners.length */\n      dup1\n      sload\n      swap1\n      pop\n        /* \"SCP/MultiSigWallet.sol\":2397:2398  i */\n      dup2\n        /* \"SCP/MultiSigWallet.sol\":2397:2414  i < owners.length */\n      lt\n        /* \"SCP/MultiSigWallet.sol\":2384:2518  for (uint i; i < owners.length; i++) {... */\n      iszero\n      tag_148\n      jumpi\n        /* \"SCP/MultiSigWallet.sol\":2438:2446  approved */\n      0x04\n        /* \"SCP/MultiSigWallet.sol\":2438:2453  approved[_txId] */\n      0x00\n        /* \"SCP/MultiSigWallet.sol\":2447:2452  _txId */\n      dup5\n        /* \"SCP/MultiSigWallet.sol\":2438:2453  approved[_txId] */\n      dup2\n      mstore\n      0x20\n      add\n      swap1\n      dup2\n      mstore\n      0x20\n      add\n      0x00\n      keccak256\n        /* \"SCP/MultiSigWallet.sol\":2438:2464  approved[_txId][owners[i]] */\n      0x00\n        /* \"SCP/MultiSigWallet.sol\":2454:2460  owners */\n      dup1\n        /* \"SCP/MultiSigWallet.sol\":2461:2462  i */\n      dup4\n        /* \"SCP/MultiSigWallet.sol\":2454:2463  owners[i] */\n      dup2\n      sload\n      dup2\n      lt\n      tag_150\n      jumpi\n      tag_151\n      tag_86\n      jump\t// in\n    tag_151:\n    tag_150:\n      swap1\n      0x00\n      mstore\n      keccak256(0x00, 0x20)\n      add\n      0x00\n      swap1\n      sload\n      swap1\n      0x0100\n      exp\n      swap1\n      div\n      0xffffffffffffffffffffffffffffffffffffffff\n      and\n        /* \"SCP/MultiSigWallet.sol\":2438:2464  approved[_txId][owners[i]] */\n      0xffffffffffffffffffffffffffffffffffffffff\n      and\n      0xffffffffffffffffffffffffffffffffffffffff\n      and\n      dup2\n      mstore\n      0x20\n      add\n      swap1\n      dup2\n      mstore\n      0x20\n      add\n      0x00\n      keccak256\n      0x00\n      swap1\n      sload\n      swap1\n      0x0100\n      exp\n      swap1\n      div\n      0xff\n      and\n        /* \"SCP/MultiSigWallet.sol\":2435:2508  if(approved[_txId][owners[i]]){... */\n      iszero\n      tag_153\n      jumpi\n        /* \"SCP/MultiSigWallet.sol\":2492:2493  1 */\n      0x01\n        /* \"SCP/MultiSigWallet.sol\":2483:2493  count += 1 */\n      dup3\n      tag_154\n      swap2\n      swap1\n      tag_155\n      jump\t// in\n    tag_154:\n      swap2\n      pop\n        /* \"SCP/MultiSigWallet.sol\":2435:2508  if(approved[_txId][owners[i]]){... */\n    tag_153:\n        /* \"SCP/MultiSigWallet.sol\":2416:2419  i++ */\n      dup1\n      dup1\n      tag_156\n      swap1\n      tag_157\n      jump\t// in\n    tag_156:\n      swap2\n      pop\n      pop\n        /* \"SCP/MultiSigWallet.sol\":2384:2518  for (uint i; i < owners.length; i++) {... */\n      jump(tag_147)\n    tag_148:\n      pop\n        /* \"SCP/MultiSigWallet.sol\":2303:2524  function _getApprovaCount(uint _txId) private view returns (uint count){... */\n      swap2\n      swap1\n      pop\n      jump\t// out\n    tag_73:\n      dup3\n      dup1\n      sload\n      tag_158\n      swap1\n      tag_98\n      jump\t// in\n    tag_158:\n      swap1\n      0x00\n      mstore\n      keccak256(0x00, 0x20)\n      swap1\n      0x1f\n      add\n      0x20\n      swap1\n      div\n      dup2\n      add\n      swap3\n      dup3\n      tag_160\n      jumpi\n      0x00\n      dup6\n      sstore\n      jump(tag_159)\n    tag_160:\n      dup3\n      0x1f\n      lt\n      tag_161\n      jumpi\n      dup1\n      mload\n      not(0xff)\n      and\n      dup4\n      dup1\n      add\n      or\n      dup6\n      sstore\n      jump(tag_159)\n    tag_161:\n      dup3\n      dup1\n      add\n      0x01\n      add\n      dup6\n      sstore\n      dup3\n      iszero\n      tag_159\n      jumpi\n      swap2\n      dup3\n      add\n    tag_162:\n      dup3\n      dup2\n      gt\n      iszero\n      tag_163\n      jumpi\n      dup3\n      mload\n      dup3\n      sstore\n      swap2\n      0x20\n      add\n      swap2\n      swap1\n      0x01\n      add\n      swap1\n      jump(tag_162)\n    tag_163:\n    tag_159:\n      pop\n      swap1\n      pop\n      tag_164\n      swap2\n      swap1\n      tag_165\n      jump\t// in\n    tag_164:\n      pop\n      swap1\n      jump\t// out\n    tag_165:\n    tag_166:\n      dup1\n      dup3\n      gt\n      iszero\n      tag_167\n      jumpi\n      0x00\n      dup2\n      0x00\n      swap1\n      sstore\n      pop\n      0x01\n      add\n      jump(tag_166)\n    tag_167:\n      pop\n      swap1\n      jump\t// out\n        /* \"#utility.yul\":7:146   */\n    tag_169:\n        /* \"#utility.yul\":53:58   */\n      0x00\n        /* \"#utility.yul\":91:97   */\n      dup2\n        /* \"#utility.yul\":78:98   */\n      calldataload\n        /* \"#utility.yul\":69:98   */\n      swap1\n      pop\n        /* \"#utility.yul\":107:140   */\n      tag_171\n        /* \"#utility.yul\":134:139   */\n      dup2\n        /* \"#utility.yul\":107:140   */\n      tag_172\n      jump\t// in\n    tag_171:\n        /* \"#utility.yul\":7:146   */\n      swap3\n      swap2\n      pop\n      pop\n      jump\t// out\n        /* \"#utility.yul\":165:717   */\n    tag_173:\n        /* \"#utility.yul\":222:230   */\n      0x00\n        /* \"#utility.yul\":232:238   */\n      dup1\n        /* \"#utility.yul\":282:285   */\n      dup4\n        /* \"#utility.yul\":275:279   */\n      0x1f\n        /* \"#utility.yul\":267:273   */\n      dup5\n        /* \"#utility.yul\":263:280   */\n      add\n        /* \"#utility.yul\":259:286   */\n      slt\n        /* \"#utility.yul\":249:371   */\n      tag_175\n      jumpi\n        /* \"#utility.yul\":290:369   */\n      tag_176\n      tag_177\n      jump\t// in\n    tag_176:\n        /* \"#utility.yul\":249:371   */\n    tag_175:\n        /* \"#utility.yul\":403:409   */\n      dup3\n        /* \"#utility.yul\":390:410   */\n      calldataload\n        /* \"#utility.yul\":380:410   */\n      swap1\n      pop\n        /* \"#utility.yul\":433:451   */\n      0xffffffffffffffff\n        /* \"#utility.yul\":425:431   */\n      dup2\n        /* \"#utility.yul\":422:452   */\n      gt\n        /* \"#utility.yul\":419:536   */\n      iszero\n      tag_178\n      jumpi\n        /* \"#utility.yul\":455:534   */\n      tag_179\n      tag_180\n      jump\t// in\n    tag_179:\n        /* \"#utility.yul\":419:536   */\n    tag_178:\n        /* \"#utility.yul\":569:573   */\n      0x20\n        /* \"#utility.yul\":561:567   */\n      dup4\n        /* \"#utility.yul\":557:574   */\n      add\n        /* \"#utility.yul\":545:574   */\n      swap2\n      pop\n        /* \"#utility.yul\":623:626   */\n      dup4\n        /* \"#utility.yul\":615:619   */\n      0x01\n        /* \"#utility.yul\":607:613   */\n      dup3\n        /* \"#utility.yul\":603:620   */\n      mul\n        /* \"#utility.yul\":593:601   */\n      dup4\n        /* \"#utility.yul\":589:621   */\n      add\n        /* \"#utility.yul\":586:627   */\n      gt\n        /* \"#utility.yul\":583:711   */\n      iszero\n      tag_181\n      jumpi\n        /* \"#utility.yul\":630:709   */\n      tag_182\n      tag_183\n      jump\t// in\n    tag_182:\n        /* \"#utility.yul\":583:711   */\n    tag_181:\n        /* \"#utility.yul\":165:717   */\n      swap3\n      pop\n      swap3\n      swap1\n      pop\n      jump\t// out\n        /* \"#utility.yul\":723:862   */\n    tag_184:\n        /* \"#utility.yul\":769:774   */\n      0x00\n        /* \"#utility.yul\":807:813   */\n      dup2\n        /* \"#utility.yul\":794:814   */\n      calldataload\n        /* \"#utility.yul\":785:814   */\n      swap1\n      pop\n        /* \"#utility.yul\":823:856   */\n      tag_186\n        /* \"#utility.yul\":850:855   */\n      dup2\n        /* \"#utility.yul\":823:856   */\n      tag_187\n      jump\t// in\n    tag_186:\n        /* \"#utility.yul\":723:862   */\n      swap3\n      swap2\n      pop\n      pop\n      jump\t// out\n        /* \"#utility.yul\":868:1197   */\n    tag_36:\n        /* \"#utility.yul\":927:933   */\n      0x00\n        /* \"#utility.yul\":976:978   */\n      0x20\n        /* \"#utility.yul\":964:973   */\n      dup3\n        /* \"#utility.yul\":955:962   */\n      dup5\n        /* \"#utility.yul\":951:974   */\n      sub\n        /* \"#utility.yul\":947:979   */\n      slt\n        /* \"#utility.yul\":944:1063   */\n      iszero\n      tag_189\n      jumpi\n        /* \"#utility.yul\":982:1061   */\n      tag_190\n      tag_191\n      jump\t// in\n    tag_190:\n        /* \"#utility.yul\":944:1063   */\n    tag_189:\n        /* \"#utility.yul\":1102:1103   */\n      0x00\n        /* \"#utility.yul\":1127:1180   */\n      tag_192\n        /* \"#utility.yul\":1172:1179   */\n      dup5\n        /* \"#utility.yul\":1163:1169   */\n      dup3\n        /* \"#utility.yul\":1152:1161   */\n      dup6\n        /* \"#utility.yul\":1148:1170   */\n      add\n        /* \"#utility.yul\":1127:1180   */\n      tag_169\n      jump\t// in\n    tag_192:\n        /* \"#utility.yul\":1117:1180   */\n      swap2\n      pop\n        /* \"#utility.yul\":1073:1190   */\n      pop\n        /* \"#utility.yul\":868:1197   */\n      swap3\n      swap2\n      pop\n      pop\n      jump\t// out\n        /* \"#utility.yul\":1203:2020   */\n    tag_27:\n        /* \"#utility.yul\":1291:1297   */\n      0x00\n        /* \"#utility.yul\":1299:1305   */\n      dup1\n        /* \"#utility.yul\":1307:1313   */\n      0x00\n        /* \"#utility.yul\":1315:1321   */\n      dup1\n        /* \"#utility.yul\":1364:1366   */\n      0x60\n        /* \"#utility.yul\":1352:1361   */\n      dup6\n        /* \"#utility.yul\":1343:1350   */\n      dup8\n        /* \"#utility.yul\":1339:1362   */\n      sub\n        /* \"#utility.yul\":1335:1367   */\n      slt\n        /* \"#utility.yul\":1332:1451   */\n      iszero\n      tag_194\n      jumpi\n        /* \"#utility.yul\":1370:1449   */\n      tag_195\n      tag_191\n      jump\t// in\n    tag_195:\n        /* \"#utility.yul\":1332:1451   */\n    tag_194:\n        /* \"#utility.yul\":1490:1491   */\n      0x00\n        /* \"#utility.yul\":1515:1568   */\n      tag_196\n        /* \"#utility.yul\":1560:1567   */\n      dup8\n        /* \"#utility.yul\":1551:1557   */\n      dup3\n        /* \"#utility.yul\":1540:1549   */\n      dup9\n        /* \"#utility.yul\":1536:1558   */\n      add\n        /* \"#utility.yul\":1515:1568   */\n      tag_169\n      jump\t// in\n    tag_196:\n        /* \"#utility.yul\":1505:1568   */\n      swap5\n      pop\n        /* \"#utility.yul\":1461:1578   */\n      pop\n        /* \"#utility.yul\":1617:1619   */\n      0x20\n        /* \"#utility.yul\":1643:1696   */\n      tag_197\n        /* \"#utility.yul\":1688:1695   */\n      dup8\n        /* \"#utility.yul\":1679:1685   */\n      dup3\n        /* \"#utility.yul\":1668:1677   */\n      dup9\n        /* \"#utility.yul\":1664:1686   */\n      add\n        /* \"#utility.yul\":1643:1696   */\n      tag_184\n      jump\t// in\n    tag_197:\n        /* \"#utility.yul\":1633:1696   */\n      swap4\n      pop\n        /* \"#utility.yul\":1588:1706   */\n      pop\n        /* \"#utility.yul\":1773:1775   */\n      0x40\n        /* \"#utility.yul\":1762:1771   */\n      dup6\n        /* \"#utility.yul\":1758:1776   */\n      add\n        /* \"#utility.yul\":1745:1777   */\n      calldataload\n        /* \"#utility.yul\":1804:1822   */\n      0xffffffffffffffff\n        /* \"#utility.yul\":1796:1802   */\n      dup2\n        /* \"#utility.yul\":1793:1823   */\n      gt\n        /* \"#utility.yul\":1790:1907   */\n      iszero\n      tag_198\n      jumpi\n        /* \"#utility.yul\":1826:1905   */\n      tag_199\n      tag_200\n      jump\t// in\n    tag_199:\n        /* \"#utility.yul\":1790:1907   */\n    tag_198:\n        /* \"#utility.yul\":1939:2003   */\n      tag_201\n        /* \"#utility.yul\":1995:2002   */\n      dup8\n        /* \"#utility.yul\":1986:1992   */\n      dup3\n        /* \"#utility.yul\":1975:1984   */\n      dup9\n        /* \"#utility.yul\":1971:1993   */\n      add\n        /* \"#utility.yul\":1939:2003   */\n      tag_173\n      jump\t// in\n    tag_201:\n        /* \"#utility.yul\":1921:2003   */\n      swap3\n      pop\n      swap3\n      pop\n        /* \"#utility.yul\":1716:2013   */\n      pop\n        /* \"#utility.yul\":1203:2020   */\n      swap3\n      swap6\n      swap2\n      swap5\n      pop\n      swap3\n      pop\n      jump\t// out\n        /* \"#utility.yul\":2026:2355   */\n    tag_20:\n        /* \"#utility.yul\":2085:2091   */\n      0x00\n        /* \"#utility.yul\":2134:2136   */\n      0x20\n        /* \"#utility.yul\":2122:2131   */\n      dup3\n        /* \"#utility.yul\":2113:2120   */\n      dup5\n        /* \"#utility.yul\":2109:2132   */\n      sub\n        /* \"#utility.yul\":2105:2137   */\n      slt\n        /* \"#utility.yul\":2102:2221   */\n      iszero\n      tag_203\n      jumpi\n        /* \"#utility.yul\":2140:2219   */\n      tag_204\n      tag_191\n      jump\t// in\n    tag_204:\n        /* \"#utility.yul\":2102:2221   */\n    tag_203:\n        /* \"#utility.yul\":2260:2261   */\n      0x00\n        /* \"#utility.yul\":2285:2338   */\n      tag_205\n        /* \"#utility.yul\":2330:2337   */\n      dup5\n        /* \"#utility.yul\":2321:2327   */\n      dup3\n        /* \"#utility.yul\":2310:2319   */\n      dup6\n        /* \"#utility.yul\":2306:2328   */\n      add\n        /* \"#utility.yul\":2285:2338   */\n      tag_184\n      jump\t// in\n    tag_205:\n        /* \"#utility.yul\":2275:2338   */\n      swap2\n      pop\n        /* \"#utility.yul\":2231:2348   */\n      pop\n        /* \"#utility.yul\":2026:2355   */\n      swap3\n      swap2\n      pop\n      pop\n      jump\t// out\n        /* \"#utility.yul\":2361:2835   */\n    tag_43:\n        /* \"#utility.yul\":2429:2435   */\n      0x00\n        /* \"#utility.yul\":2437:2443   */\n      dup1\n        /* \"#utility.yul\":2486:2488   */\n      0x40\n        /* \"#utility.yul\":2474:2483   */\n      dup4\n        /* \"#utility.yul\":2465:2472   */\n      dup6\n        /* \"#utility.yul\":2461:2484   */\n      sub\n        /* \"#utility.yul\":2457:2489   */\n      slt\n        /* \"#utility.yul\":2454:2573   */\n      iszero\n      tag_207\n      jumpi\n        /* \"#utility.yul\":2492:2571   */\n      tag_208\n      tag_191\n      jump\t// in\n    tag_208:\n        /* \"#utility.yul\":2454:2573   */\n    tag_207:\n        /* \"#utility.yul\":2612:2613   */\n      0x00\n        /* \"#utility.yul\":2637:2690   */\n      tag_209\n        /* \"#utility.yul\":2682:2689   */\n      dup6\n        /* \"#utility.yul\":2673:2679   */\n      dup3\n        /* \"#utility.yul\":2662:2671   */\n      dup7\n        /* \"#utility.yul\":2658:2680   */\n      add\n        /* \"#utility.yul\":2637:2690   */\n      tag_184\n      jump\t// in\n    tag_209:\n        /* \"#utility.yul\":2627:2690   */\n      swap3\n      pop\n        /* \"#utility.yul\":2583:2700   */\n      pop\n        /* \"#utility.yul\":2739:2741   */\n      0x20\n        /* \"#utility.yul\":2765:2818   */\n      tag_210\n        /* \"#utility.yul\":2810:2817   */\n      dup6\n        /* \"#utility.yul\":2801:2807   */\n      dup3\n        /* \"#utility.yul\":2790:2799   */\n      dup7\n        /* \"#utility.yul\":2786:2808   */\n      add\n        /* \"#utility.yul\":2765:2818   */\n      tag_169\n      jump\t// in\n    tag_210:\n        /* \"#utility.yul\":2755:2818   */\n      swap2\n      pop\n        /* \"#utility.yul\":2710:2828   */\n      pop\n        /* \"#utility.yul\":2361:2835   */\n      swap3\n      pop\n      swap3\n      swap1\n      pop\n      jump\t// out\n        /* \"#utility.yul\":2841:2959   */\n    tag_211:\n        /* \"#utility.yul\":2928:2952   */\n      tag_213\n        /* \"#utility.yul\":2946:2951   */\n      dup2\n        /* \"#utility.yul\":2928:2952   */\n      tag_214\n      jump\t// in\n    tag_213:\n        /* \"#utility.yul\":2923:2926   */\n      dup3\n        /* \"#utility.yul\":2916:2953   */\n      mstore\n        /* \"#utility.yul\":2841:2959   */\n      pop\n      pop\n      jump\t// out\n        /* \"#utility.yul\":2965:3074   */\n    tag_215:\n        /* \"#utility.yul\":3046:3067   */\n      tag_217\n        /* \"#utility.yul\":3061:3066   */\n      dup2\n        /* \"#utility.yul\":3046:3067   */\n      tag_218\n      jump\t// in\n    tag_217:\n        /* \"#utility.yul\":3041:3044   */\n      dup3\n        /* \"#utility.yul\":3034:3068   */\n      mstore\n        /* \"#utility.yul\":2965:3074   */\n      pop\n      pop\n      jump\t// out\n        /* \"#utility.yul\":3080:3440   */\n    tag_219:\n        /* \"#utility.yul\":3166:3169   */\n      0x00\n        /* \"#utility.yul\":3194:3232   */\n      tag_221\n        /* \"#utility.yul\":3226:3231   */\n      dup3\n        /* \"#utility.yul\":3194:3232   */\n      tag_222\n      jump\t// in\n    tag_221:\n        /* \"#utility.yul\":3248:3318   */\n      tag_223\n        /* \"#utility.yul\":3311:3317   */\n      dup2\n        /* \"#utility.yul\":3306:3309   */\n      dup6\n        /* \"#utility.yul\":3248:3318   */\n      tag_224\n      jump\t// in\n    tag_223:\n        /* \"#utility.yul\":3241:3318   */\n      swap4\n      pop\n        /* \"#utility.yul\":3327:3379   */\n      tag_225\n        /* \"#utility.yul\":3372:3378   */\n      dup2\n        /* \"#utility.yul\":3367:3370   */\n      dup6\n        /* \"#utility.yul\":3360:3364   */\n      0x20\n        /* \"#utility.yul\":3353:3358   */\n      dup7\n        /* \"#utility.yul\":3349:3365   */\n      add\n        /* \"#utility.yul\":3327:3379   */\n      tag_226\n      jump\t// in\n    tag_225:\n        /* \"#utility.yul\":3404:3433   */\n      tag_227\n        /* \"#utility.yul\":3426:3432   */\n      dup2\n        /* \"#utility.yul\":3404:3433   */\n      tag_228\n      jump\t// in\n    tag_227:\n        /* \"#utility.yul\":3399:3402   */\n      dup5\n        /* \"#utility.yul\":3395:3434   */\n      add\n        /* \"#utility.yul\":3388:3434   */\n      swap2\n      pop\n        /* \"#utility.yul\":3170:3440   */\n      pop\n        /* \"#utility.yul\":3080:3440   */\n      swap3\n      swap2\n      pop\n      pop\n      jump\t// out\n        /* \"#utility.yul\":3468:4309   */\n    tag_229:\n        /* \"#utility.yul\":3569:3572   */\n      0x00\n        /* \"#utility.yul\":3606:3611   */\n      dup2\n        /* \"#utility.yul\":3600:3612   */\n      sload\n        /* \"#utility.yul\":3635:3671   */\n      tag_231\n        /* \"#utility.yul\":3661:3670   */\n      dup2\n        /* \"#utility.yul\":3635:3671   */\n      tag_98\n      jump\t// in\n    tag_231:\n        /* \"#utility.yul\":3687:3775   */\n      tag_232\n        /* \"#utility.yul\":3768:3774   */\n      dup2\n        /* \"#utility.yul\":3763:3766   */\n      dup7\n        /* \"#utility.yul\":3687:3775   */\n      tag_233\n      jump\t// in\n    tag_232:\n        /* \"#utility.yul\":3680:3775   */\n      swap5\n      pop\n        /* \"#utility.yul\":3806:3807   */\n      0x01\n        /* \"#utility.yul\":3795:3804   */\n      dup3\n        /* \"#utility.yul\":3791:3808   */\n      and\n        /* \"#utility.yul\":3822:3823   */\n      0x00\n        /* \"#utility.yul\":3817:3954   */\n      dup2\n      eq\n      tag_235\n      jumpi\n        /* \"#utility.yul\":3968:3969   */\n      0x01\n        /* \"#utility.yul\":3963:4303   */\n      dup2\n      eq\n      tag_236\n      jumpi\n        /* \"#utility.yul\":3784:4303   */\n      jump(tag_234)\n        /* \"#utility.yul\":3817:3954   */\n    tag_235:\n        /* \"#utility.yul\":3901:3905   */\n      0xff\n        /* \"#utility.yul\":3897:3906   */\n      not\n        /* \"#utility.yul\":3886:3895   */\n      dup4\n        /* \"#utility.yul\":3882:3907   */\n      and\n        /* \"#utility.yul\":3877:3880   */\n      dup7\n        /* \"#utility.yul\":3870:3908   */\n      mstore\n        /* \"#utility.yul\":3937:3943   */\n      dup2\n        /* \"#utility.yul\":3932:3935   */\n      dup7\n        /* \"#utility.yul\":3928:3944   */\n      add\n        /* \"#utility.yul\":3921:3944   */\n      swap4\n      pop\n        /* \"#utility.yul\":3817:3954   */\n      jump(tag_234)\n        /* \"#utility.yul\":3963:4303   */\n    tag_236:\n        /* \"#utility.yul\":4030:4067   */\n      tag_237\n        /* \"#utility.yul\":4061:4066   */\n      dup6\n        /* \"#utility.yul\":4030:4067   */\n      tag_238\n      jump\t// in\n    tag_237:\n        /* \"#utility.yul\":4089:4090   */\n      0x00\n        /* \"#utility.yul\":4103:4257   */\n    tag_239:\n        /* \"#utility.yul\":4117:4123   */\n      dup4\n        /* \"#utility.yul\":4114:4115   */\n      dup2\n        /* \"#utility.yul\":4111:4124   */\n      lt\n        /* \"#utility.yul\":4103:4257   */\n      iszero\n      tag_241\n      jumpi\n        /* \"#utility.yul\":4191:4198   */\n      dup2\n        /* \"#utility.yul\":4185:4199   */\n      sload\n        /* \"#utility.yul\":4181:4182   */\n      dup2\n        /* \"#utility.yul\":4176:4179   */\n      dup10\n        /* \"#utility.yul\":4172:4183   */\n      add\n        /* \"#utility.yul\":4165:4200   */\n      mstore\n        /* \"#utility.yul\":4241:4242   */\n      0x01\n        /* \"#utility.yul\":4232:4239   */\n      dup3\n        /* \"#utility.yul\":4228:4243   */\n      add\n        /* \"#utility.yul\":4217:4243   */\n      swap2\n      pop\n        /* \"#utility.yul\":4139:4143   */\n      0x20\n        /* \"#utility.yul\":4136:4137   */\n      dup2\n        /* \"#utility.yul\":4132:4144   */\n      add\n        /* \"#utility.yul\":4127:4144   */\n      swap1\n      pop\n        /* \"#utility.yul\":4103:4257   */\n      jump(tag_239)\n    tag_241:\n        /* \"#utility.yul\":4286:4292   */\n      dup4\n        /* \"#utility.yul\":4281:4284   */\n      dup9\n        /* \"#utility.yul\":4277:4293   */\n      add\n        /* \"#utility.yul\":4270:4293   */\n      swap6\n      pop\n        /* \"#utility.yul\":3970:4303   */\n      pop\n      pop\n        /* \"#utility.yul\":3784:4303   */\n    tag_234:\n      pop\n        /* \"#utility.yul\":3573:4309   */\n      pop\n      pop\n        /* \"#utility.yul\":3468:4309   */\n      swap3\n      swap2\n      pop\n      pop\n      jump\t// out\n        /* \"#utility.yul\":4315:4681   */\n    tag_242:\n        /* \"#utility.yul\":4457:4460   */\n      0x00\n        /* \"#utility.yul\":4478:4545   */\n      tag_244\n        /* \"#utility.yul\":4542:4544   */\n      0x0f\n        /* \"#utility.yul\":4537:4540   */\n      dup4\n        /* \"#utility.yul\":4478:4545   */\n      tag_245\n      jump\t// in\n    tag_244:\n        /* \"#utility.yul\":4471:4545   */\n      swap2\n      pop\n        /* \"#utility.yul\":4554:4647   */\n      tag_246\n        /* \"#utility.yul\":4643:4646   */\n      dup3\n        /* \"#utility.yul\":4554:4647   */\n      tag_247\n      jump\t// in\n    tag_246:\n        /* \"#utility.yul\":4672:4674   */\n      0x20\n        /* \"#utility.yul\":4667:4670   */\n      dup3\n        /* \"#utility.yul\":4663:4675   */\n      add\n        /* \"#utility.yul\":4656:4675   */\n      swap1\n      pop\n        /* \"#utility.yul\":4315:4681   */\n      swap2\n      swap1\n      pop\n      jump\t// out\n        /* \"#utility.yul\":4687:5053   */\n    tag_248:\n        /* \"#utility.yul\":4829:4832   */\n      0x00\n        /* \"#utility.yul\":4850:4917   */\n      tag_250\n        /* \"#utility.yul\":4914:4916   */\n      0x14\n        /* \"#utility.yul\":4909:4912   */\n      dup4\n        /* \"#utility.yul\":4850:4917   */\n      tag_245\n      jump\t// in\n    tag_250:\n        /* \"#utility.yul\":4843:4917   */\n      swap2\n      pop\n        /* \"#utility.yul\":4926:5019   */\n      tag_251\n        /* \"#utility.yul\":5015:5018   */\n      dup3\n        /* \"#utility.yul\":4926:5019   */\n      tag_252\n      jump\t// in\n    tag_251:\n        /* \"#utility.yul\":5044:5046   */\n      0x20\n        /* \"#utility.yul\":5039:5042   */\n      dup3\n        /* \"#utility.yul\":5035:5047   */\n      add\n        /* \"#utility.yul\":5028:5047   */\n      swap1\n      pop\n        /* \"#utility.yul\":4687:5053   */\n      swap2\n      swap1\n      pop\n      jump\t// out\n        /* \"#utility.yul\":5059:5424   */\n    tag_253:\n        /* \"#utility.yul\":5201:5204   */\n      0x00\n        /* \"#utility.yul\":5222:5288   */\n      tag_255\n        /* \"#utility.yul\":5286:5287   */\n      0x09\n        /* \"#utility.yul\":5281:5284   */\n      dup4\n        /* \"#utility.yul\":5222:5288   */\n      tag_245\n      jump\t// in\n    tag_255:\n        /* \"#utility.yul\":5215:5288   */\n      swap2\n      pop\n        /* \"#utility.yul\":5297:5390   */\n      tag_256\n        /* \"#utility.yul\":5386:5389   */\n      dup3\n        /* \"#utility.yul\":5297:5390   */\n      tag_257\n      jump\t// in\n    tag_256:\n        /* \"#utility.yul\":5415:5417   */\n      0x20\n        /* \"#utility.yul\":5410:5413   */\n      dup3\n        /* \"#utility.yul\":5406:5418   */\n      add\n        /* \"#utility.yul\":5399:5418   */\n      swap1\n      pop\n        /* \"#utility.yul\":5059:5424   */\n      swap2\n      swap1\n      pop\n      jump\t// out\n        /* \"#utility.yul\":5430:5796   */\n    tag_258:\n        /* \"#utility.yul\":5572:5575   */\n      0x00\n        /* \"#utility.yul\":5593:5660   */\n      tag_260\n        /* \"#utility.yul\":5657:5659   */\n      0x11\n        /* \"#utility.yul\":5652:5655   */\n      dup4\n        /* \"#utility.yul\":5593:5660   */\n      tag_245\n      jump\t// in\n    tag_260:\n        /* \"#utility.yul\":5586:5660   */\n      swap2\n      pop\n        /* \"#utility.yul\":5669:5762   */\n      tag_261\n        /* \"#utility.yul\":5758:5761   */\n      dup3\n        /* \"#utility.yul\":5669:5762   */\n      tag_262\n      jump\t// in\n    tag_261:\n        /* \"#utility.yul\":5787:5789   */\n      0x20\n        /* \"#utility.yul\":5782:5785   */\n      dup3\n        /* \"#utility.yul\":5778:5790   */\n      add\n        /* \"#utility.yul\":5771:5790   */\n      swap1\n      pop\n        /* \"#utility.yul\":5430:5796   */\n      swap2\n      swap1\n      pop\n      jump\t// out\n        /* \"#utility.yul\":5802:6168   */\n    tag_263:\n        /* \"#utility.yul\":5944:5947   */\n      0x00\n        /* \"#utility.yul\":5965:6032   */\n      tag_265\n        /* \"#utility.yul\":6029:6031   */\n      0x13\n        /* \"#utility.yul\":6024:6027   */\n      dup4\n        /* \"#utility.yul\":5965:6032   */\n      tag_245\n      jump\t// in\n    tag_265:\n        /* \"#utility.yul\":5958:6032   */\n      swap2\n      pop\n        /* \"#utility.yul\":6041:6134   */\n      tag_266\n        /* \"#utility.yul\":6130:6133   */\n      dup3\n        /* \"#utility.yul\":6041:6134   */\n      tag_267\n      jump\t// in\n    tag_266:\n        /* \"#utility.yul\":6159:6161   */\n      0x20\n        /* \"#utility.yul\":6154:6157   */\n      dup3\n        /* \"#utility.yul\":6150:6162   */\n      add\n        /* \"#utility.yul\":6143:6162   */\n      swap1\n      pop\n        /* \"#utility.yul\":5802:6168   */\n      swap2\n      swap1\n      pop\n      jump\t// out\n        /* \"#utility.yul\":6174:6540   */\n    tag_268:\n        /* \"#utility.yul\":6316:6319   */\n      0x00\n        /* \"#utility.yul\":6337:6404   */\n      tag_270\n        /* \"#utility.yul\":6401:6403   */\n      0x13\n        /* \"#utility.yul\":6396:6399   */\n      dup4\n        /* \"#utility.yul\":6337:6404   */\n      tag_245\n      jump\t// in\n    tag_270:\n        /* \"#utility.yul\":6330:6404   */\n      swap2\n      pop\n        /* \"#utility.yul\":6413:6506   */\n      tag_271\n        /* \"#utility.yul\":6502:6505   */\n      dup3\n        /* \"#utility.yul\":6413:6506   */\n      tag_272\n      jump\t// in\n    tag_271:\n        /* \"#utility.yul\":6531:6533   */\n      0x20\n        /* \"#utility.yul\":6526:6529   */\n      dup3\n        /* \"#utility.yul\":6522:6534   */\n      add\n        /* \"#utility.yul\":6515:6534   */\n      swap1\n      pop\n        /* \"#utility.yul\":6174:6540   */\n      swap2\n      swap1\n      pop\n      jump\t// out\n        /* \"#utility.yul\":6546:6911   */\n    tag_273:\n        /* \"#utility.yul\":6688:6691   */\n      0x00\n        /* \"#utility.yul\":6709:6775   */\n      tag_275\n        /* \"#utility.yul\":6773:6774   */\n      0x09\n        /* \"#utility.yul\":6768:6771   */\n      dup4\n        /* \"#utility.yul\":6709:6775   */\n      tag_245\n      jump\t// in\n    tag_275:\n        /* \"#utility.yul\":6702:6775   */\n      swap2\n      pop\n        /* \"#utility.yul\":6784:6877   */\n      tag_276\n        /* \"#utility.yul\":6873:6876   */\n      dup3\n        /* \"#utility.yul\":6784:6877   */\n      tag_277\n      jump\t// in\n    tag_276:\n        /* \"#utility.yul\":6902:6904   */\n      0x20\n        /* \"#utility.yul\":6897:6900   */\n      dup3\n        /* \"#utility.yul\":6893:6905   */\n      add\n        /* \"#utility.yul\":6886:6905   */\n      swap1\n      pop\n        /* \"#utility.yul\":6546:6911   */\n      swap2\n      swap1\n      pop\n      jump\t// out\n        /* \"#utility.yul\":6917:7035   */\n    tag_278:\n        /* \"#utility.yul\":7004:7028   */\n      tag_280\n        /* \"#utility.yul\":7022:7027   */\n      dup2\n        /* \"#utility.yul\":7004:7028   */\n      tag_281\n      jump\t// in\n    tag_280:\n        /* \"#utility.yul\":6999:7002   */\n      dup3\n        /* \"#utility.yul\":6992:7029   */\n      mstore\n        /* \"#utility.yul\":6917:7035   */\n      pop\n      pop\n      jump\t// out\n        /* \"#utility.yul\":7041:7306   */\n    tag_139:\n        /* \"#utility.yul\":7168:7171   */\n      0x00\n        /* \"#utility.yul\":7190:7280   */\n      tag_283\n        /* \"#utility.yul\":7276:7279   */\n      dup3\n        /* \"#utility.yul\":7267:7273   */\n      dup5\n        /* \"#utility.yul\":7190:7280   */\n      tag_229\n      jump\t// in\n    tag_283:\n        /* \"#utility.yul\":7183:7280   */\n      swap2\n      pop\n        /* \"#utility.yul\":7297:7300   */\n      dup2\n        /* \"#utility.yul\":7290:7300   */\n      swap1\n      pop\n        /* \"#utility.yul\":7041:7306   */\n      swap3\n      swap2\n      pop\n      pop\n      jump\t// out\n        /* \"#utility.yul\":7312:7534   */\n    tag_23:\n        /* \"#utility.yul\":7405:7409   */\n      0x00\n        /* \"#utility.yul\":7443:7445   */\n      0x20\n        /* \"#utility.yul\":7432:7441   */\n      dup3\n        /* \"#utility.yul\":7428:7446   */\n      add\n        /* \"#utility.yul\":7420:7446   */\n      swap1\n      pop\n        /* \"#utility.yul\":7456:7527   */\n      tag_285\n        /* \"#utility.yul\":7524:7525   */\n      0x00\n        /* \"#utility.yul\":7513:7522   */\n      dup4\n        /* \"#utility.yul\":7509:7526   */\n      add\n        /* \"#utility.yul\":7500:7506   */\n      dup5\n        /* \"#utility.yul\":7456:7527   */\n      tag_211\n      jump\t// in\n    tag_285:\n        /* \"#utility.yul\":7312:7534   */\n      swap3\n      swap2\n      pop\n      pop\n      jump\t// out\n        /* \"#utility.yul\":7540:8168   */\n    tag_51:\n        /* \"#utility.yul\":7729:7733   */\n      0x00\n        /* \"#utility.yul\":7767:7770   */\n      0x80\n        /* \"#utility.yul\":7756:7765   */\n      dup3\n        /* \"#utility.yul\":7752:7771   */\n      add\n        /* \"#utility.yul\":7744:7771   */\n      swap1\n      pop\n        /* \"#utility.yul\":7781:7852   */\n      tag_287\n        /* \"#utility.yul\":7849:7850   */\n      0x00\n        /* \"#utility.yul\":7838:7847   */\n      dup4\n        /* \"#utility.yul\":7834:7851   */\n      add\n        /* \"#utility.yul\":7825:7831   */\n      dup8\n        /* \"#utility.yul\":7781:7852   */\n      tag_211\n      jump\t// in\n    tag_287:\n        /* \"#utility.yul\":7862:7934   */\n      tag_288\n        /* \"#utility.yul\":7930:7932   */\n      0x20\n        /* \"#utility.yul\":7919:7928   */\n      dup4\n        /* \"#utility.yul\":7915:7933   */\n      add\n        /* \"#utility.yul\":7906:7912   */\n      dup7\n        /* \"#utility.yul\":7862:7934   */\n      tag_278\n      jump\t// in\n    tag_288:\n        /* \"#utility.yul\":7981:7990   */\n      dup2\n        /* \"#utility.yul\":7975:7979   */\n      dup2\n        /* \"#utility.yul\":7971:7991   */\n      sub\n        /* \"#utility.yul\":7966:7968   */\n      0x40\n        /* \"#utility.yul\":7955:7964   */\n      dup4\n        /* \"#utility.yul\":7951:7969   */\n      add\n        /* \"#utility.yul\":7944:7992   */\n      mstore\n        /* \"#utility.yul\":8009:8085   */\n      tag_289\n        /* \"#utility.yul\":8080:8084   */\n      dup2\n        /* \"#utility.yul\":8071:8077   */\n      dup6\n        /* \"#utility.yul\":8009:8085   */\n      tag_219\n      jump\t// in\n    tag_289:\n        /* \"#utility.yul\":8001:8085   */\n      swap1\n      pop\n        /* \"#utility.yul\":8095:8161   */\n      tag_290\n        /* \"#utility.yul\":8157:8159   */\n      0x60\n        /* \"#utility.yul\":8146:8155   */\n      dup4\n        /* \"#utility.yul\":8142:8160   */\n      add\n        /* \"#utility.yul\":8133:8139   */\n      dup5\n        /* \"#utility.yul\":8095:8161   */\n      tag_215\n      jump\t// in\n    tag_290:\n        /* \"#utility.yul\":7540:8168   */\n      swap6\n      swap5\n      pop\n      pop\n      pop\n      pop\n      pop\n      jump\t// out\n        /* \"#utility.yul\":8174:8384   */\n    tag_39:\n        /* \"#utility.yul\":8261:8265   */\n      0x00\n        /* \"#utility.yul\":8299:8301   */\n      0x20\n        /* \"#utility.yul\":8288:8297   */\n      dup3\n        /* \"#utility.yul\":8284:8302   */\n      add\n        /* \"#utility.yul\":8276:8302   */\n      swap1\n      pop\n        /* \"#utility.yul\":8312:8377   */\n      tag_292\n        /* \"#utility.yul\":8374:8375   */\n      0x00\n        /* \"#utility.yul\":8363:8372   */\n      dup4\n        /* \"#utility.yul\":8359:8376   */\n      add\n        /* \"#utility.yul\":8350:8356   */\n      dup5\n        /* \"#utility.yul\":8312:8377   */\n      tag_215\n      jump\t// in\n    tag_292:\n        /* \"#utility.yul\":8174:8384   */\n      swap3\n      swap2\n      pop\n      pop\n      jump\t// out\n        /* \"#utility.yul\":8390:8809   */\n    tag_94:\n        /* \"#utility.yul\":8556:8560   */\n      0x00\n        /* \"#utility.yul\":8594:8596   */\n      0x20\n        /* \"#utility.yul\":8583:8592   */\n      dup3\n        /* \"#utility.yul\":8579:8597   */\n      add\n        /* \"#utility.yul\":8571:8597   */\n      swap1\n      pop\n        /* \"#utility.yul\":8643:8652   */\n      dup2\n        /* \"#utility.yul\":8637:8641   */\n      dup2\n        /* \"#utility.yul\":8633:8653   */\n      sub\n        /* \"#utility.yul\":8629:8630   */\n      0x00\n        /* \"#utility.yul\":8618:8627   */\n      dup4\n        /* \"#utility.yul\":8614:8631   */\n      add\n        /* \"#utility.yul\":8607:8654   */\n      mstore\n        /* \"#utility.yul\":8671:8802   */\n      tag_294\n        /* \"#utility.yul\":8797:8801   */\n      dup2\n        /* \"#utility.yul\":8671:8802   */\n      tag_242\n      jump\t// in\n    tag_294:\n        /* \"#utility.yul\":8663:8802   */\n      swap1\n      pop\n        /* \"#utility.yul\":8390:8809   */\n      swap2\n      swap1\n      pop\n      jump\t// out\n        /* \"#utility.yul\":8815:9234   */\n    tag_134:\n        /* \"#utility.yul\":8981:8985   */\n      0x00\n        /* \"#utility.yul\":9019:9021   */\n      0x20\n        /* \"#utility.yul\":9008:9017   */\n      dup3\n        /* \"#utility.yul\":9004:9022   */\n      add\n        /* \"#utility.yul\":8996:9022   */\n      swap1\n      pop\n        /* \"#utility.yul\":9068:9077   */\n      dup2\n        /* \"#utility.yul\":9062:9066   */\n      dup2\n        /* \"#utility.yul\":9058:9078   */\n      sub\n        /* \"#utility.yul\":9054:9055   */\n      0x00\n        /* \"#utility.yul\":9043:9052   */\n      dup4\n        /* \"#utility.yul\":9039:9056   */\n      add\n        /* \"#utility.yul\":9032:9079   */\n      mstore\n        /* \"#utility.yul\":9096:9227   */\n      tag_296\n        /* \"#utility.yul\":9222:9226   */\n      dup2\n        /* \"#utility.yul\":9096:9227   */\n      tag_248\n      jump\t// in\n    tag_296:\n        /* \"#utility.yul\":9088:9227   */\n      swap1\n      pop\n        /* \"#utility.yul\":8815:9234   */\n      swap2\n      swap1\n      pop\n      jump\t// out\n        /* \"#utility.yul\":9240:9659   */\n    tag_145:\n        /* \"#utility.yul\":9406:9410   */\n      0x00\n        /* \"#utility.yul\":9444:9446   */\n      0x20\n        /* \"#utility.yul\":9433:9442   */\n      dup3\n        /* \"#utility.yul\":9429:9447   */\n      add\n        /* \"#utility.yul\":9421:9447   */\n      swap1\n      pop\n        /* \"#utility.yul\":9493:9502   */\n      dup2\n        /* \"#utility.yul\":9487:9491   */\n      dup2\n        /* \"#utility.yul\":9483:9503   */\n      sub\n        /* \"#utility.yul\":9479:9480   */\n      0x00\n        /* \"#utility.yul\":9468:9477   */\n      dup4\n        /* \"#utility.yul\":9464:9481   */\n      add\n        /* \"#utility.yul\":9457:9504   */\n      mstore\n        /* \"#utility.yul\":9521:9652   */\n      tag_298\n        /* \"#utility.yul\":9647:9651   */\n      dup2\n        /* \"#utility.yul\":9521:9652   */\n      tag_253\n      jump\t// in\n    tag_298:\n        /* \"#utility.yul\":9513:9652   */\n      swap1\n      pop\n        /* \"#utility.yul\":9240:9659   */\n      swap2\n      swap1\n      pop\n      jump\t// out\n        /* \"#utility.yul\":9665:10084   */\n    tag_82:\n        /* \"#utility.yul\":9831:9835   */\n      0x00\n        /* \"#utility.yul\":9869:9871   */\n      0x20\n        /* \"#utility.yul\":9858:9867   */\n      dup3\n        /* \"#utility.yul\":9854:9872   */\n      add\n        /* \"#utility.yul\":9846:9872   */\n      swap1\n      pop\n        /* \"#utility.yul\":9918:9927   */\n      dup2\n        /* \"#utility.yul\":9912:9916   */\n      dup2\n        /* \"#utility.yul\":9908:9928   */\n      sub\n        /* \"#utility.yul\":9904:9905   */\n      0x00\n        /* \"#utility.yul\":9893:9902   */\n      dup4\n        /* \"#utility.yul\":9889:9906   */\n      add\n        /* \"#utility.yul\":9882:9929   */\n      mstore\n        /* \"#utility.yul\":9946:10077   */\n      tag_300\n        /* \"#utility.yul\":10072:10076   */\n      dup2\n        /* \"#utility.yul\":9946:10077   */\n      tag_258\n      jump\t// in\n    tag_300:\n        /* \"#utility.yul\":9938:10077   */\n      swap1\n      pop\n        /* \"#utility.yul\":9665:10084   */\n      swap2\n      swap1\n      pop\n      jump\t// out\n        /* \"#utility.yul\":10090:10509   */\n    tag_112:\n        /* \"#utility.yul\":10256:10260   */\n      0x00\n        /* \"#utility.yul\":10294:10296   */\n      0x20\n        /* \"#utility.yul\":10283:10292   */\n      dup3\n        /* \"#utility.yul\":10279:10297   */\n      add\n        /* \"#utility.yul\":10271:10297   */\n      swap1\n      pop\n        /* \"#utility.yul\":10343:10352   */\n      dup2\n        /* \"#utility.yul\":10337:10341   */\n      dup2\n        /* \"#utility.yul\":10333:10353   */\n      sub\n        /* \"#utility.yul\":10329:10330   */\n      0x00\n        /* \"#utility.yul\":10318:10327   */\n      dup4\n        /* \"#utility.yul\":10314:10331   */\n      add\n        /* \"#utility.yul\":10307:10354   */\n      mstore\n        /* \"#utility.yul\":10371:10502   */\n      tag_302\n        /* \"#utility.yul\":10497:10501   */\n      dup2\n        /* \"#utility.yul\":10371:10502   */\n      tag_263\n      jump\t// in\n    tag_302:\n        /* \"#utility.yul\":10363:10502   */\n      swap1\n      pop\n        /* \"#utility.yul\":10090:10509   */\n      swap2\n      swap1\n      pop\n      jump\t// out\n        /* \"#utility.yul\":10515:10934   */\n    tag_90:\n        /* \"#utility.yul\":10681:10685   */\n      0x00\n        /* \"#utility.yul\":10719:10721   */\n      0x20\n        /* \"#utility.yul\":10708:10717   */\n      dup3\n        /* \"#utility.yul\":10704:10722   */\n      add\n        /* \"#utility.yul\":10696:10722   */\n      swap1\n      pop\n        /* \"#utility.yul\":10768:10777   */\n      dup2\n        /* \"#utility.yul\":10762:10766   */\n      dup2\n        /* \"#utility.yul\":10758:10778   */\n      sub\n        /* \"#utility.yul\":10754:10755   */\n      0x00\n        /* \"#utility.yul\":10743:10752   */\n      dup4\n        /* \"#utility.yul\":10739:10756   */\n      add\n        /* \"#utility.yul\":10732:10779   */\n      mstore\n        /* \"#utility.yul\":10796:10927   */\n      tag_304\n        /* \"#utility.yul\":10922:10926   */\n      dup2\n        /* \"#utility.yul\":10796:10927   */\n      tag_268\n      jump\t// in\n    tag_304:\n        /* \"#utility.yul\":10788:10927   */\n      swap1\n      pop\n        /* \"#utility.yul\":10515:10934   */\n      swap2\n      swap1\n      pop\n      jump\t// out\n        /* \"#utility.yul\":10940:11359   */\n    tag_69:\n        /* \"#utility.yul\":11106:11110   */\n      0x00\n        /* \"#utility.yul\":11144:11146   */\n      0x20\n        /* \"#utility.yul\":11133:11142   */\n      dup3\n        /* \"#utility.yul\":11129:11147   */\n      add\n        /* \"#utility.yul\":11121:11147   */\n      swap1\n      pop\n        /* \"#utility.yul\":11193:11202   */\n      dup2\n        /* \"#utility.yul\":11187:11191   */\n      dup2\n        /* \"#utility.yul\":11183:11203   */\n      sub\n        /* \"#utility.yul\":11179:11180   */\n      0x00\n        /* \"#utility.yul\":11168:11177   */\n      dup4\n        /* \"#utility.yul\":11164:11181   */\n      add\n        /* \"#utility.yul\":11157:11204   */\n      mstore\n        /* \"#utility.yul\":11221:11352   */\n      tag_306\n        /* \"#utility.yul\":11347:11351   */\n      dup2\n        /* \"#utility.yul\":11221:11352   */\n      tag_273\n      jump\t// in\n    tag_306:\n        /* \"#utility.yul\":11213:11352   */\n      swap1\n      pop\n        /* \"#utility.yul\":10940:11359   */\n      swap2\n      swap1\n      pop\n      jump\t// out\n        /* \"#utility.yul\":11365:11587   */\n    tag_16:\n        /* \"#utility.yul\":11458:11462   */\n      0x00\n        /* \"#utility.yul\":11496:11498   */\n      0x20\n        /* \"#utility.yul\":11485:11494   */\n      dup3\n        /* \"#utility.yul\":11481:11499   */\n      add\n        /* \"#utility.yul\":11473:11499   */\n      swap1\n      pop\n        /* \"#utility.yul\":11509:11580   */\n      tag_308\n        /* \"#utility.yul\":11577:11578   */\n      0x00\n        /* \"#utility.yul\":11566:11575   */\n      dup4\n        /* \"#utility.yul\":11562:11579   */\n      add\n        /* \"#utility.yul\":11553:11559   */\n      dup5\n        /* \"#utility.yul\":11509:11580   */\n      tag_278\n      jump\t// in\n    tag_308:\n        /* \"#utility.yul\":11365:11587   */\n      swap3\n      swap2\n      pop\n      pop\n      jump\t// out\n        /* \"#utility.yul\":11674:11814   */\n    tag_238:\n        /* \"#utility.yul\":11722:11726   */\n      0x00\n        /* \"#utility.yul\":11745:11748   */\n      dup2\n        /* \"#utility.yul\":11737:11748   */\n      swap1\n      pop\n        /* \"#utility.yul\":11768:11771   */\n      dup2\n        /* \"#utility.yul\":11765:11766   */\n      0x00\n        /* \"#utility.yul\":11758:11772   */\n      mstore\n        /* \"#utility.yul\":11802:11806   */\n      0x20\n        /* \"#utility.yul\":11799:11800   */\n      0x00\n        /* \"#utility.yul\":11789:11807   */\n      keccak256\n        /* \"#utility.yul\":11781:11807   */\n      swap1\n      pop\n        /* \"#utility.yul\":11674:11814   */\n      swap2\n      swap1\n      pop\n      jump\t// out\n        /* \"#utility.yul\":11820:11918   */\n    tag_222:\n        /* \"#utility.yul\":11871:11877   */\n      0x00\n        /* \"#utility.yul\":11905:11910   */\n      dup2\n        /* \"#utility.yul\":11899:11911   */\n      mload\n        /* \"#utility.yul\":11889:11911   */\n      swap1\n      pop\n        /* \"#utility.yul\":11820:11918   */\n      swap2\n      swap1\n      pop\n      jump\t// out\n        /* \"#utility.yul\":11924:12092   */\n    tag_224:\n        /* \"#utility.yul\":12007:12018   */\n      0x00\n        /* \"#utility.yul\":12041:12047   */\n      dup3\n        /* \"#utility.yul\":12036:12039   */\n      dup3\n        /* \"#utility.yul\":12029:12048   */\n      mstore\n        /* \"#utility.yul\":12081:12085   */\n      0x20\n        /* \"#utility.yul\":12076:12079   */\n      dup3\n        /* \"#utility.yul\":12072:12086   */\n      add\n        /* \"#utility.yul\":12057:12086   */\n      swap1\n      pop\n        /* \"#utility.yul\":11924:12092   */\n      swap3\n      swap2\n      pop\n      pop\n      jump\t// out\n        /* \"#utility.yul\":12098:12245   */\n    tag_233:\n        /* \"#utility.yul\":12199:12210   */\n      0x00\n        /* \"#utility.yul\":12236:12239   */\n      dup2\n        /* \"#utility.yul\":12221:12239   */\n      swap1\n      pop\n        /* \"#utility.yul\":12098:12245   */\n      swap3\n      swap2\n      pop\n      pop\n      jump\t// out\n        /* \"#utility.yul\":12251:12420   */\n    tag_245:\n        /* \"#utility.yul\":12335:12346   */\n      0x00\n        /* \"#utility.yul\":12369:12375   */\n      dup3\n        /* \"#utility.yul\":12364:12367   */\n      dup3\n        /* \"#utility.yul\":12357:12376   */\n      mstore\n        /* \"#utility.yul\":12409:12413   */\n      0x20\n        /* \"#utility.yul\":12404:12407   */\n      dup3\n        /* \"#utility.yul\":12400:12414   */\n      add\n        /* \"#utility.yul\":12385:12414   */\n      swap1\n      pop\n        /* \"#utility.yul\":12251:12420   */\n      swap3\n      swap2\n      pop\n      pop\n      jump\t// out\n        /* \"#utility.yul\":12426:12731   */\n    tag_155:\n        /* \"#utility.yul\":12466:12469   */\n      0x00\n        /* \"#utility.yul\":12485:12505   */\n      tag_317\n        /* \"#utility.yul\":12503:12504   */\n      dup3\n        /* \"#utility.yul\":12485:12505   */\n      tag_281\n      jump\t// in\n    tag_317:\n        /* \"#utility.yul\":12480:12505   */\n      swap2\n      pop\n        /* \"#utility.yul\":12519:12539   */\n      tag_318\n        /* \"#utility.yul\":12537:12538   */\n      dup4\n        /* \"#utility.yul\":12519:12539   */\n      tag_281\n      jump\t// in\n    tag_318:\n        /* \"#utility.yul\":12514:12539   */\n      swap3\n      pop\n        /* \"#utility.yul\":12673:12674   */\n      dup3\n        /* \"#utility.yul\":12605:12671   */\n      0xffffffffffffffffffffffffffffffffffffffffffffffffffffffffffffffff\n        /* \"#utility.yul\":12601:12675   */\n      sub\n        /* \"#utility.yul\":12598:12599   */\n      dup3\n        /* \"#utility.yul\":12595:12676   */\n      gt\n        /* \"#utility.yul\":12592:12699   */\n      iszero\n      tag_319\n      jumpi\n        /* \"#utility.yul\":12679:12697   */\n      tag_320\n      tag_321\n      jump\t// in\n    tag_320:\n        /* \"#utility.yul\":12592:12699   */\n    tag_319:\n        /* \"#utility.yul\":12723:12724   */\n      dup3\n        /* \"#utility.yul\":12720:12721   */\n      dup3\n        /* \"#utility.yul\":12716:12725   */\n      add\n        /* \"#utility.yul\":12709:12725   */\n      swap1\n      pop\n        /* \"#utility.yul\":12426:12731   */\n      swap3\n      swap2\n      pop\n      pop\n      jump\t// out\n        /* \"#utility.yul\":12737:12928   */\n    tag_75:\n        /* \"#utility.yul\":12777:12781   */\n      0x00\n        /* \"#utility.yul\":12797:12817   */\n      tag_323\n        /* \"#utility.yul\":12815:12816   */\n      dup3\n        /* \"#utility.yul\":12797:12817   */\n      tag_281\n      jump\t// in\n    tag_323:\n        /* \"#utility.yul\":12792:12817   */\n      swap2\n      pop\n        /* \"#utility.yul\":12831:12851   */\n      tag_324\n        /* \"#utility.yul\":12849:12850   */\n      dup4\n        /* \"#utility.yul\":12831:12851   */\n      tag_281\n      jump\t// in\n    tag_324:\n        /* \"#utility.yul\":12826:12851   */\n      swap3\n      pop\n        /* \"#utility.yul\":12870:12871   */\n      dup3\n        /* \"#utility.yul\":12867:12868   */\n      dup3\n        /* \"#utility.yul\":12864:12872   */\n      lt\n        /* \"#utility.yul\":12861:12895   */\n      iszero\n      tag_325\n      jumpi\n        /* \"#utility.yul\":12875:12893   */\n      tag_326\n      tag_321\n      jump\t// in\n    tag_326:\n        /* \"#utility.yul\":12861:12895   */\n    tag_325:\n        /* \"#utility.yul\":12920:12921   */\n      dup3\n        /* \"#utility.yul\":12917:12918   */\n      dup3\n        /* \"#utility.yul\":12913:12922   */\n      sub\n        /* \"#utility.yul\":12905:12922   */\n      swap1\n      pop\n        /* \"#utility.yul\":12737:12928   */\n      swap3\n      swap2\n      pop\n      pop\n      jump\t// out\n        /* \"#utility.yul\":12934:13030   */\n    tag_214:\n        /* \"#utility.yul\":12971:12978   */\n      0x00\n        /* \"#utility.yul\":13000:13024   */\n      tag_328\n        /* \"#utility.yul\":13018:13023   */\n      dup3\n        /* \"#utility.yul\":13000:13024   */\n      tag_329\n      jump\t// in\n    tag_328:\n        /* \"#utility.yul\":12989:13024   */\n      swap1\n      pop\n        /* \"#utility.yul\":12934:13030   */\n      swap2\n      swap1\n      pop\n      jump\t// out\n        /* \"#utility.yul\":13036:13126   */\n    tag_218:\n        /* \"#utility.yul\":13070:13077   */\n      0x00\n        /* \"#utility.yul\":13113:13118   */\n      dup2\n        /* \"#utility.yul\":13106:13119   */\n      iszero\n        /* \"#utility.yul\":13099:13120   */\n      iszero\n        /* \"#utility.yul\":13088:13120   */\n      swap1\n      pop\n        /* \"#utility.yul\":13036:13126   */\n      swap2\n      swap1\n      pop\n      jump\t// out\n        /* \"#utility.yul\":13132:13258   */\n    tag_329:\n        /* \"#utility.yul\":13169:13176   */\n      0x00\n        /* \"#utility.yul\":13209:13251   */\n      0xffffffffffffffffffffffffffffffffffffffff\n        /* \"#utility.yul\":13202:13207   */\n      dup3\n        /* \"#utility.yul\":13198:13252   */\n      and\n        /* \"#utility.yul\":13187:13252   */\n      swap1\n      pop\n        /* \"#utility.yul\":13132:13258   */\n      swap2\n      swap1\n      pop\n      jump\t// out\n        /* \"#utility.yul\":13264:13341   */\n    tag_281:\n        /* \"#utility.yul\":13301:13308   */\n      0x00\n        /* \"#utility.yul\":13330:13335   */\n      dup2\n        /* \"#utility.yul\":13319:13335   */\n      swap1\n      pop\n        /* \"#utility.yul\":13264:13341   */\n      swap2\n      swap1\n      pop\n      jump\t// out\n        /* \"#utility.yul\":13347:13654   */\n    tag_226:\n        /* \"#utility.yul\":13415:13416   */\n      0x00\n        /* \"#utility.yul\":13425:13538   */\n    tag_334:\n        /* \"#utility.yul\":13439:13445   */\n      dup4\n        /* \"#utility.yul\":13436:13437   */\n      dup2\n        /* \"#utility.yul\":13433:13446   */\n      lt\n        /* \"#utility.yul\":13425:13538   */\n      iszero\n      tag_336\n      jumpi\n        /* \"#utility.yul\":13524:13525   */\n      dup1\n        /* \"#utility.yul\":13519:13522   */\n      dup3\n        /* \"#utility.yul\":13515:13526   */\n      add\n        /* \"#utility.yul\":13509:13527   */\n      mload\n        /* \"#utility.yul\":13505:13506   */\n      dup2\n        /* \"#utility.yul\":13500:13503   */\n      dup5\n        /* \"#utility.yul\":13496:13507   */\n      add\n        /* \"#utility.yul\":13489:13528   */\n      mstore\n        /* \"#utility.yul\":13461:13463   */\n      0x20\n        /* \"#utility.yul\":13458:13459   */\n      dup2\n        /* \"#utility.yul\":13454:13464   */\n      add\n        /* \"#utility.yul\":13449:13464   */\n      swap1\n      pop\n        /* \"#utility.yul\":13425:13538   */\n      jump(tag_334)\n    tag_336:\n        /* \"#utility.yul\":13556:13562   */\n      dup4\n        /* \"#utility.yul\":13553:13554   */\n      dup2\n        /* \"#utility.yul\":13550:13563   */\n      gt\n        /* \"#utility.yul\":13547:13648   */\n      iszero\n      tag_337\n      jumpi\n        /* \"#utility.yul\":13636:13637   */\n      0x00\n        /* \"#utility.yul\":13627:13633   */\n      dup5\n        /* \"#utility.yul\":13622:13625   */\n      dup5\n        /* \"#utility.yul\":13618:13634   */\n      add\n        /* \"#utility.yul\":13611:13638   */\n      mstore\n        /* \"#utility.yul\":13547:13648   */\n    tag_337:\n        /* \"#utility.yul\":13396:13654   */\n      pop\n        /* \"#utility.yul\":13347:13654   */\n      pop\n      pop\n      pop\n      jump\t// out\n        /* \"#utility.yul\":13660:13980   */\n    tag_98:\n        /* \"#utility.yul\":13704:13710   */\n      0x00\n        /* \"#utility.yul\":13741:13742   */\n      0x02\n        /* \"#utility.yul\":13735:13739   */\n      dup3\n        /* \"#utility.yul\":13731:13743   */\n      div\n        /* \"#utility.yul\":13721:13743   */\n      swap1\n      pop\n        /* \"#utility.yul\":13788:13789   */\n      0x01\n        /* \"#utility.yul\":13782:13786   */\n      dup3\n        /* \"#utility.yul\":13778:13790   */\n      and\n        /* \"#utility.yul\":13809:13827   */\n      dup1\n        /* \"#utility.yul\":13799:13880   */\n      tag_339\n      jumpi\n        /* \"#utility.yul\":13865:13869   */\n      0x7f\n        /* \"#utility.yul\":13857:13863   */\n      dup3\n        /* \"#utility.yul\":13853:13870   */\n      and\n        /* \"#utility.yul\":13843:13870   */\n      swap2\n      pop\n        /* \"#utility.yul\":13799:13880   */\n    tag_339:\n        /* \"#utility.yul\":13927:13929   */\n      0x20\n        /* \"#utility.yul\":13919:13925   */\n      dup3\n        /* \"#utility.yul\":13916:13930   */\n      lt\n        /* \"#utility.yul\":13896:13914   */\n      dup2\n        /* \"#utility.yul\":13893:13931   */\n      eq\n        /* \"#utility.yul\":13890:13974   */\n      iszero\n      tag_340\n      jumpi\n        /* \"#utility.yul\":13946:13964   */\n      tag_341\n      tag_342\n      jump\t// in\n    tag_341:\n        /* \"#utility.yul\":13890:13974   */\n    tag_340:\n        /* \"#utility.yul\":13711:13980   */\n      pop\n        /* \"#utility.yul\":13660:13980   */\n      swap2\n      swap1\n      pop\n      jump\t// out\n        /* \"#utility.yul\":13986:14219   */\n    tag_157:\n        /* \"#utility.yul\":14025:14028   */\n      0x00\n        /* \"#utility.yul\":14048:14072   */\n      tag_344\n        /* \"#utility.yul\":14066:14071   */\n      dup3\n        /* \"#utility.yul\":14048:14072   */\n      tag_281\n      jump\t// in\n    tag_344:\n        /* \"#utility.yul\":14039:14072   */\n      swap2\n      pop\n        /* \"#utility.yul\":14094:14160   */\n      0xffffffffffffffffffffffffffffffffffffffffffffffffffffffffffffffff\n        /* \"#utility.yul\":14087:14092   */\n      dup3\n        /* \"#utility.yul\":14084:14161   */\n      eq\n        /* \"#utility.yul\":14081:14184   */\n      iszero\n      tag_345\n      jumpi\n        /* \"#utility.yul\":14164:14182   */\n      tag_346\n      tag_321\n      jump\t// in\n    tag_346:\n        /* \"#utility.yul\":14081:14184   */\n    tag_345:\n        /* \"#utility.yul\":14211:14212   */\n      0x01\n        /* \"#utility.yul\":14204:14209   */\n      dup3\n        /* \"#utility.yul\":14200:14213   */\n      add\n        /* \"#utility.yul\":14193:14213   */\n      swap1\n      pop\n        /* \"#utility.yul\":13986:14219   */\n      swap2\n      swap1\n      pop\n      jump\t// out\n        /* \"#utility.yul\":14225:14405   */\n    tag_321:\n        /* \"#utility.yul\":14273:14350   */\n      0x4e487b7100000000000000000000000000000000000000000000000000000000\n        /* \"#utility.yul\":14270:14271   */\n      0x00\n        /* \"#utility.yul\":14263:14351   */\n      mstore\n        /* \"#utility.yul\":14370:14374   */\n      0x11\n        /* \"#utility.yul\":14367:14368   */\n      0x04\n        /* \"#utility.yul\":14360:14375   */\n      mstore\n        /* \"#utility.yul\":14394:14398   */\n      0x24\n        /* \"#utility.yul\":14391:14392   */\n      0x00\n        /* \"#utility.yul\":14384:14399   */\n      revert\n        /* \"#utility.yul\":14411:14591   */\n    tag_342:\n        /* \"#utility.yul\":14459:14536   */\n      0x4e487b7100000000000000000000000000000000000000000000000000000000\n        /* \"#utility.yul\":14456:14457   */\n      0x00\n        /* \"#utility.yul\":14449:14537   */\n      mstore\n        /* \"#utility.yul\":14556:14560   */\n      0x22\n        /* \"#utility.yul\":14553:14554   */\n      0x04\n        /* \"#utility.yul\":14546:14561   */\n      mstore\n        /* \"#utility.yul\":14580:14584   */\n      0x24\n        /* \"#utility.yul\":14577:14578   */\n      0x00\n        /* \"#utility.yul\":14570:14585   */\n      revert\n        /* \"#utility.yul\":14597:14777   */\n    tag_86:\n        /* \"#utility.yul\":14645:14722   */\n      0x4e487b7100000000000000000000000000000000000000000000000000000000\n        /* \"#utility.yul\":14642:14643   */\n      0x00\n        /* \"#utility.yul\":14635:14723   */\n      mstore\n        /* \"#utility.yul\":14742:14746   */\n      0x32\n        /* \"#utility.yul\":14739:14740   */\n      0x04\n        /* \"#utility.yul\":14732:14747   */\n      mstore\n        /* \"#utility.yul\":14766:14770   */\n      0x24\n        /* \"#utility.yul\":14763:14764   */\n      0x00\n        /* \"#utility.yul\":14756:14771   */\n      revert\n        /* \"#utility.yul\":14783:14900   */\n    tag_180:\n        /* \"#utility.yul\":14892:14893   */\n      0x00\n        /* \"#utility.yul\":14889:14890   */\n      dup1\n        /* \"#utility.yul\":14882:14894   */\n      revert\n        /* \"#utility.yul\":14906:15023   */\n    tag_177:\n        /* \"#utility.yul\":15015:15016   */\n      0x00\n        /* \"#utility.yul\":15012:15013   */\n      dup1\n        /* \"#utility.yul\":15005:15017   */\n      revert\n        /* \"#utility.yul\":15029:15146   */\n    tag_183:\n        /* \"#utility.yul\":15138:15139   */\n      0x00\n        /* \"#utility.yul\":15135:15136   */\n      dup1\n        /* \"#utility.yul\":15128:15140   */\n      revert\n        /* \"#utility.yul\":15152:15269   */\n    tag_200:\n        /* \"#utility.yul\":15261:15262   */\n      0x00\n        /* \"#utility.yul\":15258:15259   */\n      dup1\n        /* \"#utility.yul\":15251:15263   */\n      revert\n        /* \"#utility.yul\":15275:15392   */\n    tag_191:\n        /* \"#utility.yul\":15384:15385   */\n      0x00\n        /* \"#utility.yul\":15381:15382   */\n      dup1\n        /* \"#utility.yul\":15374:15386   */\n      revert\n        /* \"#utility.yul\":15398:15500   */\n    tag_228:\n        /* \"#utility.yul\":15439:15445   */\n      0x00\n        /* \"#utility.yul\":15490:15492   */\n      0x1f\n        /* \"#utility.yul\":15486:15493   */\n      not\n        /* \"#utility.yul\":15481:15483   */\n      0x1f\n        /* \"#utility.yul\":15474:15479   */\n      dup4\n        /* \"#utility.yul\":15470:15484   */\n      add\n        /* \"#utility.yul\":15466:15494   */\n      and\n        /* \"#utility.yul\":15456:15494   */\n      swap1\n      pop\n        /* \"#utility.yul\":15398:15500   */\n      swap2\n      swap1\n      pop\n      jump\t// out\n        /* \"#utility.yul\":15506:15671   */\n    tag_247:\n        /* \"#utility.yul\":15646:15663   */\n      0x7478206e6f7420617070726f7665640000000000000000000000000000000000\n        /* \"#utility.yul\":15642:15643   */\n      0x00\n        /* \"#utility.yul\":15634:15640   */\n      dup3\n        /* \"#utility.yul\":15630:15644   */\n      add\n        /* \"#utility.yul\":15623:15664   */\n      mstore\n        /* \"#utility.yul\":15506:15671   */\n      pop\n      jump\t// out\n        /* \"#utility.yul\":15677:15847   */\n    tag_252:\n        /* \"#utility.yul\":15817:15839   */\n      0x617070726f76616c73203c207265717569726564000000000000000000000000\n        /* \"#utility.yul\":15813:15814   */\n      0x00\n        /* \"#utility.yul\":15805:15811   */\n      dup3\n        /* \"#utility.yul\":15801:15815   */\n      add\n        /* \"#utility.yul\":15794:15840   */\n      mstore\n        /* \"#utility.yul\":15677:15847   */\n      pop\n      jump\t// out\n        /* \"#utility.yul\":15853:16012   */\n    tag_257:\n        /* \"#utility.yul\":15993:16004   */\n      0x7478206661696c65640000000000000000000000000000000000000000000000\n        /* \"#utility.yul\":15989:15990   */\n      0x00\n        /* \"#utility.yul\":15981:15987   */\n      dup3\n        /* \"#utility.yul\":15977:15991   */\n      add\n        /* \"#utility.yul\":15970:16005   */\n      mstore\n        /* \"#utility.yul\":15853:16012   */\n      pop\n      jump\t// out\n        /* \"#utility.yul\":16018:16185   */\n    tag_262:\n        /* \"#utility.yul\":16158:16177   */\n      0x747820646f6573206e6f74206578697374000000000000000000000000000000\n        /* \"#utility.yul\":16154:16155   */\n      0x00\n        /* \"#utility.yul\":16146:16152   */\n      dup3\n        /* \"#utility.yul\":16142:16156   */\n      add\n        /* \"#utility.yul\":16135:16178   */\n      mstore\n        /* \"#utility.yul\":16018:16185   */\n      pop\n      jump\t// out\n        /* \"#utility.yul\":16191:16360   */\n    tag_267:\n        /* \"#utility.yul\":16331:16352   */\n      0x747820616c726561647920617070726f76656400000000000000000000000000\n        /* \"#utility.yul\":16327:16328   */\n      0x00\n        /* \"#utility.yul\":16319:16325   */\n      dup3\n        /* \"#utility.yul\":16315:16329   */\n      add\n        /* \"#utility.yul\":16308:16353   */\n      mstore\n        /* \"#utility.yul\":16191:16360   */\n      pop\n      jump\t// out\n        /* \"#utility.yul\":16366:16535   */\n    tag_272:\n        /* \"#utility.yul\":16506:16527   */\n      0x747820616c726561647920657865637574656400000000000000000000000000\n        /* \"#utility.yul\":16502:16503   */\n      0x00\n        /* \"#utility.yul\":16494:16500   */\n      dup3\n        /* \"#utility.yul\":16490:16504   */\n      add\n        /* \"#utility.yul\":16483:16528   */\n      mstore\n        /* \"#utility.yul\":16366:16535   */\n      pop\n      jump\t// out\n        /* \"#utility.yul\":16541:16700   */\n    tag_277:\n        /* \"#utility.yul\":16681:16692   */\n      0x6e6f74206f776e65720000000000000000000000000000000000000000000000\n        /* \"#utility.yul\":16677:16678   */\n      0x00\n        /* \"#utility.yul\":16669:16675   */\n      dup3\n        /* \"#utility.yul\":16665:16679   */\n      add\n        /* \"#utility.yul\":16658:16693   */\n      mstore\n        /* \"#utility.yul\":16541:16700   */\n      pop\n      jump\t// out\n        /* \"#utility.yul\":16706:16828   */\n    tag_172:\n        /* \"#utility.yul\":16779:16803   */\n      tag_364\n        /* \"#utility.yul\":16797:16802   */\n      dup2\n        /* \"#utility.yul\":16779:16803   */\n      tag_214\n      jump\t// in\n    tag_364:\n        /* \"#utility.yul\":16772:16777   */\n      dup2\n        /* \"#utility.yul\":16769:16804   */\n      eq\n        /* \"#utility.yul\":16759:16822   */\n      tag_365\n      jumpi\n        /* \"#utility.yul\":16818:16819   */\n      0x00\n        /* \"#utility.yul\":16815:16816   */\n      dup1\n        /* \"#utility.yul\":16808:16820   */\n      revert\n        /* \"#utility.yul\":16759:16822   */\n    tag_365:\n        /* \"#utility.yul\":16706:16828   */\n      pop\n      jump\t// out\n        /* \"#utility.yul\":16834:16956   */\n    tag_187:\n        /* \"#utility.yul\":16907:16931   */\n      tag_367\n        /* \"#utility.yul\":16925:16930   */\n      dup2\n        /* \"#utility.yul\":16907:16931   */\n      tag_281\n      jump\t// in\n    tag_367:\n        /* \"#utility.yul\":16900:16905   */\n      dup2\n        /* \"#utility.yul\":16897:16932   */\n      eq\n        /* \"#utility.yul\":16887:16950   */\n      tag_368\n      jumpi\n        /* \"#utility.yul\":16946:16947   */\n      0x00\n        /* \"#utility.yul\":16943:16944   */\n      dup1\n        /* \"#utility.yul\":16936:16948   */\n      revert\n        /* \"#utility.yul\":16887:16950   */\n    tag_368:\n        /* \"#utility.yul\":16834:16956   */\n      pop\n      jump\t// out\n\n    auxdata: 0xa2646970667358221220ea60f48fee5d4696c4f5863fdb5a44ad733e1acf2effa13bd2b287b21c20f0cd64736f6c63430008070033\n}\n",
				"bytecode": {
					"linkReferences": {},
					"object": "60806040523480156200001157600080fd5b506040516200207c3803806200207c8339818101604052810190620000379190620003c1565b60008251116200007e576040517f08c379a00000000000000000000000000000000000000000000000000000000081526004016200007590620004e5565b60405180910390fd5b60008111801562000090575081518111155b620000d2576040517f08c379a0000000000000000000000000000000000000000000000000000000008152600401620000c99062000529565b60405180910390fd5b60005b8251811015620002d5576000838281518110620000f757620000f6620006a5565b5b60200260200101519050600073ffffffffffffffffffffffffffffffffffffffff168173ffffffffffffffffffffffffffffffffffffffff16141562000174576040517f08c379a00000000000000000000000000000000000000000000000000000000081526004016200016b9062000507565b60405180910390fd5b600160008273ffffffffffffffffffffffffffffffffffffffff1673ffffffffffffffffffffffffffffffffffffffff16815260200190815260200160002060009054906101000a900460ff161562000204576040517f08c379a0000000000000000000000000000000000000000000000000000000008152600401620001fb90620004c3565b60405180910390fd5b60018060008373ffffffffffffffffffffffffffffffffffffffff1673ffffffffffffffffffffffffffffffffffffffff16815260200190815260200160002060006101000a81548160ff0219169083151502179055506000819080600181540180825580915050600190039060005260206000200160009091909190916101000a81548173ffffffffffffffffffffffffffffffffffffffff021916908373ffffffffffffffffffffffffffffffffffffffff160217905550508080620002cc9062000628565b915050620000d5565b5080600281905550505062000826565b6000620002fc620002f68462000574565b6200054b565b9050808382526020820190508285602086028201111562000322576200032162000708565b5b60005b858110156200035657816200033b888262000360565b84526020840193506020830192505060018101905062000325565b5050509392505050565b6000815190506200037181620007f2565b92915050565b600082601f8301126200038f576200038e62000703565b5b8151620003a1848260208601620002e5565b91505092915050565b600081519050620003bb816200080c565b92915050565b60008060408385031215620003db57620003da62000712565b5b600083015167ffffffffffffffff811115620003fc57620003fb6200070d565b5b6200040a8582860162000377565b92505060206200041d85828601620003aa565b9150509250929050565b600062000436601383620005a3565b9150620004438262000728565b602082019050919050565b60006200045d600f83620005a3565b91506200046a8262000751565b602082019050919050565b600062000484600d83620005a3565b915062000491826200077a565b602082019050919050565b6000620004ab602183620005a3565b9150620004b882620007a3565b604082019050919050565b60006020820190508181036000830152620004de8162000427565b9050919050565b6000602082019050818103600083015262000500816200044e565b9050919050565b60006020820190508181036000830152620005228162000475565b9050919050565b6000602082019050818103600083015262000544816200049c565b9050919050565b6000620005576200056a565b9050620005658282620005f2565b919050565b6000604051905090565b600067ffffffffffffffff821115620005925762000591620006d4565b5b602082029050602081019050919050565b600082825260208201905092915050565b6000620005c182620005c8565b9050919050565b600073ffffffffffffffffffffffffffffffffffffffff82169050919050565b6000819050919050565b620005fd8262000717565b810181811067ffffffffffffffff821117156200061f576200061e620006d4565b5b80604052505050565b60006200063582620005e8565b91507fffffffffffffffffffffffffffffffffffffffffffffffffffffffffffffffff8214156200066b576200066a62000676565b5b600182019050919050565b7f4e487b7100000000000000000000000000000000000000000000000000000000600052601160045260246000fd5b7f4e487b7100000000000000000000000000000000000000000000000000000000600052603260045260246000fd5b7f4e487b7100000000000000000000000000000000000000000000000000000000600052604160045260246000fd5b600080fd5b600080fd5b600080fd5b600080fd5b6000601f19601f8301169050919050565b7f6f776e6572206973206e6f7420756e6971756500000000000000000000000000600082015250565b7f6f776e6572732072657175697265640000000000000000000000000000000000600082015250565b7f696e76616c6964206f776e657200000000000000000000000000000000000000600082015250565b7f696e76616c6964207265717569726564206e756d626572206f66206f776e657260008201527f7300000000000000000000000000000000000000000000000000000000000000602082015250565b620007fd81620005b4565b81146200080957600080fd5b50565b6200081781620005e8565b81146200082357600080fd5b50565b61184680620008366000396000f3fe60806040526004361061008a5760003560e01c80638253951a116100595780638253951a146101b05780639ace38c2146101ed578063b759f9541461022d578063dc8452cd14610256578063fe0d94c114610281576100df565b8063025e7c27146100e457806314de327f1461012157806320c5429b1461014a5780632f54bf6e14610173576100df565b366100df573373ffffffffffffffffffffffffffffffffffffffff167fe1fffcc4923d04b559f4d29a8bfc6cda04eb5b0d3c460751c2402c5c5cc9109c346040516100d59190611424565b60405180910390a2005b600080fd5b3480156100f057600080fd5b5061010b60048036038101906101069190611064565b6102aa565b60405161011891906112c2565b60405180910390f35b34801561012d57600080fd5b5061014860048036038101906101439190610ff0565b6102e9565b005b34801561015657600080fd5b50610171600480360381019061016c9190611064565b6104f2565b005b34801561017f57600080fd5b5061019a60048036038101906101959190610fc3565b610789565b6040516101a79190611329565b60405180910390f35b3480156101bc57600080fd5b506101d760048036038101906101d29190611091565b6107a9565b6040516101e49190611329565b60405180910390f35b3480156101f957600080fd5b50610214600480360381019061020f9190611064565b6107d8565b60405161022494939291906112dd565b60405180910390f35b34801561023957600080fd5b50610254600480360381019061024f9190611064565b6108cd565b005b34801561026257600080fd5b5061026b610b67565b6040516102789190611424565b60405180910390f35b34801561028d57600080fd5b506102a860048036038101906102a39190611064565b610b6d565b005b600081815481106102ba57600080fd5b906000526020600020016000915054906101000a900473ffffffffffffffffffffffffffffffffffffffff1681565b600160003373ffffffffffffffffffffffffffffffffffffffff1673ffffffffffffffffffffffffffffffffffffffff16815260200190815260200160002060009054906101000a900460ff16610375576040517f08c379a000000000000000000000000000000000000000000000000000000000815260040161036c90611404565b60405180910390fd5b600360405180608001604052808673ffffffffffffffffffffffffffffffffffffffff16815260200185815260200184848080601f016020809104026020016040519081016040528093929190818152602001838380828437600081840152601f19601f82011690508083019250505050505050815260200160001515815250908060018154018082558091505060019003906000526020600020906004020160009091909190915060008201518160000160006101000a81548173ffffffffffffffffffffffffffffffffffffffff021916908373ffffffffffffffffffffffffffffffffffffffff16021790555060208201518160010155604082015181600201908051906020019061048b929190610ea0565b5060608201518160030160006101000a81548160ff021916908315150217905550505060016003805490506104c091906114e2565b7f08324b3d745b914e3abd4ffbfead91e3b78391a98c173202129215ab933adfbe60405160405180910390a250505050565b600160003373ffffffffffffffffffffffffffffffffffffffff1673ffffffffffffffffffffffffffffffffffffffff16815260200190815260200160002060009054906101000a900460ff1661057e576040517f08c379a000000000000000000000000000000000000000000000000000000000815260040161057590611404565b60405180910390fd5b8060038054905081106105c6576040517f08c379a00000000000000000000000000000000000000000000000000000000081526004016105bd906113a4565b60405180910390fd5b81600381815481106105db576105da61166a565b5b906000526020600020906004020160030160009054906101000a900460ff161561063a576040517f08c379a0000000000000000000000000000000000000000000000000000000008152600401610631906113e4565b60405180910390fd5b6004600084815260200190815260200160002060003373ffffffffffffffffffffffffffffffffffffffff1673ffffffffffffffffffffffffffffffffffffffff16815260200190815260200160002060009054906101000a900460ff166106d7576040517f08c379a00000000000000000000000000000000000000000000000000000000081526004016106ce90611344565b60405180910390fd5b60006004600085815260200190815260200160002060003373ffffffffffffffffffffffffffffffffffffffff1673ffffffffffffffffffffffffffffffffffffffff16815260200190815260200160002060006101000a81548160ff021916908315150217905550823373ffffffffffffffffffffffffffffffffffffffff167fec9ab91322523c899ede7830ec9bfc992b5981cdcc27b91162fb23de5791117b60405160405180910390a3505050565b60016020528060005260406000206000915054906101000a900460ff1681565b60046020528160005260406000206020528060005260406000206000915091509054906101000a900460ff1681565b600381815481106107e857600080fd5b90600052602060002090600402016000915090508060000160009054906101000a900473ffffffffffffffffffffffffffffffffffffffff169080600101549080600201805461083790611591565b80601f016020809104026020016040519081016040528092919081815260200182805461086390611591565b80156108b05780601f10610885576101008083540402835291602001916108b0565b820191906000526020600020905b81548152906001019060200180831161089357829003601f168201915b5050505050908060030160009054906101000a900460ff16905084565b600160003373ffffffffffffffffffffffffffffffffffffffff1673ffffffffffffffffffffffffffffffffffffffff16815260200190815260200160002060009054906101000a900460ff16610959576040517f08c379a000000000000000000000000000000000000000000000000000000000815260040161095090611404565b60405180910390fd5b8060038054905081106109a1576040517f08c379a0000000000000000000000000000000000000000000000000000000008152600401610998906113a4565b60405180910390fd5b816004600082815260200190815260200160002060003373ffffffffffffffffffffffffffffffffffffffff1673ffffffffffffffffffffffffffffffffffffffff16815260200190815260200160002060009054906101000a900460ff1615610a40576040517f08c379a0000000000000000000000000000000000000000000000000000000008152600401610a37906113c4565b60405180910390fd5b8260038181548110610a5557610a5461166a565b5b906000526020600020906004020160030160009054906101000a900460ff1615610ab4576040517f08c379a0000000000000000000000000000000000000000000000000000000008152600401610aab906113e4565b60405180910390fd5b60016004600086815260200190815260200160002060003373ffffffffffffffffffffffffffffffffffffffff1673ffffffffffffffffffffffffffffffffffffffff16815260200190815260200160002060006101000a81548160ff021916908315150217905550833373ffffffffffffffffffffffffffffffffffffffff167f90ec57f18fa7b15c6b8d5e4d1deb90796c74b2ff23d4d0cecad0cb42a96b312860405160405180910390a350505050565b60025481565b806003805490508110610bb5576040517f08c379a0000000000000000000000000000000000000000000000000000000008152600401610bac906113a4565b60405180910390fd5b8160038181548110610bca57610bc961166a565b5b906000526020600020906004020160030160009054906101000a900460ff1615610c29576040517f08c379a0000000000000000000000000000000000000000000000000000000008152600401610c20906113e4565b60405180910390fd5b600254610c3584610dc6565b1015610c76576040517f08c379a0000000000000000000000000000000000000000000000000000000008152600401610c6d90611364565b60405180910390fd5b600060038481548110610c8c57610c8b61166a565b5b9060005260206000209060040201905060018160030160006101000a81548160ff02191690831515021790555060008160000160009054906101000a900473ffffffffffffffffffffffffffffffffffffffff1673ffffffffffffffffffffffffffffffffffffffff16826001015483600201604051610d0c91906112ab565b60006040518083038185875af1925050503d8060008114610d49576040519150601f19603f3d011682016040523d82523d6000602084013e610d4e565b606091505b5050905080610d92576040517f08c379a0000000000000000000000000000000000000000000000000000000008152600401610d8990611384565b60405180910390fd5b847fddb556f1d2c1ec821e910b019d3685b229db152a0ecd517ca7e24b8bd713928960405160405180910390a25050505050565b6000805b600080549050811015610e9a57600460008481526020019081526020016000206000808381548110610dff57610dfe61166a565b5b9060005260206000200160009054906101000a900473ffffffffffffffffffffffffffffffffffffffff1673ffffffffffffffffffffffffffffffffffffffff1673ffffffffffffffffffffffffffffffffffffffff16815260200190815260200160002060009054906101000a900460ff1615610e8757600182610e84919061148c565b91505b8080610e92906115c3565b915050610dca565b50919050565b828054610eac90611591565b90600052602060002090601f016020900481019282610ece5760008555610f15565b82601f10610ee757805160ff1916838001178555610f15565b82800160010185558215610f15579182015b82811115610f14578251825591602001919060010190610ef9565b5b509050610f229190610f26565b5090565b5b80821115610f3f576000816000905550600101610f27565b5090565b600081359050610f52816117e2565b92915050565b60008083601f840112610f6e57610f6d61169e565b5b8235905067ffffffffffffffff811115610f8b57610f8a611699565b5b602083019150836001820283011115610fa757610fa66116a3565b5b9250929050565b600081359050610fbd816117f9565b92915050565b600060208284031215610fd957610fd86116ad565b5b6000610fe784828501610f43565b91505092915050565b6000806000806060858703121561100a576110096116ad565b5b600061101887828801610f43565b945050602061102987828801610fae565b935050604085013567ffffffffffffffff81111561104a576110496116a8565b5b61105687828801610f58565b925092505092959194509250565b60006020828403121561107a576110796116ad565b5b600061108884828501610fae565b91505092915050565b600080604083850312156110a8576110a76116ad565b5b60006110b685828601610fae565b92505060206110c785828601610f43565b9150509250929050565b6110da81611516565b82525050565b6110e981611528565b82525050565b60006110fa82611454565b611104818561145f565b935061111481856020860161155e565b61111d816116b2565b840191505092915050565b6000815461113581611591565b61113f8186611470565b9450600182166000811461115a576001811461116b5761119e565b60ff1983168652818601935061119e565b6111748561143f565b60005b8381101561119657815481890152600182019150602081019050611177565b838801955050505b50505092915050565b60006111b4600f8361147b565b91506111bf826116c3565b602082019050919050565b60006111d760148361147b565b91506111e2826116ec565b602082019050919050565b60006111fa60098361147b565b915061120582611715565b602082019050919050565b600061121d60118361147b565b91506112288261173e565b602082019050919050565b600061124060138361147b565b915061124b82611767565b602082019050919050565b600061126360138361147b565b915061126e82611790565b602082019050919050565b600061128660098361147b565b9150611291826117b9565b602082019050919050565b6112a581611554565b82525050565b60006112b78284611128565b915081905092915050565b60006020820190506112d760008301846110d1565b92915050565b60006080820190506112f260008301876110d1565b6112ff602083018661129c565b818103604083015261131181856110ef565b905061132060608301846110e0565b95945050505050565b600060208201905061133e60008301846110e0565b92915050565b6000602082019050818103600083015261135d816111a7565b9050919050565b6000602082019050818103600083015261137d816111ca565b9050919050565b6000602082019050818103600083015261139d816111ed565b9050919050565b600060208201905081810360008301526113bd81611210565b9050919050565b600060208201905081810360008301526113dd81611233565b9050919050565b600060208201905081810360008301526113fd81611256565b9050919050565b6000602082019050818103600083015261141d81611279565b9050919050565b6000602082019050611439600083018461129c565b92915050565b60008190508160005260206000209050919050565b600081519050919050565b600082825260208201905092915050565b600081905092915050565b600082825260208201905092915050565b600061149782611554565b91506114a283611554565b9250827fffffffffffffffffffffffffffffffffffffffffffffffffffffffffffffffff038211156114d7576114d661160c565b5b828201905092915050565b60006114ed82611554565b91506114f883611554565b92508282101561150b5761150a61160c565b5b828203905092915050565b600061152182611534565b9050919050565b60008115159050919050565b600073ffffffffffffffffffffffffffffffffffffffff82169050919050565b6000819050919050565b60005b8381101561157c578082015181840152602081019050611561565b8381111561158b576000848401525b50505050565b600060028204905060018216806115a957607f821691505b602082108114156115bd576115bc61163b565b5b50919050565b60006115ce82611554565b91507fffffffffffffffffffffffffffffffffffffffffffffffffffffffffffffffff8214156116015761160061160c565b5b600182019050919050565b7f4e487b7100000000000000000000000000000000000000000000000000000000600052601160045260246000fd5b7f4e487b7100000000000000000000000000000000000000000000000000000000600052602260045260246000fd5b7f4e487b7100000000000000000000000000000000000000000000000000000000600052603260045260246000fd5b600080fd5b600080fd5b600080fd5b600080fd5b600080fd5b6000601f19601f8301169050919050565b7f7478206e6f7420617070726f7665640000000000000000000000000000000000600082015250565b7f617070726f76616c73203c207265717569726564000000000000000000000000600082015250565b7f7478206661696c65640000000000000000000000000000000000000000000000600082015250565b7f747820646f6573206e6f74206578697374000000000000000000000000000000600082015250565b7f747820616c726561647920617070726f76656400000000000000000000000000600082015250565b7f747820616c726561647920657865637574656400000000000000000000000000600082015250565b7f6e6f74206f776e65720000000000000000000000000000000000000000000000600082015250565b6117eb81611516565b81146117f657600080fd5b50565b61180281611554565b811461180d57600080fd5b5056fea2646970667358221220ea60f48fee5d4696c4f5863fdb5a44ad733e1acf2effa13bd2b287b21c20f0cd64736f6c63430008070033",
					"opcodes": "PUSH1 0x80 PUSH1 0x40 MSTORE CALLVALUE DUP1 ISZERO PUSH3 0x11 JUMPI PUSH1 0x0 DUP1 REVERT JUMPDEST POP PUSH1 0x40 MLOAD PUSH3 0x207C CODESIZE SUB DUP1 PUSH3 0x207C DUP4 CODECOPY DUP2 DUP2 ADD PUSH1 0x40 MSTORE DUP2 ADD SWAP1 PUSH3 0x37 SWAP2 SWAP1 PUSH3 0x3C1 JUMP JUMPDEST PUSH1 0x0 DUP3 MLOAD GT PUSH3 0x7E JUMPI PUSH1 0x40 MLOAD PUSH32 0x8C379A000000000000000000000000000000000000000000000000000000000 DUP2 MSTORE PUSH1 0x4 ADD PUSH3 0x75 SWAP1 PUSH3 0x4E5 JUMP JUMPDEST PUSH1 0x40 MLOAD DUP1 SWAP2 SUB SWAP1 REVERT JUMPDEST PUSH1 0x0 DUP2 GT DUP1 ISZERO PUSH3 0x90 JUMPI POP DUP2 MLOAD DUP2 GT ISZERO JUMPDEST PUSH3 0xD2 JUMPI PUSH1 0x40 MLOAD PUSH32 0x8C379A000000000000000000000000000000000000000000000000000000000 DUP2 MSTORE PUSH1 0x4 ADD PUSH3 0xC9 SWAP1 PUSH3 0x529 JUMP JUMPDEST PUSH1 0x40 MLOAD DUP1 SWAP2 SUB SWAP1 REVERT JUMPDEST PUSH1 0x0 JUMPDEST DUP3 MLOAD DUP2 LT ISZERO PUSH3 0x2D5 JUMPI PUSH1 0x0 DUP4 DUP3 DUP2 MLOAD DUP2 LT PUSH3 0xF7 JUMPI PUSH3 0xF6 PUSH3 0x6A5 JUMP JUMPDEST JUMPDEST PUSH1 0x20 MUL PUSH1 0x20 ADD ADD MLOAD SWAP1 POP PUSH1 0x0 PUSH20 0xFFFFFFFFFFFFFFFFFFFFFFFFFFFFFFFFFFFFFFFF AND DUP2 PUSH20 0xFFFFFFFFFFFFFFFFFFFFFFFFFFFFFFFFFFFFFFFF AND EQ ISZERO PUSH3 0x174 JUMPI PUSH1 0x40 MLOAD PUSH32 0x8C379A000000000000000000000000000000000000000000000000000000000 DUP2 MSTORE PUSH1 0x4 ADD PUSH3 0x16B SWAP1 PUSH3 0x507 JUMP JUMPDEST PUSH1 0x40 MLOAD DUP1 SWAP2 SUB SWAP1 REVERT JUMPDEST PUSH1 0x1 PUSH1 0x0 DUP3 PUSH20 0xFFFFFFFFFFFFFFFFFFFFFFFFFFFFFFFFFFFFFFFF AND PUSH20 0xFFFFFFFFFFFFFFFFFFFFFFFFFFFFFFFFFFFFFFFF AND DUP2 MSTORE PUSH1 0x20 ADD SWAP1 DUP2 MSTORE PUSH1 0x20 ADD PUSH1 0x0 KECCAK256 PUSH1 0x0 SWAP1 SLOAD SWAP1 PUSH2 0x100 EXP SWAP1 DIV PUSH1 0xFF AND ISZERO PUSH3 0x204 JUMPI PUSH1 0x40 MLOAD PUSH32 0x8C379A000000000000000000000000000000000000000000000000000000000 DUP2 MSTORE PUSH1 0x4 ADD PUSH3 0x1FB SWAP1 PUSH3 0x4C3 JUMP JUMPDEST PUSH1 0x40 MLOAD DUP1 SWAP2 SUB SWAP1 REVERT JUMPDEST PUSH1 0x1 DUP1 PUSH1 0x0 DUP4 PUSH20 0xFFFFFFFFFFFFFFFFFFFFFFFFFFFFFFFFFFFFFFFF AND PUSH20 0xFFFFFFFFFFFFFFFFFFFFFFFFFFFFFFFFFFFFFFFF AND DUP2 MSTORE PUSH1 0x20 ADD SWAP1 DUP2 MSTORE PUSH1 0x20 ADD PUSH1 0x0 KECCAK256 PUSH1 0x0 PUSH2 0x100 EXP DUP2 SLOAD DUP2 PUSH1 0xFF MUL NOT AND SWAP1 DUP4 ISZERO ISZERO MUL OR SWAP1 SSTORE POP PUSH1 0x0 DUP2 SWAP1 DUP1 PUSH1 0x1 DUP2 SLOAD ADD DUP1 DUP3 SSTORE DUP1 SWAP2 POP POP PUSH1 0x1 SWAP1 SUB SWAP1 PUSH1 0x0 MSTORE PUSH1 0x20 PUSH1 0x0 KECCAK256 ADD PUSH1 0x0 SWAP1 SWAP2 SWAP1 SWAP2 SWAP1 SWAP2 PUSH2 0x100 EXP DUP2 SLOAD DUP2 PUSH20 0xFFFFFFFFFFFFFFFFFFFFFFFFFFFFFFFFFFFFFFFF MUL NOT AND SWAP1 DUP4 PUSH20 0xFFFFFFFFFFFFFFFFFFFFFFFFFFFFFFFFFFFFFFFF AND MUL OR SWAP1 SSTORE POP POP DUP1 DUP1 PUSH3 0x2CC SWAP1 PUSH3 0x628 JUMP JUMPDEST SWAP2 POP POP PUSH3 0xD5 JUMP JUMPDEST POP DUP1 PUSH1 0x2 DUP2 SWAP1 SSTORE POP POP POP PUSH3 0x826 JUMP JUMPDEST PUSH1 0x0 PUSH3 0x2FC PUSH3 0x2F6 DUP5 PUSH3 0x574 JUMP JUMPDEST PUSH3 0x54B JUMP JUMPDEST SWAP1 POP DUP1 DUP4 DUP3 MSTORE PUSH1 0x20 DUP3 ADD SWAP1 POP DUP3 DUP6 PUSH1 0x20 DUP7 MUL DUP3 ADD GT ISZERO PUSH3 0x322 JUMPI PUSH3 0x321 PUSH3 0x708 JUMP JUMPDEST JUMPDEST PUSH1 0x0 JUMPDEST DUP6 DUP2 LT ISZERO PUSH3 0x356 JUMPI DUP2 PUSH3 0x33B DUP9 DUP3 PUSH3 0x360 JUMP JUMPDEST DUP5 MSTORE PUSH1 0x20 DUP5 ADD SWAP4 POP PUSH1 0x20 DUP4 ADD SWAP3 POP POP PUSH1 0x1 DUP2 ADD SWAP1 POP PUSH3 0x325 JUMP JUMPDEST POP POP POP SWAP4 SWAP3 POP POP POP JUMP JUMPDEST PUSH1 0x0 DUP2 MLOAD SWAP1 POP PUSH3 0x371 DUP2 PUSH3 0x7F2 JUMP JUMPDEST SWAP3 SWAP2 POP POP JUMP JUMPDEST PUSH1 0x0 DUP3 PUSH1 0x1F DUP4 ADD SLT PUSH3 0x38F JUMPI PUSH3 0x38E PUSH3 0x703 JUMP JUMPDEST JUMPDEST DUP2 MLOAD PUSH3 0x3A1 DUP5 DUP3 PUSH1 0x20 DUP7 ADD PUSH3 0x2E5 JUMP JUMPDEST SWAP2 POP POP SWAP3 SWAP2 POP POP JUMP JUMPDEST PUSH1 0x0 DUP2 MLOAD SWAP1 POP PUSH3 0x3BB DUP2 PUSH3 0x80C JUMP JUMPDEST SWAP3 SWAP2 POP POP JUMP JUMPDEST PUSH1 0x0 DUP1 PUSH1 0x40 DUP4 DUP6 SUB SLT ISZERO PUSH3 0x3DB JUMPI PUSH3 0x3DA PUSH3 0x712 JUMP JUMPDEST JUMPDEST PUSH1 0x0 DUP4 ADD MLOAD PUSH8 0xFFFFFFFFFFFFFFFF DUP2 GT ISZERO PUSH3 0x3FC JUMPI PUSH3 0x3FB PUSH3 0x70D JUMP JUMPDEST JUMPDEST PUSH3 0x40A DUP6 DUP3 DUP7 ADD PUSH3 0x377 JUMP JUMPDEST SWAP3 POP POP PUSH1 0x20 PUSH3 0x41D DUP6 DUP3 DUP7 ADD PUSH3 0x3AA JUMP JUMPDEST SWAP2 POP POP SWAP3 POP SWAP3 SWAP1 POP JUMP JUMPDEST PUSH1 0x0 PUSH3 0x436 PUSH1 0x13 DUP4 PUSH3 0x5A3 JUMP JUMPDEST SWAP2 POP PUSH3 0x443 DUP3 PUSH3 0x728 JUMP JUMPDEST PUSH1 0x20 DUP3 ADD SWAP1 POP SWAP2 SWAP1 POP JUMP JUMPDEST PUSH1 0x0 PUSH3 0x45D PUSH1 0xF DUP4 PUSH3 0x5A3 JUMP JUMPDEST SWAP2 POP PUSH3 0x46A DUP3 PUSH3 0x751 JUMP JUMPDEST PUSH1 0x20 DUP3 ADD SWAP1 POP SWAP2 SWAP1 POP JUMP JUMPDEST PUSH1 0x0 PUSH3 0x484 PUSH1 0xD DUP4 PUSH3 0x5A3 JUMP JUMPDEST SWAP2 POP PUSH3 0x491 DUP3 PUSH3 0x77A JUMP JUMPDEST PUSH1 0x20 DUP3 ADD SWAP1 POP SWAP2 SWAP1 POP JUMP JUMPDEST PUSH1 0x0 PUSH3 0x4AB PUSH1 0x21 DUP4 PUSH3 0x5A3 JUMP JUMPDEST SWAP2 POP PUSH3 0x4B8 DUP3 PUSH3 0x7A3 JUMP JUMPDEST PUSH1 0x40 DUP3 ADD SWAP1 POP SWAP2 SWAP1 POP JUMP JUMPDEST PUSH1 0x0 PUSH1 0x20 DUP3 ADD SWAP1 POP DUP2 DUP2 SUB PUSH1 0x0 DUP4 ADD MSTORE PUSH3 0x4DE DUP2 PUSH3 0x427 JUMP JUMPDEST SWAP1 POP SWAP2 SWAP1 POP JUMP JUMPDEST PUSH1 0x0 PUSH1 0x20 DUP3 ADD SWAP1 POP DUP2 DUP2 SUB PUSH1 0x0 DUP4 ADD MSTORE PUSH3 0x500 DUP2 PUSH3 0x44E JUMP JUMPDEST SWAP1 POP SWAP2 SWAP1 POP JUMP JUMPDEST PUSH1 0x0 PUSH1 0x20 DUP3 ADD SWAP1 POP DUP2 DUP2 SUB PUSH1 0x0 DUP4 ADD MSTORE PUSH3 0x522 DUP2 PUSH3 0x475 JUMP JUMPDEST SWAP1 POP SWAP2 SWAP1 POP JUMP JUMPDEST PUSH1 0x0 PUSH1 0x20 DUP3 ADD SWAP1 POP DUP2 DUP2 SUB PUSH1 0x0 DUP4 ADD MSTORE PUSH3 0x544 DUP2 PUSH3 0x49C JUMP JUMPDEST SWAP1 POP SWAP2 SWAP1 POP JUMP JUMPDEST PUSH1 0x0 PUSH3 0x557 PUSH3 0x56A JUMP JUMPDEST SWAP1 POP PUSH3 0x565 DUP3 DUP3 PUSH3 0x5F2 JUMP JUMPDEST SWAP2 SWAP1 POP JUMP JUMPDEST PUSH1 0x0 PUSH1 0x40 MLOAD SWAP1 POP SWAP1 JUMP JUMPDEST PUSH1 0x0 PUSH8 0xFFFFFFFFFFFFFFFF DUP3 GT ISZERO PUSH3 0x592 JUMPI PUSH3 0x591 PUSH3 0x6D4 JUMP JUMPDEST JUMPDEST PUSH1 0x20 DUP3 MUL SWAP1 POP PUSH1 0x20 DUP2 ADD SWAP1 POP SWAP2 SWAP1 POP JUMP JUMPDEST PUSH1 0x0 DUP3 DUP3 MSTORE PUSH1 0x20 DUP3 ADD SWAP1 POP SWAP3 SWAP2 POP POP JUMP JUMPDEST PUSH1 0x0 PUSH3 0x5C1 DUP3 PUSH3 0x5C8 JUMP JUMPDEST SWAP1 POP SWAP2 SWAP1 POP JUMP JUMPDEST PUSH1 0x0 PUSH20 0xFFFFFFFFFFFFFFFFFFFFFFFFFFFFFFFFFFFFFFFF DUP3 AND SWAP1 POP SWAP2 SWAP1 POP JUMP JUMPDEST PUSH1 0x0 DUP2 SWAP1 POP SWAP2 SWAP1 POP JUMP JUMPDEST PUSH3 0x5FD DUP3 PUSH3 0x717 JUMP JUMPDEST DUP2 ADD DUP2 DUP2 LT PUSH8 0xFFFFFFFFFFFFFFFF DUP3 GT OR ISZERO PUSH3 0x61F JUMPI PUSH3 0x61E PUSH3 0x6D4 JUMP JUMPDEST JUMPDEST DUP1 PUSH1 0x40 MSTORE POP POP POP JUMP JUMPDEST PUSH1 0x0 PUSH3 0x635 DUP3 PUSH3 0x5E8 JUMP JUMPDEST SWAP2 POP PUSH32 0xFFFFFFFFFFFFFFFFFFFFFFFFFFFFFFFFFFFFFFFFFFFFFFFFFFFFFFFFFFFFFFFF DUP3 EQ ISZERO PUSH3 0x66B JUMPI PUSH3 0x66A PUSH3 0x676 JUMP JUMPDEST JUMPDEST PUSH1 0x1 DUP3 ADD SWAP1 POP SWAP2 SWAP1 POP JUMP JUMPDEST PUSH32 0x4E487B7100000000000000000000000000000000000000000000000000000000 PUSH1 0x0 MSTORE PUSH1 0x11 PUSH1 0x4 MSTORE PUSH1 0x24 PUSH1 0x0 REVERT JUMPDEST PUSH32 0x4E487B7100000000000000000000000000000000000000000000000000000000 PUSH1 0x0 MSTORE PUSH1 0x32 PUSH1 0x4 MSTORE PUSH1 0x24 PUSH1 0x0 REVERT JUMPDEST PUSH32 0x4E487B7100000000000000000000000000000000000000000000000000000000 PUSH1 0x0 MSTORE PUSH1 0x41 PUSH1 0x4 MSTORE PUSH1 0x24 PUSH1 0x0 REVERT JUMPDEST PUSH1 0x0 DUP1 REVERT JUMPDEST PUSH1 0x0 DUP1 REVERT JUMPDEST PUSH1 0x0 DUP1 REVERT JUMPDEST PUSH1 0x0 DUP1 REVERT JUMPDEST PUSH1 0x0 PUSH1 0x1F NOT PUSH1 0x1F DUP4 ADD AND SWAP1 POP SWAP2 SWAP1 POP JUMP JUMPDEST PUSH32 0x6F776E6572206973206E6F7420756E6971756500000000000000000000000000 PUSH1 0x0 DUP3 ADD MSTORE POP JUMP JUMPDEST PUSH32 0x6F776E6572732072657175697265640000000000000000000000000000000000 PUSH1 0x0 DUP3 ADD MSTORE POP JUMP JUMPDEST PUSH32 0x696E76616C6964206F776E657200000000000000000000000000000000000000 PUSH1 0x0 DUP3 ADD MSTORE POP JUMP JUMPDEST PUSH32 0x696E76616C6964207265717569726564206E756D626572206F66206F776E6572 PUSH1 0x0 DUP3 ADD MSTORE PUSH32 0x7300000000000000000000000000000000000000000000000000000000000000 PUSH1 0x20 DUP3 ADD MSTORE POP JUMP JUMPDEST PUSH3 0x7FD DUP2 PUSH3 0x5B4 JUMP JUMPDEST DUP2 EQ PUSH3 0x809 JUMPI PUSH1 0x0 DUP1 REVERT JUMPDEST POP JUMP JUMPDEST PUSH3 0x817 DUP2 PUSH3 0x5E8 JUMP JUMPDEST DUP2 EQ PUSH3 0x823 JUMPI PUSH1 0x0 DUP1 REVERT JUMPDEST POP JUMP JUMPDEST PUSH2 0x1846 DUP1 PUSH3 0x836 PUSH1 0x0 CODECOPY PUSH1 0x0 RETURN INVALID PUSH1 0x80 PUSH1 0x40 MSTORE PUSH1 0x4 CALLDATASIZE LT PUSH2 0x8A JUMPI PUSH1 0x0 CALLDATALOAD PUSH1 0xE0 SHR DUP1 PUSH4 0x8253951A GT PUSH2 0x59 JUMPI DUP1 PUSH4 0x8253951A EQ PUSH2 0x1B0 JUMPI DUP1 PUSH4 0x9ACE38C2 EQ PUSH2 0x1ED JUMPI DUP1 PUSH4 0xB759F954 EQ PUSH2 0x22D JUMPI DUP1 PUSH4 0xDC8452CD EQ PUSH2 0x256 JUMPI DUP1 PUSH4 0xFE0D94C1 EQ PUSH2 0x281 JUMPI PUSH2 0xDF JUMP JUMPDEST DUP1 PUSH4 0x25E7C27 EQ PUSH2 0xE4 JUMPI DUP1 PUSH4 0x14DE327F EQ PUSH2 0x121 JUMPI DUP1 PUSH4 0x20C5429B EQ PUSH2 0x14A JUMPI DUP1 PUSH4 0x2F54BF6E EQ PUSH2 0x173 JUMPI PUSH2 0xDF JUMP JUMPDEST CALLDATASIZE PUSH2 0xDF JUMPI CALLER PUSH20 0xFFFFFFFFFFFFFFFFFFFFFFFFFFFFFFFFFFFFFFFF AND PUSH32 0xE1FFFCC4923D04B559F4D29A8BFC6CDA04EB5B0D3C460751C2402C5C5CC9109C CALLVALUE PUSH1 0x40 MLOAD PUSH2 0xD5 SWAP2 SWAP1 PUSH2 0x1424 JUMP JUMPDEST PUSH1 0x40 MLOAD DUP1 SWAP2 SUB SWAP1 LOG2 STOP JUMPDEST PUSH1 0x0 DUP1 REVERT JUMPDEST CALLVALUE DUP1 ISZERO PUSH2 0xF0 JUMPI PUSH1 0x0 DUP1 REVERT JUMPDEST POP PUSH2 0x10B PUSH1 0x4 DUP1 CALLDATASIZE SUB DUP2 ADD SWAP1 PUSH2 0x106 SWAP2 SWAP1 PUSH2 0x1064 JUMP JUMPDEST PUSH2 0x2AA JUMP JUMPDEST PUSH1 0x40 MLOAD PUSH2 0x118 SWAP2 SWAP1 PUSH2 0x12C2 JUMP JUMPDEST PUSH1 0x40 MLOAD DUP1 SWAP2 SUB SWAP1 RETURN JUMPDEST CALLVALUE DUP1 ISZERO PUSH2 0x12D JUMPI PUSH1 0x0 DUP1 REVERT JUMPDEST POP PUSH2 0x148 PUSH1 0x4 DUP1 CALLDATASIZE SUB DUP2 ADD SWAP1 PUSH2 0x143 SWAP2 SWAP1 PUSH2 0xFF0 JUMP JUMPDEST PUSH2 0x2E9 JUMP JUMPDEST STOP JUMPDEST CALLVALUE DUP1 ISZERO PUSH2 0x156 JUMPI PUSH1 0x0 DUP1 REVERT JUMPDEST POP PUSH2 0x171 PUSH1 0x4 DUP1 CALLDATASIZE SUB DUP2 ADD SWAP1 PUSH2 0x16C SWAP2 SWAP1 PUSH2 0x1064 JUMP JUMPDEST PUSH2 0x4F2 JUMP JUMPDEST STOP JUMPDEST CALLVALUE DUP1 ISZERO PUSH2 0x17F JUMPI PUSH1 0x0 DUP1 REVERT JUMPDEST POP PUSH2 0x19A PUSH1 0x4 DUP1 CALLDATASIZE SUB DUP2 ADD SWAP1 PUSH2 0x195 SWAP2 SWAP1 PUSH2 0xFC3 JUMP JUMPDEST PUSH2 0x789 JUMP JUMPDEST PUSH1 0x40 MLOAD PUSH2 0x1A7 SWAP2 SWAP1 PUSH2 0x1329 JUMP JUMPDEST PUSH1 0x40 MLOAD DUP1 SWAP2 SUB SWAP1 RETURN JUMPDEST CALLVALUE DUP1 ISZERO PUSH2 0x1BC JUMPI PUSH1 0x0 DUP1 REVERT JUMPDEST POP PUSH2 0x1D7 PUSH1 0x4 DUP1 CALLDATASIZE SUB DUP2 ADD SWAP1 PUSH2 0x1D2 SWAP2 SWAP1 PUSH2 0x1091 JUMP JUMPDEST PUSH2 0x7A9 JUMP JUMPDEST PUSH1 0x40 MLOAD PUSH2 0x1E4 SWAP2 SWAP1 PUSH2 0x1329 JUMP JUMPDEST PUSH1 0x40 MLOAD DUP1 SWAP2 SUB SWAP1 RETURN JUMPDEST CALLVALUE DUP1 ISZERO PUSH2 0x1F9 JUMPI PUSH1 0x0 DUP1 REVERT JUMPDEST POP PUSH2 0x214 PUSH1 0x4 DUP1 CALLDATASIZE SUB DUP2 ADD SWAP1 PUSH2 0x20F SWAP2 SWAP1 PUSH2 0x1064 JUMP JUMPDEST PUSH2 0x7D8 JUMP JUMPDEST PUSH1 0x40 MLOAD PUSH2 0x224 SWAP5 SWAP4 SWAP3 SWAP2 SWAP1 PUSH2 0x12DD JUMP JUMPDEST PUSH1 0x40 MLOAD DUP1 SWAP2 SUB SWAP1 RETURN JUMPDEST CALLVALUE DUP1 ISZERO PUSH2 0x239 JUMPI PUSH1 0x0 DUP1 REVERT JUMPDEST POP PUSH2 0x254 PUSH1 0x4 DUP1 CALLDATASIZE SUB DUP2 ADD SWAP1 PUSH2 0x24F SWAP2 SWAP1 PUSH2 0x1064 JUMP JUMPDEST PUSH2 0x8CD JUMP JUMPDEST STOP JUMPDEST CALLVALUE DUP1 ISZERO PUSH2 0x262 JUMPI PUSH1 0x0 DUP1 REVERT JUMPDEST POP PUSH2 0x26B PUSH2 0xB67 JUMP JUMPDEST PUSH1 0x40 MLOAD PUSH2 0x278 SWAP2 SWAP1 PUSH2 0x1424 JUMP JUMPDEST PUSH1 0x40 MLOAD DUP1 SWAP2 SUB SWAP1 RETURN JUMPDEST CALLVALUE DUP1 ISZERO PUSH2 0x28D JUMPI PUSH1 0x0 DUP1 REVERT JUMPDEST POP PUSH2 0x2A8 PUSH1 0x4 DUP1 CALLDATASIZE SUB DUP2 ADD SWAP1 PUSH2 0x2A3 SWAP2 SWAP1 PUSH2 0x1064 JUMP JUMPDEST PUSH2 0xB6D JUMP JUMPDEST STOP JUMPDEST PUSH1 0x0 DUP2 DUP2 SLOAD DUP2 LT PUSH2 0x2BA JUMPI PUSH1 0x0 DUP1 REVERT JUMPDEST SWAP1 PUSH1 0x0 MSTORE PUSH1 0x20 PUSH1 0x0 KECCAK256 ADD PUSH1 0x0 SWAP2 POP SLOAD SWAP1 PUSH2 0x100 EXP SWAP1 DIV PUSH20 0xFFFFFFFFFFFFFFFFFFFFFFFFFFFFFFFFFFFFFFFF AND DUP2 JUMP JUMPDEST PUSH1 0x1 PUSH1 0x0 CALLER PUSH20 0xFFFFFFFFFFFFFFFFFFFFFFFFFFFFFFFFFFFFFFFF AND PUSH20 0xFFFFFFFFFFFFFFFFFFFFFFFFFFFFFFFFFFFFFFFF AND DUP2 MSTORE PUSH1 0x20 ADD SWAP1 DUP2 MSTORE PUSH1 0x20 ADD PUSH1 0x0 KECCAK256 PUSH1 0x0 SWAP1 SLOAD SWAP1 PUSH2 0x100 EXP SWAP1 DIV PUSH1 0xFF AND PUSH2 0x375 JUMPI PUSH1 0x40 MLOAD PUSH32 0x8C379A000000000000000000000000000000000000000000000000000000000 DUP2 MSTORE PUSH1 0x4 ADD PUSH2 0x36C SWAP1 PUSH2 0x1404 JUMP JUMPDEST PUSH1 0x40 MLOAD DUP1 SWAP2 SUB SWAP1 REVERT JUMPDEST PUSH1 0x3 PUSH1 0x40 MLOAD DUP1 PUSH1 0x80 ADD PUSH1 0x40 MSTORE DUP1 DUP7 PUSH20 0xFFFFFFFFFFFFFFFFFFFFFFFFFFFFFFFFFFFFFFFF AND DUP2 MSTORE PUSH1 0x20 ADD DUP6 DUP2 MSTORE PUSH1 0x20 ADD DUP5 DUP5 DUP1 DUP1 PUSH1 0x1F ADD PUSH1 0x20 DUP1 SWAP2 DIV MUL PUSH1 0x20 ADD PUSH1 0x40 MLOAD SWAP1 DUP2 ADD PUSH1 0x40 MSTORE DUP1 SWAP4 SWAP3 SWAP2 SWAP1 DUP2 DUP2 MSTORE PUSH1 0x20 ADD DUP4 DUP4 DUP1 DUP3 DUP5 CALLDATACOPY PUSH1 0x0 DUP2 DUP5 ADD MSTORE PUSH1 0x1F NOT PUSH1 0x1F DUP3 ADD AND SWAP1 POP DUP1 DUP4 ADD SWAP3 POP POP POP POP POP POP POP DUP2 MSTORE PUSH1 0x20 ADD PUSH1 0x0 ISZERO ISZERO DUP2 MSTORE POP SWAP1 DUP1 PUSH1 0x1 DUP2 SLOAD ADD DUP1 DUP3 SSTORE DUP1 SWAP2 POP POP PUSH1 0x1 SWAP1 SUB SWAP1 PUSH1 0x0 MSTORE PUSH1 0x20 PUSH1 0x0 KECCAK256 SWAP1 PUSH1 0x4 MUL ADD PUSH1 0x0 SWAP1 SWAP2 SWAP1 SWAP2 SWAP1 SWAP2 POP PUSH1 0x0 DUP3 ADD MLOAD DUP2 PUSH1 0x0 ADD PUSH1 0x0 PUSH2 0x100 EXP DUP2 SLOAD DUP2 PUSH20 0xFFFFFFFFFFFFFFFFFFFFFFFFFFFFFFFFFFFFFFFF MUL NOT AND SWAP1 DUP4 PUSH20 0xFFFFFFFFFFFFFFFFFFFFFFFFFFFFFFFFFFFFFFFF AND MUL OR SWAP1 SSTORE POP PUSH1 0x20 DUP3 ADD MLOAD DUP2 PUSH1 0x1 ADD SSTORE PUSH1 0x40 DUP3 ADD MLOAD DUP2 PUSH1 0x2 ADD SWAP1 DUP1 MLOAD SWAP1 PUSH1 0x20 ADD SWAP1 PUSH2 0x48B SWAP3 SWAP2 SWAP1 PUSH2 0xEA0 JUMP JUMPDEST POP PUSH1 0x60 DUP3 ADD MLOAD DUP2 PUSH1 0x3 ADD PUSH1 0x0 PUSH2 0x100 EXP DUP2 SLOAD DUP2 PUSH1 0xFF MUL NOT AND SWAP1 DUP4 ISZERO ISZERO MUL OR SWAP1 SSTORE POP POP POP PUSH1 0x1 PUSH1 0x3 DUP1 SLOAD SWAP1 POP PUSH2 0x4C0 SWAP2 SWAP1 PUSH2 0x14E2 JUMP JUMPDEST PUSH32 0x8324B3D745B914E3ABD4FFBFEAD91E3B78391A98C173202129215AB933ADFBE PUSH1 0x40 MLOAD PUSH1 0x40 MLOAD DUP1 SWAP2 SUB SWAP1 LOG2 POP POP POP POP JUMP JUMPDEST PUSH1 0x1 PUSH1 0x0 CALLER PUSH20 0xFFFFFFFFFFFFFFFFFFFFFFFFFFFFFFFFFFFFFFFF AND PUSH20 0xFFFFFFFFFFFFFFFFFFFFFFFFFFFFFFFFFFFFFFFF AND DUP2 MSTORE PUSH1 0x20 ADD SWAP1 DUP2 MSTORE PUSH1 0x20 ADD PUSH1 0x0 KECCAK256 PUSH1 0x0 SWAP1 SLOAD SWAP1 PUSH2 0x100 EXP SWAP1 DIV PUSH1 0xFF AND PUSH2 0x57E JUMPI PUSH1 0x40 MLOAD PUSH32 0x8C379A000000000000000000000000000000000000000000000000000000000 DUP2 MSTORE PUSH1 0x4 ADD PUSH2 0x575 SWAP1 PUSH2 0x1404 JUMP JUMPDEST PUSH1 0x40 MLOAD DUP1 SWAP2 SUB SWAP1 REVERT JUMPDEST DUP1 PUSH1 0x3 DUP1 SLOAD SWAP1 POP DUP2 LT PUSH2 0x5C6 JUMPI PUSH1 0x40 MLOAD PUSH32 0x8C379A000000000000000000000000000000000000000000000000000000000 DUP2 MSTORE PUSH1 0x4 ADD PUSH2 0x5BD SWAP1 PUSH2 0x13A4 JUMP JUMPDEST PUSH1 0x40 MLOAD DUP1 SWAP2 SUB SWAP1 REVERT JUMPDEST DUP2 PUSH1 0x3 DUP2 DUP2 SLOAD DUP2 LT PUSH2 0x5DB JUMPI PUSH2 0x5DA PUSH2 0x166A JUMP JUMPDEST JUMPDEST SWAP1 PUSH1 0x0 MSTORE PUSH1 0x20 PUSH1 0x0 KECCAK256 SWAP1 PUSH1 0x4 MUL ADD PUSH1 0x3 ADD PUSH1 0x0 SWAP1 SLOAD SWAP1 PUSH2 0x100 EXP SWAP1 DIV PUSH1 0xFF AND ISZERO PUSH2 0x63A JUMPI PUSH1 0x40 MLOAD PUSH32 0x8C379A000000000000000000000000000000000000000000000000000000000 DUP2 MSTORE PUSH1 0x4 ADD PUSH2 0x631 SWAP1 PUSH2 0x13E4 JUMP JUMPDEST PUSH1 0x40 MLOAD DUP1 SWAP2 SUB SWAP1 REVERT JUMPDEST PUSH1 0x4 PUSH1 0x0 DUP5 DUP2 MSTORE PUSH1 0x20 ADD SWAP1 DUP2 MSTORE PUSH1 0x20 ADD PUSH1 0x0 KECCAK256 PUSH1 0x0 CALLER PUSH20 0xFFFFFFFFFFFFFFFFFFFFFFFFFFFFFFFFFFFFFFFF AND PUSH20 0xFFFFFFFFFFFFFFFFFFFFFFFFFFFFFFFFFFFFFFFF AND DUP2 MSTORE PUSH1 0x20 ADD SWAP1 DUP2 MSTORE PUSH1 0x20 ADD PUSH1 0x0 KECCAK256 PUSH1 0x0 SWAP1 SLOAD SWAP1 PUSH2 0x100 EXP SWAP1 DIV PUSH1 0xFF AND PUSH2 0x6D7 JUMPI PUSH1 0x40 MLOAD PUSH32 0x8C379A000000000000000000000000000000000000000000000000000000000 DUP2 MSTORE PUSH1 0x4 ADD PUSH2 0x6CE SWAP1 PUSH2 0x1344 JUMP JUMPDEST PUSH1 0x40 MLOAD DUP1 SWAP2 SUB SWAP1 REVERT JUMPDEST PUSH1 0x0 PUSH1 0x4 PUSH1 0x0 DUP6 DUP2 MSTORE PUSH1 0x20 ADD SWAP1 DUP2 MSTORE PUSH1 0x20 ADD PUSH1 0x0 KECCAK256 PUSH1 0x0 CALLER PUSH20 0xFFFFFFFFFFFFFFFFFFFFFFFFFFFFFFFFFFFFFFFF AND PUSH20 0xFFFFFFFFFFFFFFFFFFFFFFFFFFFFFFFFFFFFFFFF AND DUP2 MSTORE PUSH1 0x20 ADD SWAP1 DUP2 MSTORE PUSH1 0x20 ADD PUSH1 0x0 KECCAK256 PUSH1 0x0 PUSH2 0x100 EXP DUP2 SLOAD DUP2 PUSH1 0xFF MUL NOT AND SWAP1 DUP4 ISZERO ISZERO MUL OR SWAP1 SSTORE POP DUP3 CALLER PUSH20 0xFFFFFFFFFFFFFFFFFFFFFFFFFFFFFFFFFFFFFFFF AND PUSH32 0xEC9AB91322523C899EDE7830EC9BFC992B5981CDCC27B91162FB23DE5791117B PUSH1 0x40 MLOAD PUSH1 0x40 MLOAD DUP1 SWAP2 SUB SWAP1 LOG3 POP POP POP JUMP JUMPDEST PUSH1 0x1 PUSH1 0x20 MSTORE DUP1 PUSH1 0x0 MSTORE PUSH1 0x40 PUSH1 0x0 KECCAK256 PUSH1 0x0 SWAP2 POP SLOAD SWAP1 PUSH2 0x100 EXP SWAP1 DIV PUSH1 0xFF AND DUP2 JUMP JUMPDEST PUSH1 0x4 PUSH1 0x20 MSTORE DUP2 PUSH1 0x0 MSTORE PUSH1 0x40 PUSH1 0x0 KECCAK256 PUSH1 0x20 MSTORE DUP1 PUSH1 0x0 MSTORE PUSH1 0x40 PUSH1 0x0 KECCAK256 PUSH1 0x0 SWAP2 POP SWAP2 POP SWAP1 SLOAD SWAP1 PUSH2 0x100 EXP SWAP1 DIV PUSH1 0xFF AND DUP2 JUMP JUMPDEST PUSH1 0x3 DUP2 DUP2 SLOAD DUP2 LT PUSH2 0x7E8 JUMPI PUSH1 0x0 DUP1 REVERT JUMPDEST SWAP1 PUSH1 0x0 MSTORE PUSH1 0x20 PUSH1 0x0 KECCAK256 SWAP1 PUSH1 0x4 MUL ADD PUSH1 0x0 SWAP2 POP SWAP1 POP DUP1 PUSH1 0x0 ADD PUSH1 0x0 SWAP1 SLOAD SWAP1 PUSH2 0x100 EXP SWAP1 DIV PUSH20 0xFFFFFFFFFFFFFFFFFFFFFFFFFFFFFFFFFFFFFFFF AND SWAP1 DUP1 PUSH1 0x1 ADD SLOAD SWAP1 DUP1 PUSH1 0x2 ADD DUP1 SLOAD PUSH2 0x837 SWAP1 PUSH2 0x1591 JUMP JUMPDEST DUP1 PUSH1 0x1F ADD PUSH1 0x20 DUP1 SWAP2 DIV MUL PUSH1 0x20 ADD PUSH1 0x40 MLOAD SWAP1 DUP2 ADD PUSH1 0x40 MSTORE DUP1 SWAP3 SWAP2 SWAP1 DUP2 DUP2 MSTORE PUSH1 0x20 ADD DUP3 DUP1 SLOAD PUSH2 0x863 SWAP1 PUSH2 0x1591 JUMP JUMPDEST DUP1 ISZERO PUSH2 0x8B0 JUMPI DUP1 PUSH1 0x1F LT PUSH2 0x885 JUMPI PUSH2 0x100 DUP1 DUP4 SLOAD DIV MUL DUP4 MSTORE SWAP2 PUSH1 0x20 ADD SWAP2 PUSH2 0x8B0 JUMP JUMPDEST DUP3 ADD SWAP2 SWAP1 PUSH1 0x0 MSTORE PUSH1 0x20 PUSH1 0x0 KECCAK256 SWAP1 JUMPDEST DUP2 SLOAD DUP2 MSTORE SWAP1 PUSH1 0x1 ADD SWAP1 PUSH1 0x20 ADD DUP1 DUP4 GT PUSH2 0x893 JUMPI DUP3 SWAP1 SUB PUSH1 0x1F AND DUP3 ADD SWAP2 JUMPDEST POP POP POP POP POP SWAP1 DUP1 PUSH1 0x3 ADD PUSH1 0x0 SWAP1 SLOAD SWAP1 PUSH2 0x100 EXP SWAP1 DIV PUSH1 0xFF AND SWAP1 POP DUP5 JUMP JUMPDEST PUSH1 0x1 PUSH1 0x0 CALLER PUSH20 0xFFFFFFFFFFFFFFFFFFFFFFFFFFFFFFFFFFFFFFFF AND PUSH20 0xFFFFFFFFFFFFFFFFFFFFFFFFFFFFFFFFFFFFFFFF AND DUP2 MSTORE PUSH1 0x20 ADD SWAP1 DUP2 MSTORE PUSH1 0x20 ADD PUSH1 0x0 KECCAK256 PUSH1 0x0 SWAP1 SLOAD SWAP1 PUSH2 0x100 EXP SWAP1 DIV PUSH1 0xFF AND PUSH2 0x959 JUMPI PUSH1 0x40 MLOAD PUSH32 0x8C379A000000000000000000000000000000000000000000000000000000000 DUP2 MSTORE PUSH1 0x4 ADD PUSH2 0x950 SWAP1 PUSH2 0x1404 JUMP JUMPDEST PUSH1 0x40 MLOAD DUP1 SWAP2 SUB SWAP1 REVERT JUMPDEST DUP1 PUSH1 0x3 DUP1 SLOAD SWAP1 POP DUP2 LT PUSH2 0x9A1 JUMPI PUSH1 0x40 MLOAD PUSH32 0x8C379A000000000000000000000000000000000000000000000000000000000 DUP2 MSTORE PUSH1 0x4 ADD PUSH2 0x998 SWAP1 PUSH2 0x13A4 JUMP JUMPDEST PUSH1 0x40 MLOAD DUP1 SWAP2 SUB SWAP1 REVERT JUMPDEST DUP2 PUSH1 0x4 PUSH1 0x0 DUP3 DUP2 MSTORE PUSH1 0x20 ADD SWAP1 DUP2 MSTORE PUSH1 0x20 ADD PUSH1 0x0 KECCAK256 PUSH1 0x0 CALLER PUSH20 0xFFFFFFFFFFFFFFFFFFFFFFFFFFFFFFFFFFFFFFFF AND PUSH20 0xFFFFFFFFFFFFFFFFFFFFFFFFFFFFFFFFFFFFFFFF AND DUP2 MSTORE PUSH1 0x20 ADD SWAP1 DUP2 MSTORE PUSH1 0x20 ADD PUSH1 0x0 KECCAK256 PUSH1 0x0 SWAP1 SLOAD SWAP1 PUSH2 0x100 EXP SWAP1 DIV PUSH1 0xFF AND ISZERO PUSH2 0xA40 JUMPI PUSH1 0x40 MLOAD PUSH32 0x8C379A000000000000000000000000000000000000000000000000000000000 DUP2 MSTORE PUSH1 0x4 ADD PUSH2 0xA37 SWAP1 PUSH2 0x13C4 JUMP JUMPDEST PUSH1 0x40 MLOAD DUP1 SWAP2 SUB SWAP1 REVERT JUMPDEST DUP3 PUSH1 0x3 DUP2 DUP2 SLOAD DUP2 LT PUSH2 0xA55 JUMPI PUSH2 0xA54 PUSH2 0x166A JUMP JUMPDEST JUMPDEST SWAP1 PUSH1 0x0 MSTORE PUSH1 0x20 PUSH1 0x0 KECCAK256 SWAP1 PUSH1 0x4 MUL ADD PUSH1 0x3 ADD PUSH1 0x0 SWAP1 SLOAD SWAP1 PUSH2 0x100 EXP SWAP1 DIV PUSH1 0xFF AND ISZERO PUSH2 0xAB4 JUMPI PUSH1 0x40 MLOAD PUSH32 0x8C379A000000000000000000000000000000000000000000000000000000000 DUP2 MSTORE PUSH1 0x4 ADD PUSH2 0xAAB SWAP1 PUSH2 0x13E4 JUMP JUMPDEST PUSH1 0x40 MLOAD DUP1 SWAP2 SUB SWAP1 REVERT JUMPDEST PUSH1 0x1 PUSH1 0x4 PUSH1 0x0 DUP7 DUP2 MSTORE PUSH1 0x20 ADD SWAP1 DUP2 MSTORE PUSH1 0x20 ADD PUSH1 0x0 KECCAK256 PUSH1 0x0 CALLER PUSH20 0xFFFFFFFFFFFFFFFFFFFFFFFFFFFFFFFFFFFFFFFF AND PUSH20 0xFFFFFFFFFFFFFFFFFFFFFFFFFFFFFFFFFFFFFFFF AND DUP2 MSTORE PUSH1 0x20 ADD SWAP1 DUP2 MSTORE PUSH1 0x20 ADD PUSH1 0x0 KECCAK256 PUSH1 0x0 PUSH2 0x100 EXP DUP2 SLOAD DUP2 PUSH1 0xFF MUL NOT AND SWAP1 DUP4 ISZERO ISZERO MUL OR SWAP1 SSTORE POP DUP4 CALLER PUSH20 0xFFFFFFFFFFFFFFFFFFFFFFFFFFFFFFFFFFFFFFFF AND PUSH32 0x90EC57F18FA7B15C6B8D5E4D1DEB90796C74B2FF23D4D0CECAD0CB42A96B3128 PUSH1 0x40 MLOAD PUSH1 0x40 MLOAD DUP1 SWAP2 SUB SWAP1 LOG3 POP POP POP POP JUMP JUMPDEST PUSH1 0x2 SLOAD DUP2 JUMP JUMPDEST DUP1 PUSH1 0x3 DUP1 SLOAD SWAP1 POP DUP2 LT PUSH2 0xBB5 JUMPI PUSH1 0x40 MLOAD PUSH32 0x8C379A000000000000000000000000000000000000000000000000000000000 DUP2 MSTORE PUSH1 0x4 ADD PUSH2 0xBAC SWAP1 PUSH2 0x13A4 JUMP JUMPDEST PUSH1 0x40 MLOAD DUP1 SWAP2 SUB SWAP1 REVERT JUMPDEST DUP2 PUSH1 0x3 DUP2 DUP2 SLOAD DUP2 LT PUSH2 0xBCA JUMPI PUSH2 0xBC9 PUSH2 0x166A JUMP JUMPDEST JUMPDEST SWAP1 PUSH1 0x0 MSTORE PUSH1 0x20 PUSH1 0x0 KECCAK256 SWAP1 PUSH1 0x4 MUL ADD PUSH1 0x3 ADD PUSH1 0x0 SWAP1 SLOAD SWAP1 PUSH2 0x100 EXP SWAP1 DIV PUSH1 0xFF AND ISZERO PUSH2 0xC29 JUMPI PUSH1 0x40 MLOAD PUSH32 0x8C379A000000000000000000000000000000000000000000000000000000000 DUP2 MSTORE PUSH1 0x4 ADD PUSH2 0xC20 SWAP1 PUSH2 0x13E4 JUMP JUMPDEST PUSH1 0x40 MLOAD DUP1 SWAP2 SUB SWAP1 REVERT JUMPDEST PUSH1 0x2 SLOAD PUSH2 0xC35 DUP5 PUSH2 0xDC6 JUMP JUMPDEST LT ISZERO PUSH2 0xC76 JUMPI PUSH1 0x40 MLOAD PUSH32 0x8C379A000000000000000000000000000000000000000000000000000000000 DUP2 MSTORE PUSH1 0x4 ADD PUSH2 0xC6D SWAP1 PUSH2 0x1364 JUMP JUMPDEST PUSH1 0x40 MLOAD DUP1 SWAP2 SUB SWAP1 REVERT JUMPDEST PUSH1 0x0 PUSH1 0x3 DUP5 DUP2 SLOAD DUP2 LT PUSH2 0xC8C JUMPI PUSH2 0xC8B PUSH2 0x166A JUMP JUMPDEST JUMPDEST SWAP1 PUSH1 0x0 MSTORE PUSH1 0x20 PUSH1 0x0 KECCAK256 SWAP1 PUSH1 0x4 MUL ADD SWAP1 POP PUSH1 0x1 DUP2 PUSH1 0x3 ADD PUSH1 0x0 PUSH2 0x100 EXP DUP2 SLOAD DUP2 PUSH1 0xFF MUL NOT AND SWAP1 DUP4 ISZERO ISZERO MUL OR SWAP1 SSTORE POP PUSH1 0x0 DUP2 PUSH1 0x0 ADD PUSH1 0x0 SWAP1 SLOAD SWAP1 PUSH2 0x100 EXP SWAP1 DIV PUSH20 0xFFFFFFFFFFFFFFFFFFFFFFFFFFFFFFFFFFFFFFFF AND PUSH20 0xFFFFFFFFFFFFFFFFFFFFFFFFFFFFFFFFFFFFFFFF AND DUP3 PUSH1 0x1 ADD SLOAD DUP4 PUSH1 0x2 ADD PUSH1 0x40 MLOAD PUSH2 0xD0C SWAP2 SWAP1 PUSH2 0x12AB JUMP JUMPDEST PUSH1 0x0 PUSH1 0x40 MLOAD DUP1 DUP4 SUB DUP2 DUP6 DUP8 GAS CALL SWAP3 POP POP POP RETURNDATASIZE DUP1 PUSH1 0x0 DUP2 EQ PUSH2 0xD49 JUMPI PUSH1 0x40 MLOAD SWAP2 POP PUSH1 0x1F NOT PUSH1 0x3F RETURNDATASIZE ADD AND DUP3 ADD PUSH1 0x40 MSTORE RETURNDATASIZE DUP3 MSTORE RETURNDATASIZE PUSH1 0x0 PUSH1 0x20 DUP5 ADD RETURNDATACOPY PUSH2 0xD4E JUMP JUMPDEST PUSH1 0x60 SWAP2 POP JUMPDEST POP POP SWAP1 POP DUP1 PUSH2 0xD92 JUMPI PUSH1 0x40 MLOAD PUSH32 0x8C379A000000000000000000000000000000000000000000000000000000000 DUP2 MSTORE PUSH1 0x4 ADD PUSH2 0xD89 SWAP1 PUSH2 0x1384 JUMP JUMPDEST PUSH1 0x40 MLOAD DUP1 SWAP2 SUB SWAP1 REVERT JUMPDEST DUP5 PUSH32 0xDDB556F1D2C1EC821E910B019D3685B229DB152A0ECD517CA7E24B8BD7139289 PUSH1 0x40 MLOAD PUSH1 0x40 MLOAD DUP1 SWAP2 SUB SWAP1 LOG2 POP POP POP POP POP JUMP JUMPDEST PUSH1 0x0 DUP1 JUMPDEST PUSH1 0x0 DUP1 SLOAD SWAP1 POP DUP2 LT ISZERO PUSH2 0xE9A JUMPI PUSH1 0x4 PUSH1 0x0 DUP5 DUP2 MSTORE PUSH1 0x20 ADD SWAP1 DUP2 MSTORE PUSH1 0x20 ADD PUSH1 0x0 KECCAK256 PUSH1 0x0 DUP1 DUP4 DUP2 SLOAD DUP2 LT PUSH2 0xDFF JUMPI PUSH2 0xDFE PUSH2 0x166A JUMP JUMPDEST JUMPDEST SWAP1 PUSH1 0x0 MSTORE PUSH1 0x20 PUSH1 0x0 KECCAK256 ADD PUSH1 0x0 SWAP1 SLOAD SWAP1 PUSH2 0x100 EXP SWAP1 DIV PUSH20 0xFFFFFFFFFFFFFFFFFFFFFFFFFFFFFFFFFFFFFFFF AND PUSH20 0xFFFFFFFFFFFFFFFFFFFFFFFFFFFFFFFFFFFFFFFF AND PUSH20 0xFFFFFFFFFFFFFFFFFFFFFFFFFFFFFFFFFFFFFFFF AND DUP2 MSTORE PUSH1 0x20 ADD SWAP1 DUP2 MSTORE PUSH1 0x20 ADD PUSH1 0x0 KECCAK256 PUSH1 0x0 SWAP1 SLOAD SWAP1 PUSH2 0x100 EXP SWAP1 DIV PUSH1 0xFF AND ISZERO PUSH2 0xE87 JUMPI PUSH1 0x1 DUP3 PUSH2 0xE84 SWAP2 SWAP1 PUSH2 0x148C JUMP JUMPDEST SWAP2 POP JUMPDEST DUP1 DUP1 PUSH2 0xE92 SWAP1 PUSH2 0x15C3 JUMP JUMPDEST SWAP2 POP POP PUSH2 0xDCA JUMP JUMPDEST POP SWAP2 SWAP1 POP JUMP JUMPDEST DUP3 DUP1 SLOAD PUSH2 0xEAC SWAP1 PUSH2 0x1591 JUMP JUMPDEST SWAP1 PUSH1 0x0 MSTORE PUSH1 0x20 PUSH1 0x0 KECCAK256 SWAP1 PUSH1 0x1F ADD PUSH1 0x20 SWAP1 DIV DUP2 ADD SWAP3 DUP3 PUSH2 0xECE JUMPI PUSH1 0x0 DUP6 SSTORE PUSH2 0xF15 JUMP JUMPDEST DUP3 PUSH1 0x1F LT PUSH2 0xEE7 JUMPI DUP1 MLOAD PUSH1 0xFF NOT AND DUP4 DUP1 ADD OR DUP6 SSTORE PUSH2 0xF15 JUMP JUMPDEST DUP3 DUP1 ADD PUSH1 0x1 ADD DUP6 SSTORE DUP3 ISZERO PUSH2 0xF15 JUMPI SWAP2 DUP3 ADD JUMPDEST DUP3 DUP2 GT ISZERO PUSH2 0xF14 JUMPI DUP3 MLOAD DUP3 SSTORE SWAP2 PUSH1 0x20 ADD SWAP2 SWAP1 PUSH1 0x1 ADD SWAP1 PUSH2 0xEF9 JUMP JUMPDEST JUMPDEST POP SWAP1 POP PUSH2 0xF22 SWAP2 SWAP1 PUSH2 0xF26 JUMP JUMPDEST POP SWAP1 JUMP JUMPDEST JUMPDEST DUP1 DUP3 GT ISZERO PUSH2 0xF3F JUMPI PUSH1 0x0 DUP2 PUSH1 0x0 SWAP1 SSTORE POP PUSH1 0x1 ADD PUSH2 0xF27 JUMP JUMPDEST POP SWAP1 JUMP JUMPDEST PUSH1 0x0 DUP2 CALLDATALOAD SWAP1 POP PUSH2 0xF52 DUP2 PUSH2 0x17E2 JUMP JUMPDEST SWAP3 SWAP2 POP POP JUMP JUMPDEST PUSH1 0x0 DUP1 DUP4 PUSH1 0x1F DUP5 ADD SLT PUSH2 0xF6E JUMPI PUSH2 0xF6D PUSH2 0x169E JUMP JUMPDEST JUMPDEST DUP3 CALLDATALOAD SWAP1 POP PUSH8 0xFFFFFFFFFFFFFFFF DUP2 GT ISZERO PUSH2 0xF8B JUMPI PUSH2 0xF8A PUSH2 0x1699 JUMP JUMPDEST JUMPDEST PUSH1 0x20 DUP4 ADD SWAP2 POP DUP4 PUSH1 0x1 DUP3 MUL DUP4 ADD GT ISZERO PUSH2 0xFA7 JUMPI PUSH2 0xFA6 PUSH2 0x16A3 JUMP JUMPDEST JUMPDEST SWAP3 POP SWAP3 SWAP1 POP JUMP JUMPDEST PUSH1 0x0 DUP2 CALLDATALOAD SWAP1 POP PUSH2 0xFBD DUP2 PUSH2 0x17F9 JUMP JUMPDEST SWAP3 SWAP2 POP POP JUMP JUMPDEST PUSH1 0x0 PUSH1 0x20 DUP3 DUP5 SUB SLT ISZERO PUSH2 0xFD9 JUMPI PUSH2 0xFD8 PUSH2 0x16AD JUMP JUMPDEST JUMPDEST PUSH1 0x0 PUSH2 0xFE7 DUP5 DUP3 DUP6 ADD PUSH2 0xF43 JUMP JUMPDEST SWAP2 POP POP SWAP3 SWAP2 POP POP JUMP JUMPDEST PUSH1 0x0 DUP1 PUSH1 0x0 DUP1 PUSH1 0x60 DUP6 DUP8 SUB SLT ISZERO PUSH2 0x100A JUMPI PUSH2 0x1009 PUSH2 0x16AD JUMP JUMPDEST JUMPDEST PUSH1 0x0 PUSH2 0x1018 DUP8 DUP3 DUP9 ADD PUSH2 0xF43 JUMP JUMPDEST SWAP5 POP POP PUSH1 0x20 PUSH2 0x1029 DUP8 DUP3 DUP9 ADD PUSH2 0xFAE JUMP JUMPDEST SWAP4 POP POP PUSH1 0x40 DUP6 ADD CALLDATALOAD PUSH8 0xFFFFFFFFFFFFFFFF DUP2 GT ISZERO PUSH2 0x104A JUMPI PUSH2 0x1049 PUSH2 0x16A8 JUMP JUMPDEST JUMPDEST PUSH2 0x1056 DUP8 DUP3 DUP9 ADD PUSH2 0xF58 JUMP JUMPDEST SWAP3 POP SWAP3 POP POP SWAP3 SWAP6 SWAP2 SWAP5 POP SWAP3 POP JUMP JUMPDEST PUSH1 0x0 PUSH1 0x20 DUP3 DUP5 SUB SLT ISZERO PUSH2 0x107A JUMPI PUSH2 0x1079 PUSH2 0x16AD JUMP JUMPDEST JUMPDEST PUSH1 0x0 PUSH2 0x1088 DUP5 DUP3 DUP6 ADD PUSH2 0xFAE JUMP JUMPDEST SWAP2 POP POP SWAP3 SWAP2 POP POP JUMP JUMPDEST PUSH1 0x0 DUP1 PUSH1 0x40 DUP4 DUP6 SUB SLT ISZERO PUSH2 0x10A8 JUMPI PUSH2 0x10A7 PUSH2 0x16AD JUMP JUMPDEST JUMPDEST PUSH1 0x0 PUSH2 0x10B6 DUP6 DUP3 DUP7 ADD PUSH2 0xFAE JUMP JUMPDEST SWAP3 POP POP PUSH1 0x20 PUSH2 0x10C7 DUP6 DUP3 DUP7 ADD PUSH2 0xF43 JUMP JUMPDEST SWAP2 POP POP SWAP3 POP SWAP3 SWAP1 POP JUMP JUMPDEST PUSH2 0x10DA DUP2 PUSH2 0x1516 JUMP JUMPDEST DUP3 MSTORE POP POP JUMP JUMPDEST PUSH2 0x10E9 DUP2 PUSH2 0x1528 JUMP JUMPDEST DUP3 MSTORE POP POP JUMP JUMPDEST PUSH1 0x0 PUSH2 0x10FA DUP3 PUSH2 0x1454 JUMP JUMPDEST PUSH2 0x1104 DUP2 DUP6 PUSH2 0x145F JUMP JUMPDEST SWAP4 POP PUSH2 0x1114 DUP2 DUP6 PUSH1 0x20 DUP7 ADD PUSH2 0x155E JUMP JUMPDEST PUSH2 0x111D DUP2 PUSH2 0x16B2 JUMP JUMPDEST DUP5 ADD SWAP2 POP POP SWAP3 SWAP2 POP POP JUMP JUMPDEST PUSH1 0x0 DUP2 SLOAD PUSH2 0x1135 DUP2 PUSH2 0x1591 JUMP JUMPDEST PUSH2 0x113F DUP2 DUP7 PUSH2 0x1470 JUMP JUMPDEST SWAP5 POP PUSH1 0x1 DUP3 AND PUSH1 0x0 DUP2 EQ PUSH2 0x115A JUMPI PUSH1 0x1 DUP2 EQ PUSH2 0x116B JUMPI PUSH2 0x119E JUMP JUMPDEST PUSH1 0xFF NOT DUP4 AND DUP7 MSTORE DUP2 DUP7 ADD SWAP4 POP PUSH2 0x119E JUMP JUMPDEST PUSH2 0x1174 DUP6 PUSH2 0x143F JUMP JUMPDEST PUSH1 0x0 JUMPDEST DUP4 DUP2 LT ISZERO PUSH2 0x1196 JUMPI DUP2 SLOAD DUP2 DUP10 ADD MSTORE PUSH1 0x1 DUP3 ADD SWAP2 POP PUSH1 0x20 DUP2 ADD SWAP1 POP PUSH2 0x1177 JUMP JUMPDEST DUP4 DUP9 ADD SWAP6 POP POP POP JUMPDEST POP POP POP SWAP3 SWAP2 POP POP JUMP JUMPDEST PUSH1 0x0 PUSH2 0x11B4 PUSH1 0xF DUP4 PUSH2 0x147B JUMP JUMPDEST SWAP2 POP PUSH2 0x11BF DUP3 PUSH2 0x16C3 JUMP JUMPDEST PUSH1 0x20 DUP3 ADD SWAP1 POP SWAP2 SWAP1 POP JUMP JUMPDEST PUSH1 0x0 PUSH2 0x11D7 PUSH1 0x14 DUP4 PUSH2 0x147B JUMP JUMPDEST SWAP2 POP PUSH2 0x11E2 DUP3 PUSH2 0x16EC JUMP JUMPDEST PUSH1 0x20 DUP3 ADD SWAP1 POP SWAP2 SWAP1 POP JUMP JUMPDEST PUSH1 0x0 PUSH2 0x11FA PUSH1 0x9 DUP4 PUSH2 0x147B JUMP JUMPDEST SWAP2 POP PUSH2 0x1205 DUP3 PUSH2 0x1715 JUMP JUMPDEST PUSH1 0x20 DUP3 ADD SWAP1 POP SWAP2 SWAP1 POP JUMP JUMPDEST PUSH1 0x0 PUSH2 0x121D PUSH1 0x11 DUP4 PUSH2 0x147B JUMP JUMPDEST SWAP2 POP PUSH2 0x1228 DUP3 PUSH2 0x173E JUMP JUMPDEST PUSH1 0x20 DUP3 ADD SWAP1 POP SWAP2 SWAP1 POP JUMP JUMPDEST PUSH1 0x0 PUSH2 0x1240 PUSH1 0x13 DUP4 PUSH2 0x147B JUMP JUMPDEST SWAP2 POP PUSH2 0x124B DUP3 PUSH2 0x1767 JUMP JUMPDEST PUSH1 0x20 DUP3 ADD SWAP1 POP SWAP2 SWAP1 POP JUMP JUMPDEST PUSH1 0x0 PUSH2 0x1263 PUSH1 0x13 DUP4 PUSH2 0x147B JUMP JUMPDEST SWAP2 POP PUSH2 0x126E DUP3 PUSH2 0x1790 JUMP JUMPDEST PUSH1 0x20 DUP3 ADD SWAP1 POP SWAP2 SWAP1 POP JUMP JUMPDEST PUSH1 0x0 PUSH2 0x1286 PUSH1 0x9 DUP4 PUSH2 0x147B JUMP JUMPDEST SWAP2 POP PUSH2 0x1291 DUP3 PUSH2 0x17B9 JUMP JUMPDEST PUSH1 0x20 DUP3 ADD SWAP1 POP SWAP2 SWAP1 POP JUMP JUMPDEST PUSH2 0x12A5 DUP2 PUSH2 0x1554 JUMP JUMPDEST DUP3 MSTORE POP POP JUMP JUMPDEST PUSH1 0x0 PUSH2 0x12B7 DUP3 DUP5 PUSH2 0x1128 JUMP JUMPDEST SWAP2 POP DUP2 SWAP1 POP SWAP3 SWAP2 POP POP JUMP JUMPDEST PUSH1 0x0 PUSH1 0x20 DUP3 ADD SWAP1 POP PUSH2 0x12D7 PUSH1 0x0 DUP4 ADD DUP5 PUSH2 0x10D1 JUMP JUMPDEST SWAP3 SWAP2 POP POP JUMP JUMPDEST PUSH1 0x0 PUSH1 0x80 DUP3 ADD SWAP1 POP PUSH2 0x12F2 PUSH1 0x0 DUP4 ADD DUP8 PUSH2 0x10D1 JUMP JUMPDEST PUSH2 0x12FF PUSH1 0x20 DUP4 ADD DUP7 PUSH2 0x129C JUMP JUMPDEST DUP2 DUP2 SUB PUSH1 0x40 DUP4 ADD MSTORE PUSH2 0x1311 DUP2 DUP6 PUSH2 0x10EF JUMP JUMPDEST SWAP1 POP PUSH2 0x1320 PUSH1 0x60 DUP4 ADD DUP5 PUSH2 0x10E0 JUMP JUMPDEST SWAP6 SWAP5 POP POP POP POP POP JUMP JUMPDEST PUSH1 0x0 PUSH1 0x20 DUP3 ADD SWAP1 POP PUSH2 0x133E PUSH1 0x0 DUP4 ADD DUP5 PUSH2 0x10E0 JUMP JUMPDEST SWAP3 SWAP2 POP POP JUMP JUMPDEST PUSH1 0x0 PUSH1 0x20 DUP3 ADD SWAP1 POP DUP2 DUP2 SUB PUSH1 0x0 DUP4 ADD MSTORE PUSH2 0x135D DUP2 PUSH2 0x11A7 JUMP JUMPDEST SWAP1 POP SWAP2 SWAP1 POP JUMP JUMPDEST PUSH1 0x0 PUSH1 0x20 DUP3 ADD SWAP1 POP DUP2 DUP2 SUB PUSH1 0x0 DUP4 ADD MSTORE PUSH2 0x137D DUP2 PUSH2 0x11CA JUMP JUMPDEST SWAP1 POP SWAP2 SWAP1 POP JUMP JUMPDEST PUSH1 0x0 PUSH1 0x20 DUP3 ADD SWAP1 POP DUP2 DUP2 SUB PUSH1 0x0 DUP4 ADD MSTORE PUSH2 0x139D DUP2 PUSH2 0x11ED JUMP JUMPDEST SWAP1 POP SWAP2 SWAP1 POP JUMP JUMPDEST PUSH1 0x0 PUSH1 0x20 DUP3 ADD SWAP1 POP DUP2 DUP2 SUB PUSH1 0x0 DUP4 ADD MSTORE PUSH2 0x13BD DUP2 PUSH2 0x1210 JUMP JUMPDEST SWAP1 POP SWAP2 SWAP1 POP JUMP JUMPDEST PUSH1 0x0 PUSH1 0x20 DUP3 ADD SWAP1 POP DUP2 DUP2 SUB PUSH1 0x0 DUP4 ADD MSTORE PUSH2 0x13DD DUP2 PUSH2 0x1233 JUMP JUMPDEST SWAP1 POP SWAP2 SWAP1 POP JUMP JUMPDEST PUSH1 0x0 PUSH1 0x20 DUP3 ADD SWAP1 POP DUP2 DUP2 SUB PUSH1 0x0 DUP4 ADD MSTORE PUSH2 0x13FD DUP2 PUSH2 0x1256 JUMP JUMPDEST SWAP1 POP SWAP2 SWAP1 POP JUMP JUMPDEST PUSH1 0x0 PUSH1 0x20 DUP3 ADD SWAP1 POP DUP2 DUP2 SUB PUSH1 0x0 DUP4 ADD MSTORE PUSH2 0x141D DUP2 PUSH2 0x1279 JUMP JUMPDEST SWAP1 POP SWAP2 SWAP1 POP JUMP JUMPDEST PUSH1 0x0 PUSH1 0x20 DUP3 ADD SWAP1 POP PUSH2 0x1439 PUSH1 0x0 DUP4 ADD DUP5 PUSH2 0x129C JUMP JUMPDEST SWAP3 SWAP2 POP POP JUMP JUMPDEST PUSH1 0x0 DUP2 SWAP1 POP DUP2 PUSH1 0x0 MSTORE PUSH1 0x20 PUSH1 0x0 KECCAK256 SWAP1 POP SWAP2 SWAP1 POP JUMP JUMPDEST PUSH1 0x0 DUP2 MLOAD SWAP1 POP SWAP2 SWAP1 POP JUMP JUMPDEST PUSH1 0x0 DUP3 DUP3 MSTORE PUSH1 0x20 DUP3 ADD SWAP1 POP SWAP3 SWAP2 POP POP JUMP JUMPDEST PUSH1 0x0 DUP2 SWAP1 POP SWAP3 SWAP2 POP POP JUMP JUMPDEST PUSH1 0x0 DUP3 DUP3 MSTORE PUSH1 0x20 DUP3 ADD SWAP1 POP SWAP3 SWAP2 POP POP JUMP JUMPDEST PUSH1 0x0 PUSH2 0x1497 DUP3 PUSH2 0x1554 JUMP JUMPDEST SWAP2 POP PUSH2 0x14A2 DUP4 PUSH2 0x1554 JUMP JUMPDEST SWAP3 POP DUP3 PUSH32 0xFFFFFFFFFFFFFFFFFFFFFFFFFFFFFFFFFFFFFFFFFFFFFFFFFFFFFFFFFFFFFFFF SUB DUP3 GT ISZERO PUSH2 0x14D7 JUMPI PUSH2 0x14D6 PUSH2 0x160C JUMP JUMPDEST JUMPDEST DUP3 DUP3 ADD SWAP1 POP SWAP3 SWAP2 POP POP JUMP JUMPDEST PUSH1 0x0 PUSH2 0x14ED DUP3 PUSH2 0x1554 JUMP JUMPDEST SWAP2 POP PUSH2 0x14F8 DUP4 PUSH2 0x1554 JUMP JUMPDEST SWAP3 POP DUP3 DUP3 LT ISZERO PUSH2 0x150B JUMPI PUSH2 0x150A PUSH2 0x160C JUMP JUMPDEST JUMPDEST DUP3 DUP3 SUB SWAP1 POP SWAP3 SWAP2 POP POP JUMP JUMPDEST PUSH1 0x0 PUSH2 0x1521 DUP3 PUSH2 0x1534 JUMP JUMPDEST SWAP1 POP SWAP2 SWAP1 POP JUMP JUMPDEST PUSH1 0x0 DUP2 ISZERO ISZERO SWAP1 POP SWAP2 SWAP1 POP JUMP JUMPDEST PUSH1 0x0 PUSH20 0xFFFFFFFFFFFFFFFFFFFFFFFFFFFFFFFFFFFFFFFF DUP3 AND SWAP1 POP SWAP2 SWAP1 POP JUMP JUMPDEST PUSH1 0x0 DUP2 SWAP1 POP SWAP2 SWAP1 POP JUMP JUMPDEST PUSH1 0x0 JUMPDEST DUP4 DUP2 LT ISZERO PUSH2 0x157C JUMPI DUP1 DUP3 ADD MLOAD DUP2 DUP5 ADD MSTORE PUSH1 0x20 DUP2 ADD SWAP1 POP PUSH2 0x1561 JUMP JUMPDEST DUP4 DUP2 GT ISZERO PUSH2 0x158B JUMPI PUSH1 0x0 DUP5 DUP5 ADD MSTORE JUMPDEST POP POP POP POP JUMP JUMPDEST PUSH1 0x0 PUSH1 0x2 DUP3 DIV SWAP1 POP PUSH1 0x1 DUP3 AND DUP1 PUSH2 0x15A9 JUMPI PUSH1 0x7F DUP3 AND SWAP2 POP JUMPDEST PUSH1 0x20 DUP3 LT DUP2 EQ ISZERO PUSH2 0x15BD JUMPI PUSH2 0x15BC PUSH2 0x163B JUMP JUMPDEST JUMPDEST POP SWAP2 SWAP1 POP JUMP JUMPDEST PUSH1 0x0 PUSH2 0x15CE DUP3 PUSH2 0x1554 JUMP JUMPDEST SWAP2 POP PUSH32 0xFFFFFFFFFFFFFFFFFFFFFFFFFFFFFFFFFFFFFFFFFFFFFFFFFFFFFFFFFFFFFFFF DUP3 EQ ISZERO PUSH2 0x1601 JUMPI PUSH2 0x1600 PUSH2 0x160C JUMP JUMPDEST JUMPDEST PUSH1 0x1 DUP3 ADD SWAP1 POP SWAP2 SWAP1 POP JUMP JUMPDEST PUSH32 0x4E487B7100000000000000000000000000000000000000000000000000000000 PUSH1 0x0 MSTORE PUSH1 0x11 PUSH1 0x4 MSTORE PUSH1 0x24 PUSH1 0x0 REVERT JUMPDEST PUSH32 0x4E487B7100000000000000000000000000000000000000000000000000000000 PUSH1 0x0 MSTORE PUSH1 0x22 PUSH1 0x4 MSTORE PUSH1 0x24 PUSH1 0x0 REVERT JUMPDEST PUSH32 0x4E487B7100000000000000000000000000000000000000000000000000000000 PUSH1 0x0 MSTORE PUSH1 0x32 PUSH1 0x4 MSTORE PUSH1 0x24 PUSH1 0x0 REVERT JUMPDEST PUSH1 0x0 DUP1 REVERT JUMPDEST PUSH1 0x0 DUP1 REVERT JUMPDEST PUSH1 0x0 DUP1 REVERT JUMPDEST PUSH1 0x0 DUP1 REVERT JUMPDEST PUSH1 0x0 DUP1 REVERT JUMPDEST PUSH1 0x0 PUSH1 0x1F NOT PUSH1 0x1F DUP4 ADD AND SWAP1 POP SWAP2 SWAP1 POP JUMP JUMPDEST PUSH32 0x7478206E6F7420617070726F7665640000000000000000000000000000000000 PUSH1 0x0 DUP3 ADD MSTORE POP JUMP JUMPDEST PUSH32 0x617070726F76616C73203C207265717569726564000000000000000000000000 PUSH1 0x0 DUP3 ADD MSTORE POP JUMP JUMPDEST PUSH32 0x7478206661696C65640000000000000000000000000000000000000000000000 PUSH1 0x0 DUP3 ADD MSTORE POP JUMP JUMPDEST PUSH32 0x747820646F6573206E6F74206578697374000000000000000000000000000000 PUSH1 0x0 DUP3 ADD MSTORE POP JUMP JUMPDEST PUSH32 0x747820616C726561647920617070726F76656400000000000000000000000000 PUSH1 0x0 DUP3 ADD MSTORE POP JUMP JUMPDEST PUSH32 0x747820616C726561647920657865637574656400000000000000000000000000 PUSH1 0x0 DUP3 ADD MSTORE POP JUMP JUMPDEST PUSH32 0x6E6F74206F776E65720000000000000000000000000000000000000000000000 PUSH1 0x0 DUP3 ADD MSTORE POP JUMP JUMPDEST PUSH2 0x17EB DUP2 PUSH2 0x1516 JUMP JUMPDEST DUP2 EQ PUSH2 0x17F6 JUMPI PUSH1 0x0 DUP1 REVERT JUMPDEST POP JUMP JUMPDEST PUSH2 0x1802 DUP2 PUSH2 0x1554 JUMP JUMPDEST DUP2 EQ PUSH2 0x180D JUMPI PUSH1 0x0 DUP1 REVERT JUMPDEST POP JUMP INVALID LOG2 PUSH5 0x6970667358 0x22 SLT KECCAK256 0xEA PUSH1 0xF4 DUP16 0xEE 0x5D CHAINID SWAP7 0xC4 CREATE2 DUP7 EXTCODEHASH 0xDB GAS DIFFICULTY 0xAD PUSH20 0x3E1ACF2EFFA13BD2B287B21C20F0CD64736F6C63 NUMBER STOP ADDMOD SMOD STOP CALLER "
				},
				"gasEstimates": {
					"creation": {
						"codeDepositCost": "1242800",
						"executionCost": "infinite",
						"totalCost": "infinite"
					},
					"external": {
						"approve(uint256)": "37486",
						"approved(uint256,address)": "3087",
						"execute(uint256)": "infinite",
						"isOwner(address)": "2912",
						"owners(uint256)": "4957",
						"required()": "2495",
						"revoke(uint256)": "37479",
						"submit(address,uint256,bytes)": "infinite",
						"transactions(uint256)": "infinite"
					},
					"internal": {
						"_getApprovaCount(uint256)": "infinite"
					}
				},
				"methodIdentifiers": {
					"approve(uint256)": "b759f954",
					"approved(uint256,address)": "8253951a",
					"execute(uint256)": "fe0d94c1",
					"isOwner(address)": "2f54bf6e",
					"owners(uint256)": "025e7c27",
					"required()": "dc8452cd",
					"revoke(uint256)": "20c5429b",
					"submit(address,uint256,bytes)": "14de327f",
					"transactions(uint256)": "9ace38c2"
				}
			},
			"storageLayout": {
				"storage": [
					{
						"astId": 39,
						"contract": "SCP/MultiSigWallet.sol:MultiSigWallet",
						"label": "owners",
						"offset": 0,
						"slot": "0",
						"type": "t_array(t_address)dyn_storage"
					},
					{
						"astId": 43,
						"contract": "SCP/MultiSigWallet.sol:MultiSigWallet",
						"label": "isOwner",
						"offset": 0,
						"slot": "1",
						"type": "t_mapping(t_address,t_bool)"
					},
					{
						"astId": 45,
						"contract": "SCP/MultiSigWallet.sol:MultiSigWallet",
						"label": "required",
						"offset": 0,
						"slot": "2",
						"type": "t_uint256"
					},
					{
						"astId": 49,
						"contract": "SCP/MultiSigWallet.sol:MultiSigWallet",
						"label": "transactions",
						"offset": 0,
						"slot": "3",
						"type": "t_array(t_struct(Transaction)36_storage)dyn_storage"
					},
					{
						"astId": 55,
						"contract": "SCP/MultiSigWallet.sol:MultiSigWallet",
						"label": "approved",
						"offset": 0,
						"slot": "4",
						"type": "t_mapping(t_uint256,t_mapping(t_address,t_bool))"
					}
				],
				"types": {
					"t_address": {
						"encoding": "inplace",
						"label": "address",
						"numberOfBytes": "20"
					},
					"t_array(t_address)dyn_storage": {
						"base": "t_address",
						"encoding": "dynamic_array",
						"label": "address[]",
						"numberOfBytes": "32"
					},
					"t_array(t_struct(Transaction)36_storage)dyn_storage": {
						"base": "t_struct(Transaction)36_storage",
						"encoding": "dynamic_array",
						"label": "struct MultiSigWallet.Transaction[]",
						"numberOfBytes": "32"
					},
					"t_bool": {
						"encoding": "inplace",
						"label": "bool",
						"numberOfBytes": "1"
					},
					"t_bytes_storage": {
						"encoding": "bytes",
						"label": "bytes",
						"numberOfBytes": "32"
					},
					"t_mapping(t_address,t_bool)": {
						"encoding": "mapping",
						"key": "t_address",
						"label": "mapping(address => bool)",
						"numberOfBytes": "32",
						"value": "t_bool"
					},
					"t_mapping(t_uint256,t_mapping(t_address,t_bool))": {
						"encoding": "mapping",
						"key": "t_uint256",
						"label": "mapping(uint256 => mapping(address => bool))",
						"numberOfBytes": "32",
						"value": "t_mapping(t_address,t_bool)"
					},
					"t_struct(Transaction)36_storage": {
						"encoding": "inplace",
						"label": "struct MultiSigWallet.Transaction",
						"members": [
							{
								"astId": 29,
								"contract": "SCP/MultiSigWallet.sol:MultiSigWallet",
								"label": "to",
								"offset": 0,
								"slot": "0",
								"type": "t_address"
							},
							{
								"astId": 31,
								"contract": "SCP/MultiSigWallet.sol:MultiSigWallet",
								"label": "value",
								"offset": 0,
								"slot": "1",
								"type": "t_uint256"
							},
							{
								"astId": 33,
								"contract": "SCP/MultiSigWallet.sol:MultiSigWallet",
								"label": "data",
								"offset": 0,
								"slot": "2",
								"type": "t_bytes_storage"
							},
							{
								"astId": 35,
								"contract": "SCP/MultiSigWallet.sol:MultiSigWallet",
								"label": "executed",
								"offset": 0,
								"slot": "3",
								"type": "t_bool"
							}
						],
						"numberOfBytes": "128"
					},
					"t_uint256": {
						"encoding": "inplace",
						"label": "uint256",
						"numberOfBytes": "32"
					}
				}
			},
			"userdoc": {
				"kind": "user",
				"methods": {},
				"version": 1
			}
		}
	}
}